{
  "_format": "hh-sol-artifact-1",
  "contractName": "LSP7CompatibleERC20Mintable",
  "sourceName": "contracts/LSP7DigitalAsset/presets/LSP7CompatibleERC20Mintable.sol",
  "abi": [
    {
      "inputs": [
        {
          "internalType": "string",
          "name": "name_",
          "type": "string"
        },
        {
          "internalType": "string",
          "name": "symbol_",
          "type": "string"
        },
        {
          "internalType": "address",
          "name": "newOwner_",
          "type": "address"
        }
      ],
      "stateMutability": "nonpayable",
      "type": "constructor"
    },
    {
      "inputs": [],
      "name": "LSP4TokenNameNotEditable",
      "type": "error"
    },
    {
      "inputs": [],
      "name": "LSP4TokenSymbolNotEditable",
      "type": "error"
    },
    {
      "inputs": [
        {
          "internalType": "address",
          "name": "tokenOwner",
          "type": "address"
        },
        {
          "internalType": "uint256",
          "name": "authorizedAmount",
          "type": "uint256"
        },
        {
          "internalType": "address",
          "name": "operator",
          "type": "address"
        },
        {
          "internalType": "uint256",
          "name": "amount",
          "type": "uint256"
        }
      ],
      "name": "LSP7AmountExceedsAuthorizedAmount",
      "type": "error"
    },
    {
      "inputs": [
        {
          "internalType": "uint256",
          "name": "balance",
          "type": "uint256"
        },
        {
          "internalType": "address",
          "name": "tokenOwner",
          "type": "address"
        },
        {
          "internalType": "uint256",
          "name": "amount",
          "type": "uint256"
        }
      ],
      "name": "LSP7AmountExceedsBalance",
      "type": "error"
    },
    {
      "inputs": [],
      "name": "LSP7CannotSendWithAddressZero",
      "type": "error"
    },
    {
      "inputs": [],
      "name": "LSP7CannotUseAddressZeroAsOperator",
      "type": "error"
    },
    {
      "inputs": [],
      "name": "LSP7InvalidTransferBatch",
      "type": "error"
    },
    {
      "inputs": [
        {
          "internalType": "address",
          "name": "tokenReceiver",
          "type": "address"
        }
      ],
      "name": "LSP7NotifyTokenReceiverContractMissingLSP1Interface",
      "type": "error"
    },
    {
      "inputs": [
        {
          "internalType": "address",
          "name": "tokenReceiver",
          "type": "address"
        }
      ],
      "name": "LSP7NotifyTokenReceiverIsEOA",
      "type": "error"
    },
    {
      "anonymous": false,
      "inputs": [
        {
          "indexed": true,
          "internalType": "address",
          "name": "owner",
          "type": "address"
        },
        {
          "indexed": true,
          "internalType": "address",
          "name": "spender",
          "type": "address"
        },
        {
          "indexed": false,
          "internalType": "uint256",
          "name": "value",
          "type": "uint256"
        }
      ],
      "name": "Approval",
      "type": "event"
    },
    {
      "anonymous": false,
      "inputs": [
        {
          "indexed": true,
          "internalType": "address",
          "name": "operator",
          "type": "address"
        },
        {
          "indexed": true,
          "internalType": "address",
          "name": "tokenOwner",
          "type": "address"
        },
        {
          "indexed": true,
          "internalType": "uint256",
          "name": "amount",
          "type": "uint256"
        }
      ],
      "name": "AuthorizedOperator",
      "type": "event"
    },
    {
      "anonymous": false,
      "inputs": [
        {
          "indexed": true,
          "internalType": "bytes32",
          "name": "dataKey",
          "type": "bytes32"
        }
      ],
      "name": "DataChanged",
      "type": "event"
    },
    {
      "anonymous": false,
      "inputs": [
        {
          "indexed": true,
          "internalType": "address",
          "name": "previousOwner",
          "type": "address"
        },
        {
          "indexed": true,
          "internalType": "address",
          "name": "newOwner",
          "type": "address"
        }
      ],
      "name": "OwnershipTransferred",
      "type": "event"
    },
    {
      "anonymous": false,
      "inputs": [
        {
          "indexed": true,
          "internalType": "address",
          "name": "operator",
          "type": "address"
        },
        {
          "indexed": true,
          "internalType": "address",
          "name": "tokenOwner",
          "type": "address"
        }
      ],
      "name": "RevokedOperator",
      "type": "event"
    },
    {
      "anonymous": false,
      "inputs": [
        {
          "indexed": true,
          "internalType": "address",
          "name": "from",
          "type": "address"
        },
        {
          "indexed": true,
          "internalType": "address",
          "name": "to",
          "type": "address"
        },
        {
          "indexed": false,
          "internalType": "uint256",
          "name": "value",
          "type": "uint256"
        }
      ],
      "name": "Transfer",
      "type": "event"
    },
    {
      "anonymous": false,
      "inputs": [
        {
          "indexed": true,
          "internalType": "address",
          "name": "operator",
          "type": "address"
        },
        {
          "indexed": true,
          "internalType": "address",
          "name": "from",
          "type": "address"
        },
        {
          "indexed": true,
          "internalType": "address",
          "name": "to",
          "type": "address"
        },
        {
          "indexed": false,
          "internalType": "uint256",
          "name": "amount",
          "type": "uint256"
        },
        {
          "indexed": false,
          "internalType": "bool",
          "name": "force",
          "type": "bool"
        },
        {
          "indexed": false,
          "internalType": "bytes",
          "name": "data",
          "type": "bytes"
        }
      ],
      "name": "Transfer",
      "type": "event"
    },
    {
      "inputs": [
        {
          "internalType": "address",
          "name": "tokenOwner",
          "type": "address"
        },
        {
          "internalType": "address",
          "name": "operator",
          "type": "address"
        }
      ],
      "name": "allowance",
      "outputs": [
        {
          "internalType": "uint256",
          "name": "",
          "type": "uint256"
        }
      ],
      "stateMutability": "view",
      "type": "function"
    },
    {
      "inputs": [
        {
          "internalType": "address",
          "name": "operator",
          "type": "address"
        },
        {
          "internalType": "uint256",
          "name": "amount",
          "type": "uint256"
        }
      ],
      "name": "approve",
      "outputs": [
        {
          "internalType": "bool",
          "name": "",
          "type": "bool"
        }
      ],
      "stateMutability": "nonpayable",
      "type": "function"
    },
    {
      "inputs": [
        {
          "internalType": "address",
          "name": "operator",
          "type": "address"
        },
        {
          "internalType": "uint256",
          "name": "amount",
          "type": "uint256"
        }
      ],
      "name": "authorizeOperator",
      "outputs": [],
      "stateMutability": "nonpayable",
      "type": "function"
    },
    {
      "inputs": [
        {
          "internalType": "address",
          "name": "tokenOwner",
          "type": "address"
        }
      ],
      "name": "balanceOf",
      "outputs": [
        {
          "internalType": "uint256",
          "name": "",
          "type": "uint256"
        }
      ],
      "stateMutability": "view",
      "type": "function"
    },
    {
      "inputs": [],
      "name": "decimals",
      "outputs": [
        {
          "internalType": "uint256",
          "name": "",
          "type": "uint256"
        }
      ],
      "stateMutability": "view",
      "type": "function"
    },
    {
      "inputs": [
        {
          "internalType": "bytes32[]",
          "name": "dataKeys",
          "type": "bytes32[]"
        }
      ],
      "name": "getData",
      "outputs": [
        {
          "internalType": "bytes[]",
          "name": "dataValues",
          "type": "bytes[]"
        }
      ],
      "stateMutability": "view",
      "type": "function"
    },
    {
      "inputs": [
        {
          "internalType": "bytes32",
          "name": "dataKey",
          "type": "bytes32"
        }
      ],
      "name": "getData",
      "outputs": [
        {
          "internalType": "bytes",
          "name": "dataValue",
          "type": "bytes"
        }
      ],
      "stateMutability": "view",
      "type": "function"
    },
    {
      "inputs": [
        {
          "internalType": "address",
          "name": "operator",
          "type": "address"
        },
        {
          "internalType": "address",
          "name": "tokenOwner",
          "type": "address"
        }
      ],
      "name": "isOperatorFor",
      "outputs": [
        {
          "internalType": "uint256",
          "name": "",
          "type": "uint256"
        }
      ],
      "stateMutability": "view",
      "type": "function"
    },
    {
      "inputs": [
        {
          "internalType": "address",
          "name": "to",
          "type": "address"
        },
        {
          "internalType": "uint256",
          "name": "amount",
          "type": "uint256"
        },
        {
          "internalType": "bool",
          "name": "force",
          "type": "bool"
        },
        {
          "internalType": "bytes",
          "name": "data",
          "type": "bytes"
        }
      ],
      "name": "mint",
      "outputs": [],
      "stateMutability": "nonpayable",
      "type": "function"
    },
    {
      "inputs": [],
      "name": "name",
      "outputs": [
        {
          "internalType": "string",
          "name": "",
          "type": "string"
        }
      ],
      "stateMutability": "view",
      "type": "function"
    },
    {
      "inputs": [],
      "name": "owner",
      "outputs": [
        {
          "internalType": "address",
          "name": "",
          "type": "address"
        }
      ],
      "stateMutability": "view",
      "type": "function"
    },
    {
      "inputs": [],
      "name": "renounceOwnership",
      "outputs": [],
      "stateMutability": "nonpayable",
      "type": "function"
    },
    {
      "inputs": [
        {
          "internalType": "address",
          "name": "operator",
          "type": "address"
        }
      ],
      "name": "revokeOperator",
      "outputs": [],
      "stateMutability": "nonpayable",
      "type": "function"
    },
    {
      "inputs": [
        {
          "internalType": "bytes32[]",
          "name": "dataKeys",
          "type": "bytes32[]"
        },
        {
          "internalType": "bytes[]",
          "name": "dataValues",
          "type": "bytes[]"
        }
      ],
      "name": "setData",
      "outputs": [],
      "stateMutability": "nonpayable",
      "type": "function"
    },
    {
      "inputs": [
        {
          "internalType": "bytes32",
          "name": "dataKey",
          "type": "bytes32"
        },
        {
          "internalType": "bytes",
          "name": "dataValue",
          "type": "bytes"
        }
      ],
      "name": "setData",
      "outputs": [],
      "stateMutability": "nonpayable",
      "type": "function"
    },
    {
      "inputs": [
        {
          "internalType": "bytes4",
          "name": "interfaceId",
          "type": "bytes4"
        }
      ],
      "name": "supportsInterface",
      "outputs": [
        {
          "internalType": "bool",
          "name": "",
          "type": "bool"
        }
      ],
      "stateMutability": "view",
      "type": "function"
    },
    {
      "inputs": [],
      "name": "symbol",
      "outputs": [
        {
          "internalType": "string",
          "name": "",
          "type": "string"
        }
      ],
      "stateMutability": "view",
      "type": "function"
    },
    {
      "inputs": [],
      "name": "totalSupply",
      "outputs": [
        {
          "internalType": "uint256",
          "name": "",
          "type": "uint256"
        }
      ],
      "stateMutability": "view",
      "type": "function"
    },
    {
      "inputs": [
        {
          "internalType": "address",
          "name": "from",
          "type": "address"
        },
        {
          "internalType": "address",
          "name": "to",
          "type": "address"
        },
        {
          "internalType": "uint256",
          "name": "amount",
          "type": "uint256"
        },
        {
          "internalType": "bool",
          "name": "force",
          "type": "bool"
        },
        {
          "internalType": "bytes",
          "name": "data",
          "type": "bytes"
        }
      ],
      "name": "transfer",
      "outputs": [],
      "stateMutability": "nonpayable",
      "type": "function"
    },
    {
      "inputs": [
        {
          "internalType": "address",
          "name": "to",
          "type": "address"
        },
        {
          "internalType": "uint256",
          "name": "amount",
          "type": "uint256"
        }
      ],
      "name": "transfer",
      "outputs": [
        {
          "internalType": "bool",
          "name": "",
          "type": "bool"
        }
      ],
      "stateMutability": "nonpayable",
      "type": "function"
    },
    {
      "inputs": [
        {
          "internalType": "address[]",
          "name": "from",
          "type": "address[]"
        },
        {
          "internalType": "address[]",
          "name": "to",
          "type": "address[]"
        },
        {
          "internalType": "uint256[]",
          "name": "amount",
          "type": "uint256[]"
        },
        {
          "internalType": "bool",
          "name": "force",
          "type": "bool"
        },
        {
          "internalType": "bytes[]",
          "name": "data",
          "type": "bytes[]"
        }
      ],
      "name": "transferBatch",
      "outputs": [],
      "stateMutability": "nonpayable",
      "type": "function"
    },
    {
      "inputs": [
        {
          "internalType": "address",
          "name": "from",
          "type": "address"
        },
        {
          "internalType": "address",
          "name": "to",
          "type": "address"
        },
        {
          "internalType": "uint256",
          "name": "amount",
          "type": "uint256"
        }
      ],
      "name": "transferFrom",
      "outputs": [
        {
          "internalType": "bool",
          "name": "",
          "type": "bool"
        }
      ],
      "stateMutability": "nonpayable",
      "type": "function"
    },
    {
      "inputs": [
        {
          "internalType": "address",
          "name": "newOwner",
          "type": "address"
        }
      ],
      "name": "transferOwnership",
      "outputs": [],
      "stateMutability": "nonpayable",
      "type": "function"
    }
  ],
  "bytecode": "0x60806040523480156200001157600080fd5b50604051620022593803806200225983398101604081905262000034916200035b565b82828282828260008383838062000056816200014660201b620009221760201c565b50620000ad7feafec4d89fa9619884b60000a4d96624a38f7ac2d8d9a604ecf07c12c77e480c60001b604051806040016040528060048152602001632936598960e21b815250620001ad60201b6200099f1760201c565b620000e77fdeba1e292f8ba88238e10ab3c7f88bd4be4fac56cad5194b6ecceaf653468af160001b84620001ad60201b6200099f1760201c565b620001217f2f0a68ab07768e01943a599e73362a0e17a63a72e94dd2e384d2c1d4db93275660001b83620001ad60201b6200099f1760201c565b50506002805460ff191692151592909217909155506200043b98505050505050505050565b6000546001600160a01b03828116911614620001aa57600080546001600160a01b038381166001600160a01b0319831681178455604051919092169283917f8be0079c531659141344cd1fd0a4f28419497f9722a3daafe3b4186f6b6457e09190a3505b50565b60008281526001602090815260409091208251620001ce92840190620001fe565b5060405182907fcdf4e344c0d23d4cdd0474039d176c55b19d531070dbe17856bfb993a5b5720b90600090a25050565b8280546200020c90620003e8565b90600052602060002090601f0160209004810192826200023057600085556200027b565b82601f106200024b57805160ff19168380011785556200027b565b828001600101855582156200027b579182015b828111156200027b5782518255916020019190600101906200025e565b50620002899291506200028d565b5090565b5b808211156200028957600081556001016200028e565b600082601f830112620002b657600080fd5b81516001600160401b0380821115620002d357620002d362000425565b604051601f8301601f19908116603f01168101908282118183101715620002fe57620002fe62000425565b816040528381526020925086838588010111156200031b57600080fd5b600091505b838210156200033f578582018301518183018401529082019062000320565b83821115620003515760008385830101525b9695505050505050565b6000806000606084860312156200037157600080fd5b83516001600160401b03808211156200038957600080fd5b6200039787838801620002a4565b94506020860151915080821115620003ae57600080fd5b50620003bd86828701620002a4565b604086015190935090506001600160a01b0381168114620003dd57600080fd5b809150509250925092565b600181811c90821680620003fd57607f821691505b602082108114156200041f57634e487b7160e01b600052602260045260246000fd5b50919050565b634e487b7160e01b600052604160045260246000fd5b611e0e806200044b6000396000f3fe608060405234801561001057600080fd5b506004361061018d5760003560e01c8063715018a6116100e3578063a8a34e0a1161008c578063dd62ed3e11610066578063dd62ed3e14610330578063f2fde38b14610343578063fad8b32a1461035657600080fd5b8063a8a34e0a146102f7578063a9059cbb1461030a578063d95b63711461031d57600080fd5b80637f23690c116100bd5780637f23690c146102c15780638da5cb5b146102d457806395d89b41146102ef57600080fd5b8063715018a6146102935780637580d9201461029b578063760d9bba146102ae57600080fd5b806323b872dd116101455780634e3e6e9c1161011f5780634e3e6e9c1461023757806354f6127f1461025757806370a082311461026a57600080fd5b806323b872dd14610209578063313ce5671461021c57806347980aa31461022457600080fd5b8063095ea7b311610176578063095ea7b3146101cf57806314a6e293146101e257806318160ddd146101f757600080fd5b806301ffc9a71461019257806306fdde03146101ba575b600080fd5b6101a56101a0366004611a70565b610369565b60405190151581526020015b60405180910390f35b6101c26103ad565b6040516101b19190611c3a565b6101a56101dd3660046117db565b6103da565b6101f56101f03660046119b6565b6103ef565b005b6003545b6040519081526020016101b1565b6101a5610217366004611726565b6104c8565b6101fb6104f1565b6101f56102323660046117db565b610510565b61024a610245366004611979565b61051e565b6040516101b19190611bbf565b6101c2610265366004611a1a565b6105d2565b6101fb6102783660046116d8565b6001600160a01b031660009081526004602052604090205490565b6101f56105dd565b6101f56102a9366004611805565b6105f1565b6101f56102bc366004611762565b61060b565b6101f56102cf366004611a33565b6106c8565b6000546040516001600160a01b0390911681526020016101b1565b6101c26106da565b6101f561030536600461186d565b610707565b6101a56103183660046117db565b6107ed565b6101fb61032b3660046116f3565b61080c565b6101fb61033e3660046116f3565b610873565b6101f56103513660046116d8565b610886565b6101f56103643660046116d8565b610916565b60006001600160e01b031982167fe33f65c30000000000000000000000000000000000000000000000000000000014806103a757506103a7826109ee565b92915050565b606060006103a77fdeba1e292f8ba88238e10ab3c7f88bd4be4fac56cad5194b6ecceaf653468af1610a3c565b60006103e68383610510565b50600192915050565b6103f7610ade565b80518251146104735760405162461bcd60e51b815260206004820152602660248201527f4b657973206c656e677468206e6f7420657175616c20746f2076616c7565732060448201527f6c656e677468000000000000000000000000000000000000000000000000000060648201526084015b60405180910390fd5b60005b82518110156104c3576104bb83828151811061049457610494611dac565b60200260200101518383815181106104ae576104ae611dac565b6020026020010151610b47565b600101610476565b505050565b60006104e784848460016040518060200160405280600081525061060b565b5060019392505050565b60025460009060ff16610505576012610508565b60005b60ff16905090565b61051a8282610b51565b5050565b6060815167ffffffffffffffff81111561053a5761053a611dc2565b60405190808252806020026020018201604052801561056d57816020015b60608152602001906001900390816105585790505b50905060005b82518110156105cc5761059e83828151811061059157610591611dac565b6020026020010151610a3c565b8282815181106105b0576105b0611dac565b60200260200101819052506105c58160010190565b9050610573565b50919050565b60606103a782610a3c565b6105e5610ade565b6105ef6000610922565b565b6105f9610ade565b61060584848484610b9f565b50505050565b336001600160a01b03861681146106b3576001600160a01b038087166000908152600560209081526040808320938516835292905220548085111561069d576040517ff3a6b6910000000000000000000000000000000000000000000000000000000081526001600160a01b03808916600483015260248201839052831660448201526064810186905260840161046a565b6106b187836106ac8885611d03565b610bab565b505b6106c08686868686610cc3565b505050505050565b6106d0610ade565b61051a8282610b47565b606060006103a77f2f0a68ab07768e01943a599e73362a0e17a63a72e94dd2e384d2c1d4db932756610a3c565b8351855114158061071a57508251855114155b8061072757508051855114155b1561075e576040517f263eee8d00000000000000000000000000000000000000000000000000000000815260040160405180910390fd5b60005b85518110156106c0576107db86828151811061077f5761077f611dac565b602002602001015186838151811061079957610799611dac565b60200260200101518684815181106107b3576107b3611dac565b6020026020010151868686815181106107ce576107ce611dac565b602002602001015161060b565b806107e581611d7b565b915050610761565b60006103e633848460016040518060200160405280600081525061060b565b6000826001600160a01b0316826001600160a01b0316141561084757506001600160a01b0381166000908152600460205260409020546103a7565b506001600160a01b038082166000908152600560209081526040808320938616835292905220546103a7565b600061087f828461080c565b9392505050565b61088e610ade565b6001600160a01b03811661090a5760405162461bcd60e51b815260206004820152602660248201527f4f776e61626c653a206e6577206f776e657220697320746865207a65726f206160448201527f6464726573730000000000000000000000000000000000000000000000000000606482015260840161046a565b61091381610922565b50565b61091333826000610bab565b6000546001600160a01b0382811691161461091357600080546001600160a01b038381167fffffffffffffffffffffffff0000000000000000000000000000000000000000831681178455604051919092169283917f8be0079c531659141344cd1fd0a4f28419497f9722a3daafe3b4186f6b6457e09190a35050565b600082815260016020908152604090912082516109be92840190611457565b5060405182907fcdf4e344c0d23d4cdd0474039d176c55b19d531070dbe17856bfb993a5b5720b90600090a25050565b60006001600160e01b031982167f714df77c0000000000000000000000000000000000000000000000000000000014806103a757506301ffc9a760e01b6001600160e01b03198316146103a7565b6000818152600160205260409020805460609190610a5990611d46565b80601f0160208091040260200160405190810160405280929190818152602001828054610a8590611d46565b8015610ad25780601f10610aa757610100808354040283529160200191610ad2565b820191906000526020600020905b815481529060010190602001808311610ab557829003601f168201915b50505050509050919050565b33610af16000546001600160a01b031690565b6001600160a01b0316146105ef5760405162461bcd60e51b815260206004820181905260248201527f4f776e61626c653a2063616c6c6572206973206e6f7420746865206f776e6572604482015260640161046a565b61051a8282610cd7565b610b5b8282610d95565b6040518181526001600160a01b0383169033907f8c5be1e5ebec7d5bd14f71427d1e84f3dd0314c0f7b2291e5b200ac8c7c3b9259060200160405180910390a35050565b61060584848484610da0565b6001600160a01b038216610beb576040517f6355e76600000000000000000000000000000000000000000000000000000000815260040160405180910390fd5b826001600160a01b0316826001600160a01b03161415610c0a57505050565b6001600160a01b0380841660009081526005602090815260408083209386168352929052208190558015610c7e5780836001600160a01b0316836001600160a01b03167fd66aff874162a96578e919097b6f6d153dfd89a5cec41bb331fdb0c4aec16e2c60405160405180910390a4505050565b826001600160a01b0316826001600160a01b03167f50546e66e5f44d728365dc3908c63bc5cfeeab470722c1677e3073a6ac294aa160405160405180910390a3505050565b610cd08585858585610df3565b5050505050565b7fdeba1e292f8ba88238e10ab3c7f88bd4be4fac56cad5194b6ecceaf653468af1821415610d31576040517f85c169bd00000000000000000000000000000000000000000000000000000000815260040160405180910390fd5b7f2f0a68ab07768e01943a599e73362a0e17a63a72e94dd2e384d2c1d4db932756821415610d8b576040517f76755b3800000000000000000000000000000000000000000000000000000000815260040160405180910390fd5b61051a828261099f565b61051a338383610bab565b610dac84848484610e54565b6040518381526001600160a01b038516906000907fddf252ad1be2c89b69c2b068fc378daa952ba7f163c4a11628f55a4df523b3ef9060200160405180910390a350505050565b610e008585858585610f1f565b836001600160a01b0316856001600160a01b03167fddf252ad1be2c89b69c2b068fc378daa952ba7f163c4a11628f55a4df523b3ef85604051610e4591815260200190565b60405180910390a35050505050565b6001600160a01b038416610e7b57604051630d2d5ec360e41b815260040160405180910390fd5b33610e88600086866110a9565b6001600160a01b03851660009081526004602052604081208054869290610eb0908490611ceb565b92505081905550846001600160a01b031660006001600160a01b0316826001600160a01b03167f3997e418d2cef0b3b0e907b1e39605c3f7d32dbd061e82ea5b4a770d46a160a6878787604051610f0993929190611c4d565b60405180910390a4610cd06000868686866110f9565b6001600160a01b0385161580610f3c57506001600160a01b038416155b15610f5a57604051630d2d5ec360e41b815260040160405180910390fd5b6001600160a01b03851660009081526004602052604090205480841115610fc6576040517f08d47949000000000000000000000000000000000000000000000000000000008152600481018290526001600160a01b03871660248201526044810185905260640161046a565b33610fd28787876110a9565b6001600160a01b03871660009081526004602052604081208054879290610ffa908490611d03565b90915550506001600160a01b03861660009081526004602052604081208054879290611027908490611ceb565b92505081905550856001600160a01b0316876001600160a01b0316826001600160a01b03167f3997e418d2cef0b3b0e907b1e39605c3f7d32dbd061e82ea5b4a770d46a160a688888860405161107f93929190611c4d565b60405180910390a461109387878786611272565b6110a087878787876110f9565b50505050505050565b6001600160a01b0383166110cf5780600360008282546110c99190611ceb565b90915550505b6001600160a01b0382166104c35780600360008282546110ef9190611d03565b9091555050505050565b61110a84631aed5a8560e21b611355565b156111e3576000858585846040516020016111289493929190611b56565b60408051601f1981840301815290829052631aed5a8560e21b825291506001600160a01b03861690636bb56a1490611186907fdbe2c314e1aee2970c72666f2ebe8933a8575263ea71e5ff6a9178e95d47a26f908590600401611c21565b600060405180830381600087803b1580156111a057600080fd5b505af11580156111b4573d6000803e3d6000fd5b505050506040513d6000823e601f3d908101601f191682016040526111dc9190810190611a9a565b5050610cd0565b81610cd0576001600160a01b0384163b15611235576040517fa608fbb60000000000000000000000000000000000000000000000000000000081526001600160a01b038516600482015260240161046a565b6040517f26c247f40000000000000000000000000000000000000000000000000000000081526001600160a01b038516600482015260240161046a565b61128384631aed5a8560e21b611355565b15610605576000848484846040516020016112a19493929190611b56565b60408051601f1981840301815290829052631aed5a8560e21b825291506001600160a01b03861690636bb56a14906112ff907f40b8bec57d7b5ff0dbd9e9acd0a47dfeb0101e1a203766f5ccab00445fbf39e9908590600401611c21565b600060405180830381600087803b15801561131957600080fd5b505af115801561132d573d6000803e3d6000fd5b505050506040513d6000823e601f3d908101601f191682016040526106c09190810190611a9a565b604080516001600160e01b0319831660248083019190915282518083039091018152604490910182526020810180517bffffffffffffffffffffffffffffffffffffffffffffffffffffffff166301ffc9a760e01b179052905160009190829081906001600160a01b03871690617530906113d1908690611ba3565b6000604051808303818686fa925050503d806000811461140d576040519150601f19603f3d011682016040523d82523d6000602084013e611412565b606091505b509150915060208151101561142d57600093505050506103a7565b81801561144d575060008180602001905181019061144b9190611b11565b115b9695505050505050565b82805461146390611d46565b90600052602060002090601f01602090048101928261148557600085556114cb565b82601f1061149e57805160ff19168380011785556114cb565b828001600101855582156114cb579182015b828111156114cb5782518255916020019190600101906114b0565b506114d79291506114db565b5090565b5b808211156114d757600081556001016114dc565b80356001600160a01b038116811461150757600080fd5b919050565b600082601f83011261151d57600080fd5b8135602061153261152d83611c9f565b611c6e565b80838252828201915082860187848660051b890101111561155257600080fd5b60005b8581101561157857611566826114f0565b84529284019290840190600101611555565b5090979650505050505050565b600082601f83011261159657600080fd5b813560206115a661152d83611c9f565b80838252828201915082860187848660051b89010111156115c657600080fd5b60005b85811015611578578135845292840192908401906001016115c9565b600082601f8301126115f657600080fd5b8135602061160661152d83611c9f565b80838252828201915082860187848660051b890101111561162657600080fd5b6000805b8681101561166957823567ffffffffffffffff811115611648578283fd5b6116568b88838d0101611687565b865250938501939185019160010161162a565b509198975050505050505050565b8035801515811461150757600080fd5b600082601f83011261169857600080fd5b81356116a661152d82611cc3565b8181528460208386010111156116bb57600080fd5b816020850160208301376000918101602001919091529392505050565b6000602082840312156116ea57600080fd5b61087f826114f0565b6000806040838503121561170657600080fd5b61170f836114f0565b915061171d602084016114f0565b90509250929050565b60008060006060848603121561173b57600080fd5b611744846114f0565b9250611752602085016114f0565b9150604084013590509250925092565b600080600080600060a0868803121561177a57600080fd5b611783866114f0565b9450611791602087016114f0565b9350604086013592506117a660608701611677565b9150608086013567ffffffffffffffff8111156117c257600080fd5b6117ce88828901611687565b9150509295509295909350565b600080604083850312156117ee57600080fd5b6117f7836114f0565b946020939093013593505050565b6000806000806080858703121561181b57600080fd5b611824856114f0565b93506020850135925061183960408601611677565b9150606085013567ffffffffffffffff81111561185557600080fd5b61186187828801611687565b91505092959194509250565b600080600080600060a0868803121561188557600080fd5b853567ffffffffffffffff8082111561189d57600080fd5b6118a989838a0161150c565b96506020915081880135818111156118c057600080fd5b6118cc8a828b0161150c565b9650506040880135818111156118e157600080fd5b8801601f81018a136118f257600080fd5b803561190061152d82611c9f565b8082825285820191508584018d878560051b870101111561192057600080fd5b600094505b83851015611943578035835260019490940193918601918601611925565b5097506119569250505060608901611677565b9350608088013591508082111561196c57600080fd5b506117ce888289016115e5565b60006020828403121561198b57600080fd5b813567ffffffffffffffff8111156119a257600080fd5b6119ae84828501611585565b949350505050565b600080604083850312156119c957600080fd5b823567ffffffffffffffff808211156119e157600080fd5b6119ed86838701611585565b93506020850135915080821115611a0357600080fd5b50611a10858286016115e5565b9150509250929050565b600060208284031215611a2c57600080fd5b5035919050565b60008060408385031215611a4657600080fd5b82359150602083013567ffffffffffffffff811115611a6457600080fd5b611a1085828601611687565b600060208284031215611a8257600080fd5b81356001600160e01b03198116811461087f57600080fd5b600060208284031215611aac57600080fd5b815167ffffffffffffffff811115611ac357600080fd5b8201601f81018413611ad457600080fd5b8051611ae261152d82611cc3565b818152856020838501011115611af757600080fd5b611b08826020830160208601611d1a565b95945050505050565b600060208284031215611b2357600080fd5b5051919050565b60008151808452611b42816020860160208601611d1a565b601f01601f19169290920160200192915050565b60006bffffffffffffffffffffffff19808760601b168352808660601b166014840152508360288301528251611b93816048850160208701611d1a565b9190910160480195945050505050565b60008251611bb5818460208701611d1a565b9190910192915050565b6000602080830181845280855180835260408601915060408160051b870101925083870160005b82811015611c1457603f19888603018452611c02858351611b2a565b94509285019290850190600101611be6565b5092979650505050505050565b8281526040602082015260006119ae6040830184611b2a565b60208152600061087f6020830184611b2a565b8381528215156020820152606060408201526000611b086060830184611b2a565b604051601f8201601f1916810167ffffffffffffffff81118282101715611c9757611c97611dc2565b604052919050565b600067ffffffffffffffff821115611cb957611cb9611dc2565b5060051b60200190565b600067ffffffffffffffff821115611cdd57611cdd611dc2565b50601f01601f191660200190565b60008219821115611cfe57611cfe611d96565b500190565b600082821015611d1557611d15611d96565b500390565b60005b83811015611d35578181015183820152602001611d1d565b838111156106055750506000910152565b600181811c90821680611d5a57607f821691505b602082108114156105cc57634e487b7160e01b600052602260045260246000fd5b6000600019821415611d8f57611d8f611d96565b5060010190565b634e487b7160e01b600052601160045260246000fd5b634e487b7160e01b600052603260045260246000fd5b634e487b7160e01b600052604160045260246000fdfea26469706673582212202e5791b34f3306724092f32e99b763829e34211c6f301f6d968d85d3c7ca80fc64736f6c63430008070033",
  "linkReferences": {},
  "deployedLinkReferences": {}
}