{
  "_format": "hh-sol-artifact-1",
  "contractName": "LSP7DigitalAssetInit",
  "sourceName": "contracts/LSP7DigitalAsset/LSP7DigitalAssetInit.sol",
  "abi": [
    {
      "inputs": [],
      "stateMutability": "nonpayable",
      "type": "constructor"
    },
    {
      "inputs": [],
      "name": "LSP4TokenNameNotEditable",
      "type": "error"
    },
    {
      "inputs": [],
      "name": "LSP4TokenSymbolNotEditable",
      "type": "error"
    },
    {
      "inputs": [
        {
          "internalType": "address",
          "name": "tokenOwner",
          "type": "address"
        },
        {
          "internalType": "uint256",
          "name": "authorizedAmount",
          "type": "uint256"
        },
        {
          "internalType": "address",
          "name": "operator",
          "type": "address"
        },
        {
          "internalType": "uint256",
          "name": "amount",
          "type": "uint256"
        }
      ],
      "name": "LSP7AmountExceedsAuthorizedAmount",
      "type": "error"
    },
    {
      "inputs": [
        {
          "internalType": "uint256",
          "name": "balance",
          "type": "uint256"
        },
        {
          "internalType": "address",
          "name": "tokenOwner",
          "type": "address"
        },
        {
          "internalType": "uint256",
          "name": "amount",
          "type": "uint256"
        }
      ],
      "name": "LSP7AmountExceedsBalance",
      "type": "error"
    },
    {
      "inputs": [],
      "name": "LSP7CannotSendWithAddressZero",
      "type": "error"
    },
    {
      "inputs": [],
      "name": "LSP7CannotUseAddressZeroAsOperator",
      "type": "error"
    },
    {
      "inputs": [],
      "name": "LSP7InvalidTransferBatch",
      "type": "error"
    },
    {
      "inputs": [
        {
          "internalType": "address",
          "name": "tokenReceiver",
          "type": "address"
        }
      ],
      "name": "LSP7NotifyTokenReceiverContractMissingLSP1Interface",
      "type": "error"
    },
    {
      "inputs": [
        {
          "internalType": "address",
          "name": "tokenReceiver",
          "type": "address"
        }
      ],
      "name": "LSP7NotifyTokenReceiverIsEOA",
      "type": "error"
    },
    {
      "anonymous": false,
      "inputs": [
        {
          "indexed": true,
          "internalType": "address",
          "name": "operator",
          "type": "address"
        },
        {
          "indexed": true,
          "internalType": "address",
          "name": "tokenOwner",
          "type": "address"
        },
        {
          "indexed": true,
          "internalType": "uint256",
          "name": "amount",
          "type": "uint256"
        }
      ],
      "name": "AuthorizedOperator",
      "type": "event"
    },
    {
      "anonymous": false,
      "inputs": [
        {
          "indexed": true,
          "internalType": "bytes32",
          "name": "dataKey",
          "type": "bytes32"
        }
      ],
      "name": "DataChanged",
      "type": "event"
    },
    {
      "anonymous": false,
      "inputs": [
        {
          "indexed": false,
          "internalType": "uint8",
          "name": "version",
          "type": "uint8"
        }
      ],
      "name": "Initialized",
      "type": "event"
    },
    {
      "anonymous": false,
      "inputs": [
        {
          "indexed": true,
          "internalType": "address",
          "name": "previousOwner",
          "type": "address"
        },
        {
          "indexed": true,
          "internalType": "address",
          "name": "newOwner",
          "type": "address"
        }
      ],
      "name": "OwnershipTransferred",
      "type": "event"
    },
    {
      "anonymous": false,
      "inputs": [
        {
          "indexed": true,
          "internalType": "address",
          "name": "operator",
          "type": "address"
        },
        {
          "indexed": true,
          "internalType": "address",
          "name": "tokenOwner",
          "type": "address"
        }
      ],
      "name": "RevokedOperator",
      "type": "event"
    },
    {
      "anonymous": false,
      "inputs": [
        {
          "indexed": true,
          "internalType": "address",
          "name": "operator",
          "type": "address"
        },
        {
          "indexed": true,
          "internalType": "address",
          "name": "from",
          "type": "address"
        },
        {
          "indexed": true,
          "internalType": "address",
          "name": "to",
          "type": "address"
        },
        {
          "indexed": false,
          "internalType": "uint256",
          "name": "amount",
          "type": "uint256"
        },
        {
          "indexed": false,
          "internalType": "bool",
          "name": "force",
          "type": "bool"
        },
        {
          "indexed": false,
          "internalType": "bytes",
          "name": "data",
          "type": "bytes"
        }
      ],
      "name": "Transfer",
      "type": "event"
    },
    {
      "inputs": [
        {
          "internalType": "address",
          "name": "operator",
          "type": "address"
        },
        {
          "internalType": "uint256",
          "name": "amount",
          "type": "uint256"
        }
      ],
      "name": "authorizeOperator",
      "outputs": [],
      "stateMutability": "nonpayable",
      "type": "function"
    },
    {
      "inputs": [
        {
          "internalType": "address",
          "name": "tokenOwner",
          "type": "address"
        }
      ],
      "name": "balanceOf",
      "outputs": [
        {
          "internalType": "uint256",
          "name": "",
          "type": "uint256"
        }
      ],
      "stateMutability": "view",
      "type": "function"
    },
    {
      "inputs": [],
      "name": "decimals",
      "outputs": [
        {
          "internalType": "uint256",
          "name": "",
          "type": "uint256"
        }
      ],
      "stateMutability": "view",
      "type": "function"
    },
    {
      "inputs": [
        {
          "internalType": "bytes32[]",
          "name": "dataKeys",
          "type": "bytes32[]"
        }
      ],
      "name": "getData",
      "outputs": [
        {
          "internalType": "bytes[]",
          "name": "dataValues",
          "type": "bytes[]"
        }
      ],
      "stateMutability": "view",
      "type": "function"
    },
    {
      "inputs": [
        {
          "internalType": "bytes32",
          "name": "dataKey",
          "type": "bytes32"
        }
      ],
      "name": "getData",
      "outputs": [
        {
          "internalType": "bytes",
          "name": "dataValue",
          "type": "bytes"
        }
      ],
      "stateMutability": "view",
      "type": "function"
    },
    {
      "inputs": [
        {
          "internalType": "string",
          "name": "name_",
          "type": "string"
        },
        {
          "internalType": "string",
          "name": "symbol_",
          "type": "string"
        },
        {
          "internalType": "address",
          "name": "newOwner_",
          "type": "address"
        },
        {
          "internalType": "bool",
          "name": "isNFT_",
          "type": "bool"
        }
      ],
      "name": "initialize",
      "outputs": [],
      "stateMutability": "nonpayable",
      "type": "function"
    },
    {
      "inputs": [],
      "name": "initialized",
      "outputs": [
        {
          "internalType": "uint8",
          "name": "",
          "type": "uint8"
        }
      ],
      "stateMutability": "view",
      "type": "function"
    },
    {
      "inputs": [],
      "name": "initializing",
      "outputs": [
        {
          "internalType": "bool",
          "name": "",
          "type": "bool"
        }
      ],
      "stateMutability": "view",
      "type": "function"
    },
    {
      "inputs": [
        {
          "internalType": "address",
          "name": "operator",
          "type": "address"
        },
        {
          "internalType": "address",
          "name": "tokenOwner",
          "type": "address"
        }
      ],
      "name": "isOperatorFor",
      "outputs": [
        {
          "internalType": "uint256",
          "name": "",
          "type": "uint256"
        }
      ],
      "stateMutability": "view",
      "type": "function"
    },
    {
      "inputs": [],
      "name": "owner",
      "outputs": [
        {
          "internalType": "address",
          "name": "",
          "type": "address"
        }
      ],
      "stateMutability": "view",
      "type": "function"
    },
    {
      "inputs": [],
      "name": "renounceOwnership",
      "outputs": [],
      "stateMutability": "nonpayable",
      "type": "function"
    },
    {
      "inputs": [
        {
          "internalType": "address",
          "name": "operator",
          "type": "address"
        }
      ],
      "name": "revokeOperator",
      "outputs": [],
      "stateMutability": "nonpayable",
      "type": "function"
    },
    {
      "inputs": [
        {
          "internalType": "bytes32[]",
          "name": "dataKeys",
          "type": "bytes32[]"
        },
        {
          "internalType": "bytes[]",
          "name": "dataValues",
          "type": "bytes[]"
        }
      ],
      "name": "setData",
      "outputs": [],
      "stateMutability": "nonpayable",
      "type": "function"
    },
    {
      "inputs": [
        {
          "internalType": "bytes32",
          "name": "dataKey",
          "type": "bytes32"
        },
        {
          "internalType": "bytes",
          "name": "dataValue",
          "type": "bytes"
        }
      ],
      "name": "setData",
      "outputs": [],
      "stateMutability": "nonpayable",
      "type": "function"
    },
    {
      "inputs": [
        {
          "internalType": "bytes4",
          "name": "interfaceId",
          "type": "bytes4"
        }
      ],
      "name": "supportsInterface",
      "outputs": [
        {
          "internalType": "bool",
          "name": "",
          "type": "bool"
        }
      ],
      "stateMutability": "view",
      "type": "function"
    },
    {
      "inputs": [],
      "name": "totalSupply",
      "outputs": [
        {
          "internalType": "uint256",
          "name": "",
          "type": "uint256"
        }
      ],
      "stateMutability": "view",
      "type": "function"
    },
    {
      "inputs": [
        {
          "internalType": "address",
          "name": "from",
          "type": "address"
        },
        {
          "internalType": "address",
          "name": "to",
          "type": "address"
        },
        {
          "internalType": "uint256",
          "name": "amount",
          "type": "uint256"
        },
        {
          "internalType": "bool",
          "name": "force",
          "type": "bool"
        },
        {
          "internalType": "bytes",
          "name": "data",
          "type": "bytes"
        }
      ],
      "name": "transfer",
      "outputs": [],
      "stateMutability": "nonpayable",
      "type": "function"
    },
    {
      "inputs": [
        {
          "internalType": "address[]",
          "name": "from",
          "type": "address[]"
        },
        {
          "internalType": "address[]",
          "name": "to",
          "type": "address[]"
        },
        {
          "internalType": "uint256[]",
          "name": "amount",
          "type": "uint256[]"
        },
        {
          "internalType": "bool",
          "name": "force",
          "type": "bool"
        },
        {
          "internalType": "bytes[]",
          "name": "data",
          "type": "bytes[]"
        }
      ],
      "name": "transferBatch",
      "outputs": [],
      "stateMutability": "nonpayable",
      "type": "function"
    },
    {
      "inputs": [
        {
          "internalType": "address",
          "name": "newOwner",
          "type": "address"
        }
      ],
      "name": "transferOwnership",
      "outputs": [],
      "stateMutability": "nonpayable",
      "type": "function"
    }
  ],
  "bytecode": "0x60806040523480156200001157600080fd5b506200001c62000022565b62000152565b6200002e60ff62000031565b50565b60008054610100900460ff1615620000ca578160ff1660011480156200006a575062000068306200014360201b620008591760201c565b155b620000c25760405162461bcd60e51b815260206004820152602e60248201526000805160206200200f83398151915260448201526d191e481a5b9a5d1a585b1a5e995960921b60648201526084015b60405180910390fd5b506000919050565b60005460ff808416911610620001295760405162461bcd60e51b815260206004820152602e60248201526000805160206200200f83398151915260448201526d191e481a5b9a5d1a585b1a5e995960921b6064820152608401620000b9565b506000805460ff191660ff92909216919091179055600190565b6001600160a01b03163b151590565b611ead80620001626000396000f3fe608060405234801561001057600080fd5b50600436106101515760003560e01c80635c108a43116100cd5780638da5cb5b11610081578063d95b637111610066578063d95b6371146102cc578063f2fde38b146102df578063fad8b32a146102f257600080fd5b80638da5cb5b1461028f578063a8a34e0a146102b957600080fd5b8063715018a6116100b2578063715018a614610261578063760d9bba146102695780637f23690c1461027c57600080fd5b80635c108a431461022557806370a082311461023857600080fd5b80632599f1591161012457806347980aa31161010957806347980aa3146101d25780634e3e6e9c146101e557806354f6127f1461020557600080fd5b80632599f159146101ba578063313ce567146101ca57600080fd5b806301ffc9a71461015657806314a6e2931461017e578063158ef93e1461019357806318160ddd146101a8575b600080fd5b610169610164366004611a8a565b610305565b60405190151581526020015b60405180910390f35b61019161018c3660046119d0565b610349565b005b60005460405160ff9091168152602001610175565b6003545b604051908152602001610175565b600054610100900460ff16610169565b6101ac610422565b6101916101e036600461185d565b610441565b6101f86101f3366004611993565b610450565b6040516101759190611c5e565b610218610213366004611a34565b610504565b6040516101759190611cd9565b610191610233366004611b2b565b61050f565b6101ac61024636600461178f565b6001600160a01b031660009081526004602052604090205490565b61019161058c565b6101916102773660046117e4565b6105a0565b61019161028a366004611a4d565b61065d565b6000546201000090046001600160a01b03166040516001600160a01b039091168152602001610175565b6101916102c7366004611887565b61066f565b6101ac6102da3660046117b1565b610755565b6101916102ed36600461178f565b6107bd565b61019161030036600461178f565b61084d565b60006001600160e01b031982167fe33f65c3000000000000000000000000000000000000000000000000000000001480610343575061034382610868565b92915050565b6103516108b6565b80518251146103cd5760405162461bcd60e51b815260206004820152602660248201527f4b657973206c656e677468206e6f7420657175616c20746f2076616c7565732060448201527f6c656e677468000000000000000000000000000000000000000000000000000060648201526084015b60405180910390fd5b60005b825181101561041d576104158382815181106103ee576103ee611e4b565b602002602001015183838151811061040857610408611e4b565b6020026020010151610917565b6001016103d0565b505050565b60025460009060ff16610436576012610439565b60005b60ff16905090565b61044c3383836109d5565b5050565b6060815167ffffffffffffffff81111561046c5761046c611e61565b60405190808252806020026020018201604052801561049f57816020015b606081526020019060019003908161048a5790505b50905060005b82518110156104fe576104d08382815181106104c3576104c3611e4b565b6020026020010151610aed565b8282815181106104e2576104e2611e4b565b60200260200101819052506104f78160010190565b90506104a5565b50919050565b606061034382610aed565b600061051b6001610b8f565b90508015610533576000805461ff0019166101001790555b61053f85858585610cc8565b8015610585576000805461ff0019169055604051600181527f7f26b83ff96e1f2b6a682f133852f6798a09c465da95921460cefb38474024989060200160405180910390a15b5050505050565b6105946108b6565b61059e6000610d52565b565b336001600160a01b0386168114610648576001600160a01b0380871660009081526005602090815260408083209385168352929052205480851115610632576040517ff3a6b6910000000000000000000000000000000000000000000000000000000081526001600160a01b0380891660048301526024820183905283166044820152606481018690526084016103c4565b61064687836106418885611da2565b6109d5565b505b6106558686868686610dde565b505050505050565b6106656108b6565b61044c8282610917565b8351855114158061068257508251855114155b8061068f57508051855114155b156106c6576040517f263eee8d00000000000000000000000000000000000000000000000000000000815260040160405180910390fd5b60005b8551811015610655576107438682815181106106e7576106e7611e4b565b602002602001015186838151811061070157610701611e4b565b602002602001015186848151811061071b5761071b611e4b565b60200260200101518686868151811061073657610736611e4b565b60200260200101516105a0565b8061074d81611e1a565b9150506106c9565b6000826001600160a01b0316826001600160a01b0316141561079057506001600160a01b038116600090815260046020526040902054610343565b506001600160a01b0380821660009081526005602090815260408083209386168352929052205492915050565b6107c56108b6565b6001600160a01b0381166108415760405162461bcd60e51b815260206004820152602660248201527f4f776e61626c653a206e6577206f776e657220697320746865207a65726f206160448201527f646472657373000000000000000000000000000000000000000000000000000060648201526084016103c4565b61084a81610d52565b50565b61084a338260006109d5565b6001600160a01b03163b151590565b60006001600160e01b031982167f714df77c00000000000000000000000000000000000000000000000000000000148061034357506301ffc9a760e01b6001600160e01b0319831614610343565b6000546001600160a01b036201000090910416331461059e5760405162461bcd60e51b815260206004820181905260248201527f4f776e61626c653a2063616c6c6572206973206e6f7420746865206f776e657260448201526064016103c4565b7fdeba1e292f8ba88238e10ab3c7f88bd4be4fac56cad5194b6ecceaf653468af1821415610971576040517f85c169bd00000000000000000000000000000000000000000000000000000000815260040160405180910390fd5b7f2f0a68ab07768e01943a599e73362a0e17a63a72e94dd2e384d2c1d4db9327568214156109cb576040517f76755b3800000000000000000000000000000000000000000000000000000000815260040160405180910390fd5b61044c8282610f81565b6001600160a01b038216610a15576040517f6355e76600000000000000000000000000000000000000000000000000000000815260040160405180910390fd5b826001600160a01b0316826001600160a01b03161415610a3457505050565b6001600160a01b0380841660009081526005602090815260408083209386168352929052208190558015610aa85780836001600160a01b0316836001600160a01b03167fd66aff874162a96578e919097b6f6d153dfd89a5cec41bb331fdb0c4aec16e2c60405160405180910390a4505050565b826001600160a01b0316826001600160a01b03167f50546e66e5f44d728365dc3908c63bc5cfeeab470722c1677e3073a6ac294aa160405160405180910390a3505050565b6000818152600160205260409020805460609190610b0a90611de5565b80601f0160208091040260200160405190810160405280929190818152602001828054610b3690611de5565b8015610b835780601f10610b5857610100808354040283529160200191610b83565b820191906000526020600020905b815481529060010190602001808311610b6657829003601f168201915b50505050509050919050565b60008054610100900460ff1615610c2c578160ff166001148015610bb25750303b155b610c245760405162461bcd60e51b815260206004820152602e60248201527f496e697469616c697a61626c653a20636f6e747261637420697320616c72656160448201527f647920696e697469616c697a656400000000000000000000000000000000000060648201526084016103c4565b506000919050565b60005460ff808416911610610ca95760405162461bcd60e51b815260206004820152602e60248201527f496e697469616c697a61626c653a20636f6e747261637420697320616c72656160448201527f647920696e697469616c697a656400000000000000000000000000000000000060648201526084016103c4565b506000805460ff191660ff92909216919091179055600190565b919050565b600054610100900460ff16610d335760405162461bcd60e51b815260206004820152602b60248201527f496e697469616c697a61626c653a20636f6e7472616374206973206e6f74206960448201526a6e697469616c697a696e6760a81b60648201526084016103c4565b6002805460ff1916821515179055610d4c848484610fd0565b50505050565b6000546001600160a01b0382811662010000909204161461084a57600080546001600160a01b03838116620100008181027fffffffffffffffffffff0000000000000000000000000000000000000000ffff851617855560405193049190911692909183917f8be0079c531659141344cd1fd0a4f28419497f9722a3daafe3b4186f6b6457e091a35050565b6001600160a01b0385161580610dfb57506001600160a01b038416155b15610e32576040517fd2d5ec3000000000000000000000000000000000000000000000000000000000815260040160405180910390fd5b6001600160a01b03851660009081526004602052604090205480841115610e9e576040517f08d47949000000000000000000000000000000000000000000000000000000008152600481018290526001600160a01b0387166024820152604481018590526064016103c4565b33610eaa8787876110fa565b6001600160a01b03871660009081526004602052604081208054879290610ed2908490611da2565b90915550506001600160a01b03861660009081526004602052604081208054879290610eff908490611d8a565b92505081905550856001600160a01b0316876001600160a01b0316826001600160a01b03167f3997e418d2cef0b3b0e907b1e39605c3f7d32dbd061e82ea5b4a770d46a160a6888888604051610f5793929190611cec565b60405180910390a4610f6b8787878661114a565b610f78878787878761122d565b50505050505050565b60008281526001602090815260409091208251610fa092840190611513565b5060405182907fcdf4e344c0d23d4cdd0474039d176c55b19d531070dbe17856bfb993a5b5720b90600090a25050565b600054610100900460ff1661103b5760405162461bcd60e51b815260206004820152602b60248201527f496e697469616c697a61626c653a20636f6e7472616374206973206e6f74206960448201526a6e697469616c697a696e6760a81b60648201526084016103c4565b611044816113a6565b6110a67feafec4d89fa9619884b60000a4d96624a38f7ac2d8d9a604ecf07c12c77e480c60001b6040518060400160405280600481526020017fa4d9662400000000000000000000000000000000000000000000000000000000815250610f81565b6110d07fdeba1e292f8ba88238e10ab3c7f88bd4be4fac56cad5194b6ecceaf653468af184610f81565b61041d7f2f0a68ab07768e01943a599e73362a0e17a63a72e94dd2e384d2c1d4db93275683610f81565b6001600160a01b03831661112057806003600082825461111a9190611d8a565b90915550505b6001600160a01b03821661041d5780600360008282546111409190611da2565b9091555050505050565b61115b84631aed5a8560e21b611411565b15610d4c576000848484846040516020016111799493929190611bf5565b60408051601f1981840301815290829052631aed5a8560e21b825291506001600160a01b03861690636bb56a14906111d7907f40b8bec57d7b5ff0dbd9e9acd0a47dfeb0101e1a203766f5ccab00445fbf39e9908590600401611cc0565b600060405180830381600087803b1580156111f157600080fd5b505af1158015611205573d6000803e3d6000fd5b505050506040513d6000823e601f3d908101601f191682016040526106559190810190611ab4565b61123e84631aed5a8560e21b611411565b156113175760008585858460405160200161125c9493929190611bf5565b60408051601f1981840301815290829052631aed5a8560e21b825291506001600160a01b03861690636bb56a14906112ba907fdbe2c314e1aee2970c72666f2ebe8933a8575263ea71e5ff6a9178e95d47a26f908590600401611cc0565b600060405180830381600087803b1580156112d457600080fd5b505af11580156112e8573d6000803e3d6000fd5b505050506040513d6000823e601f3d908101601f191682016040526113109190810190611ab4565b5050610585565b81610585576001600160a01b0384163b15611369576040517fa608fbb60000000000000000000000000000000000000000000000000000000081526001600160a01b03851660048201526024016103c4565b6040517f26c247f40000000000000000000000000000000000000000000000000000000081526001600160a01b03851660048201526024016103c4565b600054610100900460ff166108415760405162461bcd60e51b815260206004820152602b60248201527f496e697469616c697a61626c653a20636f6e7472616374206973206e6f74206960448201526a6e697469616c697a696e6760a81b60648201526084016103c4565b604080516001600160e01b0319831660248083019190915282518083039091018152604490910182526020810180517bffffffffffffffffffffffffffffffffffffffffffffffffffffffff166301ffc9a760e01b179052905160009190829081906001600160a01b038716906175309061148d908690611c42565b6000604051808303818686fa925050503d80600081146114c9576040519150601f19603f3d011682016040523d82523d6000602084013e6114ce565b606091505b50915091506020815110156114e95760009350505050610343565b81801561150957506000818060200190518101906115079190611bb0565b115b9695505050505050565b82805461151f90611de5565b90600052602060002090601f0160209004810192826115415760008555611587565b82601f1061155a57805160ff1916838001178555611587565b82800160010185558215611587579182015b8281111561158757825182559160200191906001019061156c565b50611593929150611597565b5090565b5b808211156115935760008155600101611598565b80356001600160a01b0381168114610cc357600080fd5b600082601f8301126115d457600080fd5b813560206115e96115e483611d3e565b611d0d565b80838252828201915082860187848660051b890101111561160957600080fd5b60005b8581101561162f5761161d826115ac565b8452928401929084019060010161160c565b5090979650505050505050565b600082601f83011261164d57600080fd5b8135602061165d6115e483611d3e565b80838252828201915082860187848660051b890101111561167d57600080fd5b60005b8581101561162f57813584529284019290840190600101611680565b600082601f8301126116ad57600080fd5b813560206116bd6115e483611d3e565b80838252828201915082860187848660051b89010111156116dd57600080fd5b6000805b8681101561172057823567ffffffffffffffff8111156116ff578283fd5b61170d8b88838d010161173e565b86525093850193918501916001016116e1565b509198975050505050505050565b80358015158114610cc357600080fd5b600082601f83011261174f57600080fd5b813561175d6115e482611d62565b81815284602083860101111561177257600080fd5b816020850160208301376000918101602001919091529392505050565b6000602082840312156117a157600080fd5b6117aa826115ac565b9392505050565b600080604083850312156117c457600080fd5b6117cd836115ac565b91506117db602084016115ac565b90509250929050565b600080600080600060a086880312156117fc57600080fd5b611805866115ac565b9450611813602087016115ac565b9350604086013592506118286060870161172e565b9150608086013567ffffffffffffffff81111561184457600080fd5b6118508882890161173e565b9150509295509295909350565b6000806040838503121561187057600080fd5b611879836115ac565b946020939093013593505050565b600080600080600060a0868803121561189f57600080fd5b853567ffffffffffffffff808211156118b757600080fd5b6118c389838a016115c3565b96506020915081880135818111156118da57600080fd5b6118e68a828b016115c3565b9650506040880135818111156118fb57600080fd5b8801601f81018a1361190c57600080fd5b803561191a6115e482611d3e565b8082825285820191508584018d878560051b870101111561193a57600080fd5b600094505b8385101561195d57803583526001949094019391860191860161193f565b509750611970925050506060890161172e565b9350608088013591508082111561198657600080fd5b506118508882890161169c565b6000602082840312156119a557600080fd5b813567ffffffffffffffff8111156119bc57600080fd5b6119c88482850161163c565b949350505050565b600080604083850312156119e357600080fd5b823567ffffffffffffffff808211156119fb57600080fd5b611a078683870161163c565b93506020850135915080821115611a1d57600080fd5b50611a2a8582860161169c565b9150509250929050565b600060208284031215611a4657600080fd5b5035919050565b60008060408385031215611a6057600080fd5b82359150602083013567ffffffffffffffff811115611a7e57600080fd5b611a2a8582860161173e565b600060208284031215611a9c57600080fd5b81356001600160e01b0319811681146117aa57600080fd5b600060208284031215611ac657600080fd5b815167ffffffffffffffff811115611add57600080fd5b8201601f81018413611aee57600080fd5b8051611afc6115e482611d62565b818152856020838501011115611b1157600080fd5b611b22826020830160208601611db9565b95945050505050565b60008060008060808587031215611b4157600080fd5b843567ffffffffffffffff80821115611b5957600080fd5b611b658883890161173e565b95506020870135915080821115611b7b57600080fd5b50611b888782880161173e565b935050611b97604086016115ac565b9150611ba56060860161172e565b905092959194509250565b600060208284031215611bc257600080fd5b5051919050565b60008151808452611be1816020860160208601611db9565b601f01601f19169290920160200192915050565b60006bffffffffffffffffffffffff19808760601b168352808660601b166014840152508360288301528251611c32816048850160208701611db9565b9190910160480195945050505050565b60008251611c54818460208701611db9565b9190910192915050565b6000602080830181845280855180835260408601915060408160051b870101925083870160005b82811015611cb357603f19888603018452611ca1858351611bc9565b94509285019290850190600101611c85565b5092979650505050505050565b8281526040602082015260006119c86040830184611bc9565b6020815260006117aa6020830184611bc9565b8381528215156020820152606060408201526000611b226060830184611bc9565b604051601f8201601f1916810167ffffffffffffffff81118282101715611d3657611d36611e61565b604052919050565b600067ffffffffffffffff821115611d5857611d58611e61565b5060051b60200190565b600067ffffffffffffffff821115611d7c57611d7c611e61565b50601f01601f191660200190565b60008219821115611d9d57611d9d611e35565b500190565b600082821015611db457611db4611e35565b500390565b60005b83811015611dd4578181015183820152602001611dbc565b83811115610d4c5750506000910152565b600181811c90821680611df957607f821691505b602082108114156104fe57634e487b7160e01b600052602260045260246000fd5b6000600019821415611e2e57611e2e611e35565b5060010190565b634e487b7160e01b600052601160045260246000fd5b634e487b7160e01b600052603260045260246000fd5b634e487b7160e01b600052604160045260246000fdfea2646970667358221220898ec12d2cebf508af2786d24e7958db2bd89277d62b73078d736aa41b55279764736f6c63430008070033496e697469616c697a61626c653a20636f6e747261637420697320616c726561",
  "linkReferences": {},
  "deployedLinkReferences": {}
}