{
  "_format": "hh-sol-artifact-1",
  "contractName": "UniversalReceiverTester",
  "sourceName": "contracts/Helpers/UniversalReceivers/UniversalReceiverTester.sol",
  "abi": [
    {
      "inputs": [
        {
          "internalType": "address",
          "name": "target",
          "type": "address"
        },
        {
          "internalType": "bytes32",
          "name": "typeId",
          "type": "bytes32"
        }
      ],
      "name": "callImplementationAndReturn",
      "outputs": [
        {
          "internalType": "bytes",
          "name": "",
          "type": "bytes"
        }
      ],
      "stateMutability": "payable",
      "type": "function"
    },
    {
      "inputs": [
        {
          "internalType": "address",
          "name": "_target",
          "type": "address"
        },
        {
          "internalType": "bytes32",
          "name": "_typeId",
          "type": "bytes32"
        }
      ],
      "name": "checkImplementation",
      "outputs": [],
      "stateMutability": "payable",
      "type": "function"
    },
    {
      "inputs": [
        {
          "internalType": "address",
          "name": "_target",
          "type": "address"
        },
        {
          "internalType": "bytes32",
          "name": "_typeId",
          "type": "bytes32"
        }
      ],
      "name": "checkImplementationLowLevelCall",
      "outputs": [],
      "stateMutability": "payable",
      "type": "function"
    },
    {
      "stateMutability": "payable",
      "type": "receive"
    }
  ],
  "bytecode": "0x608060405234801561001057600080fd5b50610538806100206000396000f3fe6080604052600436106100385760003560e01c806329d81bf314610044578063b18c4e4414610059578063cbc85bac1461008257600080fd5b3661003f57005b600080fd5b610057610052366004610362565b610095565b005b61006c610067366004610362565b610137565b6040516100799190610470565b60405180910390f35b610057610090366004610362565b6101dc565b60408051631aed5a8560e21b81526004810183905260248101919091526000604482015273ffffffffffffffffffffffffffffffffffffffff831690636bb56a149034906064016000604051808303818588803b1580156100f557600080fd5b505af1158015610109573d6000803e3d6000fd5b50505050506040513d6000823e601f3d908101601f1916820160405261013291908101906103a7565b505050565b60408051631aed5a8560e21b81526004810183905260248101919091526000604482015260609073ffffffffffffffffffffffffffffffffffffffff841690636bb56a1490606401600060405180830381600087803b15801561019957600080fd5b505af11580156101ad573d6000803e3d6000fd5b505050506040513d6000823e601f3d908101601f191682016040526101d591908101906103a7565b9392505050565b60008273ffffffffffffffffffffffffffffffffffffffff1634636bb56a1460e01b8460405160240161022091815260406020820181905260009082015260600190565b60408051601f198184030181529181526020820180517bffffffffffffffffffffffffffffffffffffffffffffffffffffffff167fffffffff0000000000000000000000000000000000000000000000000000000090941693909317909252905161028b9190610454565b60006040518083038185875af1925050503d80600081146102c8576040519150601f19603f3d011682016040523d82523d6000602084013e6102cd565b606091505b5050905080610132576040517f08c379a000000000000000000000000000000000000000000000000000000000815260206004820152603a60248201527f6c6f772d6c6576656c2063616c6c20746f2060756e6976657273616c5265636560448201527f69766572282e2e2e29602066756e6374696f6e206661696c6564000000000000606482015260840160405180910390fd5b6000806040838503121561037557600080fd5b823573ffffffffffffffffffffffffffffffffffffffff8116811461039957600080fd5b946020939093013593505050565b6000602082840312156103b957600080fd5b815167ffffffffffffffff808211156103d157600080fd5b818401915084601f8301126103e557600080fd5b8151818111156103f7576103f76104d3565b604051601f8201601f19908116603f0116810190838211818310171561041f5761041f6104d3565b8160405282815287602084870101111561043857600080fd5b6104498360208301602088016104a3565b979650505050505050565b600082516104668184602087016104a3565b9190910192915050565b602081526000825180602084015261048f8160408501602087016104a3565b601f01601f19169190910160400192915050565b60005b838110156104be5781810151838201526020016104a6565b838111156104cd576000848401525b50505050565b7f4e487b7100000000000000000000000000000000000000000000000000000000600052604160045260246000fdfea264697066735822122039d5d787758aefcfb306aa4ec155f87cb04755b12b6f5389937202988bbe423e64736f6c63430008070033",
  "linkReferences": {},
  "deployedLinkReferences": {}
}