{
  "_format": "hh-sol-artifact-1",
  "contractName": "AddressRegistry",
  "sourceName": "contracts/Legacy/Registries/AddressRegistry.sol",
  "abi": [
    {
      "inputs": [
        {
          "internalType": "address",
          "name": "_address",
          "type": "address"
        }
      ],
      "name": "addAddress",
      "outputs": [
        {
          "internalType": "bool",
          "name": "",
          "type": "bool"
        }
      ],
      "stateMutability": "nonpayable",
      "type": "function"
    },
    {
      "inputs": [
        {
          "internalType": "address",
          "name": "_address",
          "type": "address"
        }
      ],
      "name": "containsAddress",
      "outputs": [
        {
          "internalType": "bool",
          "name": "",
          "type": "bool"
        }
      ],
      "stateMutability": "view",
      "type": "function"
    },
    {
      "inputs": [
        {
          "internalType": "uint256",
          "name": "_index",
          "type": "uint256"
        }
      ],
      "name": "getAddress",
      "outputs": [
        {
          "internalType": "address",
          "name": "",
          "type": "address"
        }
      ],
      "stateMutability": "view",
      "type": "function"
    },
    {
      "inputs": [],
      "name": "getAllRawValues",
      "outputs": [
        {
          "internalType": "bytes32[]",
          "name": "",
          "type": "bytes32[]"
        }
      ],
      "stateMutability": "view",
      "type": "function"
    },
    {
      "inputs": [
        {
          "internalType": "address",
          "name": "_address",
          "type": "address"
        }
      ],
      "name": "getIndex",
      "outputs": [
        {
          "internalType": "uint256",
          "name": "",
          "type": "uint256"
        }
      ],
      "stateMutability": "view",
      "type": "function"
    },
    {
      "inputs": [],
      "name": "length",
      "outputs": [
        {
          "internalType": "uint256",
          "name": "",
          "type": "uint256"
        }
      ],
      "stateMutability": "view",
      "type": "function"
    },
    {
      "inputs": [
        {
          "internalType": "address",
          "name": "_address",
          "type": "address"
        }
      ],
      "name": "removeAddress",
      "outputs": [
        {
          "internalType": "bool",
          "name": "",
          "type": "bool"
        }
      ],
      "stateMutability": "nonpayable",
      "type": "function"
    },
    {
      "inputs": [
        {
          "internalType": "bytes4",
          "name": "interfaceId",
          "type": "bytes4"
        }
      ],
      "name": "supportsInterface",
      "outputs": [
        {
          "internalType": "bool",
          "name": "",
          "type": "bool"
        }
      ],
      "stateMutability": "view",
      "type": "function"
    }
  ],
  "bytecode": "0x608060405234801561001057600080fd5b50610638806100206000396000f3fe608060405234801561001057600080fd5b50600436106100885760003560e01c80634ba79dfe1161005b5780634ba79dfe146100f1578063b31610db14610104578063b93f9b0a14610117578063c0a4ebf41461014257600080fd5b806301ffc9a71461008d5780631f7b6d32146100b5578063322433e3146100cb57806338eada1c146100de575b600080fd5b6100a061009b366004610512565b610157565b60405190151581526020015b60405180910390f35b6100bd6101e0565b6040519081526020016100ac565b6100a06100d93660046104e9565b6101f1565b6100a06100ec3660046104e9565b6101fe565b6100a06100ff3660046104e9565b61020b565b6100bd6101123660046104e9565b610218565b61012a610125366004610554565b6102b4565b6040516001600160a01b0390911681526020016100ac565b61014a6102c1565b6040516100ac919061056d565b60007f01ffc9a7000000000000000000000000000000000000000000000000000000007fffffffff00000000000000000000000000000000000000000000000000000000831614806101da57507fffffffff00000000000000000000000000000000000000000000000000000000821660009081526020819052604090205460ff165b92915050565b60006101ec6001610318565b905090565b60006101da600183610322565b60006101da600183610347565b60006101da60018361035c565b6000610225600183610322565b61028f576040517f08c379a000000000000000000000000000000000000000000000000000000000815260206004820152601e60248201527f456e756d657261626c655365743a20496e646578206e6f7420666f756e640000604482015260640160405180910390fd5b6001600160a01b0382166000908152600260205260409020546101da906001906105b1565b60006101da600183610371565b60018054604080516020808402820181019092528281526060939092909183018282801561030e57602002820191906000526020600020905b8154815260200190600101908083116102fa575b5050505050905090565b60006101da825490565b6001600160a01b038116600090815260018301602052604081205415155b9392505050565b6000610340836001600160a01b03841661037d565b6000610340836001600160a01b0384166103cc565b600061034083836104bf565b60008181526001830160205260408120546103c4575081546001818101845560008481526020808220909301849055845484825282860190935260409020919091556101da565b5060006101da565b600081815260018301602052604081205480156104b55760006103f06001836105b1565b8554909150600090610404906001906105b1565b9050818114610469576000866000018281548110610424576104246105ec565b9060005260206000200154905080876000018481548110610447576104476105ec565b6000918252602080832090910192909255918252600188019052604090208390555b855486908061047a5761047a6105d6565b6001900381819060005260206000200160009055905585600101600086815260200190815260200160002060009055600193505050506101da565b60009150506101da565b60008260000182815481106104d6576104d66105ec565b9060005260206000200154905092915050565b6000602082840312156104fb57600080fd5b81356001600160a01b038116811461034057600080fd5b60006020828403121561052457600080fd5b81357fffffffff000000000000000000000000000000000000000000000000000000008116811461034057600080fd5b60006020828403121561056657600080fd5b5035919050565b6020808252825182820181905260009190848201906040850190845b818110156105a557835183529284019291840191600101610589565b50909695505050505050565b6000828210156105d157634e487b7160e01b600052601160045260246000fd5b500390565b634e487b7160e01b600052603160045260246000fd5b634e487b7160e01b600052603260045260246000fdfea2646970667358221220b07e1e01801a1afd280d9f19183598384b227778e9dce7c70f1216bb60636b3064736f6c63430008070033",
  "linkReferences": {},
  "deployedLinkReferences": {}
}