{
  "_format": "hh-sol-artifact-1",
  "contractName": "LSP8Tester",
  "sourceName": "contracts/Helpers/Tokens/LSP8Tester.sol",
  "abi": [
    {
      "inputs": [
        {
          "internalType": "string",
          "name": "name",
          "type": "string"
        },
        {
          "internalType": "string",
          "name": "symbol",
          "type": "string"
        },
        {
          "internalType": "address",
          "name": "newOwner",
          "type": "address"
        }
      ],
      "stateMutability": "nonpayable",
      "type": "constructor"
    },
    {
      "inputs": [],
      "name": "LSP4TokenNameNotEditable",
      "type": "error"
    },
    {
      "inputs": [],
      "name": "LSP4TokenSymbolNotEditable",
      "type": "error"
    },
    {
      "inputs": [],
      "name": "LSP8CannotSendToAddressZero",
      "type": "error"
    },
    {
      "inputs": [],
      "name": "LSP8CannotUseAddressZeroAsOperator",
      "type": "error"
    },
    {
      "inputs": [],
      "name": "LSP8InvalidTransferBatch",
      "type": "error"
    },
    {
      "inputs": [
        {
          "internalType": "bytes32",
          "name": "tokenId",
          "type": "bytes32"
        }
      ],
      "name": "LSP8NonExistentTokenId",
      "type": "error"
    },
    {
      "inputs": [
        {
          "internalType": "bytes32",
          "name": "tokenId",
          "type": "bytes32"
        },
        {
          "internalType": "address",
          "name": "caller",
          "type": "address"
        }
      ],
      "name": "LSP8NotTokenOperator",
      "type": "error"
    },
    {
      "inputs": [
        {
          "internalType": "address",
          "name": "tokenOwner",
          "type": "address"
        },
        {
          "internalType": "bytes32",
          "name": "tokenId",
          "type": "bytes32"
        },
        {
          "internalType": "address",
          "name": "caller",
          "type": "address"
        }
      ],
      "name": "LSP8NotTokenOwner",
      "type": "error"
    },
    {
      "inputs": [
        {
          "internalType": "address",
          "name": "tokenReceiver",
          "type": "address"
        }
      ],
      "name": "LSP8NotifyTokenReceiverContractMissingLSP1Interface",
      "type": "error"
    },
    {
      "inputs": [
        {
          "internalType": "address",
          "name": "tokenReceiver",
          "type": "address"
        }
      ],
      "name": "LSP8NotifyTokenReceiverIsEOA",
      "type": "error"
    },
    {
      "inputs": [
        {
          "internalType": "bytes32",
          "name": "tokenId",
          "type": "bytes32"
        }
      ],
      "name": "LSP8TokenIdAlreadyMinted",
      "type": "error"
    },
    {
      "anonymous": false,
      "inputs": [
        {
          "indexed": true,
          "internalType": "address",
          "name": "operator",
          "type": "address"
        },
        {
          "indexed": true,
          "internalType": "address",
          "name": "tokenOwner",
          "type": "address"
        },
        {
          "indexed": true,
          "internalType": "bytes32",
          "name": "tokenId",
          "type": "bytes32"
        }
      ],
      "name": "AuthorizedOperator",
      "type": "event"
    },
    {
      "anonymous": false,
      "inputs": [
        {
          "indexed": true,
          "internalType": "bytes32",
          "name": "dataKey",
          "type": "bytes32"
        }
      ],
      "name": "DataChanged",
      "type": "event"
    },
    {
      "anonymous": false,
      "inputs": [
        {
          "indexed": true,
          "internalType": "address",
          "name": "previousOwner",
          "type": "address"
        },
        {
          "indexed": true,
          "internalType": "address",
          "name": "newOwner",
          "type": "address"
        }
      ],
      "name": "OwnershipTransferred",
      "type": "event"
    },
    {
      "anonymous": false,
      "inputs": [
        {
          "indexed": true,
          "internalType": "address",
          "name": "operator",
          "type": "address"
        },
        {
          "indexed": true,
          "internalType": "address",
          "name": "tokenOwner",
          "type": "address"
        },
        {
          "indexed": true,
          "internalType": "bytes32",
          "name": "tokenId",
          "type": "bytes32"
        }
      ],
      "name": "RevokedOperator",
      "type": "event"
    },
    {
      "anonymous": false,
      "inputs": [
        {
          "indexed": false,
          "internalType": "address",
          "name": "operator",
          "type": "address"
        },
        {
          "indexed": true,
          "internalType": "address",
          "name": "from",
          "type": "address"
        },
        {
          "indexed": true,
          "internalType": "address",
          "name": "to",
          "type": "address"
        },
        {
          "indexed": true,
          "internalType": "bytes32",
          "name": "tokenId",
          "type": "bytes32"
        },
        {
          "indexed": false,
          "internalType": "bool",
          "name": "force",
          "type": "bool"
        },
        {
          "indexed": false,
          "internalType": "bytes",
          "name": "data",
          "type": "bytes"
        }
      ],
      "name": "Transfer",
      "type": "event"
    },
    {
      "inputs": [
        {
          "internalType": "address",
          "name": "operator",
          "type": "address"
        },
        {
          "internalType": "bytes32",
          "name": "tokenId",
          "type": "bytes32"
        }
      ],
      "name": "authorizeOperator",
      "outputs": [],
      "stateMutability": "nonpayable",
      "type": "function"
    },
    {
      "inputs": [
        {
          "internalType": "address",
          "name": "tokenOwner",
          "type": "address"
        }
      ],
      "name": "balanceOf",
      "outputs": [
        {
          "internalType": "uint256",
          "name": "",
          "type": "uint256"
        }
      ],
      "stateMutability": "view",
      "type": "function"
    },
    {
      "inputs": [
        {
          "internalType": "bytes32",
          "name": "tokenId",
          "type": "bytes32"
        },
        {
          "internalType": "bytes",
          "name": "data",
          "type": "bytes"
        }
      ],
      "name": "burn",
      "outputs": [],
      "stateMutability": "nonpayable",
      "type": "function"
    },
    {
      "inputs": [
        {
          "internalType": "bytes32[]",
          "name": "dataKeys",
          "type": "bytes32[]"
        }
      ],
      "name": "getData",
      "outputs": [
        {
          "internalType": "bytes[]",
          "name": "dataValues",
          "type": "bytes[]"
        }
      ],
      "stateMutability": "view",
      "type": "function"
    },
    {
      "inputs": [
        {
          "internalType": "bytes32",
          "name": "dataKey",
          "type": "bytes32"
        }
      ],
      "name": "getData",
      "outputs": [
        {
          "internalType": "bytes",
          "name": "dataValue",
          "type": "bytes"
        }
      ],
      "stateMutability": "view",
      "type": "function"
    },
    {
      "inputs": [
        {
          "internalType": "bytes32",
          "name": "tokenId",
          "type": "bytes32"
        }
      ],
      "name": "getOperatorsOf",
      "outputs": [
        {
          "internalType": "address[]",
          "name": "",
          "type": "address[]"
        }
      ],
      "stateMutability": "view",
      "type": "function"
    },
    {
      "inputs": [
        {
          "internalType": "address",
          "name": "operator",
          "type": "address"
        },
        {
          "internalType": "bytes32",
          "name": "tokenId",
          "type": "bytes32"
        }
      ],
      "name": "isOperatorFor",
      "outputs": [
        {
          "internalType": "bool",
          "name": "",
          "type": "bool"
        }
      ],
      "stateMutability": "view",
      "type": "function"
    },
    {
      "inputs": [
        {
          "internalType": "address",
          "name": "to",
          "type": "address"
        },
        {
          "internalType": "bytes32",
          "name": "tokenId",
          "type": "bytes32"
        },
        {
          "internalType": "bool",
          "name": "force",
          "type": "bool"
        },
        {
          "internalType": "bytes",
          "name": "data",
          "type": "bytes"
        }
      ],
      "name": "mint",
      "outputs": [],
      "stateMutability": "nonpayable",
      "type": "function"
    },
    {
      "inputs": [],
      "name": "owner",
      "outputs": [
        {
          "internalType": "address",
          "name": "",
          "type": "address"
        }
      ],
      "stateMutability": "view",
      "type": "function"
    },
    {
      "inputs": [],
      "name": "renounceOwnership",
      "outputs": [],
      "stateMutability": "nonpayable",
      "type": "function"
    },
    {
      "inputs": [
        {
          "internalType": "address",
          "name": "operator",
          "type": "address"
        },
        {
          "internalType": "bytes32",
          "name": "tokenId",
          "type": "bytes32"
        }
      ],
      "name": "revokeOperator",
      "outputs": [],
      "stateMutability": "nonpayable",
      "type": "function"
    },
    {
      "inputs": [
        {
          "internalType": "bytes32[]",
          "name": "dataKeys",
          "type": "bytes32[]"
        },
        {
          "internalType": "bytes[]",
          "name": "dataValues",
          "type": "bytes[]"
        }
      ],
      "name": "setData",
      "outputs": [],
      "stateMutability": "nonpayable",
      "type": "function"
    },
    {
      "inputs": [
        {
          "internalType": "bytes32",
          "name": "dataKey",
          "type": "bytes32"
        },
        {
          "internalType": "bytes",
          "name": "dataValue",
          "type": "bytes"
        }
      ],
      "name": "setData",
      "outputs": [],
      "stateMutability": "nonpayable",
      "type": "function"
    },
    {
      "inputs": [
        {
          "internalType": "bytes4",
          "name": "interfaceId",
          "type": "bytes4"
        }
      ],
      "name": "supportsInterface",
      "outputs": [
        {
          "internalType": "bool",
          "name": "",
          "type": "bool"
        }
      ],
      "stateMutability": "view",
      "type": "function"
    },
    {
      "inputs": [
        {
          "internalType": "address",
          "name": "tokenOwner",
          "type": "address"
        }
      ],
      "name": "tokenIdsOf",
      "outputs": [
        {
          "internalType": "bytes32[]",
          "name": "",
          "type": "bytes32[]"
        }
      ],
      "stateMutability": "view",
      "type": "function"
    },
    {
      "inputs": [
        {
          "internalType": "bytes32",
          "name": "tokenId",
          "type": "bytes32"
        }
      ],
      "name": "tokenOwnerOf",
      "outputs": [
        {
          "internalType": "address",
          "name": "",
          "type": "address"
        }
      ],
      "stateMutability": "view",
      "type": "function"
    },
    {
      "inputs": [],
      "name": "totalSupply",
      "outputs": [
        {
          "internalType": "uint256",
          "name": "",
          "type": "uint256"
        }
      ],
      "stateMutability": "view",
      "type": "function"
    },
    {
      "inputs": [
        {
          "internalType": "address",
          "name": "from",
          "type": "address"
        },
        {
          "internalType": "address",
          "name": "to",
          "type": "address"
        },
        {
          "internalType": "bytes32",
          "name": "tokenId",
          "type": "bytes32"
        },
        {
          "internalType": "bool",
          "name": "force",
          "type": "bool"
        },
        {
          "internalType": "bytes",
          "name": "data",
          "type": "bytes"
        }
      ],
      "name": "transfer",
      "outputs": [],
      "stateMutability": "nonpayable",
      "type": "function"
    },
    {
      "inputs": [
        {
          "internalType": "address[]",
          "name": "from",
          "type": "address[]"
        },
        {
          "internalType": "address[]",
          "name": "to",
          "type": "address[]"
        },
        {
          "internalType": "bytes32[]",
          "name": "tokenId",
          "type": "bytes32[]"
        },
        {
          "internalType": "bool",
          "name": "force",
          "type": "bool"
        },
        {
          "internalType": "bytes[]",
          "name": "data",
          "type": "bytes[]"
        }
      ],
      "name": "transferBatch",
      "outputs": [],
      "stateMutability": "nonpayable",
      "type": "function"
    },
    {
      "inputs": [
        {
          "internalType": "address",
          "name": "newOwner",
          "type": "address"
        }
      ],
      "name": "transferOwnership",
      "outputs": [],
      "stateMutability": "nonpayable",
      "type": "function"
    }
  ],
  "bytecode": "0x60806040523480156200001157600080fd5b50604051620024d7380380620024d7833981016040819052620000349162000340565b8282828282828062000051816200012b60201b620009991760201c565b50620000a87feafec4d89fa9619884b60000a4d96624a38f7ac2d8d9a604ecf07c12c77e480c60001b604051806040016040528060048152602001632936598960e21b8152506200019260201b62000a0b1760201c565b620000e27fdeba1e292f8ba88238e10ab3c7f88bd4be4fac56cad5194b6ecceaf653468af160001b846200019260201b62000a0b1760201c565b6200011c7f2f0a68ab07768e01943a599e73362a0e17a63a72e94dd2e384d2c1d4db93275660001b836200019260201b62000a0b1760201c565b50505050505050505062000420565b6000546001600160a01b038281169116146200018f57600080546001600160a01b038381166001600160a01b0319831681178455604051919092169283917f8be0079c531659141344cd1fd0a4f28419497f9722a3daafe3b4186f6b6457e09190a3505b50565b60008281526001602090815260409091208251620001b392840190620001e3565b5060405182907fcdf4e344c0d23d4cdd0474039d176c55b19d531070dbe17856bfb993a5b5720b90600090a25050565b828054620001f190620003cd565b90600052602060002090601f01602090048101928262000215576000855562000260565b82601f106200023057805160ff191683800117855562000260565b8280016001018555821562000260579182015b828111156200026057825182559160200191906001019062000243565b506200026e92915062000272565b5090565b5b808211156200026e576000815560010162000273565b600082601f8301126200029b57600080fd5b81516001600160401b0380821115620002b857620002b86200040a565b604051601f8301601f19908116603f01168101908282118183101715620002e357620002e36200040a565b816040528381526020925086838588010111156200030057600080fd5b600091505b8382101562000324578582018301518183018401529082019062000305565b83821115620003365760008385830101525b9695505050505050565b6000806000606084860312156200035657600080fd5b83516001600160401b03808211156200036e57600080fd5b6200037c8783880162000289565b945060208601519150808211156200039357600080fd5b50620003a28682870162000289565b604086015190935090506001600160a01b0381168114620003c257600080fd5b809150509250925092565b600181811c90821680620003e257607f821691505b602082108114156200040457634e487b7160e01b600052602260045260246000fd5b50919050565b634e487b7160e01b600052604160045260246000fd5b6120a780620004306000396000f3fe608060405234801561001057600080fd5b506004361061016c5760003560e01c806355908868116100cd5780638da5cb5b11610081578063af255b6111610066578063af255b6114610309578063cf5182ba1461031c578063f2fde38b1461032f57600080fd5b80638da5cb5b146102d8578063a3b261f2146102e957600080fd5b806370a08231116100b257806370a08231146102aa578063715018a6146102bd5780637f23690c146102c557600080fd5b806355908868146102845780636c79b70b1461029757600080fd5b80632a3654a4116101245780634e3e6e9c116101095780634e3e6e9c14610231578063511b69521461025157806354f6127f1461026457600080fd5b80632a3654a4146101fe57806349a6078d1461021157600080fd5b806314a6e2931161015557806314a6e293146101ae57806318160ddd146101c1578063217b2270146101d357600080fd5b806301ffc9a7146101715780630b0c6d8214610199575b600080fd5b61018461017f366004611c65565b610342565b60405190151581526020015b60405180910390f35b6101ac6101a7366004611a33565b610386565b005b6101ac6101bc366004611bab565b610434565b6002545b604051908152602001610190565b6101e66101e1366004611c0f565b610508565b6040516001600160a01b039091168152602001610190565b61018461020c366004611a33565b610541565b61022461021f366004611c0f565b61055d565b6040516101909190611dde565b61024461023f366004611b76565b61057f565b6040516101909190611e63565b6101ac61025f3660046119ba565b610633565b610277610272366004611c0f565b61069b565b6040516101909190611ede565b6101ac610292366004611ac5565b6106a6565b6101ac6102a5366004611c28565b61078c565b6101c56102b836600461199f565b61079a565b6101ac6107bb565b6101ac6102d3366004611c28565b6107cf565b6000546001600160a01b03166101e6565b6102fc6102f736600461199f565b6107e1565b6040516101909190611e2b565b6101ac610317366004611a5d565b610805565b6101ac61032a366004611a33565b610811565b6101ac61033d36600461199f565b610909565b60006001600160e01b031982167f49399145000000000000000000000000000000000000000000000000000000001480610380575061038082610a5a565b92915050565b600061039182610508565b9050336001600160a01b03821681146103dc57604051632d938f5160e11b81526001600160a01b03808416600483015260248201859052821660448201526064015b60405180910390fd5b6001600160a01b03841661040357604051639577b8b360e01b815260040160405180910390fd5b836001600160a01b0316826001600160a01b031614156104235750505050565b61042e848385610aa8565b50505050565b61043c610b07565b80518251146104b35760405162461bcd60e51b815260206004820152602660248201527f4b657973206c656e677468206e6f7420657175616c20746f2076616c7565732060448201527f6c656e677468000000000000000000000000000000000000000000000000000060648201526084016103d3565b60005b8251811015610503576104fb8382815181106104d4576104d4612045565b60200260200101518383815181106104ee576104ee612045565b6020026020010151610b70565b6001016104b6565b505050565b6000818152600360205260408120546001600160a01b03168061038057604051635747cd1b60e11b8152600481018490526024016103d3565b600061054c82610c2e565b6105568383610c66565b9392505050565b606061056882610c2e565b600082815260056020526040902061038090610caf565b6060815167ffffffffffffffff81111561059b5761059b61205b565b6040519080825280602002602001820160405280156105ce57816020015b60608152602001906001900390816105b95790505b50905060005b825181101561062d576105ff8382815181106105f2576105f2612045565b6020026020010151610cbc565b82828151811061061157610611612045565b60200260200101819052506106268160010190565b90506105d4565b50919050565b3361063e8185610c66565b610686576040517f1294d2a9000000000000000000000000000000000000000000000000000000008152600481018590526001600160a01b03821660248201526044016103d3565b6106938686868686610d5e565b505050505050565b606061038082610cbc565b835185511415806106b957508251855114155b806106c657508051855114155b156106fd576040517f93a8311900000000000000000000000000000000000000000000000000000000815260040160405180910390fd5b60005b85518110156106935761077a86828151811061071e5761071e612045565b602002602001015186838151811061073857610738612045565b602002602001015186848151811061075257610752612045565b60200260200101518686868151811061076d5761076d612045565b6020026020010151610633565b8061078481611ffe565b915050610700565b6107968282610ed7565b5050565b6001600160a01b038116600090815260046020526040812061038090610f9d565b6107c3610b07565b6107cd6000610999565b565b6107d7610b07565b6107968282610b70565b6001600160a01b038116600090815260046020526040902060609061038090610fa7565b61042e84848484610fb2565b600061081c82610508565b9050336001600160a01b038216811461086257604051632d938f5160e11b81526001600160a01b03808416600483015260248201859052821660448201526064016103d3565b6001600160a01b03841661088957604051639577b8b360e01b815260040160405180910390fd5b836001600160a01b0316826001600160a01b031614156108a95750505050565b60008381526005602052604090206108c190856110e6565b5082826001600160a01b0316856001600160a01b03167f34b797fc5a526f7bf1d2b5de25f6564fd85ae364e3ee939aee7c1ac27871a98860405160405180910390a450505050565b610911610b07565b6001600160a01b03811661098d5760405162461bcd60e51b815260206004820152602660248201527f4f776e61626c653a206e6577206f776e657220697320746865207a65726f206160448201527f646472657373000000000000000000000000000000000000000000000000000060648201526084016103d3565b61099681610999565b50565b6000546001600160a01b0382811691161461099657600080546001600160a01b0383811673ffffffffffffffffffffffffffffffffffffffff19831681178455604051919092169283917f8be0079c531659141344cd1fd0a4f28419497f9722a3daafe3b4186f6b6457e09190a35050565b60008281526001602090815260409091208251610a2a9284019061171e565b5060405182907fcdf4e344c0d23d4cdd0474039d176c55b19d531070dbe17856bfb993a5b5720b90600090a25050565b60006001600160e01b031982167f714df77c00000000000000000000000000000000000000000000000000000000148061038057506301ffc9a760e01b6001600160e01b0319831614610380565b6000818152600560205260409020610ac090846110fb565b5080826001600160a01b0316846001600160a01b03167f17d5389f6ab6adb2647dfa0aa365c323d37adacc30b33a65310b6158ce1373d560405160405180910390a4505050565b33610b1a6000546001600160a01b031690565b6001600160a01b0316146107cd5760405162461bcd60e51b815260206004820181905260248201527f4f776e61626c653a2063616c6c6572206973206e6f7420746865206f776e657260448201526064016103d3565b7fdeba1e292f8ba88238e10ab3c7f88bd4be4fac56cad5194b6ecceaf653468af1821415610bca576040517f85c169bd00000000000000000000000000000000000000000000000000000000815260040160405180910390fd5b7f2f0a68ab07768e01943a599e73362a0e17a63a72e94dd2e384d2c1d4db932756821415610c24576040517f76755b3800000000000000000000000000000000000000000000000000000000815260040160405180910390fd5b6107968282610a0b565b6000818152600360205260409020546001600160a01b031661099657604051635747cd1b60e11b8152600481018290526024016103d3565b600080610c7283610508565b9050806001600160a01b0316846001600160a01b03161480610ca757506000838152600560205260409020610ca79085611110565b949350505050565b6060600061055683611132565b6000818152600160205260409020805460609190610cd990611fc9565b80601f0160208091040260200160405190810160405280929190818152602001828054610d0590611fc9565b8015610d525780601f10610d2757610100808354040283529160200191610d52565b820191906000526020600020905b815481529060010190602001808311610d3557829003601f168201915b50505050509050919050565b6000610d6984610508565b9050856001600160a01b0316816001600160a01b031614610db757604051632d938f5160e11b81526001600160a01b03808316600483015260248201869052871660448201526064016103d3565b6001600160a01b038516610dde576040516324ecef4d60e01b815260040160405180910390fd5b33610dea87878761118d565b610df487866111df565b6001600160a01b0387166000908152600460205260409020610e169086611230565b506001600160a01b0386166000908152600460205260409020610e39908661123c565b5060008581526003602052604090819020805473ffffffffffffffffffffffffffffffffffffffff19166001600160a01b0389811691821790925591518792918a16907fb333c813a7426a7a11e2b190cad52c44119421594b47f6f32ace6d8c7207b2bf90610ead9086908a908a90611db4565b60405180910390a4610ec187878786611248565b610ece878787878761132b565b50505050505050565b6000610ee283610508565b905033610ef18260008661118d565b610efb82856111df565b6001600160a01b0382166000908152600460205260409020610f1d9085611230565b50600084815260036020526040808220805473ffffffffffffffffffffffffffffffffffffffff19169055518591906001600160a01b038516907fb333c813a7426a7a11e2b190cad52c44119421594b47f6f32ace6d8c7207b2bf90610f8890869085908a90611db4565b60405180910390a461042e8260008686611248565b6000610380825490565b606061038082611132565b6001600160a01b038416610fd9576040516324ecef4d60e01b815260040160405180910390fd5b6000838152600360205260409020546001600160a01b03161561102b576040517f34c7b511000000000000000000000000000000000000000000000000000000008152600481018490526024016103d3565b336110386000868661118d565b6001600160a01b038516600090815260046020526040902061105a908561123c565b50600084815260036020526040808220805473ffffffffffffffffffffffffffffffffffffffff19166001600160a01b03891690811790915590518692907fb333c813a7426a7a11e2b190cad52c44119421594b47f6f32ace6d8c7207b2bf906110c990869089908990611db4565b60405180910390a46110df60008686868661132b565b5050505050565b6000610556836001600160a01b0384166114a4565b6000610556836001600160a01b0384166114f3565b6001600160a01b03811660009081526001830160205260408120541515610556565b606081600001805480602002602001604051908101604052809291908181526020018280548015610d5257602002820191906000526020600020905b81548152602001906001019080831161116e5750505050509050919050565b6001600160a01b0383166111b4576001600260008282546111ae9190611f6e565b90915550505b6001600160a01b038216610503576001600260008282546111d59190611f86565b9091555050505050565b6000818152600560205260408120906111f782610f9d565b905060005b818110156110df57600061121084826115e6565b905061121d818787610aa8565b508061122881611ffe565b9150506111fc565b600061055683836114f3565b600061055683836114a4565b61125984631aed5a8560e21b6115f2565b1561042e576000848484846040516020016112779493929190611d4b565b60408051601f1981840301815290829052631aed5a8560e21b825291506001600160a01b03861690636bb56a14906112d5907f3724c94f0815e936299cca424da4140752198e0beb7931a6e0925d11bc97544c908590600401611ec5565b600060405180830381600087803b1580156112ef57600080fd5b505af1158015611303573d6000803e3d6000fd5b505050506040513d6000823e601f3d908101601f191682016040526106939190810190611c8f565b61133c84631aed5a8560e21b6115f2565b156114155760008585858460405160200161135a9493929190611d4b565b60408051601f1981840301815290829052631aed5a8560e21b825291506001600160a01b03861690636bb56a14906113b8907fc7a120a42b6057a0cbed111fbbfbd52fcd96748c04394f77fc2c3adbe0391e01908590600401611ec5565b600060405180830381600087803b1580156113d257600080fd5b505af11580156113e6573d6000803e3d6000fd5b505050506040513d6000823e601f3d908101601f1916820160405261140e9190810190611c8f565b50506110df565b816110df576001600160a01b0384163b15611467576040517f4349776d0000000000000000000000000000000000000000000000000000000081526001600160a01b03851660048201526024016103d3565b6040517f031731370000000000000000000000000000000000000000000000000000000081526001600160a01b03851660048201526024016103d3565b60008181526001830160205260408120546114eb57508154600181810184556000848152602080822090930184905584548482528286019093526040902091909155610380565b506000610380565b600081815260018301602052604081205480156115dc576000611517600183611f86565b855490915060009061152b90600190611f86565b905081811461159057600086600001828154811061154b5761154b612045565b906000526020600020015490508087600001848154811061156e5761156e612045565b6000918252602080832090910192909255918252600188019052604090208390555b85548690806115a1576115a161202f565b600190038181906000526020600020016000905590558560010160008681526020019081526020016000206000905560019350505050610380565b6000915050610380565b600061055683836116f4565b604080516001600160e01b0319831660248083019190915282518083039091018152604490910182526020810180517bffffffffffffffffffffffffffffffffffffffffffffffffffffffff166301ffc9a760e01b179052905160009190829081906001600160a01b038716906175309061166e908690611d98565b6000604051808303818686fa925050503d80600081146116aa576040519150601f19603f3d011682016040523d82523d6000602084013e6116af565b606091505b50915091506020815110156116ca5760009350505050610380565b8180156116ea57506000818060200190518101906116e89190611d06565b115b9695505050505050565b600082600001828154811061170b5761170b612045565b9060005260206000200154905092915050565b82805461172a90611fc9565b90600052602060002090601f01602090048101928261174c5760008555611792565b82601f1061176557805160ff1916838001178555611792565b82800160010185558215611792579182015b82811115611792578251825591602001919060010190611777565b5061179e9291506117a2565b5090565b5b8082111561179e57600081556001016117a3565b80356001600160a01b03811681146117ce57600080fd5b919050565b600082601f8301126117e457600080fd5b813560206117f96117f483611f22565b611ef1565b80838252828201915082860187848660051b890101111561181957600080fd5b60005b8581101561183f5761182d826117b7565b8452928401929084019060010161181c565b5090979650505050505050565b600082601f83011261185d57600080fd5b8135602061186d6117f483611f22565b80838252828201915082860187848660051b890101111561188d57600080fd5b60005b8581101561183f57813584529284019290840190600101611890565b600082601f8301126118bd57600080fd5b813560206118cd6117f483611f22565b80838252828201915082860187848660051b89010111156118ed57600080fd5b6000805b8681101561193057823567ffffffffffffffff81111561190f578283fd5b61191d8b88838d010161194e565b86525093850193918501916001016118f1565b509198975050505050505050565b803580151581146117ce57600080fd5b600082601f83011261195f57600080fd5b813561196d6117f482611f46565b81815284602083860101111561198257600080fd5b816020850160208301376000918101602001919091529392505050565b6000602082840312156119b157600080fd5b610556826117b7565b600080600080600060a086880312156119d257600080fd5b6119db866117b7565b94506119e9602087016117b7565b9350604086013592506119fe6060870161193e565b9150608086013567ffffffffffffffff811115611a1a57600080fd5b611a268882890161194e565b9150509295509295909350565b60008060408385031215611a4657600080fd5b611a4f836117b7565b946020939093013593505050565b60008060008060808587031215611a7357600080fd5b611a7c856117b7565b935060208501359250611a916040860161193e565b9150606085013567ffffffffffffffff811115611aad57600080fd5b611ab98782880161194e565b91505092959194509250565b600080600080600060a08688031215611add57600080fd5b853567ffffffffffffffff80821115611af557600080fd5b611b0189838a016117d3565b96506020880135915080821115611b1757600080fd5b611b2389838a016117d3565b95506040880135915080821115611b3957600080fd5b611b4589838a0161184c565b9450611b536060890161193e565b93506080880135915080821115611b6957600080fd5b50611a26888289016118ac565b600060208284031215611b8857600080fd5b813567ffffffffffffffff811115611b9f57600080fd5b610ca78482850161184c565b60008060408385031215611bbe57600080fd5b823567ffffffffffffffff80821115611bd657600080fd5b611be28683870161184c565b93506020850135915080821115611bf857600080fd5b50611c05858286016118ac565b9150509250929050565b600060208284031215611c2157600080fd5b5035919050565b60008060408385031215611c3b57600080fd5b82359150602083013567ffffffffffffffff811115611c5957600080fd5b611c058582860161194e565b600060208284031215611c7757600080fd5b81356001600160e01b03198116811461055657600080fd5b600060208284031215611ca157600080fd5b815167ffffffffffffffff811115611cb857600080fd5b8201601f81018413611cc957600080fd5b8051611cd76117f482611f46565b818152856020838501011115611cec57600080fd5b611cfd826020830160208601611f9d565b95945050505050565b600060208284031215611d1857600080fd5b5051919050565b60008151808452611d37816020860160208601611f9d565b601f01601f19169290920160200192915050565b60006bffffffffffffffffffffffff19808760601b168352808660601b166014840152508360288301528251611d88816048850160208701611f9d565b9190910160480195945050505050565b60008251611daa818460208701611f9d565b9190910192915050565b6001600160a01b03841681528215156020820152606060408201526000611cfd6060830184611d1f565b6020808252825182820181905260009190848201906040850190845b81811015611e1f5783516001600160a01b031683529284019291840191600101611dfa565b50909695505050505050565b6020808252825182820181905260009190848201906040850190845b81811015611e1f57835183529284019291840191600101611e47565b6000602080830181845280855180835260408601915060408160051b870101925083870160005b82811015611eb857603f19888603018452611ea6858351611d1f565b94509285019290850190600101611e8a565b5092979650505050505050565b828152604060208201526000610ca76040830184611d1f565b6020815260006105566020830184611d1f565b604051601f8201601f1916810167ffffffffffffffff81118282101715611f1a57611f1a61205b565b604052919050565b600067ffffffffffffffff821115611f3c57611f3c61205b565b5060051b60200190565b600067ffffffffffffffff821115611f6057611f6061205b565b50601f01601f191660200190565b60008219821115611f8157611f81612019565b500190565b600082821015611f9857611f98612019565b500390565b60005b83811015611fb8578181015183820152602001611fa0565b8381111561042e5750506000910152565b600181811c90821680611fdd57607f821691505b6020821081141561062d57634e487b7160e01b600052602260045260246000fd5b600060001982141561201257612012612019565b5060010190565b634e487b7160e01b600052601160045260246000fd5b634e487b7160e01b600052603160045260246000fd5b634e487b7160e01b600052603260045260246000fd5b634e487b7160e01b600052604160045260246000fdfea264697066735822122039c1c24fb096a0c83d5694202f35c433e995655c5c83c60ac5af51c2cd08948f64736f6c63430008070033",
  "linkReferences": {},
  "deployedLinkReferences": {}
}