{
  "_format": "hh-sol-artifact-1",
  "contractName": "SignatureValidator",
  "sourceName": "contracts/Helpers/SignatureValidatorContract.sol",
  "abi": [
    {
      "inputs": [],
      "stateMutability": "nonpayable",
      "type": "constructor"
    },
    {
      "inputs": [
        {
          "internalType": "bytes32",
          "name": "_hash",
          "type": "bytes32"
        },
        {
          "internalType": "bytes",
          "name": "_signature",
          "type": "bytes"
        }
      ],
      "name": "isValidSignature",
      "outputs": [
        {
          "internalType": "bytes4",
          "name": "",
          "type": "bytes4"
        }
      ],
      "stateMutability": "pure",
      "type": "function"
    },
    {
      "inputs": [
        {
          "internalType": "bytes4",
          "name": "interfaceId",
          "type": "bytes4"
        }
      ],
      "name": "supportsInterface",
      "outputs": [
        {
          "internalType": "bool",
          "name": "",
          "type": "bool"
        }
      ],
      "stateMutability": "view",
      "type": "function"
    }
  ],
  "bytecode": "0x608060405234801561001057600080fd5b50610021630b135d3f60e11b610026565b6100a9565b6001600160e01b031980821614156100845760405162461bcd60e51b815260206004820152601c60248201527f4552433136353a20696e76616c696420696e7465726661636520696400000000604482015260640160405180910390fd5b6001600160e01b0319166000908152602081905260409020805460ff19166001179055565b6101ee806100b86000396000f3fe608060405234801561001057600080fd5b50600436106100365760003560e01c806301ffc9a71461003b5780631626ba7e14610063575b600080fd5b61004e610049366004610187565b6100b2565b60405190151581526020015b60405180910390f35b61009961007136600461010b565b7f1626ba7e000000000000000000000000000000000000000000000000000000009392505050565b6040516001600160e01b0319909116815260200161005a565b60007f01ffc9a7000000000000000000000000000000000000000000000000000000006001600160e01b03198316148061010557506001600160e01b0319821660009081526020819052604090205460ff165b92915050565b60008060006040848603121561012057600080fd5b83359250602084013567ffffffffffffffff8082111561013f57600080fd5b818601915086601f83011261015357600080fd5b81358181111561016257600080fd5b87602082850101111561017457600080fd5b6020830194508093505050509250925092565b60006020828403121561019957600080fd5b81356001600160e01b0319811681146101b157600080fd5b939250505056fea2646970667358221220178f6942f9f105e9c717932497838dfaa4c16f5490eadedf114888645339179864736f6c63430008070033",
  "linkReferences": {},
  "deployedLinkReferences": {}
}