{
  "_format": "hh-sol-artifact-1",
  "contractName": "LSP8CappedSupplyInitTester",
  "sourceName": "contracts/Helpers/Tokens/LSP8CappedSupplyInitTester.sol",
  "abi": [
    {
      "inputs": [],
      "name": "LSP4TokenNameNotEditable",
      "type": "error"
    },
    {
      "inputs": [],
      "name": "LSP4TokenSymbolNotEditable",
      "type": "error"
    },
    {
      "inputs": [],
      "name": "LSP8CannotSendToAddressZero",
      "type": "error"
    },
    {
      "inputs": [],
      "name": "LSP8CannotUseAddressZeroAsOperator",
      "type": "error"
    },
    {
      "inputs": [],
      "name": "LSP8CappedSupplyCannotMintOverCap",
      "type": "error"
    },
    {
      "inputs": [],
      "name": "LSP8CappedSupplyRequired",
      "type": "error"
    },
    {
      "inputs": [],
      "name": "LSP8InvalidTransferBatch",
      "type": "error"
    },
    {
      "inputs": [
        {
          "internalType": "bytes32",
          "name": "tokenId",
          "type": "bytes32"
        }
      ],
      "name": "LSP8NonExistentTokenId",
      "type": "error"
    },
    {
      "inputs": [
        {
          "internalType": "bytes32",
          "name": "tokenId",
          "type": "bytes32"
        },
        {
          "internalType": "address",
          "name": "caller",
          "type": "address"
        }
      ],
      "name": "LSP8NotTokenOperator",
      "type": "error"
    },
    {
      "inputs": [
        {
          "internalType": "address",
          "name": "tokenOwner",
          "type": "address"
        },
        {
          "internalType": "bytes32",
          "name": "tokenId",
          "type": "bytes32"
        },
        {
          "internalType": "address",
          "name": "caller",
          "type": "address"
        }
      ],
      "name": "LSP8NotTokenOwner",
      "type": "error"
    },
    {
      "inputs": [
        {
          "internalType": "address",
          "name": "tokenReceiver",
          "type": "address"
        }
      ],
      "name": "LSP8NotifyTokenReceiverContractMissingLSP1Interface",
      "type": "error"
    },
    {
      "inputs": [
        {
          "internalType": "address",
          "name": "tokenReceiver",
          "type": "address"
        }
      ],
      "name": "LSP8NotifyTokenReceiverIsEOA",
      "type": "error"
    },
    {
      "inputs": [
        {
          "internalType": "bytes32",
          "name": "tokenId",
          "type": "bytes32"
        }
      ],
      "name": "LSP8TokenIdAlreadyMinted",
      "type": "error"
    },
    {
      "anonymous": false,
      "inputs": [
        {
          "indexed": true,
          "internalType": "address",
          "name": "operator",
          "type": "address"
        },
        {
          "indexed": true,
          "internalType": "address",
          "name": "tokenOwner",
          "type": "address"
        },
        {
          "indexed": true,
          "internalType": "bytes32",
          "name": "tokenId",
          "type": "bytes32"
        }
      ],
      "name": "AuthorizedOperator",
      "type": "event"
    },
    {
      "anonymous": false,
      "inputs": [
        {
          "indexed": true,
          "internalType": "bytes32",
          "name": "dataKey",
          "type": "bytes32"
        }
      ],
      "name": "DataChanged",
      "type": "event"
    },
    {
      "anonymous": false,
      "inputs": [
        {
          "indexed": false,
          "internalType": "uint8",
          "name": "version",
          "type": "uint8"
        }
      ],
      "name": "Initialized",
      "type": "event"
    },
    {
      "anonymous": false,
      "inputs": [
        {
          "indexed": true,
          "internalType": "address",
          "name": "previousOwner",
          "type": "address"
        },
        {
          "indexed": true,
          "internalType": "address",
          "name": "newOwner",
          "type": "address"
        }
      ],
      "name": "OwnershipTransferred",
      "type": "event"
    },
    {
      "anonymous": false,
      "inputs": [
        {
          "indexed": true,
          "internalType": "address",
          "name": "operator",
          "type": "address"
        },
        {
          "indexed": true,
          "internalType": "address",
          "name": "tokenOwner",
          "type": "address"
        },
        {
          "indexed": true,
          "internalType": "bytes32",
          "name": "tokenId",
          "type": "bytes32"
        }
      ],
      "name": "RevokedOperator",
      "type": "event"
    },
    {
      "anonymous": false,
      "inputs": [
        {
          "indexed": false,
          "internalType": "address",
          "name": "operator",
          "type": "address"
        },
        {
          "indexed": true,
          "internalType": "address",
          "name": "from",
          "type": "address"
        },
        {
          "indexed": true,
          "internalType": "address",
          "name": "to",
          "type": "address"
        },
        {
          "indexed": true,
          "internalType": "bytes32",
          "name": "tokenId",
          "type": "bytes32"
        },
        {
          "indexed": false,
          "internalType": "bool",
          "name": "force",
          "type": "bool"
        },
        {
          "indexed": false,
          "internalType": "bytes",
          "name": "data",
          "type": "bytes"
        }
      ],
      "name": "Transfer",
      "type": "event"
    },
    {
      "inputs": [
        {
          "internalType": "address",
          "name": "operator",
          "type": "address"
        },
        {
          "internalType": "bytes32",
          "name": "tokenId",
          "type": "bytes32"
        }
      ],
      "name": "authorizeOperator",
      "outputs": [],
      "stateMutability": "nonpayable",
      "type": "function"
    },
    {
      "inputs": [
        {
          "internalType": "address",
          "name": "tokenOwner",
          "type": "address"
        }
      ],
      "name": "balanceOf",
      "outputs": [
        {
          "internalType": "uint256",
          "name": "",
          "type": "uint256"
        }
      ],
      "stateMutability": "view",
      "type": "function"
    },
    {
      "inputs": [
        {
          "internalType": "bytes32",
          "name": "tokenId",
          "type": "bytes32"
        }
      ],
      "name": "burn",
      "outputs": [],
      "stateMutability": "nonpayable",
      "type": "function"
    },
    {
      "inputs": [
        {
          "internalType": "bytes32[]",
          "name": "dataKeys",
          "type": "bytes32[]"
        }
      ],
      "name": "getData",
      "outputs": [
        {
          "internalType": "bytes[]",
          "name": "dataValues",
          "type": "bytes[]"
        }
      ],
      "stateMutability": "view",
      "type": "function"
    },
    {
      "inputs": [
        {
          "internalType": "bytes32",
          "name": "dataKey",
          "type": "bytes32"
        }
      ],
      "name": "getData",
      "outputs": [
        {
          "internalType": "bytes",
          "name": "dataValue",
          "type": "bytes"
        }
      ],
      "stateMutability": "view",
      "type": "function"
    },
    {
      "inputs": [
        {
          "internalType": "bytes32",
          "name": "tokenId",
          "type": "bytes32"
        }
      ],
      "name": "getOperatorsOf",
      "outputs": [
        {
          "internalType": "address[]",
          "name": "",
          "type": "address[]"
        }
      ],
      "stateMutability": "view",
      "type": "function"
    },
    {
      "inputs": [
        {
          "internalType": "string",
          "name": "name",
          "type": "string"
        },
        {
          "internalType": "string",
          "name": "symbol",
          "type": "string"
        },
        {
          "internalType": "address",
          "name": "newOwner",
          "type": "address"
        },
        {
          "internalType": "uint256",
          "name": "tokenSupplyCap",
          "type": "uint256"
        }
      ],
      "name": "initialize",
      "outputs": [],
      "stateMutability": "nonpayable",
      "type": "function"
    },
    {
      "inputs": [],
      "name": "initialized",
      "outputs": [
        {
          "internalType": "uint8",
          "name": "",
          "type": "uint8"
        }
      ],
      "stateMutability": "view",
      "type": "function"
    },
    {
      "inputs": [],
      "name": "initializing",
      "outputs": [
        {
          "internalType": "bool",
          "name": "",
          "type": "bool"
        }
      ],
      "stateMutability": "view",
      "type": "function"
    },
    {
      "inputs": [
        {
          "internalType": "address",
          "name": "operator",
          "type": "address"
        },
        {
          "internalType": "bytes32",
          "name": "tokenId",
          "type": "bytes32"
        }
      ],
      "name": "isOperatorFor",
      "outputs": [
        {
          "internalType": "bool",
          "name": "",
          "type": "bool"
        }
      ],
      "stateMutability": "view",
      "type": "function"
    },
    {
      "inputs": [
        {
          "internalType": "address",
          "name": "to",
          "type": "address"
        },
        {
          "internalType": "bytes32",
          "name": "tokenId",
          "type": "bytes32"
        }
      ],
      "name": "mint",
      "outputs": [],
      "stateMutability": "nonpayable",
      "type": "function"
    },
    {
      "inputs": [],
      "name": "owner",
      "outputs": [
        {
          "internalType": "address",
          "name": "",
          "type": "address"
        }
      ],
      "stateMutability": "view",
      "type": "function"
    },
    {
      "inputs": [],
      "name": "renounceOwnership",
      "outputs": [],
      "stateMutability": "nonpayable",
      "type": "function"
    },
    {
      "inputs": [
        {
          "internalType": "address",
          "name": "operator",
          "type": "address"
        },
        {
          "internalType": "bytes32",
          "name": "tokenId",
          "type": "bytes32"
        }
      ],
      "name": "revokeOperator",
      "outputs": [],
      "stateMutability": "nonpayable",
      "type": "function"
    },
    {
      "inputs": [
        {
          "internalType": "bytes32[]",
          "name": "dataKeys",
          "type": "bytes32[]"
        },
        {
          "internalType": "bytes[]",
          "name": "dataValues",
          "type": "bytes[]"
        }
      ],
      "name": "setData",
      "outputs": [],
      "stateMutability": "nonpayable",
      "type": "function"
    },
    {
      "inputs": [
        {
          "internalType": "bytes32",
          "name": "dataKey",
          "type": "bytes32"
        },
        {
          "internalType": "bytes",
          "name": "dataValue",
          "type": "bytes"
        }
      ],
      "name": "setData",
      "outputs": [],
      "stateMutability": "nonpayable",
      "type": "function"
    },
    {
      "inputs": [
        {
          "internalType": "bytes4",
          "name": "interfaceId",
          "type": "bytes4"
        }
      ],
      "name": "supportsInterface",
      "outputs": [
        {
          "internalType": "bool",
          "name": "",
          "type": "bool"
        }
      ],
      "stateMutability": "view",
      "type": "function"
    },
    {
      "inputs": [
        {
          "internalType": "address",
          "name": "tokenOwner",
          "type": "address"
        }
      ],
      "name": "tokenIdsOf",
      "outputs": [
        {
          "internalType": "bytes32[]",
          "name": "",
          "type": "bytes32[]"
        }
      ],
      "stateMutability": "view",
      "type": "function"
    },
    {
      "inputs": [
        {
          "internalType": "bytes32",
          "name": "tokenId",
          "type": "bytes32"
        }
      ],
      "name": "tokenOwnerOf",
      "outputs": [
        {
          "internalType": "address",
          "name": "",
          "type": "address"
        }
      ],
      "stateMutability": "view",
      "type": "function"
    },
    {
      "inputs": [],
      "name": "tokenSupplyCap",
      "outputs": [
        {
          "internalType": "uint256",
          "name": "",
          "type": "uint256"
        }
      ],
      "stateMutability": "view",
      "type": "function"
    },
    {
      "inputs": [],
      "name": "totalSupply",
      "outputs": [
        {
          "internalType": "uint256",
          "name": "",
          "type": "uint256"
        }
      ],
      "stateMutability": "view",
      "type": "function"
    },
    {
      "inputs": [
        {
          "internalType": "address",
          "name": "from",
          "type": "address"
        },
        {
          "internalType": "address",
          "name": "to",
          "type": "address"
        },
        {
          "internalType": "bytes32",
          "name": "tokenId",
          "type": "bytes32"
        },
        {
          "internalType": "bool",
          "name": "force",
          "type": "bool"
        },
        {
          "internalType": "bytes",
          "name": "data",
          "type": "bytes"
        }
      ],
      "name": "transfer",
      "outputs": [],
      "stateMutability": "nonpayable",
      "type": "function"
    },
    {
      "inputs": [
        {
          "internalType": "address[]",
          "name": "from",
          "type": "address[]"
        },
        {
          "internalType": "address[]",
          "name": "to",
          "type": "address[]"
        },
        {
          "internalType": "bytes32[]",
          "name": "tokenId",
          "type": "bytes32[]"
        },
        {
          "internalType": "bool",
          "name": "force",
          "type": "bool"
        },
        {
          "internalType": "bytes[]",
          "name": "data",
          "type": "bytes[]"
        }
      ],
      "name": "transferBatch",
      "outputs": [],
      "stateMutability": "nonpayable",
      "type": "function"
    },
    {
      "inputs": [
        {
          "internalType": "address",
          "name": "newOwner",
          "type": "address"
        }
      ],
      "name": "transferOwnership",
      "outputs": [],
      "stateMutability": "nonpayable",
      "type": "function"
    }
  ],
  "bytecode": "0x608060405234801561001057600080fd5b5061266f806100206000396000f3fe608060405234801561001057600080fd5b50600436106101985760003560e01c8063511b6952116100e35780637f23690c1161008c578063cf5182ba11610066578063cf5182ba1461037b578063f2fde38b1461038e578063f542033f146103a157600080fd5b80637f23690c146103315780638da5cb5b14610344578063a3b261f21461035b57600080fd5b806355908868116100bd578063559088681461030357806370a0823114610316578063715018a61461032957600080fd5b8063511b6952146102c857806352058d8a146102db57806354f6127f146102e357600080fd5b8063217b2270116101455780632cfd30051161011f5780632cfd30051461027557806349a6078d146102885780634e3e6e9c146102a857600080fd5b8063217b2270146102275780632599f159146102525780632a3654a41461026257600080fd5b806314a6e2931161017657806314a6e293146101ed578063158ef93e1461020057806318160ddd1461021557600080fd5b806301ffc9a71461019d57806308a1eee1146101c55780630b0c6d82146101da575b600080fd5b6101b06101ab3660046121b1565b6103b4565b60405190151581526020015b60405180910390f35b6101d86101d336600461215b565b6103f8565b005b6101d86101e8366004611fe7565b61043a565b6101d86101fb3660046120f7565b6104e8565b60005460405160ff90911681526020016101bc565b6002545b6040519081526020016101bc565b61023a61023536600461215b565b6105bc565b6040516001600160a01b0390911681526020016101bc565b600054610100900460ff166101b0565b6101b0610270366004611fe7565b6105f5565b6101d8610283366004611fe7565b610611565b61029b61029636600461215b565b610657565b6040516101bc91906123a6565b6102bb6102b63660046120c2565b610679565b6040516101bc919061242b565b6101d86102d6366004611f6e565b61072d565b600654610219565b6102f66102f136600461215b565b610795565b6040516101bc91906124a6565b6101d8610311366004612011565b6107a0565b610219610324366004611f53565b610886565b6101d86108a7565b6101d861033f366004612174565b6108bb565b6000546201000090046001600160a01b031661023a565b61036e610369366004611f53565b6108cd565b6040516101bc91906123f3565b6101d8610389366004611fe7565b6108f1565b6101d861039c366004611f53565b6109e9565b6101d86103af366004612252565b610a76565b60006001600160e01b031982167f493991450000000000000000000000000000000000000000000000000000000014806103f257506103f282610afb565b92915050565b610437816040518060400160405280600d81526020017f6665656c20746865206275726e00000000000000000000000000000000000000815250610b49565b50565b6000610445826105bc565b9050336001600160a01b038216811461049057604051632d938f5160e11b81526001600160a01b03808416600483015260248201859052821660448201526064015b60405180910390fd5b6001600160a01b0384166104b757604051639577b8b360e01b815260040160405180910390fd5b836001600160a01b0316826001600160a01b031614156104d75750505050565b6104e2848385610c0f565b50505050565b6104f0610c6e565b80518251146105675760405162461bcd60e51b815260206004820152602660248201527f4b657973206c656e677468206e6f7420657175616c20746f2076616c7565732060448201527f6c656e67746800000000000000000000000000000000000000000000000000006064820152608401610487565b60005b82518110156105b7576105af8382815181106105885761058861260d565b60200260200101518383815181106105a2576105a261260d565b6020026020010151610ccf565b60010161056a565b505050565b6000818152600360205260408120546001600160a01b0316806103f257604051635747cd1b60e11b815260048101849052602401610487565b600061060082610d8d565b61060a8383610dc5565b9392505050565b610653828260016040518060400160405280601581526020017f746f6b656e207072696e74657220676f20627272720000000000000000000000815250610e0e565b5050565b606061066282610d8d565b60008281526005602052604090206103f290610e1a565b6060815167ffffffffffffffff81111561069557610695612623565b6040519080825280602002602001820160405280156106c857816020015b60608152602001906001900390816106b35790505b50905060005b8251811015610727576106f98382815181106106ec576106ec61260d565b6020026020010151610e27565b82828151811061070b5761070b61260d565b60200260200101819052506107208160010190565b90506106ce565b50919050565b336107388185610dc5565b610780576040517f1294d2a9000000000000000000000000000000000000000000000000000000008152600481018590526001600160a01b0382166024820152604401610487565b61078d8686868686610ec9565b505050505050565b60606103f282610e27565b835185511415806107b357508251855114155b806107c057508051855114155b156107f7576040517f93a8311900000000000000000000000000000000000000000000000000000000815260040160405180910390fd5b60005b855181101561078d576108748682815181106108185761081861260d565b60200260200101518683815181106108325761083261260d565b602002602001015186848151811061084c5761084c61260d565b6020026020010151868686815181106108675761086761260d565b602002602001015161072d565b8061087e816125c6565b9150506107fa565b6001600160a01b03811660009081526004602052604081206103f290611042565b6108af610c6e565b6108b9600061104c565b565b6108c3610c6e565b6106538282610ccf565b6001600160a01b03811660009081526004602052604090206060906103f2906110d8565b60006108fc826105bc565b9050336001600160a01b038216811461094257604051632d938f5160e11b81526001600160a01b0380841660048301526024820185905282166044820152606401610487565b6001600160a01b03841661096957604051639577b8b360e01b815260040160405180910390fd5b836001600160a01b0316826001600160a01b031614156109895750505050565b60008381526005602052604090206109a190856110e3565b5082826001600160a01b0316856001600160a01b03167f34b797fc5a526f7bf1d2b5de25f6564fd85ae364e3ee939aee7c1ac27871a98860405160405180910390a450505050565b6109f1610c6e565b6001600160a01b038116610a6d5760405162461bcd60e51b815260206004820152602660248201527f4f776e61626c653a206e6577206f776e657220697320746865207a65726f206160448201527f64647265737300000000000000000000000000000000000000000000000000006064820152608401610487565b6104378161104c565b6000610a8260016110f8565b90508015610a9a576000805461ff0019166101001790555b610aa5858585611231565b610aae826112a7565b8015610af4576000805461ff0019169055604051600181527f7f26b83ff96e1f2b6a682f133852f6798a09c465da95921460cefb38474024989060200160405180910390a15b5050505050565b60006001600160e01b031982167f714df77c0000000000000000000000000000000000000000000000000000000014806103f257506301ffc9a760e01b6001600160e01b03198316146103f2565b6000610b54836105bc565b905033610b638260008661134e565b610b6d82856113a0565b6001600160a01b0382166000908152600460205260409020610b8f90856113f1565b50600084815260036020526040808220805473ffffffffffffffffffffffffffffffffffffffff19169055518591906001600160a01b038516907fb333c813a7426a7a11e2b190cad52c44119421594b47f6f32ace6d8c7207b2bf90610bfa90869085908a9061237c565b60405180910390a46104e282600086866113fd565b6000818152600560205260409020610c2790846114e0565b5080826001600160a01b0316846001600160a01b03167f17d5389f6ab6adb2647dfa0aa365c323d37adacc30b33a65310b6158ce1373d560405160405180910390a4505050565b6000546001600160a01b03620100009091041633146108b95760405162461bcd60e51b815260206004820181905260248201527f4f776e61626c653a2063616c6c6572206973206e6f7420746865206f776e65726044820152606401610487565b7fdeba1e292f8ba88238e10ab3c7f88bd4be4fac56cad5194b6ecceaf653468af1821415610d29576040517f85c169bd00000000000000000000000000000000000000000000000000000000815260040160405180910390fd5b7f2f0a68ab07768e01943a599e73362a0e17a63a72e94dd2e384d2c1d4db932756821415610d83576040517f76755b3800000000000000000000000000000000000000000000000000000000815260040160405180910390fd5b61065382826114f5565b6000818152600360205260409020546001600160a01b031661043757604051635747cd1b60e11b815260048101829052602401610487565b600080610dd1836105bc565b9050806001600160a01b0316846001600160a01b03161480610e0657506000838152600560205260409020610e069085611544565b949350505050565b6104e284848484611566565b6060600061060a836115bb565b6000818152600160205260409020805460609190610e4490612591565b80601f0160208091040260200160405190810160405280929190818152602001828054610e7090612591565b8015610ebd5780601f10610e9257610100808354040283529160200191610ebd565b820191906000526020600020905b815481529060010190602001808311610ea057829003601f168201915b50505050509050919050565b6000610ed4846105bc565b9050856001600160a01b0316816001600160a01b031614610f2257604051632d938f5160e11b81526001600160a01b0380831660048301526024820186905287166044820152606401610487565b6001600160a01b038516610f49576040516324ecef4d60e01b815260040160405180910390fd5b33610f5587878761134e565b610f5f87866113a0565b6001600160a01b0387166000908152600460205260409020610f8190866113f1565b506001600160a01b0386166000908152600460205260409020610fa49086611616565b5060008581526003602052604090819020805473ffffffffffffffffffffffffffffffffffffffff19166001600160a01b0389811691821790925591518792918a16907fb333c813a7426a7a11e2b190cad52c44119421594b47f6f32ace6d8c7207b2bf906110189086908a908a9061237c565b60405180910390a461102c878787866113fd565b6110398787878787611622565b50505050505050565b60006103f2825490565b6000546001600160a01b0382811662010000909204161461043757600080546001600160a01b03838116620100008181027fffffffffffffffffffff0000000000000000000000000000000000000000ffff851617855560405193049190911692909183917f8be0079c531659141344cd1fd0a4f28419497f9722a3daafe3b4186f6b6457e091a35050565b60606103f2826115bb565b600061060a836001600160a01b03841661179b565b60008054610100900460ff1615611195578160ff16600114801561111b5750303b155b61118d5760405162461bcd60e51b815260206004820152602e60248201527f496e697469616c697a61626c653a20636f6e747261637420697320616c72656160448201527f647920696e697469616c697a65640000000000000000000000000000000000006064820152608401610487565b506000919050565b60005460ff8084169116106112125760405162461bcd60e51b815260206004820152602e60248201527f496e697469616c697a61626c653a20636f6e747261637420697320616c72656160448201527f647920696e697469616c697a65640000000000000000000000000000000000006064820152608401610487565b506000805460ff191660ff92909216919091179055600190565b919050565b600054610100900460ff1661129c5760405162461bcd60e51b815260206004820152602b60248201527f496e697469616c697a61626c653a20636f6e7472616374206973206e6f74206960448201526a6e697469616c697a696e6760a81b6064820152608401610487565b6105b78383836117ea565b600054610100900460ff166113125760405162461bcd60e51b815260206004820152602b60248201527f496e697469616c697a61626c653a20636f6e7472616374206973206e6f74206960448201526a6e697469616c697a696e6760a81b6064820152608401610487565b80611349576040517f38d9fc3000000000000000000000000000000000000000000000000000000000815260040160405180910390fd5b600655565b6001600160a01b0383166113755760016002600082825461136f9190612536565b90915550505b6001600160a01b0382166105b757600160026000828254611396919061254e565b9091555050505050565b6000818152600560205260408120906113b882611042565b905060005b81811015610af45760006113d18482611914565b90506113de818787610c0f565b50806113e9816125c6565b9150506113bd565b600061060a8383611920565b61140e84631aed5a8560e21b611a13565b156104e25760008484848460405160200161142c9493929190612313565b60408051601f1981840301815290829052631aed5a8560e21b825291506001600160a01b03861690636bb56a149061148a907f3724c94f0815e936299cca424da4140752198e0beb7931a6e0925d11bc97544c90859060040161248d565b600060405180830381600087803b1580156114a457600080fd5b505af11580156114b8573d6000803e3d6000fd5b505050506040513d6000823e601f3d908101601f1916820160405261078d91908101906121db565b600061060a836001600160a01b038416611920565b6000828152600160209081526040909120825161151492840190611cd7565b5060405182907fcdf4e344c0d23d4cdd0474039d176c55b19d531070dbe17856bfb993a5b5720b90600090a25050565b6001600160a01b0381166000908152600183016020526040812054151561060a565b600654600254611577906001612536565b11156115af576040517fe8ba229100000000000000000000000000000000000000000000000000000000815260040160405180910390fd5b6104e284848484611b15565b606081600001805480602002602001604051908101604052809291908181526020018280548015610ebd57602002820191906000526020600020905b8154815260200190600101908083116115f75750505050509050919050565b600061060a838361179b565b61163384631aed5a8560e21b611a13565b1561170c576000858585846040516020016116519493929190612313565b60408051601f1981840301815290829052631aed5a8560e21b825291506001600160a01b03861690636bb56a14906116af907fc7a120a42b6057a0cbed111fbbfbd52fcd96748c04394f77fc2c3adbe0391e0190859060040161248d565b600060405180830381600087803b1580156116c957600080fd5b505af11580156116dd573d6000803e3d6000fd5b505050506040513d6000823e601f3d908101601f1916820160405261170591908101906121db565b5050610af4565b81610af4576001600160a01b0384163b1561175e576040517f4349776d0000000000000000000000000000000000000000000000000000000081526001600160a01b0385166004820152602401610487565b6040517f031731370000000000000000000000000000000000000000000000000000000081526001600160a01b0385166004820152602401610487565b60008181526001830160205260408120546117e2575081546001818101845560008481526020808220909301849055845484825282860190935260409020919091556103f2565b5060006103f2565b600054610100900460ff166118555760405162461bcd60e51b815260206004820152602b60248201527f496e697469616c697a61626c653a20636f6e7472616374206973206e6f74206960448201526a6e697469616c697a696e6760a81b6064820152608401610487565b61185e81611c42565b6118c07feafec4d89fa9619884b60000a4d96624a38f7ac2d8d9a604ecf07c12c77e480c60001b6040518060400160405280600481526020017fa4d96624000000000000000000000000000000000000000000000000000000008152506114f5565b6118ea7fdeba1e292f8ba88238e10ab3c7f88bd4be4fac56cad5194b6ecceaf653468af1846114f5565b6105b77f2f0a68ab07768e01943a599e73362a0e17a63a72e94dd2e384d2c1d4db932756836114f5565b600061060a8383611cad565b60008181526001830160205260408120548015611a0957600061194460018361254e565b85549091506000906119589060019061254e565b90508181146119bd5760008660000182815481106119785761197861260d565b906000526020600020015490508087600001848154811061199b5761199b61260d565b6000918252602080832090910192909255918252600188019052604090208390555b85548690806119ce576119ce6125f7565b6001900381819060005260206000200160009055905585600101600086815260200190815260200160002060009055600193505050506103f2565b60009150506103f2565b604080516001600160e01b0319831660248083019190915282518083039091018152604490910182526020810180517bffffffffffffffffffffffffffffffffffffffffffffffffffffffff166301ffc9a760e01b179052905160009190829081906001600160a01b0387169061753090611a8f908690612360565b6000604051808303818686fa925050503d8060008114611acb576040519150601f19603f3d011682016040523d82523d6000602084013e611ad0565b606091505b5091509150602081511015611aeb57600093505050506103f2565b818015611b0b5750600081806020019051810190611b0991906122ce565b115b9695505050505050565b6001600160a01b038416611b3c576040516324ecef4d60e01b815260040160405180910390fd5b6000838152600360205260409020546001600160a01b031615611b8e576040517f34c7b51100000000000000000000000000000000000000000000000000000000815260048101849052602401610487565b33611b9b6000868661134e565b6001600160a01b0385166000908152600460205260409020611bbd9085611616565b50600084815260036020526040808220805473ffffffffffffffffffffffffffffffffffffffff19166001600160a01b03891690811790915590518692907fb333c813a7426a7a11e2b190cad52c44119421594b47f6f32ace6d8c7207b2bf90611c2c9086908990899061237c565b60405180910390a4610af4600086868686611622565b600054610100900460ff16610a6d5760405162461bcd60e51b815260206004820152602b60248201527f496e697469616c697a61626c653a20636f6e7472616374206973206e6f74206960448201526a6e697469616c697a696e6760a81b6064820152608401610487565b6000826000018281548110611cc457611cc461260d565b9060005260206000200154905092915050565b828054611ce390612591565b90600052602060002090601f016020900481019282611d055760008555611d4b565b82601f10611d1e57805160ff1916838001178555611d4b565b82800160010185558215611d4b579182015b82811115611d4b578251825591602001919060010190611d30565b50611d57929150611d5b565b5090565b5b80821115611d575760008155600101611d5c565b80356001600160a01b038116811461122c57600080fd5b600082601f830112611d9857600080fd5b81356020611dad611da8836124ea565b6124b9565b80838252828201915082860187848660051b8901011115611dcd57600080fd5b60005b85811015611df357611de182611d70565b84529284019290840190600101611dd0565b5090979650505050505050565b600082601f830112611e1157600080fd5b81356020611e21611da8836124ea565b80838252828201915082860187848660051b8901011115611e4157600080fd5b60005b85811015611df357813584529284019290840190600101611e44565b600082601f830112611e7157600080fd5b81356020611e81611da8836124ea565b80838252828201915082860187848660051b8901011115611ea157600080fd5b6000805b86811015611ee457823567ffffffffffffffff811115611ec3578283fd5b611ed18b88838d0101611f02565b8652509385019391850191600101611ea5565b509198975050505050505050565b8035801515811461122c57600080fd5b600082601f830112611f1357600080fd5b8135611f21611da88261250e565b818152846020838601011115611f3657600080fd5b816020850160208301376000918101602001919091529392505050565b600060208284031215611f6557600080fd5b61060a82611d70565b600080600080600060a08688031215611f8657600080fd5b611f8f86611d70565b9450611f9d60208701611d70565b935060408601359250611fb260608701611ef2565b9150608086013567ffffffffffffffff811115611fce57600080fd5b611fda88828901611f02565b9150509295509295909350565b60008060408385031215611ffa57600080fd5b61200383611d70565b946020939093013593505050565b600080600080600060a0868803121561202957600080fd5b853567ffffffffffffffff8082111561204157600080fd5b61204d89838a01611d87565b9650602088013591508082111561206357600080fd5b61206f89838a01611d87565b9550604088013591508082111561208557600080fd5b61209189838a01611e00565b945061209f60608901611ef2565b935060808801359150808211156120b557600080fd5b50611fda88828901611e60565b6000602082840312156120d457600080fd5b813567ffffffffffffffff8111156120eb57600080fd5b610e0684828501611e00565b6000806040838503121561210a57600080fd5b823567ffffffffffffffff8082111561212257600080fd5b61212e86838701611e00565b9350602085013591508082111561214457600080fd5b5061215185828601611e60565b9150509250929050565b60006020828403121561216d57600080fd5b5035919050565b6000806040838503121561218757600080fd5b82359150602083013567ffffffffffffffff8111156121a557600080fd5b61215185828601611f02565b6000602082840312156121c357600080fd5b81356001600160e01b03198116811461060a57600080fd5b6000602082840312156121ed57600080fd5b815167ffffffffffffffff81111561220457600080fd5b8201601f8101841361221557600080fd5b8051612223611da88261250e565b81815285602083850101111561223857600080fd5b612249826020830160208601612565565b95945050505050565b6000806000806080858703121561226857600080fd5b843567ffffffffffffffff8082111561228057600080fd5b61228c88838901611f02565b955060208701359150808211156122a257600080fd5b506122af87828801611f02565b9350506122be60408601611d70565b9396929550929360600135925050565b6000602082840312156122e057600080fd5b5051919050565b600081518084526122ff816020860160208601612565565b601f01601f19169290920160200192915050565b60006bffffffffffffffffffffffff19808760601b168352808660601b166014840152508360288301528251612350816048850160208701612565565b9190910160480195945050505050565b60008251612372818460208701612565565b9190910192915050565b6001600160a01b0384168152821515602082015260606040820152600061224960608301846122e7565b6020808252825182820181905260009190848201906040850190845b818110156123e75783516001600160a01b0316835292840192918401916001016123c2565b50909695505050505050565b6020808252825182820181905260009190848201906040850190845b818110156123e75783518352928401929184019160010161240f565b6000602080830181845280855180835260408601915060408160051b870101925083870160005b8281101561248057603f1988860301845261246e8583516122e7565b94509285019290850190600101612452565b5092979650505050505050565b828152604060208201526000610e0660408301846122e7565b60208152600061060a60208301846122e7565b604051601f8201601f1916810167ffffffffffffffff811182821017156124e2576124e2612623565b604052919050565b600067ffffffffffffffff82111561250457612504612623565b5060051b60200190565b600067ffffffffffffffff82111561252857612528612623565b50601f01601f191660200190565b60008219821115612549576125496125e1565b500190565b600082821015612560576125606125e1565b500390565b60005b83811015612580578181015183820152602001612568565b838111156104e25750506000910152565b600181811c908216806125a557607f821691505b6020821081141561072757634e487b7160e01b600052602260045260246000fd5b60006000198214156125da576125da6125e1565b5060010190565b634e487b7160e01b600052601160045260246000fd5b634e487b7160e01b600052603160045260246000fd5b634e487b7160e01b600052603260045260246000fd5b634e487b7160e01b600052604160045260246000fdfea26469706673582212204ef090358b3fec639dce719d09e9e8dd4d37384850067f21b1bdcd9899ab21be64736f6c63430008070033",
  "linkReferences": {},
  "deployedLinkReferences": {}
}