{
  "_format": "hh-sol-artifact-1",
  "contractName": "UniversalFactory",
  "sourceName": "contracts/Factories/UniversalFactory.sol",
  "abi": [
    {
      "inputs": [
        {
          "internalType": "bytes32",
          "name": "byteCodeHash",
          "type": "bytes32"
        },
        {
          "internalType": "bytes32",
          "name": "salt",
          "type": "bytes32"
        },
        {
          "internalType": "bytes",
          "name": "initializeCallData",
          "type": "bytes"
        }
      ],
      "name": "calculateAddress",
      "outputs": [
        {
          "internalType": "address",
          "name": "",
          "type": "address"
        }
      ],
      "stateMutability": "view",
      "type": "function"
    },
    {
      "inputs": [
        {
          "internalType": "address",
          "name": "baseContract",
          "type": "address"
        },
        {
          "internalType": "bytes32",
          "name": "salt",
          "type": "bytes32"
        },
        {
          "internalType": "bytes",
          "name": "initializeCallData",
          "type": "bytes"
        }
      ],
      "name": "calculateProxyAddress",
      "outputs": [
        {
          "internalType": "address",
          "name": "",
          "type": "address"
        }
      ],
      "stateMutability": "view",
      "type": "function"
    },
    {
      "inputs": [
        {
          "internalType": "bytes",
          "name": "byteCode",
          "type": "bytes"
        },
        {
          "internalType": "bytes32",
          "name": "salt",
          "type": "bytes32"
        },
        {
          "internalType": "bytes",
          "name": "initializeCallData",
          "type": "bytes"
        }
      ],
      "name": "deployCreate2",
      "outputs": [
        {
          "internalType": "address",
          "name": "contractCreated",
          "type": "address"
        }
      ],
      "stateMutability": "payable",
      "type": "function"
    },
    {
      "inputs": [
        {
          "internalType": "address",
          "name": "baseContract",
          "type": "address"
        },
        {
          "internalType": "bytes32",
          "name": "salt",
          "type": "bytes32"
        },
        {
          "internalType": "bytes",
          "name": "initializeCallData",
          "type": "bytes"
        }
      ],
      "name": "deployCreate2Proxy",
      "outputs": [
        {
          "internalType": "address",
          "name": "proxy",
          "type": "address"
        }
      ],
      "stateMutability": "payable",
      "type": "function"
    }
  ],
  "bytecode": "0x608060405234801561001057600080fd5b50610b5f806100206000396000f3fe60806040526004361061003f5760003560e01c806321d7987d146100445780633de7bd0b14610080578063b58941e114610093578063fcf5dcf3146100a6575b600080fd5b34801561005057600080fd5b5061006461005f3660046108ff565b6100c6565b6040516001600160a01b03909116815260200160405180910390f35b61006461008e36600461099e565b6100ea565b6100646100a13660046108ff565b610298565b3480156100b257600080fd5b506100646100c1366004610964565b6103e9565b6000806100d38385610471565b90506100df85826104d4565b9150505b9392505050565b6000838051603714156101e3577f72307939328b75c6e301a012c75e0a4e690a99036b95f6e6f4f1b5aba02a9ce46101258260006014610550565b8051906020012014801561016b57507f11a195f66c9175f46895bae2006d40848a680c7068b9fc4af248ff9a54a47e45610162826028600f610550565b80519060200120145b156101e35760405162461bcd60e51b815260206004820152602660248201527f4d696e696d616c2050726f78696573206465706c6f796d656e74206e6f74206160448201527f6c6c6f776564000000000000000000000000000000000000000000000000000060648201526084015b60405180910390fd5b60006101ef8486610471565b90506101fc348288610678565b84519093501561028f57600080846001600160a01b0316866040516102219190610a33565b6000604051808303816000865af19150503d806000811461025e576040519150601f19603f3d011682016040523d82523d6000602084013e610263565b606091505b509150915061028b82826040518060600160405280603b8152602001610aef603b9139610782565b5050505b50509392505050565b6000806102a58385610471565b90506102b185826107bb565b83519092501561034957600080836001600160a01b031634866040516102d79190610a33565b60006040518083038185875af1925050503d8060008114610314576040519150601f19603f3d011682016040523d82523d6000602084013e610319565b606091505b509150915061034182826040518060600160405280603b8152602001610aef603b9139610782565b5050506103e1565b34156103e1576040516000908190339034908381818185875af1925050503d8060008114610393576040519150601f19603f3d011682016040523d82523d6000602084013e610398565b606091505b50915091506103dd82826040518060400160405280601e81526020017f556e6976657273616c466163746f72793a20556e6b6e6f77204572726f720000815250610782565b5050505b509392505050565b6000806103f68385610471565b90506100df8186604080517fff000000000000000000000000000000000000000000000000000000000000006020808301919091523060601b6bffffffffffffffffffffffff1916602183015260358201859052605580830185905283518084039091018152607590920190925280519101206000906100e3565b8151600090158015906104b15780848460405160200161049393929190610a01565b604051602081830303815290604052805190602001209150506104ce565b60405181151560f81b602082015260218101849052604101610493565b92915050565b60006100e38383306040517f3d602d80600a3d3981f3363d3d373d3d3d363d730000000000000000000000008152606093841b60148201527f5af43d82803e903d91602b57fd5bf3ff000000000000000000000000000000006028820152921b6038830152604c8201526037808220606c830152605591012090565b60608161055e81601f610a82565b10156105ac5760405162461bcd60e51b815260206004820152600e60248201527f736c6963655f6f766572666c6f7700000000000000000000000000000000000060448201526064016101da565b6105b68284610a82565b845110156106065760405162461bcd60e51b815260206004820152601160248201527f736c6963655f6f75744f66426f756e647300000000000000000000000000000060448201526064016101da565b606082158015610625576040519150600082526020820160405261066f565b6040519150601f8416801560200281840101858101878315602002848b0101015b8183101561065e578051835260209283019201610646565b5050858452601f01601f1916604052505b50949350505050565b600080844710156106cb5760405162461bcd60e51b815260206004820152601d60248201527f437265617465323a20696e73756666696369656e742062616c616e636500000060448201526064016101da565b82516107195760405162461bcd60e51b815260206004820181905260248201527f437265617465323a2062797465636f6465206c656e677468206973207a65726f60448201526064016101da565b8383516020850187f590506001600160a01b03811661077a5760405162461bcd60e51b815260206004820152601960248201527f437265617465323a204661696c6564206f6e206465706c6f790000000000000060448201526064016101da565b949350505050565b606083156107915750816100e3565b8251156107a15782518084602001fd5b8160405162461bcd60e51b81526004016101da9190610a4f565b60006040517f3d602d80600a3d3981f3363d3d373d3d3d363d7300000000000000000000000081528360601b60148201527f5af43d82803e903d91602b57fd5bf300000000000000000000000000000000006028820152826037826000f59150506001600160a01b0381166104ce5760405162461bcd60e51b815260206004820152601760248201527f455243313136373a2063726561746532206661696c656400000000000000000060448201526064016101da565b600082601f83011261088357600080fd5b813567ffffffffffffffff8082111561089e5761089e610ad8565b604051601f8301601f19908116603f011681019082821181831017156108c6576108c6610ad8565b816040528381528660208588010111156108df57600080fd5b836020870160208301376000602085830101528094505050505092915050565b60008060006060848603121561091457600080fd5b83356001600160a01b038116811461092b57600080fd5b925060208401359150604084013567ffffffffffffffff81111561094e57600080fd5b61095a86828701610872565b9150509250925092565b60008060006060848603121561097957600080fd5b8335925060208401359150604084013567ffffffffffffffff81111561094e57600080fd5b6000806000606084860312156109b357600080fd5b833567ffffffffffffffff808211156109cb57600080fd5b6109d787838801610872565b94506020860135935060408601359150808211156109f457600080fd5b5061095a86828701610872565b83151560f81b815260008351610a1e816001850160208801610aa8565b60019201918201929092526021019392505050565b60008251610a45818460208701610aa8565b9190910192915050565b6020815260008251806020840152610a6e816040850160208701610aa8565b601f01601f19169190910160400192915050565b60008219821115610aa357634e487b7160e01b600052601160045260246000fd5b500190565b60005b83811015610ac3578181015183820152602001610aab565b83811115610ad2576000848401525b50505050565b634e487b7160e01b600052604160045260246000fdfe556e6976657273616c466163746f72793a20636f756c64206e6f7420696e697469616c697a6520746865206372656174656420636f6e7472616374a2646970667358221220b3aeec1d62be0d090c07c0ce4d3b23e0f0063d38c543acdf102cd848cf16143864736f6c63430008070033",
  "linkReferences": {},
  "deployedLinkReferences": {}
}