{
  "_format": "hh-sol-artifact-1",
  "contractName": "NFTStorageMerkle",
  "sourceName": "contracts/Helpers/NFTStorage.sol",
  "abi": [
    {
      "inputs": [
        {
          "internalType": "bytes32[]",
          "name": "_proof",
          "type": "bytes32[]"
        },
        {
          "internalType": "bytes32",
          "name": "_root",
          "type": "bytes32"
        },
        {
          "internalType": "bytes32",
          "name": "_leaf",
          "type": "bytes32"
        }
      ],
      "name": "verifyMerkleProof",
      "outputs": [
        {
          "internalType": "bool",
          "name": "",
          "type": "bool"
        }
      ],
      "stateMutability": "pure",
      "type": "function"
    }
  ],
  "bytecode": "0x608060405234801561001057600080fd5b50610261806100206000396000f3fe608060405234801561001057600080fd5b506004361061002b5760003560e01c8063ada4fa1814610030575b600080fd5b61004361003e366004610101565b610057565b604051901515815260200160405180910390f35b600061006484848461006c565b949350505050565b6000826100798584610082565b14949350505050565b600081815b84518110156100c7576100b3828683815181106100a6576100a66101ff565b60200260200101516100cf565b9150806100bf816101d6565b915050610087565b509392505050565b60008183106100eb5760008281526020849052604090206100fa565b60008381526020839052604090205b9392505050565b60008060006060848603121561011657600080fd5b833567ffffffffffffffff8082111561012e57600080fd5b818601915086601f83011261014257600080fd5b813560208282111561015657610156610215565b8160051b604051601f19603f8301168101818110868211171561017b5761017b610215565b604052838152828101945085830182870184018c101561019a57600080fd5b600096505b848710156101bd57803586526001969096019594830194830161019f565b509a918901359950506040909701359695505050505050565b60006000198214156101f857634e487b7160e01b600052601160045260246000fd5b5060010190565b634e487b7160e01b600052603260045260246000fd5b634e487b7160e01b600052604160045260246000fdfea26469706673582212200ebd384afebe41fab897728246784caf7ec1f69619250ae89ab76822338b082264736f6c63430008070033",
  "linkReferences": {},
  "deployedLinkReferences": {}
}