{
  "_format": "hh-sol-artifact-1",
  "contractName": "LSP8MintableInit",
  "sourceName": "contracts/LSP8IdentifiableDigitalAsset/presets/LSP8MintableInit.sol",
  "abi": [
    {
      "inputs": [],
      "stateMutability": "nonpayable",
      "type": "constructor"
    },
    {
      "inputs": [],
      "name": "LSP4TokenNameNotEditable",
      "type": "error"
    },
    {
      "inputs": [],
      "name": "LSP4TokenSymbolNotEditable",
      "type": "error"
    },
    {
      "inputs": [],
      "name": "LSP8CannotSendToAddressZero",
      "type": "error"
    },
    {
      "inputs": [],
      "name": "LSP8CannotUseAddressZeroAsOperator",
      "type": "error"
    },
    {
      "inputs": [],
      "name": "LSP8InvalidTransferBatch",
      "type": "error"
    },
    {
      "inputs": [
        {
          "internalType": "bytes32",
          "name": "tokenId",
          "type": "bytes32"
        }
      ],
      "name": "LSP8NonExistentTokenId",
      "type": "error"
    },
    {
      "inputs": [
        {
          "internalType": "bytes32",
          "name": "tokenId",
          "type": "bytes32"
        },
        {
          "internalType": "address",
          "name": "caller",
          "type": "address"
        }
      ],
      "name": "LSP8NotTokenOperator",
      "type": "error"
    },
    {
      "inputs": [
        {
          "internalType": "address",
          "name": "tokenOwner",
          "type": "address"
        },
        {
          "internalType": "bytes32",
          "name": "tokenId",
          "type": "bytes32"
        },
        {
          "internalType": "address",
          "name": "caller",
          "type": "address"
        }
      ],
      "name": "LSP8NotTokenOwner",
      "type": "error"
    },
    {
      "inputs": [
        {
          "internalType": "address",
          "name": "tokenReceiver",
          "type": "address"
        }
      ],
      "name": "LSP8NotifyTokenReceiverContractMissingLSP1Interface",
      "type": "error"
    },
    {
      "inputs": [
        {
          "internalType": "address",
          "name": "tokenReceiver",
          "type": "address"
        }
      ],
      "name": "LSP8NotifyTokenReceiverIsEOA",
      "type": "error"
    },
    {
      "inputs": [
        {
          "internalType": "bytes32",
          "name": "tokenId",
          "type": "bytes32"
        }
      ],
      "name": "LSP8TokenIdAlreadyMinted",
      "type": "error"
    },
    {
      "anonymous": false,
      "inputs": [
        {
          "indexed": true,
          "internalType": "address",
          "name": "operator",
          "type": "address"
        },
        {
          "indexed": true,
          "internalType": "address",
          "name": "tokenOwner",
          "type": "address"
        },
        {
          "indexed": true,
          "internalType": "bytes32",
          "name": "tokenId",
          "type": "bytes32"
        }
      ],
      "name": "AuthorizedOperator",
      "type": "event"
    },
    {
      "anonymous": false,
      "inputs": [
        {
          "indexed": true,
          "internalType": "bytes32",
          "name": "dataKey",
          "type": "bytes32"
        }
      ],
      "name": "DataChanged",
      "type": "event"
    },
    {
      "anonymous": false,
      "inputs": [
        {
          "indexed": false,
          "internalType": "uint8",
          "name": "version",
          "type": "uint8"
        }
      ],
      "name": "Initialized",
      "type": "event"
    },
    {
      "anonymous": false,
      "inputs": [
        {
          "indexed": true,
          "internalType": "address",
          "name": "previousOwner",
          "type": "address"
        },
        {
          "indexed": true,
          "internalType": "address",
          "name": "newOwner",
          "type": "address"
        }
      ],
      "name": "OwnershipTransferred",
      "type": "event"
    },
    {
      "anonymous": false,
      "inputs": [
        {
          "indexed": true,
          "internalType": "address",
          "name": "operator",
          "type": "address"
        },
        {
          "indexed": true,
          "internalType": "address",
          "name": "tokenOwner",
          "type": "address"
        },
        {
          "indexed": true,
          "internalType": "bytes32",
          "name": "tokenId",
          "type": "bytes32"
        }
      ],
      "name": "RevokedOperator",
      "type": "event"
    },
    {
      "anonymous": false,
      "inputs": [
        {
          "indexed": false,
          "internalType": "address",
          "name": "operator",
          "type": "address"
        },
        {
          "indexed": true,
          "internalType": "address",
          "name": "from",
          "type": "address"
        },
        {
          "indexed": true,
          "internalType": "address",
          "name": "to",
          "type": "address"
        },
        {
          "indexed": true,
          "internalType": "bytes32",
          "name": "tokenId",
          "type": "bytes32"
        },
        {
          "indexed": false,
          "internalType": "bool",
          "name": "force",
          "type": "bool"
        },
        {
          "indexed": false,
          "internalType": "bytes",
          "name": "data",
          "type": "bytes"
        }
      ],
      "name": "Transfer",
      "type": "event"
    },
    {
      "inputs": [
        {
          "internalType": "address",
          "name": "operator",
          "type": "address"
        },
        {
          "internalType": "bytes32",
          "name": "tokenId",
          "type": "bytes32"
        }
      ],
      "name": "authorizeOperator",
      "outputs": [],
      "stateMutability": "nonpayable",
      "type": "function"
    },
    {
      "inputs": [
        {
          "internalType": "address",
          "name": "tokenOwner",
          "type": "address"
        }
      ],
      "name": "balanceOf",
      "outputs": [
        {
          "internalType": "uint256",
          "name": "",
          "type": "uint256"
        }
      ],
      "stateMutability": "view",
      "type": "function"
    },
    {
      "inputs": [
        {
          "internalType": "bytes32[]",
          "name": "dataKeys",
          "type": "bytes32[]"
        }
      ],
      "name": "getData",
      "outputs": [
        {
          "internalType": "bytes[]",
          "name": "dataValues",
          "type": "bytes[]"
        }
      ],
      "stateMutability": "view",
      "type": "function"
    },
    {
      "inputs": [
        {
          "internalType": "bytes32",
          "name": "dataKey",
          "type": "bytes32"
        }
      ],
      "name": "getData",
      "outputs": [
        {
          "internalType": "bytes",
          "name": "dataValue",
          "type": "bytes"
        }
      ],
      "stateMutability": "view",
      "type": "function"
    },
    {
      "inputs": [
        {
          "internalType": "bytes32",
          "name": "tokenId",
          "type": "bytes32"
        }
      ],
      "name": "getOperatorsOf",
      "outputs": [
        {
          "internalType": "address[]",
          "name": "",
          "type": "address[]"
        }
      ],
      "stateMutability": "view",
      "type": "function"
    },
    {
      "inputs": [
        {
          "internalType": "string",
          "name": "name_",
          "type": "string"
        },
        {
          "internalType": "string",
          "name": "symbol_",
          "type": "string"
        },
        {
          "internalType": "address",
          "name": "newOwner_",
          "type": "address"
        }
      ],
      "name": "initialize",
      "outputs": [],
      "stateMutability": "nonpayable",
      "type": "function"
    },
    {
      "inputs": [],
      "name": "initialized",
      "outputs": [
        {
          "internalType": "uint8",
          "name": "",
          "type": "uint8"
        }
      ],
      "stateMutability": "view",
      "type": "function"
    },
    {
      "inputs": [],
      "name": "initializing",
      "outputs": [
        {
          "internalType": "bool",
          "name": "",
          "type": "bool"
        }
      ],
      "stateMutability": "view",
      "type": "function"
    },
    {
      "inputs": [
        {
          "internalType": "address",
          "name": "operator",
          "type": "address"
        },
        {
          "internalType": "bytes32",
          "name": "tokenId",
          "type": "bytes32"
        }
      ],
      "name": "isOperatorFor",
      "outputs": [
        {
          "internalType": "bool",
          "name": "",
          "type": "bool"
        }
      ],
      "stateMutability": "view",
      "type": "function"
    },
    {
      "inputs": [
        {
          "internalType": "address",
          "name": "to",
          "type": "address"
        },
        {
          "internalType": "bytes32",
          "name": "tokenId",
          "type": "bytes32"
        },
        {
          "internalType": "bool",
          "name": "force",
          "type": "bool"
        },
        {
          "internalType": "bytes",
          "name": "data",
          "type": "bytes"
        }
      ],
      "name": "mint",
      "outputs": [],
      "stateMutability": "nonpayable",
      "type": "function"
    },
    {
      "inputs": [],
      "name": "owner",
      "outputs": [
        {
          "internalType": "address",
          "name": "",
          "type": "address"
        }
      ],
      "stateMutability": "view",
      "type": "function"
    },
    {
      "inputs": [],
      "name": "renounceOwnership",
      "outputs": [],
      "stateMutability": "nonpayable",
      "type": "function"
    },
    {
      "inputs": [
        {
          "internalType": "address",
          "name": "operator",
          "type": "address"
        },
        {
          "internalType": "bytes32",
          "name": "tokenId",
          "type": "bytes32"
        }
      ],
      "name": "revokeOperator",
      "outputs": [],
      "stateMutability": "nonpayable",
      "type": "function"
    },
    {
      "inputs": [
        {
          "internalType": "bytes32[]",
          "name": "dataKeys",
          "type": "bytes32[]"
        },
        {
          "internalType": "bytes[]",
          "name": "dataValues",
          "type": "bytes[]"
        }
      ],
      "name": "setData",
      "outputs": [],
      "stateMutability": "nonpayable",
      "type": "function"
    },
    {
      "inputs": [
        {
          "internalType": "bytes32",
          "name": "dataKey",
          "type": "bytes32"
        },
        {
          "internalType": "bytes",
          "name": "dataValue",
          "type": "bytes"
        }
      ],
      "name": "setData",
      "outputs": [],
      "stateMutability": "nonpayable",
      "type": "function"
    },
    {
      "inputs": [
        {
          "internalType": "bytes4",
          "name": "interfaceId",
          "type": "bytes4"
        }
      ],
      "name": "supportsInterface",
      "outputs": [
        {
          "internalType": "bool",
          "name": "",
          "type": "bool"
        }
      ],
      "stateMutability": "view",
      "type": "function"
    },
    {
      "inputs": [
        {
          "internalType": "address",
          "name": "tokenOwner",
          "type": "address"
        }
      ],
      "name": "tokenIdsOf",
      "outputs": [
        {
          "internalType": "bytes32[]",
          "name": "",
          "type": "bytes32[]"
        }
      ],
      "stateMutability": "view",
      "type": "function"
    },
    {
      "inputs": [
        {
          "internalType": "bytes32",
          "name": "tokenId",
          "type": "bytes32"
        }
      ],
      "name": "tokenOwnerOf",
      "outputs": [
        {
          "internalType": "address",
          "name": "",
          "type": "address"
        }
      ],
      "stateMutability": "view",
      "type": "function"
    },
    {
      "inputs": [],
      "name": "totalSupply",
      "outputs": [
        {
          "internalType": "uint256",
          "name": "",
          "type": "uint256"
        }
      ],
      "stateMutability": "view",
      "type": "function"
    },
    {
      "inputs": [
        {
          "internalType": "address",
          "name": "from",
          "type": "address"
        },
        {
          "internalType": "address",
          "name": "to",
          "type": "address"
        },
        {
          "internalType": "bytes32",
          "name": "tokenId",
          "type": "bytes32"
        },
        {
          "internalType": "bool",
          "name": "force",
          "type": "bool"
        },
        {
          "internalType": "bytes",
          "name": "data",
          "type": "bytes"
        }
      ],
      "name": "transfer",
      "outputs": [],
      "stateMutability": "nonpayable",
      "type": "function"
    },
    {
      "inputs": [
        {
          "internalType": "address[]",
          "name": "from",
          "type": "address[]"
        },
        {
          "internalType": "address[]",
          "name": "to",
          "type": "address[]"
        },
        {
          "internalType": "bytes32[]",
          "name": "tokenId",
          "type": "bytes32[]"
        },
        {
          "internalType": "bool",
          "name": "force",
          "type": "bool"
        },
        {
          "internalType": "bytes[]",
          "name": "data",
          "type": "bytes[]"
        }
      ],
      "name": "transferBatch",
      "outputs": [],
      "stateMutability": "nonpayable",
      "type": "function"
    },
    {
      "inputs": [
        {
          "internalType": "address",
          "name": "newOwner",
          "type": "address"
        }
      ],
      "name": "transferOwnership",
      "outputs": [],
      "stateMutability": "nonpayable",
      "type": "function"
    }
  ],
  "bytecode": "0x60806040523480156200001157600080fd5b506200001c62000022565b62000152565b6200002e60ff62000031565b50565b60008054610100900460ff1615620000ca578160ff1660011480156200006a575062000068306200014360201b62000a4d1760201c565b155b620000c25760405162461bcd60e51b815260206004820152602e60248201526000805160206200264183398151915260448201526d191e481a5b9a5d1a585b1a5e995960921b60648201526084015b60405180910390fd5b506000919050565b60005460ff808416911610620001295760405162461bcd60e51b815260206004820152602e60248201526000805160206200264183398151915260448201526d191e481a5b9a5d1a585b1a5e995960921b6064820152608401620000b9565b506000805460ff191660ff92909216919091179055600190565b6001600160a01b03163b151590565b6124df80620001626000396000f3fe608060405234801561001057600080fd5b50600436106101825760003560e01c8063511b6952116100d85780637f23690c1161008c578063af255b6111610066578063af255b611461034a578063cf5182ba1461035d578063f2fde38b1461037057600080fd5b80637f23690c146103005780638da5cb5b14610313578063a3b261f21461032a57600080fd5b806355908868116100bd57806355908868146102d257806370a08231146102e5578063715018a6146102f857600080fd5b8063511b69521461029f57806354f6127f146102b257600080fd5b806318160ddd1161013a5780632a3654a4116101145780632a3654a41461024c57806349a6078d1461025f5780634e3e6e9c1461027f57600080fd5b806318160ddd146101ff578063217b2270146102115780632599f1591461023c57600080fd5b80630b0c6d821161016b5780630b0c6d82146101c457806314a6e293146101d7578063158ef93e146101ea57600080fd5b806301ffc9a714610187578063077f224a146101af575b600080fd5b61019a610195366004612029565b610383565b60405190151581526020015b60405180910390f35b6101c26101bd3660046120ca565b6103c7565b005b6101c26101d2366004611df7565b610442565b6101c26101e5366004611f6f565b6104ea565b60005460405160ff90911681526020016101a6565b6002545b6040519081526020016101a6565b61022461021f366004611fd3565b6105be565b6040516001600160a01b0390911681526020016101a6565b600054610100900460ff1661019a565b61019a61025a366004611df7565b6105f7565b61027261026d366004611fd3565b610613565b6040516101a69190612216565b61029261028d366004611f3a565b610635565b6040516101a6919061229b565b6101c26102ad366004611d7e565b6106e9565b6102c56102c0366004611fd3565b610751565b6040516101a69190612316565b6101c26102e0366004611e89565b61075c565b6102036102f3366004611d63565b610842565b6101c2610863565b6101c261030e366004611fec565b610877565b6000546201000090046001600160a01b0316610224565b61033d610338366004611d63565b61088d565b6040516101a69190612263565b6101c2610358366004611e21565b6108b1565b6101c261036b366004611df7565b6108c5565b6101c261037e366004611d63565b6109bd565b60006001600160e01b031982167f493991450000000000000000000000000000000000000000000000000000000014806103c157506103c182610a5c565b92915050565b60006103d36001610aaa565b905080156103eb576000805461ff0019166101001790555b6103f6848484610be3565b801561043c576000805461ff0019169055604051600181527f7f26b83ff96e1f2b6a682f133852f6798a09c465da95921460cefb38474024989060200160405180910390a15b50505050565b600061044d826105be565b9050336001600160a01b038216811461049857604051632d938f5160e11b81526001600160a01b03808416600483015260248201859052821660448201526064015b60405180910390fd5b6001600160a01b0384166104bf57604051639577b8b360e01b815260040160405180910390fd5b836001600160a01b0316826001600160a01b031614156104df5750505050565b61043c848385610c59565b6104f2610cb8565b80518251146105695760405162461bcd60e51b815260206004820152602660248201527f4b657973206c656e677468206e6f7420657175616c20746f2076616c7565732060448201527f6c656e6774680000000000000000000000000000000000000000000000000000606482015260840161048f565b60005b82518110156105b9576105b183828151811061058a5761058a61247d565b60200260200101518383815181106105a4576105a461247d565b6020026020010151610d19565b60010161056c565b505050565b6000818152600360205260408120546001600160a01b0316806103c157604051635747cd1b60e11b81526004810184905260240161048f565b600061060282610dd7565b61060c8383610e0f565b9392505050565b606061061e82610dd7565b60008281526005602052604090206103c190610e58565b6060815167ffffffffffffffff81111561065157610651612493565b60405190808252806020026020018201604052801561068457816020015b606081526020019060019003908161066f5790505b50905060005b82518110156106e3576106b58382815181106106a8576106a861247d565b6020026020010151610e65565b8282815181106106c7576106c761247d565b60200260200101819052506106dc8160010190565b905061068a565b50919050565b336106f48185610e0f565b61073c576040517f1294d2a9000000000000000000000000000000000000000000000000000000008152600481018590526001600160a01b038216602482015260440161048f565b6107498686868686610f07565b505050505050565b60606103c182610e65565b8351855114158061076f57508251855114155b8061077c57508051855114155b156107b3576040517f93a8311900000000000000000000000000000000000000000000000000000000815260040160405180910390fd5b60005b8551811015610749576108308682815181106107d4576107d461247d565b60200260200101518683815181106107ee576107ee61247d565b60200260200101518684815181106108085761080861247d565b6020026020010151868686815181106108235761082361247d565b60200260200101516106e9565b8061083a81612436565b9150506107b6565b6001600160a01b03811660009081526004602052604081206103c190611080565b61086b610cb8565b610875600061108a565b565b61087f610cb8565b6108898282610d19565b5050565b6001600160a01b03811660009081526004602052604090206060906103c190611116565b6108b9610cb8565b61043c84848484611121565b60006108d0826105be565b9050336001600160a01b038216811461091657604051632d938f5160e11b81526001600160a01b038084166004830152602482018590528216604482015260640161048f565b6001600160a01b03841661093d57604051639577b8b360e01b815260040160405180910390fd5b836001600160a01b0316826001600160a01b0316141561095d5750505050565b60008381526005602052604090206109759085611255565b5082826001600160a01b0316856001600160a01b03167f34b797fc5a526f7bf1d2b5de25f6564fd85ae364e3ee939aee7c1ac27871a98860405160405180910390a450505050565b6109c5610cb8565b6001600160a01b038116610a415760405162461bcd60e51b815260206004820152602660248201527f4f776e61626c653a206e6577206f776e657220697320746865207a65726f206160448201527f6464726573730000000000000000000000000000000000000000000000000000606482015260840161048f565b610a4a8161108a565b50565b6001600160a01b03163b151590565b60006001600160e01b031982167f714df77c0000000000000000000000000000000000000000000000000000000014806103c157506301ffc9a760e01b6001600160e01b03198316146103c1565b60008054610100900460ff1615610b47578160ff166001148015610acd5750303b155b610b3f5760405162461bcd60e51b815260206004820152602e60248201527f496e697469616c697a61626c653a20636f6e747261637420697320616c72656160448201527f647920696e697469616c697a6564000000000000000000000000000000000000606482015260840161048f565b506000919050565b60005460ff808416911610610bc45760405162461bcd60e51b815260206004820152602e60248201527f496e697469616c697a61626c653a20636f6e747261637420697320616c72656160448201527f647920696e697469616c697a6564000000000000000000000000000000000000606482015260840161048f565b506000805460ff191660ff92909216919091179055600190565b919050565b600054610100900460ff16610c4e5760405162461bcd60e51b815260206004820152602b60248201527f496e697469616c697a61626c653a20636f6e7472616374206973206e6f74206960448201526a6e697469616c697a696e6760a81b606482015260840161048f565b6105b983838361126a565b6000818152600560205260409020610c7190846112e0565b5080826001600160a01b0316846001600160a01b03167f17d5389f6ab6adb2647dfa0aa365c323d37adacc30b33a65310b6158ce1373d560405160405180910390a4505050565b6000546001600160a01b03620100009091041633146108755760405162461bcd60e51b815260206004820181905260248201527f4f776e61626c653a2063616c6c6572206973206e6f7420746865206f776e6572604482015260640161048f565b7fdeba1e292f8ba88238e10ab3c7f88bd4be4fac56cad5194b6ecceaf653468af1821415610d73576040517f85c169bd00000000000000000000000000000000000000000000000000000000815260040160405180910390fd5b7f2f0a68ab07768e01943a599e73362a0e17a63a72e94dd2e384d2c1d4db932756821415610dcd576040517f76755b3800000000000000000000000000000000000000000000000000000000815260040160405180910390fd5b61088982826112f5565b6000818152600360205260409020546001600160a01b0316610a4a57604051635747cd1b60e11b81526004810182905260240161048f565b600080610e1b836105be565b9050806001600160a01b0316846001600160a01b03161480610e5057506000838152600560205260409020610e509085611344565b949350505050565b6060600061060c83611366565b6000818152600160205260409020805460609190610e8290612401565b80601f0160208091040260200160405190810160405280929190818152602001828054610eae90612401565b8015610efb5780601f10610ed057610100808354040283529160200191610efb565b820191906000526020600020905b815481529060010190602001808311610ede57829003601f168201915b50505050509050919050565b6000610f12846105be565b9050856001600160a01b0316816001600160a01b031614610f6057604051632d938f5160e11b81526001600160a01b038083166004830152602482018690528716604482015260640161048f565b6001600160a01b038516610f87576040516324ecef4d60e01b815260040160405180910390fd5b33610f938787876113c1565b610f9d8786611413565b6001600160a01b0387166000908152600460205260409020610fbf9086611464565b506001600160a01b0386166000908152600460205260409020610fe29086611470565b5060008581526003602052604090819020805473ffffffffffffffffffffffffffffffffffffffff19166001600160a01b0389811691821790925591518792918a16907fb333c813a7426a7a11e2b190cad52c44119421594b47f6f32ace6d8c7207b2bf906110569086908a908a906121ec565b60405180910390a461106a8787878661147c565b611077878787878761155f565b50505050505050565b60006103c1825490565b6000546001600160a01b03828116620100009092041614610a4a57600080546001600160a01b03838116620100008181027fffffffffffffffffffff0000000000000000000000000000000000000000ffff851617855560405193049190911692909183917f8be0079c531659141344cd1fd0a4f28419497f9722a3daafe3b4186f6b6457e091a35050565b60606103c182611366565b6001600160a01b038416611148576040516324ecef4d60e01b815260040160405180910390fd5b6000838152600360205260409020546001600160a01b03161561119a576040517f34c7b5110000000000000000000000000000000000000000000000000000000081526004810184905260240161048f565b336111a7600086866113c1565b6001600160a01b03851660009081526004602052604090206111c99085611470565b50600084815260036020526040808220805473ffffffffffffffffffffffffffffffffffffffff19166001600160a01b03891690811790915590518692907fb333c813a7426a7a11e2b190cad52c44119421594b47f6f32ace6d8c7207b2bf90611238908690899089906121ec565b60405180910390a461124e60008686868661155f565b5050505050565b600061060c836001600160a01b0384166116d8565b600054610100900460ff166112d55760405162461bcd60e51b815260206004820152602b60248201527f496e697469616c697a61626c653a20636f6e7472616374206973206e6f74206960448201526a6e697469616c697a696e6760a81b606482015260840161048f565b6105b9838383611727565b600061060c836001600160a01b038416611851565b6000828152600160209081526040909120825161131492840190611ae7565b5060405182907fcdf4e344c0d23d4cdd0474039d176c55b19d531070dbe17856bfb993a5b5720b90600090a25050565b6001600160a01b0381166000908152600183016020526040812054151561060c565b606081600001805480602002602001604051908101604052809291908181526020018280548015610efb57602002820191906000526020600020905b8154815260200190600101908083116113a25750505050509050919050565b6001600160a01b0383166113e8576001600260008282546113e291906123a6565b90915550505b6001600160a01b0382166105b95760016002600082825461140991906123be565b9091555050505050565b60008181526005602052604081209061142b82611080565b905060005b8181101561124e5760006114448482611944565b9050611451818787610c59565b508061145c81612436565b915050611430565b600061060c8383611851565b600061060c83836116d8565b61148d84631aed5a8560e21b611950565b1561043c576000848484846040516020016114ab9493929190612183565b60408051601f1981840301815290829052631aed5a8560e21b825291506001600160a01b03861690636bb56a1490611509907f3724c94f0815e936299cca424da4140752198e0beb7931a6e0925d11bc97544c9085906004016122fd565b600060405180830381600087803b15801561152357600080fd5b505af1158015611537573d6000803e3d6000fd5b505050506040513d6000823e601f3d908101601f191682016040526107499190810190612053565b61157084631aed5a8560e21b611950565b156116495760008585858460405160200161158e9493929190612183565b60408051601f1981840301815290829052631aed5a8560e21b825291506001600160a01b03861690636bb56a14906115ec907fc7a120a42b6057a0cbed111fbbfbd52fcd96748c04394f77fc2c3adbe0391e019085906004016122fd565b600060405180830381600087803b15801561160657600080fd5b505af115801561161a573d6000803e3d6000fd5b505050506040513d6000823e601f3d908101601f191682016040526116429190810190612053565b505061124e565b8161124e576001600160a01b0384163b1561169b576040517f4349776d0000000000000000000000000000000000000000000000000000000081526001600160a01b038516600482015260240161048f565b6040517f031731370000000000000000000000000000000000000000000000000000000081526001600160a01b038516600482015260240161048f565b600081815260018301602052604081205461171f575081546001818101845560008481526020808220909301849055845484825282860190935260409020919091556103c1565b5060006103c1565b600054610100900460ff166117925760405162461bcd60e51b815260206004820152602b60248201527f496e697469616c697a61626c653a20636f6e7472616374206973206e6f74206960448201526a6e697469616c697a696e6760a81b606482015260840161048f565b61179b81611a52565b6117fd7feafec4d89fa9619884b60000a4d96624a38f7ac2d8d9a604ecf07c12c77e480c60001b6040518060400160405280600481526020017fa4d96624000000000000000000000000000000000000000000000000000000008152506112f5565b6118277fdeba1e292f8ba88238e10ab3c7f88bd4be4fac56cad5194b6ecceaf653468af1846112f5565b6105b97f2f0a68ab07768e01943a599e73362a0e17a63a72e94dd2e384d2c1d4db932756836112f5565b6000818152600183016020526040812054801561193a5760006118756001836123be565b8554909150600090611889906001906123be565b90508181146118ee5760008660000182815481106118a9576118a961247d565b90600052602060002001549050808760000184815481106118cc576118cc61247d565b6000918252602080832090910192909255918252600188019052604090208390555b85548690806118ff576118ff612467565b6001900381819060005260206000200160009055905585600101600086815260200190815260200160002060009055600193505050506103c1565b60009150506103c1565b600061060c8383611abd565b604080516001600160e01b0319831660248083019190915282518083039091018152604490910182526020810180517bffffffffffffffffffffffffffffffffffffffffffffffffffffffff166301ffc9a760e01b179052905160009190829081906001600160a01b03871690617530906119cc9086906121d0565b6000604051808303818686fa925050503d8060008114611a08576040519150601f19603f3d011682016040523d82523d6000602084013e611a0d565b606091505b5091509150602081511015611a2857600093505050506103c1565b818015611a485750600081806020019051810190611a46919061213e565b115b9695505050505050565b600054610100900460ff16610a415760405162461bcd60e51b815260206004820152602b60248201527f496e697469616c697a61626c653a20636f6e7472616374206973206e6f74206960448201526a6e697469616c697a696e6760a81b606482015260840161048f565b6000826000018281548110611ad457611ad461247d565b9060005260206000200154905092915050565b828054611af390612401565b90600052602060002090601f016020900481019282611b155760008555611b5b565b82601f10611b2e57805160ff1916838001178555611b5b565b82800160010185558215611b5b579182015b82811115611b5b578251825591602001919060010190611b40565b50611b67929150611b6b565b5090565b5b80821115611b675760008155600101611b6c565b80356001600160a01b0381168114610bde57600080fd5b600082601f830112611ba857600080fd5b81356020611bbd611bb88361235a565b612329565b80838252828201915082860187848660051b8901011115611bdd57600080fd5b60005b85811015611c0357611bf182611b80565b84529284019290840190600101611be0565b5090979650505050505050565b600082601f830112611c2157600080fd5b81356020611c31611bb88361235a565b80838252828201915082860187848660051b8901011115611c5157600080fd5b60005b85811015611c0357813584529284019290840190600101611c54565b600082601f830112611c8157600080fd5b81356020611c91611bb88361235a565b80838252828201915082860187848660051b8901011115611cb157600080fd5b6000805b86811015611cf457823567ffffffffffffffff811115611cd3578283fd5b611ce18b88838d0101611d12565b8652509385019391850191600101611cb5565b509198975050505050505050565b80358015158114610bde57600080fd5b600082601f830112611d2357600080fd5b8135611d31611bb88261237e565b818152846020838601011115611d4657600080fd5b816020850160208301376000918101602001919091529392505050565b600060208284031215611d7557600080fd5b61060c82611b80565b600080600080600060a08688031215611d9657600080fd5b611d9f86611b80565b9450611dad60208701611b80565b935060408601359250611dc260608701611d02565b9150608086013567ffffffffffffffff811115611dde57600080fd5b611dea88828901611d12565b9150509295509295909350565b60008060408385031215611e0a57600080fd5b611e1383611b80565b946020939093013593505050565b60008060008060808587031215611e3757600080fd5b611e4085611b80565b935060208501359250611e5560408601611d02565b9150606085013567ffffffffffffffff811115611e7157600080fd5b611e7d87828801611d12565b91505092959194509250565b600080600080600060a08688031215611ea157600080fd5b853567ffffffffffffffff80821115611eb957600080fd5b611ec589838a01611b97565b96506020880135915080821115611edb57600080fd5b611ee789838a01611b97565b95506040880135915080821115611efd57600080fd5b611f0989838a01611c10565b9450611f1760608901611d02565b93506080880135915080821115611f2d57600080fd5b50611dea88828901611c70565b600060208284031215611f4c57600080fd5b813567ffffffffffffffff811115611f6357600080fd5b610e5084828501611c10565b60008060408385031215611f8257600080fd5b823567ffffffffffffffff80821115611f9a57600080fd5b611fa686838701611c10565b93506020850135915080821115611fbc57600080fd5b50611fc985828601611c70565b9150509250929050565b600060208284031215611fe557600080fd5b5035919050565b60008060408385031215611fff57600080fd5b82359150602083013567ffffffffffffffff81111561201d57600080fd5b611fc985828601611d12565b60006020828403121561203b57600080fd5b81356001600160e01b03198116811461060c57600080fd5b60006020828403121561206557600080fd5b815167ffffffffffffffff81111561207c57600080fd5b8201601f8101841361208d57600080fd5b805161209b611bb88261237e565b8181528560208385010111156120b057600080fd5b6120c18260208301602086016123d5565b95945050505050565b6000806000606084860312156120df57600080fd5b833567ffffffffffffffff808211156120f757600080fd5b61210387838801611d12565b9450602086013591508082111561211957600080fd5b5061212686828701611d12565b92505061213560408501611b80565b90509250925092565b60006020828403121561215057600080fd5b5051919050565b6000815180845261216f8160208601602086016123d5565b601f01601f19169290920160200192915050565b60006bffffffffffffffffffffffff19808760601b168352808660601b1660148401525083602883015282516121c08160488501602087016123d5565b9190910160480195945050505050565b600082516121e28184602087016123d5565b9190910192915050565b6001600160a01b038416815282151560208201526060604082015260006120c16060830184612157565b6020808252825182820181905260009190848201906040850190845b818110156122575783516001600160a01b031683529284019291840191600101612232565b50909695505050505050565b6020808252825182820181905260009190848201906040850190845b818110156122575783518352928401929184019160010161227f565b6000602080830181845280855180835260408601915060408160051b870101925083870160005b828110156122f057603f198886030184526122de858351612157565b945092850192908501906001016122c2565b5092979650505050505050565b828152604060208201526000610e506040830184612157565b60208152600061060c6020830184612157565b604051601f8201601f1916810167ffffffffffffffff8111828210171561235257612352612493565b604052919050565b600067ffffffffffffffff82111561237457612374612493565b5060051b60200190565b600067ffffffffffffffff82111561239857612398612493565b50601f01601f191660200190565b600082198211156123b9576123b9612451565b500190565b6000828210156123d0576123d0612451565b500390565b60005b838110156123f05781810151838201526020016123d8565b8381111561043c5750506000910152565b600181811c9082168061241557607f821691505b602082108114156106e357634e487b7160e01b600052602260045260246000fd5b600060001982141561244a5761244a612451565b5060010190565b634e487b7160e01b600052601160045260246000fd5b634e487b7160e01b600052603160045260246000fd5b634e487b7160e01b600052603260045260246000fd5b634e487b7160e01b600052604160045260246000fdfea2646970667358221220a609d4787e21abdfd0a2fe1d0581696fc8dcf75a2ebc2014203cfbeab19e57ae64736f6c63430008070033496e697469616c697a61626c653a20636f6e747261637420697320616c726561",
  "linkReferences": {},
  "deployedLinkReferences": {}
}