{
  "_format": "hh-sol-artifact-1",
  "contractName": "LSP9Vault",
  "sourceName": "contracts/LSP9Vault/LSP9Vault.sol",
  "abi": [
    {
      "inputs": [
        {
          "internalType": "address",
          "name": "newOwner",
          "type": "address"
        }
      ],
      "stateMutability": "nonpayable",
      "type": "constructor"
    },
    {
      "anonymous": false,
      "inputs": [
        {
          "indexed": true,
          "internalType": "uint256",
          "name": "operation",
          "type": "uint256"
        },
        {
          "indexed": true,
          "internalType": "address",
          "name": "contractAddress",
          "type": "address"
        },
        {
          "indexed": true,
          "internalType": "uint256",
          "name": "value",
          "type": "uint256"
        }
      ],
      "name": "ContractCreated",
      "type": "event"
    },
    {
      "anonymous": false,
      "inputs": [
        {
          "indexed": true,
          "internalType": "bytes32",
          "name": "dataKey",
          "type": "bytes32"
        }
      ],
      "name": "DataChanged",
      "type": "event"
    },
    {
      "anonymous": false,
      "inputs": [
        {
          "indexed": true,
          "internalType": "uint256",
          "name": "operation",
          "type": "uint256"
        },
        {
          "indexed": true,
          "internalType": "address",
          "name": "to",
          "type": "address"
        },
        {
          "indexed": true,
          "internalType": "uint256",
          "name": "value",
          "type": "uint256"
        },
        {
          "indexed": false,
          "internalType": "bytes4",
          "name": "selector",
          "type": "bytes4"
        }
      ],
      "name": "Executed",
      "type": "event"
    },
    {
      "anonymous": false,
      "inputs": [
        {
          "indexed": true,
          "internalType": "address",
          "name": "previousOwner",
          "type": "address"
        },
        {
          "indexed": true,
          "internalType": "address",
          "name": "newOwner",
          "type": "address"
        }
      ],
      "name": "OwnershipTransferred",
      "type": "event"
    },
    {
      "anonymous": false,
      "inputs": [
        {
          "indexed": true,
          "internalType": "address",
          "name": "from",
          "type": "address"
        },
        {
          "indexed": false,
          "internalType": "uint256",
          "name": "value",
          "type": "uint256"
        },
        {
          "indexed": true,
          "internalType": "bytes32",
          "name": "typeId",
          "type": "bytes32"
        },
        {
          "indexed": true,
          "internalType": "bytes",
          "name": "returnedValue",
          "type": "bytes"
        },
        {
          "indexed": false,
          "internalType": "bytes",
          "name": "receivedData",
          "type": "bytes"
        }
      ],
      "name": "UniversalReceiver",
      "type": "event"
    },
    {
      "anonymous": false,
      "inputs": [
        {
          "indexed": true,
          "internalType": "address",
          "name": "sender",
          "type": "address"
        },
        {
          "indexed": true,
          "internalType": "uint256",
          "name": "value",
          "type": "uint256"
        }
      ],
      "name": "ValueReceived",
      "type": "event"
    },
    {
      "stateMutability": "payable",
      "type": "fallback"
    },
    {
      "inputs": [],
      "name": "claimOwnership",
      "outputs": [],
      "stateMutability": "nonpayable",
      "type": "function"
    },
    {
      "inputs": [
        {
          "internalType": "uint256",
          "name": "operation",
          "type": "uint256"
        },
        {
          "internalType": "address",
          "name": "to",
          "type": "address"
        },
        {
          "internalType": "uint256",
          "name": "value",
          "type": "uint256"
        },
        {
          "internalType": "bytes",
          "name": "data",
          "type": "bytes"
        }
      ],
      "name": "execute",
      "outputs": [
        {
          "internalType": "bytes",
          "name": "result",
          "type": "bytes"
        }
      ],
      "stateMutability": "payable",
      "type": "function"
    },
    {
      "inputs": [
        {
          "internalType": "bytes32[]",
          "name": "dataKeys",
          "type": "bytes32[]"
        }
      ],
      "name": "getData",
      "outputs": [
        {
          "internalType": "bytes[]",
          "name": "dataValues",
          "type": "bytes[]"
        }
      ],
      "stateMutability": "view",
      "type": "function"
    },
    {
      "inputs": [
        {
          "internalType": "bytes32",
          "name": "dataKey",
          "type": "bytes32"
        }
      ],
      "name": "getData",
      "outputs": [
        {
          "internalType": "bytes",
          "name": "dataValue",
          "type": "bytes"
        }
      ],
      "stateMutability": "view",
      "type": "function"
    },
    {
      "inputs": [],
      "name": "owner",
      "outputs": [
        {
          "internalType": "address",
          "name": "",
          "type": "address"
        }
      ],
      "stateMutability": "view",
      "type": "function"
    },
    {
      "inputs": [],
      "name": "pendingOwner",
      "outputs": [
        {
          "internalType": "address",
          "name": "",
          "type": "address"
        }
      ],
      "stateMutability": "view",
      "type": "function"
    },
    {
      "inputs": [],
      "name": "renounceOwnership",
      "outputs": [],
      "stateMutability": "nonpayable",
      "type": "function"
    },
    {
      "inputs": [
        {
          "internalType": "bytes32[]",
          "name": "dataKeys",
          "type": "bytes32[]"
        },
        {
          "internalType": "bytes[]",
          "name": "dataValues",
          "type": "bytes[]"
        }
      ],
      "name": "setData",
      "outputs": [],
      "stateMutability": "nonpayable",
      "type": "function"
    },
    {
      "inputs": [
        {
          "internalType": "bytes32",
          "name": "dataKey",
          "type": "bytes32"
        },
        {
          "internalType": "bytes",
          "name": "dataValue",
          "type": "bytes"
        }
      ],
      "name": "setData",
      "outputs": [],
      "stateMutability": "nonpayable",
      "type": "function"
    },
    {
      "inputs": [
        {
          "internalType": "bytes4",
          "name": "interfaceId",
          "type": "bytes4"
        }
      ],
      "name": "supportsInterface",
      "outputs": [
        {
          "internalType": "bool",
          "name": "",
          "type": "bool"
        }
      ],
      "stateMutability": "view",
      "type": "function"
    },
    {
      "inputs": [
        {
          "internalType": "address",
          "name": "newOwner",
          "type": "address"
        }
      ],
      "name": "transferOwnership",
      "outputs": [],
      "stateMutability": "nonpayable",
      "type": "function"
    },
    {
      "inputs": [
        {
          "internalType": "bytes32",
          "name": "typeId",
          "type": "bytes32"
        },
        {
          "internalType": "bytes",
          "name": "data",
          "type": "bytes"
        }
      ],
      "name": "universalReceiver",
      "outputs": [
        {
          "internalType": "bytes",
          "name": "returnValue",
          "type": "bytes"
        }
      ],
      "stateMutability": "payable",
      "type": "function"
    }
  ],
  "bytecode": "0x60806040523480156200001157600080fd5b50604051620026e5380380620026e58339810160408190526200003491620003d3565b6200004a81620000a460201b62000ee61760201c565b6040805180820190915260048152637c0334a160e01b602082015262000092907feafec4d89fa9619884b600007c0334a14085fefa8b51ae5a40895018882bdb90906200010b565b6200009d816200015c565b506200057b565b6000546001600160a01b038281169116146200010857600080546001600160a01b038381166001600160a01b0319831681178455604051919092169283917f8be0079c531659141344cd1fd0a4f28419497f9722a3daafe3b4186f6b6457e09190a3505b50565b600082815260016020908152604090912082516200012c928401906200032d565b5060405182907fcdf4e344c0d23d4cdd0474039d176c55b19d531070dbe17856bfb993a5b5720b90600090a25050565b6200017a81636bb56a1460e01b6200023560201b62000f581760201c565b15620001085760408051631aed5a8560e21b81527f09aaf55960715d8d86b57af40be36b0bfd469c9a3643445d8c65d39e27b4c56f60048201526024810191909152600060448201526001600160a01b03821690636bb56a1490606401600060405180830381600087803b158015620001f257600080fd5b505af115801562000207573d6000803e3d6000fd5b505050506040513d6000823e601f3d908101601f1916820160405262000231919081019062000405565b5050565b604080516001600160e01b0319831660248083019190915282518083039091018152604490910182526020810180516001600160e01b03166301ffc9a760e01b179052905160009190829081906001600160a01b03871690617530906200029e908690620004d7565b6000604051808303818686fa925050503d8060008114620002dc576040519150601f19603f3d011682016040523d82523d6000602084013e620002e1565b606091505b5091509150602081511015620002fe576000935050505062000327565b8180156200032157506000818060200190518101906200031f9190620004bd565b115b93505050505b92915050565b8280546200033b9062000528565b90600052602060002090601f0160209004810192826200035f5760008555620003aa565b82601f106200037a57805160ff1916838001178555620003aa565b82800160010185558215620003aa579182015b82811115620003aa5782518255916020019190600101906200038d565b50620003b8929150620003bc565b5090565b5b80821115620003b85760008155600101620003bd565b600060208284031215620003e657600080fd5b81516001600160a01b0381168114620003fe57600080fd5b9392505050565b6000602082840312156200041857600080fd5b81516001600160401b03808211156200043057600080fd5b818401915084601f8301126200044557600080fd5b8151818111156200045a576200045a62000565565b604051601f8201601f19908116603f0116810190838211818310171562000485576200048562000565565b816040528281528760208487010111156200049f57600080fd5b620004b2836020830160208801620004f5565b979650505050505050565b600060208284031215620004d057600080fd5b5051919050565b60008251620004eb818460208701620004f5565b9190910192915050565b60005b8381101562000512578181015183820152602001620004f8565b8381111562000522576000848401525b50505050565b600181811c908216806200053d57607f821691505b602082108114156200055f57634e487b7160e01b600052602260045260246000fd5b50919050565b634e487b7160e01b600052604160045260246000fd5b61215a806200058b6000396000f3fe6080604052600436106100c75760003560e01c80636bb56a14116100745780638da5cb5b1161004e5780638da5cb5b1461021c578063e30c39781461024e578063f2fde38b1461026e576100c7565b80636bb56a14146101d4578063715018a6146101e75780637f23690c146101fc576100c7565b80634e3e6e9c116100a55780634e3e6e9c146101725780634e71e0c81461019f57806354f6127f146101b4576100c7565b806301ffc9a7146100fd57806314a6e2931461013257806344c028fe14610152575b34156100fb57604051349033907f7e71433ddf847725166244795048ecf3e3f9f35628254ecbf73605666423349390600090a35b005b34801561010957600080fd5b5061011d610118366004611cf9565b61028e565b60405190151581526020015b60405180910390f35b34801561013e57600080fd5b506100fb61014d366004611b72565b610321565b610165610160366004611db3565b6104e0565b6040516101299190611f1d565b34801561017e57600080fd5b5061019261018d366004611b3d565b610b74565b6040516101299190611ebb565b3480156101ab57600080fd5b506100fb610c28565b3480156101c057600080fd5b506101656101cf366004611c4d565b610c51565b6101656101e2366004611c66565b610c5c565b3480156101f357600080fd5b506100fb610dad565b34801561020857600080fd5b506100fb610217366004611cb2565b610dc1565b34801561022857600080fd5b506000546001600160a01b03165b6040516001600160a01b039091168152602001610129565b34801561025a57600080fd5b50600254610236906001600160a01b031681565b34801561027a57600080fd5b506100fb610289366004611b22565b610eb3565b60006001600160e01b031982167f8c1d44f60000000000000000000000000000000000000000000000000000000014806102d857506001600160e01b03198216631aed5a8560e21b145b8061030c57506001600160e01b031982167fd225f16000000000000000000000000000000000000000000000000000000000145b8061031b575061031b8261105a565b92915050565b6000546001600160a01b0316331461040a57600061035e7f0cfc51aec37c55a4d0b1a65c6255c4bf2fbdf6277f3cc0730c45b828b6db8b47611098565b61036790612026565b60601c905061037d33635122dded60e11b610f58565b80156103915750336001600160a01b038216145b6104085760405162461bcd60e51b815260206004820152603160248201527f4f6e6c79204f776e6572206f7220556e6976657273616c20526563656976657260448201527f2044656c656761746520616c6c6f77656400000000000000000000000000000060648201526084015b60405180910390fd5b505b80518251146104815760405162461bcd60e51b815260206004820152602660248201527f4b657973206c656e677468206e6f7420657175616c20746f2076616c7565732060448201527f6c656e677468000000000000000000000000000000000000000000000000000060648201526084016103ff565b60005b82518110156104db576104c98382815181106104a2576104a26120f8565b60200260200101518383815181106104bc576104bc6120f8565b602002602001015161113a565b806104d3816120c7565b915050610484565b505050565b60606104ea611189565b60005a9050866105f057844710156105535760405162461bcd60e51b815260206004820152602660248201527f455243373235583a20696e73756666696369656e742062616c616e636520666f6044820152651c8818d85b1b60d21b60648201526084016103ff565b610596868686868080601f0160208091040260200160405190810160405280939291908181526020018383808284376000920191909152508792506111f2915050565b9150846001600160a01b038716887f4810874456b8e6487bd861375cf6abd8e1c8bb5858c8ce36a86a04dabfac199e6105cf8789611ff6565b6040516001600160e01b0319909116815260200160405180910390a4610b6a565b60038714156106af57841561066d5760405162461bcd60e51b815260206004820152603860248201527f455243373235583a2063616e6e6f74207472616e736665722076616c7565207760448201527f697468206f7065726174696f6e2053544154494343414c4c000000000000000060648201526084016103ff565b6105968685858080601f0160208091040260200160405190810160405280939291908181526020018383808284376000920191909152508692506112a4915050565b600487141561076e57841561072c5760405162461bcd60e51b815260206004820152603a60248201527f455243373235583a2063616e6e6f74207472616e736665722076616c7565207760448201527f697468206f7065726174696f6e2044454c454741544543414c4c00000000000060648201526084016103ff565b6105968685858080601f016020809104026020016040519081016040528093929190818152602001838380828437600092019190915250869250611348915050565b6001871415610912576001600160a01b038616156108005760405162461bcd60e51b815260206004820152604360248201527f455243373235583a20435245415445206f7065726174696f6e7320726571756960448201527f726520746865207265636569766572206164647265737320746f20626520656d60648201526270747960e81b608482015260a4016103ff565b8447101561085f5760405162461bcd60e51b815260206004820152602660248201527f455243373235583a20696e73756666696369656e742062616c616e636520666f6044820152651c8818d85b1b60d21b60648201526084016103ff565b60006108a18686868080601f0160208091040260200160405190810160405280939291908181526020018383808284376000920191909152506113a292505050565b6040516bffffffffffffffffffffffff19606083901b166020820152909150603401604051602081830303815290604052925085816001600160a01b0316897f01c42bd7e97a66166063b02fce6924e6656b6c2c61966630165095c4fb0b7b2f60405160405180910390a450610b6a565b6002871415610b22576001600160a01b038616156109a45760405162461bcd60e51b815260206004820152604360248201527f455243373235583a20435245415445206f7065726174696f6e7320726571756960448201527f726520746865207265636569766572206164647265737320746f20626520656d60648201526270747960e81b608482015260a4016103ff565b84471015610a035760405162461bcd60e51b815260206004820152602660248201527f455243373235583a20696e73756666696369656e742062616c616e636520666f6044820152651c8818d85b1b60d21b60648201526084016103ff565b6000610a5185858080601f016020809104026020016040519081016040528093929190818152602001838380828437600092019190915250610a4c925060209150889050611fdf565b611456565b90506000610aa086868080601f01602080910402602001604051908101604052809392919081815260200183838082843760009201829052509250610a9b91506020905089611fdf565b6114bc565b90506000610aaf8884846115e6565b6040516bffffffffffffffffffffffff19606083901b166020820152909150603401604051602081830303815290604052945087816001600160a01b03168b7f01c42bd7e97a66166063b02fce6924e6656b6c2c61966630165095c4fb0b7b2f60405160405180910390a4505050610b6a565b60405162461bcd60e51b815260206004820152601460248201527f57726f6e67206f7065726174696f6e207479706500000000000000000000000060448201526064016103ff565b5095945050505050565b6060815167ffffffffffffffff811115610b9057610b9061210e565b604051908082528060200260200182016040528015610bc357816020015b6060815260200190600190039081610bae5790505b50905060005b8251811015610c2257610bf4838281518110610be757610be76120f8565b6020026020010151611098565b828281518110610c0657610c066120f8565b6020026020010181905250610c1b8160010190565b9050610bc9565b50919050565b6000546001600160a01b0316610c3c6116f0565b610c45816117a4565b610c4e33611868565b50565b606061031b82611098565b60606000610c897f0cfc51aec37c55a4d0b1a65c6255c4bf2fbdf6277f3cc0730c45b828b6db8b47611098565b90506014815110610d49576000610c9f82612026565b60601c9050610cb581635122dded60e11b610f58565b15610d4757604051635122dded60e11b81526001600160a01b0382169063a245bbda90610cee90339034908b908b908b90600401611e8c565b600060405180830381600087803b158015610d0857600080fd5b505af1158015610d1c573d6000803e3d6000fd5b505050506040513d6000823e601f3d908101601f19168201604052610d449190810190611d23565b92505b505b81604051610d579190611e70565b604051809103902085336001600160a01b03167f9c3ba68eb5742b8e3961aea0afc7371a71bf433c8a67a831803b64c064a178c2348888604051610d9d93929190611f30565b60405180910390a4509392505050565b610db5611189565b610dbf6000610ee6565b565b6000546001600160a01b03163314610ea5576000610dfe7f0cfc51aec37c55a4d0b1a65c6255c4bf2fbdf6277f3cc0730c45b828b6db8b47611098565b610e0790612026565b60601c9050610e1d33635122dded60e11b610f58565b8015610e315750336001600160a01b038216145b610ea35760405162461bcd60e51b815260206004820152603160248201527f4f6e6c79204f776e6572206f7220556e6976657273616c20526563656976657260448201527f2044656c656761746520616c6c6f77656400000000000000000000000000000060648201526084016103ff565b505b610eaf828261113a565b5050565b610ebb611189565b6002805473ffffffffffffffffffffffffffffffffffffffff19166001600160a01b03831617905550565b6000546001600160a01b03828116911614610c4e57600080546001600160a01b0383811673ffffffffffffffffffffffffffffffffffffffff19831681178455604051919092169283917f8be0079c531659141344cd1fd0a4f28419497f9722a3daafe3b4186f6b6457e09190a35050565b604080516001600160e01b0319831660248083019190915282518083039091018152604490910182526020810180517bffffffffffffffffffffffffffffffffffffffffffffffffffffffff166301ffc9a760e01b179052905160009190829081906001600160a01b0387169061753090610fd4908690611e70565b6000604051808303818686fa925050503d8060008114611010576040519150601f19603f3d011682016040523d82523d6000602084013e611015565b606091505b5091509150602081511015611030576000935050505061031b565b818015611050575060008180602001905181019061104e9190611d9a565b115b9695505050505050565b60006001600160e01b031982167f714df77c00000000000000000000000000000000000000000000000000000000148061031b575061031b826118da565b60008181526001602052604090208054606091906110b590612092565b80601f01602080910402602001604051908101604052809291908181526020018280546110e190612092565b801561112e5780601f106111035761010080835404028352916020019161112e565b820191906000526020600020905b81548152906001019060200180831161111157829003601f168201915b50505050509050919050565b6000828152600160209081526040909120825161115992840190611961565b5060405182907fcdf4e344c0d23d4cdd0474039d176c55b19d531070dbe17856bfb993a5b5720b90600090a25050565b3361119c6000546001600160a01b031690565b6001600160a01b031614610dbf5760405162461bcd60e51b815260206004820181905260248201527f4f776e61626c653a2063616c6c6572206973206e6f7420746865206f776e657260448201526064016103ff565b6060600080866001600160a01b03168487876040516112119190611e70565b600060405180830381858888f193505050503d806000811461124f576040519150601f19603f3d011682016040523d82523d6000602084013e611254565b606091505b509150915061129982826040518060400160405280601581526020017f455243373235583a20556e6b6e6f77204572726f720000000000000000000000815250611928565b979650505050505050565b6060600080856001600160a01b031684866040516112c29190611e70565b6000604051808303818686fa925050503d80600081146112fe576040519150601f19603f3d011682016040523d82523d6000602084013e611303565b606091505b509150915061105082826040518060400160405280601581526020017f455243373235583a20556e6b6e6f77204572726f720000000000000000000000815250611928565b6060600080856001600160a01b031684866040516113669190611e70565b6000604051808303818686f4925050503d80600081146112fe576040519150601f19603f3d011682016040523d82523d6000602084013e611303565b60008151600014156113f65760405162461bcd60e51b815260206004820152601d60248201527f6e6f20636f6e74726163742062797465636f64652070726f766964656400000060448201526064016103ff565b81516020830184f090506001600160a01b03811661031b5760405162461bcd60e51b815260206004820152601960248201527f436f756c64206e6f74206465706c6f7920636f6e74726163740000000000000060448201526064016103ff565b6000611463826020611fc7565b835110156114b35760405162461bcd60e51b815260206004820152601560248201527f746f427974657333325f6f75744f66426f756e6473000000000000000000000060448201526064016103ff565b50016020015190565b6060816114ca81601f611fc7565b10156115185760405162461bcd60e51b815260206004820152600e60248201527f736c6963655f6f766572666c6f7700000000000000000000000000000000000060448201526064016103ff565b6115228284611fc7565b845110156115725760405162461bcd60e51b815260206004820152601160248201527f736c6963655f6f75744f66426f756e647300000000000000000000000000000060448201526064016103ff565b60608215801561159157604051915060008252602082016040526115db565b6040519150601f8416801560200281840101858101878315602002848b0101015b818310156115ca5780518352602092830192016115b2565b5050858452601f01601f1916604052505b5090505b9392505050565b600080844710156116395760405162461bcd60e51b815260206004820152601d60248201527f437265617465323a20696e73756666696369656e742062616c616e636500000060448201526064016103ff565b82516116875760405162461bcd60e51b815260206004820181905260248201527f437265617465323a2062797465636f6465206c656e677468206973207a65726f60448201526064016103ff565b8383516020850187f590506001600160a01b0381166116e85760405162461bcd60e51b815260206004820152601960248201527f437265617465323a204661696c6564206f6e206465706c6f790000000000000060448201526064016103ff565b949350505050565b6002546001600160a01b031633146117705760405162461bcd60e51b815260206004820152602c60248201527f4f776e61626c65436c61696d3a2063616c6c6572206973206e6f74207468652060448201527f70656e64696e674f776e6572000000000000000000000000000000000000000060648201526084016103ff565b600254611785906001600160a01b0316610ee6565b6002805473ffffffffffffffffffffffffffffffffffffffff19169055565b6117b581631aed5a8560e21b610f58565b15610c4e5760408051631aed5a8560e21b81527f3ca9f769340018257ac15b3a00e502e8fb730d66086f774210f84d0205af31e760048201526024810191909152600060448201526001600160a01b03821690636bb56a14906064015b600060405180830381600087803b15801561182c57600080fd5b505af1158015611840573d6000803e3d6000fd5b505050506040513d6000823e601f3d908101601f19168201604052610eaf9190810190611d23565b61187981631aed5a8560e21b610f58565b15610c4e5760408051631aed5a8560e21b81527f09aaf55960715d8d86b57af40be36b0bfd469c9a3643445d8c65d39e27b4c56f60048201526024810191909152600060448201526001600160a01b03821690636bb56a1490606401611812565b60006001600160e01b031982167f44c028fe00000000000000000000000000000000000000000000000000000000148061031b57506301ffc9a760e01b6001600160e01b031983161461031b565b606083156119375750816115df565b8251156119475782518084602001fd5b8160405162461bcd60e51b81526004016103ff9190611f1d565b82805461196d90612092565b90600052602060002090601f01602090048101928261198f57600085556119d5565b82601f106119a857805160ff19168380011785556119d5565b828001600101855582156119d5579182015b828111156119d55782518255916020019190600101906119ba565b506119e19291506119e5565b5090565b5b808211156119e157600081556001016119e6565b80356001600160a01b0381168114611a1157600080fd5b919050565b600082601f830112611a2757600080fd5b81356020611a3c611a3783611f7b565b611f4a565b80838252828201915082860187848660051b8901011115611a5c57600080fd5b60005b85811015611a7b57813584529284019290840190600101611a5f565b5090979650505050505050565b60008083601f840112611a9a57600080fd5b50813567ffffffffffffffff811115611ab257600080fd5b602083019150836020828501011115611aca57600080fd5b9250929050565b600082601f830112611ae257600080fd5b8135611af0611a3782611f9f565b818152846020838601011115611b0557600080fd5b816020850160208301376000918101602001919091529392505050565b600060208284031215611b3457600080fd5b6115df826119fa565b600060208284031215611b4f57600080fd5b813567ffffffffffffffff811115611b6657600080fd5b6116e884828501611a16565b60008060408385031215611b8557600080fd5b823567ffffffffffffffff80821115611b9d57600080fd5b611ba986838701611a16565b9350602091508185013581811115611bc057600080fd5b8501601f81018713611bd157600080fd5b8035611bdf611a3782611f7b565b8082825285820191508584018a878560051b8701011115611bff57600080fd5b6000805b85811015611c3a57823588811115611c19578283fd5b611c278e8b838b0101611ad1565b8652509388019391880191600101611c03565b5050508096505050505050509250929050565b600060208284031215611c5f57600080fd5b5035919050565b600080600060408486031215611c7b57600080fd5b83359250602084013567ffffffffffffffff811115611c9957600080fd5b611ca586828701611a88565b9497909650939450505050565b60008060408385031215611cc557600080fd5b82359150602083013567ffffffffffffffff811115611ce357600080fd5b611cef85828601611ad1565b9150509250929050565b600060208284031215611d0b57600080fd5b81356001600160e01b0319811681146115df57600080fd5b600060208284031215611d3557600080fd5b815167ffffffffffffffff811115611d4c57600080fd5b8201601f81018413611d5d57600080fd5b8051611d6b611a3782611f9f565b818152856020838501011115611d8057600080fd5b611d91826020830160208601612062565b95945050505050565b600060208284031215611dac57600080fd5b5051919050565b600080600080600060808688031215611dcb57600080fd5b85359450611ddb602087016119fa565b935060408601359250606086013567ffffffffffffffff811115611dfe57600080fd5b611e0a88828901611a88565b969995985093965092949392505050565b81835281816020850137506000828201602090810191909152601f909101601f19169091010190565b60008151808452611e5c816020860160208601612062565b601f01601f19169290920160200192915050565b60008251611e82818460208701612062565b9190910192915050565b6001600160a01b0386168152846020820152836040820152608060608201526000611299608083018486611e1b565b6000602080830181845280855180835260408601915060408160051b870101925083870160005b82811015611f1057603f19888603018452611efe858351611e44565b94509285019290850190600101611ee2565b5092979650505050505050565b6020815260006115df6020830184611e44565b838152604060208201526000611d91604083018486611e1b565b604051601f8201601f1916810167ffffffffffffffff81118282101715611f7357611f7361210e565b604052919050565b600067ffffffffffffffff821115611f9557611f9561210e565b5060051b60200190565b600067ffffffffffffffff821115611fb957611fb961210e565b50601f01601f191660200190565b60008219821115611fda57611fda6120e2565b500190565b600082821015611ff157611ff16120e2565b500390565b6001600160e01b0319813581811691600485101561201e5780818660040360031b1b83161692505b505092915050565b805160208201516bffffffffffffffffffffffff19808216929190601483101561205a5780818460140360031b1b83161693505b505050919050565b60005b8381101561207d578181015183820152602001612065565b8381111561208c576000848401525b50505050565b600181811c908216806120a657607f821691505b60208210811415610c2257634e487b7160e01b600052602260045260246000fd5b60006000198214156120db576120db6120e2565b5060010190565b634e487b7160e01b600052601160045260246000fd5b634e487b7160e01b600052603260045260246000fd5b634e487b7160e01b600052604160045260246000fdfea2646970667358221220b3414728c5a5449f53fc6d6a68fd0f6dad91af1a36363ecd9f09de5edf14017c64736f6c63430008070033",
  "linkReferences": {},
  "deployedLinkReferences": {}
}