{
  "_format": "hh-sol-artifact-1",
  "contractName": "LSP7InitTester",
  "sourceName": "contracts/Helpers/Tokens/LSP7InitTester.sol",
  "abi": [
    {
      "inputs": [],
      "name": "LSP4TokenNameNotEditable",
      "type": "error"
    },
    {
      "inputs": [],
      "name": "LSP4TokenSymbolNotEditable",
      "type": "error"
    },
    {
      "inputs": [
        {
          "internalType": "address",
          "name": "tokenOwner",
          "type": "address"
        },
        {
          "internalType": "uint256",
          "name": "authorizedAmount",
          "type": "uint256"
        },
        {
          "internalType": "address",
          "name": "operator",
          "type": "address"
        },
        {
          "internalType": "uint256",
          "name": "amount",
          "type": "uint256"
        }
      ],
      "name": "LSP7AmountExceedsAuthorizedAmount",
      "type": "error"
    },
    {
      "inputs": [
        {
          "internalType": "uint256",
          "name": "balance",
          "type": "uint256"
        },
        {
          "internalType": "address",
          "name": "tokenOwner",
          "type": "address"
        },
        {
          "internalType": "uint256",
          "name": "amount",
          "type": "uint256"
        }
      ],
      "name": "LSP7AmountExceedsBalance",
      "type": "error"
    },
    {
      "inputs": [],
      "name": "LSP7CannotSendWithAddressZero",
      "type": "error"
    },
    {
      "inputs": [],
      "name": "LSP7CannotUseAddressZeroAsOperator",
      "type": "error"
    },
    {
      "inputs": [],
      "name": "LSP7InvalidTransferBatch",
      "type": "error"
    },
    {
      "inputs": [
        {
          "internalType": "address",
          "name": "tokenReceiver",
          "type": "address"
        }
      ],
      "name": "LSP7NotifyTokenReceiverContractMissingLSP1Interface",
      "type": "error"
    },
    {
      "inputs": [
        {
          "internalType": "address",
          "name": "tokenReceiver",
          "type": "address"
        }
      ],
      "name": "LSP7NotifyTokenReceiverIsEOA",
      "type": "error"
    },
    {
      "anonymous": false,
      "inputs": [
        {
          "indexed": true,
          "internalType": "address",
          "name": "operator",
          "type": "address"
        },
        {
          "indexed": true,
          "internalType": "address",
          "name": "tokenOwner",
          "type": "address"
        },
        {
          "indexed": true,
          "internalType": "uint256",
          "name": "amount",
          "type": "uint256"
        }
      ],
      "name": "AuthorizedOperator",
      "type": "event"
    },
    {
      "anonymous": false,
      "inputs": [
        {
          "indexed": true,
          "internalType": "bytes32",
          "name": "dataKey",
          "type": "bytes32"
        }
      ],
      "name": "DataChanged",
      "type": "event"
    },
    {
      "anonymous": false,
      "inputs": [
        {
          "indexed": false,
          "internalType": "uint8",
          "name": "version",
          "type": "uint8"
        }
      ],
      "name": "Initialized",
      "type": "event"
    },
    {
      "anonymous": false,
      "inputs": [
        {
          "indexed": true,
          "internalType": "address",
          "name": "previousOwner",
          "type": "address"
        },
        {
          "indexed": true,
          "internalType": "address",
          "name": "newOwner",
          "type": "address"
        }
      ],
      "name": "OwnershipTransferred",
      "type": "event"
    },
    {
      "anonymous": false,
      "inputs": [
        {
          "indexed": true,
          "internalType": "address",
          "name": "operator",
          "type": "address"
        },
        {
          "indexed": true,
          "internalType": "address",
          "name": "tokenOwner",
          "type": "address"
        }
      ],
      "name": "RevokedOperator",
      "type": "event"
    },
    {
      "anonymous": false,
      "inputs": [
        {
          "indexed": true,
          "internalType": "address",
          "name": "operator",
          "type": "address"
        },
        {
          "indexed": true,
          "internalType": "address",
          "name": "from",
          "type": "address"
        },
        {
          "indexed": true,
          "internalType": "address",
          "name": "to",
          "type": "address"
        },
        {
          "indexed": false,
          "internalType": "uint256",
          "name": "amount",
          "type": "uint256"
        },
        {
          "indexed": false,
          "internalType": "bool",
          "name": "force",
          "type": "bool"
        },
        {
          "indexed": false,
          "internalType": "bytes",
          "name": "data",
          "type": "bytes"
        }
      ],
      "name": "Transfer",
      "type": "event"
    },
    {
      "inputs": [
        {
          "internalType": "address",
          "name": "operator",
          "type": "address"
        },
        {
          "internalType": "uint256",
          "name": "amount",
          "type": "uint256"
        }
      ],
      "name": "authorizeOperator",
      "outputs": [],
      "stateMutability": "nonpayable",
      "type": "function"
    },
    {
      "inputs": [
        {
          "internalType": "address",
          "name": "tokenOwner",
          "type": "address"
        }
      ],
      "name": "balanceOf",
      "outputs": [
        {
          "internalType": "uint256",
          "name": "",
          "type": "uint256"
        }
      ],
      "stateMutability": "view",
      "type": "function"
    },
    {
      "inputs": [
        {
          "internalType": "address",
          "name": "from",
          "type": "address"
        },
        {
          "internalType": "uint256",
          "name": "amount",
          "type": "uint256"
        },
        {
          "internalType": "bytes",
          "name": "data",
          "type": "bytes"
        }
      ],
      "name": "burn",
      "outputs": [],
      "stateMutability": "nonpayable",
      "type": "function"
    },
    {
      "inputs": [],
      "name": "decimals",
      "outputs": [
        {
          "internalType": "uint256",
          "name": "",
          "type": "uint256"
        }
      ],
      "stateMutability": "view",
      "type": "function"
    },
    {
      "inputs": [
        {
          "internalType": "bytes32[]",
          "name": "dataKeys",
          "type": "bytes32[]"
        }
      ],
      "name": "getData",
      "outputs": [
        {
          "internalType": "bytes[]",
          "name": "dataValues",
          "type": "bytes[]"
        }
      ],
      "stateMutability": "view",
      "type": "function"
    },
    {
      "inputs": [
        {
          "internalType": "bytes32",
          "name": "dataKey",
          "type": "bytes32"
        }
      ],
      "name": "getData",
      "outputs": [
        {
          "internalType": "bytes",
          "name": "dataValue",
          "type": "bytes"
        }
      ],
      "stateMutability": "view",
      "type": "function"
    },
    {
      "inputs": [
        {
          "internalType": "string",
          "name": "name_",
          "type": "string"
        },
        {
          "internalType": "string",
          "name": "symbol_",
          "type": "string"
        },
        {
          "internalType": "address",
          "name": "newOwner_",
          "type": "address"
        },
        {
          "internalType": "bool",
          "name": "isNFT_",
          "type": "bool"
        }
      ],
      "name": "initialize",
      "outputs": [],
      "stateMutability": "nonpayable",
      "type": "function"
    },
    {
      "inputs": [],
      "name": "initialized",
      "outputs": [
        {
          "internalType": "uint8",
          "name": "",
          "type": "uint8"
        }
      ],
      "stateMutability": "view",
      "type": "function"
    },
    {
      "inputs": [],
      "name": "initializing",
      "outputs": [
        {
          "internalType": "bool",
          "name": "",
          "type": "bool"
        }
      ],
      "stateMutability": "view",
      "type": "function"
    },
    {
      "inputs": [
        {
          "internalType": "address",
          "name": "operator",
          "type": "address"
        },
        {
          "internalType": "address",
          "name": "tokenOwner",
          "type": "address"
        }
      ],
      "name": "isOperatorFor",
      "outputs": [
        {
          "internalType": "uint256",
          "name": "",
          "type": "uint256"
        }
      ],
      "stateMutability": "view",
      "type": "function"
    },
    {
      "inputs": [
        {
          "internalType": "address",
          "name": "to",
          "type": "address"
        },
        {
          "internalType": "uint256",
          "name": "amount",
          "type": "uint256"
        },
        {
          "internalType": "bool",
          "name": "force",
          "type": "bool"
        },
        {
          "internalType": "bytes",
          "name": "data",
          "type": "bytes"
        }
      ],
      "name": "mint",
      "outputs": [],
      "stateMutability": "nonpayable",
      "type": "function"
    },
    {
      "inputs": [],
      "name": "owner",
      "outputs": [
        {
          "internalType": "address",
          "name": "",
          "type": "address"
        }
      ],
      "stateMutability": "view",
      "type": "function"
    },
    {
      "inputs": [],
      "name": "renounceOwnership",
      "outputs": [],
      "stateMutability": "nonpayable",
      "type": "function"
    },
    {
      "inputs": [
        {
          "internalType": "address",
          "name": "operator",
          "type": "address"
        }
      ],
      "name": "revokeOperator",
      "outputs": [],
      "stateMutability": "nonpayable",
      "type": "function"
    },
    {
      "inputs": [
        {
          "internalType": "bytes32[]",
          "name": "dataKeys",
          "type": "bytes32[]"
        },
        {
          "internalType": "bytes[]",
          "name": "dataValues",
          "type": "bytes[]"
        }
      ],
      "name": "setData",
      "outputs": [],
      "stateMutability": "nonpayable",
      "type": "function"
    },
    {
      "inputs": [
        {
          "internalType": "bytes32",
          "name": "dataKey",
          "type": "bytes32"
        },
        {
          "internalType": "bytes",
          "name": "dataValue",
          "type": "bytes"
        }
      ],
      "name": "setData",
      "outputs": [],
      "stateMutability": "nonpayable",
      "type": "function"
    },
    {
      "inputs": [
        {
          "internalType": "bytes4",
          "name": "interfaceId",
          "type": "bytes4"
        }
      ],
      "name": "supportsInterface",
      "outputs": [
        {
          "internalType": "bool",
          "name": "",
          "type": "bool"
        }
      ],
      "stateMutability": "view",
      "type": "function"
    },
    {
      "inputs": [],
      "name": "totalSupply",
      "outputs": [
        {
          "internalType": "uint256",
          "name": "",
          "type": "uint256"
        }
      ],
      "stateMutability": "view",
      "type": "function"
    },
    {
      "inputs": [
        {
          "internalType": "address",
          "name": "from",
          "type": "address"
        },
        {
          "internalType": "address",
          "name": "to",
          "type": "address"
        },
        {
          "internalType": "uint256",
          "name": "amount",
          "type": "uint256"
        },
        {
          "internalType": "bool",
          "name": "force",
          "type": "bool"
        },
        {
          "internalType": "bytes",
          "name": "data",
          "type": "bytes"
        }
      ],
      "name": "transfer",
      "outputs": [],
      "stateMutability": "nonpayable",
      "type": "function"
    },
    {
      "inputs": [
        {
          "internalType": "address[]",
          "name": "from",
          "type": "address[]"
        },
        {
          "internalType": "address[]",
          "name": "to",
          "type": "address[]"
        },
        {
          "internalType": "uint256[]",
          "name": "amount",
          "type": "uint256[]"
        },
        {
          "internalType": "bool",
          "name": "force",
          "type": "bool"
        },
        {
          "internalType": "bytes[]",
          "name": "data",
          "type": "bytes[]"
        }
      ],
      "name": "transferBatch",
      "outputs": [],
      "stateMutability": "nonpayable",
      "type": "function"
    },
    {
      "inputs": [
        {
          "internalType": "address",
          "name": "newOwner",
          "type": "address"
        }
      ],
      "name": "transferOwnership",
      "outputs": [],
      "stateMutability": "nonpayable",
      "type": "function"
    }
  ],
  "bytecode": "0x60806040523480156200001157600080fd5b506200001c62000022565b62000152565b6200002e60ff62000031565b50565b60008054610100900460ff1615620000ca578160ff1660011480156200006a575062000068306200014360201b620008a91760201c565b155b620000c25760405162461bcd60e51b815260206004820152602e60248201526000805160206200238583398151915260448201526d191e481a5b9a5d1a585b1a5e995960921b60648201526084015b60405180910390fd5b506000919050565b60005460ff808416911610620001295760405162461bcd60e51b815260206004820152602e60248201526000805160206200238583398151915260448201526d191e481a5b9a5d1a585b1a5e995960921b6064820152608401620000b9565b506000805460ff191660ff92909216919091179055600190565b6001600160a01b03163b151590565b61222380620001626000396000f3fe608060405234801561001057600080fd5b50600436106101775760003560e01c80635c108a43116100d85780637f23690c1161008c578063d95b637111610066578063d95b637114610318578063f2fde38b1461032b578063fad8b32a1461033e57600080fd5b80637f23690c146102c85780638da5cb5b146102db578063a8a34e0a1461030557600080fd5b8063715018a6116100bd578063715018a61461029a5780637580d920146102a2578063760d9bba146102b557600080fd5b80635c108a431461025e57806370a082311461027157600080fd5b8063313ce5671161012f57806347980aa31161011457806347980aa31461020b5780634e3e6e9c1461021e57806354f6127f1461023e57600080fd5b8063313ce567146101f057806344d17187146101f857600080fd5b8063158ef93e11610160578063158ef93e146101b957806318160ddd146101ce5780632599f159146101e057600080fd5b806301ffc9a71461017c57806314a6e293146101a4575b600080fd5b61018f61018a366004611e00565b610351565b60405190151581526020015b60405180910390f35b6101b76101b2366004611d46565b610395565b005b60005460405160ff909116815260200161019b565b6003545b60405190815260200161019b565b600054610100900460ff1661018f565b6101d261046e565b6101b7610206366004611ba6565b61048d565b6101b7610219366004611b14565b610498565b61023161022c366004611d09565b6104a7565b60405161019b9190611fd4565b61025161024c366004611daa565b61055b565b60405161019b919061204f565b6101b761026c366004611ea1565b610566565b6101d261027f366004611a46565b6001600160a01b031660009081526004602052604090205490565b6101b76105e3565b6101b76102b0366004611b3e565b6105f7565b6101b76102c3366004611a9b565b610609565b6101b76102d6366004611dc3565b6106ad565b6000546201000090046001600160a01b03166040516001600160a01b03909116815260200161019b565b6101b7610313366004611bfd565b6106bf565b6101d2610326366004611a68565b6107a5565b6101b7610339366004611a46565b61080d565b6101b761034c366004611a46565b61089d565b60006001600160e01b031982167fe33f65c300000000000000000000000000000000000000000000000000000000148061038f575061038f826108b8565b92915050565b61039d610906565b80518251146104195760405162461bcd60e51b815260206004820152602660248201527f4b657973206c656e677468206e6f7420657175616c20746f2076616c7565732060448201527f6c656e677468000000000000000000000000000000000000000000000000000060648201526084015b60405180910390fd5b60005b82518110156104695761046183828151811061043a5761043a6121c1565b6020026020010151838381518110610454576104546121c1565b6020026020010151610967565b60010161041c565b505050565b60025460009060ff16610482576012610485565b60005b60ff16905090565b610469838383610a25565b6104a3338383610bf9565b5050565b6060815167ffffffffffffffff8111156104c3576104c36121d7565b6040519080825280602002602001820160405280156104f657816020015b60608152602001906001900390816104e15790505b50905060005b82518110156105555761052783828151811061051a5761051a6121c1565b6020026020010151610d11565b828281518110610539576105396121c1565b602002602001018190525061054e8160010190565b90506104fc565b50919050565b606061038f82610d11565b60006105726001610db3565b9050801561058a576000805461ff0019166101001790555b61059685858585610eec565b80156105dc576000805461ff0019169055604051600181527f7f26b83ff96e1f2b6a682f133852f6798a09c465da95921460cefb38474024989060200160405180910390a15b5050505050565b6105eb610906565b6105f56000610f70565b565b61060384848484610ffc565b50505050565b336001600160a01b0386168114610698576001600160a01b03808716600090815260056020908152604080832093851683529290522054808511156106825760405163f3a6b69160e01b81526001600160a01b038089166004830152602482018390528316604482015260648101869052608401610410565b61069687836106918885612118565b610bf9565b505b6106a586868686866110c7565b505050505050565b6106b5610906565b6104a38282610967565b835185511415806106d257508251855114155b806106df57508051855114155b15610716576040517f263eee8d00000000000000000000000000000000000000000000000000000000815260040160405180910390fd5b60005b85518110156106a557610793868281518110610737576107376121c1565b6020026020010151868381518110610751576107516121c1565b602002602001015186848151811061076b5761076b6121c1565b602002602001015186868681518110610786576107866121c1565b6020026020010151610609565b8061079d81612190565b915050610719565b6000826001600160a01b0316826001600160a01b031614156107e057506001600160a01b03811660009081526004602052604090205461038f565b506001600160a01b0380821660009081526005602090815260408083209386168352929052205492915050565b610815610906565b6001600160a01b0381166108915760405162461bcd60e51b815260206004820152602660248201527f4f776e61626c653a206e6577206f776e657220697320746865207a65726f206160448201527f64647265737300000000000000000000000000000000000000000000000000006064820152608401610410565b61089a81610f70565b50565b61089a33826000610bf9565b6001600160a01b03163b151590565b60006001600160e01b031982167f714df77c00000000000000000000000000000000000000000000000000000000148061038f57506301ffc9a760e01b6001600160e01b031983161461038f565b6000546001600160a01b03620100009091041633146105f55760405162461bcd60e51b815260206004820181905260248201527f4f776e61626c653a2063616c6c6572206973206e6f7420746865206f776e65726044820152606401610410565b7fdeba1e292f8ba88238e10ab3c7f88bd4be4fac56cad5194b6ecceaf653468af18214156109c1576040517f85c169bd00000000000000000000000000000000000000000000000000000000815260040160405180910390fd5b7f2f0a68ab07768e01943a599e73362a0e17a63a72e94dd2e384d2c1d4db932756821415610a1b576040517f76755b3800000000000000000000000000000000000000000000000000000000815260040160405180910390fd5b6104a38282611238565b6001600160a01b038316610a4c57604051630d2d5ec360e41b815260040160405180910390fd5b6001600160a01b03831660009081526004602052604090205480831115610a9f576040516308d4794960e01b8152600481018290526001600160a01b038516602482015260448101849052606401610410565b336001600160a01b0385168114610b56576001600160a01b0380861660009081526005602090815260408083209385168352929052205480851115610b185760405163f3a6b69160e01b81526001600160a01b038088166004830152602482018390528316604482015260648101869052608401610410565b6001600160a01b03808716600090815260056020908152604080832093861683529290529081208054879290610b4f908490612118565b9091555050505b610b6285600086611287565b6001600160a01b03851660009081526004602052604081208054869290610b8a908490612118565b9250508190555060006001600160a01b0316856001600160a01b0316826001600160a01b03167f3997e418d2cef0b3b0e907b1e39605c3f7d32dbd061e82ea5b4a770d46a160a687600088604051610be493929190612062565b60405180910390a46105dc85600086866112d7565b6001600160a01b038216610c39576040517f6355e76600000000000000000000000000000000000000000000000000000000815260040160405180910390fd5b826001600160a01b0316826001600160a01b03161415610c5857505050565b6001600160a01b0380841660009081526005602090815260408083209386168352929052208190558015610ccc5780836001600160a01b0316836001600160a01b03167fd66aff874162a96578e919097b6f6d153dfd89a5cec41bb331fdb0c4aec16e2c60405160405180910390a4505050565b826001600160a01b0316826001600160a01b03167f50546e66e5f44d728365dc3908c63bc5cfeeab470722c1677e3073a6ac294aa160405160405180910390a3505050565b6000818152600160205260409020805460609190610d2e9061215b565b80601f0160208091040260200160405190810160405280929190818152602001828054610d5a9061215b565b8015610da75780601f10610d7c57610100808354040283529160200191610da7565b820191906000526020600020905b815481529060010190602001808311610d8a57829003601f168201915b50505050509050919050565b60008054610100900460ff1615610e50578160ff166001148015610dd65750303b155b610e485760405162461bcd60e51b815260206004820152602e60248201527f496e697469616c697a61626c653a20636f6e747261637420697320616c72656160448201527f647920696e697469616c697a65640000000000000000000000000000000000006064820152608401610410565b506000919050565b60005460ff808416911610610ecd5760405162461bcd60e51b815260206004820152602e60248201527f496e697469616c697a61626c653a20636f6e747261637420697320616c72656160448201527f647920696e697469616c697a65640000000000000000000000000000000000006064820152608401610410565b506000805460ff191660ff92909216919091179055600190565b919050565b600054610100900460ff16610f575760405162461bcd60e51b815260206004820152602b60248201527f496e697469616c697a61626c653a20636f6e7472616374206973206e6f74206960448201526a6e697469616c697a696e6760a81b6064820152608401610410565b6002805460ff19168215151790556106038484846113ba565b6000546001600160a01b0382811662010000909204161461089a57600080546001600160a01b03838116620100008181027fffffffffffffffffffff0000000000000000000000000000000000000000ffff851617855560405193049190911692909183917f8be0079c531659141344cd1fd0a4f28419497f9722a3daafe3b4186f6b6457e091a35050565b6001600160a01b03841661102357604051630d2d5ec360e41b815260040160405180910390fd5b3361103060008686611287565b6001600160a01b03851660009081526004602052604081208054869290611058908490612100565b92505081905550846001600160a01b031660006001600160a01b0316826001600160a01b03167f3997e418d2cef0b3b0e907b1e39605c3f7d32dbd061e82ea5b4a770d46a160a68787876040516110b193929190612062565b60405180910390a46105dc6000868686866114e4565b6001600160a01b03851615806110e457506001600160a01b038416155b1561110257604051630d2d5ec360e41b815260040160405180910390fd5b6001600160a01b03851660009081526004602052604090205480841115611155576040516308d4794960e01b8152600481018290526001600160a01b038716602482015260448101859052606401610410565b33611161878787611287565b6001600160a01b03871660009081526004602052604081208054879290611189908490612118565b90915550506001600160a01b038616600090815260046020526040812080548792906111b6908490612100565b92505081905550856001600160a01b0316876001600160a01b0316826001600160a01b03167f3997e418d2cef0b3b0e907b1e39605c3f7d32dbd061e82ea5b4a770d46a160a688888860405161120e93929190612062565b60405180910390a4611222878787866112d7565b61122f87878787876114e4565b50505050505050565b60008281526001602090815260409091208251611257928401906117ca565b5060405182907fcdf4e344c0d23d4cdd0474039d176c55b19d531070dbe17856bfb993a5b5720b90600090a25050565b6001600160a01b0383166112ad5780600360008282546112a79190612100565b90915550505b6001600160a01b0382166104695780600360008282546112cd9190612118565b9091555050505050565b6112e884631aed5a8560e21b61165d565b15610603576000848484846040516020016113069493929190611f6b565b60408051601f1981840301815290829052631aed5a8560e21b825291506001600160a01b03861690636bb56a1490611364907f40b8bec57d7b5ff0dbd9e9acd0a47dfeb0101e1a203766f5ccab00445fbf39e9908590600401612036565b600060405180830381600087803b15801561137e57600080fd5b505af1158015611392573d6000803e3d6000fd5b505050506040513d6000823e601f3d908101601f191682016040526106a59190810190611e2a565b600054610100900460ff166114255760405162461bcd60e51b815260206004820152602b60248201527f496e697469616c697a61626c653a20636f6e7472616374206973206e6f74206960448201526a6e697469616c697a696e6760a81b6064820152608401610410565b61142e8161175f565b6114907feafec4d89fa9619884b60000a4d96624a38f7ac2d8d9a604ecf07c12c77e480c60001b6040518060400160405280600481526020017fa4d9662400000000000000000000000000000000000000000000000000000000815250611238565b6114ba7fdeba1e292f8ba88238e10ab3c7f88bd4be4fac56cad5194b6ecceaf653468af184611238565b6104697f2f0a68ab07768e01943a599e73362a0e17a63a72e94dd2e384d2c1d4db93275683611238565b6114f584631aed5a8560e21b61165d565b156115ce576000858585846040516020016115139493929190611f6b565b60408051601f1981840301815290829052631aed5a8560e21b825291506001600160a01b03861690636bb56a1490611571907fdbe2c314e1aee2970c72666f2ebe8933a8575263ea71e5ff6a9178e95d47a26f908590600401612036565b600060405180830381600087803b15801561158b57600080fd5b505af115801561159f573d6000803e3d6000fd5b505050506040513d6000823e601f3d908101601f191682016040526115c79190810190611e2a565b50506105dc565b816105dc576001600160a01b0384163b15611620576040517fa608fbb60000000000000000000000000000000000000000000000000000000081526001600160a01b0385166004820152602401610410565b6040517f26c247f40000000000000000000000000000000000000000000000000000000081526001600160a01b0385166004820152602401610410565b604080516001600160e01b0319831660248083019190915282518083039091018152604490910182526020810180517bffffffffffffffffffffffffffffffffffffffffffffffffffffffff166301ffc9a760e01b179052905160009190829081906001600160a01b03871690617530906116d9908690611fb8565b6000604051808303818686fa925050503d8060008114611715576040519150601f19603f3d011682016040523d82523d6000602084013e61171a565b606091505b5091509150602081511015611735576000935050505061038f565b81801561175557506000818060200190518101906117539190611f26565b115b9695505050505050565b600054610100900460ff166108915760405162461bcd60e51b815260206004820152602b60248201527f496e697469616c697a61626c653a20636f6e7472616374206973206e6f74206960448201526a6e697469616c697a696e6760a81b6064820152608401610410565b8280546117d69061215b565b90600052602060002090601f0160209004810192826117f8576000855561183e565b82601f1061181157805160ff191683800117855561183e565b8280016001018555821561183e579182015b8281111561183e578251825591602001919060010190611823565b5061184a92915061184e565b5090565b5b8082111561184a576000815560010161184f565b80356001600160a01b0381168114610ee757600080fd5b600082601f83011261188b57600080fd5b813560206118a061189b836120b4565b612083565b80838252828201915082860187848660051b89010111156118c057600080fd5b60005b858110156118e6576118d482611863565b845292840192908401906001016118c3565b5090979650505050505050565b600082601f83011261190457600080fd5b8135602061191461189b836120b4565b80838252828201915082860187848660051b890101111561193457600080fd5b60005b858110156118e657813584529284019290840190600101611937565b600082601f83011261196457600080fd5b8135602061197461189b836120b4565b80838252828201915082860187848660051b890101111561199457600080fd5b6000805b868110156119d757823567ffffffffffffffff8111156119b6578283fd5b6119c48b88838d01016119f5565b8652509385019391850191600101611998565b509198975050505050505050565b80358015158114610ee757600080fd5b600082601f830112611a0657600080fd5b8135611a1461189b826120d8565b818152846020838601011115611a2957600080fd5b816020850160208301376000918101602001919091529392505050565b600060208284031215611a5857600080fd5b611a6182611863565b9392505050565b60008060408385031215611a7b57600080fd5b611a8483611863565b9150611a9260208401611863565b90509250929050565b600080600080600060a08688031215611ab357600080fd5b611abc86611863565b9450611aca60208701611863565b935060408601359250611adf606087016119e5565b9150608086013567ffffffffffffffff811115611afb57600080fd5b611b07888289016119f5565b9150509295509295909350565b60008060408385031215611b2757600080fd5b611b3083611863565b946020939093013593505050565b60008060008060808587031215611b5457600080fd5b611b5d85611863565b935060208501359250611b72604086016119e5565b9150606085013567ffffffffffffffff811115611b8e57600080fd5b611b9a878288016119f5565b91505092959194509250565b600080600060608486031215611bbb57600080fd5b611bc484611863565b925060208401359150604084013567ffffffffffffffff811115611be757600080fd5b611bf3868287016119f5565b9150509250925092565b600080600080600060a08688031215611c1557600080fd5b853567ffffffffffffffff80821115611c2d57600080fd5b611c3989838a0161187a565b9650602091508188013581811115611c5057600080fd5b611c5c8a828b0161187a565b965050604088013581811115611c7157600080fd5b8801601f81018a13611c8257600080fd5b8035611c9061189b826120b4565b8082825285820191508584018d878560051b8701011115611cb057600080fd5b600094505b83851015611cd3578035835260019490940193918601918601611cb5565b509750611ce692505050606089016119e5565b93506080880135915080821115611cfc57600080fd5b50611b0788828901611953565b600060208284031215611d1b57600080fd5b813567ffffffffffffffff811115611d3257600080fd5b611d3e848285016118f3565b949350505050565b60008060408385031215611d5957600080fd5b823567ffffffffffffffff80821115611d7157600080fd5b611d7d868387016118f3565b93506020850135915080821115611d9357600080fd5b50611da085828601611953565b9150509250929050565b600060208284031215611dbc57600080fd5b5035919050565b60008060408385031215611dd657600080fd5b82359150602083013567ffffffffffffffff811115611df457600080fd5b611da0858286016119f5565b600060208284031215611e1257600080fd5b81356001600160e01b031981168114611a6157600080fd5b600060208284031215611e3c57600080fd5b815167ffffffffffffffff811115611e5357600080fd5b8201601f81018413611e6457600080fd5b8051611e7261189b826120d8565b818152856020838501011115611e8757600080fd5b611e9882602083016020860161212f565b95945050505050565b60008060008060808587031215611eb757600080fd5b843567ffffffffffffffff80821115611ecf57600080fd5b611edb888389016119f5565b95506020870135915080821115611ef157600080fd5b50611efe878288016119f5565b935050611f0d60408601611863565b9150611f1b606086016119e5565b905092959194509250565b600060208284031215611f3857600080fd5b5051919050565b60008151808452611f5781602086016020860161212f565b601f01601f19169290920160200192915050565b60006bffffffffffffffffffffffff19808760601b168352808660601b166014840152508360288301528251611fa881604885016020870161212f565b9190910160480195945050505050565b60008251611fca81846020870161212f565b9190910192915050565b6000602080830181845280855180835260408601915060408160051b870101925083870160005b8281101561202957603f19888603018452612017858351611f3f565b94509285019290850190600101611ffb565b5092979650505050505050565b828152604060208201526000611d3e6040830184611f3f565b602081526000611a616020830184611f3f565b8381528215156020820152606060408201526000611e986060830184611f3f565b604051601f8201601f1916810167ffffffffffffffff811182821017156120ac576120ac6121d7565b604052919050565b600067ffffffffffffffff8211156120ce576120ce6121d7565b5060051b60200190565b600067ffffffffffffffff8211156120f2576120f26121d7565b50601f01601f191660200190565b60008219821115612113576121136121ab565b500190565b60008282101561212a5761212a6121ab565b500390565b60005b8381101561214a578181015183820152602001612132565b838111156106035750506000910152565b600181811c9082168061216f57607f821691505b6020821081141561055557634e487b7160e01b600052602260045260246000fd5b60006000198214156121a4576121a46121ab565b5060010190565b634e487b7160e01b600052601160045260246000fd5b634e487b7160e01b600052603260045260246000fd5b634e487b7160e01b600052604160045260246000fdfea26469706673582212208ed517823fe034f240f47c0a00abb9efef0db4f6dee08251a7d7490dd08e26f564736f6c63430008070033496e697469616c697a61626c653a20636f6e747261637420697320616c726561",
  "linkReferences": {},
  "deployedLinkReferences": {}
}