{
  "_format": "hh-sol-artifact-1",
  "contractName": "LSP9VaultInit",
  "sourceName": "contracts/LSP9Vault/LSP9VaultInit.sol",
  "abi": [
    {
      "inputs": [],
      "stateMutability": "nonpayable",
      "type": "constructor"
    },
    {
      "anonymous": false,
      "inputs": [
        {
          "indexed": true,
          "internalType": "uint256",
          "name": "operation",
          "type": "uint256"
        },
        {
          "indexed": true,
          "internalType": "address",
          "name": "contractAddress",
          "type": "address"
        },
        {
          "indexed": true,
          "internalType": "uint256",
          "name": "value",
          "type": "uint256"
        }
      ],
      "name": "ContractCreated",
      "type": "event"
    },
    {
      "anonymous": false,
      "inputs": [
        {
          "indexed": true,
          "internalType": "bytes32",
          "name": "dataKey",
          "type": "bytes32"
        }
      ],
      "name": "DataChanged",
      "type": "event"
    },
    {
      "anonymous": false,
      "inputs": [
        {
          "indexed": true,
          "internalType": "uint256",
          "name": "operation",
          "type": "uint256"
        },
        {
          "indexed": true,
          "internalType": "address",
          "name": "to",
          "type": "address"
        },
        {
          "indexed": true,
          "internalType": "uint256",
          "name": "value",
          "type": "uint256"
        },
        {
          "indexed": false,
          "internalType": "bytes4",
          "name": "selector",
          "type": "bytes4"
        }
      ],
      "name": "Executed",
      "type": "event"
    },
    {
      "anonymous": false,
      "inputs": [
        {
          "indexed": false,
          "internalType": "uint8",
          "name": "version",
          "type": "uint8"
        }
      ],
      "name": "Initialized",
      "type": "event"
    },
    {
      "anonymous": false,
      "inputs": [
        {
          "indexed": true,
          "internalType": "address",
          "name": "previousOwner",
          "type": "address"
        },
        {
          "indexed": true,
          "internalType": "address",
          "name": "newOwner",
          "type": "address"
        }
      ],
      "name": "OwnershipTransferred",
      "type": "event"
    },
    {
      "anonymous": false,
      "inputs": [
        {
          "indexed": true,
          "internalType": "address",
          "name": "from",
          "type": "address"
        },
        {
          "indexed": false,
          "internalType": "uint256",
          "name": "value",
          "type": "uint256"
        },
        {
          "indexed": true,
          "internalType": "bytes32",
          "name": "typeId",
          "type": "bytes32"
        },
        {
          "indexed": true,
          "internalType": "bytes",
          "name": "returnedValue",
          "type": "bytes"
        },
        {
          "indexed": false,
          "internalType": "bytes",
          "name": "receivedData",
          "type": "bytes"
        }
      ],
      "name": "UniversalReceiver",
      "type": "event"
    },
    {
      "anonymous": false,
      "inputs": [
        {
          "indexed": true,
          "internalType": "address",
          "name": "sender",
          "type": "address"
        },
        {
          "indexed": true,
          "internalType": "uint256",
          "name": "value",
          "type": "uint256"
        }
      ],
      "name": "ValueReceived",
      "type": "event"
    },
    {
      "stateMutability": "payable",
      "type": "fallback"
    },
    {
      "inputs": [],
      "name": "claimOwnership",
      "outputs": [],
      "stateMutability": "nonpayable",
      "type": "function"
    },
    {
      "inputs": [
        {
          "internalType": "uint256",
          "name": "operation",
          "type": "uint256"
        },
        {
          "internalType": "address",
          "name": "to",
          "type": "address"
        },
        {
          "internalType": "uint256",
          "name": "value",
          "type": "uint256"
        },
        {
          "internalType": "bytes",
          "name": "data",
          "type": "bytes"
        }
      ],
      "name": "execute",
      "outputs": [
        {
          "internalType": "bytes",
          "name": "result",
          "type": "bytes"
        }
      ],
      "stateMutability": "payable",
      "type": "function"
    },
    {
      "inputs": [
        {
          "internalType": "bytes32[]",
          "name": "dataKeys",
          "type": "bytes32[]"
        }
      ],
      "name": "getData",
      "outputs": [
        {
          "internalType": "bytes[]",
          "name": "dataValues",
          "type": "bytes[]"
        }
      ],
      "stateMutability": "view",
      "type": "function"
    },
    {
      "inputs": [
        {
          "internalType": "bytes32",
          "name": "dataKey",
          "type": "bytes32"
        }
      ],
      "name": "getData",
      "outputs": [
        {
          "internalType": "bytes",
          "name": "dataValue",
          "type": "bytes"
        }
      ],
      "stateMutability": "view",
      "type": "function"
    },
    {
      "inputs": [
        {
          "internalType": "address",
          "name": "newOwner",
          "type": "address"
        }
      ],
      "name": "initialize",
      "outputs": [],
      "stateMutability": "nonpayable",
      "type": "function"
    },
    {
      "inputs": [],
      "name": "initialized",
      "outputs": [
        {
          "internalType": "uint8",
          "name": "",
          "type": "uint8"
        }
      ],
      "stateMutability": "view",
      "type": "function"
    },
    {
      "inputs": [],
      "name": "initializing",
      "outputs": [
        {
          "internalType": "bool",
          "name": "",
          "type": "bool"
        }
      ],
      "stateMutability": "view",
      "type": "function"
    },
    {
      "inputs": [],
      "name": "owner",
      "outputs": [
        {
          "internalType": "address",
          "name": "",
          "type": "address"
        }
      ],
      "stateMutability": "view",
      "type": "function"
    },
    {
      "inputs": [],
      "name": "pendingOwner",
      "outputs": [
        {
          "internalType": "address",
          "name": "",
          "type": "address"
        }
      ],
      "stateMutability": "view",
      "type": "function"
    },
    {
      "inputs": [],
      "name": "renounceOwnership",
      "outputs": [],
      "stateMutability": "nonpayable",
      "type": "function"
    },
    {
      "inputs": [
        {
          "internalType": "bytes32[]",
          "name": "dataKeys",
          "type": "bytes32[]"
        },
        {
          "internalType": "bytes[]",
          "name": "dataValues",
          "type": "bytes[]"
        }
      ],
      "name": "setData",
      "outputs": [],
      "stateMutability": "nonpayable",
      "type": "function"
    },
    {
      "inputs": [
        {
          "internalType": "bytes32",
          "name": "dataKey",
          "type": "bytes32"
        },
        {
          "internalType": "bytes",
          "name": "dataValue",
          "type": "bytes"
        }
      ],
      "name": "setData",
      "outputs": [],
      "stateMutability": "nonpayable",
      "type": "function"
    },
    {
      "inputs": [
        {
          "internalType": "bytes4",
          "name": "interfaceId",
          "type": "bytes4"
        }
      ],
      "name": "supportsInterface",
      "outputs": [
        {
          "internalType": "bool",
          "name": "",
          "type": "bool"
        }
      ],
      "stateMutability": "view",
      "type": "function"
    },
    {
      "inputs": [
        {
          "internalType": "address",
          "name": "newOwner",
          "type": "address"
        }
      ],
      "name": "transferOwnership",
      "outputs": [],
      "stateMutability": "nonpayable",
      "type": "function"
    },
    {
      "inputs": [
        {
          "internalType": "bytes32",
          "name": "typeId",
          "type": "bytes32"
        },
        {
          "internalType": "bytes",
          "name": "data",
          "type": "bytes"
        }
      ],
      "name": "universalReceiver",
      "outputs": [
        {
          "internalType": "bytes",
          "name": "returnValue",
          "type": "bytes"
        }
      ],
      "stateMutability": "payable",
      "type": "function"
    }
  ],
  "bytecode": "0x60806040523480156200001157600080fd5b506200001c62000022565b62000152565b6200002e60ff62000031565b50565b60008054610100900460ff1615620000ca578160ff1660011480156200006a575062000068306200014360201b620010181760201c565b155b620000c25760405162461bcd60e51b815260206004820152602e60248201526000805160206200263483398151915260448201526d191e481a5b9a5d1a585b1a5e995960921b60648201526084015b60405180910390fd5b506000919050565b60005460ff808416911610620001295760405162461bcd60e51b815260206004820152602e60248201526000805160206200263483398151915260448201526d191e481a5b9a5d1a585b1a5e995960921b6064820152608401620000b9565b506000805460ff191660ff92909216919091179055600190565b6001600160a01b03163b151590565b6124d280620001626000396000f3fe6080604052600436106100e85760003560e01c806354f6127f1161008a5780638da5cb5b116100595780638da5cb5b1461027c578063c4d66de8146102b4578063e30c3978146102d4578063f2fde38b146102f4576100e8565b806354f6127f146102145780636bb56a1414610234578063715018a6146102475780637f23690c1461025c576100e8565b80632599f159116100c65780632599f1591461019557806344c028fe146101b25780634e3e6e9c146101d25780634e71e0c8146101ff576100e8565b806301ffc9a71461011e57806314a6e29314610153578063158ef93e14610173575b341561011c57604051349033907f7e71433ddf847725166244795048ecf3e3f9f35628254ecbf73605666423349390600090a35b005b34801561012a57600080fd5b5061013e610139366004612071565b610314565b60405190151581526020015b60405180910390f35b34801561015f57600080fd5b5061011c61016e366004611eea565b6103a7565b34801561017f57600080fd5b5060005460405160ff909116815260200161014a565b3480156101a157600080fd5b50600054610100900460ff1661013e565b6101c56101c036600461212b565b61057e565b60405161014a9190612295565b3480156101de57600080fd5b506101f26101ed366004611eb5565b610c12565b60405161014a9190612233565b34801561020b57600080fd5b5061011c610cc6565b34801561022057600080fd5b506101c561022f366004611fc5565b610cf5565b6101c5610242366004611fde565b610d00565b34801561025357600080fd5b5061011c610e51565b34801561026857600080fd5b5061011c61027736600461202a565b610e65565b34801561028857600080fd5b506000546201000090046001600160a01b03165b6040516001600160a01b03909116815260200161014a565b3480156102c057600080fd5b5061011c6102cf366004611e9a565b610f6f565b3480156102e057600080fd5b5060025461029c906001600160a01b031681565b34801561030057600080fd5b5061011c61030f366004611e9a565b610fe5565b60006001600160e01b031982167f8c1d44f600000000000000000000000000000000000000000000000000000000148061035e57506001600160e01b03198216631aed5a8560e21b145b8061039257506001600160e01b031982167fd225f16000000000000000000000000000000000000000000000000000000000145b806103a157506103a182611027565b92915050565b6000546201000090046001600160a01b03166001600160a01b0316336001600160a01b0316146104a85760006103fc7f0cfc51aec37c55a4d0b1a65c6255c4bf2fbdf6277f3cc0730c45b828b6db8b47611065565b6104059061239e565b60601c905061041b33635122dded60e11b611107565b801561042f5750336001600160a01b038216145b6104a65760405162461bcd60e51b815260206004820152603160248201527f4f6e6c79204f776e6572206f7220556e6976657273616c20526563656976657260448201527f2044656c656761746520616c6c6f77656400000000000000000000000000000060648201526084015b60405180910390fd5b505b805182511461051f5760405162461bcd60e51b815260206004820152602660248201527f4b657973206c656e677468206e6f7420657175616c20746f2076616c7565732060448201527f6c656e6774680000000000000000000000000000000000000000000000000000606482015260840161049d565b60005b82518110156105795761056783828151811061054057610540612470565b602002602001015183838151811061055a5761055a612470565b6020026020010151611209565b806105718161243f565b915050610522565b505050565b6060610588611258565b60005a90508661068e57844710156105f15760405162461bcd60e51b815260206004820152602660248201527f455243373235583a20696e73756666696369656e742062616c616e636520666f6044820152651c8818d85b1b60d21b606482015260840161049d565b610634868686868080601f0160208091040260200160405190810160405280939291908181526020018383808284376000920191909152508792506112b9915050565b9150846001600160a01b038716887f4810874456b8e6487bd861375cf6abd8e1c8bb5858c8ce36a86a04dabfac199e61066d878961236e565b6040516001600160e01b0319909116815260200160405180910390a4610c08565b600387141561074d57841561070b5760405162461bcd60e51b815260206004820152603860248201527f455243373235583a2063616e6e6f74207472616e736665722076616c7565207760448201527f697468206f7065726174696f6e2053544154494343414c4c0000000000000000606482015260840161049d565b6106348685858080601f01602080910402602001604051908101604052809392919081815260200183838082843760009201919091525086925061136b915050565b600487141561080c5784156107ca5760405162461bcd60e51b815260206004820152603a60248201527f455243373235583a2063616e6e6f74207472616e736665722076616c7565207760448201527f697468206f7065726174696f6e2044454c454741544543414c4c000000000000606482015260840161049d565b6106348685858080601f01602080910402602001604051908101604052809392919081815260200183838082843760009201919091525086925061140f915050565b60018714156109b0576001600160a01b0386161561089e5760405162461bcd60e51b815260206004820152604360248201527f455243373235583a20435245415445206f7065726174696f6e7320726571756960448201527f726520746865207265636569766572206164647265737320746f20626520656d60648201526270747960e81b608482015260a40161049d565b844710156108fd5760405162461bcd60e51b815260206004820152602660248201527f455243373235583a20696e73756666696369656e742062616c616e636520666f6044820152651c8818d85b1b60d21b606482015260840161049d565b600061093f8686868080601f01602080910402602001604051908101604052809392919081815260200183838082843760009201919091525061146992505050565b6040516bffffffffffffffffffffffff19606083901b166020820152909150603401604051602081830303815290604052925085816001600160a01b0316897f01c42bd7e97a66166063b02fce6924e6656b6c2c61966630165095c4fb0b7b2f60405160405180910390a450610c08565b6002871415610bc0576001600160a01b03861615610a425760405162461bcd60e51b815260206004820152604360248201527f455243373235583a20435245415445206f7065726174696f6e7320726571756960448201527f726520746865207265636569766572206164647265737320746f20626520656d60648201526270747960e81b608482015260a40161049d565b84471015610aa15760405162461bcd60e51b815260206004820152602660248201527f455243373235583a20696e73756666696369656e742062616c616e636520666f6044820152651c8818d85b1b60d21b606482015260840161049d565b6000610aef85858080601f016020809104026020016040519081016040528093929190818152602001838380828437600092019190915250610aea925060209150889050612357565b61151d565b90506000610b3e86868080601f01602080910402602001604051908101604052809392919081815260200183838082843760009201829052509250610b3991506020905089612357565b611583565b90506000610b4d8884846116ad565b6040516bffffffffffffffffffffffff19606083901b166020820152909150603401604051602081830303815290604052945087816001600160a01b03168b7f01c42bd7e97a66166063b02fce6924e6656b6c2c61966630165095c4fb0b7b2f60405160405180910390a4505050610c08565b60405162461bcd60e51b815260206004820152601460248201527f57726f6e67206f7065726174696f6e2074797065000000000000000000000000604482015260640161049d565b5095945050505050565b6060815167ffffffffffffffff811115610c2e57610c2e612486565b604051908082528060200260200182016040528015610c6157816020015b6060815260200190600190039081610c4c5790505b50905060005b8251811015610cc057610c92838281518110610c8557610c85612470565b6020026020010151611065565b828281518110610ca457610ca4612470565b6020026020010181905250610cb98160010190565b9050610c67565b50919050565b6000546201000090046001600160a01b0316610ce06117b7565b610ce98161186b565b610cf23361192f565b50565b60606103a182611065565b60606000610d2d7f0cfc51aec37c55a4d0b1a65c6255c4bf2fbdf6277f3cc0730c45b828b6db8b47611065565b90506014815110610ded576000610d438261239e565b60601c9050610d5981635122dded60e11b611107565b15610deb57604051635122dded60e11b81526001600160a01b0382169063a245bbda90610d9290339034908b908b908b90600401612204565b600060405180830381600087803b158015610dac57600080fd5b505af1158015610dc0573d6000803e3d6000fd5b505050506040513d6000823e601f3d908101601f19168201604052610de8919081019061209b565b92505b505b81604051610dfb91906121e8565b604051809103902085336001600160a01b03167f9c3ba68eb5742b8e3961aea0afc7371a71bf433c8a67a831803b64c064a178c2348888604051610e41939291906122a8565b60405180910390a4509392505050565b610e59611258565b610e6360006119a1565b565b6000546201000090046001600160a01b03166001600160a01b0316336001600160a01b031614610f61576000610eba7f0cfc51aec37c55a4d0b1a65c6255c4bf2fbdf6277f3cc0730c45b828b6db8b47611065565b610ec39061239e565b60601c9050610ed933635122dded60e11b611107565b8015610eed5750336001600160a01b038216145b610f5f5760405162461bcd60e51b815260206004820152603160248201527f4f6e6c79204f776e6572206f7220556e6976657273616c20526563656976657260448201527f2044656c656761746520616c6c6f776564000000000000000000000000000000606482015260840161049d565b505b610f6b8282611209565b5050565b6000610f7b6001611a2d565b90508015610f93576000805461ff0019166101001790555b610f9c82611b66565b8015610f6b576000805461ff0019169055604051600181527f7f26b83ff96e1f2b6a682f133852f6798a09c465da95921460cefb38474024989060200160405180910390a15050565b610fed611258565b6002805473ffffffffffffffffffffffffffffffffffffffff19166001600160a01b03831617905550565b6001600160a01b03163b151590565b60006001600160e01b031982167f714df77c0000000000000000000000000000000000000000000000000000000014806103a157506103a182611c57565b60008181526001602052604090208054606091906110829061240a565b80601f01602080910402602001604051908101604052809291908181526020018280546110ae9061240a565b80156110fb5780601f106110d0576101008083540402835291602001916110fb565b820191906000526020600020905b8154815290600101906020018083116110de57829003601f168201915b50505050509050919050565b604080516001600160e01b0319831660248083019190915282518083039091018152604490910182526020810180517bffffffffffffffffffffffffffffffffffffffffffffffffffffffff166301ffc9a760e01b179052905160009190829081906001600160a01b03871690617530906111839086906121e8565b6000604051808303818686fa925050503d80600081146111bf576040519150601f19603f3d011682016040523d82523d6000602084013e6111c4565b606091505b50915091506020815110156111df57600093505050506103a1565b8180156111ff57506000818060200190518101906111fd9190612112565b115b9695505050505050565b6000828152600160209081526040909120825161122892840190611cde565b5060405182907fcdf4e344c0d23d4cdd0474039d176c55b19d531070dbe17856bfb993a5b5720b90600090a25050565b6000546001600160a01b0362010000909104163314610e635760405162461bcd60e51b815260206004820181905260248201527f4f776e61626c653a2063616c6c6572206973206e6f7420746865206f776e6572604482015260640161049d565b6060600080866001600160a01b03168487876040516112d891906121e8565b600060405180830381858888f193505050503d8060008114611316576040519150601f19603f3d011682016040523d82523d6000602084013e61131b565b606091505b509150915061136082826040518060400160405280601581526020017f455243373235583a20556e6b6e6f77204572726f720000000000000000000000815250611ca5565b979650505050505050565b6060600080856001600160a01b0316848660405161138991906121e8565b6000604051808303818686fa925050503d80600081146113c5576040519150601f19603f3d011682016040523d82523d6000602084013e6113ca565b606091505b50915091506111ff82826040518060400160405280601581526020017f455243373235583a20556e6b6e6f77204572726f720000000000000000000000815250611ca5565b6060600080856001600160a01b0316848660405161142d91906121e8565b6000604051808303818686f4925050503d80600081146113c5576040519150601f19603f3d011682016040523d82523d6000602084013e6113ca565b60008151600014156114bd5760405162461bcd60e51b815260206004820152601d60248201527f6e6f20636f6e74726163742062797465636f64652070726f7669646564000000604482015260640161049d565b81516020830184f090506001600160a01b0381166103a15760405162461bcd60e51b815260206004820152601960248201527f436f756c64206e6f74206465706c6f7920636f6e747261637400000000000000604482015260640161049d565b600061152a82602061233f565b8351101561157a5760405162461bcd60e51b815260206004820152601560248201527f746f427974657333325f6f75744f66426f756e64730000000000000000000000604482015260640161049d565b50016020015190565b60608161159181601f61233f565b10156115df5760405162461bcd60e51b815260206004820152600e60248201527f736c6963655f6f766572666c6f77000000000000000000000000000000000000604482015260640161049d565b6115e9828461233f565b845110156116395760405162461bcd60e51b815260206004820152601160248201527f736c6963655f6f75744f66426f756e6473000000000000000000000000000000604482015260640161049d565b60608215801561165857604051915060008252602082016040526116a2565b6040519150601f8416801560200281840101858101878315602002848b0101015b81831015611691578051835260209283019201611679565b5050858452601f01601f1916604052505b5090505b9392505050565b600080844710156117005760405162461bcd60e51b815260206004820152601d60248201527f437265617465323a20696e73756666696369656e742062616c616e6365000000604482015260640161049d565b825161174e5760405162461bcd60e51b815260206004820181905260248201527f437265617465323a2062797465636f6465206c656e677468206973207a65726f604482015260640161049d565b8383516020850187f590506001600160a01b0381166117af5760405162461bcd60e51b815260206004820152601960248201527f437265617465323a204661696c6564206f6e206465706c6f7900000000000000604482015260640161049d565b949350505050565b6002546001600160a01b031633146118375760405162461bcd60e51b815260206004820152602c60248201527f4f776e61626c65436c61696d3a2063616c6c6572206973206e6f74207468652060448201527f70656e64696e674f776e65720000000000000000000000000000000000000000606482015260840161049d565b60025461184c906001600160a01b03166119a1565b6002805473ffffffffffffffffffffffffffffffffffffffff19169055565b61187c81631aed5a8560e21b611107565b15610cf25760408051631aed5a8560e21b81527f3ca9f769340018257ac15b3a00e502e8fb730d66086f774210f84d0205af31e760048201526024810191909152600060448201526001600160a01b03821690636bb56a14906064015b600060405180830381600087803b1580156118f357600080fd5b505af1158015611907573d6000803e3d6000fd5b505050506040513d6000823e601f3d908101601f19168201604052610f6b919081019061209b565b61194081631aed5a8560e21b611107565b15610cf25760408051631aed5a8560e21b81527f09aaf55960715d8d86b57af40be36b0bfd469c9a3643445d8c65d39e27b4c56f60048201526024810191909152600060448201526001600160a01b03821690636bb56a14906064016118d9565b6000546001600160a01b03828116620100009092041614610cf257600080546001600160a01b03838116620100008181027fffffffffffffffffffff0000000000000000000000000000000000000000ffff851617855560405193049190911692909183917f8be0079c531659141344cd1fd0a4f28419497f9722a3daafe3b4186f6b6457e091a35050565b60008054610100900460ff1615611aca578160ff166001148015611a505750303b155b611ac25760405162461bcd60e51b815260206004820152602e60248201527f496e697469616c697a61626c653a20636f6e747261637420697320616c72656160448201527f647920696e697469616c697a6564000000000000000000000000000000000000606482015260840161049d565b506000919050565b60005460ff808416911610611b475760405162461bcd60e51b815260206004820152602e60248201527f496e697469616c697a61626c653a20636f6e747261637420697320616c72656160448201527f647920696e697469616c697a6564000000000000000000000000000000000000606482015260840161049d565b506000805460ff191660ff92909216919091179055600190565b919050565b600054610100900460ff16611be35760405162461bcd60e51b815260206004820152602b60248201527f496e697469616c697a61626c653a20636f6e7472616374206973206e6f74206960448201527f6e697469616c697a696e67000000000000000000000000000000000000000000606482015260840161049d565b611bec816119a1565b611c4e7feafec4d89fa9619884b600007c0334a14085fefa8b51ae5a40895018882bdb9060001b6040518060400160405280600481526020017f7c0334a100000000000000000000000000000000000000000000000000000000815250611209565b610cf28161192f565b60006001600160e01b031982167f44c028fe0000000000000000000000000000000000000000000000000000000014806103a157506301ffc9a760e01b6001600160e01b03198316146103a1565b60608315611cb45750816116a6565b825115611cc45782518084602001fd5b8160405162461bcd60e51b815260040161049d9190612295565b828054611cea9061240a565b90600052602060002090601f016020900481019282611d0c5760008555611d52565b82601f10611d2557805160ff1916838001178555611d52565b82800160010185558215611d52579182015b82811115611d52578251825591602001919060010190611d37565b50611d5e929150611d62565b5090565b5b80821115611d5e5760008155600101611d63565b80356001600160a01b0381168114611b6157600080fd5b600082601f830112611d9f57600080fd5b81356020611db4611daf836122f3565b6122c2565b80838252828201915082860187848660051b8901011115611dd457600080fd5b60005b85811015611df357813584529284019290840190600101611dd7565b5090979650505050505050565b60008083601f840112611e1257600080fd5b50813567ffffffffffffffff811115611e2a57600080fd5b602083019150836020828501011115611e4257600080fd5b9250929050565b600082601f830112611e5a57600080fd5b8135611e68611daf82612317565b818152846020838601011115611e7d57600080fd5b816020850160208301376000918101602001919091529392505050565b600060208284031215611eac57600080fd5b6116a682611d77565b600060208284031215611ec757600080fd5b813567ffffffffffffffff811115611ede57600080fd5b6117af84828501611d8e565b60008060408385031215611efd57600080fd5b823567ffffffffffffffff80821115611f1557600080fd5b611f2186838701611d8e565b9350602091508185013581811115611f3857600080fd5b8501601f81018713611f4957600080fd5b8035611f57611daf826122f3565b8082825285820191508584018a878560051b8701011115611f7757600080fd5b6000805b85811015611fb257823588811115611f91578283fd5b611f9f8e8b838b0101611e49565b8652509388019391880191600101611f7b565b5050508096505050505050509250929050565b600060208284031215611fd757600080fd5b5035919050565b600080600060408486031215611ff357600080fd5b83359250602084013567ffffffffffffffff81111561201157600080fd5b61201d86828701611e00565b9497909650939450505050565b6000806040838503121561203d57600080fd5b82359150602083013567ffffffffffffffff81111561205b57600080fd5b61206785828601611e49565b9150509250929050565b60006020828403121561208357600080fd5b81356001600160e01b0319811681146116a657600080fd5b6000602082840312156120ad57600080fd5b815167ffffffffffffffff8111156120c457600080fd5b8201601f810184136120d557600080fd5b80516120e3611daf82612317565b8181528560208385010111156120f857600080fd5b6121098260208301602086016123da565b95945050505050565b60006020828403121561212457600080fd5b5051919050565b60008060008060006080868803121561214357600080fd5b8535945061215360208701611d77565b935060408601359250606086013567ffffffffffffffff81111561217657600080fd5b61218288828901611e00565b969995985093965092949392505050565b81835281816020850137506000828201602090810191909152601f909101601f19169091010190565b600081518084526121d48160208601602086016123da565b601f01601f19169290920160200192915050565b600082516121fa8184602087016123da565b9190910192915050565b6001600160a01b0386168152846020820152836040820152608060608201526000611360608083018486612193565b6000602080830181845280855180835260408601915060408160051b870101925083870160005b8281101561228857603f198886030184526122768583516121bc565b9450928501929085019060010161225a565b5092979650505050505050565b6020815260006116a660208301846121bc565b838152604060208201526000612109604083018486612193565b604051601f8201601f1916810167ffffffffffffffff811182821017156122eb576122eb612486565b604052919050565b600067ffffffffffffffff82111561230d5761230d612486565b5060051b60200190565b600067ffffffffffffffff82111561233157612331612486565b50601f01601f191660200190565b600082198211156123525761235261245a565b500190565b6000828210156123695761236961245a565b500390565b6001600160e01b031981358181169160048510156123965780818660040360031b1b83161692505b505092915050565b805160208201516bffffffffffffffffffffffff1980821692919060148310156123d25780818460140360031b1b83161693505b505050919050565b60005b838110156123f55781810151838201526020016123dd565b83811115612404576000848401525b50505050565b600181811c9082168061241e57607f821691505b60208210811415610cc057634e487b7160e01b600052602260045260246000fd5b60006000198214156124535761245361245a565b5060010190565b634e487b7160e01b600052601160045260246000fd5b634e487b7160e01b600052603260045260246000fd5b634e487b7160e01b600052604160045260246000fdfea2646970667358221220c924e157b334fe6a1ba663d81d5e42fa1ed3333b7c8c3c2cf188c46309a14ddc64736f6c63430008070033496e697469616c697a61626c653a20636f6e747261637420697320616c726561",
  "linkReferences": {},
  "deployedLinkReferences": {}
}