{
  "_format": "hh-sol-artifact-1",
  "contractName": "LSP7CompatibleERC20InitAbstract",
  "sourceName": "contracts/LSP7DigitalAsset/extensions/LSP7CompatibleERC20InitAbstract.sol",
  "abi": [
    {
      "inputs": [],
      "name": "LSP4TokenNameNotEditable",
      "type": "error"
    },
    {
      "inputs": [],
      "name": "LSP4TokenSymbolNotEditable",
      "type": "error"
    },
    {
      "inputs": [
        {
          "internalType": "address",
          "name": "tokenOwner",
          "type": "address"
        },
        {
          "internalType": "uint256",
          "name": "authorizedAmount",
          "type": "uint256"
        },
        {
          "internalType": "address",
          "name": "operator",
          "type": "address"
        },
        {
          "internalType": "uint256",
          "name": "amount",
          "type": "uint256"
        }
      ],
      "name": "LSP7AmountExceedsAuthorizedAmount",
      "type": "error"
    },
    {
      "inputs": [
        {
          "internalType": "uint256",
          "name": "balance",
          "type": "uint256"
        },
        {
          "internalType": "address",
          "name": "tokenOwner",
          "type": "address"
        },
        {
          "internalType": "uint256",
          "name": "amount",
          "type": "uint256"
        }
      ],
      "name": "LSP7AmountExceedsBalance",
      "type": "error"
    },
    {
      "inputs": [],
      "name": "LSP7CannotSendWithAddressZero",
      "type": "error"
    },
    {
      "inputs": [],
      "name": "LSP7CannotUseAddressZeroAsOperator",
      "type": "error"
    },
    {
      "inputs": [],
      "name": "LSP7InvalidTransferBatch",
      "type": "error"
    },
    {
      "inputs": [
        {
          "internalType": "address",
          "name": "tokenReceiver",
          "type": "address"
        }
      ],
      "name": "LSP7NotifyTokenReceiverContractMissingLSP1Interface",
      "type": "error"
    },
    {
      "inputs": [
        {
          "internalType": "address",
          "name": "tokenReceiver",
          "type": "address"
        }
      ],
      "name": "LSP7NotifyTokenReceiverIsEOA",
      "type": "error"
    },
    {
      "anonymous": false,
      "inputs": [
        {
          "indexed": true,
          "internalType": "address",
          "name": "owner",
          "type": "address"
        },
        {
          "indexed": true,
          "internalType": "address",
          "name": "spender",
          "type": "address"
        },
        {
          "indexed": false,
          "internalType": "uint256",
          "name": "value",
          "type": "uint256"
        }
      ],
      "name": "Approval",
      "type": "event"
    },
    {
      "anonymous": false,
      "inputs": [
        {
          "indexed": true,
          "internalType": "address",
          "name": "operator",
          "type": "address"
        },
        {
          "indexed": true,
          "internalType": "address",
          "name": "tokenOwner",
          "type": "address"
        },
        {
          "indexed": true,
          "internalType": "uint256",
          "name": "amount",
          "type": "uint256"
        }
      ],
      "name": "AuthorizedOperator",
      "type": "event"
    },
    {
      "anonymous": false,
      "inputs": [
        {
          "indexed": true,
          "internalType": "bytes32",
          "name": "dataKey",
          "type": "bytes32"
        }
      ],
      "name": "DataChanged",
      "type": "event"
    },
    {
      "anonymous": false,
      "inputs": [
        {
          "indexed": false,
          "internalType": "uint8",
          "name": "version",
          "type": "uint8"
        }
      ],
      "name": "Initialized",
      "type": "event"
    },
    {
      "anonymous": false,
      "inputs": [
        {
          "indexed": true,
          "internalType": "address",
          "name": "previousOwner",
          "type": "address"
        },
        {
          "indexed": true,
          "internalType": "address",
          "name": "newOwner",
          "type": "address"
        }
      ],
      "name": "OwnershipTransferred",
      "type": "event"
    },
    {
      "anonymous": false,
      "inputs": [
        {
          "indexed": true,
          "internalType": "address",
          "name": "operator",
          "type": "address"
        },
        {
          "indexed": true,
          "internalType": "address",
          "name": "tokenOwner",
          "type": "address"
        }
      ],
      "name": "RevokedOperator",
      "type": "event"
    },
    {
      "anonymous": false,
      "inputs": [
        {
          "indexed": true,
          "internalType": "address",
          "name": "from",
          "type": "address"
        },
        {
          "indexed": true,
          "internalType": "address",
          "name": "to",
          "type": "address"
        },
        {
          "indexed": false,
          "internalType": "uint256",
          "name": "value",
          "type": "uint256"
        }
      ],
      "name": "Transfer",
      "type": "event"
    },
    {
      "anonymous": false,
      "inputs": [
        {
          "indexed": true,
          "internalType": "address",
          "name": "operator",
          "type": "address"
        },
        {
          "indexed": true,
          "internalType": "address",
          "name": "from",
          "type": "address"
        },
        {
          "indexed": true,
          "internalType": "address",
          "name": "to",
          "type": "address"
        },
        {
          "indexed": false,
          "internalType": "uint256",
          "name": "amount",
          "type": "uint256"
        },
        {
          "indexed": false,
          "internalType": "bool",
          "name": "force",
          "type": "bool"
        },
        {
          "indexed": false,
          "internalType": "bytes",
          "name": "data",
          "type": "bytes"
        }
      ],
      "name": "Transfer",
      "type": "event"
    },
    {
      "inputs": [
        {
          "internalType": "address",
          "name": "tokenOwner",
          "type": "address"
        },
        {
          "internalType": "address",
          "name": "operator",
          "type": "address"
        }
      ],
      "name": "allowance",
      "outputs": [
        {
          "internalType": "uint256",
          "name": "",
          "type": "uint256"
        }
      ],
      "stateMutability": "view",
      "type": "function"
    },
    {
      "inputs": [
        {
          "internalType": "address",
          "name": "operator",
          "type": "address"
        },
        {
          "internalType": "uint256",
          "name": "amount",
          "type": "uint256"
        }
      ],
      "name": "approve",
      "outputs": [
        {
          "internalType": "bool",
          "name": "",
          "type": "bool"
        }
      ],
      "stateMutability": "nonpayable",
      "type": "function"
    },
    {
      "inputs": [
        {
          "internalType": "address",
          "name": "operator",
          "type": "address"
        },
        {
          "internalType": "uint256",
          "name": "amount",
          "type": "uint256"
        }
      ],
      "name": "authorizeOperator",
      "outputs": [],
      "stateMutability": "nonpayable",
      "type": "function"
    },
    {
      "inputs": [
        {
          "internalType": "address",
          "name": "tokenOwner",
          "type": "address"
        }
      ],
      "name": "balanceOf",
      "outputs": [
        {
          "internalType": "uint256",
          "name": "",
          "type": "uint256"
        }
      ],
      "stateMutability": "view",
      "type": "function"
    },
    {
      "inputs": [],
      "name": "decimals",
      "outputs": [
        {
          "internalType": "uint256",
          "name": "",
          "type": "uint256"
        }
      ],
      "stateMutability": "view",
      "type": "function"
    },
    {
      "inputs": [
        {
          "internalType": "bytes32[]",
          "name": "dataKeys",
          "type": "bytes32[]"
        }
      ],
      "name": "getData",
      "outputs": [
        {
          "internalType": "bytes[]",
          "name": "dataValues",
          "type": "bytes[]"
        }
      ],
      "stateMutability": "view",
      "type": "function"
    },
    {
      "inputs": [
        {
          "internalType": "bytes32",
          "name": "dataKey",
          "type": "bytes32"
        }
      ],
      "name": "getData",
      "outputs": [
        {
          "internalType": "bytes",
          "name": "dataValue",
          "type": "bytes"
        }
      ],
      "stateMutability": "view",
      "type": "function"
    },
    {
      "inputs": [],
      "name": "initialized",
      "outputs": [
        {
          "internalType": "uint8",
          "name": "",
          "type": "uint8"
        }
      ],
      "stateMutability": "view",
      "type": "function"
    },
    {
      "inputs": [],
      "name": "initializing",
      "outputs": [
        {
          "internalType": "bool",
          "name": "",
          "type": "bool"
        }
      ],
      "stateMutability": "view",
      "type": "function"
    },
    {
      "inputs": [
        {
          "internalType": "address",
          "name": "operator",
          "type": "address"
        },
        {
          "internalType": "address",
          "name": "tokenOwner",
          "type": "address"
        }
      ],
      "name": "isOperatorFor",
      "outputs": [
        {
          "internalType": "uint256",
          "name": "",
          "type": "uint256"
        }
      ],
      "stateMutability": "view",
      "type": "function"
    },
    {
      "inputs": [],
      "name": "name",
      "outputs": [
        {
          "internalType": "string",
          "name": "",
          "type": "string"
        }
      ],
      "stateMutability": "view",
      "type": "function"
    },
    {
      "inputs": [],
      "name": "owner",
      "outputs": [
        {
          "internalType": "address",
          "name": "",
          "type": "address"
        }
      ],
      "stateMutability": "view",
      "type": "function"
    },
    {
      "inputs": [],
      "name": "renounceOwnership",
      "outputs": [],
      "stateMutability": "nonpayable",
      "type": "function"
    },
    {
      "inputs": [
        {
          "internalType": "address",
          "name": "operator",
          "type": "address"
        }
      ],
      "name": "revokeOperator",
      "outputs": [],
      "stateMutability": "nonpayable",
      "type": "function"
    },
    {
      "inputs": [
        {
          "internalType": "bytes32[]",
          "name": "dataKeys",
          "type": "bytes32[]"
        },
        {
          "internalType": "bytes[]",
          "name": "dataValues",
          "type": "bytes[]"
        }
      ],
      "name": "setData",
      "outputs": [],
      "stateMutability": "nonpayable",
      "type": "function"
    },
    {
      "inputs": [
        {
          "internalType": "bytes32",
          "name": "dataKey",
          "type": "bytes32"
        },
        {
          "internalType": "bytes",
          "name": "dataValue",
          "type": "bytes"
        }
      ],
      "name": "setData",
      "outputs": [],
      "stateMutability": "nonpayable",
      "type": "function"
    },
    {
      "inputs": [
        {
          "internalType": "bytes4",
          "name": "interfaceId",
          "type": "bytes4"
        }
      ],
      "name": "supportsInterface",
      "outputs": [
        {
          "internalType": "bool",
          "name": "",
          "type": "bool"
        }
      ],
      "stateMutability": "view",
      "type": "function"
    },
    {
      "inputs": [],
      "name": "symbol",
      "outputs": [
        {
          "internalType": "string",
          "name": "",
          "type": "string"
        }
      ],
      "stateMutability": "view",
      "type": "function"
    },
    {
      "inputs": [],
      "name": "totalSupply",
      "outputs": [
        {
          "internalType": "uint256",
          "name": "",
          "type": "uint256"
        }
      ],
      "stateMutability": "view",
      "type": "function"
    },
    {
      "inputs": [
        {
          "internalType": "address",
          "name": "from",
          "type": "address"
        },
        {
          "internalType": "address",
          "name": "to",
          "type": "address"
        },
        {
          "internalType": "uint256",
          "name": "amount",
          "type": "uint256"
        },
        {
          "internalType": "bool",
          "name": "force",
          "type": "bool"
        },
        {
          "internalType": "bytes",
          "name": "data",
          "type": "bytes"
        }
      ],
      "name": "transfer",
      "outputs": [],
      "stateMutability": "nonpayable",
      "type": "function"
    },
    {
      "inputs": [
        {
          "internalType": "address",
          "name": "to",
          "type": "address"
        },
        {
          "internalType": "uint256",
          "name": "amount",
          "type": "uint256"
        }
      ],
      "name": "transfer",
      "outputs": [
        {
          "internalType": "bool",
          "name": "",
          "type": "bool"
        }
      ],
      "stateMutability": "nonpayable",
      "type": "function"
    },
    {
      "inputs": [
        {
          "internalType": "address[]",
          "name": "from",
          "type": "address[]"
        },
        {
          "internalType": "address[]",
          "name": "to",
          "type": "address[]"
        },
        {
          "internalType": "uint256[]",
          "name": "amount",
          "type": "uint256[]"
        },
        {
          "internalType": "bool",
          "name": "force",
          "type": "bool"
        },
        {
          "internalType": "bytes[]",
          "name": "data",
          "type": "bytes[]"
        }
      ],
      "name": "transferBatch",
      "outputs": [],
      "stateMutability": "nonpayable",
      "type": "function"
    },
    {
      "inputs": [
        {
          "internalType": "address",
          "name": "from",
          "type": "address"
        },
        {
          "internalType": "address",
          "name": "to",
          "type": "address"
        },
        {
          "internalType": "uint256",
          "name": "amount",
          "type": "uint256"
        }
      ],
      "name": "transferFrom",
      "outputs": [
        {
          "internalType": "bool",
          "name": "",
          "type": "bool"
        }
      ],
      "stateMutability": "nonpayable",
      "type": "function"
    },
    {
      "inputs": [
        {
          "internalType": "address",
          "name": "newOwner",
          "type": "address"
        }
      ],
      "name": "transferOwnership",
      "outputs": [],
      "stateMutability": "nonpayable",
      "type": "function"
    }
  ],
  "bytecode": "0x608060405234801561001057600080fd5b50611cb4806100206000396000f3fe608060405234801561001057600080fd5b50600436106101985760003560e01c806370a08231116100e3578063a8a34e0a1161008c578063dd62ed3e11610066578063dd62ed3e1461035c578063f2fde38b1461036f578063fad8b32a1461038257600080fd5b8063a8a34e0a14610323578063a9059cbb14610336578063d95b63711461034957600080fd5b80637f23690c116100bd5780637f23690c146102de5780638da5cb5b146102f157806395d89b411461031b57600080fd5b806370a082311461029a578063715018a6146102c3578063760d9bba146102cb57600080fd5b806323b872dd1161014557806347980aa31161011f57806347980aa3146102545780634e3e6e9c1461026757806354f6127f1461028757600080fd5b806323b872dd146102295780632599f1591461023c578063313ce5671461024c57600080fd5b806314a6e2931161017657806314a6e293146101ed578063158ef93e1461020257806318160ddd1461021757600080fd5b806301ffc9a71461019d57806306fdde03146101c5578063095ea7b3146101da575b600080fd5b6101b06101ab366004611916565b610395565b60405190151581526020015b60405180910390f35b6101cd6103d9565b6040516101bc9190611ae0565b6101b06101e83660046116e9565b610406565b6102006101fb36600461185c565b61041b565b005b60005460405160ff90911681526020016101bc565b6003545b6040519081526020016101bc565b6101b0610237366004611634565b6104f4565b600054610100900460ff166101b0565b61021b61051d565b6102006102623660046116e9565b61053c565b61027a61027536600461181f565b61054a565b6040516101bc9190611a65565b6101cd6102953660046118c0565b6105fe565b61021b6102a83660046115e6565b6001600160a01b031660009081526004602052604090205490565b610200610609565b6102006102d9366004611670565b61061d565b6102006102ec3660046118d9565b6106da565b6000546201000090046001600160a01b03166040516001600160a01b0390911681526020016101bc565b6101cd6106ec565b610200610331366004611713565b610719565b6101b06103443660046116e9565b6107ff565b61021b610357366004611601565b61081e565b61021b61036a366004611601565b610885565b61020061037d3660046115e6565b610898565b6102006103903660046115e6565b610928565b60006001600160e01b031982167fe33f65c30000000000000000000000000000000000000000000000000000000014806103d357506103d382610934565b92915050565b606060006103d37fdeba1e292f8ba88238e10ab3c7f88bd4be4fac56cad5194b6ecceaf653468af1610982565b6000610412838361053c565b50600192915050565b610423610a24565b805182511461049f5760405162461bcd60e51b815260206004820152602660248201527f4b657973206c656e677468206e6f7420657175616c20746f2076616c7565732060448201527f6c656e677468000000000000000000000000000000000000000000000000000060648201526084015b60405180910390fd5b60005b82518110156104ef576104e78382815181106104c0576104c0611c52565b60200260200101518383815181106104da576104da611c52565b6020026020010151610a85565b6001016104a2565b505050565b600061051384848460016040518060200160405280600081525061061d565b5060019392505050565b60025460009060ff16610531576012610534565b60005b60ff16905090565b6105468282610a8f565b5050565b6060815167ffffffffffffffff81111561056657610566611c68565b60405190808252806020026020018201604052801561059957816020015b60608152602001906001900390816105845790505b50905060005b82518110156105f8576105ca8382815181106105bd576105bd611c52565b6020026020010151610982565b8282815181106105dc576105dc611c52565b60200260200101819052506105f18160010190565b905061059f565b50919050565b60606103d382610982565b610611610a24565b61061b6000610add565b565b336001600160a01b03861681146106c5576001600160a01b03808716600090815260056020908152604080832093851683529290522054808511156106af576040517ff3a6b6910000000000000000000000000000000000000000000000000000000081526001600160a01b038089166004830152602482018390528316604482015260648101869052608401610496565b6106c387836106be8885611ba9565b610b69565b505b6106d28686868686610c81565b505050505050565b6106e2610a24565b6105468282610a85565b606060006103d37f2f0a68ab07768e01943a599e73362a0e17a63a72e94dd2e384d2c1d4db932756610982565b8351855114158061072c57508251855114155b8061073957508051855114155b15610770576040517f263eee8d00000000000000000000000000000000000000000000000000000000815260040160405180910390fd5b60005b85518110156106d2576107ed86828151811061079157610791611c52565b60200260200101518683815181106107ab576107ab611c52565b60200260200101518684815181106107c5576107c5611c52565b6020026020010151868686815181106107e0576107e0611c52565b602002602001015161061d565b806107f781611c21565b915050610773565b600061041233848460016040518060200160405280600081525061061d565b6000826001600160a01b0316826001600160a01b0316141561085957506001600160a01b0381166000908152600460205260409020546103d3565b506001600160a01b038082166000908152600560209081526040808320938616835292905220546103d3565b6000610891828461081e565b9392505050565b6108a0610a24565b6001600160a01b03811661091c5760405162461bcd60e51b815260206004820152602660248201527f4f776e61626c653a206e6577206f776e657220697320746865207a65726f206160448201527f64647265737300000000000000000000000000000000000000000000000000006064820152608401610496565b61092581610add565b50565b61092533826000610b69565b60006001600160e01b031982167f714df77c0000000000000000000000000000000000000000000000000000000014806103d357506301ffc9a760e01b6001600160e01b03198316146103d3565b600081815260016020526040902080546060919061099f90611bec565b80601f01602080910402602001604051908101604052809291908181526020018280546109cb90611bec565b8015610a185780601f106109ed57610100808354040283529160200191610a18565b820191906000526020600020905b8154815290600101906020018083116109fb57829003601f168201915b50505050509050919050565b6000546001600160a01b036201000090910416331461061b5760405162461bcd60e51b815260206004820181905260248201527f4f776e61626c653a2063616c6c6572206973206e6f7420746865206f776e65726044820152606401610496565b6105468282610c95565b610a998282610d53565b6040518181526001600160a01b0383169033907f8c5be1e5ebec7d5bd14f71427d1e84f3dd0314c0f7b2291e5b200ac8c7c3b9259060200160405180910390a35050565b6000546001600160a01b0382811662010000909204161461092557600080546001600160a01b03838116620100008181027fffffffffffffffffffff0000000000000000000000000000000000000000ffff851617855560405193049190911692909183917f8be0079c531659141344cd1fd0a4f28419497f9722a3daafe3b4186f6b6457e091a35050565b6001600160a01b038216610ba9576040517f6355e76600000000000000000000000000000000000000000000000000000000815260040160405180910390fd5b826001600160a01b0316826001600160a01b03161415610bc857505050565b6001600160a01b0380841660009081526005602090815260408083209386168352929052208190558015610c3c5780836001600160a01b0316836001600160a01b03167fd66aff874162a96578e919097b6f6d153dfd89a5cec41bb331fdb0c4aec16e2c60405160405180910390a4505050565b826001600160a01b0316826001600160a01b03167f50546e66e5f44d728365dc3908c63bc5cfeeab470722c1677e3073a6ac294aa160405160405180910390a3505050565b610c8e8585858585610d5e565b5050505050565b7fdeba1e292f8ba88238e10ab3c7f88bd4be4fac56cad5194b6ecceaf653468af1821415610cef576040517f85c169bd00000000000000000000000000000000000000000000000000000000815260040160405180910390fd5b7f2f0a68ab07768e01943a599e73362a0e17a63a72e94dd2e384d2c1d4db932756821415610d49576040517f76755b3800000000000000000000000000000000000000000000000000000000815260040160405180910390fd5b6105468282610dbf565b610546338383610b69565b610d6b8585858585610e0e565b836001600160a01b0316856001600160a01b03167fddf252ad1be2c89b69c2b068fc378daa952ba7f163c4a11628f55a4df523b3ef85604051610db091815260200190565b60405180910390a35050505050565b60008281526001602090815260409091208251610dde92840190611365565b5060405182907fcdf4e344c0d23d4cdd0474039d176c55b19d531070dbe17856bfb993a5b5720b90600090a25050565b6001600160a01b0385161580610e2b57506001600160a01b038416155b15610e62576040517fd2d5ec3000000000000000000000000000000000000000000000000000000000815260040160405180910390fd5b6001600160a01b03851660009081526004602052604090205480841115610ece576040517f08d47949000000000000000000000000000000000000000000000000000000008152600481018290526001600160a01b038716602482015260448101859052606401610496565b33610eda878787610fb1565b6001600160a01b03871660009081526004602052604081208054879290610f02908490611ba9565b90915550506001600160a01b03861660009081526004602052604081208054879290610f2f908490611b91565b92505081905550856001600160a01b0316876001600160a01b0316826001600160a01b03167f3997e418d2cef0b3b0e907b1e39605c3f7d32dbd061e82ea5b4a770d46a160a6888888604051610f8793929190611af3565b60405180910390a4610f9b87878786611001565b610fa887878787876110ea565b50505050505050565b6001600160a01b038316610fd7578060036000828254610fd19190611b91565b90915550505b6001600160a01b0382166104ef578060036000828254610ff79190611ba9565b9091555050505050565b61101284631aed5a8560e21b611263565b156110e45760008484848460405160200161103094939291906119fc565b60408051601f1981840301815290829052631aed5a8560e21b825291506001600160a01b03861690636bb56a149061108e907f40b8bec57d7b5ff0dbd9e9acd0a47dfeb0101e1a203766f5ccab00445fbf39e9908590600401611ac7565b600060405180830381600087803b1580156110a857600080fd5b505af11580156110bc573d6000803e3d6000fd5b505050506040513d6000823e601f3d908101601f191682016040526106d29190810190611940565b50505050565b6110fb84631aed5a8560e21b611263565b156111d45760008585858460405160200161111994939291906119fc565b60408051601f1981840301815290829052631aed5a8560e21b825291506001600160a01b03861690636bb56a1490611177907fdbe2c314e1aee2970c72666f2ebe8933a8575263ea71e5ff6a9178e95d47a26f908590600401611ac7565b600060405180830381600087803b15801561119157600080fd5b505af11580156111a5573d6000803e3d6000fd5b505050506040513d6000823e601f3d908101601f191682016040526111cd9190810190611940565b5050610c8e565b81610c8e576001600160a01b0384163b15611226576040517fa608fbb60000000000000000000000000000000000000000000000000000000081526001600160a01b0385166004820152602401610496565b6040517f26c247f40000000000000000000000000000000000000000000000000000000081526001600160a01b0385166004820152602401610496565b604080516001600160e01b0319831660248083019190915282518083039091018152604490910182526020810180517bffffffffffffffffffffffffffffffffffffffffffffffffffffffff166301ffc9a760e01b179052905160009190829081906001600160a01b03871690617530906112df908690611a49565b6000604051808303818686fa925050503d806000811461131b576040519150601f19603f3d011682016040523d82523d6000602084013e611320565b606091505b509150915060208151101561133b57600093505050506103d3565b81801561135b575060008180602001905181019061135991906119b7565b115b9695505050505050565b82805461137190611bec565b90600052602060002090601f01602090048101928261139357600085556113d9565b82601f106113ac57805160ff19168380011785556113d9565b828001600101855582156113d9579182015b828111156113d95782518255916020019190600101906113be565b506113e59291506113e9565b5090565b5b808211156113e557600081556001016113ea565b80356001600160a01b038116811461141557600080fd5b919050565b600082601f83011261142b57600080fd5b8135602061144061143b83611b45565b611b14565b80838252828201915082860187848660051b890101111561146057600080fd5b60005b8581101561148657611474826113fe565b84529284019290840190600101611463565b5090979650505050505050565b600082601f8301126114a457600080fd5b813560206114b461143b83611b45565b80838252828201915082860187848660051b89010111156114d457600080fd5b60005b85811015611486578135845292840192908401906001016114d7565b600082601f83011261150457600080fd5b8135602061151461143b83611b45565b80838252828201915082860187848660051b890101111561153457600080fd5b6000805b8681101561157757823567ffffffffffffffff811115611556578283fd5b6115648b88838d0101611595565b8652509385019391850191600101611538565b509198975050505050505050565b8035801515811461141557600080fd5b600082601f8301126115a657600080fd5b81356115b461143b82611b69565b8181528460208386010111156115c957600080fd5b816020850160208301376000918101602001919091529392505050565b6000602082840312156115f857600080fd5b610891826113fe565b6000806040838503121561161457600080fd5b61161d836113fe565b915061162b602084016113fe565b90509250929050565b60008060006060848603121561164957600080fd5b611652846113fe565b9250611660602085016113fe565b9150604084013590509250925092565b600080600080600060a0868803121561168857600080fd5b611691866113fe565b945061169f602087016113fe565b9350604086013592506116b460608701611585565b9150608086013567ffffffffffffffff8111156116d057600080fd5b6116dc88828901611595565b9150509295509295909350565b600080604083850312156116fc57600080fd5b611705836113fe565b946020939093013593505050565b600080600080600060a0868803121561172b57600080fd5b853567ffffffffffffffff8082111561174357600080fd5b61174f89838a0161141a565b965060209150818801358181111561176657600080fd5b6117728a828b0161141a565b96505060408801358181111561178757600080fd5b8801601f81018a1361179857600080fd5b80356117a661143b82611b45565b8082825285820191508584018d878560051b87010111156117c657600080fd5b600094505b838510156117e95780358352600194909401939186019186016117cb565b5097506117fc9250505060608901611585565b9350608088013591508082111561181257600080fd5b506116dc888289016114f3565b60006020828403121561183157600080fd5b813567ffffffffffffffff81111561184857600080fd5b61185484828501611493565b949350505050565b6000806040838503121561186f57600080fd5b823567ffffffffffffffff8082111561188757600080fd5b61189386838701611493565b935060208501359150808211156118a957600080fd5b506118b6858286016114f3565b9150509250929050565b6000602082840312156118d257600080fd5b5035919050565b600080604083850312156118ec57600080fd5b82359150602083013567ffffffffffffffff81111561190a57600080fd5b6118b685828601611595565b60006020828403121561192857600080fd5b81356001600160e01b03198116811461089157600080fd5b60006020828403121561195257600080fd5b815167ffffffffffffffff81111561196957600080fd5b8201601f8101841361197a57600080fd5b805161198861143b82611b69565b81815285602083850101111561199d57600080fd5b6119ae826020830160208601611bc0565b95945050505050565b6000602082840312156119c957600080fd5b5051919050565b600081518084526119e8816020860160208601611bc0565b601f01601f19169290920160200192915050565b60006bffffffffffffffffffffffff19808760601b168352808660601b166014840152508360288301528251611a39816048850160208701611bc0565b9190910160480195945050505050565b60008251611a5b818460208701611bc0565b9190910192915050565b6000602080830181845280855180835260408601915060408160051b870101925083870160005b82811015611aba57603f19888603018452611aa88583516119d0565b94509285019290850190600101611a8c565b5092979650505050505050565b82815260406020820152600061185460408301846119d0565b60208152600061089160208301846119d0565b83815282151560208201526060604082015260006119ae60608301846119d0565b604051601f8201601f1916810167ffffffffffffffff81118282101715611b3d57611b3d611c68565b604052919050565b600067ffffffffffffffff821115611b5f57611b5f611c68565b5060051b60200190565b600067ffffffffffffffff821115611b8357611b83611c68565b50601f01601f191660200190565b60008219821115611ba457611ba4611c3c565b500190565b600082821015611bbb57611bbb611c3c565b500390565b60005b83811015611bdb578181015183820152602001611bc3565b838111156110e45750506000910152565b600181811c90821680611c0057607f821691505b602082108114156105f857634e487b7160e01b600052602260045260246000fd5b6000600019821415611c3557611c35611c3c565b5060010190565b634e487b7160e01b600052601160045260246000fd5b634e487b7160e01b600052603260045260246000fd5b634e487b7160e01b600052604160045260246000fdfea26469706673582212209991a37043c4499ff50ccaf555533a5b35d959c13ef9e4d51c26f96816dcbc3364736f6c63430008070033",
  "linkReferences": {},
  "deployedLinkReferences": {}
}