{
  "_format": "hh-sol-artifact-1",
  "contractName": "LSP8IdentifiableDigitalAssetInit",
  "sourceName": "contracts/LSP8IdentifiableDigitalAsset/LSP8IdentifiableDigitalAssetInit.sol",
  "abi": [
    {
      "inputs": [],
      "stateMutability": "nonpayable",
      "type": "constructor"
    },
    {
      "inputs": [],
      "name": "LSP4TokenNameNotEditable",
      "type": "error"
    },
    {
      "inputs": [],
      "name": "LSP4TokenSymbolNotEditable",
      "type": "error"
    },
    {
      "inputs": [],
      "name": "LSP8CannotSendToAddressZero",
      "type": "error"
    },
    {
      "inputs": [],
      "name": "LSP8CannotUseAddressZeroAsOperator",
      "type": "error"
    },
    {
      "inputs": [],
      "name": "LSP8InvalidTransferBatch",
      "type": "error"
    },
    {
      "inputs": [
        {
          "internalType": "bytes32",
          "name": "tokenId",
          "type": "bytes32"
        }
      ],
      "name": "LSP8NonExistentTokenId",
      "type": "error"
    },
    {
      "inputs": [
        {
          "internalType": "bytes32",
          "name": "tokenId",
          "type": "bytes32"
        },
        {
          "internalType": "address",
          "name": "caller",
          "type": "address"
        }
      ],
      "name": "LSP8NotTokenOperator",
      "type": "error"
    },
    {
      "inputs": [
        {
          "internalType": "address",
          "name": "tokenOwner",
          "type": "address"
        },
        {
          "internalType": "bytes32",
          "name": "tokenId",
          "type": "bytes32"
        },
        {
          "internalType": "address",
          "name": "caller",
          "type": "address"
        }
      ],
      "name": "LSP8NotTokenOwner",
      "type": "error"
    },
    {
      "inputs": [
        {
          "internalType": "address",
          "name": "tokenReceiver",
          "type": "address"
        }
      ],
      "name": "LSP8NotifyTokenReceiverContractMissingLSP1Interface",
      "type": "error"
    },
    {
      "inputs": [
        {
          "internalType": "address",
          "name": "tokenReceiver",
          "type": "address"
        }
      ],
      "name": "LSP8NotifyTokenReceiverIsEOA",
      "type": "error"
    },
    {
      "anonymous": false,
      "inputs": [
        {
          "indexed": true,
          "internalType": "address",
          "name": "operator",
          "type": "address"
        },
        {
          "indexed": true,
          "internalType": "address",
          "name": "tokenOwner",
          "type": "address"
        },
        {
          "indexed": true,
          "internalType": "bytes32",
          "name": "tokenId",
          "type": "bytes32"
        }
      ],
      "name": "AuthorizedOperator",
      "type": "event"
    },
    {
      "anonymous": false,
      "inputs": [
        {
          "indexed": true,
          "internalType": "bytes32",
          "name": "dataKey",
          "type": "bytes32"
        }
      ],
      "name": "DataChanged",
      "type": "event"
    },
    {
      "anonymous": false,
      "inputs": [
        {
          "indexed": false,
          "internalType": "uint8",
          "name": "version",
          "type": "uint8"
        }
      ],
      "name": "Initialized",
      "type": "event"
    },
    {
      "anonymous": false,
      "inputs": [
        {
          "indexed": true,
          "internalType": "address",
          "name": "previousOwner",
          "type": "address"
        },
        {
          "indexed": true,
          "internalType": "address",
          "name": "newOwner",
          "type": "address"
        }
      ],
      "name": "OwnershipTransferred",
      "type": "event"
    },
    {
      "anonymous": false,
      "inputs": [
        {
          "indexed": true,
          "internalType": "address",
          "name": "operator",
          "type": "address"
        },
        {
          "indexed": true,
          "internalType": "address",
          "name": "tokenOwner",
          "type": "address"
        },
        {
          "indexed": true,
          "internalType": "bytes32",
          "name": "tokenId",
          "type": "bytes32"
        }
      ],
      "name": "RevokedOperator",
      "type": "event"
    },
    {
      "anonymous": false,
      "inputs": [
        {
          "indexed": false,
          "internalType": "address",
          "name": "operator",
          "type": "address"
        },
        {
          "indexed": true,
          "internalType": "address",
          "name": "from",
          "type": "address"
        },
        {
          "indexed": true,
          "internalType": "address",
          "name": "to",
          "type": "address"
        },
        {
          "indexed": true,
          "internalType": "bytes32",
          "name": "tokenId",
          "type": "bytes32"
        },
        {
          "indexed": false,
          "internalType": "bool",
          "name": "force",
          "type": "bool"
        },
        {
          "indexed": false,
          "internalType": "bytes",
          "name": "data",
          "type": "bytes"
        }
      ],
      "name": "Transfer",
      "type": "event"
    },
    {
      "inputs": [
        {
          "internalType": "address",
          "name": "operator",
          "type": "address"
        },
        {
          "internalType": "bytes32",
          "name": "tokenId",
          "type": "bytes32"
        }
      ],
      "name": "authorizeOperator",
      "outputs": [],
      "stateMutability": "nonpayable",
      "type": "function"
    },
    {
      "inputs": [
        {
          "internalType": "address",
          "name": "tokenOwner",
          "type": "address"
        }
      ],
      "name": "balanceOf",
      "outputs": [
        {
          "internalType": "uint256",
          "name": "",
          "type": "uint256"
        }
      ],
      "stateMutability": "view",
      "type": "function"
    },
    {
      "inputs": [
        {
          "internalType": "bytes32[]",
          "name": "dataKeys",
          "type": "bytes32[]"
        }
      ],
      "name": "getData",
      "outputs": [
        {
          "internalType": "bytes[]",
          "name": "dataValues",
          "type": "bytes[]"
        }
      ],
      "stateMutability": "view",
      "type": "function"
    },
    {
      "inputs": [
        {
          "internalType": "bytes32",
          "name": "dataKey",
          "type": "bytes32"
        }
      ],
      "name": "getData",
      "outputs": [
        {
          "internalType": "bytes",
          "name": "dataValue",
          "type": "bytes"
        }
      ],
      "stateMutability": "view",
      "type": "function"
    },
    {
      "inputs": [
        {
          "internalType": "bytes32",
          "name": "tokenId",
          "type": "bytes32"
        }
      ],
      "name": "getOperatorsOf",
      "outputs": [
        {
          "internalType": "address[]",
          "name": "",
          "type": "address[]"
        }
      ],
      "stateMutability": "view",
      "type": "function"
    },
    {
      "inputs": [
        {
          "internalType": "string",
          "name": "name_",
          "type": "string"
        },
        {
          "internalType": "string",
          "name": "symbol_",
          "type": "string"
        },
        {
          "internalType": "address",
          "name": "newOwner_",
          "type": "address"
        }
      ],
      "name": "initialize",
      "outputs": [],
      "stateMutability": "nonpayable",
      "type": "function"
    },
    {
      "inputs": [],
      "name": "initialized",
      "outputs": [
        {
          "internalType": "uint8",
          "name": "",
          "type": "uint8"
        }
      ],
      "stateMutability": "view",
      "type": "function"
    },
    {
      "inputs": [],
      "name": "initializing",
      "outputs": [
        {
          "internalType": "bool",
          "name": "",
          "type": "bool"
        }
      ],
      "stateMutability": "view",
      "type": "function"
    },
    {
      "inputs": [
        {
          "internalType": "address",
          "name": "operator",
          "type": "address"
        },
        {
          "internalType": "bytes32",
          "name": "tokenId",
          "type": "bytes32"
        }
      ],
      "name": "isOperatorFor",
      "outputs": [
        {
          "internalType": "bool",
          "name": "",
          "type": "bool"
        }
      ],
      "stateMutability": "view",
      "type": "function"
    },
    {
      "inputs": [],
      "name": "owner",
      "outputs": [
        {
          "internalType": "address",
          "name": "",
          "type": "address"
        }
      ],
      "stateMutability": "view",
      "type": "function"
    },
    {
      "inputs": [],
      "name": "renounceOwnership",
      "outputs": [],
      "stateMutability": "nonpayable",
      "type": "function"
    },
    {
      "inputs": [
        {
          "internalType": "address",
          "name": "operator",
          "type": "address"
        },
        {
          "internalType": "bytes32",
          "name": "tokenId",
          "type": "bytes32"
        }
      ],
      "name": "revokeOperator",
      "outputs": [],
      "stateMutability": "nonpayable",
      "type": "function"
    },
    {
      "inputs": [
        {
          "internalType": "bytes32[]",
          "name": "dataKeys",
          "type": "bytes32[]"
        },
        {
          "internalType": "bytes[]",
          "name": "dataValues",
          "type": "bytes[]"
        }
      ],
      "name": "setData",
      "outputs": [],
      "stateMutability": "nonpayable",
      "type": "function"
    },
    {
      "inputs": [
        {
          "internalType": "bytes32",
          "name": "dataKey",
          "type": "bytes32"
        },
        {
          "internalType": "bytes",
          "name": "dataValue",
          "type": "bytes"
        }
      ],
      "name": "setData",
      "outputs": [],
      "stateMutability": "nonpayable",
      "type": "function"
    },
    {
      "inputs": [
        {
          "internalType": "bytes4",
          "name": "interfaceId",
          "type": "bytes4"
        }
      ],
      "name": "supportsInterface",
      "outputs": [
        {
          "internalType": "bool",
          "name": "",
          "type": "bool"
        }
      ],
      "stateMutability": "view",
      "type": "function"
    },
    {
      "inputs": [
        {
          "internalType": "address",
          "name": "tokenOwner",
          "type": "address"
        }
      ],
      "name": "tokenIdsOf",
      "outputs": [
        {
          "internalType": "bytes32[]",
          "name": "",
          "type": "bytes32[]"
        }
      ],
      "stateMutability": "view",
      "type": "function"
    },
    {
      "inputs": [
        {
          "internalType": "bytes32",
          "name": "tokenId",
          "type": "bytes32"
        }
      ],
      "name": "tokenOwnerOf",
      "outputs": [
        {
          "internalType": "address",
          "name": "",
          "type": "address"
        }
      ],
      "stateMutability": "view",
      "type": "function"
    },
    {
      "inputs": [],
      "name": "totalSupply",
      "outputs": [
        {
          "internalType": "uint256",
          "name": "",
          "type": "uint256"
        }
      ],
      "stateMutability": "view",
      "type": "function"
    },
    {
      "inputs": [
        {
          "internalType": "address",
          "name": "from",
          "type": "address"
        },
        {
          "internalType": "address",
          "name": "to",
          "type": "address"
        },
        {
          "internalType": "bytes32",
          "name": "tokenId",
          "type": "bytes32"
        },
        {
          "internalType": "bool",
          "name": "force",
          "type": "bool"
        },
        {
          "internalType": "bytes",
          "name": "data",
          "type": "bytes"
        }
      ],
      "name": "transfer",
      "outputs": [],
      "stateMutability": "nonpayable",
      "type": "function"
    },
    {
      "inputs": [
        {
          "internalType": "address[]",
          "name": "from",
          "type": "address[]"
        },
        {
          "internalType": "address[]",
          "name": "to",
          "type": "address[]"
        },
        {
          "internalType": "bytes32[]",
          "name": "tokenId",
          "type": "bytes32[]"
        },
        {
          "internalType": "bool",
          "name": "force",
          "type": "bool"
        },
        {
          "internalType": "bytes[]",
          "name": "data",
          "type": "bytes[]"
        }
      ],
      "name": "transferBatch",
      "outputs": [],
      "stateMutability": "nonpayable",
      "type": "function"
    },
    {
      "inputs": [
        {
          "internalType": "address",
          "name": "newOwner",
          "type": "address"
        }
      ],
      "name": "transferOwnership",
      "outputs": [],
      "stateMutability": "nonpayable",
      "type": "function"
    }
  ],
  "bytecode": "0x60806040523480156200001157600080fd5b506200001c62000022565b62000152565b6200002e60ff62000031565b50565b60008054610100900460ff1615620000ca578160ff1660011480156200006a575062000068306200014360201b62000a1b1760201c565b155b620000c25760405162461bcd60e51b815260206004820152602e60248201526000805160206200242883398151915260448201526d191e481a5b9a5d1a585b1a5e995960921b60648201526084015b60405180910390fd5b506000919050565b60005460ff808416911610620001295760405162461bcd60e51b815260206004820152602e60248201526000805160206200242883398151915260448201526d191e481a5b9a5d1a585b1a5e995960921b6064820152608401620000b9565b506000805460ff191660ff92909216919091179055600190565b6001600160a01b03163b151590565b6122c680620001626000396000f3fe608060405234801561001057600080fd5b50600436106101775760003560e01c80634e3e6e9c116100d8578063715018a61161008c578063a3b261f211610066578063a3b261f21461031f578063cf5182ba1461033f578063f2fde38b1461035257600080fd5b8063715018a6146102ed5780637f23690c146102f55780638da5cb5b1461030857600080fd5b806354f6127f116100bd57806354f6127f146102a757806355908868146102c757806370a08231146102da57600080fd5b80634e3e6e9c14610274578063511b69521461029457600080fd5b806318160ddd1161012f5780632599f159116101145780632599f159146102315780632a3654a41461024157806349a6078d1461025457600080fd5b806318160ddd146101f4578063217b22701461020657600080fd5b80630b0c6d82116101605780630b0c6d82146101b957806314a6e293146101cc578063158ef93e146101df57600080fd5b806301ffc9a71461017c578063077f224a146101a4575b600080fd5b61018f61018a366004611e10565b610365565b60405190151581526020015b60405180910390f35b6101b76101b2366004611eb1565b6103a9565b005b6101b76101c7366004611c46565b610424565b6101b76101da366004611d56565b6104cc565b60005460405160ff909116815260200161019b565b6002545b60405190815260200161019b565b610219610214366004611dba565b6105a0565b6040516001600160a01b03909116815260200161019b565b600054610100900460ff1661018f565b61018f61024f366004611c46565b6105d9565b610267610262366004611dba565b6105f5565b60405161019b9190611ffd565b610287610282366004611d21565b610617565b60405161019b9190612082565b6101b76102a2366004611bcd565b6106cb565b6102ba6102b5366004611dba565b610733565b60405161019b91906120fd565b6101b76102d5366004611c70565b61073e565b6101f86102e8366004611bb2565b610824565b6101b7610845565b6101b7610303366004611dd3565b610859565b6000546201000090046001600160a01b0316610219565b61033261032d366004611bb2565b61086f565b60405161019b919061204a565b6101b761034d366004611c46565b610893565b6101b7610360366004611bb2565b61098b565b60006001600160e01b031982167f493991450000000000000000000000000000000000000000000000000000000014806103a357506103a382610a2a565b92915050565b60006103b56001610a78565b905080156103cd576000805461ff0019166101001790555b6103d8848484610bb1565b801561041e576000805461ff0019169055604051600181527f7f26b83ff96e1f2b6a682f133852f6798a09c465da95921460cefb38474024989060200160405180910390a15b50505050565b600061042f826105a0565b9050336001600160a01b038216811461047a57604051632d938f5160e11b81526001600160a01b03808416600483015260248201859052821660448201526064015b60405180910390fd5b6001600160a01b0384166104a157604051639577b8b360e01b815260040160405180910390fd5b836001600160a01b0316826001600160a01b031614156104c15750505050565b61041e848385610c27565b6104d4610c86565b805182511461054b5760405162461bcd60e51b815260206004820152602660248201527f4b657973206c656e677468206e6f7420657175616c20746f2076616c7565732060448201527f6c656e67746800000000000000000000000000000000000000000000000000006064820152608401610471565b60005b825181101561059b5761059383828151811061056c5761056c612264565b602002602001015183838151811061058657610586612264565b6020026020010151610ce7565b60010161054e565b505050565b6000818152600360205260408120546001600160a01b0316806103a357604051635747cd1b60e11b815260048101849052602401610471565b60006105e482610da5565b6105ee8383610ddd565b9392505050565b606061060082610da5565b60008281526005602052604090206103a390610e26565b6060815167ffffffffffffffff8111156106335761063361227a565b60405190808252806020026020018201604052801561066657816020015b60608152602001906001900390816106515790505b50905060005b82518110156106c55761069783828151811061068a5761068a612264565b6020026020010151610e33565b8282815181106106a9576106a9612264565b60200260200101819052506106be8160010190565b905061066c565b50919050565b336106d68185610ddd565b61071e576040517f1294d2a9000000000000000000000000000000000000000000000000000000008152600481018590526001600160a01b0382166024820152604401610471565b61072b8686868686610ed5565b505050505050565b60606103a382610e33565b8351855114158061075157508251855114155b8061075e57508051855114155b15610795576040517f93a8311900000000000000000000000000000000000000000000000000000000815260040160405180910390fd5b60005b855181101561072b576108128682815181106107b6576107b6612264565b60200260200101518683815181106107d0576107d0612264565b60200260200101518684815181106107ea576107ea612264565b60200260200101518686868151811061080557610805612264565b60200260200101516106cb565b8061081c8161221d565b915050610798565b6001600160a01b03811660009081526004602052604081206103a390611072565b61084d610c86565b610857600061107c565b565b610861610c86565b61086b8282610ce7565b5050565b6001600160a01b03811660009081526004602052604090206060906103a390611108565b600061089e826105a0565b9050336001600160a01b03821681146108e457604051632d938f5160e11b81526001600160a01b0380841660048301526024820185905282166044820152606401610471565b6001600160a01b03841661090b57604051639577b8b360e01b815260040160405180910390fd5b836001600160a01b0316826001600160a01b0316141561092b5750505050565b60008381526005602052604090206109439085611113565b5082826001600160a01b0316856001600160a01b03167f34b797fc5a526f7bf1d2b5de25f6564fd85ae364e3ee939aee7c1ac27871a98860405160405180910390a450505050565b610993610c86565b6001600160a01b038116610a0f5760405162461bcd60e51b815260206004820152602660248201527f4f776e61626c653a206e6577206f776e657220697320746865207a65726f206160448201527f64647265737300000000000000000000000000000000000000000000000000006064820152608401610471565b610a188161107c565b50565b6001600160a01b03163b151590565b60006001600160e01b031982167f714df77c0000000000000000000000000000000000000000000000000000000014806103a357506301ffc9a760e01b6001600160e01b03198316146103a3565b60008054610100900460ff1615610b15578160ff166001148015610a9b5750303b155b610b0d5760405162461bcd60e51b815260206004820152602e60248201527f496e697469616c697a61626c653a20636f6e747261637420697320616c72656160448201527f647920696e697469616c697a65640000000000000000000000000000000000006064820152608401610471565b506000919050565b60005460ff808416911610610b925760405162461bcd60e51b815260206004820152602e60248201527f496e697469616c697a61626c653a20636f6e747261637420697320616c72656160448201527f647920696e697469616c697a65640000000000000000000000000000000000006064820152608401610471565b506000805460ff191660ff92909216919091179055600190565b919050565b600054610100900460ff16610c1c5760405162461bcd60e51b815260206004820152602b60248201527f496e697469616c697a61626c653a20636f6e7472616374206973206e6f74206960448201526a6e697469616c697a696e6760a81b6064820152608401610471565b61059b838383611128565b6000818152600560205260409020610c3f9084611252565b5080826001600160a01b0316846001600160a01b03167f17d5389f6ab6adb2647dfa0aa365c323d37adacc30b33a65310b6158ce1373d560405160405180910390a4505050565b6000546001600160a01b03620100009091041633146108575760405162461bcd60e51b815260206004820181905260248201527f4f776e61626c653a2063616c6c6572206973206e6f7420746865206f776e65726044820152606401610471565b7fdeba1e292f8ba88238e10ab3c7f88bd4be4fac56cad5194b6ecceaf653468af1821415610d41576040517f85c169bd00000000000000000000000000000000000000000000000000000000815260040160405180910390fd5b7f2f0a68ab07768e01943a599e73362a0e17a63a72e94dd2e384d2c1d4db932756821415610d9b576040517f76755b3800000000000000000000000000000000000000000000000000000000815260040160405180910390fd5b61086b8282611267565b6000818152600360205260409020546001600160a01b0316610a1857604051635747cd1b60e11b815260048101829052602401610471565b600080610de9836105a0565b9050806001600160a01b0316846001600160a01b03161480610e1e57506000838152600560205260409020610e1e90856112b6565b949350505050565b606060006105ee836112d8565b6000818152600160205260409020805460609190610e50906121e8565b80601f0160208091040260200160405190810160405280929190818152602001828054610e7c906121e8565b8015610ec95780601f10610e9e57610100808354040283529160200191610ec9565b820191906000526020600020905b815481529060010190602001808311610eac57829003601f168201915b50505050509050919050565b6000610ee0846105a0565b9050856001600160a01b0316816001600160a01b031614610f2e57604051632d938f5160e11b81526001600160a01b0380831660048301526024820186905287166044820152606401610471565b6001600160a01b038516610f6e576040517f24ecef4d00000000000000000000000000000000000000000000000000000000815260040160405180910390fd5b33610f7a878787611333565b610f848786611385565b6001600160a01b0387166000908152600460205260409020610fa690866113dd565b506001600160a01b0386166000908152600460205260409020610fc990866113e9565b506000858152600360205260409081902080547fffffffffffffffffffffffff0000000000000000000000000000000000000000166001600160a01b0389811691821790925591518792918a16907fb333c813a7426a7a11e2b190cad52c44119421594b47f6f32ace6d8c7207b2bf906110489086908a908a90611fd3565b60405180910390a461105c878787866113f5565b61106987878787876114d8565b50505050505050565b60006103a3825490565b6000546001600160a01b03828116620100009092041614610a1857600080546001600160a01b03838116620100008181027fffffffffffffffffffff0000000000000000000000000000000000000000ffff851617855560405193049190911692909183917f8be0079c531659141344cd1fd0a4f28419497f9722a3daafe3b4186f6b6457e091a35050565b60606103a3826112d8565b60006105ee836001600160a01b038416611651565b600054610100900460ff166111935760405162461bcd60e51b815260206004820152602b60248201527f496e697469616c697a61626c653a20636f6e7472616374206973206e6f74206960448201526a6e697469616c697a696e6760a81b6064820152608401610471565b61119c816116a0565b6111fe7feafec4d89fa9619884b60000a4d96624a38f7ac2d8d9a604ecf07c12c77e480c60001b6040518060400160405280600481526020017fa4d9662400000000000000000000000000000000000000000000000000000000815250611267565b6112287fdeba1e292f8ba88238e10ab3c7f88bd4be4fac56cad5194b6ecceaf653468af184611267565b61059b7f2f0a68ab07768e01943a599e73362a0e17a63a72e94dd2e384d2c1d4db93275683611267565b60006105ee836001600160a01b03841661170b565b6000828152600160209081526040909120825161128692840190611936565b5060405182907fcdf4e344c0d23d4cdd0474039d176c55b19d531070dbe17856bfb993a5b5720b90600090a25050565b6001600160a01b038116600090815260018301602052604081205415156105ee565b606081600001805480602002602001604051908101604052809291908181526020018280548015610ec957602002820191906000526020600020905b8154815260200190600101908083116113145750505050509050919050565b6001600160a01b03831661135a57600160026000828254611354919061218d565b90915550505b6001600160a01b03821661059b5760016002600082825461137b91906121a5565b9091555050505050565b60008181526005602052604081209061139d82611072565b905060005b818110156113d65760006113b684826117fe565b90506113c3818787610c27565b50806113ce8161221d565b9150506113a2565b5050505050565b60006105ee838361170b565b60006105ee8383611651565b61140684631aed5a8560e21b61180a565b1561041e576000848484846040516020016114249493929190611f6a565b60408051601f1981840301815290829052631aed5a8560e21b825291506001600160a01b03861690636bb56a1490611482907f3724c94f0815e936299cca424da4140752198e0beb7931a6e0925d11bc97544c9085906004016120e4565b600060405180830381600087803b15801561149c57600080fd5b505af11580156114b0573d6000803e3d6000fd5b505050506040513d6000823e601f3d908101601f1916820160405261072b9190810190611e3a565b6114e984631aed5a8560e21b61180a565b156115c2576000858585846040516020016115079493929190611f6a565b60408051601f1981840301815290829052631aed5a8560e21b825291506001600160a01b03861690636bb56a1490611565907fc7a120a42b6057a0cbed111fbbfbd52fcd96748c04394f77fc2c3adbe0391e019085906004016120e4565b600060405180830381600087803b15801561157f57600080fd5b505af1158015611593573d6000803e3d6000fd5b505050506040513d6000823e601f3d908101601f191682016040526115bb9190810190611e3a565b50506113d6565b816113d6576001600160a01b0384163b15611614576040517f4349776d0000000000000000000000000000000000000000000000000000000081526001600160a01b0385166004820152602401610471565b6040517f031731370000000000000000000000000000000000000000000000000000000081526001600160a01b0385166004820152602401610471565b6000818152600183016020526040812054611698575081546001818101845560008481526020808220909301849055845484825282860190935260409020919091556103a3565b5060006103a3565b600054610100900460ff16610a0f5760405162461bcd60e51b815260206004820152602b60248201527f496e697469616c697a61626c653a20636f6e7472616374206973206e6f74206960448201526a6e697469616c697a696e6760a81b6064820152608401610471565b600081815260018301602052604081205480156117f457600061172f6001836121a5565b8554909150600090611743906001906121a5565b90508181146117a857600086600001828154811061176357611763612264565b906000526020600020015490508087600001848154811061178657611786612264565b6000918252602080832090910192909255918252600188019052604090208390555b85548690806117b9576117b961224e565b6001900381819060005260206000200160009055905585600101600086815260200190815260200160002060009055600193505050506103a3565b60009150506103a3565b60006105ee838361190c565b604080516001600160e01b0319831660248083019190915282518083039091018152604490910182526020810180517bffffffffffffffffffffffffffffffffffffffffffffffffffffffff166301ffc9a760e01b179052905160009190829081906001600160a01b0387169061753090611886908690611fb7565b6000604051808303818686fa925050503d80600081146118c2576040519150601f19603f3d011682016040523d82523d6000602084013e6118c7565b606091505b50915091506020815110156118e257600093505050506103a3565b81801561190257506000818060200190518101906119009190611f25565b115b9695505050505050565b600082600001828154811061192357611923612264565b9060005260206000200154905092915050565b828054611942906121e8565b90600052602060002090601f01602090048101928261196457600085556119aa565b82601f1061197d57805160ff19168380011785556119aa565b828001600101855582156119aa579182015b828111156119aa57825182559160200191906001019061198f565b506119b69291506119ba565b5090565b5b808211156119b657600081556001016119bb565b80356001600160a01b0381168114610bac57600080fd5b600082601f8301126119f757600080fd5b81356020611a0c611a0783612141565b612110565b80838252828201915082860187848660051b8901011115611a2c57600080fd5b60005b85811015611a5257611a40826119cf565b84529284019290840190600101611a2f565b5090979650505050505050565b600082601f830112611a7057600080fd5b81356020611a80611a0783612141565b80838252828201915082860187848660051b8901011115611aa057600080fd5b60005b85811015611a5257813584529284019290840190600101611aa3565b600082601f830112611ad057600080fd5b81356020611ae0611a0783612141565b80838252828201915082860187848660051b8901011115611b0057600080fd5b6000805b86811015611b4357823567ffffffffffffffff811115611b22578283fd5b611b308b88838d0101611b61565b8652509385019391850191600101611b04565b509198975050505050505050565b80358015158114610bac57600080fd5b600082601f830112611b7257600080fd5b8135611b80611a0782612165565b818152846020838601011115611b9557600080fd5b816020850160208301376000918101602001919091529392505050565b600060208284031215611bc457600080fd5b6105ee826119cf565b600080600080600060a08688031215611be557600080fd5b611bee866119cf565b9450611bfc602087016119cf565b935060408601359250611c1160608701611b51565b9150608086013567ffffffffffffffff811115611c2d57600080fd5b611c3988828901611b61565b9150509295509295909350565b60008060408385031215611c5957600080fd5b611c62836119cf565b946020939093013593505050565b600080600080600060a08688031215611c8857600080fd5b853567ffffffffffffffff80821115611ca057600080fd5b611cac89838a016119e6565b96506020880135915080821115611cc257600080fd5b611cce89838a016119e6565b95506040880135915080821115611ce457600080fd5b611cf089838a01611a5f565b9450611cfe60608901611b51565b93506080880135915080821115611d1457600080fd5b50611c3988828901611abf565b600060208284031215611d3357600080fd5b813567ffffffffffffffff811115611d4a57600080fd5b610e1e84828501611a5f565b60008060408385031215611d6957600080fd5b823567ffffffffffffffff80821115611d8157600080fd5b611d8d86838701611a5f565b93506020850135915080821115611da357600080fd5b50611db085828601611abf565b9150509250929050565b600060208284031215611dcc57600080fd5b5035919050565b60008060408385031215611de657600080fd5b82359150602083013567ffffffffffffffff811115611e0457600080fd5b611db085828601611b61565b600060208284031215611e2257600080fd5b81356001600160e01b0319811681146105ee57600080fd5b600060208284031215611e4c57600080fd5b815167ffffffffffffffff811115611e6357600080fd5b8201601f81018413611e7457600080fd5b8051611e82611a0782612165565b818152856020838501011115611e9757600080fd5b611ea88260208301602086016121bc565b95945050505050565b600080600060608486031215611ec657600080fd5b833567ffffffffffffffff80821115611ede57600080fd5b611eea87838801611b61565b94506020860135915080821115611f0057600080fd5b50611f0d86828701611b61565b925050611f1c604085016119cf565b90509250925092565b600060208284031215611f3757600080fd5b5051919050565b60008151808452611f568160208601602086016121bc565b601f01601f19169290920160200192915050565b60006bffffffffffffffffffffffff19808760601b168352808660601b166014840152508360288301528251611fa78160488501602087016121bc565b9190910160480195945050505050565b60008251611fc98184602087016121bc565b9190910192915050565b6001600160a01b03841681528215156020820152606060408201526000611ea86060830184611f3e565b6020808252825182820181905260009190848201906040850190845b8181101561203e5783516001600160a01b031683529284019291840191600101612019565b50909695505050505050565b6020808252825182820181905260009190848201906040850190845b8181101561203e57835183529284019291840191600101612066565b6000602080830181845280855180835260408601915060408160051b870101925083870160005b828110156120d757603f198886030184526120c5858351611f3e565b945092850192908501906001016120a9565b5092979650505050505050565b828152604060208201526000610e1e6040830184611f3e565b6020815260006105ee6020830184611f3e565b604051601f8201601f1916810167ffffffffffffffff811182821017156121395761213961227a565b604052919050565b600067ffffffffffffffff82111561215b5761215b61227a565b5060051b60200190565b600067ffffffffffffffff82111561217f5761217f61227a565b50601f01601f191660200190565b600082198211156121a0576121a0612238565b500190565b6000828210156121b7576121b7612238565b500390565b60005b838110156121d75781810151838201526020016121bf565b8381111561041e5750506000910152565b600181811c908216806121fc57607f821691505b602082108114156106c557634e487b7160e01b600052602260045260246000fd5b600060001982141561223157612231612238565b5060010190565b634e487b7160e01b600052601160045260246000fd5b634e487b7160e01b600052603160045260246000fd5b634e487b7160e01b600052603260045260246000fd5b634e487b7160e01b600052604160045260246000fdfea26469706673582212203731344a1141cfc7ab305af0463a8f5f10985fc452e51b621ad1f8a8713dab1e64736f6c63430008070033496e697469616c697a61626c653a20636f6e747261637420697320616c726561",
  "linkReferences": {},
  "deployedLinkReferences": {}
}