{
  "_format": "hh-sol-artifact-1",
  "contractName": "AddressRegistryRequiresERC725",
  "sourceName": "contracts/Legacy/Registries/AddressRegistryRequiresERC725.sol",
  "abi": [
    {
      "inputs": [
        {
          "internalType": "address",
          "name": "_address",
          "type": "address"
        }
      ],
      "name": "addAddress",
      "outputs": [
        {
          "internalType": "bool",
          "name": "",
          "type": "bool"
        }
      ],
      "stateMutability": "nonpayable",
      "type": "function"
    },
    {
      "inputs": [
        {
          "internalType": "address",
          "name": "_address",
          "type": "address"
        }
      ],
      "name": "containsAddress",
      "outputs": [
        {
          "internalType": "bool",
          "name": "",
          "type": "bool"
        }
      ],
      "stateMutability": "view",
      "type": "function"
    },
    {
      "inputs": [
        {
          "internalType": "uint256",
          "name": "_index",
          "type": "uint256"
        }
      ],
      "name": "getAddress",
      "outputs": [
        {
          "internalType": "address",
          "name": "",
          "type": "address"
        }
      ],
      "stateMutability": "view",
      "type": "function"
    },
    {
      "inputs": [],
      "name": "getAllRawValues",
      "outputs": [
        {
          "internalType": "bytes32[]",
          "name": "",
          "type": "bytes32[]"
        }
      ],
      "stateMutability": "view",
      "type": "function"
    },
    {
      "inputs": [
        {
          "internalType": "address",
          "name": "_address",
          "type": "address"
        }
      ],
      "name": "getIndex",
      "outputs": [
        {
          "internalType": "uint256",
          "name": "",
          "type": "uint256"
        }
      ],
      "stateMutability": "view",
      "type": "function"
    },
    {
      "inputs": [],
      "name": "length",
      "outputs": [
        {
          "internalType": "uint256",
          "name": "",
          "type": "uint256"
        }
      ],
      "stateMutability": "view",
      "type": "function"
    },
    {
      "inputs": [
        {
          "internalType": "address",
          "name": "_address",
          "type": "address"
        }
      ],
      "name": "removeAddress",
      "outputs": [
        {
          "internalType": "bool",
          "name": "",
          "type": "bool"
        }
      ],
      "stateMutability": "nonpayable",
      "type": "function"
    },
    {
      "inputs": [
        {
          "internalType": "bytes4",
          "name": "interfaceId",
          "type": "bytes4"
        }
      ],
      "name": "supportsInterface",
      "outputs": [
        {
          "internalType": "bool",
          "name": "",
          "type": "bool"
        }
      ],
      "stateMutability": "view",
      "type": "function"
    }
  ],
  "bytecode": "0x608060405234801561001057600080fd5b5061087f806100206000396000f3fe608060405234801561001057600080fd5b50600436106100885760003560e01c80634ba79dfe1161005b5780634ba79dfe146100f1578063b31610db14610104578063b93f9b0a14610117578063c0a4ebf41461014257600080fd5b806301ffc9a71461008d5780631f7b6d32146100b5578063322433e3146100cb57806338eada1c146100de575b600080fd5b6100a061009b366004610759565b610157565b60405190151581526020015b60405180910390f35b6100bd6101c7565b6040519081526020016100ac565b6100a06100d936600461070e565b6101d8565b6100a06100ec36600461070e565b6101e5565b6100a06100ff36600461070e565b6102e8565b6100bd61011236600461070e565b61045b565b61012a61012536600461079b565b6104d9565b6040516001600160a01b0390911681526020016100ac565b61014a6104e6565b6040516100ac91906107b4565b60006301ffc9a760e01b7fffffffff00000000000000000000000000000000000000000000000000000000831614806101c157507fffffffff00000000000000000000000000000000000000000000000000000000821660009081526020819052604090205460ff165b92915050565b60006101d3600161053d565b905090565b60006101c1600183610547565b6040516301ffc9a760e01b8152631c537ddf60e21b60048201526000906001600160a01b038316906301ffc9a79060240160206040518083038186803b15801561022e57600080fd5b505afa158015610242573d6000803e3d6000fd5b505050506040513d601f19601f820116820180604052508101906102669190610737565b6102dd5760405162461bcd60e51b815260206004820152602360248201527f4f6e6c792045524337323559206164647265737365732063616e20626520616460448201527f646564000000000000000000000000000000000000000000000000000000000060648201526084015b60405180910390fd5b6101c160018361056c565b6040516301ffc9a760e01b8152631c537ddf60e21b600482015260009033906301ffc9a79060240160206040518083038186803b15801561032857600080fd5b505afa15801561033c573d6000803e3d6000fd5b505050506040513d601f19601f820116820180604052508101906103609190610737565b6103d25760405162461bcd60e51b815260206004820152602360248201527f4f6e6c7920455243373235592063616e2063616c6c20746869732066756e637460448201527f696f6e000000000000000000000000000000000000000000000000000000000060648201526084016102d4565b336001600160a01b038316146104505760405162461bcd60e51b815260206004820152602260248201527f4f6e6c7920616e20616464726573732063616e2072656d6f766520697473656c60448201527f662e00000000000000000000000000000000000000000000000000000000000060648201526084016102d4565b6101c1600183610581565b6000610468600183610547565b6104b45760405162461bcd60e51b815260206004820152601e60248201527f456e756d657261626c655365743a20496e646578206e6f7420666f756e64000060448201526064016102d4565b6001600160a01b0382166000908152600260205260409020546101c1906001906107f8565b60006101c1600183610596565b60018054604080516020808402820181019092528281526060939092909183018282801561053357602002820191906000526020600020905b81548152602001906001019080831161051f575b5050505050905090565b60006101c1825490565b6001600160a01b038116600090815260018301602052604081205415155b9392505050565b6000610565836001600160a01b0384166105a2565b6000610565836001600160a01b0384166105f1565b600061056583836106e4565b60008181526001830160205260408120546105e9575081546001818101845560008481526020808220909301849055845484825282860190935260409020919091556101c1565b5060006101c1565b600081815260018301602052604081205480156106da5760006106156001836107f8565b8554909150600090610629906001906107f8565b905081811461068e57600086600001828154811061064957610649610833565b906000526020600020015490508087600001848154811061066c5761066c610833565b6000918252602080832090910192909255918252600188019052604090208390555b855486908061069f5761069f61081d565b6001900381819060005260206000200160009055905585600101600086815260200190815260200160002060009055600193505050506101c1565b60009150506101c1565b60008260000182815481106106fb576106fb610833565b9060005260206000200154905092915050565b60006020828403121561072057600080fd5b81356001600160a01b038116811461056557600080fd5b60006020828403121561074957600080fd5b8151801515811461056557600080fd5b60006020828403121561076b57600080fd5b81357fffffffff000000000000000000000000000000000000000000000000000000008116811461056557600080fd5b6000602082840312156107ad57600080fd5b5035919050565b6020808252825182820181905260009190848201906040850190845b818110156107ec578351835292840192918401916001016107d0565b50909695505050505050565b60008282101561081857634e487b7160e01b600052601160045260246000fd5b500390565b634e487b7160e01b600052603160045260246000fd5b634e487b7160e01b600052603260045260246000fdfea264697066735822122030837b34269cbb261cac18fe294f5955c23b5df2347b78b4d097b791e60095e564736f6c63430008070033",
  "linkReferences": {},
  "deployedLinkReferences": {}
}