{
  "_format": "hh-sol-artifact-1",
  "contractName": "LSP8EnumerableInitTester",
  "sourceName": "contracts/Helpers/Tokens/LSP8EnumerableInitTester.sol",
  "abi": [
    {
      "inputs": [],
      "name": "LSP4TokenNameNotEditable",
      "type": "error"
    },
    {
      "inputs": [],
      "name": "LSP4TokenSymbolNotEditable",
      "type": "error"
    },
    {
      "inputs": [],
      "name": "LSP8CannotSendToAddressZero",
      "type": "error"
    },
    {
      "inputs": [],
      "name": "LSP8CannotUseAddressZeroAsOperator",
      "type": "error"
    },
    {
      "inputs": [],
      "name": "LSP8InvalidTransferBatch",
      "type": "error"
    },
    {
      "inputs": [
        {
          "internalType": "bytes32",
          "name": "tokenId",
          "type": "bytes32"
        }
      ],
      "name": "LSP8NonExistentTokenId",
      "type": "error"
    },
    {
      "inputs": [
        {
          "internalType": "bytes32",
          "name": "tokenId",
          "type": "bytes32"
        },
        {
          "internalType": "address",
          "name": "caller",
          "type": "address"
        }
      ],
      "name": "LSP8NotTokenOperator",
      "type": "error"
    },
    {
      "inputs": [
        {
          "internalType": "address",
          "name": "tokenOwner",
          "type": "address"
        },
        {
          "internalType": "bytes32",
          "name": "tokenId",
          "type": "bytes32"
        },
        {
          "internalType": "address",
          "name": "caller",
          "type": "address"
        }
      ],
      "name": "LSP8NotTokenOwner",
      "type": "error"
    },
    {
      "inputs": [
        {
          "internalType": "address",
          "name": "tokenReceiver",
          "type": "address"
        }
      ],
      "name": "LSP8NotifyTokenReceiverContractMissingLSP1Interface",
      "type": "error"
    },
    {
      "inputs": [
        {
          "internalType": "address",
          "name": "tokenReceiver",
          "type": "address"
        }
      ],
      "name": "LSP8NotifyTokenReceiverIsEOA",
      "type": "error"
    },
    {
      "inputs": [
        {
          "internalType": "bytes32",
          "name": "tokenId",
          "type": "bytes32"
        }
      ],
      "name": "LSP8TokenIdAlreadyMinted",
      "type": "error"
    },
    {
      "anonymous": false,
      "inputs": [
        {
          "indexed": true,
          "internalType": "address",
          "name": "operator",
          "type": "address"
        },
        {
          "indexed": true,
          "internalType": "address",
          "name": "tokenOwner",
          "type": "address"
        },
        {
          "indexed": true,
          "internalType": "bytes32",
          "name": "tokenId",
          "type": "bytes32"
        }
      ],
      "name": "AuthorizedOperator",
      "type": "event"
    },
    {
      "anonymous": false,
      "inputs": [
        {
          "indexed": true,
          "internalType": "bytes32",
          "name": "dataKey",
          "type": "bytes32"
        }
      ],
      "name": "DataChanged",
      "type": "event"
    },
    {
      "anonymous": false,
      "inputs": [
        {
          "indexed": false,
          "internalType": "uint8",
          "name": "version",
          "type": "uint8"
        }
      ],
      "name": "Initialized",
      "type": "event"
    },
    {
      "anonymous": false,
      "inputs": [
        {
          "indexed": true,
          "internalType": "address",
          "name": "previousOwner",
          "type": "address"
        },
        {
          "indexed": true,
          "internalType": "address",
          "name": "newOwner",
          "type": "address"
        }
      ],
      "name": "OwnershipTransferred",
      "type": "event"
    },
    {
      "anonymous": false,
      "inputs": [
        {
          "indexed": true,
          "internalType": "address",
          "name": "operator",
          "type": "address"
        },
        {
          "indexed": true,
          "internalType": "address",
          "name": "tokenOwner",
          "type": "address"
        },
        {
          "indexed": true,
          "internalType": "bytes32",
          "name": "tokenId",
          "type": "bytes32"
        }
      ],
      "name": "RevokedOperator",
      "type": "event"
    },
    {
      "anonymous": false,
      "inputs": [
        {
          "indexed": false,
          "internalType": "address",
          "name": "operator",
          "type": "address"
        },
        {
          "indexed": true,
          "internalType": "address",
          "name": "from",
          "type": "address"
        },
        {
          "indexed": true,
          "internalType": "address",
          "name": "to",
          "type": "address"
        },
        {
          "indexed": true,
          "internalType": "bytes32",
          "name": "tokenId",
          "type": "bytes32"
        },
        {
          "indexed": false,
          "internalType": "bool",
          "name": "force",
          "type": "bool"
        },
        {
          "indexed": false,
          "internalType": "bytes",
          "name": "data",
          "type": "bytes"
        }
      ],
      "name": "Transfer",
      "type": "event"
    },
    {
      "inputs": [
        {
          "internalType": "address",
          "name": "operator",
          "type": "address"
        },
        {
          "internalType": "bytes32",
          "name": "tokenId",
          "type": "bytes32"
        }
      ],
      "name": "authorizeOperator",
      "outputs": [],
      "stateMutability": "nonpayable",
      "type": "function"
    },
    {
      "inputs": [
        {
          "internalType": "address",
          "name": "tokenOwner",
          "type": "address"
        }
      ],
      "name": "balanceOf",
      "outputs": [
        {
          "internalType": "uint256",
          "name": "",
          "type": "uint256"
        }
      ],
      "stateMutability": "view",
      "type": "function"
    },
    {
      "inputs": [
        {
          "internalType": "bytes32",
          "name": "tokenId",
          "type": "bytes32"
        }
      ],
      "name": "burn",
      "outputs": [],
      "stateMutability": "nonpayable",
      "type": "function"
    },
    {
      "inputs": [
        {
          "internalType": "bytes32[]",
          "name": "dataKeys",
          "type": "bytes32[]"
        }
      ],
      "name": "getData",
      "outputs": [
        {
          "internalType": "bytes[]",
          "name": "dataValues",
          "type": "bytes[]"
        }
      ],
      "stateMutability": "view",
      "type": "function"
    },
    {
      "inputs": [
        {
          "internalType": "bytes32",
          "name": "dataKey",
          "type": "bytes32"
        }
      ],
      "name": "getData",
      "outputs": [
        {
          "internalType": "bytes",
          "name": "dataValue",
          "type": "bytes"
        }
      ],
      "stateMutability": "view",
      "type": "function"
    },
    {
      "inputs": [
        {
          "internalType": "bytes32",
          "name": "tokenId",
          "type": "bytes32"
        }
      ],
      "name": "getOperatorsOf",
      "outputs": [
        {
          "internalType": "address[]",
          "name": "",
          "type": "address[]"
        }
      ],
      "stateMutability": "view",
      "type": "function"
    },
    {
      "inputs": [
        {
          "internalType": "string",
          "name": "name",
          "type": "string"
        },
        {
          "internalType": "string",
          "name": "symbol",
          "type": "string"
        },
        {
          "internalType": "address",
          "name": "newOwner",
          "type": "address"
        }
      ],
      "name": "initialize",
      "outputs": [],
      "stateMutability": "nonpayable",
      "type": "function"
    },
    {
      "inputs": [],
      "name": "initialized",
      "outputs": [
        {
          "internalType": "uint8",
          "name": "",
          "type": "uint8"
        }
      ],
      "stateMutability": "view",
      "type": "function"
    },
    {
      "inputs": [],
      "name": "initializing",
      "outputs": [
        {
          "internalType": "bool",
          "name": "",
          "type": "bool"
        }
      ],
      "stateMutability": "view",
      "type": "function"
    },
    {
      "inputs": [
        {
          "internalType": "address",
          "name": "operator",
          "type": "address"
        },
        {
          "internalType": "bytes32",
          "name": "tokenId",
          "type": "bytes32"
        }
      ],
      "name": "isOperatorFor",
      "outputs": [
        {
          "internalType": "bool",
          "name": "",
          "type": "bool"
        }
      ],
      "stateMutability": "view",
      "type": "function"
    },
    {
      "inputs": [
        {
          "internalType": "address",
          "name": "to",
          "type": "address"
        },
        {
          "internalType": "bytes32",
          "name": "tokenId",
          "type": "bytes32"
        }
      ],
      "name": "mint",
      "outputs": [],
      "stateMutability": "nonpayable",
      "type": "function"
    },
    {
      "inputs": [],
      "name": "owner",
      "outputs": [
        {
          "internalType": "address",
          "name": "",
          "type": "address"
        }
      ],
      "stateMutability": "view",
      "type": "function"
    },
    {
      "inputs": [],
      "name": "renounceOwnership",
      "outputs": [],
      "stateMutability": "nonpayable",
      "type": "function"
    },
    {
      "inputs": [
        {
          "internalType": "address",
          "name": "operator",
          "type": "address"
        },
        {
          "internalType": "bytes32",
          "name": "tokenId",
          "type": "bytes32"
        }
      ],
      "name": "revokeOperator",
      "outputs": [],
      "stateMutability": "nonpayable",
      "type": "function"
    },
    {
      "inputs": [
        {
          "internalType": "bytes32[]",
          "name": "dataKeys",
          "type": "bytes32[]"
        },
        {
          "internalType": "bytes[]",
          "name": "dataValues",
          "type": "bytes[]"
        }
      ],
      "name": "setData",
      "outputs": [],
      "stateMutability": "nonpayable",
      "type": "function"
    },
    {
      "inputs": [
        {
          "internalType": "bytes32",
          "name": "dataKey",
          "type": "bytes32"
        },
        {
          "internalType": "bytes",
          "name": "dataValue",
          "type": "bytes"
        }
      ],
      "name": "setData",
      "outputs": [],
      "stateMutability": "nonpayable",
      "type": "function"
    },
    {
      "inputs": [
        {
          "internalType": "bytes4",
          "name": "interfaceId",
          "type": "bytes4"
        }
      ],
      "name": "supportsInterface",
      "outputs": [
        {
          "internalType": "bool",
          "name": "",
          "type": "bool"
        }
      ],
      "stateMutability": "view",
      "type": "function"
    },
    {
      "inputs": [
        {
          "internalType": "uint256",
          "name": "index",
          "type": "uint256"
        }
      ],
      "name": "tokenAt",
      "outputs": [
        {
          "internalType": "bytes32",
          "name": "",
          "type": "bytes32"
        }
      ],
      "stateMutability": "view",
      "type": "function"
    },
    {
      "inputs": [
        {
          "internalType": "address",
          "name": "tokenOwner",
          "type": "address"
        }
      ],
      "name": "tokenIdsOf",
      "outputs": [
        {
          "internalType": "bytes32[]",
          "name": "",
          "type": "bytes32[]"
        }
      ],
      "stateMutability": "view",
      "type": "function"
    },
    {
      "inputs": [
        {
          "internalType": "bytes32",
          "name": "tokenId",
          "type": "bytes32"
        }
      ],
      "name": "tokenOwnerOf",
      "outputs": [
        {
          "internalType": "address",
          "name": "",
          "type": "address"
        }
      ],
      "stateMutability": "view",
      "type": "function"
    },
    {
      "inputs": [],
      "name": "totalSupply",
      "outputs": [
        {
          "internalType": "uint256",
          "name": "",
          "type": "uint256"
        }
      ],
      "stateMutability": "view",
      "type": "function"
    },
    {
      "inputs": [
        {
          "internalType": "address",
          "name": "from",
          "type": "address"
        },
        {
          "internalType": "address",
          "name": "to",
          "type": "address"
        },
        {
          "internalType": "bytes32",
          "name": "tokenId",
          "type": "bytes32"
        },
        {
          "internalType": "bool",
          "name": "force",
          "type": "bool"
        },
        {
          "internalType": "bytes",
          "name": "data",
          "type": "bytes"
        }
      ],
      "name": "transfer",
      "outputs": [],
      "stateMutability": "nonpayable",
      "type": "function"
    },
    {
      "inputs": [
        {
          "internalType": "address[]",
          "name": "from",
          "type": "address[]"
        },
        {
          "internalType": "address[]",
          "name": "to",
          "type": "address[]"
        },
        {
          "internalType": "bytes32[]",
          "name": "tokenId",
          "type": "bytes32[]"
        },
        {
          "internalType": "bool",
          "name": "force",
          "type": "bool"
        },
        {
          "internalType": "bytes[]",
          "name": "data",
          "type": "bytes[]"
        }
      ],
      "name": "transferBatch",
      "outputs": [],
      "stateMutability": "nonpayable",
      "type": "function"
    },
    {
      "inputs": [
        {
          "internalType": "address",
          "name": "newOwner",
          "type": "address"
        }
      ],
      "name": "transferOwnership",
      "outputs": [],
      "stateMutability": "nonpayable",
      "type": "function"
    }
  ],
  "bytecode": "0x608060405234801561001057600080fd5b5061263b806100206000396000f3fe608060405234801561001057600080fd5b50600436106101985760003560e01c80634e3e6e9c116100e35780637f23690c1161008c578063a3b261f211610066578063a3b261f214610386578063cf5182ba146103a6578063f2fde38b146103b957600080fd5b80637f23690c1461033c5780638da5cb5b1461034f57806392a91a3a1461036657600080fd5b806355908868116100bd578063559088681461030e57806370a0823114610321578063715018a61461033457600080fd5b80634e3e6e9c146102bb578063511b6952146102db57806354f6127f146102ee57600080fd5b806318160ddd116101455780632a3654a41161011f5780632a3654a4146102755780632cfd30051461028857806349a6078d1461029b57600080fd5b806318160ddd14610228578063217b22701461023a5780632599f1591461026557600080fd5b80630b0c6d82116101765780630b0c6d82146101ed57806314a6e29314610200578063158ef93e1461021357600080fd5b806301ffc9a71461019d578063077f224a146101c557806308a1eee1146101da575b600080fd5b6101b06101ab366004612185565b6103cc565b60405190151581526020015b60405180910390f35b6101d86101d3366004612226565b610410565b005b6101d86101e836600461212f565b61048b565b6101d86101fb366004611fbb565b6104cd565b6101d861020e3660046120cb565b610575565b60005460405160ff90911681526020016101bc565b6002545b6040519081526020016101bc565b61024d61024836600461212f565b610649565b6040516001600160a01b0390911681526020016101bc565b600054610100900460ff166101b0565b6101b0610283366004611fbb565b610682565b6101d8610296366004611fbb565b61069e565b6102ae6102a936600461212f565b6106e4565b6040516101bc9190612372565b6102ce6102c9366004612096565b610706565b6040516101bc91906123f7565b6101d86102e9366004611f42565b6107ba565b6103016102fc36600461212f565b610822565b6040516101bc9190612472565b6101d861031c366004611fe5565b61082d565b61022c61032f366004611f27565b610913565b6101d8610934565b6101d861034a366004612148565b610948565b6000546201000090046001600160a01b031661024d565b61022c61037436600461212f565b60009081526006602052604090205490565b610399610394366004611f27565b61095a565b6040516101bc91906123bf565b6101d86103b4366004611fbb565b61097e565b6101d86103c7366004611f27565b610a76565b60006001600160e01b031982167f4939914500000000000000000000000000000000000000000000000000000000148061040a575061040a82610b03565b92915050565b600061041c6001610b51565b90508015610434576000805461ff0019166101001790555b61043f848484610c8a565b8015610485576000805461ff0019169055604051600181527f7f26b83ff96e1f2b6a682f133852f6798a09c465da95921460cefb38474024989060200160405180910390a15b50505050565b6104ca816040518060400160405280600d81526020017f6665656c20746865206275726e00000000000000000000000000000000000000815250610d00565b50565b60006104d882610649565b9050336001600160a01b038216811461052357604051632d938f5160e11b81526001600160a01b03808416600483015260248201859052821660448201526064015b60405180910390fd5b6001600160a01b03841661054a57604051639577b8b360e01b815260040160405180910390fd5b836001600160a01b0316826001600160a01b0316141561056a5750505050565b610485848385610dc6565b61057d610e25565b80518251146105f45760405162461bcd60e51b815260206004820152602660248201527f4b657973206c656e677468206e6f7420657175616c20746f2076616c7565732060448201527f6c656e6774680000000000000000000000000000000000000000000000000000606482015260840161051a565b60005b82518110156106445761063c838281518110610615576106156125d9565b602002602001015183838151811061062f5761062f6125d9565b6020026020010151610e86565b6001016105f7565b505050565b6000818152600360205260408120546001600160a01b03168061040a57604051635747cd1b60e11b81526004810184905260240161051a565b600061068d82610f44565b6106978383610f7c565b9392505050565b6106e0828260016040518060400160405280601581526020017f746f6b656e207072696e74657220676f20627272720000000000000000000000815250610fc5565b5050565b60606106ef82610f44565b600082815260056020526040902061040a906110f9565b6060815167ffffffffffffffff811115610722576107226125ef565b60405190808252806020026020018201604052801561075557816020015b60608152602001906001900390816107405790505b50905060005b82518110156107b457610786838281518110610779576107796125d9565b6020026020010151611106565b828281518110610798576107986125d9565b60200260200101819052506107ad8160010190565b905061075b565b50919050565b336107c58185610f7c565b61080d576040517f1294d2a9000000000000000000000000000000000000000000000000000000008152600481018590526001600160a01b038216602482015260440161051a565b61081a86868686866111a8565b505050505050565b606061040a82611106565b8351855114158061084057508251855114155b8061084d57508051855114155b15610884576040517f93a8311900000000000000000000000000000000000000000000000000000000815260040160405180910390fd5b60005b855181101561081a576109018682815181106108a5576108a56125d9565b60200260200101518683815181106108bf576108bf6125d9565b60200260200101518684815181106108d9576108d96125d9565b6020026020010151868686815181106108f4576108f46125d9565b60200260200101516107ba565b8061090b81612592565b915050610887565b6001600160a01b038116600090815260046020526040812061040a90611321565b61093c610e25565b610946600061132b565b565b610950610e25565b6106e08282610e86565b6001600160a01b038116600090815260046020526040902060609061040a906113b7565b600061098982610649565b9050336001600160a01b03821681146109cf57604051632d938f5160e11b81526001600160a01b038084166004830152602482018590528216604482015260640161051a565b6001600160a01b0384166109f657604051639577b8b360e01b815260040160405180910390fd5b836001600160a01b0316826001600160a01b03161415610a165750505050565b6000838152600560205260409020610a2e90856113c2565b5082826001600160a01b0316856001600160a01b03167f34b797fc5a526f7bf1d2b5de25f6564fd85ae364e3ee939aee7c1ac27871a98860405160405180910390a450505050565b610a7e610e25565b6001600160a01b038116610afa5760405162461bcd60e51b815260206004820152602660248201527f4f776e61626c653a206e6577206f776e657220697320746865207a65726f206160448201527f6464726573730000000000000000000000000000000000000000000000000000606482015260840161051a565b6104ca8161132b565b60006001600160e01b031982167f714df77c00000000000000000000000000000000000000000000000000000000148061040a57506301ffc9a760e01b6001600160e01b031983161461040a565b60008054610100900460ff1615610bee578160ff166001148015610b745750303b155b610be65760405162461bcd60e51b815260206004820152602e60248201527f496e697469616c697a61626c653a20636f6e747261637420697320616c72656160448201527f647920696e697469616c697a6564000000000000000000000000000000000000606482015260840161051a565b506000919050565b60005460ff808416911610610c6b5760405162461bcd60e51b815260206004820152602e60248201527f496e697469616c697a61626c653a20636f6e747261637420697320616c72656160448201527f647920696e697469616c697a6564000000000000000000000000000000000000606482015260840161051a565b506000805460ff191660ff92909216919091179055600190565b919050565b600054610100900460ff16610cf55760405162461bcd60e51b815260206004820152602b60248201527f496e697469616c697a61626c653a20636f6e7472616374206973206e6f74206960448201526a6e697469616c697a696e6760a81b606482015260840161051a565b6106448383836113d7565b6000610d0b83610649565b905033610d1a82600086611501565b610d24828561150c565b6001600160a01b0382166000908152600460205260409020610d46908561155d565b50600084815260036020526040808220805473ffffffffffffffffffffffffffffffffffffffff19169055518591906001600160a01b038516907fb333c813a7426a7a11e2b190cad52c44119421594b47f6f32ace6d8c7207b2bf90610db190869085908a90612348565b60405180910390a46104858260008686611569565b6000818152600560205260409020610dde908461164c565b5080826001600160a01b0316846001600160a01b03167f17d5389f6ab6adb2647dfa0aa365c323d37adacc30b33a65310b6158ce1373d560405160405180910390a4505050565b6000546001600160a01b03620100009091041633146109465760405162461bcd60e51b815260206004820181905260248201527f4f776e61626c653a2063616c6c6572206973206e6f7420746865206f776e6572604482015260640161051a565b7fdeba1e292f8ba88238e10ab3c7f88bd4be4fac56cad5194b6ecceaf653468af1821415610ee0576040517f85c169bd00000000000000000000000000000000000000000000000000000000815260040160405180910390fd5b7f2f0a68ab07768e01943a599e73362a0e17a63a72e94dd2e384d2c1d4db932756821415610f3a576040517f76755b3800000000000000000000000000000000000000000000000000000000815260040160405180910390fd5b6106e08282611661565b6000818152600360205260409020546001600160a01b03166104ca57604051635747cd1b60e11b81526004810182905260240161051a565b600080610f8883610649565b9050806001600160a01b0316846001600160a01b03161480610fbd57506000838152600560205260409020610fbd90856116b0565b949350505050565b6001600160a01b038416610fec576040516324ecef4d60e01b815260040160405180910390fd5b6000838152600360205260409020546001600160a01b03161561103e576040517f34c7b5110000000000000000000000000000000000000000000000000000000081526004810184905260240161051a565b3361104b60008686611501565b6001600160a01b038516600090815260046020526040902061106d90856116d2565b50600084815260036020526040808220805473ffffffffffffffffffffffffffffffffffffffff19166001600160a01b03891690811790915590518692907fb333c813a7426a7a11e2b190cad52c44119421594b47f6f32ace6d8c7207b2bf906110dc90869089908990612348565b60405180910390a46110f26000868686866116de565b5050505050565b6060600061069783611857565b60008181526001602052604090208054606091906111239061255d565b80601f016020809104026020016040519081016040528092919081815260200182805461114f9061255d565b801561119c5780601f106111715761010080835404028352916020019161119c565b820191906000526020600020905b81548152906001019060200180831161117f57829003601f168201915b50505050509050919050565b60006111b384610649565b9050856001600160a01b0316816001600160a01b03161461120157604051632d938f5160e11b81526001600160a01b038083166004830152602482018690528716604482015260640161051a565b6001600160a01b038516611228576040516324ecef4d60e01b815260040160405180910390fd5b33611234878787611501565b61123e878661150c565b6001600160a01b0387166000908152600460205260409020611260908661155d565b506001600160a01b038616600090815260046020526040902061128390866116d2565b5060008581526003602052604090819020805473ffffffffffffffffffffffffffffffffffffffff19166001600160a01b0389811691821790925591518792918a16907fb333c813a7426a7a11e2b190cad52c44119421594b47f6f32ace6d8c7207b2bf906112f79086908a908a90612348565b60405180910390a461130b87878786611569565b61131887878787876116de565b50505050505050565b600061040a825490565b6000546001600160a01b038281166201000090920416146104ca57600080546001600160a01b03838116620100008181027fffffffffffffffffffff0000000000000000000000000000000000000000ffff851617855560405193049190911692909183917f8be0079c531659141344cd1fd0a4f28419497f9722a3daafe3b4186f6b6457e091a35050565b606061040a82611857565b6000610697836001600160a01b0384166118b2565b600054610100900460ff166114425760405162461bcd60e51b815260206004820152602b60248201527f496e697469616c697a61626c653a20636f6e7472616374206973206e6f74206960448201526a6e697469616c697a696e6760a81b606482015260840161051a565b61144b81611901565b6114ad7feafec4d89fa9619884b60000a4d96624a38f7ac2d8d9a604ecf07c12c77e480c60001b6040518060400160405280600481526020017fa4d9662400000000000000000000000000000000000000000000000000000000815250611661565b6114d77fdeba1e292f8ba88238e10ab3c7f88bd4be4fac56cad5194b6ecceaf653468af184611661565b6106447f2f0a68ab07768e01943a599e73362a0e17a63a72e94dd2e384d2c1d4db93275683611661565b61064483838361196c565b60008181526005602052604081209061152482611321565b905060005b818110156110f257600061153d8482611a2e565b905061154a818787610dc6565b508061155581612592565b915050611529565b60006106978383611a3a565b61157a84631aed5a8560e21b611b2d565b156104855760008484848460405160200161159894939291906122df565b60408051601f1981840301815290829052631aed5a8560e21b825291506001600160a01b03861690636bb56a14906115f6907f3724c94f0815e936299cca424da4140752198e0beb7931a6e0925d11bc97544c908590600401612459565b600060405180830381600087803b15801561161057600080fd5b505af1158015611624573d6000803e3d6000fd5b505050506040513d6000823e601f3d908101601f1916820160405261081a91908101906121af565b6000610697836001600160a01b038416611a3a565b6000828152600160209081526040909120825161168092840190611cab565b5060405182907fcdf4e344c0d23d4cdd0474039d176c55b19d531070dbe17856bfb993a5b5720b90600090a25050565b6001600160a01b03811660009081526001830160205260408120541515610697565b600061069783836118b2565b6116ef84631aed5a8560e21b611b2d565b156117c85760008585858460405160200161170d94939291906122df565b60408051601f1981840301815290829052631aed5a8560e21b825291506001600160a01b03861690636bb56a149061176b907fc7a120a42b6057a0cbed111fbbfbd52fcd96748c04394f77fc2c3adbe0391e01908590600401612459565b600060405180830381600087803b15801561178557600080fd5b505af1158015611799573d6000803e3d6000fd5b505050506040513d6000823e601f3d908101601f191682016040526117c191908101906121af565b50506110f2565b816110f2576001600160a01b0384163b1561181a576040517f4349776d0000000000000000000000000000000000000000000000000000000081526001600160a01b038516600482015260240161051a565b6040517f031731370000000000000000000000000000000000000000000000000000000081526001600160a01b038516600482015260240161051a565b60608160000180548060200260200160405190810160405280929190818152602001828054801561119c57602002820191906000526020600020905b8154815260200190600101908083116118935750505050509050919050565b60008181526001830160205260408120546118f95750815460018181018455600084815260208082209093018490558454848252828601909352604090209190915561040a565b50600061040a565b600054610100900460ff16610afa5760405162461bcd60e51b815260206004820152602b60248201527f496e697469616c697a61626c653a20636f6e7472616374206973206e6f74206960448201526a6e697469616c697a696e6760a81b606482015260840161051a565b6001600160a01b0383166119a15760025460008181526006602090815260408083208590558483526007909152902055611a23565b6001600160a01b038216611a2357600060016002546119c0919061251a565b60008381526007602052604090205490915081811015611a02576000828152600660209081526040808320548484528184208190558352600790915290208190555b50600090815260066020908152604080832083905583835260079091528120555b610644838383611c2f565b60006106978383611c81565b60008181526001830160205260408120548015611b23576000611a5e60018361251a565b8554909150600090611a729060019061251a565b9050818114611ad7576000866000018281548110611a9257611a926125d9565b9060005260206000200154905080876000018481548110611ab557611ab56125d9565b6000918252602080832090910192909255918252600188019052604090208390555b8554869080611ae857611ae86125c3565b60019003818190600052602060002001600090559055856001016000868152602001908152602001600020600090556001935050505061040a565b600091505061040a565b604080516001600160e01b0319831660248083019190915282518083039091018152604490910182526020810180517bffffffffffffffffffffffffffffffffffffffffffffffffffffffff166301ffc9a760e01b179052905160009190829081906001600160a01b0387169061753090611ba990869061232c565b6000604051808303818686fa925050503d8060008114611be5576040519150601f19603f3d011682016040523d82523d6000602084013e611bea565b606091505b5091509150602081511015611c05576000935050505061040a565b818015611c255750600081806020019051810190611c23919061229a565b115b9695505050505050565b6001600160a01b038316611c5657600160026000828254611c509190612502565b90915550505b6001600160a01b03821661064457600160026000828254611c77919061251a565b9091555050505050565b6000826000018281548110611c9857611c986125d9565b9060005260206000200154905092915050565b828054611cb79061255d565b90600052602060002090601f016020900481019282611cd95760008555611d1f565b82601f10611cf257805160ff1916838001178555611d1f565b82800160010185558215611d1f579182015b82811115611d1f578251825591602001919060010190611d04565b50611d2b929150611d2f565b5090565b5b80821115611d2b5760008155600101611d30565b80356001600160a01b0381168114610c8557600080fd5b600082601f830112611d6c57600080fd5b81356020611d81611d7c836124b6565b612485565b80838252828201915082860187848660051b8901011115611da157600080fd5b60005b85811015611dc757611db582611d44565b84529284019290840190600101611da4565b5090979650505050505050565b600082601f830112611de557600080fd5b81356020611df5611d7c836124b6565b80838252828201915082860187848660051b8901011115611e1557600080fd5b60005b85811015611dc757813584529284019290840190600101611e18565b600082601f830112611e4557600080fd5b81356020611e55611d7c836124b6565b80838252828201915082860187848660051b8901011115611e7557600080fd5b6000805b86811015611eb857823567ffffffffffffffff811115611e97578283fd5b611ea58b88838d0101611ed6565b8652509385019391850191600101611e79565b509198975050505050505050565b80358015158114610c8557600080fd5b600082601f830112611ee757600080fd5b8135611ef5611d7c826124da565b818152846020838601011115611f0a57600080fd5b816020850160208301376000918101602001919091529392505050565b600060208284031215611f3957600080fd5b61069782611d44565b600080600080600060a08688031215611f5a57600080fd5b611f6386611d44565b9450611f7160208701611d44565b935060408601359250611f8660608701611ec6565b9150608086013567ffffffffffffffff811115611fa257600080fd5b611fae88828901611ed6565b9150509295509295909350565b60008060408385031215611fce57600080fd5b611fd783611d44565b946020939093013593505050565b600080600080600060a08688031215611ffd57600080fd5b853567ffffffffffffffff8082111561201557600080fd5b61202189838a01611d5b565b9650602088013591508082111561203757600080fd5b61204389838a01611d5b565b9550604088013591508082111561205957600080fd5b61206589838a01611dd4565b945061207360608901611ec6565b9350608088013591508082111561208957600080fd5b50611fae88828901611e34565b6000602082840312156120a857600080fd5b813567ffffffffffffffff8111156120bf57600080fd5b610fbd84828501611dd4565b600080604083850312156120de57600080fd5b823567ffffffffffffffff808211156120f657600080fd5b61210286838701611dd4565b9350602085013591508082111561211857600080fd5b5061212585828601611e34565b9150509250929050565b60006020828403121561214157600080fd5b5035919050565b6000806040838503121561215b57600080fd5b82359150602083013567ffffffffffffffff81111561217957600080fd5b61212585828601611ed6565b60006020828403121561219757600080fd5b81356001600160e01b03198116811461069757600080fd5b6000602082840312156121c157600080fd5b815167ffffffffffffffff8111156121d857600080fd5b8201601f810184136121e957600080fd5b80516121f7611d7c826124da565b81815285602083850101111561220c57600080fd5b61221d826020830160208601612531565b95945050505050565b60008060006060848603121561223b57600080fd5b833567ffffffffffffffff8082111561225357600080fd5b61225f87838801611ed6565b9450602086013591508082111561227557600080fd5b5061228286828701611ed6565b92505061229160408501611d44565b90509250925092565b6000602082840312156122ac57600080fd5b5051919050565b600081518084526122cb816020860160208601612531565b601f01601f19169290920160200192915050565b60006bffffffffffffffffffffffff19808760601b168352808660601b16601484015250836028830152825161231c816048850160208701612531565b9190910160480195945050505050565b6000825161233e818460208701612531565b9190910192915050565b6001600160a01b0384168152821515602082015260606040820152600061221d60608301846122b3565b6020808252825182820181905260009190848201906040850190845b818110156123b35783516001600160a01b03168352928401929184019160010161238e565b50909695505050505050565b6020808252825182820181905260009190848201906040850190845b818110156123b3578351835292840192918401916001016123db565b6000602080830181845280855180835260408601915060408160051b870101925083870160005b8281101561244c57603f1988860301845261243a8583516122b3565b9450928501929085019060010161241e565b5092979650505050505050565b828152604060208201526000610fbd60408301846122b3565b60208152600061069760208301846122b3565b604051601f8201601f1916810167ffffffffffffffff811182821017156124ae576124ae6125ef565b604052919050565b600067ffffffffffffffff8211156124d0576124d06125ef565b5060051b60200190565b600067ffffffffffffffff8211156124f4576124f46125ef565b50601f01601f191660200190565b60008219821115612515576125156125ad565b500190565b60008282101561252c5761252c6125ad565b500390565b60005b8381101561254c578181015183820152602001612534565b838111156104855750506000910152565b600181811c9082168061257157607f821691505b602082108114156107b457634e487b7160e01b600052602260045260246000fd5b60006000198214156125a6576125a66125ad565b5060010190565b634e487b7160e01b600052601160045260246000fd5b634e487b7160e01b600052603160045260246000fd5b634e487b7160e01b600052603260045260246000fd5b634e487b7160e01b600052604160045260246000fdfea26469706673582212200ecc323fd9ee01a32dc1e5c95e5a381b193d0d37be670320123a578a00eb892464736f6c63430008070033",
  "linkReferences": {},
  "deployedLinkReferences": {}
}