{
  "_format": "hh-sol-artifact-1",
  "contractName": "ERC725Y",
  "sourceName": "@erc725/smart-contracts/contracts/ERC725Y.sol",
  "abi": [
    {
      "inputs": [
        {
          "internalType": "address",
          "name": "newOwner",
          "type": "address"
        }
      ],
      "stateMutability": "nonpayable",
      "type": "constructor"
    },
    {
      "anonymous": false,
      "inputs": [
        {
          "indexed": true,
          "internalType": "bytes32",
          "name": "dataKey",
          "type": "bytes32"
        }
      ],
      "name": "DataChanged",
      "type": "event"
    },
    {
      "anonymous": false,
      "inputs": [
        {
          "indexed": true,
          "internalType": "address",
          "name": "previousOwner",
          "type": "address"
        },
        {
          "indexed": true,
          "internalType": "address",
          "name": "newOwner",
          "type": "address"
        }
      ],
      "name": "OwnershipTransferred",
      "type": "event"
    },
    {
      "inputs": [
        {
          "internalType": "bytes32[]",
          "name": "dataKeys",
          "type": "bytes32[]"
        }
      ],
      "name": "getData",
      "outputs": [
        {
          "internalType": "bytes[]",
          "name": "dataValues",
          "type": "bytes[]"
        }
      ],
      "stateMutability": "view",
      "type": "function"
    },
    {
      "inputs": [
        {
          "internalType": "bytes32",
          "name": "dataKey",
          "type": "bytes32"
        }
      ],
      "name": "getData",
      "outputs": [
        {
          "internalType": "bytes",
          "name": "dataValue",
          "type": "bytes"
        }
      ],
      "stateMutability": "view",
      "type": "function"
    },
    {
      "inputs": [],
      "name": "owner",
      "outputs": [
        {
          "internalType": "address",
          "name": "",
          "type": "address"
        }
      ],
      "stateMutability": "view",
      "type": "function"
    },
    {
      "inputs": [],
      "name": "renounceOwnership",
      "outputs": [],
      "stateMutability": "nonpayable",
      "type": "function"
    },
    {
      "inputs": [
        {
          "internalType": "bytes32[]",
          "name": "dataKeys",
          "type": "bytes32[]"
        },
        {
          "internalType": "bytes[]",
          "name": "dataValues",
          "type": "bytes[]"
        }
      ],
      "name": "setData",
      "outputs": [],
      "stateMutability": "nonpayable",
      "type": "function"
    },
    {
      "inputs": [
        {
          "internalType": "bytes32",
          "name": "dataKey",
          "type": "bytes32"
        },
        {
          "internalType": "bytes",
          "name": "dataValue",
          "type": "bytes"
        }
      ],
      "name": "setData",
      "outputs": [],
      "stateMutability": "nonpayable",
      "type": "function"
    },
    {
      "inputs": [
        {
          "internalType": "bytes4",
          "name": "interfaceId",
          "type": "bytes4"
        }
      ],
      "name": "supportsInterface",
      "outputs": [
        {
          "internalType": "bool",
          "name": "",
          "type": "bool"
        }
      ],
      "stateMutability": "view",
      "type": "function"
    },
    {
      "inputs": [
        {
          "internalType": "address",
          "name": "newOwner",
          "type": "address"
        }
      ],
      "name": "transferOwnership",
      "outputs": [],
      "stateMutability": "nonpayable",
      "type": "function"
    }
  ],
  "bytecode": "0x608060405234801561001057600080fd5b50604051610c15380380610c1583398101604081905261002f916100ae565b6100428161004860201b61043e1760201c565b506100de565b6000546001600160a01b038281169116146100ab57600080546001600160a01b038381166001600160a01b0319831681178455604051919092169283917f8be0079c531659141344cd1fd0a4f28419497f9722a3daafe3b4186f6b6457e09190a3505b50565b6000602082840312156100c057600080fd5b81516001600160a01b03811681146100d757600080fd5b9392505050565b610b28806100ed6000396000f3fe608060405234801561001057600080fd5b50600436106100885760003560e01c8063715018a61161005b578063715018a61461010a5780637f23690c146101125780638da5cb5b14610125578063f2fde38b1461014057600080fd5b806301ffc9a71461008d57806314a6e293146100b55780634e3e6e9c146100ca57806354f6127f146100ea575b600080fd5b6100a061009b366004610938565b610153565b60405190151581526020015b60405180910390f35b6100c86100c33660046107fd565b6101ec565b005b6100dd6100d83660046107c0565b6102c5565b6040516100ac91906109c7565b6100fd6100f83660046108d8565b610379565b6040516100ac9190610a29565b6100c8610384565b6100c86101203660046108f1565b610398565b6000546040516001600160a01b0390911681526020016100ac565b6100c861014e366004610790565b6103ae565b60007fffffffff0000000000000000000000000000000000000000000000000000000082167f714df77c0000000000000000000000000000000000000000000000000000000014806101e657507f01ffc9a7000000000000000000000000000000000000000000000000000000007fffffffff000000000000000000000000000000000000000000000000000000008316145b92915050565b6101f46104bb565b80518251146102705760405162461bcd60e51b815260206004820152602660248201527f4b657973206c656e677468206e6f7420657175616c20746f2076616c7565732060448201527f6c656e677468000000000000000000000000000000000000000000000000000060648201526084015b60405180910390fd5b60005b82518110156102c0576102b883828151811061029157610291610ac6565b60200260200101518383815181106102ab576102ab610ac6565b6020026020010151610524565b600101610273565b505050565b6060815167ffffffffffffffff8111156102e1576102e1610adc565b60405190808252806020026020018201604052801561031457816020015b60608152602001906001900390816102ff5790505b50905060005b82518110156103735761034583828151811061033857610338610ac6565b6020026020010151610573565b82828151811061035757610357610ac6565b602002602001018190525061036c8160010190565b905061031a565b50919050565b60606101e682610573565b61038c6104bb565b610396600061043e565b565b6103a06104bb565b6103aa8282610524565b5050565b6103b66104bb565b6001600160a01b0381166104325760405162461bcd60e51b815260206004820152602660248201527f4f776e61626c653a206e6577206f776e657220697320746865207a65726f206160448201527f64647265737300000000000000000000000000000000000000000000000000006064820152608401610267565b61043b8161043e565b50565b6000546001600160a01b0382811691161461043b57600080546001600160a01b038381167fffffffffffffffffffffffff0000000000000000000000000000000000000000831681178455604051919092169283917f8be0079c531659141344cd1fd0a4f28419497f9722a3daafe3b4186f6b6457e09190a35050565b336104ce6000546001600160a01b031690565b6001600160a01b0316146103965760405162461bcd60e51b815260206004820181905260248201527f4f776e61626c653a2063616c6c6572206973206e6f7420746865206f776e65726044820152606401610267565b6000828152600160209081526040909120825161054392840190610615565b5060405182907fcdf4e344c0d23d4cdd0474039d176c55b19d531070dbe17856bfb993a5b5720b90600090a25050565b600081815260016020526040902080546060919061059090610a91565b80601f01602080910402602001604051908101604052809291908181526020018280546105bc90610a91565b80156106095780601f106105de57610100808354040283529160200191610609565b820191906000526020600020905b8154815290600101906020018083116105ec57829003601f168201915b50505050509050919050565b82805461062190610a91565b90600052602060002090601f0160209004810192826106435760008555610689565b82601f1061065c57805160ff1916838001178555610689565b82800160010185558215610689579182015b8281111561068957825182559160200191906001019061066e565b50610695929150610699565b5090565b5b80821115610695576000815560010161069a565b600082601f8301126106bf57600080fd5b813560206106d46106cf83610a6d565b610a3c565b80838252828201915082860187848660051b89010111156106f457600080fd5b60005b85811015610713578135845292840192908401906001016106f7565b5090979650505050505050565b600082601f83011261073157600080fd5b813567ffffffffffffffff81111561074b5761074b610adc565b61075e601f8201601f1916602001610a3c565b81815284602083860101111561077357600080fd5b816020850160208301376000918101602001919091529392505050565b6000602082840312156107a257600080fd5b81356001600160a01b03811681146107b957600080fd5b9392505050565b6000602082840312156107d257600080fd5b813567ffffffffffffffff8111156107e957600080fd5b6107f5848285016106ae565b949350505050565b6000806040838503121561081057600080fd5b823567ffffffffffffffff8082111561082857600080fd5b610834868387016106ae565b935060209150818501358181111561084b57600080fd5b8501601f8101871361085c57600080fd5b803561086a6106cf82610a6d565b8082825285820191508584018a878560051b870101111561088a57600080fd5b6000805b858110156108c5578235888111156108a4578283fd5b6108b28e8b838b0101610720565b865250938801939188019160010161088e565b5050508096505050505050509250929050565b6000602082840312156108ea57600080fd5b5035919050565b6000806040838503121561090457600080fd5b82359150602083013567ffffffffffffffff81111561092257600080fd5b61092e85828601610720565b9150509250929050565b60006020828403121561094a57600080fd5b81357fffffffff00000000000000000000000000000000000000000000000000000000811681146107b957600080fd5b6000815180845260005b818110156109a057602081850181015186830182015201610984565b818111156109b2576000602083870101525b50601f01601f19169290920160200192915050565b6000602080830181845280855180835260408601915060408160051b870101925083870160005b82811015610a1c57603f19888603018452610a0a85835161097a565b945092850192908501906001016109ee565b5092979650505050505050565b6020815260006107b9602083018461097a565b604051601f8201601f1916810167ffffffffffffffff81118282101715610a6557610a65610adc565b604052919050565b600067ffffffffffffffff821115610a8757610a87610adc565b5060051b60200190565b600181811c90821680610aa557607f821691505b6020821081141561037357634e487b7160e01b600052602260045260246000fd5b634e487b7160e01b600052603260045260246000fd5b634e487b7160e01b600052604160045260246000fdfea26469706673582212204e2ba5e979e4f5f8caa5c1a264bf4ce18232326abb4000fcfe3060600eedfee564736f6c63430008070033",
  "linkReferences": {},
  "deployedLinkReferences": {}
}