{
  "_format": "hh-sol-artifact-1",
  "contractName": "LSP8CappedSupplyTester",
  "sourceName": "contracts/Helpers/Tokens/LSP8CappedSupplyTester.sol",
  "abi": [
    {
      "inputs": [
        {
          "internalType": "string",
          "name": "name",
          "type": "string"
        },
        {
          "internalType": "string",
          "name": "symbol",
          "type": "string"
        },
        {
          "internalType": "address",
          "name": "newOwner",
          "type": "address"
        },
        {
          "internalType": "uint256",
          "name": "tokenSupplyCap",
          "type": "uint256"
        }
      ],
      "stateMutability": "nonpayable",
      "type": "constructor"
    },
    {
      "inputs": [],
      "name": "LSP4TokenNameNotEditable",
      "type": "error"
    },
    {
      "inputs": [],
      "name": "LSP4TokenSymbolNotEditable",
      "type": "error"
    },
    {
      "inputs": [],
      "name": "LSP8CannotSendToAddressZero",
      "type": "error"
    },
    {
      "inputs": [],
      "name": "LSP8CannotUseAddressZeroAsOperator",
      "type": "error"
    },
    {
      "inputs": [],
      "name": "LSP8CappedSupplyCannotMintOverCap",
      "type": "error"
    },
    {
      "inputs": [],
      "name": "LSP8CappedSupplyRequired",
      "type": "error"
    },
    {
      "inputs": [],
      "name": "LSP8InvalidTransferBatch",
      "type": "error"
    },
    {
      "inputs": [
        {
          "internalType": "bytes32",
          "name": "tokenId",
          "type": "bytes32"
        }
      ],
      "name": "LSP8NonExistentTokenId",
      "type": "error"
    },
    {
      "inputs": [
        {
          "internalType": "bytes32",
          "name": "tokenId",
          "type": "bytes32"
        },
        {
          "internalType": "address",
          "name": "caller",
          "type": "address"
        }
      ],
      "name": "LSP8NotTokenOperator",
      "type": "error"
    },
    {
      "inputs": [
        {
          "internalType": "address",
          "name": "tokenOwner",
          "type": "address"
        },
        {
          "internalType": "bytes32",
          "name": "tokenId",
          "type": "bytes32"
        },
        {
          "internalType": "address",
          "name": "caller",
          "type": "address"
        }
      ],
      "name": "LSP8NotTokenOwner",
      "type": "error"
    },
    {
      "inputs": [
        {
          "internalType": "address",
          "name": "tokenReceiver",
          "type": "address"
        }
      ],
      "name": "LSP8NotifyTokenReceiverContractMissingLSP1Interface",
      "type": "error"
    },
    {
      "inputs": [
        {
          "internalType": "address",
          "name": "tokenReceiver",
          "type": "address"
        }
      ],
      "name": "LSP8NotifyTokenReceiverIsEOA",
      "type": "error"
    },
    {
      "inputs": [
        {
          "internalType": "bytes32",
          "name": "tokenId",
          "type": "bytes32"
        }
      ],
      "name": "LSP8TokenIdAlreadyMinted",
      "type": "error"
    },
    {
      "anonymous": false,
      "inputs": [
        {
          "indexed": true,
          "internalType": "address",
          "name": "operator",
          "type": "address"
        },
        {
          "indexed": true,
          "internalType": "address",
          "name": "tokenOwner",
          "type": "address"
        },
        {
          "indexed": true,
          "internalType": "bytes32",
          "name": "tokenId",
          "type": "bytes32"
        }
      ],
      "name": "AuthorizedOperator",
      "type": "event"
    },
    {
      "anonymous": false,
      "inputs": [
        {
          "indexed": true,
          "internalType": "bytes32",
          "name": "dataKey",
          "type": "bytes32"
        }
      ],
      "name": "DataChanged",
      "type": "event"
    },
    {
      "anonymous": false,
      "inputs": [
        {
          "indexed": true,
          "internalType": "address",
          "name": "previousOwner",
          "type": "address"
        },
        {
          "indexed": true,
          "internalType": "address",
          "name": "newOwner",
          "type": "address"
        }
      ],
      "name": "OwnershipTransferred",
      "type": "event"
    },
    {
      "anonymous": false,
      "inputs": [
        {
          "indexed": true,
          "internalType": "address",
          "name": "operator",
          "type": "address"
        },
        {
          "indexed": true,
          "internalType": "address",
          "name": "tokenOwner",
          "type": "address"
        },
        {
          "indexed": true,
          "internalType": "bytes32",
          "name": "tokenId",
          "type": "bytes32"
        }
      ],
      "name": "RevokedOperator",
      "type": "event"
    },
    {
      "anonymous": false,
      "inputs": [
        {
          "indexed": false,
          "internalType": "address",
          "name": "operator",
          "type": "address"
        },
        {
          "indexed": true,
          "internalType": "address",
          "name": "from",
          "type": "address"
        },
        {
          "indexed": true,
          "internalType": "address",
          "name": "to",
          "type": "address"
        },
        {
          "indexed": true,
          "internalType": "bytes32",
          "name": "tokenId",
          "type": "bytes32"
        },
        {
          "indexed": false,
          "internalType": "bool",
          "name": "force",
          "type": "bool"
        },
        {
          "indexed": false,
          "internalType": "bytes",
          "name": "data",
          "type": "bytes"
        }
      ],
      "name": "Transfer",
      "type": "event"
    },
    {
      "inputs": [
        {
          "internalType": "address",
          "name": "operator",
          "type": "address"
        },
        {
          "internalType": "bytes32",
          "name": "tokenId",
          "type": "bytes32"
        }
      ],
      "name": "authorizeOperator",
      "outputs": [],
      "stateMutability": "nonpayable",
      "type": "function"
    },
    {
      "inputs": [
        {
          "internalType": "address",
          "name": "tokenOwner",
          "type": "address"
        }
      ],
      "name": "balanceOf",
      "outputs": [
        {
          "internalType": "uint256",
          "name": "",
          "type": "uint256"
        }
      ],
      "stateMutability": "view",
      "type": "function"
    },
    {
      "inputs": [
        {
          "internalType": "bytes32",
          "name": "tokenId",
          "type": "bytes32"
        }
      ],
      "name": "burn",
      "outputs": [],
      "stateMutability": "nonpayable",
      "type": "function"
    },
    {
      "inputs": [
        {
          "internalType": "bytes32[]",
          "name": "dataKeys",
          "type": "bytes32[]"
        }
      ],
      "name": "getData",
      "outputs": [
        {
          "internalType": "bytes[]",
          "name": "dataValues",
          "type": "bytes[]"
        }
      ],
      "stateMutability": "view",
      "type": "function"
    },
    {
      "inputs": [
        {
          "internalType": "bytes32",
          "name": "dataKey",
          "type": "bytes32"
        }
      ],
      "name": "getData",
      "outputs": [
        {
          "internalType": "bytes",
          "name": "dataValue",
          "type": "bytes"
        }
      ],
      "stateMutability": "view",
      "type": "function"
    },
    {
      "inputs": [
        {
          "internalType": "bytes32",
          "name": "tokenId",
          "type": "bytes32"
        }
      ],
      "name": "getOperatorsOf",
      "outputs": [
        {
          "internalType": "address[]",
          "name": "",
          "type": "address[]"
        }
      ],
      "stateMutability": "view",
      "type": "function"
    },
    {
      "inputs": [
        {
          "internalType": "address",
          "name": "operator",
          "type": "address"
        },
        {
          "internalType": "bytes32",
          "name": "tokenId",
          "type": "bytes32"
        }
      ],
      "name": "isOperatorFor",
      "outputs": [
        {
          "internalType": "bool",
          "name": "",
          "type": "bool"
        }
      ],
      "stateMutability": "view",
      "type": "function"
    },
    {
      "inputs": [
        {
          "internalType": "address",
          "name": "to",
          "type": "address"
        },
        {
          "internalType": "bytes32",
          "name": "tokenId",
          "type": "bytes32"
        }
      ],
      "name": "mint",
      "outputs": [],
      "stateMutability": "nonpayable",
      "type": "function"
    },
    {
      "inputs": [],
      "name": "owner",
      "outputs": [
        {
          "internalType": "address",
          "name": "",
          "type": "address"
        }
      ],
      "stateMutability": "view",
      "type": "function"
    },
    {
      "inputs": [],
      "name": "renounceOwnership",
      "outputs": [],
      "stateMutability": "nonpayable",
      "type": "function"
    },
    {
      "inputs": [
        {
          "internalType": "address",
          "name": "operator",
          "type": "address"
        },
        {
          "internalType": "bytes32",
          "name": "tokenId",
          "type": "bytes32"
        }
      ],
      "name": "revokeOperator",
      "outputs": [],
      "stateMutability": "nonpayable",
      "type": "function"
    },
    {
      "inputs": [
        {
          "internalType": "bytes32[]",
          "name": "dataKeys",
          "type": "bytes32[]"
        },
        {
          "internalType": "bytes[]",
          "name": "dataValues",
          "type": "bytes[]"
        }
      ],
      "name": "setData",
      "outputs": [],
      "stateMutability": "nonpayable",
      "type": "function"
    },
    {
      "inputs": [
        {
          "internalType": "bytes32",
          "name": "dataKey",
          "type": "bytes32"
        },
        {
          "internalType": "bytes",
          "name": "dataValue",
          "type": "bytes"
        }
      ],
      "name": "setData",
      "outputs": [],
      "stateMutability": "nonpayable",
      "type": "function"
    },
    {
      "inputs": [
        {
          "internalType": "bytes4",
          "name": "interfaceId",
          "type": "bytes4"
        }
      ],
      "name": "supportsInterface",
      "outputs": [
        {
          "internalType": "bool",
          "name": "",
          "type": "bool"
        }
      ],
      "stateMutability": "view",
      "type": "function"
    },
    {
      "inputs": [
        {
          "internalType": "address",
          "name": "tokenOwner",
          "type": "address"
        }
      ],
      "name": "tokenIdsOf",
      "outputs": [
        {
          "internalType": "bytes32[]",
          "name": "",
          "type": "bytes32[]"
        }
      ],
      "stateMutability": "view",
      "type": "function"
    },
    {
      "inputs": [
        {
          "internalType": "bytes32",
          "name": "tokenId",
          "type": "bytes32"
        }
      ],
      "name": "tokenOwnerOf",
      "outputs": [
        {
          "internalType": "address",
          "name": "",
          "type": "address"
        }
      ],
      "stateMutability": "view",
      "type": "function"
    },
    {
      "inputs": [],
      "name": "tokenSupplyCap",
      "outputs": [
        {
          "internalType": "uint256",
          "name": "",
          "type": "uint256"
        }
      ],
      "stateMutability": "view",
      "type": "function"
    },
    {
      "inputs": [],
      "name": "totalSupply",
      "outputs": [
        {
          "internalType": "uint256",
          "name": "",
          "type": "uint256"
        }
      ],
      "stateMutability": "view",
      "type": "function"
    },
    {
      "inputs": [
        {
          "internalType": "address",
          "name": "from",
          "type": "address"
        },
        {
          "internalType": "address",
          "name": "to",
          "type": "address"
        },
        {
          "internalType": "bytes32",
          "name": "tokenId",
          "type": "bytes32"
        },
        {
          "internalType": "bool",
          "name": "force",
          "type": "bool"
        },
        {
          "internalType": "bytes",
          "name": "data",
          "type": "bytes"
        }
      ],
      "name": "transfer",
      "outputs": [],
      "stateMutability": "nonpayable",
      "type": "function"
    },
    {
      "inputs": [
        {
          "internalType": "address[]",
          "name": "from",
          "type": "address[]"
        },
        {
          "internalType": "address[]",
          "name": "to",
          "type": "address[]"
        },
        {
          "internalType": "bytes32[]",
          "name": "tokenId",
          "type": "bytes32[]"
        },
        {
          "internalType": "bool",
          "name": "force",
          "type": "bool"
        },
        {
          "internalType": "bytes[]",
          "name": "data",
          "type": "bytes[]"
        }
      ],
      "name": "transferBatch",
      "outputs": [],
      "stateMutability": "nonpayable",
      "type": "function"
    },
    {
      "inputs": [
        {
          "internalType": "address",
          "name": "newOwner",
          "type": "address"
        }
      ],
      "name": "transferOwnership",
      "outputs": [],
      "stateMutability": "nonpayable",
      "type": "function"
    }
  ],
  "bytecode": "0x60806040523480156200001157600080fd5b506040516200257938038062002579833981016040819052620000349162000369565b808484848282828062000052816200015460201b62000a131760201c565b50620000a97feafec4d89fa9619884b60000a4d96624a38f7ac2d8d9a604ecf07c12c77e480c60001b604051806040016040528060048152602001632936598960e21b815250620001bb60201b62000a851760201c565b620000e37fdeba1e292f8ba88238e10ab3c7f88bd4be4fac56cad5194b6ecceaf653468af160001b84620001bb60201b62000a851760201c565b6200011d7f2f0a68ab07768e01943a599e73362a0e17a63a72e94dd2e384d2c1d4db93275660001b83620001bb60201b62000a851760201c565b5050505050508060001415620001465760405163038d9fc360e41b815260040160405180910390fd5b600655506200044f92505050565b6000546001600160a01b03828116911614620001b857600080546001600160a01b038381166001600160a01b0319831681178455604051919092169283917f8be0079c531659141344cd1fd0a4f28419497f9722a3daafe3b4186f6b6457e09190a3505b50565b60008281526001602090815260409091208251620001dc928401906200020c565b5060405182907fcdf4e344c0d23d4cdd0474039d176c55b19d531070dbe17856bfb993a5b5720b90600090a25050565b8280546200021a90620003fc565b90600052602060002090601f0160209004810192826200023e576000855562000289565b82601f106200025957805160ff191683800117855562000289565b8280016001018555821562000289579182015b82811115620002895782518255916020019190600101906200026c565b50620002979291506200029b565b5090565b5b808211156200029757600081556001016200029c565b600082601f830112620002c457600080fd5b81516001600160401b0380821115620002e157620002e162000439565b604051601f8301601f19908116603f011681019082821181831017156200030c576200030c62000439565b816040528381526020925086838588010111156200032957600080fd5b600091505b838210156200034d57858201830151818301840152908201906200032e565b838211156200035f5760008385830101525b9695505050505050565b600080600080608085870312156200038057600080fd5b84516001600160401b03808211156200039857600080fd5b620003a688838901620002b2565b95506020870151915080821115620003bd57600080fd5b50620003cc87828801620002b2565b604087015190945090506001600160a01b0381168114620003ec57600080fd5b6060959095015193969295505050565b600181811c908216806200041157607f821691505b602082108114156200043357634e487b7160e01b600052602260045260246000fd5b50919050565b634e487b7160e01b600052604160045260246000fd5b61211a806200045f6000396000f3fe608060405234801561001057600080fd5b50600436106101775760003560e01c8063511b6952116100d8578063715018a61161008c578063a3b261f211610066578063a3b261f21461030f578063cf5182ba1461032f578063f2fde38b1461034257600080fd5b8063715018a6146102e35780637f23690c146102eb5780638da5cb5b146102fe57600080fd5b806354f6127f116100bd57806354f6127f1461029d57806355908868146102bd57806370a08231146102d057600080fd5b8063511b69521461028257806352058d8a1461029557600080fd5b8063217b22701161012f5780632cfd3005116101145780632cfd30051461022f57806349a6078d146102425780634e3e6e9c1461026257600080fd5b8063217b2270146101f15780632a3654a41461021c57600080fd5b80630b0c6d82116101605780630b0c6d82146101b957806314a6e293146101cc57806318160ddd146101df57600080fd5b806301ffc9a71461017c57806308a1eee1146101a4575b600080fd5b61018f61018a366004611cd8565b610355565b60405190151581526020015b60405180910390f35b6101b76101b2366004611c82565b610399565b005b6101b76101c7366004611b0e565b6103db565b6101b76101da366004611c1e565b610489565b6002545b60405190815260200161019b565b6102046101ff366004611c82565b61055d565b6040516001600160a01b03909116815260200161019b565b61018f61022a366004611b0e565b610596565b6101b761023d366004611b0e565b6105b2565b610255610250366004611c82565b6105f8565b60405161019b9190611e51565b610275610270366004611be9565b61061a565b60405161019b9190611ed6565b6101b7610290366004611a95565b6106ce565b6006546101e3565b6102b06102ab366004611c82565b610736565b60405161019b9190611f51565b6101b76102cb366004611b38565b610741565b6101e36102de366004611a7a565b610827565b6101b7610848565b6101b76102f9366004611c9b565b61085c565b6000546001600160a01b0316610204565b61032261031d366004611a7a565b61086e565b60405161019b9190611e9e565b6101b761033d366004611b0e565b610892565b6101b7610350366004611a7a565b61098a565b60006001600160e01b031982167f49399145000000000000000000000000000000000000000000000000000000001480610393575061039382610ad4565b92915050565b6103d8816040518060400160405280600d81526020017f6665656c20746865206275726e00000000000000000000000000000000000000815250610b22565b50565b60006103e68261055d565b9050336001600160a01b038216811461043157604051632d938f5160e11b81526001600160a01b03808416600483015260248201859052821660448201526064015b60405180910390fd5b6001600160a01b03841661045857604051639577b8b360e01b815260040160405180910390fd5b836001600160a01b0316826001600160a01b031614156104785750505050565b610483848385610be8565b50505050565b610491610c47565b80518251146105085760405162461bcd60e51b815260206004820152602660248201527f4b657973206c656e677468206e6f7420657175616c20746f2076616c7565732060448201527f6c656e67746800000000000000000000000000000000000000000000000000006064820152608401610428565b60005b825181101561055857610550838281518110610529576105296120b8565b6020026020010151838381518110610543576105436120b8565b6020026020010151610cb0565b60010161050b565b505050565b6000818152600360205260408120546001600160a01b03168061039357604051635747cd1b60e11b815260048101849052602401610428565b60006105a182610d6e565b6105ab8383610da6565b9392505050565b6105f4828260016040518060400160405280601581526020017f746f6b656e207072696e74657220676f20627272720000000000000000000000815250610def565b5050565b606061060382610d6e565b600082815260056020526040902061039390610dfb565b6060815167ffffffffffffffff811115610636576106366120ce565b60405190808252806020026020018201604052801561066957816020015b60608152602001906001900390816106545790505b50905060005b82518110156106c85761069a83828151811061068d5761068d6120b8565b6020026020010151610e08565b8282815181106106ac576106ac6120b8565b60200260200101819052506106c18160010190565b905061066f565b50919050565b336106d98185610da6565b610721576040517f1294d2a9000000000000000000000000000000000000000000000000000000008152600481018590526001600160a01b0382166024820152604401610428565b61072e8686868686610eaa565b505050505050565b606061039382610e08565b8351855114158061075457508251855114155b8061076157508051855114155b15610798576040517f93a8311900000000000000000000000000000000000000000000000000000000815260040160405180910390fd5b60005b855181101561072e576108158682815181106107b9576107b96120b8565b60200260200101518683815181106107d3576107d36120b8565b60200260200101518684815181106107ed576107ed6120b8565b602002602001015186868681518110610808576108086120b8565b60200260200101516106ce565b8061081f81612071565b91505061079b565b6001600160a01b038116600090815260046020526040812061039390611023565b610850610c47565b61085a6000610a13565b565b610864610c47565b6105f48282610cb0565b6001600160a01b03811660009081526004602052604090206060906103939061102d565b600061089d8261055d565b9050336001600160a01b03821681146108e357604051632d938f5160e11b81526001600160a01b0380841660048301526024820185905282166044820152606401610428565b6001600160a01b03841661090a57604051639577b8b360e01b815260040160405180910390fd5b836001600160a01b0316826001600160a01b0316141561092a5750505050565b60008381526005602052604090206109429085611038565b5082826001600160a01b0316856001600160a01b03167f34b797fc5a526f7bf1d2b5de25f6564fd85ae364e3ee939aee7c1ac27871a98860405160405180910390a450505050565b610992610c47565b6001600160a01b038116610a0e5760405162461bcd60e51b815260206004820152602660248201527f4f776e61626c653a206e6577206f776e657220697320746865207a65726f206160448201527f64647265737300000000000000000000000000000000000000000000000000006064820152608401610428565b6103d8815b6000546001600160a01b038281169116146103d857600080546001600160a01b0383811673ffffffffffffffffffffffffffffffffffffffff19831681178455604051919092169283917f8be0079c531659141344cd1fd0a4f28419497f9722a3daafe3b4186f6b6457e09190a35050565b60008281526001602090815260409091208251610aa4928401906117f9565b5060405182907fcdf4e344c0d23d4cdd0474039d176c55b19d531070dbe17856bfb993a5b5720b90600090a25050565b60006001600160e01b031982167f714df77c00000000000000000000000000000000000000000000000000000000148061039357506301ffc9a760e01b6001600160e01b0319831614610393565b6000610b2d8361055d565b905033610b3c8260008661104d565b610b46828561109f565b6001600160a01b0382166000908152600460205260409020610b6890856110f7565b50600084815260036020526040808220805473ffffffffffffffffffffffffffffffffffffffff19169055518591906001600160a01b038516907fb333c813a7426a7a11e2b190cad52c44119421594b47f6f32ace6d8c7207b2bf90610bd390869085908a90611e27565b60405180910390a46104838260008686611103565b6000818152600560205260409020610c0090846111e6565b5080826001600160a01b0316846001600160a01b03167f17d5389f6ab6adb2647dfa0aa365c323d37adacc30b33a65310b6158ce1373d560405160405180910390a4505050565b33610c5a6000546001600160a01b031690565b6001600160a01b03161461085a5760405162461bcd60e51b815260206004820181905260248201527f4f776e61626c653a2063616c6c6572206973206e6f7420746865206f776e65726044820152606401610428565b7fdeba1e292f8ba88238e10ab3c7f88bd4be4fac56cad5194b6ecceaf653468af1821415610d0a576040517f85c169bd00000000000000000000000000000000000000000000000000000000815260040160405180910390fd5b7f2f0a68ab07768e01943a599e73362a0e17a63a72e94dd2e384d2c1d4db932756821415610d64576040517f76755b3800000000000000000000000000000000000000000000000000000000815260040160405180910390fd5b6105f48282610a85565b6000818152600360205260409020546001600160a01b03166103d857604051635747cd1b60e11b815260048101829052602401610428565b600080610db28361055d565b9050806001600160a01b0316846001600160a01b03161480610de757506000838152600560205260409020610de790856111fb565b949350505050565b6104838484848461121d565b606060006105ab83611272565b6000818152600160205260409020805460609190610e259061203c565b80601f0160208091040260200160405190810160405280929190818152602001828054610e519061203c565b8015610e9e5780601f10610e7357610100808354040283529160200191610e9e565b820191906000526020600020905b815481529060010190602001808311610e8157829003601f168201915b50505050509050919050565b6000610eb58461055d565b9050856001600160a01b0316816001600160a01b031614610f0357604051632d938f5160e11b81526001600160a01b0380831660048301526024820186905287166044820152606401610428565b6001600160a01b038516610f2a576040516324ecef4d60e01b815260040160405180910390fd5b33610f3687878761104d565b610f40878661109f565b6001600160a01b0387166000908152600460205260409020610f6290866110f7565b506001600160a01b0386166000908152600460205260409020610f8590866112cd565b5060008581526003602052604090819020805473ffffffffffffffffffffffffffffffffffffffff19166001600160a01b0389811691821790925591518792918a16907fb333c813a7426a7a11e2b190cad52c44119421594b47f6f32ace6d8c7207b2bf90610ff99086908a908a90611e27565b60405180910390a461100d87878786611103565b61101a87878787876112d9565b50505050505050565b6000610393825490565b606061039382611272565b60006105ab836001600160a01b038416611452565b6001600160a01b0383166110745760016002600082825461106e9190611fe1565b90915550505b6001600160a01b038216610558576001600260008282546110959190611ff9565b9091555050505050565b6000818152600560205260408120906110b782611023565b905060005b818110156110f05760006110d084826114a1565b90506110dd818787610be8565b50806110e881612071565b9150506110bc565b5050505050565b60006105ab83836114ad565b61111484631aed5a8560e21b6115a0565b15610483576000848484846040516020016111329493929190611dbe565b60408051601f1981840301815290829052631aed5a8560e21b825291506001600160a01b03861690636bb56a1490611190907f3724c94f0815e936299cca424da4140752198e0beb7931a6e0925d11bc97544c908590600401611f38565b600060405180830381600087803b1580156111aa57600080fd5b505af11580156111be573d6000803e3d6000fd5b505050506040513d6000823e601f3d908101601f1916820160405261072e9190810190611d02565b60006105ab836001600160a01b0384166114ad565b6001600160a01b038116600090815260018301602052604081205415156105ab565b60065460025461122e906001611fe1565b1115611266576040517fe8ba229100000000000000000000000000000000000000000000000000000000815260040160405180910390fd5b610483848484846116a2565b606081600001805480602002602001604051908101604052809291908181526020018280548015610e9e57602002820191906000526020600020905b8154815260200190600101908083116112ae5750505050509050919050565b60006105ab8383611452565b6112ea84631aed5a8560e21b6115a0565b156113c3576000858585846040516020016113089493929190611dbe565b60408051601f1981840301815290829052631aed5a8560e21b825291506001600160a01b03861690636bb56a1490611366907fc7a120a42b6057a0cbed111fbbfbd52fcd96748c04394f77fc2c3adbe0391e01908590600401611f38565b600060405180830381600087803b15801561138057600080fd5b505af1158015611394573d6000803e3d6000fd5b505050506040513d6000823e601f3d908101601f191682016040526113bc9190810190611d02565b50506110f0565b816110f0576001600160a01b0384163b15611415576040517f4349776d0000000000000000000000000000000000000000000000000000000081526001600160a01b0385166004820152602401610428565b6040517f031731370000000000000000000000000000000000000000000000000000000081526001600160a01b0385166004820152602401610428565b600081815260018301602052604081205461149957508154600181810184556000848152602080822090930184905584548482528286019093526040902091909155610393565b506000610393565b60006105ab83836117cf565b600081815260018301602052604081205480156115965760006114d1600183611ff9565b85549091506000906114e590600190611ff9565b905081811461154a576000866000018281548110611505576115056120b8565b9060005260206000200154905080876000018481548110611528576115286120b8565b6000918252602080832090910192909255918252600188019052604090208390555b855486908061155b5761155b6120a2565b600190038181906000526020600020016000905590558560010160008681526020019081526020016000206000905560019350505050610393565b6000915050610393565b604080516001600160e01b0319831660248083019190915282518083039091018152604490910182526020810180517bffffffffffffffffffffffffffffffffffffffffffffffffffffffff166301ffc9a760e01b179052905160009190829081906001600160a01b038716906175309061161c908690611e0b565b6000604051808303818686fa925050503d8060008114611658576040519150601f19603f3d011682016040523d82523d6000602084013e61165d565b606091505b50915091506020815110156116785760009350505050610393565b81801561169857506000818060200190518101906116969190611d79565b115b9695505050505050565b6001600160a01b0384166116c9576040516324ecef4d60e01b815260040160405180910390fd5b6000838152600360205260409020546001600160a01b03161561171b576040517f34c7b51100000000000000000000000000000000000000000000000000000000815260048101849052602401610428565b336117286000868661104d565b6001600160a01b038516600090815260046020526040902061174a90856112cd565b50600084815260036020526040808220805473ffffffffffffffffffffffffffffffffffffffff19166001600160a01b03891690811790915590518692907fb333c813a7426a7a11e2b190cad52c44119421594b47f6f32ace6d8c7207b2bf906117b990869089908990611e27565b60405180910390a46110f06000868686866112d9565b60008260000182815481106117e6576117e66120b8565b9060005260206000200154905092915050565b8280546118059061203c565b90600052602060002090601f016020900481019282611827576000855561186d565b82601f1061184057805160ff191683800117855561186d565b8280016001018555821561186d579182015b8281111561186d578251825591602001919060010190611852565b5061187992915061187d565b5090565b5b80821115611879576000815560010161187e565b80356001600160a01b03811681146118a957600080fd5b919050565b600082601f8301126118bf57600080fd5b813560206118d46118cf83611f95565b611f64565b80838252828201915082860187848660051b89010111156118f457600080fd5b60005b8581101561191a5761190882611892565b845292840192908401906001016118f7565b5090979650505050505050565b600082601f83011261193857600080fd5b813560206119486118cf83611f95565b80838252828201915082860187848660051b890101111561196857600080fd5b60005b8581101561191a5781358452928401929084019060010161196b565b600082601f83011261199857600080fd5b813560206119a86118cf83611f95565b80838252828201915082860187848660051b89010111156119c857600080fd5b6000805b86811015611a0b57823567ffffffffffffffff8111156119ea578283fd5b6119f88b88838d0101611a29565b86525093850193918501916001016119cc565b509198975050505050505050565b803580151581146118a957600080fd5b600082601f830112611a3a57600080fd5b8135611a486118cf82611fb9565b818152846020838601011115611a5d57600080fd5b816020850160208301376000918101602001919091529392505050565b600060208284031215611a8c57600080fd5b6105ab82611892565b600080600080600060a08688031215611aad57600080fd5b611ab686611892565b9450611ac460208701611892565b935060408601359250611ad960608701611a19565b9150608086013567ffffffffffffffff811115611af557600080fd5b611b0188828901611a29565b9150509295509295909350565b60008060408385031215611b2157600080fd5b611b2a83611892565b946020939093013593505050565b600080600080600060a08688031215611b5057600080fd5b853567ffffffffffffffff80821115611b6857600080fd5b611b7489838a016118ae565b96506020880135915080821115611b8a57600080fd5b611b9689838a016118ae565b95506040880135915080821115611bac57600080fd5b611bb889838a01611927565b9450611bc660608901611a19565b93506080880135915080821115611bdc57600080fd5b50611b0188828901611987565b600060208284031215611bfb57600080fd5b813567ffffffffffffffff811115611c1257600080fd5b610de784828501611927565b60008060408385031215611c3157600080fd5b823567ffffffffffffffff80821115611c4957600080fd5b611c5586838701611927565b93506020850135915080821115611c6b57600080fd5b50611c7885828601611987565b9150509250929050565b600060208284031215611c9457600080fd5b5035919050565b60008060408385031215611cae57600080fd5b82359150602083013567ffffffffffffffff811115611ccc57600080fd5b611c7885828601611a29565b600060208284031215611cea57600080fd5b81356001600160e01b0319811681146105ab57600080fd5b600060208284031215611d1457600080fd5b815167ffffffffffffffff811115611d2b57600080fd5b8201601f81018413611d3c57600080fd5b8051611d4a6118cf82611fb9565b818152856020838501011115611d5f57600080fd5b611d70826020830160208601612010565b95945050505050565b600060208284031215611d8b57600080fd5b5051919050565b60008151808452611daa816020860160208601612010565b601f01601f19169290920160200192915050565b60006bffffffffffffffffffffffff19808760601b168352808660601b166014840152508360288301528251611dfb816048850160208701612010565b9190910160480195945050505050565b60008251611e1d818460208701612010565b9190910192915050565b6001600160a01b03841681528215156020820152606060408201526000611d706060830184611d92565b6020808252825182820181905260009190848201906040850190845b81811015611e925783516001600160a01b031683529284019291840191600101611e6d565b50909695505050505050565b6020808252825182820181905260009190848201906040850190845b81811015611e9257835183529284019291840191600101611eba565b6000602080830181845280855180835260408601915060408160051b870101925083870160005b82811015611f2b57603f19888603018452611f19858351611d92565b94509285019290850190600101611efd565b5092979650505050505050565b828152604060208201526000610de76040830184611d92565b6020815260006105ab6020830184611d92565b604051601f8201601f1916810167ffffffffffffffff81118282101715611f8d57611f8d6120ce565b604052919050565b600067ffffffffffffffff821115611faf57611faf6120ce565b5060051b60200190565b600067ffffffffffffffff821115611fd357611fd36120ce565b50601f01601f191660200190565b60008219821115611ff457611ff461208c565b500190565b60008282101561200b5761200b61208c565b500390565b60005b8381101561202b578181015183820152602001612013565b838111156104835750506000910152565b600181811c9082168061205057607f821691505b602082108114156106c857634e487b7160e01b600052602260045260246000fd5b60006000198214156120855761208561208c565b5060010190565b634e487b7160e01b600052601160045260246000fd5b634e487b7160e01b600052603160045260246000fd5b634e487b7160e01b600052603260045260246000fd5b634e487b7160e01b600052604160045260246000fdfea2646970667358221220817358983716298726fb8dbb7aa944ce75e482488d4a39b047d979defc70eaaf64736f6c63430008070033",
  "linkReferences": {},
  "deployedLinkReferences": {}
}