{
  "_format": "hh-sol-artifact-1",
  "contractName": "ERC725",
  "sourceName": "@erc725/smart-contracts/contracts/ERC725.sol",
  "abi": [
    {
      "inputs": [
        {
          "internalType": "address",
          "name": "newOwner",
          "type": "address"
        }
      ],
      "stateMutability": "nonpayable",
      "type": "constructor"
    },
    {
      "anonymous": false,
      "inputs": [
        {
          "indexed": true,
          "internalType": "uint256",
          "name": "operation",
          "type": "uint256"
        },
        {
          "indexed": true,
          "internalType": "address",
          "name": "contractAddress",
          "type": "address"
        },
        {
          "indexed": true,
          "internalType": "uint256",
          "name": "value",
          "type": "uint256"
        }
      ],
      "name": "ContractCreated",
      "type": "event"
    },
    {
      "anonymous": false,
      "inputs": [
        {
          "indexed": true,
          "internalType": "bytes32",
          "name": "dataKey",
          "type": "bytes32"
        }
      ],
      "name": "DataChanged",
      "type": "event"
    },
    {
      "anonymous": false,
      "inputs": [
        {
          "indexed": true,
          "internalType": "uint256",
          "name": "operation",
          "type": "uint256"
        },
        {
          "indexed": true,
          "internalType": "address",
          "name": "to",
          "type": "address"
        },
        {
          "indexed": true,
          "internalType": "uint256",
          "name": "value",
          "type": "uint256"
        },
        {
          "indexed": false,
          "internalType": "bytes4",
          "name": "selector",
          "type": "bytes4"
        }
      ],
      "name": "Executed",
      "type": "event"
    },
    {
      "anonymous": false,
      "inputs": [
        {
          "indexed": true,
          "internalType": "address",
          "name": "previousOwner",
          "type": "address"
        },
        {
          "indexed": true,
          "internalType": "address",
          "name": "newOwner",
          "type": "address"
        }
      ],
      "name": "OwnershipTransferred",
      "type": "event"
    },
    {
      "inputs": [
        {
          "internalType": "uint256",
          "name": "operation",
          "type": "uint256"
        },
        {
          "internalType": "address",
          "name": "to",
          "type": "address"
        },
        {
          "internalType": "uint256",
          "name": "value",
          "type": "uint256"
        },
        {
          "internalType": "bytes",
          "name": "data",
          "type": "bytes"
        }
      ],
      "name": "execute",
      "outputs": [
        {
          "internalType": "bytes",
          "name": "result",
          "type": "bytes"
        }
      ],
      "stateMutability": "payable",
      "type": "function"
    },
    {
      "inputs": [
        {
          "internalType": "bytes32[]",
          "name": "dataKeys",
          "type": "bytes32[]"
        }
      ],
      "name": "getData",
      "outputs": [
        {
          "internalType": "bytes[]",
          "name": "dataValues",
          "type": "bytes[]"
        }
      ],
      "stateMutability": "view",
      "type": "function"
    },
    {
      "inputs": [
        {
          "internalType": "bytes32",
          "name": "dataKey",
          "type": "bytes32"
        }
      ],
      "name": "getData",
      "outputs": [
        {
          "internalType": "bytes",
          "name": "dataValue",
          "type": "bytes"
        }
      ],
      "stateMutability": "view",
      "type": "function"
    },
    {
      "inputs": [],
      "name": "owner",
      "outputs": [
        {
          "internalType": "address",
          "name": "",
          "type": "address"
        }
      ],
      "stateMutability": "view",
      "type": "function"
    },
    {
      "inputs": [],
      "name": "renounceOwnership",
      "outputs": [],
      "stateMutability": "nonpayable",
      "type": "function"
    },
    {
      "inputs": [
        {
          "internalType": "bytes32[]",
          "name": "dataKeys",
          "type": "bytes32[]"
        },
        {
          "internalType": "bytes[]",
          "name": "dataValues",
          "type": "bytes[]"
        }
      ],
      "name": "setData",
      "outputs": [],
      "stateMutability": "nonpayable",
      "type": "function"
    },
    {
      "inputs": [
        {
          "internalType": "bytes32",
          "name": "dataKey",
          "type": "bytes32"
        },
        {
          "internalType": "bytes",
          "name": "dataValue",
          "type": "bytes"
        }
      ],
      "name": "setData",
      "outputs": [],
      "stateMutability": "nonpayable",
      "type": "function"
    },
    {
      "inputs": [
        {
          "internalType": "bytes4",
          "name": "interfaceId",
          "type": "bytes4"
        }
      ],
      "name": "supportsInterface",
      "outputs": [
        {
          "internalType": "bool",
          "name": "",
          "type": "bool"
        }
      ],
      "stateMutability": "view",
      "type": "function"
    },
    {
      "inputs": [
        {
          "internalType": "address",
          "name": "newOwner",
          "type": "address"
        }
      ],
      "name": "transferOwnership",
      "outputs": [],
      "stateMutability": "nonpayable",
      "type": "function"
    }
  ],
  "bytecode": "0x60806040523480156200001157600080fd5b50604051620019bb380380620019bb8339810160408190526200003491620000b8565b6200004a816200005160201b62000b081760201c565b50620000ea565b6000546001600160a01b03828116911614620000b557600080546001600160a01b038381166001600160a01b0319831681178455604051919092169283917f8be0079c531659141344cd1fd0a4f28419497f9722a3daafe3b4186f6b6457e09190a3505b50565b600060208284031215620000cb57600080fd5b81516001600160a01b0381168114620000e357600080fd5b9392505050565b6118c180620000fa6000396000f3fe6080604052600436106100965760003560e01c806354f6127f116100695780637f23690c1161004e5780637f23690c146101745780638da5cb5b14610194578063f2fde38b146101bc57600080fd5b806354f6127f1461013f578063715018a61461015f57600080fd5b806301ffc9a71461009b57806314a6e293146100d057806344c028fe146100f25780634e3e6e9c14610112575b600080fd5b3480156100a757600080fd5b506100bb6100b63660046115b5565b6101dc565b60405190151581526020015b60405180910390f35b3480156100dc57600080fd5b506100f06100eb36600461147a565b610222565b005b6101056101003660046115df565b6102fb565b6040516100c7919061171d565b34801561011e57600080fd5b5061013261012d366004611445565b61098f565b6040516100c791906116bb565b34801561014b57600080fd5b5061010561015a366004611555565b610a43565b34801561016b57600080fd5b506100f0610a4e565b34801561018057600080fd5b506100f061018f36600461156e565b610a62565b3480156101a057600080fd5b506000546040516001600160a01b0390911681526020016100c7565b3480156101c857600080fd5b506100f06101d736600461142a565b610a78565b60006001600160e01b03198216632260147f60e11b148061020d57506001600160e01b03198216631c537ddf60e21b145b8061021c575061021c82610b85565b92915050565b61022a610baa565b80518251146102a65760405162461bcd60e51b815260206004820152602660248201527f4b657973206c656e677468206e6f7420657175616c20746f2076616c7565732060448201527f6c656e677468000000000000000000000000000000000000000000000000000060648201526084015b60405180910390fd5b60005b82518110156102f6576102ee8382815181106102c7576102c761185f565b60200260200101518383815181106102e1576102e161185f565b6020026020010151610c13565b6001016102a9565b505050565b6060610305610baa565b60005a90508661040b578447101561036e5760405162461bcd60e51b815260206004820152602660248201527f455243373235583a20696e73756666696369656e742062616c616e636520666f6044820152651c8818d85b1b60d21b606482015260840161029d565b6103b1868686868080601f016020809104026020016040519081016040528093929190818152602001838380828437600092019190915250879250610c62915050565b9150846001600160a01b038716887f4810874456b8e6487bd861375cf6abd8e1c8bb5858c8ce36a86a04dabfac199e6103ea87896117b4565b6040516001600160e01b0319909116815260200160405180910390a4610985565b60038714156104ca5784156104885760405162461bcd60e51b815260206004820152603860248201527f455243373235583a2063616e6e6f74207472616e736665722076616c7565207760448201527f697468206f7065726174696f6e2053544154494343414c4c0000000000000000606482015260840161029d565b6103b18685858080601f016020809104026020016040519081016040528093929190818152602001838380828437600092019190915250869250610d14915050565b60048714156105895784156105475760405162461bcd60e51b815260206004820152603a60248201527f455243373235583a2063616e6e6f74207472616e736665722076616c7565207760448201527f697468206f7065726174696f6e2044454c454741544543414c4c000000000000606482015260840161029d565b6103b18685858080601f016020809104026020016040519081016040528093929190818152602001838380828437600092019190915250869250610dc2915050565b600187141561072d576001600160a01b0386161561061b5760405162461bcd60e51b815260206004820152604360248201527f455243373235583a20435245415445206f7065726174696f6e7320726571756960448201527f726520746865207265636569766572206164647265737320746f20626520656d60648201526270747960e81b608482015260a40161029d565b8447101561067a5760405162461bcd60e51b815260206004820152602660248201527f455243373235583a20696e73756666696369656e742062616c616e636520666f6044820152651c8818d85b1b60d21b606482015260840161029d565b60006106bc8686868080601f016020809104026020016040519081016040528093929190818152602001838380828437600092019190915250610e1c92505050565b6040516bffffffffffffffffffffffff19606083901b166020820152909150603401604051602081830303815290604052925085816001600160a01b0316897f01c42bd7e97a66166063b02fce6924e6656b6c2c61966630165095c4fb0b7b2f60405160405180910390a450610985565b600287141561093d576001600160a01b038616156107bf5760405162461bcd60e51b815260206004820152604360248201527f455243373235583a20435245415445206f7065726174696f6e7320726571756960448201527f726520746865207265636569766572206164647265737320746f20626520656d60648201526270747960e81b608482015260a40161029d565b8447101561081e5760405162461bcd60e51b815260206004820152602660248201527f455243373235583a20696e73756666696369656e742062616c616e636520666f6044820152651c8818d85b1b60d21b606482015260840161029d565b600061086c85858080601f01602080910402602001604051908101604052809392919081815260200183838082843760009201919091525061086792506020915088905061179d565b610ed0565b905060006108bb86868080601f016020809104026020016040519081016040528093929190818152602001838380828437600092018290525092506108b69150602090508961179d565b610f36565b905060006108ca888484611060565b6040516bffffffffffffffffffffffff19606083901b166020820152909150603401604051602081830303815290604052945087816001600160a01b03168b7f01c42bd7e97a66166063b02fce6924e6656b6c2c61966630165095c4fb0b7b2f60405160405180910390a4505050610985565b60405162461bcd60e51b815260206004820152601460248201527f57726f6e67206f7065726174696f6e2074797065000000000000000000000000604482015260640161029d565b5095945050505050565b6060815167ffffffffffffffff8111156109ab576109ab611875565b6040519080825280602002602001820160405280156109de57816020015b60608152602001906001900390816109c95790505b50905060005b8251811015610a3d57610a0f838281518110610a0257610a0261185f565b602002602001015161116a565b828281518110610a2157610a2161185f565b6020026020010181905250610a368160010190565b90506109e4565b50919050565b606061021c8261116a565b610a56610baa565b610a606000610b08565b565b610a6a610baa565b610a748282610c13565b5050565b610a80610baa565b6001600160a01b038116610afc5760405162461bcd60e51b815260206004820152602660248201527f4f776e61626c653a206e6577206f776e657220697320746865207a65726f206160448201527f6464726573730000000000000000000000000000000000000000000000000000606482015260840161029d565b610b0581610b08565b50565b6000546001600160a01b03828116911614610b0557600080546001600160a01b038381167fffffffffffffffffffffffff0000000000000000000000000000000000000000831681178455604051919092169283917f8be0079c531659141344cd1fd0a4f28419497f9722a3daafe3b4186f6b6457e09190a35050565b60006001600160e01b03198216631c537ddf60e21b148061021c575061021c8261120c565b33610bbd6000546001600160a01b031690565b6001600160a01b031614610a605760405162461bcd60e51b815260206004820181905260248201527f4f776e61626c653a2063616c6c6572206973206e6f7420746865206f776e6572604482015260640161029d565b60008281526001602090815260409091208251610c3292840190611293565b5060405182907fcdf4e344c0d23d4cdd0474039d176c55b19d531070dbe17856bfb993a5b5720b90600090a25050565b6060600080866001600160a01b0316848787604051610c81919061169f565b600060405180830381858888f193505050503d8060008114610cbf576040519150601f19603f3d011682016040523d82523d6000602084013e610cc4565b606091505b5091509150610d0982826040518060400160405280601581526020017f455243373235583a20556e6b6e6f77204572726f72000000000000000000000081525061125a565b979650505050505050565b6060600080856001600160a01b03168486604051610d32919061169f565b6000604051808303818686fa925050503d8060008114610d6e576040519150601f19603f3d011682016040523d82523d6000602084013e610d73565b606091505b5091509150610db882826040518060400160405280601581526020017f455243373235583a20556e6b6e6f77204572726f72000000000000000000000081525061125a565b9695505050505050565b6060600080856001600160a01b03168486604051610de0919061169f565b6000604051808303818686f4925050503d8060008114610d6e576040519150601f19603f3d011682016040523d82523d6000602084013e610d73565b6000815160001415610e705760405162461bcd60e51b815260206004820152601d60248201527f6e6f20636f6e74726163742062797465636f64652070726f7669646564000000604482015260640161029d565b81516020830184f090506001600160a01b03811661021c5760405162461bcd60e51b815260206004820152601960248201527f436f756c64206e6f74206465706c6f7920636f6e747261637400000000000000604482015260640161029d565b6000610edd826020611785565b83511015610f2d5760405162461bcd60e51b815260206004820152601560248201527f746f427974657333325f6f75744f66426f756e64730000000000000000000000604482015260640161029d565b50016020015190565b606081610f4481601f611785565b1015610f925760405162461bcd60e51b815260206004820152600e60248201527f736c6963655f6f766572666c6f77000000000000000000000000000000000000604482015260640161029d565b610f9c8284611785565b84511015610fec5760405162461bcd60e51b815260206004820152601160248201527f736c6963655f6f75744f66426f756e6473000000000000000000000000000000604482015260640161029d565b60608215801561100b5760405191506000825260208201604052611055565b6040519150601f8416801560200281840101858101878315602002848b0101015b8183101561104457805183526020928301920161102c565b5050858452601f01601f1916604052505b5090505b9392505050565b600080844710156110b35760405162461bcd60e51b815260206004820152601d60248201527f437265617465323a20696e73756666696369656e742062616c616e6365000000604482015260640161029d565b82516111015760405162461bcd60e51b815260206004820181905260248201527f437265617465323a2062797465636f6465206c656e677468206973207a65726f604482015260640161029d565b8383516020850187f590506001600160a01b0381166111625760405162461bcd60e51b815260206004820152601960248201527f437265617465323a204661696c6564206f6e206465706c6f7900000000000000604482015260640161029d565b949350505050565b600081815260016020526040902080546060919061118790611814565b80601f01602080910402602001604051908101604052809291908181526020018280546111b390611814565b80156112005780601f106111d557610100808354040283529160200191611200565b820191906000526020600020905b8154815290600101906020018083116111e357829003601f168201915b50505050509050919050565b60006001600160e01b03198216632260147f60e11b148061021c57507f01ffc9a7000000000000000000000000000000000000000000000000000000006001600160e01b031983161461021c565b60608315611269575081611059565b8251156112795782518084602001fd5b8160405162461bcd60e51b815260040161029d919061171d565b82805461129f90611814565b90600052602060002090601f0160209004810192826112c15760008555611307565b82601f106112da57805160ff1916838001178555611307565b82800160010185558215611307579182015b828111156113075782518255916020019190600101906112ec565b50611313929150611317565b5090565b5b808211156113135760008155600101611318565b80356001600160a01b038116811461134357600080fd5b919050565b600082601f83011261135957600080fd5b8135602061136e61136983611761565b611730565b80838252828201915082860187848660051b890101111561138e57600080fd5b60005b858110156113ad57813584529284019290840190600101611391565b5090979650505050505050565b600082601f8301126113cb57600080fd5b813567ffffffffffffffff8111156113e5576113e5611875565b6113f8601f8201601f1916602001611730565b81815284602083860101111561140d57600080fd5b816020850160208301376000918101602001919091529392505050565b60006020828403121561143c57600080fd5b6110598261132c565b60006020828403121561145757600080fd5b813567ffffffffffffffff81111561146e57600080fd5b61116284828501611348565b6000806040838503121561148d57600080fd5b823567ffffffffffffffff808211156114a557600080fd5b6114b186838701611348565b93506020915081850135818111156114c857600080fd5b8501601f810187136114d957600080fd5b80356114e761136982611761565b8082825285820191508584018a878560051b870101111561150757600080fd5b6000805b8581101561154257823588811115611521578283fd5b61152f8e8b838b01016113ba565b865250938801939188019160010161150b565b5050508096505050505050509250929050565b60006020828403121561156757600080fd5b5035919050565b6000806040838503121561158157600080fd5b82359150602083013567ffffffffffffffff81111561159f57600080fd5b6115ab858286016113ba565b9150509250929050565b6000602082840312156115c757600080fd5b81356001600160e01b03198116811461105957600080fd5b6000806000806000608086880312156115f757600080fd5b853594506116076020870161132c565b935060408601359250606086013567ffffffffffffffff8082111561162b57600080fd5b818801915088601f83011261163f57600080fd5b81358181111561164e57600080fd5b89602082850101111561166057600080fd5b9699959850939650602001949392505050565b6000815180845261168b8160208601602086016117e4565b601f01601f19169290920160200192915050565b600082516116b18184602087016117e4565b9190910192915050565b6000602080830181845280855180835260408601915060408160051b870101925083870160005b8281101561171057603f198886030184526116fe858351611673565b945092850192908501906001016116e2565b5092979650505050505050565b6020815260006110596020830184611673565b604051601f8201601f1916810167ffffffffffffffff8111828210171561175957611759611875565b604052919050565b600067ffffffffffffffff82111561177b5761177b611875565b5060051b60200190565b6000821982111561179857611798611849565b500190565b6000828210156117af576117af611849565b500390565b6001600160e01b031981358181169160048510156117dc5780818660040360031b1b83161692505b505092915050565b60005b838110156117ff5781810151838201526020016117e7565b8381111561180e576000848401525b50505050565b600181811c9082168061182857607f821691505b60208210811415610a3d57634e487b7160e01b600052602260045260246000fd5b634e487b7160e01b600052601160045260246000fd5b634e487b7160e01b600052603260045260246000fd5b634e487b7160e01b600052604160045260246000fdfea2646970667358221220107d2caa293ccb382e4074fe33dc0b8b7299b2a480ed8c0c75b353801018027764736f6c63430008070033",
  "linkReferences": {},
  "deployedLinkReferences": {}
}