{
  "_format": "hh-sol-artifact-1",
  "contractName": "LSP8CompatibleERC721MintableInitAbstract",
  "sourceName": "contracts/LSP8IdentifiableDigitalAsset/presets/LSP8CompatibleERC721MintableInitAbstract.sol",
  "abi": [
    {
      "inputs": [],
      "name": "LSP4TokenNameNotEditable",
      "type": "error"
    },
    {
      "inputs": [],
      "name": "LSP4TokenSymbolNotEditable",
      "type": "error"
    },
    {
      "inputs": [],
      "name": "LSP8CannotSendToAddressZero",
      "type": "error"
    },
    {
      "inputs": [],
      "name": "LSP8CannotUseAddressZeroAsOperator",
      "type": "error"
    },
    {
      "inputs": [],
      "name": "LSP8InvalidTransferBatch",
      "type": "error"
    },
    {
      "inputs": [
        {
          "internalType": "bytes32",
          "name": "tokenId",
          "type": "bytes32"
        }
      ],
      "name": "LSP8NonExistentTokenId",
      "type": "error"
    },
    {
      "inputs": [
        {
          "internalType": "bytes32",
          "name": "tokenId",
          "type": "bytes32"
        },
        {
          "internalType": "address",
          "name": "caller",
          "type": "address"
        }
      ],
      "name": "LSP8NotTokenOperator",
      "type": "error"
    },
    {
      "inputs": [
        {
          "internalType": "address",
          "name": "tokenOwner",
          "type": "address"
        },
        {
          "internalType": "bytes32",
          "name": "tokenId",
          "type": "bytes32"
        },
        {
          "internalType": "address",
          "name": "caller",
          "type": "address"
        }
      ],
      "name": "LSP8NotTokenOwner",
      "type": "error"
    },
    {
      "inputs": [
        {
          "internalType": "address",
          "name": "tokenReceiver",
          "type": "address"
        }
      ],
      "name": "LSP8NotifyTokenReceiverContractMissingLSP1Interface",
      "type": "error"
    },
    {
      "inputs": [
        {
          "internalType": "address",
          "name": "tokenReceiver",
          "type": "address"
        }
      ],
      "name": "LSP8NotifyTokenReceiverIsEOA",
      "type": "error"
    },
    {
      "inputs": [
        {
          "internalType": "bytes32",
          "name": "tokenId",
          "type": "bytes32"
        }
      ],
      "name": "LSP8TokenIdAlreadyMinted",
      "type": "error"
    },
    {
      "anonymous": false,
      "inputs": [
        {
          "indexed": true,
          "internalType": "address",
          "name": "owner",
          "type": "address"
        },
        {
          "indexed": true,
          "internalType": "address",
          "name": "approved",
          "type": "address"
        },
        {
          "indexed": true,
          "internalType": "uint256",
          "name": "tokenId",
          "type": "uint256"
        }
      ],
      "name": "Approval",
      "type": "event"
    },
    {
      "anonymous": false,
      "inputs": [
        {
          "indexed": true,
          "internalType": "address",
          "name": "operator",
          "type": "address"
        },
        {
          "indexed": true,
          "internalType": "address",
          "name": "tokenOwner",
          "type": "address"
        },
        {
          "indexed": true,
          "internalType": "bytes32",
          "name": "tokenId",
          "type": "bytes32"
        }
      ],
      "name": "AuthorizedOperator",
      "type": "event"
    },
    {
      "anonymous": false,
      "inputs": [
        {
          "indexed": true,
          "internalType": "bytes32",
          "name": "dataKey",
          "type": "bytes32"
        }
      ],
      "name": "DataChanged",
      "type": "event"
    },
    {
      "anonymous": false,
      "inputs": [
        {
          "indexed": false,
          "internalType": "uint8",
          "name": "version",
          "type": "uint8"
        }
      ],
      "name": "Initialized",
      "type": "event"
    },
    {
      "anonymous": false,
      "inputs": [
        {
          "indexed": true,
          "internalType": "address",
          "name": "previousOwner",
          "type": "address"
        },
        {
          "indexed": true,
          "internalType": "address",
          "name": "newOwner",
          "type": "address"
        }
      ],
      "name": "OwnershipTransferred",
      "type": "event"
    },
    {
      "anonymous": false,
      "inputs": [
        {
          "indexed": true,
          "internalType": "address",
          "name": "operator",
          "type": "address"
        },
        {
          "indexed": true,
          "internalType": "address",
          "name": "tokenOwner",
          "type": "address"
        },
        {
          "indexed": true,
          "internalType": "bytes32",
          "name": "tokenId",
          "type": "bytes32"
        }
      ],
      "name": "RevokedOperator",
      "type": "event"
    },
    {
      "anonymous": false,
      "inputs": [
        {
          "indexed": true,
          "internalType": "address",
          "name": "from",
          "type": "address"
        },
        {
          "indexed": true,
          "internalType": "address",
          "name": "to",
          "type": "address"
        },
        {
          "indexed": true,
          "internalType": "uint256",
          "name": "tokenId",
          "type": "uint256"
        }
      ],
      "name": "Transfer",
      "type": "event"
    },
    {
      "anonymous": false,
      "inputs": [
        {
          "indexed": false,
          "internalType": "address",
          "name": "operator",
          "type": "address"
        },
        {
          "indexed": true,
          "internalType": "address",
          "name": "from",
          "type": "address"
        },
        {
          "indexed": true,
          "internalType": "address",
          "name": "to",
          "type": "address"
        },
        {
          "indexed": true,
          "internalType": "bytes32",
          "name": "tokenId",
          "type": "bytes32"
        },
        {
          "indexed": false,
          "internalType": "bool",
          "name": "force",
          "type": "bool"
        },
        {
          "indexed": false,
          "internalType": "bytes",
          "name": "data",
          "type": "bytes"
        }
      ],
      "name": "Transfer",
      "type": "event"
    },
    {
      "inputs": [
        {
          "internalType": "address",
          "name": "operator",
          "type": "address"
        },
        {
          "internalType": "uint256",
          "name": "tokenId",
          "type": "uint256"
        }
      ],
      "name": "approve",
      "outputs": [],
      "stateMutability": "nonpayable",
      "type": "function"
    },
    {
      "inputs": [
        {
          "internalType": "address",
          "name": "operator",
          "type": "address"
        },
        {
          "internalType": "bytes32",
          "name": "tokenId",
          "type": "bytes32"
        }
      ],
      "name": "authorizeOperator",
      "outputs": [],
      "stateMutability": "nonpayable",
      "type": "function"
    },
    {
      "inputs": [
        {
          "internalType": "address",
          "name": "tokenOwner",
          "type": "address"
        }
      ],
      "name": "balanceOf",
      "outputs": [
        {
          "internalType": "uint256",
          "name": "",
          "type": "uint256"
        }
      ],
      "stateMutability": "view",
      "type": "function"
    },
    {
      "inputs": [
        {
          "internalType": "uint256",
          "name": "tokenId",
          "type": "uint256"
        }
      ],
      "name": "getApproved",
      "outputs": [
        {
          "internalType": "address",
          "name": "",
          "type": "address"
        }
      ],
      "stateMutability": "view",
      "type": "function"
    },
    {
      "inputs": [
        {
          "internalType": "bytes32[]",
          "name": "dataKeys",
          "type": "bytes32[]"
        }
      ],
      "name": "getData",
      "outputs": [
        {
          "internalType": "bytes[]",
          "name": "dataValues",
          "type": "bytes[]"
        }
      ],
      "stateMutability": "view",
      "type": "function"
    },
    {
      "inputs": [
        {
          "internalType": "bytes32",
          "name": "dataKey",
          "type": "bytes32"
        }
      ],
      "name": "getData",
      "outputs": [
        {
          "internalType": "bytes",
          "name": "dataValue",
          "type": "bytes"
        }
      ],
      "stateMutability": "view",
      "type": "function"
    },
    {
      "inputs": [
        {
          "internalType": "bytes32",
          "name": "tokenId",
          "type": "bytes32"
        }
      ],
      "name": "getOperatorsOf",
      "outputs": [
        {
          "internalType": "address[]",
          "name": "",
          "type": "address[]"
        }
      ],
      "stateMutability": "view",
      "type": "function"
    },
    {
      "inputs": [],
      "name": "initialized",
      "outputs": [
        {
          "internalType": "uint8",
          "name": "",
          "type": "uint8"
        }
      ],
      "stateMutability": "view",
      "type": "function"
    },
    {
      "inputs": [],
      "name": "initializing",
      "outputs": [
        {
          "internalType": "bool",
          "name": "",
          "type": "bool"
        }
      ],
      "stateMutability": "view",
      "type": "function"
    },
    {
      "inputs": [
        {
          "internalType": "address",
          "name": "tokenOwner",
          "type": "address"
        },
        {
          "internalType": "address",
          "name": "operator",
          "type": "address"
        }
      ],
      "name": "isApprovedForAll",
      "outputs": [
        {
          "internalType": "bool",
          "name": "",
          "type": "bool"
        }
      ],
      "stateMutability": "view",
      "type": "function"
    },
    {
      "inputs": [
        {
          "internalType": "address",
          "name": "operator",
          "type": "address"
        },
        {
          "internalType": "bytes32",
          "name": "tokenId",
          "type": "bytes32"
        }
      ],
      "name": "isOperatorFor",
      "outputs": [
        {
          "internalType": "bool",
          "name": "",
          "type": "bool"
        }
      ],
      "stateMutability": "view",
      "type": "function"
    },
    {
      "inputs": [
        {
          "internalType": "address",
          "name": "to",
          "type": "address"
        },
        {
          "internalType": "bytes32",
          "name": "tokenId",
          "type": "bytes32"
        },
        {
          "internalType": "bool",
          "name": "force",
          "type": "bool"
        },
        {
          "internalType": "bytes",
          "name": "data",
          "type": "bytes"
        }
      ],
      "name": "mint",
      "outputs": [],
      "stateMutability": "nonpayable",
      "type": "function"
    },
    {
      "inputs": [],
      "name": "name",
      "outputs": [
        {
          "internalType": "string",
          "name": "",
          "type": "string"
        }
      ],
      "stateMutability": "view",
      "type": "function"
    },
    {
      "inputs": [],
      "name": "owner",
      "outputs": [
        {
          "internalType": "address",
          "name": "",
          "type": "address"
        }
      ],
      "stateMutability": "view",
      "type": "function"
    },
    {
      "inputs": [
        {
          "internalType": "uint256",
          "name": "tokenId",
          "type": "uint256"
        }
      ],
      "name": "ownerOf",
      "outputs": [
        {
          "internalType": "address",
          "name": "",
          "type": "address"
        }
      ],
      "stateMutability": "view",
      "type": "function"
    },
    {
      "inputs": [],
      "name": "renounceOwnership",
      "outputs": [],
      "stateMutability": "nonpayable",
      "type": "function"
    },
    {
      "inputs": [
        {
          "internalType": "address",
          "name": "operator",
          "type": "address"
        },
        {
          "internalType": "bytes32",
          "name": "tokenId",
          "type": "bytes32"
        }
      ],
      "name": "revokeOperator",
      "outputs": [],
      "stateMutability": "nonpayable",
      "type": "function"
    },
    {
      "inputs": [
        {
          "internalType": "address",
          "name": "from",
          "type": "address"
        },
        {
          "internalType": "address",
          "name": "to",
          "type": "address"
        },
        {
          "internalType": "uint256",
          "name": "tokenId",
          "type": "uint256"
        }
      ],
      "name": "safeTransferFrom",
      "outputs": [],
      "stateMutability": "nonpayable",
      "type": "function"
    },
    {
      "inputs": [
        {
          "internalType": "address",
          "name": "from",
          "type": "address"
        },
        {
          "internalType": "address",
          "name": "to",
          "type": "address"
        },
        {
          "internalType": "uint256",
          "name": "tokenId",
          "type": "uint256"
        },
        {
          "internalType": "bytes",
          "name": "data",
          "type": "bytes"
        }
      ],
      "name": "safeTransferFrom",
      "outputs": [],
      "stateMutability": "nonpayable",
      "type": "function"
    },
    {
      "inputs": [
        {
          "internalType": "bytes32[]",
          "name": "dataKeys",
          "type": "bytes32[]"
        },
        {
          "internalType": "bytes[]",
          "name": "dataValues",
          "type": "bytes[]"
        }
      ],
      "name": "setData",
      "outputs": [],
      "stateMutability": "nonpayable",
      "type": "function"
    },
    {
      "inputs": [
        {
          "internalType": "bytes32",
          "name": "dataKey",
          "type": "bytes32"
        },
        {
          "internalType": "bytes",
          "name": "dataValue",
          "type": "bytes"
        }
      ],
      "name": "setData",
      "outputs": [],
      "stateMutability": "nonpayable",
      "type": "function"
    },
    {
      "inputs": [
        {
          "internalType": "bytes4",
          "name": "interfaceId",
          "type": "bytes4"
        }
      ],
      "name": "supportsInterface",
      "outputs": [
        {
          "internalType": "bool",
          "name": "",
          "type": "bool"
        }
      ],
      "stateMutability": "view",
      "type": "function"
    },
    {
      "inputs": [],
      "name": "symbol",
      "outputs": [
        {
          "internalType": "string",
          "name": "",
          "type": "string"
        }
      ],
      "stateMutability": "view",
      "type": "function"
    },
    {
      "inputs": [
        {
          "internalType": "address",
          "name": "tokenOwner",
          "type": "address"
        }
      ],
      "name": "tokenIdsOf",
      "outputs": [
        {
          "internalType": "bytes32[]",
          "name": "",
          "type": "bytes32[]"
        }
      ],
      "stateMutability": "view",
      "type": "function"
    },
    {
      "inputs": [
        {
          "internalType": "bytes32",
          "name": "tokenId",
          "type": "bytes32"
        }
      ],
      "name": "tokenOwnerOf",
      "outputs": [
        {
          "internalType": "address",
          "name": "",
          "type": "address"
        }
      ],
      "stateMutability": "view",
      "type": "function"
    },
    {
      "inputs": [
        {
          "internalType": "uint256",
          "name": "tokenId",
          "type": "uint256"
        }
      ],
      "name": "tokenURI",
      "outputs": [
        {
          "internalType": "string",
          "name": "",
          "type": "string"
        }
      ],
      "stateMutability": "view",
      "type": "function"
    },
    {
      "inputs": [],
      "name": "totalSupply",
      "outputs": [
        {
          "internalType": "uint256",
          "name": "",
          "type": "uint256"
        }
      ],
      "stateMutability": "view",
      "type": "function"
    },
    {
      "inputs": [
        {
          "internalType": "address",
          "name": "from",
          "type": "address"
        },
        {
          "internalType": "address",
          "name": "to",
          "type": "address"
        },
        {
          "internalType": "bytes32",
          "name": "tokenId",
          "type": "bytes32"
        },
        {
          "internalType": "bool",
          "name": "force",
          "type": "bool"
        },
        {
          "internalType": "bytes",
          "name": "data",
          "type": "bytes"
        }
      ],
      "name": "transfer",
      "outputs": [],
      "stateMutability": "nonpayable",
      "type": "function"
    },
    {
      "inputs": [
        {
          "internalType": "address[]",
          "name": "from",
          "type": "address[]"
        },
        {
          "internalType": "address[]",
          "name": "to",
          "type": "address[]"
        },
        {
          "internalType": "bytes32[]",
          "name": "tokenId",
          "type": "bytes32[]"
        },
        {
          "internalType": "bool",
          "name": "force",
          "type": "bool"
        },
        {
          "internalType": "bytes[]",
          "name": "data",
          "type": "bytes[]"
        }
      ],
      "name": "transferBatch",
      "outputs": [],
      "stateMutability": "nonpayable",
      "type": "function"
    },
    {
      "inputs": [
        {
          "internalType": "address",
          "name": "from",
          "type": "address"
        },
        {
          "internalType": "address",
          "name": "to",
          "type": "address"
        },
        {
          "internalType": "uint256",
          "name": "tokenId",
          "type": "uint256"
        }
      ],
      "name": "transferFrom",
      "outputs": [],
      "stateMutability": "nonpayable",
      "type": "function"
    },
    {
      "inputs": [
        {
          "internalType": "address",
          "name": "newOwner",
          "type": "address"
        }
      ],
      "name": "transferOwnership",
      "outputs": [],
      "stateMutability": "nonpayable",
      "type": "function"
    }
  ],
  "bytecode": "0x608060405234801561001057600080fd5b50612699806100206000396000f3fe608060405234801561001057600080fd5b50600436106101e55760003560e01c8063511b69521161010f57806395d89b41116100a2578063c87b56dd11610071578063c87b56dd1461042f578063cf5182ba14610442578063e985e9c514610455578063f2fde38b1461046b57600080fd5b806395d89b41146103e1578063a3b261f2146103e9578063af255b6114610409578063b88d4fde1461041c57600080fd5b806370a08231116100de57806370a082311461039c578063715018a6146103af5780637f23690c146103b75780638da5cb5b146103ca57600080fd5b8063511b69521461035057806354f6127f1461036357806355908868146103765780636352211e1461038957600080fd5b806318160ddd116101875780632a3654a4116101565780632a3654a4146102ea57806342842e0e146102fd57806349a6078d146103105780634e3e6e9c1461033057600080fd5b806318160ddd146102a2578063217b2270146102b457806323b872dd146102c75780632599f159146102da57600080fd5b8063095ea7b3116101c3578063095ea7b3146102525780630b0c6d821461026757806314a6e2931461027a578063158ef93e1461028d57600080fd5b806301ffc9a7146101ea57806306fdde0314610212578063081812fc14610227575b600080fd5b6101fd6101f8366004612260565b61047e565b60405190151581526020015b60405180910390f35b61021a6104f6565b60405161020991906124d0565b61023a61023536600461220a565b610523565b6040516001600160a01b039091168152602001610209565b610265610260366004612046565b610577565b005b610265610275366004612046565b6105ce565b6102656102883660046121a6565b61067c565b60005460405160ff9091168152602001610209565b6002545b604051908152602001610209565b61023a6102c236600461220a565b610750565b6102656102d5366004611fa2565b610789565b600054610100900460ff166101fd565b6101fd6102f8366004612046565b6107a9565b61026561030b366004611fa2565b6107c5565b61032361031e36600461220a565b6107e5565b60405161020991906123d0565b61034361033e366004612171565b610807565b6040516102099190612455565b61026561035e366004611f29565b6108bb565b61021a61037136600461220a565b610923565b6102656103843660046120c0565b61092e565b61023a61039736600461220a565b610a14565b6102a66103aa366004611edb565b610a1f565b610265610a40565b6102656103c5366004612223565b610a54565b6000546201000090046001600160a01b031661023a565b61021a610a6a565b6103fc6103f7366004611edb565b610a97565b604051610209919061241d565b610265610417366004612070565b610abb565b61026561042a366004611fde565b610acf565b61021a61043d36600461220a565b610add565b610265610450366004612046565b610b2b565b6101fd610463366004611ef6565b600092915050565b610265610479366004611edb565b610b35565b60006001600160e01b031982167f80ac58cd0000000000000000000000000000000000000000000000000000000014806104e157506001600160e01b031982167f5b5e139f00000000000000000000000000000000000000000000000000000000145b806104f057506104f082610bc5565b92915050565b606060006104f07fdeba1e292f8ba88238e10ab3c7f88bd4be4fac56cad5194b6ecceaf653468af1610c03565b60008161052f81610ca5565b60008181526005602052604081209061054782610cdd565b90508061055957506000949350505050565b61056e610567600183612578565b8390610ce7565b95945050505050565b6105818282610b2b565b806001600160a01b03831661059582610750565b6001600160a01b03167f8c5be1e5ebec7d5bd14f71427d1e84f3dd0314c0f7b2291e5b200ac8c7c3b92560405160405180910390a45050565b60006105d982610750565b9050336001600160a01b038216811461062457604051632d938f5160e11b81526001600160a01b03808416600483015260248201859052821660448201526064015b60405180910390fd5b6001600160a01b03841661064b57604051639577b8b360e01b815260040160405180910390fd5b836001600160a01b0316826001600160a01b0316141561066b5750505050565b610676848385610cf3565b50505050565b610684610d52565b80518251146106fb5760405162461bcd60e51b815260206004820152602660248201527f4b657973206c656e677468206e6f7420657175616c20746f2076616c7565732060448201527f6c656e6774680000000000000000000000000000000000000000000000000000606482015260840161061b565b60005b825181101561074b5761074383828151811061071c5761071c612637565b602002602001015183838151811061073657610736612637565b6020026020010151610db3565b6001016106fe565b505050565b6000818152600360205260408120546001600160a01b0316806104f057604051635747cd1b60e11b81526004810184905260240161061b565b61074b83838360001b6001604051806020016040528060008152506108bb565b60006107b482610ca5565b6107be8383610dbd565b9392505050565b61074b83838360001b6000604051806020016040528060008152506108bb565b60606107f082610ca5565b60008281526005602052604090206104f090610e06565b6060815167ffffffffffffffff8111156108235761082361264d565b60405190808252806020026020018201604052801561085657816020015b60608152602001906001900390816108415790505b50905060005b82518110156108b55761088783828151811061087a5761087a612637565b6020026020010151610c03565b82828151811061089957610899612637565b60200260200101819052506108ae8160010190565b905061085c565b50919050565b336108c68185610dbd565b61090e576040517f1294d2a9000000000000000000000000000000000000000000000000000000008152600481018590526001600160a01b038216602482015260440161061b565b61091b8686868686610e13565b505050505050565b60606104f082610c03565b8351855114158061094157508251855114155b8061094e57508051855114155b15610985576040517f93a8311900000000000000000000000000000000000000000000000000000000815260040160405180910390fd5b60005b855181101561091b57610a028682815181106109a6576109a6612637565b60200260200101518683815181106109c0576109c0612637565b60200260200101518684815181106109da576109da612637565b6020026020010151868686815181106109f5576109f5612637565b60200260200101516108bb565b80610a0c816125f0565b915050610988565b60006104f082610750565b6001600160a01b03811660009081526004602052604081206104f090610cdd565b610a48610d52565b610a526000610e27565b565b610a5c610d52565b610a668282610db3565b5050565b606060006104f07f2f0a68ab07768e01943a599e73362a0e17a63a72e94dd2e384d2c1d4db932756610c03565b6001600160a01b03811660009081526004602052604090206060906104f090610eb3565b610ac3610d52565b61067684848484610ebe565b6106768484846000856108bb565b60606000610b0a7f9afb95cacc9f95858ec44aa8c3b685511002e30ae54415823f406128b85b238e610c03565b9050600060249050600061056e8383848651610b269190612578565b610eca565b610a668282610ff2565b610b3d610d52565b6001600160a01b038116610bb95760405162461bcd60e51b815260206004820152602660248201527f4f776e61626c653a206e6577206f776e657220697320746865207a65726f206160448201527f6464726573730000000000000000000000000000000000000000000000000000606482015260840161061b565b610bc281610e27565b50565b60006001600160e01b031982167f493991450000000000000000000000000000000000000000000000000000000014806104f057506104f08261103d565b6000818152600160205260409020805460609190610c20906125bb565b80601f0160208091040260200160405190810160405280929190818152602001828054610c4c906125bb565b8015610c995780601f10610c6e57610100808354040283529160200191610c99565b820191906000526020600020905b815481529060010190602001808311610c7c57829003601f168201915b50505050509050919050565b6000818152600360205260409020546001600160a01b0316610bc257604051635747cd1b60e11b81526004810182905260240161061b565b60006104f0825490565b60006107be838361108b565b6000818152600560205260409020610d0b90846110b5565b5080826001600160a01b0316846001600160a01b03167f17d5389f6ab6adb2647dfa0aa365c323d37adacc30b33a65310b6158ce1373d560405160405180910390a4505050565b6000546001600160a01b0362010000909104163314610a525760405162461bcd60e51b815260206004820181905260248201527f4f776e61626c653a2063616c6c6572206973206e6f7420746865206f776e6572604482015260640161061b565b610a6682826110ca565b600080610dc983610750565b9050806001600160a01b0316846001600160a01b03161480610dfe57506000838152600560205260409020610dfe9085611188565b949350505050565b606060006107be836111aa565b610e208585858585611205565b5050505050565b6000546001600160a01b03828116620100009092041614610bc257600080546001600160a01b03838116620100008181027fffffffffffffffffffff0000000000000000000000000000000000000000ffff851617855560405193049190911692909183917f8be0079c531659141344cd1fd0a4f28419497f9722a3daafe3b4186f6b6457e091a35050565b60606104f0826111aa565b61067684848484611287565b606081610ed881601f612560565b1015610f265760405162461bcd60e51b815260206004820152600e60248201527f736c6963655f6f766572666c6f77000000000000000000000000000000000000604482015260640161061b565b610f308284612560565b84511015610f805760405162461bcd60e51b815260206004820152601160248201527f736c6963655f6f75744f66426f756e6473000000000000000000000000000000604482015260640161061b565b606082158015610f9f5760405191506000825260208201604052610fe9565b6040519150601f8416801560200281840101858101878315602002848b0101015b81831015610fd8578051835260209283019201610fc0565b5050858452601f01601f1916604052505b50949350505050565b610ffc82826112fd565b60408051602081018390520160405160208183030381529060405280602001905181019061102a91906122f8565b826001600160a01b031661059583610750565b60006001600160e01b031982167f714df77c0000000000000000000000000000000000000000000000000000000014806104f057506301ffc9a760e01b6001600160e01b03198316146104f0565b60008260000182815481106110a2576110a2612637565b9060005260206000200154905092915050565b60006107be836001600160a01b0384166113f5565b7fdeba1e292f8ba88238e10ab3c7f88bd4be4fac56cad5194b6ecceaf653468af1821415611124576040517f85c169bd00000000000000000000000000000000000000000000000000000000815260040160405180910390fd5b7f2f0a68ab07768e01943a599e73362a0e17a63a72e94dd2e384d2c1d4db93275682141561117e576040517f76755b3800000000000000000000000000000000000000000000000000000000815260040160405180910390fd5b610a6682826114e8565b6001600160a01b038116600090815260018301602052604081205415156107be565b606081600001805480602002602001604051908101604052809291908181526020018280548015610c9957602002820191906000526020600020905b8154815260200190600101908083116111e65750505050509050919050565b6112128585858585611537565b60408051602081018590520160405160208183030381529060405280602001905181019061124091906122f8565b846001600160a01b0316866001600160a01b03167fddf252ad1be2c89b69c2b068fc378daa952ba7f163c4a11628f55a4df523b3ef60405160405180910390a45050505050565b611293848484846116b0565b6040805160208101859052016040516020818303038152906040528060200190518101906112c191906122f8565b6040516001600160a01b038616906000907fddf252ad1be2c89b69c2b068fc378daa952ba7f163c4a11628f55a4df523b3ef908290a450505050565b600061130882610750565b9050336001600160a01b038216811461134e57604051632d938f5160e11b81526001600160a01b038084166004830152602482018590528216604482015260640161061b565b6001600160a01b03841661137557604051639577b8b360e01b815260040160405180910390fd5b836001600160a01b0316826001600160a01b031614156113955750505050565b60008381526005602052604090206113ad90856117dd565b5082826001600160a01b0316856001600160a01b03167f34b797fc5a526f7bf1d2b5de25f6564fd85ae364e3ee939aee7c1ac27871a98860405160405180910390a450505050565b600081815260018301602052604081205480156114de576000611419600183612578565b855490915060009061142d90600190612578565b905081811461149257600086600001828154811061144d5761144d612637565b906000526020600020015490508087600001848154811061147057611470612637565b6000918252602080832090910192909255918252600188019052604090208390555b85548690806114a3576114a3612621565b6001900381819060005260206000200160009055905585600101600086815260200190815260200160002060009055600193505050506104f0565b60009150506104f0565b6000828152600160209081526040909120825161150792840190611c5a565b5060405182907fcdf4e344c0d23d4cdd0474039d176c55b19d531070dbe17856bfb993a5b5720b90600090a25050565b600061154284610750565b9050856001600160a01b0316816001600160a01b03161461159057604051632d938f5160e11b81526001600160a01b038083166004830152602482018690528716604482015260640161061b565b6001600160a01b0385166115b7576040516324ecef4d60e01b815260040160405180910390fd5b336115c38787876117f2565b6115cd8786611844565b6001600160a01b03871660009081526004602052604090206115ef9086611895565b506001600160a01b038616600090815260046020526040902061161290866118a1565b5060008581526003602052604090819020805473ffffffffffffffffffffffffffffffffffffffff19166001600160a01b0389811691821790925591518792918a16907fb333c813a7426a7a11e2b190cad52c44119421594b47f6f32ace6d8c7207b2bf906116869086908a908a906123a6565b60405180910390a461169a878787866118ad565b6116a78787878787611990565b50505050505050565b6001600160a01b0384166116d7576040516324ecef4d60e01b815260040160405180910390fd5b6000838152600360205260409020546001600160a01b031615611729576040517f34c7b5110000000000000000000000000000000000000000000000000000000081526004810184905260240161061b565b33611736600086866117f2565b6001600160a01b038516600090815260046020526040902061175890856118a1565b50600084815260036020526040808220805473ffffffffffffffffffffffffffffffffffffffff19166001600160a01b03891690811790915590518692907fb333c813a7426a7a11e2b190cad52c44119421594b47f6f32ace6d8c7207b2bf906117c7908690899089906123a6565b60405180910390a4610e20600086868686611990565b60006107be836001600160a01b038416611b09565b6001600160a01b038316611819576001600260008282546118139190612560565b90915550505b6001600160a01b03821661074b5760016002600082825461183a9190612578565b9091555050505050565b60008181526005602052604081209061185c82610cdd565b905060005b81811015610e205760006118758482610ce7565b9050611882818787610cf3565b508061188d816125f0565b915050611861565b60006107be83836113f5565b60006107be8383611b09565b6118be84631aed5a8560e21b611b58565b15610676576000848484846040516020016118dc949392919061233d565b60408051601f1981840301815290829052631aed5a8560e21b825291506001600160a01b03861690636bb56a149061193a907f3724c94f0815e936299cca424da4140752198e0beb7931a6e0925d11bc97544c9085906004016124b7565b600060405180830381600087803b15801561195457600080fd5b505af1158015611968573d6000803e3d6000fd5b505050506040513d6000823e601f3d908101601f1916820160405261091b919081019061228a565b6119a184631aed5a8560e21b611b58565b15611a7a576000858585846040516020016119bf949392919061233d565b60408051601f1981840301815290829052631aed5a8560e21b825291506001600160a01b03861690636bb56a1490611a1d907fc7a120a42b6057a0cbed111fbbfbd52fcd96748c04394f77fc2c3adbe0391e019085906004016124b7565b600060405180830381600087803b158015611a3757600080fd5b505af1158015611a4b573d6000803e3d6000fd5b505050506040513d6000823e601f3d908101601f19168201604052611a73919081019061228a565b5050610e20565b81610e20576001600160a01b0384163b15611acc576040517f4349776d0000000000000000000000000000000000000000000000000000000081526001600160a01b038516600482015260240161061b565b6040517f031731370000000000000000000000000000000000000000000000000000000081526001600160a01b038516600482015260240161061b565b6000818152600183016020526040812054611b50575081546001818101845560008481526020808220909301849055845484825282860190935260409020919091556104f0565b5060006104f0565b604080516001600160e01b0319831660248083019190915282518083039091018152604490910182526020810180517bffffffffffffffffffffffffffffffffffffffffffffffffffffffff166301ffc9a760e01b179052905160009190829081906001600160a01b0387169061753090611bd490869061238a565b6000604051808303818686fa925050503d8060008114611c10576040519150601f19603f3d011682016040523d82523d6000602084013e611c15565b606091505b5091509150602081511015611c3057600093505050506104f0565b818015611c505750600081806020019051810190611c4e91906122f8565b115b9695505050505050565b828054611c66906125bb565b90600052602060002090601f016020900481019282611c885760008555611cce565b82601f10611ca157805160ff1916838001178555611cce565b82800160010185558215611cce579182015b82811115611cce578251825591602001919060010190611cb3565b50611cda929150611cde565b5090565b5b80821115611cda5760008155600101611cdf565b80356001600160a01b0381168114611d0a57600080fd5b919050565b600082601f830112611d2057600080fd5b81356020611d35611d3083612514565b6124e3565b80838252828201915082860187848660051b8901011115611d5557600080fd5b60005b85811015611d7b57611d6982611cf3565b84529284019290840190600101611d58565b5090979650505050505050565b600082601f830112611d9957600080fd5b81356020611da9611d3083612514565b80838252828201915082860187848660051b8901011115611dc957600080fd5b60005b85811015611d7b57813584529284019290840190600101611dcc565b600082601f830112611df957600080fd5b81356020611e09611d3083612514565b80838252828201915082860187848660051b8901011115611e2957600080fd5b6000805b86811015611e6c57823567ffffffffffffffff811115611e4b578283fd5b611e598b88838d0101611e8a565b8652509385019391850191600101611e2d565b509198975050505050505050565b80358015158114611d0a57600080fd5b600082601f830112611e9b57600080fd5b8135611ea9611d3082612538565b818152846020838601011115611ebe57600080fd5b816020850160208301376000918101602001919091529392505050565b600060208284031215611eed57600080fd5b6107be82611cf3565b60008060408385031215611f0957600080fd5b611f1283611cf3565b9150611f2060208401611cf3565b90509250929050565b600080600080600060a08688031215611f4157600080fd5b611f4a86611cf3565b9450611f5860208701611cf3565b935060408601359250611f6d60608701611e7a565b9150608086013567ffffffffffffffff811115611f8957600080fd5b611f9588828901611e8a565b9150509295509295909350565b600080600060608486031215611fb757600080fd5b611fc084611cf3565b9250611fce60208501611cf3565b9150604084013590509250925092565b60008060008060808587031215611ff457600080fd5b611ffd85611cf3565b935061200b60208601611cf3565b925060408501359150606085013567ffffffffffffffff81111561202e57600080fd5b61203a87828801611e8a565b91505092959194509250565b6000806040838503121561205957600080fd5b61206283611cf3565b946020939093013593505050565b6000806000806080858703121561208657600080fd5b61208f85611cf3565b9350602085013592506120a460408601611e7a565b9150606085013567ffffffffffffffff81111561202e57600080fd5b600080600080600060a086880312156120d857600080fd5b853567ffffffffffffffff808211156120f057600080fd5b6120fc89838a01611d0f565b9650602088013591508082111561211257600080fd5b61211e89838a01611d0f565b9550604088013591508082111561213457600080fd5b61214089838a01611d88565b945061214e60608901611e7a565b9350608088013591508082111561216457600080fd5b50611f9588828901611de8565b60006020828403121561218357600080fd5b813567ffffffffffffffff81111561219a57600080fd5b610dfe84828501611d88565b600080604083850312156121b957600080fd5b823567ffffffffffffffff808211156121d157600080fd5b6121dd86838701611d88565b935060208501359150808211156121f357600080fd5b5061220085828601611de8565b9150509250929050565b60006020828403121561221c57600080fd5b5035919050565b6000806040838503121561223657600080fd5b82359150602083013567ffffffffffffffff81111561225457600080fd5b61220085828601611e8a565b60006020828403121561227257600080fd5b81356001600160e01b0319811681146107be57600080fd5b60006020828403121561229c57600080fd5b815167ffffffffffffffff8111156122b357600080fd5b8201601f810184136122c457600080fd5b80516122d2611d3082612538565b8181528560208385010111156122e757600080fd5b61056e82602083016020860161258f565b60006020828403121561230a57600080fd5b5051919050565b6000815180845261232981602086016020860161258f565b601f01601f19169290920160200192915050565b60006bffffffffffffffffffffffff19808760601b168352808660601b16601484015250836028830152825161237a81604885016020870161258f565b9190910160480195945050505050565b6000825161239c81846020870161258f565b9190910192915050565b6001600160a01b0384168152821515602082015260606040820152600061056e6060830184612311565b6020808252825182820181905260009190848201906040850190845b818110156124115783516001600160a01b0316835292840192918401916001016123ec565b50909695505050505050565b6020808252825182820181905260009190848201906040850190845b8181101561241157835183529284019291840191600101612439565b6000602080830181845280855180835260408601915060408160051b870101925083870160005b828110156124aa57603f19888603018452612498858351612311565b9450928501929085019060010161247c565b5092979650505050505050565b828152604060208201526000610dfe6040830184612311565b6020815260006107be6020830184612311565b604051601f8201601f1916810167ffffffffffffffff8111828210171561250c5761250c61264d565b604052919050565b600067ffffffffffffffff82111561252e5761252e61264d565b5060051b60200190565b600067ffffffffffffffff8211156125525761255261264d565b50601f01601f191660200190565b600082198211156125735761257361260b565b500190565b60008282101561258a5761258a61260b565b500390565b60005b838110156125aa578181015183820152602001612592565b838111156106765750506000910152565b600181811c908216806125cf57607f821691505b602082108114156108b557634e487b7160e01b600052602260045260246000fd5b60006000198214156126045761260461260b565b5060010190565b634e487b7160e01b600052601160045260246000fd5b634e487b7160e01b600052603160045260246000fd5b634e487b7160e01b600052603260045260246000fd5b634e487b7160e01b600052604160045260246000fdfea264697066735822122047958015bc80bc58b1bd9a49d28f58a3fa8a7adbba9a89ec660a029c5f7e275164736f6c63430008070033",
  "linkReferences": {},
  "deployedLinkReferences": {}
}