{
  "_format": "hh-sol-artifact-1",
  "contractName": "LSP7CappedSupplyInitTester",
  "sourceName": "contracts/Helpers/Tokens/LSP7CappedSupplyInitTester.sol",
  "abi": [
    {
      "inputs": [],
      "name": "LSP4TokenNameNotEditable",
      "type": "error"
    },
    {
      "inputs": [],
      "name": "LSP4TokenSymbolNotEditable",
      "type": "error"
    },
    {
      "inputs": [
        {
          "internalType": "address",
          "name": "tokenOwner",
          "type": "address"
        },
        {
          "internalType": "uint256",
          "name": "authorizedAmount",
          "type": "uint256"
        },
        {
          "internalType": "address",
          "name": "operator",
          "type": "address"
        },
        {
          "internalType": "uint256",
          "name": "amount",
          "type": "uint256"
        }
      ],
      "name": "LSP7AmountExceedsAuthorizedAmount",
      "type": "error"
    },
    {
      "inputs": [
        {
          "internalType": "uint256",
          "name": "balance",
          "type": "uint256"
        },
        {
          "internalType": "address",
          "name": "tokenOwner",
          "type": "address"
        },
        {
          "internalType": "uint256",
          "name": "amount",
          "type": "uint256"
        }
      ],
      "name": "LSP7AmountExceedsBalance",
      "type": "error"
    },
    {
      "inputs": [],
      "name": "LSP7CannotSendWithAddressZero",
      "type": "error"
    },
    {
      "inputs": [],
      "name": "LSP7CannotUseAddressZeroAsOperator",
      "type": "error"
    },
    {
      "inputs": [],
      "name": "LSP7CappedSupplyCannotMintOverCap",
      "type": "error"
    },
    {
      "inputs": [],
      "name": "LSP7CappedSupplyRequired",
      "type": "error"
    },
    {
      "inputs": [],
      "name": "LSP7InvalidTransferBatch",
      "type": "error"
    },
    {
      "inputs": [
        {
          "internalType": "address",
          "name": "tokenReceiver",
          "type": "address"
        }
      ],
      "name": "LSP7NotifyTokenReceiverContractMissingLSP1Interface",
      "type": "error"
    },
    {
      "inputs": [
        {
          "internalType": "address",
          "name": "tokenReceiver",
          "type": "address"
        }
      ],
      "name": "LSP7NotifyTokenReceiverIsEOA",
      "type": "error"
    },
    {
      "anonymous": false,
      "inputs": [
        {
          "indexed": true,
          "internalType": "address",
          "name": "operator",
          "type": "address"
        },
        {
          "indexed": true,
          "internalType": "address",
          "name": "tokenOwner",
          "type": "address"
        },
        {
          "indexed": true,
          "internalType": "uint256",
          "name": "amount",
          "type": "uint256"
        }
      ],
      "name": "AuthorizedOperator",
      "type": "event"
    },
    {
      "anonymous": false,
      "inputs": [
        {
          "indexed": true,
          "internalType": "bytes32",
          "name": "dataKey",
          "type": "bytes32"
        }
      ],
      "name": "DataChanged",
      "type": "event"
    },
    {
      "anonymous": false,
      "inputs": [
        {
          "indexed": false,
          "internalType": "uint8",
          "name": "version",
          "type": "uint8"
        }
      ],
      "name": "Initialized",
      "type": "event"
    },
    {
      "anonymous": false,
      "inputs": [
        {
          "indexed": true,
          "internalType": "address",
          "name": "previousOwner",
          "type": "address"
        },
        {
          "indexed": true,
          "internalType": "address",
          "name": "newOwner",
          "type": "address"
        }
      ],
      "name": "OwnershipTransferred",
      "type": "event"
    },
    {
      "anonymous": false,
      "inputs": [
        {
          "indexed": true,
          "internalType": "address",
          "name": "operator",
          "type": "address"
        },
        {
          "indexed": true,
          "internalType": "address",
          "name": "tokenOwner",
          "type": "address"
        }
      ],
      "name": "RevokedOperator",
      "type": "event"
    },
    {
      "anonymous": false,
      "inputs": [
        {
          "indexed": true,
          "internalType": "address",
          "name": "operator",
          "type": "address"
        },
        {
          "indexed": true,
          "internalType": "address",
          "name": "from",
          "type": "address"
        },
        {
          "indexed": true,
          "internalType": "address",
          "name": "to",
          "type": "address"
        },
        {
          "indexed": false,
          "internalType": "uint256",
          "name": "amount",
          "type": "uint256"
        },
        {
          "indexed": false,
          "internalType": "bool",
          "name": "force",
          "type": "bool"
        },
        {
          "indexed": false,
          "internalType": "bytes",
          "name": "data",
          "type": "bytes"
        }
      ],
      "name": "Transfer",
      "type": "event"
    },
    {
      "inputs": [
        {
          "internalType": "address",
          "name": "operator",
          "type": "address"
        },
        {
          "internalType": "uint256",
          "name": "amount",
          "type": "uint256"
        }
      ],
      "name": "authorizeOperator",
      "outputs": [],
      "stateMutability": "nonpayable",
      "type": "function"
    },
    {
      "inputs": [
        {
          "internalType": "address",
          "name": "tokenOwner",
          "type": "address"
        }
      ],
      "name": "balanceOf",
      "outputs": [
        {
          "internalType": "uint256",
          "name": "",
          "type": "uint256"
        }
      ],
      "stateMutability": "view",
      "type": "function"
    },
    {
      "inputs": [
        {
          "internalType": "address",
          "name": "from",
          "type": "address"
        },
        {
          "internalType": "uint256",
          "name": "amount",
          "type": "uint256"
        }
      ],
      "name": "burn",
      "outputs": [],
      "stateMutability": "nonpayable",
      "type": "function"
    },
    {
      "inputs": [],
      "name": "decimals",
      "outputs": [
        {
          "internalType": "uint256",
          "name": "",
          "type": "uint256"
        }
      ],
      "stateMutability": "view",
      "type": "function"
    },
    {
      "inputs": [
        {
          "internalType": "bytes32[]",
          "name": "dataKeys",
          "type": "bytes32[]"
        }
      ],
      "name": "getData",
      "outputs": [
        {
          "internalType": "bytes[]",
          "name": "dataValues",
          "type": "bytes[]"
        }
      ],
      "stateMutability": "view",
      "type": "function"
    },
    {
      "inputs": [
        {
          "internalType": "bytes32",
          "name": "dataKey",
          "type": "bytes32"
        }
      ],
      "name": "getData",
      "outputs": [
        {
          "internalType": "bytes",
          "name": "dataValue",
          "type": "bytes"
        }
      ],
      "stateMutability": "view",
      "type": "function"
    },
    {
      "inputs": [
        {
          "internalType": "string",
          "name": "name",
          "type": "string"
        },
        {
          "internalType": "string",
          "name": "symbol",
          "type": "string"
        },
        {
          "internalType": "address",
          "name": "newOwner",
          "type": "address"
        },
        {
          "internalType": "uint256",
          "name": "tokenSupplyCap",
          "type": "uint256"
        }
      ],
      "name": "initialize",
      "outputs": [],
      "stateMutability": "nonpayable",
      "type": "function"
    },
    {
      "inputs": [],
      "name": "initialized",
      "outputs": [
        {
          "internalType": "uint8",
          "name": "",
          "type": "uint8"
        }
      ],
      "stateMutability": "view",
      "type": "function"
    },
    {
      "inputs": [],
      "name": "initializing",
      "outputs": [
        {
          "internalType": "bool",
          "name": "",
          "type": "bool"
        }
      ],
      "stateMutability": "view",
      "type": "function"
    },
    {
      "inputs": [
        {
          "internalType": "address",
          "name": "operator",
          "type": "address"
        },
        {
          "internalType": "address",
          "name": "tokenOwner",
          "type": "address"
        }
      ],
      "name": "isOperatorFor",
      "outputs": [
        {
          "internalType": "uint256",
          "name": "",
          "type": "uint256"
        }
      ],
      "stateMutability": "view",
      "type": "function"
    },
    {
      "inputs": [
        {
          "internalType": "address",
          "name": "to",
          "type": "address"
        },
        {
          "internalType": "uint256",
          "name": "amount",
          "type": "uint256"
        }
      ],
      "name": "mint",
      "outputs": [],
      "stateMutability": "nonpayable",
      "type": "function"
    },
    {
      "inputs": [],
      "name": "owner",
      "outputs": [
        {
          "internalType": "address",
          "name": "",
          "type": "address"
        }
      ],
      "stateMutability": "view",
      "type": "function"
    },
    {
      "inputs": [],
      "name": "renounceOwnership",
      "outputs": [],
      "stateMutability": "nonpayable",
      "type": "function"
    },
    {
      "inputs": [
        {
          "internalType": "address",
          "name": "operator",
          "type": "address"
        }
      ],
      "name": "revokeOperator",
      "outputs": [],
      "stateMutability": "nonpayable",
      "type": "function"
    },
    {
      "inputs": [
        {
          "internalType": "bytes32[]",
          "name": "dataKeys",
          "type": "bytes32[]"
        },
        {
          "internalType": "bytes[]",
          "name": "dataValues",
          "type": "bytes[]"
        }
      ],
      "name": "setData",
      "outputs": [],
      "stateMutability": "nonpayable",
      "type": "function"
    },
    {
      "inputs": [
        {
          "internalType": "bytes32",
          "name": "dataKey",
          "type": "bytes32"
        },
        {
          "internalType": "bytes",
          "name": "dataValue",
          "type": "bytes"
        }
      ],
      "name": "setData",
      "outputs": [],
      "stateMutability": "nonpayable",
      "type": "function"
    },
    {
      "inputs": [
        {
          "internalType": "bytes4",
          "name": "interfaceId",
          "type": "bytes4"
        }
      ],
      "name": "supportsInterface",
      "outputs": [
        {
          "internalType": "bool",
          "name": "",
          "type": "bool"
        }
      ],
      "stateMutability": "view",
      "type": "function"
    },
    {
      "inputs": [],
      "name": "tokenSupplyCap",
      "outputs": [
        {
          "internalType": "uint256",
          "name": "",
          "type": "uint256"
        }
      ],
      "stateMutability": "view",
      "type": "function"
    },
    {
      "inputs": [],
      "name": "totalSupply",
      "outputs": [
        {
          "internalType": "uint256",
          "name": "",
          "type": "uint256"
        }
      ],
      "stateMutability": "view",
      "type": "function"
    },
    {
      "inputs": [
        {
          "internalType": "address",
          "name": "from",
          "type": "address"
        },
        {
          "internalType": "address",
          "name": "to",
          "type": "address"
        },
        {
          "internalType": "uint256",
          "name": "amount",
          "type": "uint256"
        },
        {
          "internalType": "bool",
          "name": "force",
          "type": "bool"
        },
        {
          "internalType": "bytes",
          "name": "data",
          "type": "bytes"
        }
      ],
      "name": "transfer",
      "outputs": [],
      "stateMutability": "nonpayable",
      "type": "function"
    },
    {
      "inputs": [
        {
          "internalType": "address[]",
          "name": "from",
          "type": "address[]"
        },
        {
          "internalType": "address[]",
          "name": "to",
          "type": "address[]"
        },
        {
          "internalType": "uint256[]",
          "name": "amount",
          "type": "uint256[]"
        },
        {
          "internalType": "bool",
          "name": "force",
          "type": "bool"
        },
        {
          "internalType": "bytes[]",
          "name": "data",
          "type": "bytes[]"
        }
      ],
      "name": "transferBatch",
      "outputs": [],
      "stateMutability": "nonpayable",
      "type": "function"
    },
    {
      "inputs": [
        {
          "internalType": "address",
          "name": "newOwner",
          "type": "address"
        }
      ],
      "name": "transferOwnership",
      "outputs": [],
      "stateMutability": "nonpayable",
      "type": "function"
    }
  ],
  "bytecode": "0x608060405234801561001057600080fd5b506122e2806100206000396000f3fe608060405234801561001057600080fd5b50600436106101825760003560e01c806370a08231116100d85780639dc29fac1161008c578063f2fde38b11610066578063f2fde38b1461032b578063f542033f1461033e578063fad8b32a1461035157600080fd5b80639dc29fac146102f2578063a8a34e0a14610305578063d95b63711461031857600080fd5b8063760d9bba116100bd578063760d9bba146102a25780637f23690c146102b55780638da5cb5b146102c857600080fd5b806370a0823114610271578063715018a61461029a57600080fd5b8063313ce5671161013a5780634e3e6e9c116101145780634e3e6e9c1461022957806352058d8a1461024957806354f6127f1461025157600080fd5b8063313ce567146101fb57806340c10f191461020357806347980aa31461021657600080fd5b8063158ef93e1161016b578063158ef93e146101c457806318160ddd146101d95780632599f159146101eb57600080fd5b806301ffc9a71461018757806314a6e293146101af575b600080fd5b61019a610195366004611ec8565b610364565b60405190151581526020015b60405180910390f35b6101c26101bd366004611e0e565b6103a8565b005b60005460405160ff90911681526020016101a6565b6003545b6040519081526020016101a6565b600054610100900460ff1661019a565b6101dd610481565b6101c2610211366004611c9b565b6104a0565b6101c2610224366004611c9b565b6104e6565b61023c610237366004611dd1565b6104f1565b6040516101a69190612093565b6006546101dd565b61026461025f366004611e72565b6105a5565b6040516101a6919061210e565b6101dd61027f366004611bcd565b6001600160a01b031660009081526004602052604090205490565b6101c26105b0565b6101c26102b0366004611c22565b6105c4565b6101c26102c3366004611e8b565b610668565b6000546201000090046001600160a01b03166040516001600160a01b0390911681526020016101a6565b6101c2610300366004611c9b565b61067a565b6101c2610313366004611cc5565b6106ba565b6101dd610326366004611bef565b6107a0565b6101c2610339366004611bcd565b610808565b6101c261034c366004611f69565b610898565b6101c261035f366004611bcd565b61091f565b60006001600160e01b031982167fe33f65c30000000000000000000000000000000000000000000000000000000014806103a257506103a28261092b565b92915050565b6103b0610979565b805182511461042c5760405162461bcd60e51b815260206004820152602660248201527f4b657973206c656e677468206e6f7420657175616c20746f2076616c7565732060448201527f6c656e677468000000000000000000000000000000000000000000000000000060648201526084015b60405180910390fd5b60005b825181101561047c5761047483828151811061044d5761044d612280565b602002602001015183838151811061046757610467612280565b60200260200101516109da565b60010161042f565b505050565b60025460009060ff16610495576012610498565b60005b60ff16905090565b6104e2828260016040518060400160405280601581526020017f746f6b656e207072696e74657220676f20627272720000000000000000000000815250610a98565b5050565b6104e2338383610aaa565b6060815167ffffffffffffffff81111561050d5761050d612296565b60405190808252806020026020018201604052801561054057816020015b606081526020019060019003908161052b5790505b50905060005b825181101561059f5761057183828151811061056457610564612280565b6020026020010151610bc2565b82828151811061058357610583612280565b60200260200101819052506105988160010190565b9050610546565b50919050565b60606103a282610bc2565b6105b8610979565b6105c26000610c64565b565b336001600160a01b0386168114610653576001600160a01b038087166000908152600560209081526040808320938516835292905220548085111561063d5760405163f3a6b69160e01b81526001600160a01b038089166004830152602482018390528316604482015260648101869052608401610423565b610651878361064c88856121d7565b610aaa565b505b6106608686868686610cf0565b505050505050565b610670610979565b6104e282826109da565b6104e282826040518060400160405280600d81526020017f6665656c20746865206275726e00000000000000000000000000000000000000815250610e61565b835185511415806106cd57508251855114155b806106da57508051855114155b15610711576040517f263eee8d00000000000000000000000000000000000000000000000000000000815260040160405180910390fd5b60005b85518110156106605761078e86828151811061073257610732612280565b602002602001015186838151811061074c5761074c612280565b602002602001015186848151811061076657610766612280565b60200260200101518686868151811061078157610781612280565b60200260200101516105c4565b806107988161224f565b915050610714565b6000826001600160a01b0316826001600160a01b031614156107db57506001600160a01b0381166000908152600460205260409020546103a2565b506001600160a01b0380821660009081526005602090815260408083209386168352929052205492915050565b610810610979565b6001600160a01b03811661088c5760405162461bcd60e51b815260206004820152602660248201527f4f776e61626c653a206e6577206f776e657220697320746865207a65726f206160448201527f64647265737300000000000000000000000000000000000000000000000000006064820152608401610423565b61089581610c64565b50565b60006108a46001611035565b905080156108bc576000805461ff0019166101001790555b6108c9858585600161116e565b6108d2826111f2565b8015610918576000805461ff0019169055604051600181527f7f26b83ff96e1f2b6a682f133852f6798a09c465da95921460cefb38474024989060200160405180910390a15b5050505050565b61089533826000610aaa565b60006001600160e01b031982167f714df77c0000000000000000000000000000000000000000000000000000000014806103a257506301ffc9a760e01b6001600160e01b03198316146103a2565b6000546001600160a01b03620100009091041633146105c25760405162461bcd60e51b815260206004820181905260248201527f4f776e61626c653a2063616c6c6572206973206e6f7420746865206f776e65726044820152606401610423565b7fdeba1e292f8ba88238e10ab3c7f88bd4be4fac56cad5194b6ecceaf653468af1821415610a34576040517f85c169bd00000000000000000000000000000000000000000000000000000000815260040160405180910390fd5b7f2f0a68ab07768e01943a599e73362a0e17a63a72e94dd2e384d2c1d4db932756821415610a8e576040517f76755b3800000000000000000000000000000000000000000000000000000000815260040160405180910390fd5b6104e28282611299565b610aa4848484846112e8565b50505050565b6001600160a01b038216610aea576040517f6355e76600000000000000000000000000000000000000000000000000000000815260040160405180910390fd5b826001600160a01b0316826001600160a01b03161415610b0957505050565b6001600160a01b0380841660009081526005602090815260408083209386168352929052208190558015610b7d5780836001600160a01b0316836001600160a01b03167fd66aff874162a96578e919097b6f6d153dfd89a5cec41bb331fdb0c4aec16e2c60405160405180910390a4505050565b826001600160a01b0316826001600160a01b03167f50546e66e5f44d728365dc3908c63bc5cfeeab470722c1677e3073a6ac294aa160405160405180910390a3505050565b6000818152600160205260409020805460609190610bdf9061221a565b80601f0160208091040260200160405190810160405280929190818152602001828054610c0b9061221a565b8015610c585780601f10610c2d57610100808354040283529160200191610c58565b820191906000526020600020905b815481529060010190602001808311610c3b57829003601f168201915b50505050509050919050565b6000546001600160a01b0382811662010000909204161461089557600080546001600160a01b03838116620100008181027fffffffffffffffffffff0000000000000000000000000000000000000000ffff851617855560405193049190911692909183917f8be0079c531659141344cd1fd0a4f28419497f9722a3daafe3b4186f6b6457e091a35050565b6001600160a01b0385161580610d0d57506001600160a01b038416155b15610d2b57604051630d2d5ec360e41b815260040160405180910390fd5b6001600160a01b03851660009081526004602052604090205480841115610d7e576040516308d4794960e01b8152600481018290526001600160a01b038716602482015260448101859052606401610423565b33610d8a878787611343565b6001600160a01b03871660009081526004602052604081208054879290610db29084906121d7565b90915550506001600160a01b03861660009081526004602052604081208054879290610ddf9084906121bf565b92505081905550856001600160a01b0316876001600160a01b0316826001600160a01b03167f3997e418d2cef0b3b0e907b1e39605c3f7d32dbd061e82ea5b4a770d46a160a6888888604051610e3793929190612121565b60405180910390a4610e4b87878786611393565b610e588787878787611476565b50505050505050565b6001600160a01b038316610e8857604051630d2d5ec360e41b815260040160405180910390fd5b6001600160a01b03831660009081526004602052604090205480831115610edb576040516308d4794960e01b8152600481018290526001600160a01b038516602482015260448101849052606401610423565b336001600160a01b0385168114610f92576001600160a01b0380861660009081526005602090815260408083209385168352929052205480851115610f545760405163f3a6b69160e01b81526001600160a01b038088166004830152602482018390528316604482015260648101869052608401610423565b6001600160a01b03808716600090815260056020908152604080832093861683529290529081208054879290610f8b9084906121d7565b9091555050505b610f9e85600086611343565b6001600160a01b03851660009081526004602052604081208054869290610fc69084906121d7565b9250508190555060006001600160a01b0316856001600160a01b0316826001600160a01b03167f3997e418d2cef0b3b0e907b1e39605c3f7d32dbd061e82ea5b4a770d46a160a68760008860405161102093929190612121565b60405180910390a46109188560008686611393565b60008054610100900460ff16156110d2578160ff1660011480156110585750303b155b6110ca5760405162461bcd60e51b815260206004820152602e60248201527f496e697469616c697a61626c653a20636f6e747261637420697320616c72656160448201527f647920696e697469616c697a65640000000000000000000000000000000000006064820152608401610423565b506000919050565b60005460ff80841691161061114f5760405162461bcd60e51b815260206004820152602e60248201527f496e697469616c697a61626c653a20636f6e747261637420697320616c72656160448201527f647920696e697469616c697a65640000000000000000000000000000000000006064820152608401610423565b506000805460ff191660ff92909216919091179055600190565b919050565b600054610100900460ff166111d95760405162461bcd60e51b815260206004820152602b60248201527f496e697469616c697a61626c653a20636f6e7472616374206973206e6f74206960448201526a6e697469616c697a696e6760a81b6064820152608401610423565b6002805460ff1916821515179055610aa48484846115ef565b600054610100900460ff1661125d5760405162461bcd60e51b815260206004820152602b60248201527f496e697469616c697a61626c653a20636f6e7472616374206973206e6f74206960448201526a6e697469616c697a696e6760a81b6064820152608401610423565b80611294576040517facf1d8c500000000000000000000000000000000000000000000000000000000815260040160405180910390fd5b600655565b600082815260016020908152604090912082516112b892840190611951565b5060405182907fcdf4e344c0d23d4cdd0474039d176c55b19d531070dbe17856bfb993a5b5720b90600090a25050565b600654836112f560035490565b6112ff91906121bf565b1115611337576040517feacbf0d100000000000000000000000000000000000000000000000000000000815260040160405180910390fd5b610aa484848484611719565b6001600160a01b03831661136957806003600082825461136391906121bf565b90915550505b6001600160a01b03821661047c57806003600082825461138991906121d7565b9091555050505050565b6113a484631aed5a8560e21b6117e4565b15610aa4576000848484846040516020016113c2949392919061202a565b60408051601f1981840301815290829052631aed5a8560e21b825291506001600160a01b03861690636bb56a1490611420907f40b8bec57d7b5ff0dbd9e9acd0a47dfeb0101e1a203766f5ccab00445fbf39e99085906004016120f5565b600060405180830381600087803b15801561143a57600080fd5b505af115801561144e573d6000803e3d6000fd5b505050506040513d6000823e601f3d908101601f191682016040526106609190810190611ef2565b61148784631aed5a8560e21b6117e4565b15611560576000858585846040516020016114a5949392919061202a565b60408051601f1981840301815290829052631aed5a8560e21b825291506001600160a01b03861690636bb56a1490611503907fdbe2c314e1aee2970c72666f2ebe8933a8575263ea71e5ff6a9178e95d47a26f9085906004016120f5565b600060405180830381600087803b15801561151d57600080fd5b505af1158015611531573d6000803e3d6000fd5b505050506040513d6000823e601f3d908101601f191682016040526115599190810190611ef2565b5050610918565b81610918576001600160a01b0384163b156115b2576040517fa608fbb60000000000000000000000000000000000000000000000000000000081526001600160a01b0385166004820152602401610423565b6040517f26c247f40000000000000000000000000000000000000000000000000000000081526001600160a01b0385166004820152602401610423565b600054610100900460ff1661165a5760405162461bcd60e51b815260206004820152602b60248201527f496e697469616c697a61626c653a20636f6e7472616374206973206e6f74206960448201526a6e697469616c697a696e6760a81b6064820152608401610423565b611663816118e6565b6116c57feafec4d89fa9619884b60000a4d96624a38f7ac2d8d9a604ecf07c12c77e480c60001b6040518060400160405280600481526020017fa4d9662400000000000000000000000000000000000000000000000000000000815250611299565b6116ef7fdeba1e292f8ba88238e10ab3c7f88bd4be4fac56cad5194b6ecceaf653468af184611299565b61047c7f2f0a68ab07768e01943a599e73362a0e17a63a72e94dd2e384d2c1d4db93275683611299565b6001600160a01b03841661174057604051630d2d5ec360e41b815260040160405180910390fd5b3361174d60008686611343565b6001600160a01b038516600090815260046020526040812080548692906117759084906121bf565b92505081905550846001600160a01b031660006001600160a01b0316826001600160a01b03167f3997e418d2cef0b3b0e907b1e39605c3f7d32dbd061e82ea5b4a770d46a160a68787876040516117ce93929190612121565b60405180910390a4610918600086868686611476565b604080516001600160e01b0319831660248083019190915282518083039091018152604490910182526020810180517bffffffffffffffffffffffffffffffffffffffffffffffffffffffff166301ffc9a760e01b179052905160009190829081906001600160a01b0387169061753090611860908690612077565b6000604051808303818686fa925050503d806000811461189c576040519150601f19603f3d011682016040523d82523d6000602084013e6118a1565b606091505b50915091506020815110156118bc57600093505050506103a2565b8180156118dc57506000818060200190518101906118da9190611fe5565b115b9695505050505050565b600054610100900460ff1661088c5760405162461bcd60e51b815260206004820152602b60248201527f496e697469616c697a61626c653a20636f6e7472616374206973206e6f74206960448201526a6e697469616c697a696e6760a81b6064820152608401610423565b82805461195d9061221a565b90600052602060002090601f01602090048101928261197f57600085556119c5565b82601f1061199857805160ff19168380011785556119c5565b828001600101855582156119c5579182015b828111156119c55782518255916020019190600101906119aa565b506119d19291506119d5565b5090565b5b808211156119d157600081556001016119d6565b80356001600160a01b038116811461116957600080fd5b600082601f830112611a1257600080fd5b81356020611a27611a2283612173565b612142565b80838252828201915082860187848660051b8901011115611a4757600080fd5b60005b85811015611a6d57611a5b826119ea565b84529284019290840190600101611a4a565b5090979650505050505050565b600082601f830112611a8b57600080fd5b81356020611a9b611a2283612173565b80838252828201915082860187848660051b8901011115611abb57600080fd5b60005b85811015611a6d57813584529284019290840190600101611abe565b600082601f830112611aeb57600080fd5b81356020611afb611a2283612173565b80838252828201915082860187848660051b8901011115611b1b57600080fd5b6000805b86811015611b5e57823567ffffffffffffffff811115611b3d578283fd5b611b4b8b88838d0101611b7c565b8652509385019391850191600101611b1f565b509198975050505050505050565b8035801515811461116957600080fd5b600082601f830112611b8d57600080fd5b8135611b9b611a2282612197565b818152846020838601011115611bb057600080fd5b816020850160208301376000918101602001919091529392505050565b600060208284031215611bdf57600080fd5b611be8826119ea565b9392505050565b60008060408385031215611c0257600080fd5b611c0b836119ea565b9150611c19602084016119ea565b90509250929050565b600080600080600060a08688031215611c3a57600080fd5b611c43866119ea565b9450611c51602087016119ea565b935060408601359250611c6660608701611b6c565b9150608086013567ffffffffffffffff811115611c8257600080fd5b611c8e88828901611b7c565b9150509295509295909350565b60008060408385031215611cae57600080fd5b611cb7836119ea565b946020939093013593505050565b600080600080600060a08688031215611cdd57600080fd5b853567ffffffffffffffff80821115611cf557600080fd5b611d0189838a01611a01565b9650602091508188013581811115611d1857600080fd5b611d248a828b01611a01565b965050604088013581811115611d3957600080fd5b8801601f81018a13611d4a57600080fd5b8035611d58611a2282612173565b8082825285820191508584018d878560051b8701011115611d7857600080fd5b600094505b83851015611d9b578035835260019490940193918601918601611d7d565b509750611dae9250505060608901611b6c565b93506080880135915080821115611dc457600080fd5b50611c8e88828901611ada565b600060208284031215611de357600080fd5b813567ffffffffffffffff811115611dfa57600080fd5b611e0684828501611a7a565b949350505050565b60008060408385031215611e2157600080fd5b823567ffffffffffffffff80821115611e3957600080fd5b611e4586838701611a7a565b93506020850135915080821115611e5b57600080fd5b50611e6885828601611ada565b9150509250929050565b600060208284031215611e8457600080fd5b5035919050565b60008060408385031215611e9e57600080fd5b82359150602083013567ffffffffffffffff811115611ebc57600080fd5b611e6885828601611b7c565b600060208284031215611eda57600080fd5b81356001600160e01b031981168114611be857600080fd5b600060208284031215611f0457600080fd5b815167ffffffffffffffff811115611f1b57600080fd5b8201601f81018413611f2c57600080fd5b8051611f3a611a2282612197565b818152856020838501011115611f4f57600080fd5b611f608260208301602086016121ee565b95945050505050565b60008060008060808587031215611f7f57600080fd5b843567ffffffffffffffff80821115611f9757600080fd5b611fa388838901611b7c565b95506020870135915080821115611fb957600080fd5b50611fc687828801611b7c565b935050611fd5604086016119ea565b9396929550929360600135925050565b600060208284031215611ff757600080fd5b5051919050565b600081518084526120168160208601602086016121ee565b601f01601f19169290920160200192915050565b60006bffffffffffffffffffffffff19808760601b168352808660601b1660148401525083602883015282516120678160488501602087016121ee565b9190910160480195945050505050565b600082516120898184602087016121ee565b9190910192915050565b6000602080830181845280855180835260408601915060408160051b870101925083870160005b828110156120e857603f198886030184526120d6858351611ffe565b945092850192908501906001016120ba565b5092979650505050505050565b828152604060208201526000611e066040830184611ffe565b602081526000611be86020830184611ffe565b8381528215156020820152606060408201526000611f606060830184611ffe565b604051601f8201601f1916810167ffffffffffffffff8111828210171561216b5761216b612296565b604052919050565b600067ffffffffffffffff82111561218d5761218d612296565b5060051b60200190565b600067ffffffffffffffff8211156121b1576121b1612296565b50601f01601f191660200190565b600082198211156121d2576121d261226a565b500190565b6000828210156121e9576121e961226a565b500390565b60005b838110156122095781810151838201526020016121f1565b83811115610aa45750506000910152565b600181811c9082168061222e57607f821691505b6020821081141561059f57634e487b7160e01b600052602260045260246000fd5b60006000198214156122635761226361226a565b5060010190565b634e487b7160e01b600052601160045260246000fd5b634e487b7160e01b600052603260045260246000fd5b634e487b7160e01b600052604160045260246000fdfea2646970667358221220e6aa587f016959d6048a5eeb43fc8a8da081e8b15d8818c4a0d0f151005d0c5964736f6c63430008070033",
  "linkReferences": {},
  "deployedLinkReferences": {}
}