{
  "_format": "hh-sol-artifact-1",
  "contractName": "LSP7CompatibleERC20Init",
  "sourceName": "contracts/LSP7DigitalAsset/extensions/LSP7CompatibleERC20Init.sol",
  "abi": [
    {
      "inputs": [],
      "stateMutability": "nonpayable",
      "type": "constructor"
    },
    {
      "inputs": [],
      "name": "LSP4TokenNameNotEditable",
      "type": "error"
    },
    {
      "inputs": [],
      "name": "LSP4TokenSymbolNotEditable",
      "type": "error"
    },
    {
      "inputs": [
        {
          "internalType": "address",
          "name": "tokenOwner",
          "type": "address"
        },
        {
          "internalType": "uint256",
          "name": "authorizedAmount",
          "type": "uint256"
        },
        {
          "internalType": "address",
          "name": "operator",
          "type": "address"
        },
        {
          "internalType": "uint256",
          "name": "amount",
          "type": "uint256"
        }
      ],
      "name": "LSP7AmountExceedsAuthorizedAmount",
      "type": "error"
    },
    {
      "inputs": [
        {
          "internalType": "uint256",
          "name": "balance",
          "type": "uint256"
        },
        {
          "internalType": "address",
          "name": "tokenOwner",
          "type": "address"
        },
        {
          "internalType": "uint256",
          "name": "amount",
          "type": "uint256"
        }
      ],
      "name": "LSP7AmountExceedsBalance",
      "type": "error"
    },
    {
      "inputs": [],
      "name": "LSP7CannotSendWithAddressZero",
      "type": "error"
    },
    {
      "inputs": [],
      "name": "LSP7CannotUseAddressZeroAsOperator",
      "type": "error"
    },
    {
      "inputs": [],
      "name": "LSP7InvalidTransferBatch",
      "type": "error"
    },
    {
      "inputs": [
        {
          "internalType": "address",
          "name": "tokenReceiver",
          "type": "address"
        }
      ],
      "name": "LSP7NotifyTokenReceiverContractMissingLSP1Interface",
      "type": "error"
    },
    {
      "inputs": [
        {
          "internalType": "address",
          "name": "tokenReceiver",
          "type": "address"
        }
      ],
      "name": "LSP7NotifyTokenReceiverIsEOA",
      "type": "error"
    },
    {
      "anonymous": false,
      "inputs": [
        {
          "indexed": true,
          "internalType": "address",
          "name": "owner",
          "type": "address"
        },
        {
          "indexed": true,
          "internalType": "address",
          "name": "spender",
          "type": "address"
        },
        {
          "indexed": false,
          "internalType": "uint256",
          "name": "value",
          "type": "uint256"
        }
      ],
      "name": "Approval",
      "type": "event"
    },
    {
      "anonymous": false,
      "inputs": [
        {
          "indexed": true,
          "internalType": "address",
          "name": "operator",
          "type": "address"
        },
        {
          "indexed": true,
          "internalType": "address",
          "name": "tokenOwner",
          "type": "address"
        },
        {
          "indexed": true,
          "internalType": "uint256",
          "name": "amount",
          "type": "uint256"
        }
      ],
      "name": "AuthorizedOperator",
      "type": "event"
    },
    {
      "anonymous": false,
      "inputs": [
        {
          "indexed": true,
          "internalType": "bytes32",
          "name": "dataKey",
          "type": "bytes32"
        }
      ],
      "name": "DataChanged",
      "type": "event"
    },
    {
      "anonymous": false,
      "inputs": [
        {
          "indexed": false,
          "internalType": "uint8",
          "name": "version",
          "type": "uint8"
        }
      ],
      "name": "Initialized",
      "type": "event"
    },
    {
      "anonymous": false,
      "inputs": [
        {
          "indexed": true,
          "internalType": "address",
          "name": "previousOwner",
          "type": "address"
        },
        {
          "indexed": true,
          "internalType": "address",
          "name": "newOwner",
          "type": "address"
        }
      ],
      "name": "OwnershipTransferred",
      "type": "event"
    },
    {
      "anonymous": false,
      "inputs": [
        {
          "indexed": true,
          "internalType": "address",
          "name": "operator",
          "type": "address"
        },
        {
          "indexed": true,
          "internalType": "address",
          "name": "tokenOwner",
          "type": "address"
        }
      ],
      "name": "RevokedOperator",
      "type": "event"
    },
    {
      "anonymous": false,
      "inputs": [
        {
          "indexed": true,
          "internalType": "address",
          "name": "from",
          "type": "address"
        },
        {
          "indexed": true,
          "internalType": "address",
          "name": "to",
          "type": "address"
        },
        {
          "indexed": false,
          "internalType": "uint256",
          "name": "value",
          "type": "uint256"
        }
      ],
      "name": "Transfer",
      "type": "event"
    },
    {
      "anonymous": false,
      "inputs": [
        {
          "indexed": true,
          "internalType": "address",
          "name": "operator",
          "type": "address"
        },
        {
          "indexed": true,
          "internalType": "address",
          "name": "from",
          "type": "address"
        },
        {
          "indexed": true,
          "internalType": "address",
          "name": "to",
          "type": "address"
        },
        {
          "indexed": false,
          "internalType": "uint256",
          "name": "amount",
          "type": "uint256"
        },
        {
          "indexed": false,
          "internalType": "bool",
          "name": "force",
          "type": "bool"
        },
        {
          "indexed": false,
          "internalType": "bytes",
          "name": "data",
          "type": "bytes"
        }
      ],
      "name": "Transfer",
      "type": "event"
    },
    {
      "inputs": [
        {
          "internalType": "address",
          "name": "tokenOwner",
          "type": "address"
        },
        {
          "internalType": "address",
          "name": "operator",
          "type": "address"
        }
      ],
      "name": "allowance",
      "outputs": [
        {
          "internalType": "uint256",
          "name": "",
          "type": "uint256"
        }
      ],
      "stateMutability": "view",
      "type": "function"
    },
    {
      "inputs": [
        {
          "internalType": "address",
          "name": "operator",
          "type": "address"
        },
        {
          "internalType": "uint256",
          "name": "amount",
          "type": "uint256"
        }
      ],
      "name": "approve",
      "outputs": [
        {
          "internalType": "bool",
          "name": "",
          "type": "bool"
        }
      ],
      "stateMutability": "nonpayable",
      "type": "function"
    },
    {
      "inputs": [
        {
          "internalType": "address",
          "name": "operator",
          "type": "address"
        },
        {
          "internalType": "uint256",
          "name": "amount",
          "type": "uint256"
        }
      ],
      "name": "authorizeOperator",
      "outputs": [],
      "stateMutability": "nonpayable",
      "type": "function"
    },
    {
      "inputs": [
        {
          "internalType": "address",
          "name": "tokenOwner",
          "type": "address"
        }
      ],
      "name": "balanceOf",
      "outputs": [
        {
          "internalType": "uint256",
          "name": "",
          "type": "uint256"
        }
      ],
      "stateMutability": "view",
      "type": "function"
    },
    {
      "inputs": [],
      "name": "decimals",
      "outputs": [
        {
          "internalType": "uint256",
          "name": "",
          "type": "uint256"
        }
      ],
      "stateMutability": "view",
      "type": "function"
    },
    {
      "inputs": [
        {
          "internalType": "bytes32[]",
          "name": "dataKeys",
          "type": "bytes32[]"
        }
      ],
      "name": "getData",
      "outputs": [
        {
          "internalType": "bytes[]",
          "name": "dataValues",
          "type": "bytes[]"
        }
      ],
      "stateMutability": "view",
      "type": "function"
    },
    {
      "inputs": [
        {
          "internalType": "bytes32",
          "name": "dataKey",
          "type": "bytes32"
        }
      ],
      "name": "getData",
      "outputs": [
        {
          "internalType": "bytes",
          "name": "dataValue",
          "type": "bytes"
        }
      ],
      "stateMutability": "view",
      "type": "function"
    },
    {
      "inputs": [
        {
          "internalType": "string",
          "name": "name_",
          "type": "string"
        },
        {
          "internalType": "string",
          "name": "symbol_",
          "type": "string"
        },
        {
          "internalType": "address",
          "name": "newOwner_",
          "type": "address"
        }
      ],
      "name": "initialize",
      "outputs": [],
      "stateMutability": "nonpayable",
      "type": "function"
    },
    {
      "inputs": [],
      "name": "initialized",
      "outputs": [
        {
          "internalType": "uint8",
          "name": "",
          "type": "uint8"
        }
      ],
      "stateMutability": "view",
      "type": "function"
    },
    {
      "inputs": [],
      "name": "initializing",
      "outputs": [
        {
          "internalType": "bool",
          "name": "",
          "type": "bool"
        }
      ],
      "stateMutability": "view",
      "type": "function"
    },
    {
      "inputs": [
        {
          "internalType": "address",
          "name": "operator",
          "type": "address"
        },
        {
          "internalType": "address",
          "name": "tokenOwner",
          "type": "address"
        }
      ],
      "name": "isOperatorFor",
      "outputs": [
        {
          "internalType": "uint256",
          "name": "",
          "type": "uint256"
        }
      ],
      "stateMutability": "view",
      "type": "function"
    },
    {
      "inputs": [],
      "name": "name",
      "outputs": [
        {
          "internalType": "string",
          "name": "",
          "type": "string"
        }
      ],
      "stateMutability": "view",
      "type": "function"
    },
    {
      "inputs": [],
      "name": "owner",
      "outputs": [
        {
          "internalType": "address",
          "name": "",
          "type": "address"
        }
      ],
      "stateMutability": "view",
      "type": "function"
    },
    {
      "inputs": [],
      "name": "renounceOwnership",
      "outputs": [],
      "stateMutability": "nonpayable",
      "type": "function"
    },
    {
      "inputs": [
        {
          "internalType": "address",
          "name": "operator",
          "type": "address"
        }
      ],
      "name": "revokeOperator",
      "outputs": [],
      "stateMutability": "nonpayable",
      "type": "function"
    },
    {
      "inputs": [
        {
          "internalType": "bytes32[]",
          "name": "dataKeys",
          "type": "bytes32[]"
        },
        {
          "internalType": "bytes[]",
          "name": "dataValues",
          "type": "bytes[]"
        }
      ],
      "name": "setData",
      "outputs": [],
      "stateMutability": "nonpayable",
      "type": "function"
    },
    {
      "inputs": [
        {
          "internalType": "bytes32",
          "name": "dataKey",
          "type": "bytes32"
        },
        {
          "internalType": "bytes",
          "name": "dataValue",
          "type": "bytes"
        }
      ],
      "name": "setData",
      "outputs": [],
      "stateMutability": "nonpayable",
      "type": "function"
    },
    {
      "inputs": [
        {
          "internalType": "bytes4",
          "name": "interfaceId",
          "type": "bytes4"
        }
      ],
      "name": "supportsInterface",
      "outputs": [
        {
          "internalType": "bool",
          "name": "",
          "type": "bool"
        }
      ],
      "stateMutability": "view",
      "type": "function"
    },
    {
      "inputs": [],
      "name": "symbol",
      "outputs": [
        {
          "internalType": "string",
          "name": "",
          "type": "string"
        }
      ],
      "stateMutability": "view",
      "type": "function"
    },
    {
      "inputs": [],
      "name": "totalSupply",
      "outputs": [
        {
          "internalType": "uint256",
          "name": "",
          "type": "uint256"
        }
      ],
      "stateMutability": "view",
      "type": "function"
    },
    {
      "inputs": [
        {
          "internalType": "address",
          "name": "from",
          "type": "address"
        },
        {
          "internalType": "address",
          "name": "to",
          "type": "address"
        },
        {
          "internalType": "uint256",
          "name": "amount",
          "type": "uint256"
        },
        {
          "internalType": "bool",
          "name": "force",
          "type": "bool"
        },
        {
          "internalType": "bytes",
          "name": "data",
          "type": "bytes"
        }
      ],
      "name": "transfer",
      "outputs": [],
      "stateMutability": "nonpayable",
      "type": "function"
    },
    {
      "inputs": [
        {
          "internalType": "address",
          "name": "to",
          "type": "address"
        },
        {
          "internalType": "uint256",
          "name": "amount",
          "type": "uint256"
        }
      ],
      "name": "transfer",
      "outputs": [
        {
          "internalType": "bool",
          "name": "",
          "type": "bool"
        }
      ],
      "stateMutability": "nonpayable",
      "type": "function"
    },
    {
      "inputs": [
        {
          "internalType": "address[]",
          "name": "from",
          "type": "address[]"
        },
        {
          "internalType": "address[]",
          "name": "to",
          "type": "address[]"
        },
        {
          "internalType": "uint256[]",
          "name": "amount",
          "type": "uint256[]"
        },
        {
          "internalType": "bool",
          "name": "force",
          "type": "bool"
        },
        {
          "internalType": "bytes[]",
          "name": "data",
          "type": "bytes[]"
        }
      ],
      "name": "transferBatch",
      "outputs": [],
      "stateMutability": "nonpayable",
      "type": "function"
    },
    {
      "inputs": [
        {
          "internalType": "address",
          "name": "from",
          "type": "address"
        },
        {
          "internalType": "address",
          "name": "to",
          "type": "address"
        },
        {
          "internalType": "uint256",
          "name": "amount",
          "type": "uint256"
        }
      ],
      "name": "transferFrom",
      "outputs": [
        {
          "internalType": "bool",
          "name": "",
          "type": "bool"
        }
      ],
      "stateMutability": "nonpayable",
      "type": "function"
    },
    {
      "inputs": [
        {
          "internalType": "address",
          "name": "newOwner",
          "type": "address"
        }
      ],
      "name": "transferOwnership",
      "outputs": [],
      "stateMutability": "nonpayable",
      "type": "function"
    }
  ],
  "bytecode": "0x60806040523480156200001157600080fd5b506200001c62000022565b62000152565b6200002e60ff62000031565b50565b60008054610100900460ff1615620000ca578160ff1660011480156200006a575062000068306200014360201b620009cd1760201c565b155b620000c25760405162461bcd60e51b815260206004820152602e6024820152600080516020620022ed83398151915260448201526d191e481a5b9a5d1a585b1a5e995960921b60648201526084015b60405180910390fd5b506000919050565b60005460ff808416911610620001295760405162461bcd60e51b815260206004820152602e6024820152600080516020620022ed83398151915260448201526d191e481a5b9a5d1a585b1a5e995960921b6064820152608401620000b9565b506000805460ff191660ff92909216919091179055600190565b6001600160a01b03163b151590565b61218b80620001626000396000f3fe608060405234801561001057600080fd5b50600436106101a35760003560e01c806354f6127f116100ee57806395d89b4111610097578063d95b637111610071578063d95b637114610367578063dd62ed3e1461037a578063f2fde38b1461038d578063fad8b32a146103a057600080fd5b806395d89b4114610339578063a8a34e0a14610341578063a9059cbb1461035457600080fd5b8063760d9bba116100c8578063760d9bba146102e95780637f23690c146102fc5780638da5cb5b1461030f57600080fd5b806354f6127f146102a557806370a08231146102b8578063715018a6146102e157600080fd5b806318160ddd11610150578063313ce5671161012a578063313ce5671461026a57806347980aa3146102725780634e3e6e9c1461028557600080fd5b806318160ddd1461023557806323b872dd146102475780632599f1591461025a57600080fd5b8063095ea7b311610181578063095ea7b3146101fa57806314a6e2931461020d578063158ef93e1461022057600080fd5b806301ffc9a7146101a857806306fdde03146101d0578063077f224a146101e5575b600080fd5b6101bb6101b6366004611d79565b6103b3565b60405190151581526020015b60405180910390f35b6101d86103f7565b6040516101c79190611fb7565b6101f86101f3366004611e1a565b610424565b005b6101bb610208366004611b4c565b61049f565b6101f861021b366004611cbf565b6104b4565b60005460405160ff90911681526020016101c7565b6003545b6040519081526020016101c7565b6101bb610255366004611a97565b61058d565b600054610100900460ff166101bb565b6102396105b6565b6101f8610280366004611b4c565b6105d5565b610298610293366004611c82565b6105e3565b6040516101c79190611f3c565b6101d86102b3366004611d23565b610697565b6102396102c6366004611a49565b6001600160a01b031660009081526004602052604090205490565b6101f86106a2565b6101f86102f7366004611ad3565b6106b6565b6101f861030a366004611d3c565b610773565b6000546201000090046001600160a01b03166040516001600160a01b0390911681526020016101c7565b6101d8610785565b6101f861034f366004611b76565b6107b2565b6101bb610362366004611b4c565b610898565b610239610375366004611a64565b6108b7565b610239610388366004611a64565b61091e565b6101f861039b366004611a49565b610931565b6101f86103ae366004611a49565b6109c1565b60006001600160e01b031982167fe33f65c30000000000000000000000000000000000000000000000000000000014806103f157506103f1826109dc565b92915050565b606060006103f17fdeba1e292f8ba88238e10ab3c7f88bd4be4fac56cad5194b6ecceaf653468af1610a2a565b60006104306001610acc565b90508015610448576000805461ff0019166101001790555b610453848484610c05565b8015610499576000805461ff0019169055604051600181527f7f26b83ff96e1f2b6a682f133852f6798a09c465da95921460cefb38474024989060200160405180910390a15b50505050565b60006104ab83836105d5565b50600192915050565b6104bc610c7d565b80518251146105385760405162461bcd60e51b815260206004820152602660248201527f4b657973206c656e677468206e6f7420657175616c20746f2076616c7565732060448201527f6c656e677468000000000000000000000000000000000000000000000000000060648201526084015b60405180910390fd5b60005b82518110156105885761058083828151811061055957610559612129565b602002602001015183838151811061057357610573612129565b6020026020010151610cde565b60010161053b565b505050565b60006105ac8484846001604051806020016040528060008152506106b6565b5060019392505050565b60025460009060ff166105ca5760126105cd565b60005b60ff16905090565b6105df8282610ce8565b5050565b6060815167ffffffffffffffff8111156105ff576105ff61213f565b60405190808252806020026020018201604052801561063257816020015b606081526020019060019003908161061d5790505b50905060005b82518110156106915761066383828151811061065657610656612129565b6020026020010151610a2a565b82828151811061067557610675612129565b602002602001018190525061068a8160010190565b9050610638565b50919050565b60606103f182610a2a565b6106aa610c7d565b6106b46000610d36565b565b336001600160a01b038616811461075e576001600160a01b0380871660009081526005602090815260408083209385168352929052205480851115610748576040517ff3a6b6910000000000000000000000000000000000000000000000000000000081526001600160a01b03808916600483015260248201839052831660448201526064810186905260840161052f565b61075c87836107578885612080565b610dc2565b505b61076b8686868686610eda565b505050505050565b61077b610c7d565b6105df8282610cde565b606060006103f17f2f0a68ab07768e01943a599e73362a0e17a63a72e94dd2e384d2c1d4db932756610a2a565b835185511415806107c557508251855114155b806107d257508051855114155b15610809576040517f263eee8d00000000000000000000000000000000000000000000000000000000815260040160405180910390fd5b60005b855181101561076b5761088686828151811061082a5761082a612129565b602002602001015186838151811061084457610844612129565b602002602001015186848151811061085e5761085e612129565b60200260200101518686868151811061087957610879612129565b60200260200101516106b6565b80610890816120f8565b91505061080c565b60006104ab3384846001604051806020016040528060008152506106b6565b6000826001600160a01b0316826001600160a01b031614156108f257506001600160a01b0381166000908152600460205260409020546103f1565b506001600160a01b038082166000908152600560209081526040808320938616835292905220546103f1565b600061092a82846108b7565b9392505050565b610939610c7d565b6001600160a01b0381166109b55760405162461bcd60e51b815260206004820152602660248201527f4f776e61626c653a206e6577206f776e657220697320746865207a65726f206160448201527f6464726573730000000000000000000000000000000000000000000000000000606482015260840161052f565b6109be81610d36565b50565b6109be33826000610dc2565b6001600160a01b03163b151590565b60006001600160e01b031982167f714df77c0000000000000000000000000000000000000000000000000000000014806103f157506301ffc9a760e01b6001600160e01b03198316146103f1565b6000818152600160205260409020805460609190610a47906120c3565b80601f0160208091040260200160405190810160405280929190818152602001828054610a73906120c3565b8015610ac05780601f10610a9557610100808354040283529160200191610ac0565b820191906000526020600020905b815481529060010190602001808311610aa357829003601f168201915b50505050509050919050565b60008054610100900460ff1615610b69578160ff166001148015610aef5750303b155b610b615760405162461bcd60e51b815260206004820152602e60248201527f496e697469616c697a61626c653a20636f6e747261637420697320616c72656160448201527f647920696e697469616c697a6564000000000000000000000000000000000000606482015260840161052f565b506000919050565b60005460ff808416911610610be65760405162461bcd60e51b815260206004820152602e60248201527f496e697469616c697a61626c653a20636f6e747261637420697320616c72656160448201527f647920696e697469616c697a6564000000000000000000000000000000000000606482015260840161052f565b506000805460ff191660ff92909216919091179055600190565b919050565b600054610100900460ff16610c705760405162461bcd60e51b815260206004820152602b60248201527f496e697469616c697a61626c653a20636f6e7472616374206973206e6f74206960448201526a6e697469616c697a696e6760a81b606482015260840161052f565b6105888383836000610eee565b6000546001600160a01b03620100009091041633146106b45760405162461bcd60e51b815260206004820181905260248201527f4f776e61626c653a2063616c6c6572206973206e6f7420746865206f776e6572604482015260640161052f565b6105df8282610f72565b610cf28282611030565b6040518181526001600160a01b0383169033907f8c5be1e5ebec7d5bd14f71427d1e84f3dd0314c0f7b2291e5b200ac8c7c3b9259060200160405180910390a35050565b6000546001600160a01b038281166201000090920416146109be57600080546001600160a01b03838116620100008181027fffffffffffffffffffff0000000000000000000000000000000000000000ffff851617855560405193049190911692909183917f8be0079c531659141344cd1fd0a4f28419497f9722a3daafe3b4186f6b6457e091a35050565b6001600160a01b038216610e02576040517f6355e76600000000000000000000000000000000000000000000000000000000815260040160405180910390fd5b826001600160a01b0316826001600160a01b03161415610e2157505050565b6001600160a01b0380841660009081526005602090815260408083209386168352929052208190558015610e955780836001600160a01b0316836001600160a01b03167fd66aff874162a96578e919097b6f6d153dfd89a5cec41bb331fdb0c4aec16e2c60405160405180910390a4505050565b826001600160a01b0316826001600160a01b03167f50546e66e5f44d728365dc3908c63bc5cfeeab470722c1677e3073a6ac294aa160405160405180910390a3505050565b610ee7858585858561103b565b5050505050565b600054610100900460ff16610f595760405162461bcd60e51b815260206004820152602b60248201527f496e697469616c697a61626c653a20636f6e7472616374206973206e6f74206960448201526a6e697469616c697a696e6760a81b606482015260840161052f565b6002805460ff191682151517905561049984848461109c565b7fdeba1e292f8ba88238e10ab3c7f88bd4be4fac56cad5194b6ecceaf653468af1821415610fcc576040517f85c169bd00000000000000000000000000000000000000000000000000000000815260040160405180910390fd5b7f2f0a68ab07768e01943a599e73362a0e17a63a72e94dd2e384d2c1d4db932756821415611026576040517f76755b3800000000000000000000000000000000000000000000000000000000815260040160405180910390fd5b6105df82826111c2565b6105df338383610dc2565b6110488585858585611211565b836001600160a01b0316856001600160a01b03167fddf252ad1be2c89b69c2b068fc378daa952ba7f163c4a11628f55a4df523b3ef8560405161108d91815260200190565b60405180910390a35050505050565b600054610100900460ff166111075760405162461bcd60e51b815260206004820152602b60248201527f496e697469616c697a61626c653a20636f6e7472616374206973206e6f74206960448201526a6e697469616c697a696e6760a81b606482015260840161052f565b611110816113b4565b6111727feafec4d89fa9619884b60000a4d96624a38f7ac2d8d9a604ecf07c12c77e480c60001b6040518060400160405280600481526020017fa4d96624000000000000000000000000000000000000000000000000000000008152506111c2565b61119c7fdeba1e292f8ba88238e10ab3c7f88bd4be4fac56cad5194b6ecceaf653468af1846111c2565b6105887f2f0a68ab07768e01943a599e73362a0e17a63a72e94dd2e384d2c1d4db932756835b600082815260016020908152604090912082516111e1928401906117cd565b5060405182907fcdf4e344c0d23d4cdd0474039d176c55b19d531070dbe17856bfb993a5b5720b90600090a25050565b6001600160a01b038516158061122e57506001600160a01b038416155b15611265576040517fd2d5ec3000000000000000000000000000000000000000000000000000000000815260040160405180910390fd5b6001600160a01b038516600090815260046020526040902054808411156112d1576040517f08d47949000000000000000000000000000000000000000000000000000000008152600481018290526001600160a01b03871660248201526044810185905260640161052f565b336112dd87878761141f565b6001600160a01b03871660009081526004602052604081208054879290611305908490612080565b90915550506001600160a01b03861660009081526004602052604081208054879290611332908490612068565b92505081905550856001600160a01b0316876001600160a01b0316826001600160a01b03167f3997e418d2cef0b3b0e907b1e39605c3f7d32dbd061e82ea5b4a770d46a160a688888860405161138a93929190611fca565b60405180910390a461139e8787878661146f565b6113ab8787878787611552565b50505050505050565b600054610100900460ff166109b55760405162461bcd60e51b815260206004820152602b60248201527f496e697469616c697a61626c653a20636f6e7472616374206973206e6f74206960448201526a6e697469616c697a696e6760a81b606482015260840161052f565b6001600160a01b03831661144557806003600082825461143f9190612068565b90915550505b6001600160a01b0382166105885780600360008282546114659190612080565b9091555050505050565b61148084631aed5a8560e21b6116cb565b156104995760008484848460405160200161149e9493929190611ed3565b60408051601f1981840301815290829052631aed5a8560e21b825291506001600160a01b03861690636bb56a14906114fc907f40b8bec57d7b5ff0dbd9e9acd0a47dfeb0101e1a203766f5ccab00445fbf39e9908590600401611f9e565b600060405180830381600087803b15801561151657600080fd5b505af115801561152a573d6000803e3d6000fd5b505050506040513d6000823e601f3d908101601f1916820160405261076b9190810190611da3565b61156384631aed5a8560e21b6116cb565b1561163c576000858585846040516020016115819493929190611ed3565b60408051601f1981840301815290829052631aed5a8560e21b825291506001600160a01b03861690636bb56a14906115df907fdbe2c314e1aee2970c72666f2ebe8933a8575263ea71e5ff6a9178e95d47a26f908590600401611f9e565b600060405180830381600087803b1580156115f957600080fd5b505af115801561160d573d6000803e3d6000fd5b505050506040513d6000823e601f3d908101601f191682016040526116359190810190611da3565b5050610ee7565b81610ee7576001600160a01b0384163b1561168e576040517fa608fbb60000000000000000000000000000000000000000000000000000000081526001600160a01b038516600482015260240161052f565b6040517f26c247f40000000000000000000000000000000000000000000000000000000081526001600160a01b038516600482015260240161052f565b604080516001600160e01b0319831660248083019190915282518083039091018152604490910182526020810180517bffffffffffffffffffffffffffffffffffffffffffffffffffffffff166301ffc9a760e01b179052905160009190829081906001600160a01b0387169061753090611747908690611f20565b6000604051808303818686fa925050503d8060008114611783576040519150601f19603f3d011682016040523d82523d6000602084013e611788565b606091505b50915091506020815110156117a357600093505050506103f1565b8180156117c357506000818060200190518101906117c19190611e8e565b115b9695505050505050565b8280546117d9906120c3565b90600052602060002090601f0160209004810192826117fb5760008555611841565b82601f1061181457805160ff1916838001178555611841565b82800160010185558215611841579182015b82811115611841578251825591602001919060010190611826565b5061184d929150611851565b5090565b5b8082111561184d5760008155600101611852565b80356001600160a01b0381168114610c0057600080fd5b600082601f83011261188e57600080fd5b813560206118a361189e8361201c565b611feb565b80838252828201915082860187848660051b89010111156118c357600080fd5b60005b858110156118e9576118d782611866565b845292840192908401906001016118c6565b5090979650505050505050565b600082601f83011261190757600080fd5b8135602061191761189e8361201c565b80838252828201915082860187848660051b890101111561193757600080fd5b60005b858110156118e95781358452928401929084019060010161193a565b600082601f83011261196757600080fd5b8135602061197761189e8361201c565b80838252828201915082860187848660051b890101111561199757600080fd5b6000805b868110156119da57823567ffffffffffffffff8111156119b9578283fd5b6119c78b88838d01016119f8565b865250938501939185019160010161199b565b509198975050505050505050565b80358015158114610c0057600080fd5b600082601f830112611a0957600080fd5b8135611a1761189e82612040565b818152846020838601011115611a2c57600080fd5b816020850160208301376000918101602001919091529392505050565b600060208284031215611a5b57600080fd5b61092a82611866565b60008060408385031215611a7757600080fd5b611a8083611866565b9150611a8e60208401611866565b90509250929050565b600080600060608486031215611aac57600080fd5b611ab584611866565b9250611ac360208501611866565b9150604084013590509250925092565b600080600080600060a08688031215611aeb57600080fd5b611af486611866565b9450611b0260208701611866565b935060408601359250611b17606087016119e8565b9150608086013567ffffffffffffffff811115611b3357600080fd5b611b3f888289016119f8565b9150509295509295909350565b60008060408385031215611b5f57600080fd5b611b6883611866565b946020939093013593505050565b600080600080600060a08688031215611b8e57600080fd5b853567ffffffffffffffff80821115611ba657600080fd5b611bb289838a0161187d565b9650602091508188013581811115611bc957600080fd5b611bd58a828b0161187d565b965050604088013581811115611bea57600080fd5b8801601f81018a13611bfb57600080fd5b8035611c0961189e8261201c565b8082825285820191508584018d878560051b8701011115611c2957600080fd5b600094505b83851015611c4c578035835260019490940193918601918601611c2e565b509750611c5f92505050606089016119e8565b93506080880135915080821115611c7557600080fd5b50611b3f88828901611956565b600060208284031215611c9457600080fd5b813567ffffffffffffffff811115611cab57600080fd5b611cb7848285016118f6565b949350505050565b60008060408385031215611cd257600080fd5b823567ffffffffffffffff80821115611cea57600080fd5b611cf6868387016118f6565b93506020850135915080821115611d0c57600080fd5b50611d1985828601611956565b9150509250929050565b600060208284031215611d3557600080fd5b5035919050565b60008060408385031215611d4f57600080fd5b82359150602083013567ffffffffffffffff811115611d6d57600080fd5b611d19858286016119f8565b600060208284031215611d8b57600080fd5b81356001600160e01b03198116811461092a57600080fd5b600060208284031215611db557600080fd5b815167ffffffffffffffff811115611dcc57600080fd5b8201601f81018413611ddd57600080fd5b8051611deb61189e82612040565b818152856020838501011115611e0057600080fd5b611e11826020830160208601612097565b95945050505050565b600080600060608486031215611e2f57600080fd5b833567ffffffffffffffff80821115611e4757600080fd5b611e53878388016119f8565b94506020860135915080821115611e6957600080fd5b50611e76868287016119f8565b925050611e8560408501611866565b90509250925092565b600060208284031215611ea057600080fd5b5051919050565b60008151808452611ebf816020860160208601612097565b601f01601f19169290920160200192915050565b60006bffffffffffffffffffffffff19808760601b168352808660601b166014840152508360288301528251611f10816048850160208701612097565b9190910160480195945050505050565b60008251611f32818460208701612097565b9190910192915050565b6000602080830181845280855180835260408601915060408160051b870101925083870160005b82811015611f9157603f19888603018452611f7f858351611ea7565b94509285019290850190600101611f63565b5092979650505050505050565b828152604060208201526000611cb76040830184611ea7565b60208152600061092a6020830184611ea7565b8381528215156020820152606060408201526000611e116060830184611ea7565b604051601f8201601f1916810167ffffffffffffffff811182821017156120145761201461213f565b604052919050565b600067ffffffffffffffff8211156120365761203661213f565b5060051b60200190565b600067ffffffffffffffff82111561205a5761205a61213f565b50601f01601f191660200190565b6000821982111561207b5761207b612113565b500190565b60008282101561209257612092612113565b500390565b60005b838110156120b257818101518382015260200161209a565b838111156104995750506000910152565b600181811c908216806120d757607f821691505b6020821081141561069157634e487b7160e01b600052602260045260246000fd5b600060001982141561210c5761210c612113565b5060010190565b634e487b7160e01b600052601160045260246000fd5b634e487b7160e01b600052603260045260246000fd5b634e487b7160e01b600052604160045260246000fdfea26469706673582212203f4cd27ed45a5b1705c0e9728ba722505714d36cd733807ef168444894f0b23564736f6c63430008070033496e697469616c697a61626c653a20636f6e747261637420697320616c726561",
  "linkReferences": {},
  "deployedLinkReferences": {}
}