{
  "_format": "hh-sol-artifact-1",
  "contractName": "LSP7MintableInit",
  "sourceName": "contracts/LSP7DigitalAsset/presets/LSP7MintableInit.sol",
  "abi": [
    {
      "inputs": [],
      "stateMutability": "nonpayable",
      "type": "constructor"
    },
    {
      "inputs": [],
      "name": "LSP4TokenNameNotEditable",
      "type": "error"
    },
    {
      "inputs": [],
      "name": "LSP4TokenSymbolNotEditable",
      "type": "error"
    },
    {
      "inputs": [
        {
          "internalType": "address",
          "name": "tokenOwner",
          "type": "address"
        },
        {
          "internalType": "uint256",
          "name": "authorizedAmount",
          "type": "uint256"
        },
        {
          "internalType": "address",
          "name": "operator",
          "type": "address"
        },
        {
          "internalType": "uint256",
          "name": "amount",
          "type": "uint256"
        }
      ],
      "name": "LSP7AmountExceedsAuthorizedAmount",
      "type": "error"
    },
    {
      "inputs": [
        {
          "internalType": "uint256",
          "name": "balance",
          "type": "uint256"
        },
        {
          "internalType": "address",
          "name": "tokenOwner",
          "type": "address"
        },
        {
          "internalType": "uint256",
          "name": "amount",
          "type": "uint256"
        }
      ],
      "name": "LSP7AmountExceedsBalance",
      "type": "error"
    },
    {
      "inputs": [],
      "name": "LSP7CannotSendWithAddressZero",
      "type": "error"
    },
    {
      "inputs": [],
      "name": "LSP7CannotUseAddressZeroAsOperator",
      "type": "error"
    },
    {
      "inputs": [],
      "name": "LSP7InvalidTransferBatch",
      "type": "error"
    },
    {
      "inputs": [
        {
          "internalType": "address",
          "name": "tokenReceiver",
          "type": "address"
        }
      ],
      "name": "LSP7NotifyTokenReceiverContractMissingLSP1Interface",
      "type": "error"
    },
    {
      "inputs": [
        {
          "internalType": "address",
          "name": "tokenReceiver",
          "type": "address"
        }
      ],
      "name": "LSP7NotifyTokenReceiverIsEOA",
      "type": "error"
    },
    {
      "anonymous": false,
      "inputs": [
        {
          "indexed": true,
          "internalType": "address",
          "name": "operator",
          "type": "address"
        },
        {
          "indexed": true,
          "internalType": "address",
          "name": "tokenOwner",
          "type": "address"
        },
        {
          "indexed": true,
          "internalType": "uint256",
          "name": "amount",
          "type": "uint256"
        }
      ],
      "name": "AuthorizedOperator",
      "type": "event"
    },
    {
      "anonymous": false,
      "inputs": [
        {
          "indexed": true,
          "internalType": "bytes32",
          "name": "dataKey",
          "type": "bytes32"
        }
      ],
      "name": "DataChanged",
      "type": "event"
    },
    {
      "anonymous": false,
      "inputs": [
        {
          "indexed": false,
          "internalType": "uint8",
          "name": "version",
          "type": "uint8"
        }
      ],
      "name": "Initialized",
      "type": "event"
    },
    {
      "anonymous": false,
      "inputs": [
        {
          "indexed": true,
          "internalType": "address",
          "name": "previousOwner",
          "type": "address"
        },
        {
          "indexed": true,
          "internalType": "address",
          "name": "newOwner",
          "type": "address"
        }
      ],
      "name": "OwnershipTransferred",
      "type": "event"
    },
    {
      "anonymous": false,
      "inputs": [
        {
          "indexed": true,
          "internalType": "address",
          "name": "operator",
          "type": "address"
        },
        {
          "indexed": true,
          "internalType": "address",
          "name": "tokenOwner",
          "type": "address"
        }
      ],
      "name": "RevokedOperator",
      "type": "event"
    },
    {
      "anonymous": false,
      "inputs": [
        {
          "indexed": true,
          "internalType": "address",
          "name": "operator",
          "type": "address"
        },
        {
          "indexed": true,
          "internalType": "address",
          "name": "from",
          "type": "address"
        },
        {
          "indexed": true,
          "internalType": "address",
          "name": "to",
          "type": "address"
        },
        {
          "indexed": false,
          "internalType": "uint256",
          "name": "amount",
          "type": "uint256"
        },
        {
          "indexed": false,
          "internalType": "bool",
          "name": "force",
          "type": "bool"
        },
        {
          "indexed": false,
          "internalType": "bytes",
          "name": "data",
          "type": "bytes"
        }
      ],
      "name": "Transfer",
      "type": "event"
    },
    {
      "inputs": [
        {
          "internalType": "address",
          "name": "operator",
          "type": "address"
        },
        {
          "internalType": "uint256",
          "name": "amount",
          "type": "uint256"
        }
      ],
      "name": "authorizeOperator",
      "outputs": [],
      "stateMutability": "nonpayable",
      "type": "function"
    },
    {
      "inputs": [
        {
          "internalType": "address",
          "name": "tokenOwner",
          "type": "address"
        }
      ],
      "name": "balanceOf",
      "outputs": [
        {
          "internalType": "uint256",
          "name": "",
          "type": "uint256"
        }
      ],
      "stateMutability": "view",
      "type": "function"
    },
    {
      "inputs": [],
      "name": "decimals",
      "outputs": [
        {
          "internalType": "uint256",
          "name": "",
          "type": "uint256"
        }
      ],
      "stateMutability": "view",
      "type": "function"
    },
    {
      "inputs": [
        {
          "internalType": "bytes32[]",
          "name": "dataKeys",
          "type": "bytes32[]"
        }
      ],
      "name": "getData",
      "outputs": [
        {
          "internalType": "bytes[]",
          "name": "dataValues",
          "type": "bytes[]"
        }
      ],
      "stateMutability": "view",
      "type": "function"
    },
    {
      "inputs": [
        {
          "internalType": "bytes32",
          "name": "dataKey",
          "type": "bytes32"
        }
      ],
      "name": "getData",
      "outputs": [
        {
          "internalType": "bytes",
          "name": "dataValue",
          "type": "bytes"
        }
      ],
      "stateMutability": "view",
      "type": "function"
    },
    {
      "inputs": [
        {
          "internalType": "string",
          "name": "name_",
          "type": "string"
        },
        {
          "internalType": "string",
          "name": "symbol_",
          "type": "string"
        },
        {
          "internalType": "address",
          "name": "newOwner_",
          "type": "address"
        },
        {
          "internalType": "bool",
          "name": "isNFT_",
          "type": "bool"
        }
      ],
      "name": "initialize",
      "outputs": [],
      "stateMutability": "nonpayable",
      "type": "function"
    },
    {
      "inputs": [],
      "name": "initialized",
      "outputs": [
        {
          "internalType": "uint8",
          "name": "",
          "type": "uint8"
        }
      ],
      "stateMutability": "view",
      "type": "function"
    },
    {
      "inputs": [],
      "name": "initializing",
      "outputs": [
        {
          "internalType": "bool",
          "name": "",
          "type": "bool"
        }
      ],
      "stateMutability": "view",
      "type": "function"
    },
    {
      "inputs": [
        {
          "internalType": "address",
          "name": "operator",
          "type": "address"
        },
        {
          "internalType": "address",
          "name": "tokenOwner",
          "type": "address"
        }
      ],
      "name": "isOperatorFor",
      "outputs": [
        {
          "internalType": "uint256",
          "name": "",
          "type": "uint256"
        }
      ],
      "stateMutability": "view",
      "type": "function"
    },
    {
      "inputs": [
        {
          "internalType": "address",
          "name": "to",
          "type": "address"
        },
        {
          "internalType": "uint256",
          "name": "amount",
          "type": "uint256"
        },
        {
          "internalType": "bool",
          "name": "force",
          "type": "bool"
        },
        {
          "internalType": "bytes",
          "name": "data",
          "type": "bytes"
        }
      ],
      "name": "mint",
      "outputs": [],
      "stateMutability": "nonpayable",
      "type": "function"
    },
    {
      "inputs": [],
      "name": "owner",
      "outputs": [
        {
          "internalType": "address",
          "name": "",
          "type": "address"
        }
      ],
      "stateMutability": "view",
      "type": "function"
    },
    {
      "inputs": [],
      "name": "renounceOwnership",
      "outputs": [],
      "stateMutability": "nonpayable",
      "type": "function"
    },
    {
      "inputs": [
        {
          "internalType": "address",
          "name": "operator",
          "type": "address"
        }
      ],
      "name": "revokeOperator",
      "outputs": [],
      "stateMutability": "nonpayable",
      "type": "function"
    },
    {
      "inputs": [
        {
          "internalType": "bytes32[]",
          "name": "dataKeys",
          "type": "bytes32[]"
        },
        {
          "internalType": "bytes[]",
          "name": "dataValues",
          "type": "bytes[]"
        }
      ],
      "name": "setData",
      "outputs": [],
      "stateMutability": "nonpayable",
      "type": "function"
    },
    {
      "inputs": [
        {
          "internalType": "bytes32",
          "name": "dataKey",
          "type": "bytes32"
        },
        {
          "internalType": "bytes",
          "name": "dataValue",
          "type": "bytes"
        }
      ],
      "name": "setData",
      "outputs": [],
      "stateMutability": "nonpayable",
      "type": "function"
    },
    {
      "inputs": [
        {
          "internalType": "bytes4",
          "name": "interfaceId",
          "type": "bytes4"
        }
      ],
      "name": "supportsInterface",
      "outputs": [
        {
          "internalType": "bool",
          "name": "",
          "type": "bool"
        }
      ],
      "stateMutability": "view",
      "type": "function"
    },
    {
      "inputs": [],
      "name": "totalSupply",
      "outputs": [
        {
          "internalType": "uint256",
          "name": "",
          "type": "uint256"
        }
      ],
      "stateMutability": "view",
      "type": "function"
    },
    {
      "inputs": [
        {
          "internalType": "address",
          "name": "from",
          "type": "address"
        },
        {
          "internalType": "address",
          "name": "to",
          "type": "address"
        },
        {
          "internalType": "uint256",
          "name": "amount",
          "type": "uint256"
        },
        {
          "internalType": "bool",
          "name": "force",
          "type": "bool"
        },
        {
          "internalType": "bytes",
          "name": "data",
          "type": "bytes"
        }
      ],
      "name": "transfer",
      "outputs": [],
      "stateMutability": "nonpayable",
      "type": "function"
    },
    {
      "inputs": [
        {
          "internalType": "address[]",
          "name": "from",
          "type": "address[]"
        },
        {
          "internalType": "address[]",
          "name": "to",
          "type": "address[]"
        },
        {
          "internalType": "uint256[]",
          "name": "amount",
          "type": "uint256[]"
        },
        {
          "internalType": "bool",
          "name": "force",
          "type": "bool"
        },
        {
          "internalType": "bytes[]",
          "name": "data",
          "type": "bytes[]"
        }
      ],
      "name": "transferBatch",
      "outputs": [],
      "stateMutability": "nonpayable",
      "type": "function"
    },
    {
      "inputs": [
        {
          "internalType": "address",
          "name": "newOwner",
          "type": "address"
        }
      ],
      "name": "transferOwnership",
      "outputs": [],
      "stateMutability": "nonpayable",
      "type": "function"
    }
  ],
  "bytecode": "0x60806040523480156200001157600080fd5b506200001c62000022565b62000152565b6200002e60ff62000031565b50565b60008054610100900460ff1615620000ca578160ff1660011480156200006a575062000068306200014360201b620008a11760201c565b155b620000c25760405162461bcd60e51b815260206004820152602e6024820152600080516020620021e283398151915260448201526d191e481a5b9a5d1a585b1a5e995960921b60648201526084015b60405180910390fd5b506000919050565b60005460ff808416911610620001295760405162461bcd60e51b815260206004820152602e6024820152600080516020620021e283398151915260448201526d191e481a5b9a5d1a585b1a5e995960921b6064820152608401620000b9565b506000805460ff191660ff92909216919091179055600190565b6001600160a01b03163b151590565b61208080620001626000396000f3fe608060405234801561001057600080fd5b506004361061016c5760003560e01c806370a08231116100cd5780638da5cb5b11610081578063d95b637111610066578063d95b6371146102fa578063f2fde38b1461030d578063fad8b32a1461032057600080fd5b80638da5cb5b146102bd578063a8a34e0a146102e757600080fd5b80637580d920116100b25780637580d92014610284578063760d9bba146102975780637f23690c146102aa57600080fd5b806370a0823114610253578063715018a61461027c57600080fd5b8063313ce567116101245780634e3e6e9c116101095780634e3e6e9c1461020057806354f6127f146102205780635c108a431461024057600080fd5b8063313ce567146101e557806347980aa3146101ed57600080fd5b8063158ef93e11610155578063158ef93e146101ae57806318160ddd146101c35780632599f159146101d557600080fd5b806301ffc9a71461017157806314a6e29314610199575b600080fd5b61018461017f366004611c5d565b610333565b60405190151581526020015b60405180910390f35b6101ac6101a7366004611ba3565b610377565b005b60005460405160ff9091168152602001610190565b6003545b604051908152602001610190565b600054610100900460ff16610184565b6101c7610450565b6101ac6101fb3660046119c8565b61046f565b61021361020e366004611b66565b61047e565b6040516101909190611e31565b61023361022e366004611c07565b610532565b6040516101909190611eac565b6101ac61024e366004611cfe565b61053d565b6101c76102613660046118fa565b6001600160a01b031660009081526004602052604090205490565b6101ac6105ba565b6101ac6102923660046119f2565b6105ce565b6101ac6102a536600461194f565b6105e8565b6101ac6102b8366004611c20565b6106a5565b6000546201000090046001600160a01b03166040516001600160a01b039091168152602001610190565b6101ac6102f5366004611a5a565b6106b7565b6101c761030836600461191c565b61079d565b6101ac61031b3660046118fa565b610805565b6101ac61032e3660046118fa565b610895565b60006001600160e01b031982167fe33f65c30000000000000000000000000000000000000000000000000000000014806103715750610371826108b0565b92915050565b61037f6108fe565b80518251146103fb5760405162461bcd60e51b815260206004820152602660248201527f4b657973206c656e677468206e6f7420657175616c20746f2076616c7565732060448201527f6c656e677468000000000000000000000000000000000000000000000000000060648201526084015b60405180910390fd5b60005b825181101561044b5761044383828151811061041c5761041c61201e565b60200260200101518383815181106104365761043661201e565b602002602001015161095f565b6001016103fe565b505050565b60025460009060ff16610464576012610467565b60005b60ff16905090565b61047a338383610a1d565b5050565b6060815167ffffffffffffffff81111561049a5761049a612034565b6040519080825280602002602001820160405280156104cd57816020015b60608152602001906001900390816104b85790505b50905060005b825181101561052c576104fe8382815181106104f1576104f161201e565b6020026020010151610b35565b8282815181106105105761051061201e565b60200260200101819052506105258160010190565b90506104d3565b50919050565b606061037182610b35565b60006105496001610bd7565b90508015610561576000805461ff0019166101001790555b61056d85858585610d10565b80156105b3576000805461ff0019169055604051600181527f7f26b83ff96e1f2b6a682f133852f6798a09c465da95921460cefb38474024989060200160405180910390a15b5050505050565b6105c26108fe565b6105cc6000610d87565b565b6105d66108fe565b6105e284848484610e13565b50505050565b336001600160a01b0386168114610690576001600160a01b038087166000908152600560209081526040808320938516835292905220548085111561067a576040517ff3a6b6910000000000000000000000000000000000000000000000000000000081526001600160a01b0380891660048301526024820183905283166044820152606481018690526084016103f2565b61068e87836106898885611f75565b610a1d565b505b61069d8686868686610ede565b505050505050565b6106ad6108fe565b61047a828261095f565b835185511415806106ca57508251855114155b806106d757508051855114155b1561070e576040517f263eee8d00000000000000000000000000000000000000000000000000000000815260040160405180910390fd5b60005b855181101561069d5761078b86828151811061072f5761072f61201e565b60200260200101518683815181106107495761074961201e565b60200260200101518684815181106107635761076361201e565b60200260200101518686868151811061077e5761077e61201e565b60200260200101516105e8565b8061079581611fed565b915050610711565b6000826001600160a01b0316826001600160a01b031614156107d857506001600160a01b038116600090815260046020526040902054610371565b506001600160a01b0380821660009081526005602090815260408083209386168352929052205492915050565b61080d6108fe565b6001600160a01b0381166108895760405162461bcd60e51b815260206004820152602660248201527f4f776e61626c653a206e6577206f776e657220697320746865207a65726f206160448201527f646472657373000000000000000000000000000000000000000000000000000060648201526084016103f2565b61089281610d87565b50565b61089233826000610a1d565b6001600160a01b03163b151590565b60006001600160e01b031982167f714df77c00000000000000000000000000000000000000000000000000000000148061037157506301ffc9a760e01b6001600160e01b0319831614610371565b6000546001600160a01b03620100009091041633146105cc5760405162461bcd60e51b815260206004820181905260248201527f4f776e61626c653a2063616c6c6572206973206e6f7420746865206f776e657260448201526064016103f2565b7fdeba1e292f8ba88238e10ab3c7f88bd4be4fac56cad5194b6ecceaf653468af18214156109b9576040517f85c169bd00000000000000000000000000000000000000000000000000000000815260040160405180910390fd5b7f2f0a68ab07768e01943a599e73362a0e17a63a72e94dd2e384d2c1d4db932756821415610a13576040517f76755b3800000000000000000000000000000000000000000000000000000000815260040160405180910390fd5b61047a8282611068565b6001600160a01b038216610a5d576040517f6355e76600000000000000000000000000000000000000000000000000000000815260040160405180910390fd5b826001600160a01b0316826001600160a01b03161415610a7c57505050565b6001600160a01b0380841660009081526005602090815260408083209386168352929052208190558015610af05780836001600160a01b0316836001600160a01b03167fd66aff874162a96578e919097b6f6d153dfd89a5cec41bb331fdb0c4aec16e2c60405160405180910390a4505050565b826001600160a01b0316826001600160a01b03167f50546e66e5f44d728365dc3908c63bc5cfeeab470722c1677e3073a6ac294aa160405160405180910390a3505050565b6000818152600160205260409020805460609190610b5290611fb8565b80601f0160208091040260200160405190810160405280929190818152602001828054610b7e90611fb8565b8015610bcb5780601f10610ba057610100808354040283529160200191610bcb565b820191906000526020600020905b815481529060010190602001808311610bae57829003601f168201915b50505050509050919050565b60008054610100900460ff1615610c74578160ff166001148015610bfa5750303b155b610c6c5760405162461bcd60e51b815260206004820152602e60248201527f496e697469616c697a61626c653a20636f6e747261637420697320616c72656160448201527f647920696e697469616c697a656400000000000000000000000000000000000060648201526084016103f2565b506000919050565b60005460ff808416911610610cf15760405162461bcd60e51b815260206004820152602e60248201527f496e697469616c697a61626c653a20636f6e747261637420697320616c72656160448201527f647920696e697469616c697a656400000000000000000000000000000000000060648201526084016103f2565b506000805460ff191660ff92909216919091179055600190565b919050565b600054610100900460ff16610d7b5760405162461bcd60e51b815260206004820152602b60248201527f496e697469616c697a61626c653a20636f6e7472616374206973206e6f74206960448201526a6e697469616c697a696e6760a81b60648201526084016103f2565b6105e2848484846110b7565b6000546001600160a01b0382811662010000909204161461089257600080546001600160a01b03838116620100008181027fffffffffffffffffffff0000000000000000000000000000000000000000ffff851617855560405193049190911692909183917f8be0079c531659141344cd1fd0a4f28419497f9722a3daafe3b4186f6b6457e091a35050565b6001600160a01b038416610e3a57604051630d2d5ec360e41b815260040160405180910390fd5b33610e476000868661113b565b6001600160a01b03851660009081526004602052604081208054869290610e6f908490611f5d565b92505081905550846001600160a01b031660006001600160a01b0316826001600160a01b03167f3997e418d2cef0b3b0e907b1e39605c3f7d32dbd061e82ea5b4a770d46a160a6878787604051610ec893929190611ebf565b60405180910390a46105b360008686868661118b565b6001600160a01b0385161580610efb57506001600160a01b038416155b15610f1957604051630d2d5ec360e41b815260040160405180910390fd5b6001600160a01b03851660009081526004602052604090205480841115610f85576040517f08d47949000000000000000000000000000000000000000000000000000000008152600481018290526001600160a01b0387166024820152604481018590526064016103f2565b33610f9187878761113b565b6001600160a01b03871660009081526004602052604081208054879290610fb9908490611f75565b90915550506001600160a01b03861660009081526004602052604081208054879290610fe6908490611f5d565b92505081905550856001600160a01b0316876001600160a01b0316826001600160a01b03167f3997e418d2cef0b3b0e907b1e39605c3f7d32dbd061e82ea5b4a770d46a160a688888860405161103e93929190611ebf565b60405180910390a461105287878786611304565b61105f878787878761118b565b50505050505050565b600082815260016020908152604090912082516110879284019061167e565b5060405182907fcdf4e344c0d23d4cdd0474039d176c55b19d531070dbe17856bfb993a5b5720b90600090a25050565b600054610100900460ff166111225760405162461bcd60e51b815260206004820152602b60248201527f496e697469616c697a61626c653a20636f6e7472616374206973206e6f74206960448201526a6e697469616c697a696e6760a81b60648201526084016103f2565b6002805460ff19168215151790556105e28484846113e7565b6001600160a01b03831661116157806003600082825461115b9190611f5d565b90915550505b6001600160a01b03821661044b5780600360008282546111819190611f75565b9091555050505050565b61119c84631aed5a8560e21b611511565b15611275576000858585846040516020016111ba9493929190611dc8565b60408051601f1981840301815290829052631aed5a8560e21b825291506001600160a01b03861690636bb56a1490611218907fdbe2c314e1aee2970c72666f2ebe8933a8575263ea71e5ff6a9178e95d47a26f908590600401611e93565b600060405180830381600087803b15801561123257600080fd5b505af1158015611246573d6000803e3d6000fd5b505050506040513d6000823e601f3d908101601f1916820160405261126e9190810190611c87565b50506105b3565b816105b3576001600160a01b0384163b156112c7576040517fa608fbb60000000000000000000000000000000000000000000000000000000081526001600160a01b03851660048201526024016103f2565b6040517f26c247f40000000000000000000000000000000000000000000000000000000081526001600160a01b03851660048201526024016103f2565b61131584631aed5a8560e21b611511565b156105e2576000848484846040516020016113339493929190611dc8565b60408051601f1981840301815290829052631aed5a8560e21b825291506001600160a01b03861690636bb56a1490611391907f40b8bec57d7b5ff0dbd9e9acd0a47dfeb0101e1a203766f5ccab00445fbf39e9908590600401611e93565b600060405180830381600087803b1580156113ab57600080fd5b505af11580156113bf573d6000803e3d6000fd5b505050506040513d6000823e601f3d908101601f1916820160405261069d9190810190611c87565b600054610100900460ff166114525760405162461bcd60e51b815260206004820152602b60248201527f496e697469616c697a61626c653a20636f6e7472616374206973206e6f74206960448201526a6e697469616c697a696e6760a81b60648201526084016103f2565b61145b81611613565b6114bd7feafec4d89fa9619884b60000a4d96624a38f7ac2d8d9a604ecf07c12c77e480c60001b6040518060400160405280600481526020017fa4d9662400000000000000000000000000000000000000000000000000000000815250611068565b6114e77fdeba1e292f8ba88238e10ab3c7f88bd4be4fac56cad5194b6ecceaf653468af184611068565b61044b7f2f0a68ab07768e01943a599e73362a0e17a63a72e94dd2e384d2c1d4db93275683611068565b604080516001600160e01b0319831660248083019190915282518083039091018152604490910182526020810180517bffffffffffffffffffffffffffffffffffffffffffffffffffffffff166301ffc9a760e01b179052905160009190829081906001600160a01b038716906175309061158d908690611e15565b6000604051808303818686fa925050503d80600081146115c9576040519150601f19603f3d011682016040523d82523d6000602084013e6115ce565b606091505b50915091506020815110156115e95760009350505050610371565b81801561160957506000818060200190518101906116079190611d83565b115b9695505050505050565b600054610100900460ff166108895760405162461bcd60e51b815260206004820152602b60248201527f496e697469616c697a61626c653a20636f6e7472616374206973206e6f74206960448201526a6e697469616c697a696e6760a81b60648201526084016103f2565b82805461168a90611fb8565b90600052602060002090601f0160209004810192826116ac57600085556116f2565b82601f106116c557805160ff19168380011785556116f2565b828001600101855582156116f2579182015b828111156116f25782518255916020019190600101906116d7565b506116fe929150611702565b5090565b5b808211156116fe5760008155600101611703565b80356001600160a01b0381168114610d0b57600080fd5b600082601f83011261173f57600080fd5b8135602061175461174f83611f11565b611ee0565b80838252828201915082860187848660051b890101111561177457600080fd5b60005b8581101561179a5761178882611717565b84529284019290840190600101611777565b5090979650505050505050565b600082601f8301126117b857600080fd5b813560206117c861174f83611f11565b80838252828201915082860187848660051b89010111156117e857600080fd5b60005b8581101561179a578135845292840192908401906001016117eb565b600082601f83011261181857600080fd5b8135602061182861174f83611f11565b80838252828201915082860187848660051b890101111561184857600080fd5b6000805b8681101561188b57823567ffffffffffffffff81111561186a578283fd5b6118788b88838d01016118a9565b865250938501939185019160010161184c565b509198975050505050505050565b80358015158114610d0b57600080fd5b600082601f8301126118ba57600080fd5b81356118c861174f82611f35565b8181528460208386010111156118dd57600080fd5b816020850160208301376000918101602001919091529392505050565b60006020828403121561190c57600080fd5b61191582611717565b9392505050565b6000806040838503121561192f57600080fd5b61193883611717565b915061194660208401611717565b90509250929050565b600080600080600060a0868803121561196757600080fd5b61197086611717565b945061197e60208701611717565b93506040860135925061199360608701611899565b9150608086013567ffffffffffffffff8111156119af57600080fd5b6119bb888289016118a9565b9150509295509295909350565b600080604083850312156119db57600080fd5b6119e483611717565b946020939093013593505050565b60008060008060808587031215611a0857600080fd5b611a1185611717565b935060208501359250611a2660408601611899565b9150606085013567ffffffffffffffff811115611a4257600080fd5b611a4e878288016118a9565b91505092959194509250565b600080600080600060a08688031215611a7257600080fd5b853567ffffffffffffffff80821115611a8a57600080fd5b611a9689838a0161172e565b9650602091508188013581811115611aad57600080fd5b611ab98a828b0161172e565b965050604088013581811115611ace57600080fd5b8801601f81018a13611adf57600080fd5b8035611aed61174f82611f11565b8082825285820191508584018d878560051b8701011115611b0d57600080fd5b600094505b83851015611b30578035835260019490940193918601918601611b12565b509750611b439250505060608901611899565b93506080880135915080821115611b5957600080fd5b506119bb88828901611807565b600060208284031215611b7857600080fd5b813567ffffffffffffffff811115611b8f57600080fd5b611b9b848285016117a7565b949350505050565b60008060408385031215611bb657600080fd5b823567ffffffffffffffff80821115611bce57600080fd5b611bda868387016117a7565b93506020850135915080821115611bf057600080fd5b50611bfd85828601611807565b9150509250929050565b600060208284031215611c1957600080fd5b5035919050565b60008060408385031215611c3357600080fd5b82359150602083013567ffffffffffffffff811115611c5157600080fd5b611bfd858286016118a9565b600060208284031215611c6f57600080fd5b81356001600160e01b03198116811461191557600080fd5b600060208284031215611c9957600080fd5b815167ffffffffffffffff811115611cb057600080fd5b8201601f81018413611cc157600080fd5b8051611ccf61174f82611f35565b818152856020838501011115611ce457600080fd5b611cf5826020830160208601611f8c565b95945050505050565b60008060008060808587031215611d1457600080fd5b843567ffffffffffffffff80821115611d2c57600080fd5b611d38888389016118a9565b95506020870135915080821115611d4e57600080fd5b50611d5b878288016118a9565b935050611d6a60408601611717565b9150611d7860608601611899565b905092959194509250565b600060208284031215611d9557600080fd5b5051919050565b60008151808452611db4816020860160208601611f8c565b601f01601f19169290920160200192915050565b60006bffffffffffffffffffffffff19808760601b168352808660601b166014840152508360288301528251611e05816048850160208701611f8c565b9190910160480195945050505050565b60008251611e27818460208701611f8c565b9190910192915050565b6000602080830181845280855180835260408601915060408160051b870101925083870160005b82811015611e8657603f19888603018452611e74858351611d9c565b94509285019290850190600101611e58565b5092979650505050505050565b828152604060208201526000611b9b6040830184611d9c565b6020815260006119156020830184611d9c565b8381528215156020820152606060408201526000611cf56060830184611d9c565b604051601f8201601f1916810167ffffffffffffffff81118282101715611f0957611f09612034565b604052919050565b600067ffffffffffffffff821115611f2b57611f2b612034565b5060051b60200190565b600067ffffffffffffffff821115611f4f57611f4f612034565b50601f01601f191660200190565b60008219821115611f7057611f70612008565b500190565b600082821015611f8757611f87612008565b500390565b60005b83811015611fa7578181015183820152602001611f8f565b838111156105e25750506000910152565b600181811c90821680611fcc57607f821691505b6020821081141561052c57634e487b7160e01b600052602260045260246000fd5b600060001982141561200157612001612008565b5060010190565b634e487b7160e01b600052601160045260246000fd5b634e487b7160e01b600052603260045260246000fd5b634e487b7160e01b600052604160045260246000fdfea2646970667358221220d34ef780a57fd64fde058b7ea764dc0327a46829d183ca562eb383e8730f3afe64736f6c63430008070033496e697469616c697a61626c653a20636f6e747261637420697320616c726561",
  "linkReferences": {},
  "deployedLinkReferences": {}
}