{
  "_format": "hh-sol-artifact-1",
  "contractName": "LSP8InitTester",
  "sourceName": "contracts/Helpers/Tokens/LSP8InitTester.sol",
  "abi": [
    {
      "inputs": [],
      "name": "LSP4TokenNameNotEditable",
      "type": "error"
    },
    {
      "inputs": [],
      "name": "LSP4TokenSymbolNotEditable",
      "type": "error"
    },
    {
      "inputs": [],
      "name": "LSP8CannotSendToAddressZero",
      "type": "error"
    },
    {
      "inputs": [],
      "name": "LSP8CannotUseAddressZeroAsOperator",
      "type": "error"
    },
    {
      "inputs": [],
      "name": "LSP8InvalidTransferBatch",
      "type": "error"
    },
    {
      "inputs": [
        {
          "internalType": "bytes32",
          "name": "tokenId",
          "type": "bytes32"
        }
      ],
      "name": "LSP8NonExistentTokenId",
      "type": "error"
    },
    {
      "inputs": [
        {
          "internalType": "bytes32",
          "name": "tokenId",
          "type": "bytes32"
        },
        {
          "internalType": "address",
          "name": "caller",
          "type": "address"
        }
      ],
      "name": "LSP8NotTokenOperator",
      "type": "error"
    },
    {
      "inputs": [
        {
          "internalType": "address",
          "name": "tokenOwner",
          "type": "address"
        },
        {
          "internalType": "bytes32",
          "name": "tokenId",
          "type": "bytes32"
        },
        {
          "internalType": "address",
          "name": "caller",
          "type": "address"
        }
      ],
      "name": "LSP8NotTokenOwner",
      "type": "error"
    },
    {
      "inputs": [
        {
          "internalType": "address",
          "name": "tokenReceiver",
          "type": "address"
        }
      ],
      "name": "LSP8NotifyTokenReceiverContractMissingLSP1Interface",
      "type": "error"
    },
    {
      "inputs": [
        {
          "internalType": "address",
          "name": "tokenReceiver",
          "type": "address"
        }
      ],
      "name": "LSP8NotifyTokenReceiverIsEOA",
      "type": "error"
    },
    {
      "inputs": [
        {
          "internalType": "bytes32",
          "name": "tokenId",
          "type": "bytes32"
        }
      ],
      "name": "LSP8TokenIdAlreadyMinted",
      "type": "error"
    },
    {
      "anonymous": false,
      "inputs": [
        {
          "indexed": true,
          "internalType": "address",
          "name": "operator",
          "type": "address"
        },
        {
          "indexed": true,
          "internalType": "address",
          "name": "tokenOwner",
          "type": "address"
        },
        {
          "indexed": true,
          "internalType": "bytes32",
          "name": "tokenId",
          "type": "bytes32"
        }
      ],
      "name": "AuthorizedOperator",
      "type": "event"
    },
    {
      "anonymous": false,
      "inputs": [
        {
          "indexed": true,
          "internalType": "bytes32",
          "name": "dataKey",
          "type": "bytes32"
        }
      ],
      "name": "DataChanged",
      "type": "event"
    },
    {
      "anonymous": false,
      "inputs": [
        {
          "indexed": false,
          "internalType": "uint8",
          "name": "version",
          "type": "uint8"
        }
      ],
      "name": "Initialized",
      "type": "event"
    },
    {
      "anonymous": false,
      "inputs": [
        {
          "indexed": true,
          "internalType": "address",
          "name": "previousOwner",
          "type": "address"
        },
        {
          "indexed": true,
          "internalType": "address",
          "name": "newOwner",
          "type": "address"
        }
      ],
      "name": "OwnershipTransferred",
      "type": "event"
    },
    {
      "anonymous": false,
      "inputs": [
        {
          "indexed": true,
          "internalType": "address",
          "name": "operator",
          "type": "address"
        },
        {
          "indexed": true,
          "internalType": "address",
          "name": "tokenOwner",
          "type": "address"
        },
        {
          "indexed": true,
          "internalType": "bytes32",
          "name": "tokenId",
          "type": "bytes32"
        }
      ],
      "name": "RevokedOperator",
      "type": "event"
    },
    {
      "anonymous": false,
      "inputs": [
        {
          "indexed": false,
          "internalType": "address",
          "name": "operator",
          "type": "address"
        },
        {
          "indexed": true,
          "internalType": "address",
          "name": "from",
          "type": "address"
        },
        {
          "indexed": true,
          "internalType": "address",
          "name": "to",
          "type": "address"
        },
        {
          "indexed": true,
          "internalType": "bytes32",
          "name": "tokenId",
          "type": "bytes32"
        },
        {
          "indexed": false,
          "internalType": "bool",
          "name": "force",
          "type": "bool"
        },
        {
          "indexed": false,
          "internalType": "bytes",
          "name": "data",
          "type": "bytes"
        }
      ],
      "name": "Transfer",
      "type": "event"
    },
    {
      "inputs": [
        {
          "internalType": "address",
          "name": "operator",
          "type": "address"
        },
        {
          "internalType": "bytes32",
          "name": "tokenId",
          "type": "bytes32"
        }
      ],
      "name": "authorizeOperator",
      "outputs": [],
      "stateMutability": "nonpayable",
      "type": "function"
    },
    {
      "inputs": [
        {
          "internalType": "address",
          "name": "tokenOwner",
          "type": "address"
        }
      ],
      "name": "balanceOf",
      "outputs": [
        {
          "internalType": "uint256",
          "name": "",
          "type": "uint256"
        }
      ],
      "stateMutability": "view",
      "type": "function"
    },
    {
      "inputs": [
        {
          "internalType": "bytes32",
          "name": "tokenId",
          "type": "bytes32"
        },
        {
          "internalType": "bytes",
          "name": "data",
          "type": "bytes"
        }
      ],
      "name": "burn",
      "outputs": [],
      "stateMutability": "nonpayable",
      "type": "function"
    },
    {
      "inputs": [
        {
          "internalType": "bytes32[]",
          "name": "dataKeys",
          "type": "bytes32[]"
        }
      ],
      "name": "getData",
      "outputs": [
        {
          "internalType": "bytes[]",
          "name": "dataValues",
          "type": "bytes[]"
        }
      ],
      "stateMutability": "view",
      "type": "function"
    },
    {
      "inputs": [
        {
          "internalType": "bytes32",
          "name": "dataKey",
          "type": "bytes32"
        }
      ],
      "name": "getData",
      "outputs": [
        {
          "internalType": "bytes",
          "name": "dataValue",
          "type": "bytes"
        }
      ],
      "stateMutability": "view",
      "type": "function"
    },
    {
      "inputs": [
        {
          "internalType": "bytes32",
          "name": "tokenId",
          "type": "bytes32"
        }
      ],
      "name": "getOperatorsOf",
      "outputs": [
        {
          "internalType": "address[]",
          "name": "",
          "type": "address[]"
        }
      ],
      "stateMutability": "view",
      "type": "function"
    },
    {
      "inputs": [
        {
          "internalType": "string",
          "name": "name",
          "type": "string"
        },
        {
          "internalType": "string",
          "name": "symbol",
          "type": "string"
        },
        {
          "internalType": "address",
          "name": "newOwner",
          "type": "address"
        }
      ],
      "name": "initialize",
      "outputs": [],
      "stateMutability": "nonpayable",
      "type": "function"
    },
    {
      "inputs": [],
      "name": "initialized",
      "outputs": [
        {
          "internalType": "uint8",
          "name": "",
          "type": "uint8"
        }
      ],
      "stateMutability": "view",
      "type": "function"
    },
    {
      "inputs": [],
      "name": "initializing",
      "outputs": [
        {
          "internalType": "bool",
          "name": "",
          "type": "bool"
        }
      ],
      "stateMutability": "view",
      "type": "function"
    },
    {
      "inputs": [
        {
          "internalType": "address",
          "name": "operator",
          "type": "address"
        },
        {
          "internalType": "bytes32",
          "name": "tokenId",
          "type": "bytes32"
        }
      ],
      "name": "isOperatorFor",
      "outputs": [
        {
          "internalType": "bool",
          "name": "",
          "type": "bool"
        }
      ],
      "stateMutability": "view",
      "type": "function"
    },
    {
      "inputs": [
        {
          "internalType": "address",
          "name": "to",
          "type": "address"
        },
        {
          "internalType": "bytes32",
          "name": "tokenId",
          "type": "bytes32"
        },
        {
          "internalType": "bool",
          "name": "force",
          "type": "bool"
        },
        {
          "internalType": "bytes",
          "name": "data",
          "type": "bytes"
        }
      ],
      "name": "mint",
      "outputs": [],
      "stateMutability": "nonpayable",
      "type": "function"
    },
    {
      "inputs": [],
      "name": "owner",
      "outputs": [
        {
          "internalType": "address",
          "name": "",
          "type": "address"
        }
      ],
      "stateMutability": "view",
      "type": "function"
    },
    {
      "inputs": [],
      "name": "renounceOwnership",
      "outputs": [],
      "stateMutability": "nonpayable",
      "type": "function"
    },
    {
      "inputs": [
        {
          "internalType": "address",
          "name": "operator",
          "type": "address"
        },
        {
          "internalType": "bytes32",
          "name": "tokenId",
          "type": "bytes32"
        }
      ],
      "name": "revokeOperator",
      "outputs": [],
      "stateMutability": "nonpayable",
      "type": "function"
    },
    {
      "inputs": [
        {
          "internalType": "bytes32[]",
          "name": "dataKeys",
          "type": "bytes32[]"
        },
        {
          "internalType": "bytes[]",
          "name": "dataValues",
          "type": "bytes[]"
        }
      ],
      "name": "setData",
      "outputs": [],
      "stateMutability": "nonpayable",
      "type": "function"
    },
    {
      "inputs": [
        {
          "internalType": "bytes32",
          "name": "dataKey",
          "type": "bytes32"
        },
        {
          "internalType": "bytes",
          "name": "dataValue",
          "type": "bytes"
        }
      ],
      "name": "setData",
      "outputs": [],
      "stateMutability": "nonpayable",
      "type": "function"
    },
    {
      "inputs": [
        {
          "internalType": "bytes4",
          "name": "interfaceId",
          "type": "bytes4"
        }
      ],
      "name": "supportsInterface",
      "outputs": [
        {
          "internalType": "bool",
          "name": "",
          "type": "bool"
        }
      ],
      "stateMutability": "view",
      "type": "function"
    },
    {
      "inputs": [
        {
          "internalType": "address",
          "name": "tokenOwner",
          "type": "address"
        }
      ],
      "name": "tokenIdsOf",
      "outputs": [
        {
          "internalType": "bytes32[]",
          "name": "",
          "type": "bytes32[]"
        }
      ],
      "stateMutability": "view",
      "type": "function"
    },
    {
      "inputs": [
        {
          "internalType": "bytes32",
          "name": "tokenId",
          "type": "bytes32"
        }
      ],
      "name": "tokenOwnerOf",
      "outputs": [
        {
          "internalType": "address",
          "name": "",
          "type": "address"
        }
      ],
      "stateMutability": "view",
      "type": "function"
    },
    {
      "inputs": [],
      "name": "totalSupply",
      "outputs": [
        {
          "internalType": "uint256",
          "name": "",
          "type": "uint256"
        }
      ],
      "stateMutability": "view",
      "type": "function"
    },
    {
      "inputs": [
        {
          "internalType": "address",
          "name": "from",
          "type": "address"
        },
        {
          "internalType": "address",
          "name": "to",
          "type": "address"
        },
        {
          "internalType": "bytes32",
          "name": "tokenId",
          "type": "bytes32"
        },
        {
          "internalType": "bool",
          "name": "force",
          "type": "bool"
        },
        {
          "internalType": "bytes",
          "name": "data",
          "type": "bytes"
        }
      ],
      "name": "transfer",
      "outputs": [],
      "stateMutability": "nonpayable",
      "type": "function"
    },
    {
      "inputs": [
        {
          "internalType": "address[]",
          "name": "from",
          "type": "address[]"
        },
        {
          "internalType": "address[]",
          "name": "to",
          "type": "address[]"
        },
        {
          "internalType": "bytes32[]",
          "name": "tokenId",
          "type": "bytes32[]"
        },
        {
          "internalType": "bool",
          "name": "force",
          "type": "bool"
        },
        {
          "internalType": "bytes[]",
          "name": "data",
          "type": "bytes[]"
        }
      ],
      "name": "transferBatch",
      "outputs": [],
      "stateMutability": "nonpayable",
      "type": "function"
    },
    {
      "inputs": [
        {
          "internalType": "address",
          "name": "newOwner",
          "type": "address"
        }
      ],
      "name": "transferOwnership",
      "outputs": [],
      "stateMutability": "nonpayable",
      "type": "function"
    }
  ],
  "bytecode": "0x608060405234801561001057600080fd5b50612540806100206000396000f3fe608060405234801561001057600080fd5b506004361061018d5760003560e01c8063511b6952116100e35780637f23690c1161008c578063af255b6111610066578063af255b6114610368578063cf5182ba1461037b578063f2fde38b1461038e57600080fd5b80637f23690c1461031e5780638da5cb5b14610331578063a3b261f21461034857600080fd5b80636c79b70b116100bd5780636c79b70b146102f057806370a0823114610303578063715018a61461031657600080fd5b8063511b6952146102aa57806354f6127f146102bd57806355908868146102dd57600080fd5b806318160ddd116101455780632a3654a41161011f5780632a3654a41461025757806349a6078d1461026a5780634e3e6e9c1461028a57600080fd5b806318160ddd1461020a578063217b22701461021c5780632599f1591461024757600080fd5b80630b0c6d82116101765780630b0c6d82146101cf57806314a6e293146101e2578063158ef93e146101f557600080fd5b806301ffc9a714610192578063077f224a146101ba575b600080fd5b6101a56101a036600461208a565b6103a1565b60405190151581526020015b60405180910390f35b6101cd6101c836600461212b565b6103e5565b005b6101cd6101dd366004611e58565b610460565b6101cd6101f0366004611fd0565b610508565b60005460405160ff90911681526020016101b1565b6002545b6040519081526020016101b1565b61022f61022a366004612034565b6105dc565b6040516001600160a01b0390911681526020016101b1565b600054610100900460ff166101a5565b6101a5610265366004611e58565b610615565b61027d610278366004612034565b610631565b6040516101b19190612277565b61029d610298366004611f9b565b610653565b6040516101b191906122fc565b6101cd6102b8366004611ddf565b610707565b6102d06102cb366004612034565b61076f565b6040516101b19190612377565b6101cd6102eb366004611eea565b61077a565b6101cd6102fe36600461204d565b610860565b61020e610311366004611dc4565b61086e565b6101cd61088f565b6101cd61032c36600461204d565b6108a3565b6000546201000090046001600160a01b031661022f565b61035b610356366004611dc4565b6108b5565b6040516101b191906122c4565b6101cd610376366004611e82565b6108d9565b6101cd610389366004611e58565b6108e5565b6101cd61039c366004611dc4565b6109dd565b60006001600160e01b031982167f493991450000000000000000000000000000000000000000000000000000000014806103df57506103df82610a6d565b92915050565b60006103f16001610abb565b90508015610409576000805461ff0019166101001790555b610414848484610bf4565b801561045a576000805461ff0019169055604051600181527f7f26b83ff96e1f2b6a682f133852f6798a09c465da95921460cefb38474024989060200160405180910390a15b50505050565b600061046b826105dc565b9050336001600160a01b03821681146104b657604051632d938f5160e11b81526001600160a01b03808416600483015260248201859052821660448201526064015b60405180910390fd5b6001600160a01b0384166104dd57604051639577b8b360e01b815260040160405180910390fd5b836001600160a01b0316826001600160a01b031614156104fd5750505050565b61045a848385610c6a565b610510610cc9565b80518251146105875760405162461bcd60e51b815260206004820152602660248201527f4b657973206c656e677468206e6f7420657175616c20746f2076616c7565732060448201527f6c656e677468000000000000000000000000000000000000000000000000000060648201526084016104ad565b60005b82518110156105d7576105cf8382815181106105a8576105a86124de565b60200260200101518383815181106105c2576105c26124de565b6020026020010151610d2a565b60010161058a565b505050565b6000818152600360205260408120546001600160a01b0316806103df57604051635747cd1b60e11b8152600481018490526024016104ad565b600061062082610de8565b61062a8383610e20565b9392505050565b606061063c82610de8565b60008281526005602052604090206103df90610e69565b6060815167ffffffffffffffff81111561066f5761066f6124f4565b6040519080825280602002602001820160405280156106a257816020015b606081526020019060019003908161068d5790505b50905060005b8251811015610701576106d38382815181106106c6576106c66124de565b6020026020010151610e76565b8282815181106106e5576106e56124de565b60200260200101819052506106fa8160010190565b90506106a8565b50919050565b336107128185610e20565b61075a576040517f1294d2a9000000000000000000000000000000000000000000000000000000008152600481018590526001600160a01b03821660248201526044016104ad565b6107678686868686610f18565b505050505050565b60606103df82610e76565b8351855114158061078d57508251855114155b8061079a57508051855114155b156107d1576040517f93a8311900000000000000000000000000000000000000000000000000000000815260040160405180910390fd5b60005b85518110156107675761084e8682815181106107f2576107f26124de565b602002602001015186838151811061080c5761080c6124de565b6020026020010151868481518110610826576108266124de565b602002602001015186868681518110610841576108416124de565b6020026020010151610707565b8061085881612497565b9150506107d4565b61086a8282611091565b5050565b6001600160a01b03811660009081526004602052604081206103df90611157565b610897610cc9565b6108a16000611161565b565b6108ab610cc9565b61086a8282610d2a565b6001600160a01b03811660009081526004602052604090206060906103df906111ed565b61045a848484846111f8565b60006108f0826105dc565b9050336001600160a01b038216811461093657604051632d938f5160e11b81526001600160a01b03808416600483015260248201859052821660448201526064016104ad565b6001600160a01b03841661095d57604051639577b8b360e01b815260040160405180910390fd5b836001600160a01b0316826001600160a01b0316141561097d5750505050565b6000838152600560205260409020610995908561132c565b5082826001600160a01b0316856001600160a01b03167f34b797fc5a526f7bf1d2b5de25f6564fd85ae364e3ee939aee7c1ac27871a98860405160405180910390a450505050565b6109e5610cc9565b6001600160a01b038116610a615760405162461bcd60e51b815260206004820152602660248201527f4f776e61626c653a206e6577206f776e657220697320746865207a65726f206160448201527f646472657373000000000000000000000000000000000000000000000000000060648201526084016104ad565b610a6a81611161565b50565b60006001600160e01b031982167f714df77c0000000000000000000000000000000000000000000000000000000014806103df57506301ffc9a760e01b6001600160e01b03198316146103df565b60008054610100900460ff1615610b58578160ff166001148015610ade5750303b155b610b505760405162461bcd60e51b815260206004820152602e60248201527f496e697469616c697a61626c653a20636f6e747261637420697320616c72656160448201527f647920696e697469616c697a656400000000000000000000000000000000000060648201526084016104ad565b506000919050565b60005460ff808416911610610bd55760405162461bcd60e51b815260206004820152602e60248201527f496e697469616c697a61626c653a20636f6e747261637420697320616c72656160448201527f647920696e697469616c697a656400000000000000000000000000000000000060648201526084016104ad565b506000805460ff191660ff92909216919091179055600190565b919050565b600054610100900460ff16610c5f5760405162461bcd60e51b815260206004820152602b60248201527f496e697469616c697a61626c653a20636f6e7472616374206973206e6f74206960448201526a6e697469616c697a696e6760a81b60648201526084016104ad565b6105d7838383611341565b6000818152600560205260409020610c82908461146b565b5080826001600160a01b0316846001600160a01b03167f17d5389f6ab6adb2647dfa0aa365c323d37adacc30b33a65310b6158ce1373d560405160405180910390a4505050565b6000546001600160a01b03620100009091041633146108a15760405162461bcd60e51b815260206004820181905260248201527f4f776e61626c653a2063616c6c6572206973206e6f7420746865206f776e657260448201526064016104ad565b7fdeba1e292f8ba88238e10ab3c7f88bd4be4fac56cad5194b6ecceaf653468af1821415610d84576040517f85c169bd00000000000000000000000000000000000000000000000000000000815260040160405180910390fd5b7f2f0a68ab07768e01943a599e73362a0e17a63a72e94dd2e384d2c1d4db932756821415610dde576040517f76755b3800000000000000000000000000000000000000000000000000000000815260040160405180910390fd5b61086a8282611480565b6000818152600360205260409020546001600160a01b0316610a6a57604051635747cd1b60e11b8152600481018290526024016104ad565b600080610e2c836105dc565b9050806001600160a01b0316846001600160a01b03161480610e6157506000838152600560205260409020610e6190856114cf565b949350505050565b6060600061062a836114f1565b6000818152600160205260409020805460609190610e9390612462565b80601f0160208091040260200160405190810160405280929190818152602001828054610ebf90612462565b8015610f0c5780601f10610ee157610100808354040283529160200191610f0c565b820191906000526020600020905b815481529060010190602001808311610eef57829003601f168201915b50505050509050919050565b6000610f23846105dc565b9050856001600160a01b0316816001600160a01b031614610f7157604051632d938f5160e11b81526001600160a01b03808316600483015260248201869052871660448201526064016104ad565b6001600160a01b038516610f98576040516324ecef4d60e01b815260040160405180910390fd5b33610fa487878761154c565b610fae878661159e565b6001600160a01b0387166000908152600460205260409020610fd090866115ef565b506001600160a01b0386166000908152600460205260409020610ff390866115fb565b5060008581526003602052604090819020805473ffffffffffffffffffffffffffffffffffffffff19166001600160a01b0389811691821790925591518792918a16907fb333c813a7426a7a11e2b190cad52c44119421594b47f6f32ace6d8c7207b2bf906110679086908a908a9061224d565b60405180910390a461107b87878786611607565b61108887878787876116ea565b50505050505050565b600061109c836105dc565b9050336110ab8260008661154c565b6110b5828561159e565b6001600160a01b03821660009081526004602052604090206110d790856115ef565b50600084815260036020526040808220805473ffffffffffffffffffffffffffffffffffffffff19169055518591906001600160a01b038516907fb333c813a7426a7a11e2b190cad52c44119421594b47f6f32ace6d8c7207b2bf9061114290869085908a9061224d565b60405180910390a461045a8260008686611607565b60006103df825490565b6000546001600160a01b03828116620100009092041614610a6a57600080546001600160a01b03838116620100008181027fffffffffffffffffffff0000000000000000000000000000000000000000ffff851617855560405193049190911692909183917f8be0079c531659141344cd1fd0a4f28419497f9722a3daafe3b4186f6b6457e091a35050565b60606103df826114f1565b6001600160a01b03841661121f576040516324ecef4d60e01b815260040160405180910390fd5b6000838152600360205260409020546001600160a01b031615611271576040517f34c7b511000000000000000000000000000000000000000000000000000000008152600481018490526024016104ad565b3361127e6000868661154c565b6001600160a01b03851660009081526004602052604090206112a090856115fb565b50600084815260036020526040808220805473ffffffffffffffffffffffffffffffffffffffff19166001600160a01b03891690811790915590518692907fb333c813a7426a7a11e2b190cad52c44119421594b47f6f32ace6d8c7207b2bf9061130f9086908990899061224d565b60405180910390a46113256000868686866116ea565b5050505050565b600061062a836001600160a01b038416611863565b600054610100900460ff166113ac5760405162461bcd60e51b815260206004820152602b60248201527f496e697469616c697a61626c653a20636f6e7472616374206973206e6f74206960448201526a6e697469616c697a696e6760a81b60648201526084016104ad565b6113b5816118b2565b6114177feafec4d89fa9619884b60000a4d96624a38f7ac2d8d9a604ecf07c12c77e480c60001b6040518060400160405280600481526020017fa4d9662400000000000000000000000000000000000000000000000000000000815250611480565b6114417fdeba1e292f8ba88238e10ab3c7f88bd4be4fac56cad5194b6ecceaf653468af184611480565b6105d77f2f0a68ab07768e01943a599e73362a0e17a63a72e94dd2e384d2c1d4db93275683611480565b600061062a836001600160a01b03841661191d565b6000828152600160209081526040909120825161149f92840190611b48565b5060405182907fcdf4e344c0d23d4cdd0474039d176c55b19d531070dbe17856bfb993a5b5720b90600090a25050565b6001600160a01b0381166000908152600183016020526040812054151561062a565b606081600001805480602002602001604051908101604052809291908181526020018280548015610f0c57602002820191906000526020600020905b81548152602001906001019080831161152d5750505050509050919050565b6001600160a01b0383166115735760016002600082825461156d9190612407565b90915550505b6001600160a01b0382166105d757600160026000828254611594919061241f565b9091555050505050565b6000818152600560205260408120906115b682611157565b905060005b818110156113255760006115cf8482611a10565b90506115dc818787610c6a565b50806115e781612497565b9150506115bb565b600061062a838361191d565b600061062a8383611863565b61161884631aed5a8560e21b611a1c565b1561045a5760008484848460405160200161163694939291906121e4565b60408051601f1981840301815290829052631aed5a8560e21b825291506001600160a01b03861690636bb56a1490611694907f3724c94f0815e936299cca424da4140752198e0beb7931a6e0925d11bc97544c90859060040161235e565b600060405180830381600087803b1580156116ae57600080fd5b505af11580156116c2573d6000803e3d6000fd5b505050506040513d6000823e601f3d908101601f1916820160405261076791908101906120b4565b6116fb84631aed5a8560e21b611a1c565b156117d45760008585858460405160200161171994939291906121e4565b60408051601f1981840301815290829052631aed5a8560e21b825291506001600160a01b03861690636bb56a1490611777907fc7a120a42b6057a0cbed111fbbfbd52fcd96748c04394f77fc2c3adbe0391e0190859060040161235e565b600060405180830381600087803b15801561179157600080fd5b505af11580156117a5573d6000803e3d6000fd5b505050506040513d6000823e601f3d908101601f191682016040526117cd91908101906120b4565b5050611325565b81611325576001600160a01b0384163b15611826576040517f4349776d0000000000000000000000000000000000000000000000000000000081526001600160a01b03851660048201526024016104ad565b6040517f031731370000000000000000000000000000000000000000000000000000000081526001600160a01b03851660048201526024016104ad565b60008181526001830160205260408120546118aa575081546001818101845560008481526020808220909301849055845484825282860190935260409020919091556103df565b5060006103df565b600054610100900460ff16610a615760405162461bcd60e51b815260206004820152602b60248201527f496e697469616c697a61626c653a20636f6e7472616374206973206e6f74206960448201526a6e697469616c697a696e6760a81b60648201526084016104ad565b60008181526001830160205260408120548015611a0657600061194160018361241f565b85549091506000906119559060019061241f565b90508181146119ba576000866000018281548110611975576119756124de565b9060005260206000200154905080876000018481548110611998576119986124de565b6000918252602080832090910192909255918252600188019052604090208390555b85548690806119cb576119cb6124c8565b6001900381819060005260206000200160009055905585600101600086815260200190815260200160002060009055600193505050506103df565b60009150506103df565b600061062a8383611b1e565b604080516001600160e01b0319831660248083019190915282518083039091018152604490910182526020810180517bffffffffffffffffffffffffffffffffffffffffffffffffffffffff166301ffc9a760e01b179052905160009190829081906001600160a01b0387169061753090611a98908690612231565b6000604051808303818686fa925050503d8060008114611ad4576040519150601f19603f3d011682016040523d82523d6000602084013e611ad9565b606091505b5091509150602081511015611af457600093505050506103df565b818015611b145750600081806020019051810190611b12919061219f565b115b9695505050505050565b6000826000018281548110611b3557611b356124de565b9060005260206000200154905092915050565b828054611b5490612462565b90600052602060002090601f016020900481019282611b765760008555611bbc565b82601f10611b8f57805160ff1916838001178555611bbc565b82800160010185558215611bbc579182015b82811115611bbc578251825591602001919060010190611ba1565b50611bc8929150611bcc565b5090565b5b80821115611bc85760008155600101611bcd565b80356001600160a01b0381168114610bef57600080fd5b600082601f830112611c0957600080fd5b81356020611c1e611c19836123bb565b61238a565b80838252828201915082860187848660051b8901011115611c3e57600080fd5b60005b85811015611c6457611c5282611be1565b84529284019290840190600101611c41565b5090979650505050505050565b600082601f830112611c8257600080fd5b81356020611c92611c19836123bb565b80838252828201915082860187848660051b8901011115611cb257600080fd5b60005b85811015611c6457813584529284019290840190600101611cb5565b600082601f830112611ce257600080fd5b81356020611cf2611c19836123bb565b80838252828201915082860187848660051b8901011115611d1257600080fd5b6000805b86811015611d5557823567ffffffffffffffff811115611d34578283fd5b611d428b88838d0101611d73565b8652509385019391850191600101611d16565b509198975050505050505050565b80358015158114610bef57600080fd5b600082601f830112611d8457600080fd5b8135611d92611c19826123df565b818152846020838601011115611da757600080fd5b816020850160208301376000918101602001919091529392505050565b600060208284031215611dd657600080fd5b61062a82611be1565b600080600080600060a08688031215611df757600080fd5b611e0086611be1565b9450611e0e60208701611be1565b935060408601359250611e2360608701611d63565b9150608086013567ffffffffffffffff811115611e3f57600080fd5b611e4b88828901611d73565b9150509295509295909350565b60008060408385031215611e6b57600080fd5b611e7483611be1565b946020939093013593505050565b60008060008060808587031215611e9857600080fd5b611ea185611be1565b935060208501359250611eb660408601611d63565b9150606085013567ffffffffffffffff811115611ed257600080fd5b611ede87828801611d73565b91505092959194509250565b600080600080600060a08688031215611f0257600080fd5b853567ffffffffffffffff80821115611f1a57600080fd5b611f2689838a01611bf8565b96506020880135915080821115611f3c57600080fd5b611f4889838a01611bf8565b95506040880135915080821115611f5e57600080fd5b611f6a89838a01611c71565b9450611f7860608901611d63565b93506080880135915080821115611f8e57600080fd5b50611e4b88828901611cd1565b600060208284031215611fad57600080fd5b813567ffffffffffffffff811115611fc457600080fd5b610e6184828501611c71565b60008060408385031215611fe357600080fd5b823567ffffffffffffffff80821115611ffb57600080fd5b61200786838701611c71565b9350602085013591508082111561201d57600080fd5b5061202a85828601611cd1565b9150509250929050565b60006020828403121561204657600080fd5b5035919050565b6000806040838503121561206057600080fd5b82359150602083013567ffffffffffffffff81111561207e57600080fd5b61202a85828601611d73565b60006020828403121561209c57600080fd5b81356001600160e01b03198116811461062a57600080fd5b6000602082840312156120c657600080fd5b815167ffffffffffffffff8111156120dd57600080fd5b8201601f810184136120ee57600080fd5b80516120fc611c19826123df565b81815285602083850101111561211157600080fd5b612122826020830160208601612436565b95945050505050565b60008060006060848603121561214057600080fd5b833567ffffffffffffffff8082111561215857600080fd5b61216487838801611d73565b9450602086013591508082111561217a57600080fd5b5061218786828701611d73565b92505061219660408501611be1565b90509250925092565b6000602082840312156121b157600080fd5b5051919050565b600081518084526121d0816020860160208601612436565b601f01601f19169290920160200192915050565b60006bffffffffffffffffffffffff19808760601b168352808660601b166014840152508360288301528251612221816048850160208701612436565b9190910160480195945050505050565b60008251612243818460208701612436565b9190910192915050565b6001600160a01b0384168152821515602082015260606040820152600061212260608301846121b8565b6020808252825182820181905260009190848201906040850190845b818110156122b85783516001600160a01b031683529284019291840191600101612293565b50909695505050505050565b6020808252825182820181905260009190848201906040850190845b818110156122b8578351835292840192918401916001016122e0565b6000602080830181845280855180835260408601915060408160051b870101925083870160005b8281101561235157603f1988860301845261233f8583516121b8565b94509285019290850190600101612323565b5092979650505050505050565b828152604060208201526000610e6160408301846121b8565b60208152600061062a60208301846121b8565b604051601f8201601f1916810167ffffffffffffffff811182821017156123b3576123b36124f4565b604052919050565b600067ffffffffffffffff8211156123d5576123d56124f4565b5060051b60200190565b600067ffffffffffffffff8211156123f9576123f96124f4565b50601f01601f191660200190565b6000821982111561241a5761241a6124b2565b500190565b600082821015612431576124316124b2565b500390565b60005b83811015612451578181015183820152602001612439565b8381111561045a5750506000910152565b600181811c9082168061247657607f821691505b6020821081141561070157634e487b7160e01b600052602260045260246000fd5b60006000198214156124ab576124ab6124b2565b5060010190565b634e487b7160e01b600052601160045260246000fd5b634e487b7160e01b600052603160045260246000fd5b634e487b7160e01b600052603260045260246000fd5b634e487b7160e01b600052604160045260246000fdfea2646970667358221220438800bca8c960a31f0cc8004c2c0d16a14450122ab34bb74a48d6f64624e71864736f6c63430008070033",
  "linkReferences": {},
  "deployedLinkReferences": {}
}