{
  "_format": "hh-sol-artifact-1",
  "contractName": "LSP8Mintable",
  "sourceName": "contracts/LSP8IdentifiableDigitalAsset/presets/LSP8Mintable.sol",
  "abi": [
    {
      "inputs": [
        {
          "internalType": "string",
          "name": "name_",
          "type": "string"
        },
        {
          "internalType": "string",
          "name": "symbol_",
          "type": "string"
        },
        {
          "internalType": "address",
          "name": "newOwner_",
          "type": "address"
        }
      ],
      "stateMutability": "nonpayable",
      "type": "constructor"
    },
    {
      "inputs": [],
      "name": "LSP4TokenNameNotEditable",
      "type": "error"
    },
    {
      "inputs": [],
      "name": "LSP4TokenSymbolNotEditable",
      "type": "error"
    },
    {
      "inputs": [],
      "name": "LSP8CannotSendToAddressZero",
      "type": "error"
    },
    {
      "inputs": [],
      "name": "LSP8CannotUseAddressZeroAsOperator",
      "type": "error"
    },
    {
      "inputs": [],
      "name": "LSP8InvalidTransferBatch",
      "type": "error"
    },
    {
      "inputs": [
        {
          "internalType": "bytes32",
          "name": "tokenId",
          "type": "bytes32"
        }
      ],
      "name": "LSP8NonExistentTokenId",
      "type": "error"
    },
    {
      "inputs": [
        {
          "internalType": "bytes32",
          "name": "tokenId",
          "type": "bytes32"
        },
        {
          "internalType": "address",
          "name": "caller",
          "type": "address"
        }
      ],
      "name": "LSP8NotTokenOperator",
      "type": "error"
    },
    {
      "inputs": [
        {
          "internalType": "address",
          "name": "tokenOwner",
          "type": "address"
        },
        {
          "internalType": "bytes32",
          "name": "tokenId",
          "type": "bytes32"
        },
        {
          "internalType": "address",
          "name": "caller",
          "type": "address"
        }
      ],
      "name": "LSP8NotTokenOwner",
      "type": "error"
    },
    {
      "inputs": [
        {
          "internalType": "address",
          "name": "tokenReceiver",
          "type": "address"
        }
      ],
      "name": "LSP8NotifyTokenReceiverContractMissingLSP1Interface",
      "type": "error"
    },
    {
      "inputs": [
        {
          "internalType": "address",
          "name": "tokenReceiver",
          "type": "address"
        }
      ],
      "name": "LSP8NotifyTokenReceiverIsEOA",
      "type": "error"
    },
    {
      "inputs": [
        {
          "internalType": "bytes32",
          "name": "tokenId",
          "type": "bytes32"
        }
      ],
      "name": "LSP8TokenIdAlreadyMinted",
      "type": "error"
    },
    {
      "anonymous": false,
      "inputs": [
        {
          "indexed": true,
          "internalType": "address",
          "name": "operator",
          "type": "address"
        },
        {
          "indexed": true,
          "internalType": "address",
          "name": "tokenOwner",
          "type": "address"
        },
        {
          "indexed": true,
          "internalType": "bytes32",
          "name": "tokenId",
          "type": "bytes32"
        }
      ],
      "name": "AuthorizedOperator",
      "type": "event"
    },
    {
      "anonymous": false,
      "inputs": [
        {
          "indexed": true,
          "internalType": "bytes32",
          "name": "dataKey",
          "type": "bytes32"
        }
      ],
      "name": "DataChanged",
      "type": "event"
    },
    {
      "anonymous": false,
      "inputs": [
        {
          "indexed": true,
          "internalType": "address",
          "name": "previousOwner",
          "type": "address"
        },
        {
          "indexed": true,
          "internalType": "address",
          "name": "newOwner",
          "type": "address"
        }
      ],
      "name": "OwnershipTransferred",
      "type": "event"
    },
    {
      "anonymous": false,
      "inputs": [
        {
          "indexed": true,
          "internalType": "address",
          "name": "operator",
          "type": "address"
        },
        {
          "indexed": true,
          "internalType": "address",
          "name": "tokenOwner",
          "type": "address"
        },
        {
          "indexed": true,
          "internalType": "bytes32",
          "name": "tokenId",
          "type": "bytes32"
        }
      ],
      "name": "RevokedOperator",
      "type": "event"
    },
    {
      "anonymous": false,
      "inputs": [
        {
          "indexed": false,
          "internalType": "address",
          "name": "operator",
          "type": "address"
        },
        {
          "indexed": true,
          "internalType": "address",
          "name": "from",
          "type": "address"
        },
        {
          "indexed": true,
          "internalType": "address",
          "name": "to",
          "type": "address"
        },
        {
          "indexed": true,
          "internalType": "bytes32",
          "name": "tokenId",
          "type": "bytes32"
        },
        {
          "indexed": false,
          "internalType": "bool",
          "name": "force",
          "type": "bool"
        },
        {
          "indexed": false,
          "internalType": "bytes",
          "name": "data",
          "type": "bytes"
        }
      ],
      "name": "Transfer",
      "type": "event"
    },
    {
      "inputs": [
        {
          "internalType": "address",
          "name": "operator",
          "type": "address"
        },
        {
          "internalType": "bytes32",
          "name": "tokenId",
          "type": "bytes32"
        }
      ],
      "name": "authorizeOperator",
      "outputs": [],
      "stateMutability": "nonpayable",
      "type": "function"
    },
    {
      "inputs": [
        {
          "internalType": "address",
          "name": "tokenOwner",
          "type": "address"
        }
      ],
      "name": "balanceOf",
      "outputs": [
        {
          "internalType": "uint256",
          "name": "",
          "type": "uint256"
        }
      ],
      "stateMutability": "view",
      "type": "function"
    },
    {
      "inputs": [
        {
          "internalType": "bytes32[]",
          "name": "dataKeys",
          "type": "bytes32[]"
        }
      ],
      "name": "getData",
      "outputs": [
        {
          "internalType": "bytes[]",
          "name": "dataValues",
          "type": "bytes[]"
        }
      ],
      "stateMutability": "view",
      "type": "function"
    },
    {
      "inputs": [
        {
          "internalType": "bytes32",
          "name": "dataKey",
          "type": "bytes32"
        }
      ],
      "name": "getData",
      "outputs": [
        {
          "internalType": "bytes",
          "name": "dataValue",
          "type": "bytes"
        }
      ],
      "stateMutability": "view",
      "type": "function"
    },
    {
      "inputs": [
        {
          "internalType": "bytes32",
          "name": "tokenId",
          "type": "bytes32"
        }
      ],
      "name": "getOperatorsOf",
      "outputs": [
        {
          "internalType": "address[]",
          "name": "",
          "type": "address[]"
        }
      ],
      "stateMutability": "view",
      "type": "function"
    },
    {
      "inputs": [
        {
          "internalType": "address",
          "name": "operator",
          "type": "address"
        },
        {
          "internalType": "bytes32",
          "name": "tokenId",
          "type": "bytes32"
        }
      ],
      "name": "isOperatorFor",
      "outputs": [
        {
          "internalType": "bool",
          "name": "",
          "type": "bool"
        }
      ],
      "stateMutability": "view",
      "type": "function"
    },
    {
      "inputs": [
        {
          "internalType": "address",
          "name": "to",
          "type": "address"
        },
        {
          "internalType": "bytes32",
          "name": "tokenId",
          "type": "bytes32"
        },
        {
          "internalType": "bool",
          "name": "force",
          "type": "bool"
        },
        {
          "internalType": "bytes",
          "name": "data",
          "type": "bytes"
        }
      ],
      "name": "mint",
      "outputs": [],
      "stateMutability": "nonpayable",
      "type": "function"
    },
    {
      "inputs": [],
      "name": "owner",
      "outputs": [
        {
          "internalType": "address",
          "name": "",
          "type": "address"
        }
      ],
      "stateMutability": "view",
      "type": "function"
    },
    {
      "inputs": [],
      "name": "renounceOwnership",
      "outputs": [],
      "stateMutability": "nonpayable",
      "type": "function"
    },
    {
      "inputs": [
        {
          "internalType": "address",
          "name": "operator",
          "type": "address"
        },
        {
          "internalType": "bytes32",
          "name": "tokenId",
          "type": "bytes32"
        }
      ],
      "name": "revokeOperator",
      "outputs": [],
      "stateMutability": "nonpayable",
      "type": "function"
    },
    {
      "inputs": [
        {
          "internalType": "bytes32[]",
          "name": "dataKeys",
          "type": "bytes32[]"
        },
        {
          "internalType": "bytes[]",
          "name": "dataValues",
          "type": "bytes[]"
        }
      ],
      "name": "setData",
      "outputs": [],
      "stateMutability": "nonpayable",
      "type": "function"
    },
    {
      "inputs": [
        {
          "internalType": "bytes32",
          "name": "dataKey",
          "type": "bytes32"
        },
        {
          "internalType": "bytes",
          "name": "dataValue",
          "type": "bytes"
        }
      ],
      "name": "setData",
      "outputs": [],
      "stateMutability": "nonpayable",
      "type": "function"
    },
    {
      "inputs": [
        {
          "internalType": "bytes4",
          "name": "interfaceId",
          "type": "bytes4"
        }
      ],
      "name": "supportsInterface",
      "outputs": [
        {
          "internalType": "bool",
          "name": "",
          "type": "bool"
        }
      ],
      "stateMutability": "view",
      "type": "function"
    },
    {
      "inputs": [
        {
          "internalType": "address",
          "name": "tokenOwner",
          "type": "address"
        }
      ],
      "name": "tokenIdsOf",
      "outputs": [
        {
          "internalType": "bytes32[]",
          "name": "",
          "type": "bytes32[]"
        }
      ],
      "stateMutability": "view",
      "type": "function"
    },
    {
      "inputs": [
        {
          "internalType": "bytes32",
          "name": "tokenId",
          "type": "bytes32"
        }
      ],
      "name": "tokenOwnerOf",
      "outputs": [
        {
          "internalType": "address",
          "name": "",
          "type": "address"
        }
      ],
      "stateMutability": "view",
      "type": "function"
    },
    {
      "inputs": [],
      "name": "totalSupply",
      "outputs": [
        {
          "internalType": "uint256",
          "name": "",
          "type": "uint256"
        }
      ],
      "stateMutability": "view",
      "type": "function"
    },
    {
      "inputs": [
        {
          "internalType": "address",
          "name": "from",
          "type": "address"
        },
        {
          "internalType": "address",
          "name": "to",
          "type": "address"
        },
        {
          "internalType": "bytes32",
          "name": "tokenId",
          "type": "bytes32"
        },
        {
          "internalType": "bool",
          "name": "force",
          "type": "bool"
        },
        {
          "internalType": "bytes",
          "name": "data",
          "type": "bytes"
        }
      ],
      "name": "transfer",
      "outputs": [],
      "stateMutability": "nonpayable",
      "type": "function"
    },
    {
      "inputs": [
        {
          "internalType": "address[]",
          "name": "from",
          "type": "address[]"
        },
        {
          "internalType": "address[]",
          "name": "to",
          "type": "address[]"
        },
        {
          "internalType": "bytes32[]",
          "name": "tokenId",
          "type": "bytes32[]"
        },
        {
          "internalType": "bool",
          "name": "force",
          "type": "bool"
        },
        {
          "internalType": "bytes[]",
          "name": "data",
          "type": "bytes[]"
        }
      ],
      "name": "transferBatch",
      "outputs": [],
      "stateMutability": "nonpayable",
      "type": "function"
    },
    {
      "inputs": [
        {
          "internalType": "address",
          "name": "newOwner",
          "type": "address"
        }
      ],
      "name": "transferOwnership",
      "outputs": [],
      "stateMutability": "nonpayable",
      "type": "function"
    }
  ],
  "bytecode": "0x60806040523480156200001157600080fd5b50604051620023e1380380620023e1833981016040819052620000349162000340565b8282828282828062000051816200012b60201b620009691760201c565b50620000a87feafec4d89fa9619884b60000a4d96624a38f7ac2d8d9a604ecf07c12c77e480c60001b604051806040016040528060048152602001632936598960e21b8152506200019260201b620009db1760201c565b620000e27fdeba1e292f8ba88238e10ab3c7f88bd4be4fac56cad5194b6ecceaf653468af160001b846200019260201b620009db1760201c565b6200011c7f2f0a68ab07768e01943a599e73362a0e17a63a72e94dd2e384d2c1d4db93275660001b836200019260201b620009db1760201c565b50505050505050505062000420565b6000546001600160a01b038281169116146200018f57600080546001600160a01b038381166001600160a01b0319831681178455604051919092169283917f8be0079c531659141344cd1fd0a4f28419497f9722a3daafe3b4186f6b6457e09190a3505b50565b60008281526001602090815260409091208251620001b392840190620001e3565b5060405182907fcdf4e344c0d23d4cdd0474039d176c55b19d531070dbe17856bfb993a5b5720b90600090a25050565b828054620001f190620003cd565b90600052602060002090601f01602090048101928262000215576000855562000260565b82601f106200023057805160ff191683800117855562000260565b8280016001018555821562000260579182015b828111156200026057825182559160200191906001019062000243565b506200026e92915062000272565b5090565b5b808211156200026e576000815560010162000273565b600082601f8301126200029b57600080fd5b81516001600160401b0380821115620002b857620002b86200040a565b604051601f8301601f19908116603f01168101908282118183101715620002e357620002e36200040a565b816040528381526020925086838588010111156200030057600080fd5b600091505b8382101562000324578582018301518183018401529082019062000305565b83821115620003365760008385830101525b9695505050505050565b6000806000606084860312156200035657600080fd5b83516001600160401b03808211156200036e57600080fd5b6200037c8783880162000289565b945060208601519150808211156200039357600080fd5b50620003a28682870162000289565b604086015190935090506001600160a01b0381168114620003c257600080fd5b809150509250925092565b600181811c90821680620003e257607f821691505b602082108114156200040457634e487b7160e01b600052602260045260246000fd5b50919050565b634e487b7160e01b600052604160045260246000fd5b611fb180620004306000396000f3fe608060405234801561001057600080fd5b50600436106101515760003560e01c806354f6127f116100cd5780638da5cb5b11610081578063af255b6111610066578063af255b61146102db578063cf5182ba146102ee578063f2fde38b1461030157600080fd5b80638da5cb5b146102aa578063a3b261f2146102bb57600080fd5b806370a08231116100b257806370a082311461027c578063715018a61461028f5780637f23690c1461029757600080fd5b806354f6127f14610249578063559088681461026957600080fd5b8063217b22701161012457806349a6078d1161010957806349a6078d146101f65780634e3e6e9c14610216578063511b69521461023657600080fd5b8063217b2270146101b85780632a3654a4146101e357600080fd5b806301ffc9a7146101565780630b0c6d821461017e57806314a6e2931461019357806318160ddd146101a6575b600080fd5b610169610164366004611b6f565b610314565b60405190151581526020015b60405180910390f35b61019161018c36600461193d565b610358565b005b6101916101a1366004611ab5565b610406565b6002545b604051908152602001610175565b6101cb6101c6366004611b19565b6104da565b6040516001600160a01b039091168152602001610175565b6101696101f136600461193d565b610513565b610209610204366004611b19565b61052f565b6040516101759190611ce8565b610229610224366004611a80565b610551565b6040516101759190611d6d565b6101916102443660046118c4565b610605565b61025c610257366004611b19565b61066d565b6040516101759190611de8565b6101916102773660046119cf565b610678565b6101aa61028a3660046118a9565b61075e565b61019161077f565b6101916102a5366004611b32565b610793565b6000546001600160a01b03166101cb565b6102ce6102c93660046118a9565b6107a9565b6040516101759190611d35565b6101916102e9366004611967565b6107cd565b6101916102fc36600461193d565b6107e1565b61019161030f3660046118a9565b6108d9565b60006001600160e01b031982167f49399145000000000000000000000000000000000000000000000000000000001480610352575061035282610a2a565b92915050565b6000610363826104da565b9050336001600160a01b03821681146103ae57604051632d938f5160e11b81526001600160a01b03808416600483015260248201859052821660448201526064015b60405180910390fd5b6001600160a01b0384166103d557604051639577b8b360e01b815260040160405180910390fd5b836001600160a01b0316826001600160a01b031614156103f55750505050565b610400848385610a78565b50505050565b61040e610ad7565b80518251146104855760405162461bcd60e51b815260206004820152602660248201527f4b657973206c656e677468206e6f7420657175616c20746f2076616c7565732060448201527f6c656e677468000000000000000000000000000000000000000000000000000060648201526084016103a5565b60005b82518110156104d5576104cd8382815181106104a6576104a6611f4f565b60200260200101518383815181106104c0576104c0611f4f565b6020026020010151610b40565b600101610488565b505050565b6000818152600360205260408120546001600160a01b03168061035257604051635747cd1b60e11b8152600481018490526024016103a5565b600061051e82610bfe565b6105288383610c36565b9392505050565b606061053a82610bfe565b600082815260056020526040902061035290610c7f565b6060815167ffffffffffffffff81111561056d5761056d611f65565b6040519080825280602002602001820160405280156105a057816020015b606081526020019060019003908161058b5790505b50905060005b82518110156105ff576105d18382815181106105c4576105c4611f4f565b6020026020010151610c8c565b8282815181106105e3576105e3611f4f565b60200260200101819052506105f88160010190565b90506105a6565b50919050565b336106108185610c36565b610658576040517f1294d2a9000000000000000000000000000000000000000000000000000000008152600481018590526001600160a01b03821660248201526044016103a5565b6106658686868686610d2e565b505050505050565b606061035282610c8c565b8351855114158061068b57508251855114155b8061069857508051855114155b156106cf576040517f93a8311900000000000000000000000000000000000000000000000000000000815260040160405180910390fd5b60005b85518110156106655761074c8682815181106106f0576106f0611f4f565b602002602001015186838151811061070a5761070a611f4f565b602002602001015186848151811061072457610724611f4f565b60200260200101518686868151811061073f5761073f611f4f565b6020026020010151610605565b8061075681611f08565b9150506106d2565b6001600160a01b038116600090815260046020526040812061035290610ea7565b610787610ad7565b6107916000610969565b565b61079b610ad7565b6107a58282610b40565b5050565b6001600160a01b038116600090815260046020526040902060609061035290610eb1565b6107d5610ad7565b61040084848484610ebc565b60006107ec826104da565b9050336001600160a01b038216811461083257604051632d938f5160e11b81526001600160a01b03808416600483015260248201859052821660448201526064016103a5565b6001600160a01b03841661085957604051639577b8b360e01b815260040160405180910390fd5b836001600160a01b0316826001600160a01b031614156108795750505050565b60008381526005602052604090206108919085610ff0565b5082826001600160a01b0316856001600160a01b03167f34b797fc5a526f7bf1d2b5de25f6564fd85ae364e3ee939aee7c1ac27871a98860405160405180910390a450505050565b6108e1610ad7565b6001600160a01b03811661095d5760405162461bcd60e51b815260206004820152602660248201527f4f776e61626c653a206e6577206f776e657220697320746865207a65726f206160448201527f646472657373000000000000000000000000000000000000000000000000000060648201526084016103a5565b61096681610969565b50565b6000546001600160a01b0382811691161461096657600080546001600160a01b0383811673ffffffffffffffffffffffffffffffffffffffff19831681178455604051919092169283917f8be0079c531659141344cd1fd0a4f28419497f9722a3daafe3b4186f6b6457e09190a35050565b600082815260016020908152604090912082516109fa92840190611628565b5060405182907fcdf4e344c0d23d4cdd0474039d176c55b19d531070dbe17856bfb993a5b5720b90600090a25050565b60006001600160e01b031982167f714df77c00000000000000000000000000000000000000000000000000000000148061035257506301ffc9a760e01b6001600160e01b0319831614610352565b6000818152600560205260409020610a909084611005565b5080826001600160a01b0316846001600160a01b03167f17d5389f6ab6adb2647dfa0aa365c323d37adacc30b33a65310b6158ce1373d560405160405180910390a4505050565b33610aea6000546001600160a01b031690565b6001600160a01b0316146107915760405162461bcd60e51b815260206004820181905260248201527f4f776e61626c653a2063616c6c6572206973206e6f7420746865206f776e657260448201526064016103a5565b7fdeba1e292f8ba88238e10ab3c7f88bd4be4fac56cad5194b6ecceaf653468af1821415610b9a576040517f85c169bd00000000000000000000000000000000000000000000000000000000815260040160405180910390fd5b7f2f0a68ab07768e01943a599e73362a0e17a63a72e94dd2e384d2c1d4db932756821415610bf4576040517f76755b3800000000000000000000000000000000000000000000000000000000815260040160405180910390fd5b6107a582826109db565b6000818152600360205260409020546001600160a01b031661096657604051635747cd1b60e11b8152600481018290526024016103a5565b600080610c42836104da565b9050806001600160a01b0316846001600160a01b03161480610c7757506000838152600560205260409020610c77908561101a565b949350505050565b606060006105288361103c565b6000818152600160205260409020805460609190610ca990611ed3565b80601f0160208091040260200160405190810160405280929190818152602001828054610cd590611ed3565b8015610d225780601f10610cf757610100808354040283529160200191610d22565b820191906000526020600020905b815481529060010190602001808311610d0557829003601f168201915b50505050509050919050565b6000610d39846104da565b9050856001600160a01b0316816001600160a01b031614610d8757604051632d938f5160e11b81526001600160a01b03808316600483015260248201869052871660448201526064016103a5565b6001600160a01b038516610dae576040516324ecef4d60e01b815260040160405180910390fd5b33610dba878787611097565b610dc487866110e9565b6001600160a01b0387166000908152600460205260409020610de6908661113a565b506001600160a01b0386166000908152600460205260409020610e099086611146565b5060008581526003602052604090819020805473ffffffffffffffffffffffffffffffffffffffff19166001600160a01b0389811691821790925591518792918a16907fb333c813a7426a7a11e2b190cad52c44119421594b47f6f32ace6d8c7207b2bf90610e7d9086908a908a90611cbe565b60405180910390a4610e9187878786611152565b610e9e8787878787611235565b50505050505050565b6000610352825490565b60606103528261103c565b6001600160a01b038416610ee3576040516324ecef4d60e01b815260040160405180910390fd5b6000838152600360205260409020546001600160a01b031615610f35576040517f34c7b511000000000000000000000000000000000000000000000000000000008152600481018490526024016103a5565b33610f4260008686611097565b6001600160a01b0385166000908152600460205260409020610f649085611146565b50600084815260036020526040808220805473ffffffffffffffffffffffffffffffffffffffff19166001600160a01b03891690811790915590518692907fb333c813a7426a7a11e2b190cad52c44119421594b47f6f32ace6d8c7207b2bf90610fd390869089908990611cbe565b60405180910390a4610fe9600086868686611235565b5050505050565b6000610528836001600160a01b0384166113ae565b6000610528836001600160a01b0384166113fd565b6001600160a01b03811660009081526001830160205260408120541515610528565b606081600001805480602002602001604051908101604052809291908181526020018280548015610d2257602002820191906000526020600020905b8154815260200190600101908083116110785750505050509050919050565b6001600160a01b0383166110be576001600260008282546110b89190611e78565b90915550505b6001600160a01b0382166104d5576001600260008282546110df9190611e90565b9091555050505050565b60008181526005602052604081209061110182610ea7565b905060005b81811015610fe957600061111a84826114f0565b9050611127818787610a78565b508061113281611f08565b915050611106565b600061052883836113fd565b600061052883836113ae565b61116384631aed5a8560e21b6114fc565b15610400576000848484846040516020016111819493929190611c55565b60408051601f1981840301815290829052631aed5a8560e21b825291506001600160a01b03861690636bb56a14906111df907f3724c94f0815e936299cca424da4140752198e0beb7931a6e0925d11bc97544c908590600401611dcf565b600060405180830381600087803b1580156111f957600080fd5b505af115801561120d573d6000803e3d6000fd5b505050506040513d6000823e601f3d908101601f191682016040526106659190810190611b99565b61124684631aed5a8560e21b6114fc565b1561131f576000858585846040516020016112649493929190611c55565b60408051601f1981840301815290829052631aed5a8560e21b825291506001600160a01b03861690636bb56a14906112c2907fc7a120a42b6057a0cbed111fbbfbd52fcd96748c04394f77fc2c3adbe0391e01908590600401611dcf565b600060405180830381600087803b1580156112dc57600080fd5b505af11580156112f0573d6000803e3d6000fd5b505050506040513d6000823e601f3d908101601f191682016040526113189190810190611b99565b5050610fe9565b81610fe9576001600160a01b0384163b15611371576040517f4349776d0000000000000000000000000000000000000000000000000000000081526001600160a01b03851660048201526024016103a5565b6040517f031731370000000000000000000000000000000000000000000000000000000081526001600160a01b03851660048201526024016103a5565b60008181526001830160205260408120546113f557508154600181810184556000848152602080822090930184905584548482528286019093526040902091909155610352565b506000610352565b600081815260018301602052604081205480156114e6576000611421600183611e90565b855490915060009061143590600190611e90565b905081811461149a57600086600001828154811061145557611455611f4f565b906000526020600020015490508087600001848154811061147857611478611f4f565b6000918252602080832090910192909255918252600188019052604090208390555b85548690806114ab576114ab611f39565b600190038181906000526020600020016000905590558560010160008681526020019081526020016000206000905560019350505050610352565b6000915050610352565b600061052883836115fe565b604080516001600160e01b0319831660248083019190915282518083039091018152604490910182526020810180517bffffffffffffffffffffffffffffffffffffffffffffffffffffffff166301ffc9a760e01b179052905160009190829081906001600160a01b0387169061753090611578908690611ca2565b6000604051808303818686fa925050503d80600081146115b4576040519150601f19603f3d011682016040523d82523d6000602084013e6115b9565b606091505b50915091506020815110156115d45760009350505050610352565b8180156115f457506000818060200190518101906115f29190611c10565b115b9695505050505050565b600082600001828154811061161557611615611f4f565b9060005260206000200154905092915050565b82805461163490611ed3565b90600052602060002090601f016020900481019282611656576000855561169c565b82601f1061166f57805160ff191683800117855561169c565b8280016001018555821561169c579182015b8281111561169c578251825591602001919060010190611681565b506116a89291506116ac565b5090565b5b808211156116a857600081556001016116ad565b80356001600160a01b03811681146116d857600080fd5b919050565b600082601f8301126116ee57600080fd5b813560206117036116fe83611e2c565b611dfb565b80838252828201915082860187848660051b890101111561172357600080fd5b60005b8581101561174957611737826116c1565b84529284019290840190600101611726565b5090979650505050505050565b600082601f83011261176757600080fd5b813560206117776116fe83611e2c565b80838252828201915082860187848660051b890101111561179757600080fd5b60005b858110156117495781358452928401929084019060010161179a565b600082601f8301126117c757600080fd5b813560206117d76116fe83611e2c565b80838252828201915082860187848660051b89010111156117f757600080fd5b6000805b8681101561183a57823567ffffffffffffffff811115611819578283fd5b6118278b88838d0101611858565b86525093850193918501916001016117fb565b509198975050505050505050565b803580151581146116d857600080fd5b600082601f83011261186957600080fd5b81356118776116fe82611e50565b81815284602083860101111561188c57600080fd5b816020850160208301376000918101602001919091529392505050565b6000602082840312156118bb57600080fd5b610528826116c1565b600080600080600060a086880312156118dc57600080fd5b6118e5866116c1565b94506118f3602087016116c1565b93506040860135925061190860608701611848565b9150608086013567ffffffffffffffff81111561192457600080fd5b61193088828901611858565b9150509295509295909350565b6000806040838503121561195057600080fd5b611959836116c1565b946020939093013593505050565b6000806000806080858703121561197d57600080fd5b611986856116c1565b93506020850135925061199b60408601611848565b9150606085013567ffffffffffffffff8111156119b757600080fd5b6119c387828801611858565b91505092959194509250565b600080600080600060a086880312156119e757600080fd5b853567ffffffffffffffff808211156119ff57600080fd5b611a0b89838a016116dd565b96506020880135915080821115611a2157600080fd5b611a2d89838a016116dd565b95506040880135915080821115611a4357600080fd5b611a4f89838a01611756565b9450611a5d60608901611848565b93506080880135915080821115611a7357600080fd5b50611930888289016117b6565b600060208284031215611a9257600080fd5b813567ffffffffffffffff811115611aa957600080fd5b610c7784828501611756565b60008060408385031215611ac857600080fd5b823567ffffffffffffffff80821115611ae057600080fd5b611aec86838701611756565b93506020850135915080821115611b0257600080fd5b50611b0f858286016117b6565b9150509250929050565b600060208284031215611b2b57600080fd5b5035919050565b60008060408385031215611b4557600080fd5b82359150602083013567ffffffffffffffff811115611b6357600080fd5b611b0f85828601611858565b600060208284031215611b8157600080fd5b81356001600160e01b03198116811461052857600080fd5b600060208284031215611bab57600080fd5b815167ffffffffffffffff811115611bc257600080fd5b8201601f81018413611bd357600080fd5b8051611be16116fe82611e50565b818152856020838501011115611bf657600080fd5b611c07826020830160208601611ea7565b95945050505050565b600060208284031215611c2257600080fd5b5051919050565b60008151808452611c41816020860160208601611ea7565b601f01601f19169290920160200192915050565b60006bffffffffffffffffffffffff19808760601b168352808660601b166014840152508360288301528251611c92816048850160208701611ea7565b9190910160480195945050505050565b60008251611cb4818460208701611ea7565b9190910192915050565b6001600160a01b03841681528215156020820152606060408201526000611c076060830184611c29565b6020808252825182820181905260009190848201906040850190845b81811015611d295783516001600160a01b031683529284019291840191600101611d04565b50909695505050505050565b6020808252825182820181905260009190848201906040850190845b81811015611d2957835183529284019291840191600101611d51565b6000602080830181845280855180835260408601915060408160051b870101925083870160005b82811015611dc257603f19888603018452611db0858351611c29565b94509285019290850190600101611d94565b5092979650505050505050565b828152604060208201526000610c776040830184611c29565b6020815260006105286020830184611c29565b604051601f8201601f1916810167ffffffffffffffff81118282101715611e2457611e24611f65565b604052919050565b600067ffffffffffffffff821115611e4657611e46611f65565b5060051b60200190565b600067ffffffffffffffff821115611e6a57611e6a611f65565b50601f01601f191660200190565b60008219821115611e8b57611e8b611f23565b500190565b600082821015611ea257611ea2611f23565b500390565b60005b83811015611ec2578181015183820152602001611eaa565b838111156104005750506000910152565b600181811c90821680611ee757607f821691505b602082108114156105ff57634e487b7160e01b600052602260045260246000fd5b6000600019821415611f1c57611f1c611f23565b5060010190565b634e487b7160e01b600052601160045260246000fd5b634e487b7160e01b600052603160045260246000fd5b634e487b7160e01b600052603260045260246000fd5b634e487b7160e01b600052604160045260246000fdfea2646970667358221220bae5d5087dcd234c8304c6f5cf28f9ad455cf868b32064142f196398547a724a64736f6c63430008070033",
  "linkReferences": {},
  "deployedLinkReferences": {}
}