{
  "_format": "hh-sol-artifact-1",
  "contractName": "LSP7CompatibleERC20MintableInitAbstract",
  "sourceName": "contracts/LSP7DigitalAsset/presets/LSP7CompatibleERC20MintableInitAbstract.sol",
  "abi": [
    {
      "inputs": [],
      "name": "LSP4TokenNameNotEditable",
      "type": "error"
    },
    {
      "inputs": [],
      "name": "LSP4TokenSymbolNotEditable",
      "type": "error"
    },
    {
      "inputs": [
        {
          "internalType": "address",
          "name": "tokenOwner",
          "type": "address"
        },
        {
          "internalType": "uint256",
          "name": "authorizedAmount",
          "type": "uint256"
        },
        {
          "internalType": "address",
          "name": "operator",
          "type": "address"
        },
        {
          "internalType": "uint256",
          "name": "amount",
          "type": "uint256"
        }
      ],
      "name": "LSP7AmountExceedsAuthorizedAmount",
      "type": "error"
    },
    {
      "inputs": [
        {
          "internalType": "uint256",
          "name": "balance",
          "type": "uint256"
        },
        {
          "internalType": "address",
          "name": "tokenOwner",
          "type": "address"
        },
        {
          "internalType": "uint256",
          "name": "amount",
          "type": "uint256"
        }
      ],
      "name": "LSP7AmountExceedsBalance",
      "type": "error"
    },
    {
      "inputs": [],
      "name": "LSP7CannotSendWithAddressZero",
      "type": "error"
    },
    {
      "inputs": [],
      "name": "LSP7CannotUseAddressZeroAsOperator",
      "type": "error"
    },
    {
      "inputs": [],
      "name": "LSP7InvalidTransferBatch",
      "type": "error"
    },
    {
      "inputs": [
        {
          "internalType": "address",
          "name": "tokenReceiver",
          "type": "address"
        }
      ],
      "name": "LSP7NotifyTokenReceiverContractMissingLSP1Interface",
      "type": "error"
    },
    {
      "inputs": [
        {
          "internalType": "address",
          "name": "tokenReceiver",
          "type": "address"
        }
      ],
      "name": "LSP7NotifyTokenReceiverIsEOA",
      "type": "error"
    },
    {
      "anonymous": false,
      "inputs": [
        {
          "indexed": true,
          "internalType": "address",
          "name": "owner",
          "type": "address"
        },
        {
          "indexed": true,
          "internalType": "address",
          "name": "spender",
          "type": "address"
        },
        {
          "indexed": false,
          "internalType": "uint256",
          "name": "value",
          "type": "uint256"
        }
      ],
      "name": "Approval",
      "type": "event"
    },
    {
      "anonymous": false,
      "inputs": [
        {
          "indexed": true,
          "internalType": "address",
          "name": "operator",
          "type": "address"
        },
        {
          "indexed": true,
          "internalType": "address",
          "name": "tokenOwner",
          "type": "address"
        },
        {
          "indexed": true,
          "internalType": "uint256",
          "name": "amount",
          "type": "uint256"
        }
      ],
      "name": "AuthorizedOperator",
      "type": "event"
    },
    {
      "anonymous": false,
      "inputs": [
        {
          "indexed": true,
          "internalType": "bytes32",
          "name": "dataKey",
          "type": "bytes32"
        }
      ],
      "name": "DataChanged",
      "type": "event"
    },
    {
      "anonymous": false,
      "inputs": [
        {
          "indexed": false,
          "internalType": "uint8",
          "name": "version",
          "type": "uint8"
        }
      ],
      "name": "Initialized",
      "type": "event"
    },
    {
      "anonymous": false,
      "inputs": [
        {
          "indexed": true,
          "internalType": "address",
          "name": "previousOwner",
          "type": "address"
        },
        {
          "indexed": true,
          "internalType": "address",
          "name": "newOwner",
          "type": "address"
        }
      ],
      "name": "OwnershipTransferred",
      "type": "event"
    },
    {
      "anonymous": false,
      "inputs": [
        {
          "indexed": true,
          "internalType": "address",
          "name": "operator",
          "type": "address"
        },
        {
          "indexed": true,
          "internalType": "address",
          "name": "tokenOwner",
          "type": "address"
        }
      ],
      "name": "RevokedOperator",
      "type": "event"
    },
    {
      "anonymous": false,
      "inputs": [
        {
          "indexed": true,
          "internalType": "address",
          "name": "from",
          "type": "address"
        },
        {
          "indexed": true,
          "internalType": "address",
          "name": "to",
          "type": "address"
        },
        {
          "indexed": false,
          "internalType": "uint256",
          "name": "value",
          "type": "uint256"
        }
      ],
      "name": "Transfer",
      "type": "event"
    },
    {
      "anonymous": false,
      "inputs": [
        {
          "indexed": true,
          "internalType": "address",
          "name": "operator",
          "type": "address"
        },
        {
          "indexed": true,
          "internalType": "address",
          "name": "from",
          "type": "address"
        },
        {
          "indexed": true,
          "internalType": "address",
          "name": "to",
          "type": "address"
        },
        {
          "indexed": false,
          "internalType": "uint256",
          "name": "amount",
          "type": "uint256"
        },
        {
          "indexed": false,
          "internalType": "bool",
          "name": "force",
          "type": "bool"
        },
        {
          "indexed": false,
          "internalType": "bytes",
          "name": "data",
          "type": "bytes"
        }
      ],
      "name": "Transfer",
      "type": "event"
    },
    {
      "inputs": [
        {
          "internalType": "address",
          "name": "tokenOwner",
          "type": "address"
        },
        {
          "internalType": "address",
          "name": "operator",
          "type": "address"
        }
      ],
      "name": "allowance",
      "outputs": [
        {
          "internalType": "uint256",
          "name": "",
          "type": "uint256"
        }
      ],
      "stateMutability": "view",
      "type": "function"
    },
    {
      "inputs": [
        {
          "internalType": "address",
          "name": "operator",
          "type": "address"
        },
        {
          "internalType": "uint256",
          "name": "amount",
          "type": "uint256"
        }
      ],
      "name": "approve",
      "outputs": [
        {
          "internalType": "bool",
          "name": "",
          "type": "bool"
        }
      ],
      "stateMutability": "nonpayable",
      "type": "function"
    },
    {
      "inputs": [
        {
          "internalType": "address",
          "name": "operator",
          "type": "address"
        },
        {
          "internalType": "uint256",
          "name": "amount",
          "type": "uint256"
        }
      ],
      "name": "authorizeOperator",
      "outputs": [],
      "stateMutability": "nonpayable",
      "type": "function"
    },
    {
      "inputs": [
        {
          "internalType": "address",
          "name": "tokenOwner",
          "type": "address"
        }
      ],
      "name": "balanceOf",
      "outputs": [
        {
          "internalType": "uint256",
          "name": "",
          "type": "uint256"
        }
      ],
      "stateMutability": "view",
      "type": "function"
    },
    {
      "inputs": [],
      "name": "decimals",
      "outputs": [
        {
          "internalType": "uint256",
          "name": "",
          "type": "uint256"
        }
      ],
      "stateMutability": "view",
      "type": "function"
    },
    {
      "inputs": [
        {
          "internalType": "bytes32[]",
          "name": "dataKeys",
          "type": "bytes32[]"
        }
      ],
      "name": "getData",
      "outputs": [
        {
          "internalType": "bytes[]",
          "name": "dataValues",
          "type": "bytes[]"
        }
      ],
      "stateMutability": "view",
      "type": "function"
    },
    {
      "inputs": [
        {
          "internalType": "bytes32",
          "name": "dataKey",
          "type": "bytes32"
        }
      ],
      "name": "getData",
      "outputs": [
        {
          "internalType": "bytes",
          "name": "dataValue",
          "type": "bytes"
        }
      ],
      "stateMutability": "view",
      "type": "function"
    },
    {
      "inputs": [],
      "name": "initialized",
      "outputs": [
        {
          "internalType": "uint8",
          "name": "",
          "type": "uint8"
        }
      ],
      "stateMutability": "view",
      "type": "function"
    },
    {
      "inputs": [],
      "name": "initializing",
      "outputs": [
        {
          "internalType": "bool",
          "name": "",
          "type": "bool"
        }
      ],
      "stateMutability": "view",
      "type": "function"
    },
    {
      "inputs": [
        {
          "internalType": "address",
          "name": "operator",
          "type": "address"
        },
        {
          "internalType": "address",
          "name": "tokenOwner",
          "type": "address"
        }
      ],
      "name": "isOperatorFor",
      "outputs": [
        {
          "internalType": "uint256",
          "name": "",
          "type": "uint256"
        }
      ],
      "stateMutability": "view",
      "type": "function"
    },
    {
      "inputs": [
        {
          "internalType": "address",
          "name": "to",
          "type": "address"
        },
        {
          "internalType": "uint256",
          "name": "amount",
          "type": "uint256"
        },
        {
          "internalType": "bool",
          "name": "force",
          "type": "bool"
        },
        {
          "internalType": "bytes",
          "name": "data",
          "type": "bytes"
        }
      ],
      "name": "mint",
      "outputs": [],
      "stateMutability": "nonpayable",
      "type": "function"
    },
    {
      "inputs": [],
      "name": "name",
      "outputs": [
        {
          "internalType": "string",
          "name": "",
          "type": "string"
        }
      ],
      "stateMutability": "view",
      "type": "function"
    },
    {
      "inputs": [],
      "name": "owner",
      "outputs": [
        {
          "internalType": "address",
          "name": "",
          "type": "address"
        }
      ],
      "stateMutability": "view",
      "type": "function"
    },
    {
      "inputs": [],
      "name": "renounceOwnership",
      "outputs": [],
      "stateMutability": "nonpayable",
      "type": "function"
    },
    {
      "inputs": [
        {
          "internalType": "address",
          "name": "operator",
          "type": "address"
        }
      ],
      "name": "revokeOperator",
      "outputs": [],
      "stateMutability": "nonpayable",
      "type": "function"
    },
    {
      "inputs": [
        {
          "internalType": "bytes32[]",
          "name": "dataKeys",
          "type": "bytes32[]"
        },
        {
          "internalType": "bytes[]",
          "name": "dataValues",
          "type": "bytes[]"
        }
      ],
      "name": "setData",
      "outputs": [],
      "stateMutability": "nonpayable",
      "type": "function"
    },
    {
      "inputs": [
        {
          "internalType": "bytes32",
          "name": "dataKey",
          "type": "bytes32"
        },
        {
          "internalType": "bytes",
          "name": "dataValue",
          "type": "bytes"
        }
      ],
      "name": "setData",
      "outputs": [],
      "stateMutability": "nonpayable",
      "type": "function"
    },
    {
      "inputs": [
        {
          "internalType": "bytes4",
          "name": "interfaceId",
          "type": "bytes4"
        }
      ],
      "name": "supportsInterface",
      "outputs": [
        {
          "internalType": "bool",
          "name": "",
          "type": "bool"
        }
      ],
      "stateMutability": "view",
      "type": "function"
    },
    {
      "inputs": [],
      "name": "symbol",
      "outputs": [
        {
          "internalType": "string",
          "name": "",
          "type": "string"
        }
      ],
      "stateMutability": "view",
      "type": "function"
    },
    {
      "inputs": [],
      "name": "totalSupply",
      "outputs": [
        {
          "internalType": "uint256",
          "name": "",
          "type": "uint256"
        }
      ],
      "stateMutability": "view",
      "type": "function"
    },
    {
      "inputs": [
        {
          "internalType": "address",
          "name": "from",
          "type": "address"
        },
        {
          "internalType": "address",
          "name": "to",
          "type": "address"
        },
        {
          "internalType": "uint256",
          "name": "amount",
          "type": "uint256"
        },
        {
          "internalType": "bool",
          "name": "force",
          "type": "bool"
        },
        {
          "internalType": "bytes",
          "name": "data",
          "type": "bytes"
        }
      ],
      "name": "transfer",
      "outputs": [],
      "stateMutability": "nonpayable",
      "type": "function"
    },
    {
      "inputs": [
        {
          "internalType": "address",
          "name": "to",
          "type": "address"
        },
        {
          "internalType": "uint256",
          "name": "amount",
          "type": "uint256"
        }
      ],
      "name": "transfer",
      "outputs": [
        {
          "internalType": "bool",
          "name": "",
          "type": "bool"
        }
      ],
      "stateMutability": "nonpayable",
      "type": "function"
    },
    {
      "inputs": [
        {
          "internalType": "address[]",
          "name": "from",
          "type": "address[]"
        },
        {
          "internalType": "address[]",
          "name": "to",
          "type": "address[]"
        },
        {
          "internalType": "uint256[]",
          "name": "amount",
          "type": "uint256[]"
        },
        {
          "internalType": "bool",
          "name": "force",
          "type": "bool"
        },
        {
          "internalType": "bytes[]",
          "name": "data",
          "type": "bytes[]"
        }
      ],
      "name": "transferBatch",
      "outputs": [],
      "stateMutability": "nonpayable",
      "type": "function"
    },
    {
      "inputs": [
        {
          "internalType": "address",
          "name": "from",
          "type": "address"
        },
        {
          "internalType": "address",
          "name": "to",
          "type": "address"
        },
        {
          "internalType": "uint256",
          "name": "amount",
          "type": "uint256"
        }
      ],
      "name": "transferFrom",
      "outputs": [
        {
          "internalType": "bool",
          "name": "",
          "type": "bool"
        }
      ],
      "stateMutability": "nonpayable",
      "type": "function"
    },
    {
      "inputs": [
        {
          "internalType": "address",
          "name": "newOwner",
          "type": "address"
        }
      ],
      "name": "transferOwnership",
      "outputs": [],
      "stateMutability": "nonpayable",
      "type": "function"
    }
  ],
  "bytecode": "0x608060405234801561001057600080fd5b50611e5f806100206000396000f3fe608060405234801561001057600080fd5b50600436106101a35760003560e01c806370a08231116100ee57806395d89b4111610097578063d95b637111610071578063d95b637114610367578063dd62ed3e1461037a578063f2fde38b1461038d578063fad8b32a146103a057600080fd5b806395d89b4114610339578063a8a34e0a14610341578063a9059cbb1461035457600080fd5b8063760d9bba116100c8578063760d9bba146102e95780637f23690c146102fc5780638da5cb5b1461030f57600080fd5b806370a08231146102a5578063715018a6146102ce5780637580d920146102d657600080fd5b806323b872dd1161015057806347980aa31161012a57806347980aa31461025f5780634e3e6e9c1461027257806354f6127f1461029257600080fd5b806323b872dd146102345780632599f15914610247578063313ce5671461025757600080fd5b806314a6e2931161018157806314a6e293146101f8578063158ef93e1461020d57806318160ddd1461022257600080fd5b806301ffc9a7146101a857806306fdde03146101d0578063095ea7b3146101e5575b600080fd5b6101bb6101b6366004611ac1565b6103b3565b60405190151581526020015b60405180910390f35b6101d86103f7565b6040516101c79190611c8b565b6101bb6101f336600461182c565b610424565b61020b610206366004611a07565b610439565b005b60005460405160ff90911681526020016101c7565b6003545b6040519081526020016101c7565b6101bb610242366004611777565b610512565b600054610100900460ff166101bb565b61022661053b565b61020b61026d36600461182c565b61055a565b6102856102803660046119ca565b610568565b6040516101c79190611c10565b6101d86102a0366004611a6b565b61061c565b6102266102b3366004611729565b6001600160a01b031660009081526004602052604090205490565b61020b610627565b61020b6102e4366004611856565b61063b565b61020b6102f73660046117b3565b610655565b61020b61030a366004611a84565b610712565b6000546201000090046001600160a01b03166040516001600160a01b0390911681526020016101c7565b6101d8610724565b61020b61034f3660046118be565b610751565b6101bb61036236600461182c565b610837565b610226610375366004611744565b610856565b610226610388366004611744565b6108bd565b61020b61039b366004611729565b6108d0565b61020b6103ae366004611729565b610960565b60006001600160e01b031982167fe33f65c30000000000000000000000000000000000000000000000000000000014806103f157506103f18261096c565b92915050565b606060006103f17fdeba1e292f8ba88238e10ab3c7f88bd4be4fac56cad5194b6ecceaf653468af16109ba565b6000610430838361055a565b50600192915050565b610441610a5c565b80518251146104bd5760405162461bcd60e51b815260206004820152602660248201527f4b657973206c656e677468206e6f7420657175616c20746f2076616c7565732060448201527f6c656e677468000000000000000000000000000000000000000000000000000060648201526084015b60405180910390fd5b60005b825181101561050d576105058382815181106104de576104de611dfd565b60200260200101518383815181106104f8576104f8611dfd565b6020026020010151610abd565b6001016104c0565b505050565b6000610531848484600160405180602001604052806000815250610655565b5060019392505050565b60025460009060ff1661054f576012610552565b60005b60ff16905090565b6105648282610ac7565b5050565b6060815167ffffffffffffffff81111561058457610584611e13565b6040519080825280602002602001820160405280156105b757816020015b60608152602001906001900390816105a25790505b50905060005b8251811015610616576105e88382815181106105db576105db611dfd565b60200260200101516109ba565b8282815181106105fa576105fa611dfd565b602002602001018190525061060f8160010190565b90506105bd565b50919050565b60606103f1826109ba565b61062f610a5c565b6106396000610b15565b565b610643610a5c565b61064f84848484610ba1565b50505050565b336001600160a01b03861681146106fd576001600160a01b03808716600090815260056020908152604080832093851683529290522054808511156106e7576040517ff3a6b6910000000000000000000000000000000000000000000000000000000081526001600160a01b0380891660048301526024820183905283166044820152606481018690526084016104b4565b6106fb87836106f68885611d54565b610bad565b505b61070a8686868686610cc5565b505050505050565b61071a610a5c565b6105648282610abd565b606060006103f17f2f0a68ab07768e01943a599e73362a0e17a63a72e94dd2e384d2c1d4db9327566109ba565b8351855114158061076457508251855114155b8061077157508051855114155b156107a8576040517f263eee8d00000000000000000000000000000000000000000000000000000000815260040160405180910390fd5b60005b855181101561070a576108258682815181106107c9576107c9611dfd565b60200260200101518683815181106107e3576107e3611dfd565b60200260200101518684815181106107fd576107fd611dfd565b60200260200101518686868151811061081857610818611dfd565b6020026020010151610655565b8061082f81611dcc565b9150506107ab565b6000610430338484600160405180602001604052806000815250610655565b6000826001600160a01b0316826001600160a01b0316141561089157506001600160a01b0381166000908152600460205260409020546103f1565b506001600160a01b038082166000908152600560209081526040808320938616835292905220546103f1565b60006108c98284610856565b9392505050565b6108d8610a5c565b6001600160a01b0381166109545760405162461bcd60e51b815260206004820152602660248201527f4f776e61626c653a206e6577206f776e657220697320746865207a65726f206160448201527f646472657373000000000000000000000000000000000000000000000000000060648201526084016104b4565b61095d81610b15565b50565b61095d33826000610bad565b60006001600160e01b031982167f714df77c0000000000000000000000000000000000000000000000000000000014806103f157506301ffc9a760e01b6001600160e01b03198316146103f1565b60008181526001602052604090208054606091906109d790611d97565b80601f0160208091040260200160405190810160405280929190818152602001828054610a0390611d97565b8015610a505780601f10610a2557610100808354040283529160200191610a50565b820191906000526020600020905b815481529060010190602001808311610a3357829003601f168201915b50505050509050919050565b6000546001600160a01b03620100009091041633146106395760405162461bcd60e51b815260206004820181905260248201527f4f776e61626c653a2063616c6c6572206973206e6f7420746865206f776e657260448201526064016104b4565b6105648282610cd9565b610ad18282610d97565b6040518181526001600160a01b0383169033907f8c5be1e5ebec7d5bd14f71427d1e84f3dd0314c0f7b2291e5b200ac8c7c3b9259060200160405180910390a35050565b6000546001600160a01b0382811662010000909204161461095d57600080546001600160a01b03838116620100008181027fffffffffffffffffffff0000000000000000000000000000000000000000ffff851617855560405193049190911692909183917f8be0079c531659141344cd1fd0a4f28419497f9722a3daafe3b4186f6b6457e091a35050565b61064f84848484610da2565b6001600160a01b038216610bed576040517f6355e76600000000000000000000000000000000000000000000000000000000815260040160405180910390fd5b826001600160a01b0316826001600160a01b03161415610c0c57505050565b6001600160a01b0380841660009081526005602090815260408083209386168352929052208190558015610c805780836001600160a01b0316836001600160a01b03167fd66aff874162a96578e919097b6f6d153dfd89a5cec41bb331fdb0c4aec16e2c60405160405180910390a4505050565b826001600160a01b0316826001600160a01b03167f50546e66e5f44d728365dc3908c63bc5cfeeab470722c1677e3073a6ac294aa160405160405180910390a3505050565b610cd28585858585610df5565b5050505050565b7fdeba1e292f8ba88238e10ab3c7f88bd4be4fac56cad5194b6ecceaf653468af1821415610d33576040517f85c169bd00000000000000000000000000000000000000000000000000000000815260040160405180910390fd5b7f2f0a68ab07768e01943a599e73362a0e17a63a72e94dd2e384d2c1d4db932756821415610d8d576040517f76755b3800000000000000000000000000000000000000000000000000000000815260040160405180910390fd5b6105648282610e56565b610564338383610bad565b610dae84848484610ea5565b6040518381526001600160a01b038516906000907fddf252ad1be2c89b69c2b068fc378daa952ba7f163c4a11628f55a4df523b3ef9060200160405180910390a350505050565b610e028585858585610f70565b836001600160a01b0316856001600160a01b03167fddf252ad1be2c89b69c2b068fc378daa952ba7f163c4a11628f55a4df523b3ef85604051610e4791815260200190565b60405180910390a35050505050565b60008281526001602090815260409091208251610e75928401906114a8565b5060405182907fcdf4e344c0d23d4cdd0474039d176c55b19d531070dbe17856bfb993a5b5720b90600090a25050565b6001600160a01b038416610ecc57604051630d2d5ec360e41b815260040160405180910390fd5b33610ed9600086866110fa565b6001600160a01b03851660009081526004602052604081208054869290610f01908490611d3c565b92505081905550846001600160a01b031660006001600160a01b0316826001600160a01b03167f3997e418d2cef0b3b0e907b1e39605c3f7d32dbd061e82ea5b4a770d46a160a6878787604051610f5a93929190611c9e565b60405180910390a4610cd260008686868661114a565b6001600160a01b0385161580610f8d57506001600160a01b038416155b15610fab57604051630d2d5ec360e41b815260040160405180910390fd5b6001600160a01b03851660009081526004602052604090205480841115611017576040517f08d47949000000000000000000000000000000000000000000000000000000008152600481018290526001600160a01b0387166024820152604481018590526064016104b4565b336110238787876110fa565b6001600160a01b0387166000908152600460205260408120805487929061104b908490611d54565b90915550506001600160a01b03861660009081526004602052604081208054879290611078908490611d3c565b92505081905550856001600160a01b0316876001600160a01b0316826001600160a01b03167f3997e418d2cef0b3b0e907b1e39605c3f7d32dbd061e82ea5b4a770d46a160a68888886040516110d093929190611c9e565b60405180910390a46110e4878787866112c3565b6110f1878787878761114a565b50505050505050565b6001600160a01b03831661112057806003600082825461111a9190611d3c565b90915550505b6001600160a01b03821661050d5780600360008282546111409190611d54565b9091555050505050565b61115b84631aed5a8560e21b6113a6565b15611234576000858585846040516020016111799493929190611ba7565b60408051601f1981840301815290829052631aed5a8560e21b825291506001600160a01b03861690636bb56a14906111d7907fdbe2c314e1aee2970c72666f2ebe8933a8575263ea71e5ff6a9178e95d47a26f908590600401611c72565b600060405180830381600087803b1580156111f157600080fd5b505af1158015611205573d6000803e3d6000fd5b505050506040513d6000823e601f3d908101601f1916820160405261122d9190810190611aeb565b5050610cd2565b81610cd2576001600160a01b0384163b15611286576040517fa608fbb60000000000000000000000000000000000000000000000000000000081526001600160a01b03851660048201526024016104b4565b6040517f26c247f40000000000000000000000000000000000000000000000000000000081526001600160a01b03851660048201526024016104b4565b6112d484631aed5a8560e21b6113a6565b1561064f576000848484846040516020016112f29493929190611ba7565b60408051601f1981840301815290829052631aed5a8560e21b825291506001600160a01b03861690636bb56a1490611350907f40b8bec57d7b5ff0dbd9e9acd0a47dfeb0101e1a203766f5ccab00445fbf39e9908590600401611c72565b600060405180830381600087803b15801561136a57600080fd5b505af115801561137e573d6000803e3d6000fd5b505050506040513d6000823e601f3d908101601f1916820160405261070a9190810190611aeb565b604080516001600160e01b0319831660248083019190915282518083039091018152604490910182526020810180517bffffffffffffffffffffffffffffffffffffffffffffffffffffffff166301ffc9a760e01b179052905160009190829081906001600160a01b0387169061753090611422908690611bf4565b6000604051808303818686fa925050503d806000811461145e576040519150601f19603f3d011682016040523d82523d6000602084013e611463565b606091505b509150915060208151101561147e57600093505050506103f1565b81801561149e575060008180602001905181019061149c9190611b62565b115b9695505050505050565b8280546114b490611d97565b90600052602060002090601f0160209004810192826114d6576000855561151c565b82601f106114ef57805160ff191683800117855561151c565b8280016001018555821561151c579182015b8281111561151c578251825591602001919060010190611501565b5061152892915061152c565b5090565b5b80821115611528576000815560010161152d565b80356001600160a01b038116811461155857600080fd5b919050565b600082601f83011261156e57600080fd5b8135602061158361157e83611cf0565b611cbf565b80838252828201915082860187848660051b89010111156115a357600080fd5b60005b858110156115c9576115b782611541565b845292840192908401906001016115a6565b5090979650505050505050565b600082601f8301126115e757600080fd5b813560206115f761157e83611cf0565b80838252828201915082860187848660051b890101111561161757600080fd5b60005b858110156115c95781358452928401929084019060010161161a565b600082601f83011261164757600080fd5b8135602061165761157e83611cf0565b80838252828201915082860187848660051b890101111561167757600080fd5b6000805b868110156116ba57823567ffffffffffffffff811115611699578283fd5b6116a78b88838d01016116d8565b865250938501939185019160010161167b565b509198975050505050505050565b8035801515811461155857600080fd5b600082601f8301126116e957600080fd5b81356116f761157e82611d14565b81815284602083860101111561170c57600080fd5b816020850160208301376000918101602001919091529392505050565b60006020828403121561173b57600080fd5b6108c982611541565b6000806040838503121561175757600080fd5b61176083611541565b915061176e60208401611541565b90509250929050565b60008060006060848603121561178c57600080fd5b61179584611541565b92506117a360208501611541565b9150604084013590509250925092565b600080600080600060a086880312156117cb57600080fd5b6117d486611541565b94506117e260208701611541565b9350604086013592506117f7606087016116c8565b9150608086013567ffffffffffffffff81111561181357600080fd5b61181f888289016116d8565b9150509295509295909350565b6000806040838503121561183f57600080fd5b61184883611541565b946020939093013593505050565b6000806000806080858703121561186c57600080fd5b61187585611541565b93506020850135925061188a604086016116c8565b9150606085013567ffffffffffffffff8111156118a657600080fd5b6118b2878288016116d8565b91505092959194509250565b600080600080600060a086880312156118d657600080fd5b853567ffffffffffffffff808211156118ee57600080fd5b6118fa89838a0161155d565b965060209150818801358181111561191157600080fd5b61191d8a828b0161155d565b96505060408801358181111561193257600080fd5b8801601f81018a1361194357600080fd5b803561195161157e82611cf0565b8082825285820191508584018d878560051b870101111561197157600080fd5b600094505b83851015611994578035835260019490940193918601918601611976565b5097506119a792505050606089016116c8565b935060808801359150808211156119bd57600080fd5b5061181f88828901611636565b6000602082840312156119dc57600080fd5b813567ffffffffffffffff8111156119f357600080fd5b6119ff848285016115d6565b949350505050565b60008060408385031215611a1a57600080fd5b823567ffffffffffffffff80821115611a3257600080fd5b611a3e868387016115d6565b93506020850135915080821115611a5457600080fd5b50611a6185828601611636565b9150509250929050565b600060208284031215611a7d57600080fd5b5035919050565b60008060408385031215611a9757600080fd5b82359150602083013567ffffffffffffffff811115611ab557600080fd5b611a61858286016116d8565b600060208284031215611ad357600080fd5b81356001600160e01b0319811681146108c957600080fd5b600060208284031215611afd57600080fd5b815167ffffffffffffffff811115611b1457600080fd5b8201601f81018413611b2557600080fd5b8051611b3361157e82611d14565b818152856020838501011115611b4857600080fd5b611b59826020830160208601611d6b565b95945050505050565b600060208284031215611b7457600080fd5b5051919050565b60008151808452611b93816020860160208601611d6b565b601f01601f19169290920160200192915050565b60006bffffffffffffffffffffffff19808760601b168352808660601b166014840152508360288301528251611be4816048850160208701611d6b565b9190910160480195945050505050565b60008251611c06818460208701611d6b565b9190910192915050565b6000602080830181845280855180835260408601915060408160051b870101925083870160005b82811015611c6557603f19888603018452611c53858351611b7b565b94509285019290850190600101611c37565b5092979650505050505050565b8281526040602082015260006119ff6040830184611b7b565b6020815260006108c96020830184611b7b565b8381528215156020820152606060408201526000611b596060830184611b7b565b604051601f8201601f1916810167ffffffffffffffff81118282101715611ce857611ce8611e13565b604052919050565b600067ffffffffffffffff821115611d0a57611d0a611e13565b5060051b60200190565b600067ffffffffffffffff821115611d2e57611d2e611e13565b50601f01601f191660200190565b60008219821115611d4f57611d4f611de7565b500190565b600082821015611d6657611d66611de7565b500390565b60005b83811015611d86578181015183820152602001611d6e565b8381111561064f5750506000910152565b600181811c90821680611dab57607f821691505b6020821081141561061657634e487b7160e01b600052602260045260246000fd5b6000600019821415611de057611de0611de7565b5060010190565b634e487b7160e01b600052601160045260246000fd5b634e487b7160e01b600052603260045260246000fd5b634e487b7160e01b600052604160045260246000fdfea264697066735822122067d459580afdc3c8603df3c134160903af6e13f8e9a357971fd215f4f41891d964736f6c63430008070033",
  "linkReferences": {},
  "deployedLinkReferences": {}
}