{
  "_format": "hh-sol-artifact-1",
  "contractName": "TokenReceiverWithLSP1",
  "sourceName": "contracts/Helpers/Tokens/TokenReceiverWithLSP1.sol",
  "abi": [
    {
      "inputs": [],
      "stateMutability": "nonpayable",
      "type": "constructor"
    },
    {
      "anonymous": false,
      "inputs": [
        {
          "indexed": true,
          "internalType": "address",
          "name": "from",
          "type": "address"
        },
        {
          "indexed": false,
          "internalType": "uint256",
          "name": "value",
          "type": "uint256"
        },
        {
          "indexed": true,
          "internalType": "bytes32",
          "name": "typeId",
          "type": "bytes32"
        },
        {
          "indexed": true,
          "internalType": "bytes",
          "name": "returnedValue",
          "type": "bytes"
        },
        {
          "indexed": false,
          "internalType": "bytes",
          "name": "receivedData",
          "type": "bytes"
        }
      ],
      "name": "UniversalReceiver",
      "type": "event"
    },
    {
      "anonymous": false,
      "inputs": [
        {
          "indexed": false,
          "internalType": "bytes32",
          "name": "typeId",
          "type": "bytes32"
        },
        {
          "indexed": false,
          "internalType": "bytes",
          "name": "data",
          "type": "bytes"
        }
      ],
      "name": "UniversalReceiverCalled",
      "type": "event"
    },
    {
      "stateMutability": "payable",
      "type": "fallback"
    },
    {
      "inputs": [
        {
          "internalType": "bytes4",
          "name": "interfaceId",
          "type": "bytes4"
        }
      ],
      "name": "supportsInterface",
      "outputs": [
        {
          "internalType": "bool",
          "name": "",
          "type": "bool"
        }
      ],
      "stateMutability": "view",
      "type": "function"
    },
    {
      "inputs": [
        {
          "internalType": "bytes32",
          "name": "typeId",
          "type": "bytes32"
        },
        {
          "internalType": "bytes",
          "name": "data",
          "type": "bytes"
        }
      ],
      "name": "universalReceiver",
      "outputs": [
        {
          "internalType": "bytes",
          "name": "returnValue",
          "type": "bytes"
        }
      ],
      "stateMutability": "payable",
      "type": "function"
    },
    {
      "stateMutability": "payable",
      "type": "receive"
    }
  ],
  "bytecode": "0x608060405234801561001057600080fd5b50610021631aed5a8560e21b610026565b6100a9565b6001600160e01b031980821614156100845760405162461bcd60e51b815260206004820152601c60248201527f4552433136353a20696e76616c696420696e7465726661636520696400000000604482015260640160405180910390fd5b6001600160e01b0319166000908152602081905260409020805460ff19166001179055565b610371806100b86000396000f3fe60806040526004361061002a5760003560e01c806301ffc9a7146100335780636bb56a141461006857005b3661003157005b005b34801561003f57600080fd5b5061005361004e366004610242565b610088565b60405190151581526020015b60405180910390f35b61007b610076366004610187565b610111565b60405161005f91906102f9565b60007f01ffc9a7000000000000000000000000000000000000000000000000000000007fffffffff000000000000000000000000000000000000000000000000000000008316148061010b57507fffffffff00000000000000000000000000000000000000000000000000000000821660009081526020819052604090205460ff165b92915050565b60607f202a54797b5fd989803636de9bdd738655a602e0d5a9d668bb4e8a87cbf5a80883836040516101449291906102d8565b60405180910390a15060408051808201909152601281527f7468616e6b7320666f722063616c6c696e670000000000000000000000000000602082015292915050565b6000806040838503121561019a57600080fd5b82359150602083013567ffffffffffffffff808211156101b957600080fd5b818501915085601f8301126101cd57600080fd5b8135818111156101df576101df61030c565b604051601f8201601f19908116603f011681019083821181831017156102075761020761030c565b8160405282815288602084870101111561022057600080fd5b8260208601602083013760006020848301015280955050505050509250929050565b60006020828403121561025457600080fd5b81357fffffffff000000000000000000000000000000000000000000000000000000008116811461028457600080fd5b9392505050565b6000815180845260005b818110156102b157602081850181015186830182015201610295565b818111156102c3576000602083870101525b50601f01601f19169290920160200192915050565b8281526040602082015260006102f1604083018461028b565b949350505050565b602081526000610284602083018461028b565b7f4e487b7100000000000000000000000000000000000000000000000000000000600052604160045260246000fdfea264697066735822122023a88dff413218421668135152f71f712aa8a3f275f1853e12bf8dde8ec7f28b64736f6c63430008070033",
  "linkReferences": {},
  "deployedLinkReferences": {}
}