{
  "_format": "hh-sol-artifact-1",
  "contractName": "LSP1UniversalReceiverDelegateVault",
  "sourceName": "contracts/LSP1UniversalReceiver/LSP1UniversalReceiverDelegateVault/LSP1UniversalReceiverDelegateVault.sol",
  "abi": [
    {
      "inputs": [
        {
          "internalType": "bytes",
          "name": "invalidValue",
          "type": "bytes"
        },
        {
          "internalType": "uint256",
          "name": "invalidValueLength",
          "type": "uint256"
        }
      ],
      "name": "InvalidLSP5ReceivedAssetsArrayLength",
      "type": "error"
    },
    {
      "inputs": [
        {
          "internalType": "bytes4",
          "name": "interfaceId",
          "type": "bytes4"
        }
      ],
      "name": "supportsInterface",
      "outputs": [
        {
          "internalType": "bool",
          "name": "",
          "type": "bool"
        }
      ],
      "stateMutability": "view",
      "type": "function"
    },
    {
      "inputs": [
        {
          "internalType": "address",
          "name": "sender",
          "type": "address"
        },
        {
          "internalType": "uint256",
          "name": "value",
          "type": "uint256"
        },
        {
          "internalType": "bytes32",
          "name": "typeId",
          "type": "bytes32"
        },
        {
          "internalType": "bytes",
          "name": "data",
          "type": "bytes"
        }
      ],
      "name": "universalReceiverDelegate",
      "outputs": [
        {
          "internalType": "bytes",
          "name": "result",
          "type": "bytes"
        }
      ],
      "stateMutability": "nonpayable",
      "type": "function"
    }
  ],
  "bytecode": "0x608060405234801561001057600080fd5b5061187b806100206000396000f3fe608060405234801561001057600080fd5b50600436106100365760003560e01c806301ffc9a71461003b578063a245bbda14610063575b600080fd5b61004e610049366004611491565b610083565b60405190151581526020015b60405180910390f35b6100766100713660046113df565b6100d3565b60405161005a9190611672565b60006001600160e01b031982167fa245bbda0000000000000000000000000000000000000000000000000000000014806100cd57506301ffc9a760e01b6001600160e01b03198316145b92915050565b60607f40b8bec57d7b5ff0dbd9e9acd0a47dfeb0101e1a203766f5ccab00445fbf39e983148061012257507fdbe2c314e1aee2970c72666f2ebe8933a8575263ea71e5ff6a9178e95d47a26f83145b8061014c57507f3724c94f0815e936299cca424da4140752198e0beb7931a6e0925d11bc97544c83145b8061017657507fc7a120a42b6057a0cbed111fbbfbd52fcd96748c04394f77fc2c3adbe0391e0183145b15610188576101858584610190565b90505b949350505050565b60606001600160a01b0383163b6101b657506040805160208101909152600081526100cd565b6101c73363460ea27b60e11b6104b8565b6101e057506040805160208101909152600081526100cd565b6000806000806101ef866105ba565b93509350935093506000610206838960601b610832565b6040516354f6127f60e01b81526004810182905290915060009033906354f6127f9060240160006040518083038186803b15801561024357600080fd5b505afa158015610257573d6000803e3d6000fd5b505050506040513d6000823e601f3d908101601f1916820160405261027f91908101906114bb565b9050851561033e5760006102928261172f565b73ffffffffffffffffffffffffffffffffffffffff1916146102cb576040518060200160405280600081525096505050505050506100cd565b6000806102db3388868e89610889565b6040516314a6e29360e01b8152919350915033906314a6e2939061030590859085906004016115da565b600060405180830381600087803b15801561031f57600080fd5b505af1158015610333573d6000803e3d6000fd5b5050505050506104ac565b60006103498261172f565b73ffffffffffffffffffffffffffffffffffffffff19161415610383576040518060200160405280600081525096505050505050506100cd565b6040517f70a082310000000000000000000000000000000000000000000000000000000081523360048201526000906001600160a01b038b16906370a082319060240160206040518083038186803b1580156103de57600080fd5b505afa1580156103f2573d6000803e3d6000fd5b505050506040513d601f19601f820116820180604052508101906104169190611532565b9050801561043c57604051806020016040528060008152509750505050505050506100cd565b60008061044c3389898888610c31565b6040516314a6e29360e01b8152919350915033906314a6e2939061047690859085906004016115da565b600060405180830381600087803b15801561049057600080fd5b505af11580156104a4573d6000803e3d6000fd5b505050505050505b50505050505092915050565b604080516001600160e01b0319831660248083019190915282518083039091018152604490910182526020810180517bffffffffffffffffffffffffffffffffffffffffffffffffffffffff166301ffc9a760e01b179052905160009190829081906001600160a01b0387169061753090610534908690611577565b6000604051808303818686fa925050503d8060008114610570576040519150601f19603f3d011682016040523d82523d6000602084013e610575565b606091505b509150915060208151101561059057600093505050506100cd565b8180156105b057506000818060200190518101906105ae9190611532565b115b9695505050505050565b60008080807f40b8bec57d7b5ff0dbd9e9acd0a47dfeb0101e1a203766f5ccab00445fbf39e985148061060c57507fdbe2c314e1aee2970c72666f2ebe8933a8575263ea71e5ff6a9178e95d47a26f85145b8061063657507fc7a120a42b6057a0cbed111fbbfbd52fcd96748c04394f77fc2c3adbe0391e0185145b8061066057507f3724c94f0815e936299cca424da4140752198e0beb7931a6e0925d11bc97544c85145b156107a8577f6460ee3c0aac563ccbf76d6e1d07bada78e3a9514e6382b736ed3f478ab7b90b92507f812c4334633eb816c80d0000000000000000000000000000000000000000000091507f40b8bec57d7b5ff0dbd9e9acd0a47dfeb0101e1a203766f5ccab00445fbf39e98514806106f857507fdbe2c314e1aee2970c72666f2ebe8933a8575263ea71e5ff6a9178e95d47a26f85145b610722577f4939914500000000000000000000000000000000000000000000000000000000610744565b7fe33f65c3000000000000000000000000000000000000000000000000000000005b90507fdbe2c314e1aee2970c72666f2ebe8933a8575263ea71e5ff6a9178e95d47a26f85148061079357507fc7a120a42b6057a0cbed111fbbfbd52fcd96748c04394f77fc2c3adbe0391e0185145b61079e5760006107a1565b60015b935061082b565b507f55482936e01da86729a45d2b87a6b1d3bc582bea0ec00e38bdb340e3af6f9f0691507f192448c3c0f88c7f238c00000000000000000000000000000000000000000000905063460ea27b60e11b7f09aaf55960715d8d86b57af40be36b0bfd469c9a3643445d8c65d39e27b4c56f8514610825576000610828565b60015b93505b9193509193565b6040805173ffffffffffffffffffffffffffffffffffffffff19841660208201526bffffffffffffffffffffffff198316602c820152600091829101604051602081830303815290604052905080610188906117ac565b604080516003808252608082019092526060918291906020820183803683370190505060408051600380825260808201909252919350816020015b60608152602001906001900390816108c4579050506040516354f6127f60e01b8152600481018890529091506000906001600160a01b038916906354f6127f9060240160006040518083038186803b15801561091f57600080fd5b505afa158015610933573d6000803e3d6000fd5b505050506040513d6000823e601f3d908101601f1916820160405261095b91908101906114bb565b9050805160001415610a7457868360008151811061097b5761097b611819565b602002602001018181525050610991600161117d565b826000815181106109a4576109a4611819565b60200260200101819052506109ba8760006111a3565b836001815181106109cd576109cd611819565b6020026020010181815250506109e285611208565b826001815181106109f5576109f5611819565b60200260200101819052508583600281518110610a1457610a14611819565b6020908102919091018101919091526040516001600160e01b031986169181019190915260006024820152602c0160405160208183030381529060405282600281518110610a6457610a64611819565b6020026020010181905250610c26565b805160201415610be757600081806020019051810190610a949190611532565b90506000610aa3826001611700565b90508885600081518110610ab957610ab9611819565b602002602001018181525050610ace8161117d565b84600081518110610ae157610ae1611819565b6020908102919091010152610b0089610afb600184611718565b6111a3565b85600181518110610b1357610b13611819565b602002602001018181525050610b2887611208565b84600181518110610b3b57610b3b611819565b60200260200101819052508785600281518110610b5a57610b5a611819565b602002602001018181525050858260c01b604051602001610bb39291906001600160e01b03199290921682527fffffffffffffffff000000000000000000000000000000000000000000000000166004820152600c0190565b60405160208183030381529060405284600281518110610bd557610bd5611819565b60200260200101819052505050610c26565b80516040517fecba7af8000000000000000000000000000000000000000000000000000000008152610c1d918391600401611685565b60405180910390fd5b509550959350505050565b6060806000876001600160a01b03166354f6127f886040518263ffffffff1660e01b8152600401610c6491815260200190565b60006040518083038186803b158015610c7c57600080fd5b505afa158015610c90573d6000803e3d6000fd5b505050506040513d6000823e601f3d908101601f19168201604052610cb891908101906114bb565b9050600081806020019051810190610cd09190611532565b90506000610cdf600183611718565b90506000610cec8761122d565b90506000610d048b8367ffffffffffffffff166111a3565b9050610d11600185611718565b8267ffffffffffffffff161415610e58576040805160038082526080820190925290602082016060803683370190505060408051600380825260808201909252919850816020015b6060815260200190600190039081610d595790505095508a87600081518110610d8457610d84611819565b602002602001018181525050610d998361117d565b86600081518110610dac57610dac611819565b60200260200101819052508887600181518110610dcb57610dcb611819565b6020026020010181815250506040518060200160405280600081525086600181518110610dfa57610dfa611819565b60200260200101819052508087600281518110610e1957610e19611819565b6020026020010181815250506040518060200160405280600081525086600281518110610e4857610e48611819565b602002602001018190525061116e565b60408051600580825260c08201909252906020820160a0803683370190505060408051600580825260c08201909252919850816020015b6060815260200190600190039081610e8f5790505095508a87600081518110610eba57610eba611819565b602002602001018181525050610ecf8361117d565b86600081518110610ee257610ee2611819565b60200260200101819052508887600181518110610f0157610f01611819565b6020026020010181815250506040518060200160405280600081525086600181518110610f3057610f30611819565b60200260200101819052506000610f478c856111a3565b6040516354f6127f60e01b8152600481018290529091506000906001600160a01b038f16906354f6127f9060240160006040518083038186803b158015610f8d57600080fd5b505afa158015610fa1573d6000803e3d6000fd5b505050506040513d6000823e601f3d908101601f19168201604052610fc991908101906114bb565b90506000610fdf8d610fda84611774565b610832565b905060008f6001600160a01b03166354f6127f836040518263ffffffff1660e01b815260040161101191815260200190565b60006040518083038186803b15801561102957600080fd5b505afa15801561103d573d6000803e3d6000fd5b505050506040513d6000823e601f3d908101601f1916820160405261106591908101906114bb565b905060006110768260006004611251565b9050858c60028151811061108c5761108c611819565b602002602001018181525050838b6002815181106110ac576110ac611819565b6020026020010181905250848c6003815181106110cb576110cb611819565b602002602001018181525050604051806020016040528060008152508b6003815181106110fa576110fa611819565b6020026020010181905250828c60048151811061111957611119611819565b602002602001018181525050808760c01b60405160200161113b929190611593565b6040516020818303038152906040528b60048151811061115d5761115d611819565b602002602001018190525050505050505b50505050509550959350505050565b6040805160208101839052606091015b6040516020818303038152906040529050919050565b6000806111fd848460801b604080517fffffffffffffffffffffffffffffffff0000000000000000000000000000000080851660208301528316603082015260609101604051602081830303815290604052905092915050565b9050610188816117ac565b604051606082811b6bffffffffffffffffffffffff191660208301529060340161118d565b60008061123d8360046008611251565b905061124a816000611379565b9392505050565b60608161125f81601f611700565b10156112ad5760405162461bcd60e51b815260206004820152600e60248201527f736c6963655f6f766572666c6f770000000000000000000000000000000000006044820152606401610c1d565b6112b78284611700565b845110156113075760405162461bcd60e51b815260206004820152601160248201527f736c6963655f6f75744f66426f756e64730000000000000000000000000000006044820152606401610c1d565b6060821580156113265760405191506000825260208201604052611370565b6040519150601f8416801560200281840101858101878315602002848b0101015b8183101561135f578051835260209283019201611347565b5050858452601f01601f1916604052505b50949350505050565b6000611386826008611700565b835110156113d65760405162461bcd60e51b815260206004820152601460248201527f746f55696e7436345f6f75744f66426f756e64730000000000000000000000006044820152606401610c1d565b50016008015190565b600080600080608085870312156113f557600080fd5b84356001600160a01b038116811461140c57600080fd5b93506020850135925060408501359150606085013567ffffffffffffffff81111561143657600080fd5b8501601f8101871361144757600080fd5b803561145a611455826116d8565b6116a7565b81815288602083850101111561146f57600080fd5b8160208401602083013760006020838301015280935050505092959194509250565b6000602082840312156114a357600080fd5b81356001600160e01b03198116811461124a57600080fd5b6000602082840312156114cd57600080fd5b815167ffffffffffffffff8111156114e457600080fd5b8201601f810184136114f557600080fd5b8051611503611455826116d8565b81815285602083850101111561151857600080fd5b6115298260208301602086016117d3565b95945050505050565b60006020828403121561154457600080fd5b5051919050565b600081518084526115638160208601602086016117d3565b601f01601f19169290920160200192915050565b600082516115898184602087016117d3565b9190910192915050565b600083516115a58184602088016117d3565b7fffffffffffffffff000000000000000000000000000000000000000000000000939093169190920190815260080192915050565b604080825283519082018190526000906020906060840190828701845b82811015611613578151845292840192908401906001016115f7565b50505083810382850152845180825282820190600581901b8301840187850160005b8381101561166357601f1986840301855261165183835161154b565b94870194925090860190600101611635565b50909998505050505050505050565b60208152600061124a602083018461154b565b604081526000611698604083018561154b565b90508260208301529392505050565b604051601f8201601f1916810167ffffffffffffffff811182821017156116d0576116d061182f565b604052919050565b600067ffffffffffffffff8211156116f2576116f261182f565b50601f01601f191660200190565b6000821982111561171357611713611803565b500190565b60008282101561172a5761172a611803565b500390565b60008151602083015173ffffffffffffffffffffffffffffffffffffffff198082169350600c83101561176c57808184600c0360031b1b83161693505b505050919050565b805160208201516bffffffffffffffffffffffff19808216929190601483101561176c5760149290920360031b82901b161692915050565b805160208083015191908110156117cd576000198160200360031b1b821691505b50919050565b60005b838110156117ee5781810151838201526020016117d6565b838111156117fd576000848401525b50505050565b634e487b7160e01b600052601160045260246000fd5b634e487b7160e01b600052603260045260246000fd5b634e487b7160e01b600052604160045260246000fdfea26469706673582212202a3e4458061000d5f0e1efd999b7c0088ec5aefe4f8d348644d46f0efc28478264736f6c63430008070033",
  "linkReferences": {},
  "deployedLinkReferences": {}
}