{
  "_format": "hh-sol-artifact-1",
  "contractName": "LSP8CompatibleERC721InitTester",
  "sourceName": "contracts/Helpers/Tokens/LSP8CompatibleERC721TesterInit.sol",
  "abi": [
    {
      "inputs": [],
      "name": "LSP4TokenNameNotEditable",
      "type": "error"
    },
    {
      "inputs": [],
      "name": "LSP4TokenSymbolNotEditable",
      "type": "error"
    },
    {
      "inputs": [],
      "name": "LSP8CannotSendToAddressZero",
      "type": "error"
    },
    {
      "inputs": [],
      "name": "LSP8CannotUseAddressZeroAsOperator",
      "type": "error"
    },
    {
      "inputs": [],
      "name": "LSP8InvalidTransferBatch",
      "type": "error"
    },
    {
      "inputs": [
        {
          "internalType": "bytes32",
          "name": "tokenId",
          "type": "bytes32"
        }
      ],
      "name": "LSP8NonExistentTokenId",
      "type": "error"
    },
    {
      "inputs": [
        {
          "internalType": "bytes32",
          "name": "tokenId",
          "type": "bytes32"
        },
        {
          "internalType": "address",
          "name": "caller",
          "type": "address"
        }
      ],
      "name": "LSP8NotTokenOperator",
      "type": "error"
    },
    {
      "inputs": [
        {
          "internalType": "address",
          "name": "tokenOwner",
          "type": "address"
        },
        {
          "internalType": "bytes32",
          "name": "tokenId",
          "type": "bytes32"
        },
        {
          "internalType": "address",
          "name": "caller",
          "type": "address"
        }
      ],
      "name": "LSP8NotTokenOwner",
      "type": "error"
    },
    {
      "inputs": [
        {
          "internalType": "address",
          "name": "tokenReceiver",
          "type": "address"
        }
      ],
      "name": "LSP8NotifyTokenReceiverContractMissingLSP1Interface",
      "type": "error"
    },
    {
      "inputs": [
        {
          "internalType": "address",
          "name": "tokenReceiver",
          "type": "address"
        }
      ],
      "name": "LSP8NotifyTokenReceiverIsEOA",
      "type": "error"
    },
    {
      "inputs": [
        {
          "internalType": "bytes32",
          "name": "tokenId",
          "type": "bytes32"
        }
      ],
      "name": "LSP8TokenIdAlreadyMinted",
      "type": "error"
    },
    {
      "anonymous": false,
      "inputs": [
        {
          "indexed": true,
          "internalType": "address",
          "name": "owner",
          "type": "address"
        },
        {
          "indexed": true,
          "internalType": "address",
          "name": "approved",
          "type": "address"
        },
        {
          "indexed": true,
          "internalType": "uint256",
          "name": "tokenId",
          "type": "uint256"
        }
      ],
      "name": "Approval",
      "type": "event"
    },
    {
      "anonymous": false,
      "inputs": [
        {
          "indexed": true,
          "internalType": "address",
          "name": "operator",
          "type": "address"
        },
        {
          "indexed": true,
          "internalType": "address",
          "name": "tokenOwner",
          "type": "address"
        },
        {
          "indexed": true,
          "internalType": "bytes32",
          "name": "tokenId",
          "type": "bytes32"
        }
      ],
      "name": "AuthorizedOperator",
      "type": "event"
    },
    {
      "anonymous": false,
      "inputs": [
        {
          "indexed": true,
          "internalType": "bytes32",
          "name": "dataKey",
          "type": "bytes32"
        }
      ],
      "name": "DataChanged",
      "type": "event"
    },
    {
      "anonymous": false,
      "inputs": [
        {
          "indexed": false,
          "internalType": "uint8",
          "name": "version",
          "type": "uint8"
        }
      ],
      "name": "Initialized",
      "type": "event"
    },
    {
      "anonymous": false,
      "inputs": [
        {
          "indexed": true,
          "internalType": "address",
          "name": "previousOwner",
          "type": "address"
        },
        {
          "indexed": true,
          "internalType": "address",
          "name": "newOwner",
          "type": "address"
        }
      ],
      "name": "OwnershipTransferred",
      "type": "event"
    },
    {
      "anonymous": false,
      "inputs": [
        {
          "indexed": true,
          "internalType": "address",
          "name": "operator",
          "type": "address"
        },
        {
          "indexed": true,
          "internalType": "address",
          "name": "tokenOwner",
          "type": "address"
        },
        {
          "indexed": true,
          "internalType": "bytes32",
          "name": "tokenId",
          "type": "bytes32"
        }
      ],
      "name": "RevokedOperator",
      "type": "event"
    },
    {
      "anonymous": false,
      "inputs": [
        {
          "indexed": true,
          "internalType": "address",
          "name": "from",
          "type": "address"
        },
        {
          "indexed": true,
          "internalType": "address",
          "name": "to",
          "type": "address"
        },
        {
          "indexed": true,
          "internalType": "uint256",
          "name": "tokenId",
          "type": "uint256"
        }
      ],
      "name": "Transfer",
      "type": "event"
    },
    {
      "anonymous": false,
      "inputs": [
        {
          "indexed": false,
          "internalType": "address",
          "name": "operator",
          "type": "address"
        },
        {
          "indexed": true,
          "internalType": "address",
          "name": "from",
          "type": "address"
        },
        {
          "indexed": true,
          "internalType": "address",
          "name": "to",
          "type": "address"
        },
        {
          "indexed": true,
          "internalType": "bytes32",
          "name": "tokenId",
          "type": "bytes32"
        },
        {
          "indexed": false,
          "internalType": "bool",
          "name": "force",
          "type": "bool"
        },
        {
          "indexed": false,
          "internalType": "bytes",
          "name": "data",
          "type": "bytes"
        }
      ],
      "name": "Transfer",
      "type": "event"
    },
    {
      "inputs": [
        {
          "internalType": "address",
          "name": "operator",
          "type": "address"
        },
        {
          "internalType": "uint256",
          "name": "tokenId",
          "type": "uint256"
        }
      ],
      "name": "approve",
      "outputs": [],
      "stateMutability": "nonpayable",
      "type": "function"
    },
    {
      "inputs": [
        {
          "internalType": "address",
          "name": "operator",
          "type": "address"
        },
        {
          "internalType": "bytes32",
          "name": "tokenId",
          "type": "bytes32"
        }
      ],
      "name": "authorizeOperator",
      "outputs": [],
      "stateMutability": "nonpayable",
      "type": "function"
    },
    {
      "inputs": [
        {
          "internalType": "address",
          "name": "tokenOwner",
          "type": "address"
        }
      ],
      "name": "balanceOf",
      "outputs": [
        {
          "internalType": "uint256",
          "name": "",
          "type": "uint256"
        }
      ],
      "stateMutability": "view",
      "type": "function"
    },
    {
      "inputs": [
        {
          "internalType": "uint256",
          "name": "tokenId",
          "type": "uint256"
        },
        {
          "internalType": "bytes",
          "name": "data",
          "type": "bytes"
        }
      ],
      "name": "burn",
      "outputs": [],
      "stateMutability": "nonpayable",
      "type": "function"
    },
    {
      "inputs": [
        {
          "internalType": "uint256",
          "name": "tokenId",
          "type": "uint256"
        }
      ],
      "name": "getApproved",
      "outputs": [
        {
          "internalType": "address",
          "name": "",
          "type": "address"
        }
      ],
      "stateMutability": "view",
      "type": "function"
    },
    {
      "inputs": [
        {
          "internalType": "bytes32[]",
          "name": "dataKeys",
          "type": "bytes32[]"
        }
      ],
      "name": "getData",
      "outputs": [
        {
          "internalType": "bytes[]",
          "name": "dataValues",
          "type": "bytes[]"
        }
      ],
      "stateMutability": "view",
      "type": "function"
    },
    {
      "inputs": [
        {
          "internalType": "bytes32",
          "name": "dataKey",
          "type": "bytes32"
        }
      ],
      "name": "getData",
      "outputs": [
        {
          "internalType": "bytes",
          "name": "dataValue",
          "type": "bytes"
        }
      ],
      "stateMutability": "view",
      "type": "function"
    },
    {
      "inputs": [
        {
          "internalType": "bytes32",
          "name": "tokenId",
          "type": "bytes32"
        }
      ],
      "name": "getOperatorsOf",
      "outputs": [
        {
          "internalType": "address[]",
          "name": "",
          "type": "address[]"
        }
      ],
      "stateMutability": "view",
      "type": "function"
    },
    {
      "inputs": [
        {
          "internalType": "string",
          "name": "name",
          "type": "string"
        },
        {
          "internalType": "string",
          "name": "symbol",
          "type": "string"
        },
        {
          "internalType": "address",
          "name": "newOwner",
          "type": "address"
        },
        {
          "internalType": "bytes",
          "name": "tokenURIValue",
          "type": "bytes"
        }
      ],
      "name": "initialize",
      "outputs": [],
      "stateMutability": "nonpayable",
      "type": "function"
    },
    {
      "inputs": [],
      "name": "initialized",
      "outputs": [
        {
          "internalType": "uint8",
          "name": "",
          "type": "uint8"
        }
      ],
      "stateMutability": "view",
      "type": "function"
    },
    {
      "inputs": [],
      "name": "initializing",
      "outputs": [
        {
          "internalType": "bool",
          "name": "",
          "type": "bool"
        }
      ],
      "stateMutability": "view",
      "type": "function"
    },
    {
      "inputs": [
        {
          "internalType": "address",
          "name": "tokenOwner",
          "type": "address"
        },
        {
          "internalType": "address",
          "name": "operator",
          "type": "address"
        }
      ],
      "name": "isApprovedForAll",
      "outputs": [
        {
          "internalType": "bool",
          "name": "",
          "type": "bool"
        }
      ],
      "stateMutability": "view",
      "type": "function"
    },
    {
      "inputs": [
        {
          "internalType": "address",
          "name": "operator",
          "type": "address"
        },
        {
          "internalType": "bytes32",
          "name": "tokenId",
          "type": "bytes32"
        }
      ],
      "name": "isOperatorFor",
      "outputs": [
        {
          "internalType": "bool",
          "name": "",
          "type": "bool"
        }
      ],
      "stateMutability": "view",
      "type": "function"
    },
    {
      "inputs": [
        {
          "internalType": "address",
          "name": "to",
          "type": "address"
        },
        {
          "internalType": "uint256",
          "name": "tokenId",
          "type": "uint256"
        },
        {
          "internalType": "bytes",
          "name": "data",
          "type": "bytes"
        }
      ],
      "name": "mint",
      "outputs": [],
      "stateMutability": "nonpayable",
      "type": "function"
    },
    {
      "inputs": [],
      "name": "name",
      "outputs": [
        {
          "internalType": "string",
          "name": "",
          "type": "string"
        }
      ],
      "stateMutability": "view",
      "type": "function"
    },
    {
      "inputs": [],
      "name": "owner",
      "outputs": [
        {
          "internalType": "address",
          "name": "",
          "type": "address"
        }
      ],
      "stateMutability": "view",
      "type": "function"
    },
    {
      "inputs": [
        {
          "internalType": "uint256",
          "name": "tokenId",
          "type": "uint256"
        }
      ],
      "name": "ownerOf",
      "outputs": [
        {
          "internalType": "address",
          "name": "",
          "type": "address"
        }
      ],
      "stateMutability": "view",
      "type": "function"
    },
    {
      "inputs": [],
      "name": "renounceOwnership",
      "outputs": [],
      "stateMutability": "nonpayable",
      "type": "function"
    },
    {
      "inputs": [
        {
          "internalType": "address",
          "name": "operator",
          "type": "address"
        },
        {
          "internalType": "bytes32",
          "name": "tokenId",
          "type": "bytes32"
        }
      ],
      "name": "revokeOperator",
      "outputs": [],
      "stateMutability": "nonpayable",
      "type": "function"
    },
    {
      "inputs": [
        {
          "internalType": "address",
          "name": "from",
          "type": "address"
        },
        {
          "internalType": "address",
          "name": "to",
          "type": "address"
        },
        {
          "internalType": "uint256",
          "name": "tokenId",
          "type": "uint256"
        }
      ],
      "name": "safeTransferFrom",
      "outputs": [],
      "stateMutability": "nonpayable",
      "type": "function"
    },
    {
      "inputs": [
        {
          "internalType": "address",
          "name": "from",
          "type": "address"
        },
        {
          "internalType": "address",
          "name": "to",
          "type": "address"
        },
        {
          "internalType": "uint256",
          "name": "tokenId",
          "type": "uint256"
        },
        {
          "internalType": "bytes",
          "name": "data",
          "type": "bytes"
        }
      ],
      "name": "safeTransferFrom",
      "outputs": [],
      "stateMutability": "nonpayable",
      "type": "function"
    },
    {
      "inputs": [
        {
          "internalType": "bytes32[]",
          "name": "dataKeys",
          "type": "bytes32[]"
        },
        {
          "internalType": "bytes[]",
          "name": "dataValues",
          "type": "bytes[]"
        }
      ],
      "name": "setData",
      "outputs": [],
      "stateMutability": "nonpayable",
      "type": "function"
    },
    {
      "inputs": [
        {
          "internalType": "bytes32",
          "name": "dataKey",
          "type": "bytes32"
        },
        {
          "internalType": "bytes",
          "name": "dataValue",
          "type": "bytes"
        }
      ],
      "name": "setData",
      "outputs": [],
      "stateMutability": "nonpayable",
      "type": "function"
    },
    {
      "inputs": [
        {
          "internalType": "bytes4",
          "name": "interfaceId",
          "type": "bytes4"
        }
      ],
      "name": "supportsInterface",
      "outputs": [
        {
          "internalType": "bool",
          "name": "",
          "type": "bool"
        }
      ],
      "stateMutability": "view",
      "type": "function"
    },
    {
      "inputs": [],
      "name": "symbol",
      "outputs": [
        {
          "internalType": "string",
          "name": "",
          "type": "string"
        }
      ],
      "stateMutability": "view",
      "type": "function"
    },
    {
      "inputs": [
        {
          "internalType": "address",
          "name": "tokenOwner",
          "type": "address"
        }
      ],
      "name": "tokenIdsOf",
      "outputs": [
        {
          "internalType": "bytes32[]",
          "name": "",
          "type": "bytes32[]"
        }
      ],
      "stateMutability": "view",
      "type": "function"
    },
    {
      "inputs": [
        {
          "internalType": "bytes32",
          "name": "tokenId",
          "type": "bytes32"
        }
      ],
      "name": "tokenOwnerOf",
      "outputs": [
        {
          "internalType": "address",
          "name": "",
          "type": "address"
        }
      ],
      "stateMutability": "view",
      "type": "function"
    },
    {
      "inputs": [
        {
          "internalType": "uint256",
          "name": "tokenId",
          "type": "uint256"
        }
      ],
      "name": "tokenURI",
      "outputs": [
        {
          "internalType": "string",
          "name": "",
          "type": "string"
        }
      ],
      "stateMutability": "view",
      "type": "function"
    },
    {
      "inputs": [],
      "name": "totalSupply",
      "outputs": [
        {
          "internalType": "uint256",
          "name": "",
          "type": "uint256"
        }
      ],
      "stateMutability": "view",
      "type": "function"
    },
    {
      "inputs": [
        {
          "internalType": "address",
          "name": "from",
          "type": "address"
        },
        {
          "internalType": "address",
          "name": "to",
          "type": "address"
        },
        {
          "internalType": "bytes32",
          "name": "tokenId",
          "type": "bytes32"
        },
        {
          "internalType": "bool",
          "name": "force",
          "type": "bool"
        },
        {
          "internalType": "bytes",
          "name": "data",
          "type": "bytes"
        }
      ],
      "name": "transfer",
      "outputs": [],
      "stateMutability": "nonpayable",
      "type": "function"
    },
    {
      "inputs": [
        {
          "internalType": "address[]",
          "name": "from",
          "type": "address[]"
        },
        {
          "internalType": "address[]",
          "name": "to",
          "type": "address[]"
        },
        {
          "internalType": "bytes32[]",
          "name": "tokenId",
          "type": "bytes32[]"
        },
        {
          "internalType": "bool",
          "name": "force",
          "type": "bool"
        },
        {
          "internalType": "bytes[]",
          "name": "data",
          "type": "bytes[]"
        }
      ],
      "name": "transferBatch",
      "outputs": [],
      "stateMutability": "nonpayable",
      "type": "function"
    },
    {
      "inputs": [
        {
          "internalType": "address",
          "name": "from",
          "type": "address"
        },
        {
          "internalType": "address",
          "name": "to",
          "type": "address"
        },
        {
          "internalType": "uint256",
          "name": "tokenId",
          "type": "uint256"
        }
      ],
      "name": "transferFrom",
      "outputs": [],
      "stateMutability": "nonpayable",
      "type": "function"
    },
    {
      "inputs": [
        {
          "internalType": "address",
          "name": "newOwner",
          "type": "address"
        }
      ],
      "name": "transferOwnership",
      "outputs": [],
      "stateMutability": "nonpayable",
      "type": "function"
    }
  ],
  "bytecode": "0x608060405234801561001057600080fd5b50612e2a806100206000396000f3fe608060405234801561001057600080fd5b506004361061020b5760003560e01c8063511b69521161012a57806394d008ef116100bd578063c87b56dd1161008c578063e985e9c511610071578063e985e9c51461048e578063f2fde38b146104a4578063fe9d9303146104b757600080fd5b8063c87b56dd14610468578063cf5182ba1461047b57600080fd5b806394d008ef1461041a57806395d89b411461042d578063a3b261f214610435578063b88d4fde1461045557600080fd5b806370a08231116100f957806370a08231146103d5578063715018a6146103e85780637f23690c146103f05780638da5cb5b1461040357600080fd5b8063511b69521461038957806354f6127f1461039c57806355908868146103af5780636352211e146103c257600080fd5b80631eb40e21116101a25780632a3654a4116101715780632a3654a41461032357806342842e0e1461033657806349a6078d146103495780634e3e6e9c1461036957600080fd5b80631eb40e21146102da578063217b2270146102ed57806323b872dd146103005780632599f1591461031357600080fd5b80630b0c6d82116101de5780630b0c6d821461028d57806314a6e293146102a0578063158ef93e146102b357806318160ddd146102c857600080fd5b806301ffc9a71461021057806306fdde0314610238578063081812fc1461024d578063095ea7b314610278575b600080fd5b61022361021e366004612918565b6104ca565b60405190151581526020015b60405180910390f35b610240610542565b60405161022f9190612c61565b61026061025b3660046128c2565b61056f565b6040516001600160a01b03909116815260200161022f565b61028b6102863660046126f4565b6105c3565b005b61028b61029b3660046126f4565b61061a565b61028b6102ae36600461285e565b6106c8565b60005460405160ff909116815260200161022f565b6002545b60405190815260200161022f565b61028b6102e83660046129b0565b61079c565b6102606102fb3660046128c2565b610842565b61028b61030e366004612650565b61087b565b600054610100900460ff16610223565b6102236103313660046126f4565b61089b565b61028b610344366004612650565b6108b7565b61035c6103573660046128c2565b6108d7565b60405161022f9190612b61565b61037c610377366004612829565b6108f9565b60405161022f9190612be6565b61028b6103973660046125d7565b6109ad565b6102406103aa3660046128c2565b610a15565b61028b6103bd366004612778565b610a20565b6102606103d03660046128c2565b610b06565b6102cc6103e3366004612589565b610b11565b61028b610b32565b61028b6103fe3660046128db565b610b46565b6000546201000090046001600160a01b0316610260565b61028b61042836600461271e565b610b5c565b610240610ba2565b610448610443366004612589565b610bcf565b60405161022f9190612bae565b61028b61046336600461268c565b610bf3565b6102406104763660046128c2565b610c01565b61028b6104893660046126f4565b610c4f565b61022361049c3660046125a4565b600092915050565b61028b6104b2366004612589565b610c59565b61028b6104c5366004612a56565b610ce9565b60006001600160e01b031982167f80ac58cd00000000000000000000000000000000000000000000000000000000148061052d57506001600160e01b031982167f5b5e139f00000000000000000000000000000000000000000000000000000000145b8061053c575061053c82610d2c565b92915050565b6060600061053c7fdeba1e292f8ba88238e10ab3c7f88bd4be4fac56cad5194b6ecceaf653468af1610d6a565b60008161057b81610e0c565b60008181526005602052604081209061059382610e44565b9050806105a557506000949350505050565b6105ba6105b3600183612d09565b8390610e4e565b95945050505050565b6105cd8282610c4f565b806001600160a01b0383166105e182610842565b6001600160a01b03167f8c5be1e5ebec7d5bd14f71427d1e84f3dd0314c0f7b2291e5b200ac8c7c3b92560405160405180910390a45050565b600061062582610842565b9050336001600160a01b038216811461067057604051632d938f5160e11b81526001600160a01b03808416600483015260248201859052821660448201526064015b60405180910390fd5b6001600160a01b03841661069757604051639577b8b360e01b815260040160405180910390fd5b836001600160a01b0316826001600160a01b031614156106b75750505050565b6106c2848385610e5a565b50505050565b6106d0610eb9565b80518251146107475760405162461bcd60e51b815260206004820152602660248201527f4b657973206c656e677468206e6f7420657175616c20746f2076616c7565732060448201527f6c656e67746800000000000000000000000000000000000000000000000000006064820152608401610667565b60005b82518110156107975761078f83828151811061076857610768612dc8565b602002602001015183838151811061078257610782612dc8565b6020026020010151610f1a565b60010161074a565b505050565b60006107a86001610f24565b905080156107c0576000805461ff0019166101001790555b6107cb85858561105d565b6107f57f9afb95cacc9f95858ec44aa8c3b685511002e30ae54415823f406128b85b238e83610f1a565b801561083b576000805461ff0019169055604051600181527f7f26b83ff96e1f2b6a682f133852f6798a09c465da95921460cefb38474024989060200160405180910390a15b5050505050565b6000818152600360205260408120546001600160a01b03168061053c57604051635747cd1b60e11b815260048101849052602401610667565b61079783838360001b6001604051806020016040528060008152506109ad565b60006108a682610e0c565b6108b083836110d3565b9392505050565b61079783838360001b6000604051806020016040528060008152506109ad565b60606108e282610e0c565b600082815260056020526040902061053c9061111c565b6060815167ffffffffffffffff81111561091557610915612dde565b60405190808252806020026020018201604052801561094857816020015b60608152602001906001900390816109335790505b50905060005b82518110156109a75761097983828151811061096c5761096c612dc8565b6020026020010151610d6a565b82828151811061098b5761098b612dc8565b60200260200101819052506109a08160010190565b905061094e565b50919050565b336109b881856110d3565b610a00576040517f1294d2a9000000000000000000000000000000000000000000000000000000008152600481018590526001600160a01b0382166024820152604401610667565b610a0d8686868686611129565b505050505050565b606061053c82610d6a565b83518551141580610a3357508251855114155b80610a4057508051855114155b15610a77576040517f93a8311900000000000000000000000000000000000000000000000000000000815260040160405180910390fd5b60005b8551811015610a0d57610af4868281518110610a9857610a98612dc8565b6020026020010151868381518110610ab257610ab2612dc8565b6020026020010151868481518110610acc57610acc612dc8565b602002602001015186868681518110610ae757610ae7612dc8565b60200260200101516109ad565b80610afe81612d81565b915050610a7a565b600061053c82610842565b6001600160a01b038116600090815260046020526040812061053c90610e44565b610b3a610eb9565b610b446000611136565b565b610b4e610eb9565b610b588282610f1a565b5050565b6106c2848460001b600185858080601f0160208091040260200160405190810160405280939291908181526020018383808284376000920191909152506111c292505050565b6060600061053c7f2f0a68ab07768e01943a599e73362a0e17a63a72e94dd2e384d2c1d4db932756610d6a565b6001600160a01b038116600090815260046020526040902060609061053c906111ce565b6106c28484846000856109ad565b60606000610c2e7f9afb95cacc9f95858ec44aa8c3b685511002e30ae54415823f406128b85b238e610d6a565b905060006024905060006105ba8383848651610c4a9190612d09565b6111d9565b610b588282611301565b610c61610eb9565b6001600160a01b038116610cdd5760405162461bcd60e51b815260206004820152602660248201527f4f776e61626c653a206e6577206f776e657220697320746865207a65726f206160448201527f64647265737300000000000000000000000000000000000000000000000000006064820152608401610667565b610ce681611136565b50565b6107978360001b83838080601f01602080910402602001604051908101604052809392919081815260200183838082843760009201919091525061134c92505050565b60006001600160e01b031982167f4939914500000000000000000000000000000000000000000000000000000000148061053c575061053c82611356565b6000818152600160205260409020805460609190610d8790612d4c565b80601f0160208091040260200160405190810160405280929190818152602001828054610db390612d4c565b8015610e005780601f10610dd557610100808354040283529160200191610e00565b820191906000526020600020905b815481529060010190602001808311610de357829003601f168201915b50505050509050919050565b6000818152600360205260409020546001600160a01b0316610ce657604051635747cd1b60e11b815260048101829052602401610667565b600061053c825490565b60006108b083836113a4565b6000818152600560205260409020610e7290846113ce565b5080826001600160a01b0316846001600160a01b03167f17d5389f6ab6adb2647dfa0aa365c323d37adacc30b33a65310b6158ce1373d560405160405180910390a4505050565b6000546001600160a01b0362010000909104163314610b445760405162461bcd60e51b815260206004820181905260248201527f4f776e61626c653a2063616c6c6572206973206e6f7420746865206f776e65726044820152606401610667565b610b5882826113e3565b60008054610100900460ff1615610fc1578160ff166001148015610f475750303b155b610fb95760405162461bcd60e51b815260206004820152602e60248201527f496e697469616c697a61626c653a20636f6e747261637420697320616c72656160448201527f647920696e697469616c697a65640000000000000000000000000000000000006064820152608401610667565b506000919050565b60005460ff80841691161061103e5760405162461bcd60e51b815260206004820152602e60248201527f496e697469616c697a61626c653a20636f6e747261637420697320616c72656160448201527f647920696e697469616c697a65640000000000000000000000000000000000006064820152608401610667565b506000805460ff191660ff92909216919091179055600190565b919050565b600054610100900460ff166110c85760405162461bcd60e51b815260206004820152602b60248201527f496e697469616c697a61626c653a20636f6e7472616374206973206e6f74206960448201526a6e697469616c697a696e6760a81b6064820152608401610667565b6107978383836114a1565b6000806110df83610842565b9050806001600160a01b0316846001600160a01b03161480611114575060008381526005602052604090206111149085611517565b949350505050565b606060006108b083611539565b61083b8585858585611594565b6000546001600160a01b03828116620100009092041614610ce657600080546001600160a01b03838116620100008181027fffffffffffffffffffff0000000000000000000000000000000000000000ffff851617855560405193049190911692909183917f8be0079c531659141344cd1fd0a4f28419497f9722a3daafe3b4186f6b6457e091a35050565b6106c284848484611616565b606061053c82611539565b6060816111e781601f612cf1565b10156112355760405162461bcd60e51b815260206004820152600e60248201527f736c6963655f6f766572666c6f770000000000000000000000000000000000006044820152606401610667565b61123f8284612cf1565b8451101561128f5760405162461bcd60e51b815260206004820152601160248201527f736c6963655f6f75744f66426f756e64730000000000000000000000000000006044820152606401610667565b6060821580156112ae57604051915060008252602082016040526112f8565b6040519150601f8416801560200281840101858101878315602002848b0101015b818310156112e75780518352602092830192016112cf565b5050858452601f01601f1916604052505b50949350505050565b61130b828261168c565b6040805160208101839052016040516020818303038152906040528060200190518101906113399190612a3d565b826001600160a01b03166105e183610842565b610b588282611784565b60006001600160e01b031982167f714df77c00000000000000000000000000000000000000000000000000000000148061053c57506301ffc9a760e01b6001600160e01b031983161461053c565b60008260000182815481106113bb576113bb612dc8565b9060005260206000200154905092915050565b60006108b0836001600160a01b038416611804565b7fdeba1e292f8ba88238e10ab3c7f88bd4be4fac56cad5194b6ecceaf653468af182141561143d576040517f85c169bd00000000000000000000000000000000000000000000000000000000815260040160405180910390fd5b7f2f0a68ab07768e01943a599e73362a0e17a63a72e94dd2e384d2c1d4db932756821415611497576040517f76755b3800000000000000000000000000000000000000000000000000000000815260040160405180910390fd5b610b5882826118f7565b600054610100900460ff1661150c5760405162461bcd60e51b815260206004820152602b60248201527f496e697469616c697a61626c653a20636f6e7472616374206973206e6f74206960448201526a6e697469616c697a696e6760a81b6064820152608401610667565b610797838383611946565b6001600160a01b038116600090815260018301602052604081205415156108b0565b606081600001805480602002602001604051908101604052809291908181526020018280548015610e0057602002820191906000526020600020905b8154815260200190600101908083116115755750505050509050919050565b6115a18585858585611a70565b6040805160208101859052016040516020818303038152906040528060200190518101906115cf9190612a3d565b846001600160a01b0316866001600160a01b03167fddf252ad1be2c89b69c2b068fc378daa952ba7f163c4a11628f55a4df523b3ef60405160405180910390a45050505050565b61162284848484611be9565b6040805160208101859052016040516020818303038152906040528060200190518101906116509190612a3d565b6040516001600160a01b038616906000907fddf252ad1be2c89b69c2b068fc378daa952ba7f163c4a11628f55a4df523b3ef908290a450505050565b600061169782610842565b9050336001600160a01b03821681146116dd57604051632d938f5160e11b81526001600160a01b0380841660048301526024820185905282166044820152606401610667565b6001600160a01b03841661170457604051639577b8b360e01b815260040160405180910390fd5b836001600160a01b0316826001600160a01b031614156117245750505050565b600083815260056020526040902061173c9085611d16565b5082826001600160a01b0316856001600160a01b03167f34b797fc5a526f7bf1d2b5de25f6564fd85ae364e3ee939aee7c1ac27871a98860405160405180910390a450505050565b600061178f83610842565b905061179b8383611d2b565b6040805160208101859052016040516020818303038152906040528060200190518101906117c99190612a3d565b6040516000906001600160a01b038416907fddf252ad1be2c89b69c2b068fc378daa952ba7f163c4a11628f55a4df523b3ef908390a4505050565b600081815260018301602052604081205480156118ed576000611828600183612d09565b855490915060009061183c90600190612d09565b90508181146118a157600086600001828154811061185c5761185c612dc8565b906000526020600020015490508087600001848154811061187f5761187f612dc8565b6000918252602080832090910192909255918252600188019052604090208390555b85548690806118b2576118b2612db2565b60019003818190600052602060002001600090559055856001016000868152602001908152602001600020600090556001935050505061053c565b600091505061053c565b60008281526001602090815260409091208251611916928401906122c4565b5060405182907fcdf4e344c0d23d4cdd0474039d176c55b19d531070dbe17856bfb993a5b5720b90600090a25050565b600054610100900460ff166119b15760405162461bcd60e51b815260206004820152602b60248201527f496e697469616c697a61626c653a20636f6e7472616374206973206e6f74206960448201526a6e697469616c697a696e6760a81b6064820152608401610667565b6119ba81611df1565b611a1c7feafec4d89fa9619884b60000a4d96624a38f7ac2d8d9a604ecf07c12c77e480c60001b6040518060400160405280600481526020017fa4d96624000000000000000000000000000000000000000000000000000000008152506118f7565b611a467fdeba1e292f8ba88238e10ab3c7f88bd4be4fac56cad5194b6ecceaf653468af1846118f7565b6107977f2f0a68ab07768e01943a599e73362a0e17a63a72e94dd2e384d2c1d4db932756836118f7565b6000611a7b84610842565b9050856001600160a01b0316816001600160a01b031614611ac957604051632d938f5160e11b81526001600160a01b0380831660048301526024820186905287166044820152606401610667565b6001600160a01b038516611af0576040516324ecef4d60e01b815260040160405180910390fd5b33611afc878787611e5c565b611b068786611eae565b6001600160a01b0387166000908152600460205260409020611b289086611eff565b506001600160a01b0386166000908152600460205260409020611b4b9086611f0b565b5060008581526003602052604090819020805473ffffffffffffffffffffffffffffffffffffffff19166001600160a01b0389811691821790925591518792918a16907fb333c813a7426a7a11e2b190cad52c44119421594b47f6f32ace6d8c7207b2bf90611bbf9086908a908a90612b37565b60405180910390a4611bd387878786611f17565b611be08787878787611ffa565b50505050505050565b6001600160a01b038416611c10576040516324ecef4d60e01b815260040160405180910390fd5b6000838152600360205260409020546001600160a01b031615611c62576040517f34c7b51100000000000000000000000000000000000000000000000000000000815260048101849052602401610667565b33611c6f60008686611e5c565b6001600160a01b0385166000908152600460205260409020611c919085611f0b565b50600084815260036020526040808220805473ffffffffffffffffffffffffffffffffffffffff19166001600160a01b03891690811790915590518692907fb333c813a7426a7a11e2b190cad52c44119421594b47f6f32ace6d8c7207b2bf90611d0090869089908990612b37565b60405180910390a461083b600086868686611ffa565b60006108b0836001600160a01b038416612173565b6000611d3683610842565b905033611d4582600086611e5c565b611d4f8285611eae565b6001600160a01b0382166000908152600460205260409020611d719085611eff565b50600084815260036020526040808220805473ffffffffffffffffffffffffffffffffffffffff19169055518591906001600160a01b038516907fb333c813a7426a7a11e2b190cad52c44119421594b47f6f32ace6d8c7207b2bf90611ddc90869085908a90612b37565b60405180910390a46106c28260008686611f17565b600054610100900460ff16610cdd5760405162461bcd60e51b815260206004820152602b60248201527f496e697469616c697a61626c653a20636f6e7472616374206973206e6f74206960448201526a6e697469616c697a696e6760a81b6064820152608401610667565b6001600160a01b038316611e8357600160026000828254611e7d9190612cf1565b90915550505b6001600160a01b03821661079757600160026000828254611ea49190612d09565b9091555050505050565b600081815260056020526040812090611ec682610e44565b905060005b8181101561083b576000611edf8482610e4e565b9050611eec818787610e5a565b5080611ef781612d81565b915050611ecb565b60006108b08383611804565b60006108b08383612173565b611f2884631aed5a8560e21b6121c2565b156106c257600084848484604051602001611f469493929190612ace565b60408051601f1981840301815290829052631aed5a8560e21b825291506001600160a01b03861690636bb56a1490611fa4907f3724c94f0815e936299cca424da4140752198e0beb7931a6e0925d11bc97544c908590600401612c48565b600060405180830381600087803b158015611fbe57600080fd5b505af1158015611fd2573d6000803e3d6000fd5b505050506040513d6000823e601f3d908101601f19168201604052610a0d9190810190612942565b61200b84631aed5a8560e21b6121c2565b156120e4576000858585846040516020016120299493929190612ace565b60408051601f1981840301815290829052631aed5a8560e21b825291506001600160a01b03861690636bb56a1490612087907fc7a120a42b6057a0cbed111fbbfbd52fcd96748c04394f77fc2c3adbe0391e01908590600401612c48565b600060405180830381600087803b1580156120a157600080fd5b505af11580156120b5573d6000803e3d6000fd5b505050506040513d6000823e601f3d908101601f191682016040526120dd9190810190612942565b505061083b565b8161083b576001600160a01b0384163b15612136576040517f4349776d0000000000000000000000000000000000000000000000000000000081526001600160a01b0385166004820152602401610667565b6040517f031731370000000000000000000000000000000000000000000000000000000081526001600160a01b0385166004820152602401610667565b60008181526001830160205260408120546121ba5750815460018181018455600084815260208082209093018490558454848252828601909352604090209190915561053c565b50600061053c565b604080516001600160e01b0319831660248083019190915282518083039091018152604490910182526020810180517bffffffffffffffffffffffffffffffffffffffffffffffffffffffff166301ffc9a760e01b179052905160009190829081906001600160a01b038716906175309061223e908690612b1b565b6000604051808303818686fa925050503d806000811461227a576040519150601f19603f3d011682016040523d82523d6000602084013e61227f565b606091505b509150915060208151101561229a576000935050505061053c565b8180156122ba57506000818060200190518101906122b89190612a3d565b115b9695505050505050565b8280546122d090612d4c565b90600052602060002090601f0160209004810192826122f25760008555612338565b82601f1061230b57805160ff1916838001178555612338565b82800160010185558215612338579182015b8281111561233857825182559160200191906001019061231d565b50612344929150612348565b5090565b5b808211156123445760008155600101612349565b80356001600160a01b038116811461105857600080fd5b600082601f83011261238557600080fd5b8135602061239a61239583612ca5565b612c74565b80838252828201915082860187848660051b89010111156123ba57600080fd5b60005b858110156123e0576123ce8261235d565b845292840192908401906001016123bd565b5090979650505050505050565b600082601f8301126123fe57600080fd5b8135602061240e61239583612ca5565b80838252828201915082860187848660051b890101111561242e57600080fd5b60005b858110156123e057813584529284019290840190600101612431565b600082601f83011261245e57600080fd5b8135602061246e61239583612ca5565b80838252828201915082860187848660051b890101111561248e57600080fd5b6000805b868110156124d157823567ffffffffffffffff8111156124b0578283fd5b6124be8b88838d0101612538565b8652509385019391850191600101612492565b509198975050505050505050565b8035801515811461105857600080fd5b60008083601f84011261250157600080fd5b50813567ffffffffffffffff81111561251957600080fd5b60208301915083602082850101111561253157600080fd5b9250929050565b600082601f83011261254957600080fd5b813561255761239582612cc9565b81815284602083860101111561256c57600080fd5b816020850160208301376000918101602001919091529392505050565b60006020828403121561259b57600080fd5b6108b08261235d565b600080604083850312156125b757600080fd5b6125c08361235d565b91506125ce6020840161235d565b90509250929050565b600080600080600060a086880312156125ef57600080fd5b6125f88661235d565b94506126066020870161235d565b93506040860135925061261b606087016124df565b9150608086013567ffffffffffffffff81111561263757600080fd5b61264388828901612538565b9150509295509295909350565b60008060006060848603121561266557600080fd5b61266e8461235d565b925061267c6020850161235d565b9150604084013590509250925092565b600080600080608085870312156126a257600080fd5b6126ab8561235d565b93506126b96020860161235d565b925060408501359150606085013567ffffffffffffffff8111156126dc57600080fd5b6126e887828801612538565b91505092959194509250565b6000806040838503121561270757600080fd5b6127108361235d565b946020939093013593505050565b6000806000806060858703121561273457600080fd5b61273d8561235d565b935060208501359250604085013567ffffffffffffffff81111561276057600080fd5b61276c878288016124ef565b95989497509550505050565b600080600080600060a0868803121561279057600080fd5b853567ffffffffffffffff808211156127a857600080fd5b6127b489838a01612374565b965060208801359150808211156127ca57600080fd5b6127d689838a01612374565b955060408801359150808211156127ec57600080fd5b6127f889838a016123ed565b9450612806606089016124df565b9350608088013591508082111561281c57600080fd5b506126438882890161244d565b60006020828403121561283b57600080fd5b813567ffffffffffffffff81111561285257600080fd5b611114848285016123ed565b6000806040838503121561287157600080fd5b823567ffffffffffffffff8082111561288957600080fd5b612895868387016123ed565b935060208501359150808211156128ab57600080fd5b506128b88582860161244d565b9150509250929050565b6000602082840312156128d457600080fd5b5035919050565b600080604083850312156128ee57600080fd5b82359150602083013567ffffffffffffffff81111561290c57600080fd5b6128b885828601612538565b60006020828403121561292a57600080fd5b81356001600160e01b0319811681146108b057600080fd5b60006020828403121561295457600080fd5b815167ffffffffffffffff81111561296b57600080fd5b8201601f8101841361297c57600080fd5b805161298a61239582612cc9565b81815285602083850101111561299f57600080fd5b6105ba826020830160208601612d20565b600080600080608085870312156129c657600080fd5b843567ffffffffffffffff808211156129de57600080fd5b6129ea88838901612538565b95506020870135915080821115612a0057600080fd5b612a0c88838901612538565b9450612a1a6040880161235d565b93506060870135915080821115612a3057600080fd5b506126e887828801612538565b600060208284031215612a4f57600080fd5b5051919050565b600080600060408486031215612a6b57600080fd5b83359250602084013567ffffffffffffffff811115612a8957600080fd5b612a95868287016124ef565b9497909650939450505050565b60008151808452612aba816020860160208601612d20565b601f01601f19169290920160200192915050565b60006bffffffffffffffffffffffff19808760601b168352808660601b166014840152508360288301528251612b0b816048850160208701612d20565b9190910160480195945050505050565b60008251612b2d818460208701612d20565b9190910192915050565b6001600160a01b038416815282151560208201526060604082015260006105ba6060830184612aa2565b6020808252825182820181905260009190848201906040850190845b81811015612ba25783516001600160a01b031683529284019291840191600101612b7d565b50909695505050505050565b6020808252825182820181905260009190848201906040850190845b81811015612ba257835183529284019291840191600101612bca565b6000602080830181845280855180835260408601915060408160051b870101925083870160005b82811015612c3b57603f19888603018452612c29858351612aa2565b94509285019290850190600101612c0d565b5092979650505050505050565b8281526040602082015260006111146040830184612aa2565b6020815260006108b06020830184612aa2565b604051601f8201601f1916810167ffffffffffffffff81118282101715612c9d57612c9d612dde565b604052919050565b600067ffffffffffffffff821115612cbf57612cbf612dde565b5060051b60200190565b600067ffffffffffffffff821115612ce357612ce3612dde565b50601f01601f191660200190565b60008219821115612d0457612d04612d9c565b500190565b600082821015612d1b57612d1b612d9c565b500390565b60005b83811015612d3b578181015183820152602001612d23565b838111156106c25750506000910152565b600181811c90821680612d6057607f821691505b602082108114156109a757634e487b7160e01b600052602260045260246000fd5b6000600019821415612d9557612d95612d9c565b5060010190565b634e487b7160e01b600052601160045260246000fd5b634e487b7160e01b600052603160045260246000fd5b634e487b7160e01b600052603260045260246000fd5b634e487b7160e01b600052604160045260246000fdfea2646970667358221220dc79b27cee97b73f6a444d230a987d793a2d42716b1da25dcac3d1807811419964736f6c63430008070033",
  "linkReferences": {},
  "deployedLinkReferences": {}
}