{
  "_format": "hh-sol-artifact-1",
  "contractName": "LSP8CompatibleERC721InitAbstract",
  "sourceName": "contracts/LSP8IdentifiableDigitalAsset/extensions/LSP8CompatibleERC721InitAbstract.sol",
  "abi": [
    {
      "inputs": [],
      "name": "LSP4TokenNameNotEditable",
      "type": "error"
    },
    {
      "inputs": [],
      "name": "LSP4TokenSymbolNotEditable",
      "type": "error"
    },
    {
      "inputs": [],
      "name": "LSP8CannotSendToAddressZero",
      "type": "error"
    },
    {
      "inputs": [],
      "name": "LSP8CannotUseAddressZeroAsOperator",
      "type": "error"
    },
    {
      "inputs": [],
      "name": "LSP8InvalidTransferBatch",
      "type": "error"
    },
    {
      "inputs": [
        {
          "internalType": "bytes32",
          "name": "tokenId",
          "type": "bytes32"
        }
      ],
      "name": "LSP8NonExistentTokenId",
      "type": "error"
    },
    {
      "inputs": [
        {
          "internalType": "bytes32",
          "name": "tokenId",
          "type": "bytes32"
        },
        {
          "internalType": "address",
          "name": "caller",
          "type": "address"
        }
      ],
      "name": "LSP8NotTokenOperator",
      "type": "error"
    },
    {
      "inputs": [
        {
          "internalType": "address",
          "name": "tokenOwner",
          "type": "address"
        },
        {
          "internalType": "bytes32",
          "name": "tokenId",
          "type": "bytes32"
        },
        {
          "internalType": "address",
          "name": "caller",
          "type": "address"
        }
      ],
      "name": "LSP8NotTokenOwner",
      "type": "error"
    },
    {
      "inputs": [
        {
          "internalType": "address",
          "name": "tokenReceiver",
          "type": "address"
        }
      ],
      "name": "LSP8NotifyTokenReceiverContractMissingLSP1Interface",
      "type": "error"
    },
    {
      "inputs": [
        {
          "internalType": "address",
          "name": "tokenReceiver",
          "type": "address"
        }
      ],
      "name": "LSP8NotifyTokenReceiverIsEOA",
      "type": "error"
    },
    {
      "anonymous": false,
      "inputs": [
        {
          "indexed": true,
          "internalType": "address",
          "name": "owner",
          "type": "address"
        },
        {
          "indexed": true,
          "internalType": "address",
          "name": "approved",
          "type": "address"
        },
        {
          "indexed": true,
          "internalType": "uint256",
          "name": "tokenId",
          "type": "uint256"
        }
      ],
      "name": "Approval",
      "type": "event"
    },
    {
      "anonymous": false,
      "inputs": [
        {
          "indexed": true,
          "internalType": "address",
          "name": "operator",
          "type": "address"
        },
        {
          "indexed": true,
          "internalType": "address",
          "name": "tokenOwner",
          "type": "address"
        },
        {
          "indexed": true,
          "internalType": "bytes32",
          "name": "tokenId",
          "type": "bytes32"
        }
      ],
      "name": "AuthorizedOperator",
      "type": "event"
    },
    {
      "anonymous": false,
      "inputs": [
        {
          "indexed": true,
          "internalType": "bytes32",
          "name": "dataKey",
          "type": "bytes32"
        }
      ],
      "name": "DataChanged",
      "type": "event"
    },
    {
      "anonymous": false,
      "inputs": [
        {
          "indexed": false,
          "internalType": "uint8",
          "name": "version",
          "type": "uint8"
        }
      ],
      "name": "Initialized",
      "type": "event"
    },
    {
      "anonymous": false,
      "inputs": [
        {
          "indexed": true,
          "internalType": "address",
          "name": "previousOwner",
          "type": "address"
        },
        {
          "indexed": true,
          "internalType": "address",
          "name": "newOwner",
          "type": "address"
        }
      ],
      "name": "OwnershipTransferred",
      "type": "event"
    },
    {
      "anonymous": false,
      "inputs": [
        {
          "indexed": true,
          "internalType": "address",
          "name": "operator",
          "type": "address"
        },
        {
          "indexed": true,
          "internalType": "address",
          "name": "tokenOwner",
          "type": "address"
        },
        {
          "indexed": true,
          "internalType": "bytes32",
          "name": "tokenId",
          "type": "bytes32"
        }
      ],
      "name": "RevokedOperator",
      "type": "event"
    },
    {
      "anonymous": false,
      "inputs": [
        {
          "indexed": true,
          "internalType": "address",
          "name": "from",
          "type": "address"
        },
        {
          "indexed": true,
          "internalType": "address",
          "name": "to",
          "type": "address"
        },
        {
          "indexed": true,
          "internalType": "uint256",
          "name": "tokenId",
          "type": "uint256"
        }
      ],
      "name": "Transfer",
      "type": "event"
    },
    {
      "anonymous": false,
      "inputs": [
        {
          "indexed": false,
          "internalType": "address",
          "name": "operator",
          "type": "address"
        },
        {
          "indexed": true,
          "internalType": "address",
          "name": "from",
          "type": "address"
        },
        {
          "indexed": true,
          "internalType": "address",
          "name": "to",
          "type": "address"
        },
        {
          "indexed": true,
          "internalType": "bytes32",
          "name": "tokenId",
          "type": "bytes32"
        },
        {
          "indexed": false,
          "internalType": "bool",
          "name": "force",
          "type": "bool"
        },
        {
          "indexed": false,
          "internalType": "bytes",
          "name": "data",
          "type": "bytes"
        }
      ],
      "name": "Transfer",
      "type": "event"
    },
    {
      "inputs": [
        {
          "internalType": "address",
          "name": "operator",
          "type": "address"
        },
        {
          "internalType": "uint256",
          "name": "tokenId",
          "type": "uint256"
        }
      ],
      "name": "approve",
      "outputs": [],
      "stateMutability": "nonpayable",
      "type": "function"
    },
    {
      "inputs": [
        {
          "internalType": "address",
          "name": "operator",
          "type": "address"
        },
        {
          "internalType": "bytes32",
          "name": "tokenId",
          "type": "bytes32"
        }
      ],
      "name": "authorizeOperator",
      "outputs": [],
      "stateMutability": "nonpayable",
      "type": "function"
    },
    {
      "inputs": [
        {
          "internalType": "address",
          "name": "tokenOwner",
          "type": "address"
        }
      ],
      "name": "balanceOf",
      "outputs": [
        {
          "internalType": "uint256",
          "name": "",
          "type": "uint256"
        }
      ],
      "stateMutability": "view",
      "type": "function"
    },
    {
      "inputs": [
        {
          "internalType": "uint256",
          "name": "tokenId",
          "type": "uint256"
        }
      ],
      "name": "getApproved",
      "outputs": [
        {
          "internalType": "address",
          "name": "",
          "type": "address"
        }
      ],
      "stateMutability": "view",
      "type": "function"
    },
    {
      "inputs": [
        {
          "internalType": "bytes32[]",
          "name": "dataKeys",
          "type": "bytes32[]"
        }
      ],
      "name": "getData",
      "outputs": [
        {
          "internalType": "bytes[]",
          "name": "dataValues",
          "type": "bytes[]"
        }
      ],
      "stateMutability": "view",
      "type": "function"
    },
    {
      "inputs": [
        {
          "internalType": "bytes32",
          "name": "dataKey",
          "type": "bytes32"
        }
      ],
      "name": "getData",
      "outputs": [
        {
          "internalType": "bytes",
          "name": "dataValue",
          "type": "bytes"
        }
      ],
      "stateMutability": "view",
      "type": "function"
    },
    {
      "inputs": [
        {
          "internalType": "bytes32",
          "name": "tokenId",
          "type": "bytes32"
        }
      ],
      "name": "getOperatorsOf",
      "outputs": [
        {
          "internalType": "address[]",
          "name": "",
          "type": "address[]"
        }
      ],
      "stateMutability": "view",
      "type": "function"
    },
    {
      "inputs": [],
      "name": "initialized",
      "outputs": [
        {
          "internalType": "uint8",
          "name": "",
          "type": "uint8"
        }
      ],
      "stateMutability": "view",
      "type": "function"
    },
    {
      "inputs": [],
      "name": "initializing",
      "outputs": [
        {
          "internalType": "bool",
          "name": "",
          "type": "bool"
        }
      ],
      "stateMutability": "view",
      "type": "function"
    },
    {
      "inputs": [
        {
          "internalType": "address",
          "name": "tokenOwner",
          "type": "address"
        },
        {
          "internalType": "address",
          "name": "operator",
          "type": "address"
        }
      ],
      "name": "isApprovedForAll",
      "outputs": [
        {
          "internalType": "bool",
          "name": "",
          "type": "bool"
        }
      ],
      "stateMutability": "view",
      "type": "function"
    },
    {
      "inputs": [
        {
          "internalType": "address",
          "name": "operator",
          "type": "address"
        },
        {
          "internalType": "bytes32",
          "name": "tokenId",
          "type": "bytes32"
        }
      ],
      "name": "isOperatorFor",
      "outputs": [
        {
          "internalType": "bool",
          "name": "",
          "type": "bool"
        }
      ],
      "stateMutability": "view",
      "type": "function"
    },
    {
      "inputs": [],
      "name": "name",
      "outputs": [
        {
          "internalType": "string",
          "name": "",
          "type": "string"
        }
      ],
      "stateMutability": "view",
      "type": "function"
    },
    {
      "inputs": [],
      "name": "owner",
      "outputs": [
        {
          "internalType": "address",
          "name": "",
          "type": "address"
        }
      ],
      "stateMutability": "view",
      "type": "function"
    },
    {
      "inputs": [
        {
          "internalType": "uint256",
          "name": "tokenId",
          "type": "uint256"
        }
      ],
      "name": "ownerOf",
      "outputs": [
        {
          "internalType": "address",
          "name": "",
          "type": "address"
        }
      ],
      "stateMutability": "view",
      "type": "function"
    },
    {
      "inputs": [],
      "name": "renounceOwnership",
      "outputs": [],
      "stateMutability": "nonpayable",
      "type": "function"
    },
    {
      "inputs": [
        {
          "internalType": "address",
          "name": "operator",
          "type": "address"
        },
        {
          "internalType": "bytes32",
          "name": "tokenId",
          "type": "bytes32"
        }
      ],
      "name": "revokeOperator",
      "outputs": [],
      "stateMutability": "nonpayable",
      "type": "function"
    },
    {
      "inputs": [
        {
          "internalType": "address",
          "name": "from",
          "type": "address"
        },
        {
          "internalType": "address",
          "name": "to",
          "type": "address"
        },
        {
          "internalType": "uint256",
          "name": "tokenId",
          "type": "uint256"
        }
      ],
      "name": "safeTransferFrom",
      "outputs": [],
      "stateMutability": "nonpayable",
      "type": "function"
    },
    {
      "inputs": [
        {
          "internalType": "address",
          "name": "from",
          "type": "address"
        },
        {
          "internalType": "address",
          "name": "to",
          "type": "address"
        },
        {
          "internalType": "uint256",
          "name": "tokenId",
          "type": "uint256"
        },
        {
          "internalType": "bytes",
          "name": "data",
          "type": "bytes"
        }
      ],
      "name": "safeTransferFrom",
      "outputs": [],
      "stateMutability": "nonpayable",
      "type": "function"
    },
    {
      "inputs": [
        {
          "internalType": "bytes32[]",
          "name": "dataKeys",
          "type": "bytes32[]"
        },
        {
          "internalType": "bytes[]",
          "name": "dataValues",
          "type": "bytes[]"
        }
      ],
      "name": "setData",
      "outputs": [],
      "stateMutability": "nonpayable",
      "type": "function"
    },
    {
      "inputs": [
        {
          "internalType": "bytes32",
          "name": "dataKey",
          "type": "bytes32"
        },
        {
          "internalType": "bytes",
          "name": "dataValue",
          "type": "bytes"
        }
      ],
      "name": "setData",
      "outputs": [],
      "stateMutability": "nonpayable",
      "type": "function"
    },
    {
      "inputs": [
        {
          "internalType": "bytes4",
          "name": "interfaceId",
          "type": "bytes4"
        }
      ],
      "name": "supportsInterface",
      "outputs": [
        {
          "internalType": "bool",
          "name": "",
          "type": "bool"
        }
      ],
      "stateMutability": "view",
      "type": "function"
    },
    {
      "inputs": [],
      "name": "symbol",
      "outputs": [
        {
          "internalType": "string",
          "name": "",
          "type": "string"
        }
      ],
      "stateMutability": "view",
      "type": "function"
    },
    {
      "inputs": [
        {
          "internalType": "address",
          "name": "tokenOwner",
          "type": "address"
        }
      ],
      "name": "tokenIdsOf",
      "outputs": [
        {
          "internalType": "bytes32[]",
          "name": "",
          "type": "bytes32[]"
        }
      ],
      "stateMutability": "view",
      "type": "function"
    },
    {
      "inputs": [
        {
          "internalType": "bytes32",
          "name": "tokenId",
          "type": "bytes32"
        }
      ],
      "name": "tokenOwnerOf",
      "outputs": [
        {
          "internalType": "address",
          "name": "",
          "type": "address"
        }
      ],
      "stateMutability": "view",
      "type": "function"
    },
    {
      "inputs": [
        {
          "internalType": "uint256",
          "name": "tokenId",
          "type": "uint256"
        }
      ],
      "name": "tokenURI",
      "outputs": [
        {
          "internalType": "string",
          "name": "",
          "type": "string"
        }
      ],
      "stateMutability": "view",
      "type": "function"
    },
    {
      "inputs": [],
      "name": "totalSupply",
      "outputs": [
        {
          "internalType": "uint256",
          "name": "",
          "type": "uint256"
        }
      ],
      "stateMutability": "view",
      "type": "function"
    },
    {
      "inputs": [
        {
          "internalType": "address",
          "name": "from",
          "type": "address"
        },
        {
          "internalType": "address",
          "name": "to",
          "type": "address"
        },
        {
          "internalType": "bytes32",
          "name": "tokenId",
          "type": "bytes32"
        },
        {
          "internalType": "bool",
          "name": "force",
          "type": "bool"
        },
        {
          "internalType": "bytes",
          "name": "data",
          "type": "bytes"
        }
      ],
      "name": "transfer",
      "outputs": [],
      "stateMutability": "nonpayable",
      "type": "function"
    },
    {
      "inputs": [
        {
          "internalType": "address[]",
          "name": "from",
          "type": "address[]"
        },
        {
          "internalType": "address[]",
          "name": "to",
          "type": "address[]"
        },
        {
          "internalType": "bytes32[]",
          "name": "tokenId",
          "type": "bytes32[]"
        },
        {
          "internalType": "bool",
          "name": "force",
          "type": "bool"
        },
        {
          "internalType": "bytes[]",
          "name": "data",
          "type": "bytes[]"
        }
      ],
      "name": "transferBatch",
      "outputs": [],
      "stateMutability": "nonpayable",
      "type": "function"
    },
    {
      "inputs": [
        {
          "internalType": "address",
          "name": "from",
          "type": "address"
        },
        {
          "internalType": "address",
          "name": "to",
          "type": "address"
        },
        {
          "internalType": "uint256",
          "name": "tokenId",
          "type": "uint256"
        }
      ],
      "name": "transferFrom",
      "outputs": [],
      "stateMutability": "nonpayable",
      "type": "function"
    },
    {
      "inputs": [
        {
          "internalType": "address",
          "name": "newOwner",
          "type": "address"
        }
      ],
      "name": "transferOwnership",
      "outputs": [],
      "stateMutability": "nonpayable",
      "type": "function"
    }
  ],
  "bytecode": "0x608060405234801561001057600080fd5b5061248c806100206000396000f3fe608060405234801561001057600080fd5b50600436106101da5760003560e01c8063511b6952116101045780638da5cb5b116100a2578063c87b56dd11610071578063c87b56dd14610411578063cf5182ba14610424578063e985e9c514610437578063f2fde38b1461044d57600080fd5b80638da5cb5b146103bf57806395d89b41146103d6578063a3b261f2146103de578063b88d4fde146103fe57600080fd5b80636352211e116100de5780636352211e1461037e57806370a0823114610391578063715018a6146103a45780637f23690c146103ac57600080fd5b8063511b69521461034557806354f6127f14610358578063559088681461036b57600080fd5b806318160ddd1161017c5780632a3654a41161014b5780632a3654a4146102df57806342842e0e146102f257806349a6078d146103055780634e3e6e9c1461032557600080fd5b806318160ddd14610297578063217b2270146102a957806323b872dd146102bc5780632599f159146102cf57600080fd5b8063095ea7b3116101b8578063095ea7b3146102475780630b0c6d821461025c57806314a6e2931461026f578063158ef93e1461028257600080fd5b806301ffc9a7146101df57806306fdde0314610207578063081812fc1461021c575b600080fd5b6101f26101ed366004612053565b610460565b60405190151581526020015b60405180910390f35b61020f6104d8565b6040516101fe91906122c3565b61022f61022a366004611ffd565b610505565b6040516001600160a01b0390911681526020016101fe565b61025a610255366004611e89565b610559565b005b61025a61026a366004611e89565b6105b0565b61025a61027d366004611f99565b61065e565b60005460405160ff90911681526020016101fe565b6002545b6040519081526020016101fe565b61022f6102b7366004611ffd565b610732565b61025a6102ca366004611de5565b61076b565b600054610100900460ff166101f2565b6101f26102ed366004611e89565b61078b565b61025a610300366004611de5565b6107a7565b610318610313366004611ffd565b6107c7565b6040516101fe91906121c3565b610338610333366004611f64565b6107e9565b6040516101fe9190612248565b61025a610353366004611d6c565b61089d565b61020f610366366004611ffd565b610905565b61025a610379366004611eb3565b610910565b61022f61038c366004611ffd565b6109f6565b61029b61039f366004611d1e565b610a01565b61025a610a22565b61025a6103ba366004612016565b610a36565b6000546201000090046001600160a01b031661022f565b61020f610a4c565b6103f16103ec366004611d1e565b610a79565b6040516101fe9190612210565b61025a61040c366004611e21565b610a9d565b61020f61041f366004611ffd565b610aab565b61025a610432366004611e89565b610af9565b6101f2610445366004611d39565b600092915050565b61025a61045b366004611d1e565b610b03565b60006001600160e01b031982167f80ac58cd0000000000000000000000000000000000000000000000000000000014806104c357506001600160e01b031982167f5b5e139f00000000000000000000000000000000000000000000000000000000145b806104d257506104d282610b93565b92915050565b606060006104d27fdeba1e292f8ba88238e10ab3c7f88bd4be4fac56cad5194b6ecceaf653468af1610bd1565b60008161051181610c73565b60008181526005602052604081209061052982610cab565b90508061053b57506000949350505050565b61055061054960018361236b565b8390610cb5565b95945050505050565b6105638282610af9565b806001600160a01b03831661057782610732565b6001600160a01b03167f8c5be1e5ebec7d5bd14f71427d1e84f3dd0314c0f7b2291e5b200ac8c7c3b92560405160405180910390a45050565b60006105bb82610732565b9050336001600160a01b038216811461060657604051632d938f5160e11b81526001600160a01b03808416600483015260248201859052821660448201526064015b60405180910390fd5b6001600160a01b03841661062d57604051639577b8b360e01b815260040160405180910390fd5b836001600160a01b0316826001600160a01b0316141561064d5750505050565b610658848385610cc1565b50505050565b610666610d20565b80518251146106dd5760405162461bcd60e51b815260206004820152602660248201527f4b657973206c656e677468206e6f7420657175616c20746f2076616c7565732060448201527f6c656e677468000000000000000000000000000000000000000000000000000060648201526084016105fd565b60005b825181101561072d576107258382815181106106fe576106fe61242a565b60200260200101518383815181106107185761071861242a565b6020026020010151610d81565b6001016106e0565b505050565b6000818152600360205260408120546001600160a01b0316806104d257604051635747cd1b60e11b8152600481018490526024016105fd565b61072d83838360001b60016040518060200160405280600081525061089d565b600061079682610c73565b6107a08383610d8b565b9392505050565b61072d83838360001b60006040518060200160405280600081525061089d565b60606107d282610c73565b60008281526005602052604090206104d290610dd4565b6060815167ffffffffffffffff81111561080557610805612440565b60405190808252806020026020018201604052801561083857816020015b60608152602001906001900390816108235790505b50905060005b82518110156108975761086983828151811061085c5761085c61242a565b6020026020010151610bd1565b82828151811061087b5761087b61242a565b60200260200101819052506108908160010190565b905061083e565b50919050565b336108a88185610d8b565b6108f0576040517f1294d2a9000000000000000000000000000000000000000000000000000000008152600481018590526001600160a01b03821660248201526044016105fd565b6108fd8686868686610de1565b505050505050565b60606104d282610bd1565b8351855114158061092357508251855114155b8061093057508051855114155b15610967576040517f93a8311900000000000000000000000000000000000000000000000000000000815260040160405180910390fd5b60005b85518110156108fd576109e48682815181106109885761098861242a565b60200260200101518683815181106109a2576109a261242a565b60200260200101518684815181106109bc576109bc61242a565b6020026020010151868686815181106109d7576109d761242a565b602002602001015161089d565b806109ee816123e3565b91505061096a565b60006104d282610732565b6001600160a01b03811660009081526004602052604081206104d290610cab565b610a2a610d20565b610a346000610df5565b565b610a3e610d20565b610a488282610d81565b5050565b606060006104d27f2f0a68ab07768e01943a599e73362a0e17a63a72e94dd2e384d2c1d4db932756610bd1565b6001600160a01b03811660009081526004602052604090206060906104d290610e81565b61065884848460008561089d565b60606000610ad87f9afb95cacc9f95858ec44aa8c3b685511002e30ae54415823f406128b85b238e610bd1565b905060006024905060006105508383848651610af4919061236b565b610e8c565b610a488282610fb4565b610b0b610d20565b6001600160a01b038116610b875760405162461bcd60e51b815260206004820152602660248201527f4f776e61626c653a206e6577206f776e657220697320746865207a65726f206160448201527f646472657373000000000000000000000000000000000000000000000000000060648201526084016105fd565b610b9081610df5565b50565b60006001600160e01b031982167f493991450000000000000000000000000000000000000000000000000000000014806104d257506104d282610fff565b6000818152600160205260409020805460609190610bee906123ae565b80601f0160208091040260200160405190810160405280929190818152602001828054610c1a906123ae565b8015610c675780601f10610c3c57610100808354040283529160200191610c67565b820191906000526020600020905b815481529060010190602001808311610c4a57829003601f168201915b50505050509050919050565b6000818152600360205260409020546001600160a01b0316610b9057604051635747cd1b60e11b8152600481018290526024016105fd565b60006104d2825490565b60006107a0838361104d565b6000818152600560205260409020610cd99084611077565b5080826001600160a01b0316846001600160a01b03167f17d5389f6ab6adb2647dfa0aa365c323d37adacc30b33a65310b6158ce1373d560405160405180910390a4505050565b6000546001600160a01b0362010000909104163314610a345760405162461bcd60e51b815260206004820181905260248201527f4f776e61626c653a2063616c6c6572206973206e6f7420746865206f776e657260448201526064016105fd565b610a48828261108c565b600080610d9783610732565b9050806001600160a01b0316846001600160a01b03161480610dcc57506000838152600560205260409020610dcc908561114a565b949350505050565b606060006107a08361116c565b610dee85858585856111c7565b5050505050565b6000546001600160a01b03828116620100009092041614610b9057600080546001600160a01b03838116620100008181027fffffffffffffffffffff0000000000000000000000000000000000000000ffff851617855560405193049190911692909183917f8be0079c531659141344cd1fd0a4f28419497f9722a3daafe3b4186f6b6457e091a35050565b60606104d28261116c565b606081610e9a81601f612353565b1015610ee85760405162461bcd60e51b815260206004820152600e60248201527f736c6963655f6f766572666c6f7700000000000000000000000000000000000060448201526064016105fd565b610ef28284612353565b84511015610f425760405162461bcd60e51b815260206004820152601160248201527f736c6963655f6f75744f66426f756e647300000000000000000000000000000060448201526064016105fd565b606082158015610f615760405191506000825260208201604052610fab565b6040519150601f8416801560200281840101858101878315602002848b0101015b81831015610f9a578051835260209283019201610f82565b5050858452601f01601f1916604052505b50949350505050565b610fbe8282611249565b604080516020810183905201604051602081830303815290604052806020019051810190610fec91906120eb565b826001600160a01b031661057783610732565b60006001600160e01b031982167f714df77c0000000000000000000000000000000000000000000000000000000014806104d257506301ffc9a760e01b6001600160e01b03198316146104d2565b60008260000182815481106110645761106461242a565b9060005260206000200154905092915050565b60006107a0836001600160a01b038416611341565b7fdeba1e292f8ba88238e10ab3c7f88bd4be4fac56cad5194b6ecceaf653468af18214156110e6576040517f85c169bd00000000000000000000000000000000000000000000000000000000815260040160405180910390fd5b7f2f0a68ab07768e01943a599e73362a0e17a63a72e94dd2e384d2c1d4db932756821415611140576040517f76755b3800000000000000000000000000000000000000000000000000000000815260040160405180910390fd5b610a488282611434565b6001600160a01b038116600090815260018301602052604081205415156107a0565b606081600001805480602002602001604051908101604052809291908181526020018280548015610c6757602002820191906000526020600020905b8154815260200190600101908083116111a85750505050509050919050565b6111d48585858585611483565b60408051602081018590520160405160208183030381529060405280602001905181019061120291906120eb565b846001600160a01b0316866001600160a01b03167fddf252ad1be2c89b69c2b068fc378daa952ba7f163c4a11628f55a4df523b3ef60405160405180910390a45050505050565b600061125482610732565b9050336001600160a01b038216811461129a57604051632d938f5160e11b81526001600160a01b03808416600483015260248201859052821660448201526064016105fd565b6001600160a01b0384166112c157604051639577b8b360e01b815260040160405180910390fd5b836001600160a01b0316826001600160a01b031614156112e15750505050565b60008381526005602052604090206112f99085611620565b5082826001600160a01b0316856001600160a01b03167f34b797fc5a526f7bf1d2b5de25f6564fd85ae364e3ee939aee7c1ac27871a98860405160405180910390a450505050565b6000818152600183016020526040812054801561142a57600061136560018361236b565b85549091506000906113799060019061236b565b90508181146113de5760008660000182815481106113995761139961242a565b90600052602060002001549050808760000184815481106113bc576113bc61242a565b6000918252602080832090910192909255918252600188019052604090208390555b85548690806113ef576113ef612414565b6001900381819060005260206000200160009055905585600101600086815260200190815260200160002060009055600193505050506104d2565b60009150506104d2565b6000828152600160209081526040909120825161145392840190611a9d565b5060405182907fcdf4e344c0d23d4cdd0474039d176c55b19d531070dbe17856bfb993a5b5720b90600090a25050565b600061148e84610732565b9050856001600160a01b0316816001600160a01b0316146114dc57604051632d938f5160e11b81526001600160a01b03808316600483015260248201869052871660448201526064016105fd565b6001600160a01b03851661151c576040517f24ecef4d00000000000000000000000000000000000000000000000000000000815260040160405180910390fd5b33611528878787611635565b6115328786611687565b6001600160a01b038716600090815260046020526040902061155490866116d8565b506001600160a01b038616600090815260046020526040902061157790866116e4565b506000858152600360205260409081902080547fffffffffffffffffffffffff0000000000000000000000000000000000000000166001600160a01b0389811691821790925591518792918a16907fb333c813a7426a7a11e2b190cad52c44119421594b47f6f32ace6d8c7207b2bf906115f69086908a908a90612199565b60405180910390a461160a878787866116f0565b61161787878787876117d3565b50505050505050565b60006107a0836001600160a01b03841661194c565b6001600160a01b03831661165c576001600260008282546116569190612353565b90915550505b6001600160a01b03821661072d5760016002600082825461167d919061236b565b9091555050505050565b60008181526005602052604081209061169f82610cab565b905060005b81811015610dee5760006116b88482610cb5565b90506116c5818787610cc1565b50806116d0816123e3565b9150506116a4565b60006107a08383611341565b60006107a0838361194c565b61170184631aed5a8560e21b61199b565b156106585760008484848460405160200161171f9493929190612130565b60408051601f1981840301815290829052631aed5a8560e21b825291506001600160a01b03861690636bb56a149061177d907f3724c94f0815e936299cca424da4140752198e0beb7931a6e0925d11bc97544c9085906004016122aa565b600060405180830381600087803b15801561179757600080fd5b505af11580156117ab573d6000803e3d6000fd5b505050506040513d6000823e601f3d908101601f191682016040526108fd919081019061207d565b6117e484631aed5a8560e21b61199b565b156118bd576000858585846040516020016118029493929190612130565b60408051601f1981840301815290829052631aed5a8560e21b825291506001600160a01b03861690636bb56a1490611860907fc7a120a42b6057a0cbed111fbbfbd52fcd96748c04394f77fc2c3adbe0391e019085906004016122aa565b600060405180830381600087803b15801561187a57600080fd5b505af115801561188e573d6000803e3d6000fd5b505050506040513d6000823e601f3d908101601f191682016040526118b6919081019061207d565b5050610dee565b81610dee576001600160a01b0384163b1561190f576040517f4349776d0000000000000000000000000000000000000000000000000000000081526001600160a01b03851660048201526024016105fd565b6040517f031731370000000000000000000000000000000000000000000000000000000081526001600160a01b03851660048201526024016105fd565b6000818152600183016020526040812054611993575081546001818101845560008481526020808220909301849055845484825282860190935260409020919091556104d2565b5060006104d2565b604080516001600160e01b0319831660248083019190915282518083039091018152604490910182526020810180517bffffffffffffffffffffffffffffffffffffffffffffffffffffffff166301ffc9a760e01b179052905160009190829081906001600160a01b0387169061753090611a1790869061217d565b6000604051808303818686fa925050503d8060008114611a53576040519150601f19603f3d011682016040523d82523d6000602084013e611a58565b606091505b5091509150602081511015611a7357600093505050506104d2565b818015611a935750600081806020019051810190611a9191906120eb565b115b9695505050505050565b828054611aa9906123ae565b90600052602060002090601f016020900481019282611acb5760008555611b11565b82601f10611ae457805160ff1916838001178555611b11565b82800160010185558215611b11579182015b82811115611b11578251825591602001919060010190611af6565b50611b1d929150611b21565b5090565b5b80821115611b1d5760008155600101611b22565b80356001600160a01b0381168114611b4d57600080fd5b919050565b600082601f830112611b6357600080fd5b81356020611b78611b7383612307565b6122d6565b80838252828201915082860187848660051b8901011115611b9857600080fd5b60005b85811015611bbe57611bac82611b36565b84529284019290840190600101611b9b565b5090979650505050505050565b600082601f830112611bdc57600080fd5b81356020611bec611b7383612307565b80838252828201915082860187848660051b8901011115611c0c57600080fd5b60005b85811015611bbe57813584529284019290840190600101611c0f565b600082601f830112611c3c57600080fd5b81356020611c4c611b7383612307565b80838252828201915082860187848660051b8901011115611c6c57600080fd5b6000805b86811015611caf57823567ffffffffffffffff811115611c8e578283fd5b611c9c8b88838d0101611ccd565b8652509385019391850191600101611c70565b509198975050505050505050565b80358015158114611b4d57600080fd5b600082601f830112611cde57600080fd5b8135611cec611b738261232b565b818152846020838601011115611d0157600080fd5b816020850160208301376000918101602001919091529392505050565b600060208284031215611d3057600080fd5b6107a082611b36565b60008060408385031215611d4c57600080fd5b611d5583611b36565b9150611d6360208401611b36565b90509250929050565b600080600080600060a08688031215611d8457600080fd5b611d8d86611b36565b9450611d9b60208701611b36565b935060408601359250611db060608701611cbd565b9150608086013567ffffffffffffffff811115611dcc57600080fd5b611dd888828901611ccd565b9150509295509295909350565b600080600060608486031215611dfa57600080fd5b611e0384611b36565b9250611e1160208501611b36565b9150604084013590509250925092565b60008060008060808587031215611e3757600080fd5b611e4085611b36565b9350611e4e60208601611b36565b925060408501359150606085013567ffffffffffffffff811115611e7157600080fd5b611e7d87828801611ccd565b91505092959194509250565b60008060408385031215611e9c57600080fd5b611ea583611b36565b946020939093013593505050565b600080600080600060a08688031215611ecb57600080fd5b853567ffffffffffffffff80821115611ee357600080fd5b611eef89838a01611b52565b96506020880135915080821115611f0557600080fd5b611f1189838a01611b52565b95506040880135915080821115611f2757600080fd5b611f3389838a01611bcb565b9450611f4160608901611cbd565b93506080880135915080821115611f5757600080fd5b50611dd888828901611c2b565b600060208284031215611f7657600080fd5b813567ffffffffffffffff811115611f8d57600080fd5b610dcc84828501611bcb565b60008060408385031215611fac57600080fd5b823567ffffffffffffffff80821115611fc457600080fd5b611fd086838701611bcb565b93506020850135915080821115611fe657600080fd5b50611ff385828601611c2b565b9150509250929050565b60006020828403121561200f57600080fd5b5035919050565b6000806040838503121561202957600080fd5b82359150602083013567ffffffffffffffff81111561204757600080fd5b611ff385828601611ccd565b60006020828403121561206557600080fd5b81356001600160e01b0319811681146107a057600080fd5b60006020828403121561208f57600080fd5b815167ffffffffffffffff8111156120a657600080fd5b8201601f810184136120b757600080fd5b80516120c5611b738261232b565b8181528560208385010111156120da57600080fd5b610550826020830160208601612382565b6000602082840312156120fd57600080fd5b5051919050565b6000815180845261211c816020860160208601612382565b601f01601f19169290920160200192915050565b60006bffffffffffffffffffffffff19808760601b168352808660601b16601484015250836028830152825161216d816048850160208701612382565b9190910160480195945050505050565b6000825161218f818460208701612382565b9190910192915050565b6001600160a01b038416815282151560208201526060604082015260006105506060830184612104565b6020808252825182820181905260009190848201906040850190845b818110156122045783516001600160a01b0316835292840192918401916001016121df565b50909695505050505050565b6020808252825182820181905260009190848201906040850190845b818110156122045783518352928401929184019160010161222c565b6000602080830181845280855180835260408601915060408160051b870101925083870160005b8281101561229d57603f1988860301845261228b858351612104565b9450928501929085019060010161226f565b5092979650505050505050565b828152604060208201526000610dcc6040830184612104565b6020815260006107a06020830184612104565b604051601f8201601f1916810167ffffffffffffffff811182821017156122ff576122ff612440565b604052919050565b600067ffffffffffffffff82111561232157612321612440565b5060051b60200190565b600067ffffffffffffffff82111561234557612345612440565b50601f01601f191660200190565b60008219821115612366576123666123fe565b500190565b60008282101561237d5761237d6123fe565b500390565b60005b8381101561239d578181015183820152602001612385565b838111156106585750506000910152565b600181811c908216806123c257607f821691505b6020821081141561089757634e487b7160e01b600052602260045260246000fd5b60006000198214156123f7576123f76123fe565b5060010190565b634e487b7160e01b600052601160045260246000fd5b634e487b7160e01b600052603160045260246000fd5b634e487b7160e01b600052603260045260246000fd5b634e487b7160e01b600052604160045260246000fdfea26469706673582212202c94df84aad8128150435c038c230ea4fa47c7024d00f8daed68e2e9d411643864736f6c63430008070033",
  "linkReferences": {},
  "deployedLinkReferences": {}
}