{
  "_format": "hh-sol-artifact-1",
  "contractName": "LSP8EnumerableTester",
  "sourceName": "contracts/Helpers/Tokens/LSP8EnumerableTester.sol",
  "abi": [
    {
      "inputs": [
        {
          "internalType": "string",
          "name": "name",
          "type": "string"
        },
        {
          "internalType": "string",
          "name": "symbol",
          "type": "string"
        },
        {
          "internalType": "address",
          "name": "newOwner",
          "type": "address"
        }
      ],
      "stateMutability": "nonpayable",
      "type": "constructor"
    },
    {
      "inputs": [],
      "name": "LSP4TokenNameNotEditable",
      "type": "error"
    },
    {
      "inputs": [],
      "name": "LSP4TokenSymbolNotEditable",
      "type": "error"
    },
    {
      "inputs": [],
      "name": "LSP8CannotSendToAddressZero",
      "type": "error"
    },
    {
      "inputs": [],
      "name": "LSP8CannotUseAddressZeroAsOperator",
      "type": "error"
    },
    {
      "inputs": [],
      "name": "LSP8InvalidTransferBatch",
      "type": "error"
    },
    {
      "inputs": [
        {
          "internalType": "bytes32",
          "name": "tokenId",
          "type": "bytes32"
        }
      ],
      "name": "LSP8NonExistentTokenId",
      "type": "error"
    },
    {
      "inputs": [
        {
          "internalType": "bytes32",
          "name": "tokenId",
          "type": "bytes32"
        },
        {
          "internalType": "address",
          "name": "caller",
          "type": "address"
        }
      ],
      "name": "LSP8NotTokenOperator",
      "type": "error"
    },
    {
      "inputs": [
        {
          "internalType": "address",
          "name": "tokenOwner",
          "type": "address"
        },
        {
          "internalType": "bytes32",
          "name": "tokenId",
          "type": "bytes32"
        },
        {
          "internalType": "address",
          "name": "caller",
          "type": "address"
        }
      ],
      "name": "LSP8NotTokenOwner",
      "type": "error"
    },
    {
      "inputs": [
        {
          "internalType": "address",
          "name": "tokenReceiver",
          "type": "address"
        }
      ],
      "name": "LSP8NotifyTokenReceiverContractMissingLSP1Interface",
      "type": "error"
    },
    {
      "inputs": [
        {
          "internalType": "address",
          "name": "tokenReceiver",
          "type": "address"
        }
      ],
      "name": "LSP8NotifyTokenReceiverIsEOA",
      "type": "error"
    },
    {
      "inputs": [
        {
          "internalType": "bytes32",
          "name": "tokenId",
          "type": "bytes32"
        }
      ],
      "name": "LSP8TokenIdAlreadyMinted",
      "type": "error"
    },
    {
      "anonymous": false,
      "inputs": [
        {
          "indexed": true,
          "internalType": "address",
          "name": "operator",
          "type": "address"
        },
        {
          "indexed": true,
          "internalType": "address",
          "name": "tokenOwner",
          "type": "address"
        },
        {
          "indexed": true,
          "internalType": "bytes32",
          "name": "tokenId",
          "type": "bytes32"
        }
      ],
      "name": "AuthorizedOperator",
      "type": "event"
    },
    {
      "anonymous": false,
      "inputs": [
        {
          "indexed": true,
          "internalType": "bytes32",
          "name": "dataKey",
          "type": "bytes32"
        }
      ],
      "name": "DataChanged",
      "type": "event"
    },
    {
      "anonymous": false,
      "inputs": [
        {
          "indexed": true,
          "internalType": "address",
          "name": "previousOwner",
          "type": "address"
        },
        {
          "indexed": true,
          "internalType": "address",
          "name": "newOwner",
          "type": "address"
        }
      ],
      "name": "OwnershipTransferred",
      "type": "event"
    },
    {
      "anonymous": false,
      "inputs": [
        {
          "indexed": true,
          "internalType": "address",
          "name": "operator",
          "type": "address"
        },
        {
          "indexed": true,
          "internalType": "address",
          "name": "tokenOwner",
          "type": "address"
        },
        {
          "indexed": true,
          "internalType": "bytes32",
          "name": "tokenId",
          "type": "bytes32"
        }
      ],
      "name": "RevokedOperator",
      "type": "event"
    },
    {
      "anonymous": false,
      "inputs": [
        {
          "indexed": false,
          "internalType": "address",
          "name": "operator",
          "type": "address"
        },
        {
          "indexed": true,
          "internalType": "address",
          "name": "from",
          "type": "address"
        },
        {
          "indexed": true,
          "internalType": "address",
          "name": "to",
          "type": "address"
        },
        {
          "indexed": true,
          "internalType": "bytes32",
          "name": "tokenId",
          "type": "bytes32"
        },
        {
          "indexed": false,
          "internalType": "bool",
          "name": "force",
          "type": "bool"
        },
        {
          "indexed": false,
          "internalType": "bytes",
          "name": "data",
          "type": "bytes"
        }
      ],
      "name": "Transfer",
      "type": "event"
    },
    {
      "inputs": [
        {
          "internalType": "address",
          "name": "operator",
          "type": "address"
        },
        {
          "internalType": "bytes32",
          "name": "tokenId",
          "type": "bytes32"
        }
      ],
      "name": "authorizeOperator",
      "outputs": [],
      "stateMutability": "nonpayable",
      "type": "function"
    },
    {
      "inputs": [
        {
          "internalType": "address",
          "name": "tokenOwner",
          "type": "address"
        }
      ],
      "name": "balanceOf",
      "outputs": [
        {
          "internalType": "uint256",
          "name": "",
          "type": "uint256"
        }
      ],
      "stateMutability": "view",
      "type": "function"
    },
    {
      "inputs": [
        {
          "internalType": "bytes32",
          "name": "tokenId",
          "type": "bytes32"
        }
      ],
      "name": "burn",
      "outputs": [],
      "stateMutability": "nonpayable",
      "type": "function"
    },
    {
      "inputs": [
        {
          "internalType": "bytes32[]",
          "name": "dataKeys",
          "type": "bytes32[]"
        }
      ],
      "name": "getData",
      "outputs": [
        {
          "internalType": "bytes[]",
          "name": "dataValues",
          "type": "bytes[]"
        }
      ],
      "stateMutability": "view",
      "type": "function"
    },
    {
      "inputs": [
        {
          "internalType": "bytes32",
          "name": "dataKey",
          "type": "bytes32"
        }
      ],
      "name": "getData",
      "outputs": [
        {
          "internalType": "bytes",
          "name": "dataValue",
          "type": "bytes"
        }
      ],
      "stateMutability": "view",
      "type": "function"
    },
    {
      "inputs": [
        {
          "internalType": "bytes32",
          "name": "tokenId",
          "type": "bytes32"
        }
      ],
      "name": "getOperatorsOf",
      "outputs": [
        {
          "internalType": "address[]",
          "name": "",
          "type": "address[]"
        }
      ],
      "stateMutability": "view",
      "type": "function"
    },
    {
      "inputs": [
        {
          "internalType": "address",
          "name": "operator",
          "type": "address"
        },
        {
          "internalType": "bytes32",
          "name": "tokenId",
          "type": "bytes32"
        }
      ],
      "name": "isOperatorFor",
      "outputs": [
        {
          "internalType": "bool",
          "name": "",
          "type": "bool"
        }
      ],
      "stateMutability": "view",
      "type": "function"
    },
    {
      "inputs": [
        {
          "internalType": "address",
          "name": "to",
          "type": "address"
        },
        {
          "internalType": "bytes32",
          "name": "tokenId",
          "type": "bytes32"
        }
      ],
      "name": "mint",
      "outputs": [],
      "stateMutability": "nonpayable",
      "type": "function"
    },
    {
      "inputs": [],
      "name": "owner",
      "outputs": [
        {
          "internalType": "address",
          "name": "",
          "type": "address"
        }
      ],
      "stateMutability": "view",
      "type": "function"
    },
    {
      "inputs": [],
      "name": "renounceOwnership",
      "outputs": [],
      "stateMutability": "nonpayable",
      "type": "function"
    },
    {
      "inputs": [
        {
          "internalType": "address",
          "name": "operator",
          "type": "address"
        },
        {
          "internalType": "bytes32",
          "name": "tokenId",
          "type": "bytes32"
        }
      ],
      "name": "revokeOperator",
      "outputs": [],
      "stateMutability": "nonpayable",
      "type": "function"
    },
    {
      "inputs": [
        {
          "internalType": "bytes32[]",
          "name": "dataKeys",
          "type": "bytes32[]"
        },
        {
          "internalType": "bytes[]",
          "name": "dataValues",
          "type": "bytes[]"
        }
      ],
      "name": "setData",
      "outputs": [],
      "stateMutability": "nonpayable",
      "type": "function"
    },
    {
      "inputs": [
        {
          "internalType": "bytes32",
          "name": "dataKey",
          "type": "bytes32"
        },
        {
          "internalType": "bytes",
          "name": "dataValue",
          "type": "bytes"
        }
      ],
      "name": "setData",
      "outputs": [],
      "stateMutability": "nonpayable",
      "type": "function"
    },
    {
      "inputs": [
        {
          "internalType": "bytes4",
          "name": "interfaceId",
          "type": "bytes4"
        }
      ],
      "name": "supportsInterface",
      "outputs": [
        {
          "internalType": "bool",
          "name": "",
          "type": "bool"
        }
      ],
      "stateMutability": "view",
      "type": "function"
    },
    {
      "inputs": [
        {
          "internalType": "uint256",
          "name": "index",
          "type": "uint256"
        }
      ],
      "name": "tokenAt",
      "outputs": [
        {
          "internalType": "bytes32",
          "name": "",
          "type": "bytes32"
        }
      ],
      "stateMutability": "view",
      "type": "function"
    },
    {
      "inputs": [
        {
          "internalType": "address",
          "name": "tokenOwner",
          "type": "address"
        }
      ],
      "name": "tokenIdsOf",
      "outputs": [
        {
          "internalType": "bytes32[]",
          "name": "",
          "type": "bytes32[]"
        }
      ],
      "stateMutability": "view",
      "type": "function"
    },
    {
      "inputs": [
        {
          "internalType": "bytes32",
          "name": "tokenId",
          "type": "bytes32"
        }
      ],
      "name": "tokenOwnerOf",
      "outputs": [
        {
          "internalType": "address",
          "name": "",
          "type": "address"
        }
      ],
      "stateMutability": "view",
      "type": "function"
    },
    {
      "inputs": [],
      "name": "totalSupply",
      "outputs": [
        {
          "internalType": "uint256",
          "name": "",
          "type": "uint256"
        }
      ],
      "stateMutability": "view",
      "type": "function"
    },
    {
      "inputs": [
        {
          "internalType": "address",
          "name": "from",
          "type": "address"
        },
        {
          "internalType": "address",
          "name": "to",
          "type": "address"
        },
        {
          "internalType": "bytes32",
          "name": "tokenId",
          "type": "bytes32"
        },
        {
          "internalType": "bool",
          "name": "force",
          "type": "bool"
        },
        {
          "internalType": "bytes",
          "name": "data",
          "type": "bytes"
        }
      ],
      "name": "transfer",
      "outputs": [],
      "stateMutability": "nonpayable",
      "type": "function"
    },
    {
      "inputs": [
        {
          "internalType": "address[]",
          "name": "from",
          "type": "address[]"
        },
        {
          "internalType": "address[]",
          "name": "to",
          "type": "address[]"
        },
        {
          "internalType": "bytes32[]",
          "name": "tokenId",
          "type": "bytes32[]"
        },
        {
          "internalType": "bool",
          "name": "force",
          "type": "bool"
        },
        {
          "internalType": "bytes[]",
          "name": "data",
          "type": "bytes[]"
        }
      ],
      "name": "transferBatch",
      "outputs": [],
      "stateMutability": "nonpayable",
      "type": "function"
    },
    {
      "inputs": [
        {
          "internalType": "address",
          "name": "newOwner",
          "type": "address"
        }
      ],
      "name": "transferOwnership",
      "outputs": [],
      "stateMutability": "nonpayable",
      "type": "function"
    }
  ],
  "bytecode": "0x60806040523480156200001157600080fd5b50604051620025ce380380620025ce833981016040819052620000349162000340565b8282828282828062000051816200012b60201b62000a2b1760201c565b50620000a87feafec4d89fa9619884b60000a4d96624a38f7ac2d8d9a604ecf07c12c77e480c60001b604051806040016040528060048152602001632936598960e21b8152506200019260201b62000a9d1760201c565b620000e27fdeba1e292f8ba88238e10ab3c7f88bd4be4fac56cad5194b6ecceaf653468af160001b846200019260201b62000a9d1760201c565b6200011c7f2f0a68ab07768e01943a599e73362a0e17a63a72e94dd2e384d2c1d4db93275660001b836200019260201b62000a9d1760201c565b50505050505050505062000420565b6000546001600160a01b038281169116146200018f57600080546001600160a01b038381166001600160a01b0319831681178455604051919092169283917f8be0079c531659141344cd1fd0a4f28419497f9722a3daafe3b4186f6b6457e09190a3505b50565b60008281526001602090815260409091208251620001b392840190620001e3565b5060405182907fcdf4e344c0d23d4cdd0474039d176c55b19d531070dbe17856bfb993a5b5720b90600090a25050565b828054620001f190620003cd565b90600052602060002090601f01602090048101928262000215576000855562000260565b82601f106200023057805160ff191683800117855562000260565b8280016001018555821562000260579182015b828111156200026057825182559160200191906001019062000243565b506200026e92915062000272565b5090565b5b808211156200026e576000815560010162000273565b600082601f8301126200029b57600080fd5b81516001600160401b0380821115620002b857620002b86200040a565b604051601f8301601f19908116603f01168101908282118183101715620002e357620002e36200040a565b816040528381526020925086838588010111156200030057600080fd5b600091505b8382101562000324578582018301518183018401529082019062000305565b83821115620003365760008385830101525b9695505050505050565b6000806000606084860312156200035657600080fd5b83516001600160401b03808211156200036e57600080fd5b6200037c8783880162000289565b945060208601519150808211156200039357600080fd5b50620003a28682870162000289565b604086015190935090506001600160a01b0381168114620003c257600080fd5b809150509250925092565b600181811c90821680620003e257607f821691505b602082108114156200040457634e487b7160e01b600052602260045260246000fd5b50919050565b634e487b7160e01b600052604160045260246000fd5b61219e80620004306000396000f3fe608060405234801561001057600080fd5b50600436106101775760003560e01c8063511b6952116100d85780637f23690c1161008c578063a3b261f211610066578063a3b261f214610327578063cf5182ba14610347578063f2fde38b1461035a57600080fd5b80637f23690c146102e35780638da5cb5b146102f657806392a91a3a1461030757600080fd5b806355908868116100bd57806355908868146102b557806370a08231146102c8578063715018a6146102db57600080fd5b8063511b69521461028257806354f6127f1461029557600080fd5b8063217b22701161012f5780632cfd3005116101145780632cfd30051461022f57806349a6078d146102425780634e3e6e9c1461026257600080fd5b8063217b2270146101f15780632a3654a41461021c57600080fd5b80630b0c6d82116101605780630b0c6d82146101b957806314a6e293146101cc57806318160ddd146101df57600080fd5b806301ffc9a71461017c57806308a1eee1146101a4575b600080fd5b61018f61018a366004611d5c565b61036d565b60405190151581526020015b60405180910390f35b6101b76101b2366004611d06565b6103b1565b005b6101b76101c7366004611b92565b6103f3565b6101b76101da366004611ca2565b6104a1565b6002545b60405190815260200161019b565b6102046101ff366004611d06565b610575565b6040516001600160a01b03909116815260200161019b565b61018f61022a366004611b92565b6105ae565b6101b761023d366004611b92565b6105ca565b610255610250366004611d06565b610610565b60405161019b9190611ed5565b610275610270366004611c6d565b610632565b60405161019b9190611f5a565b6101b7610290366004611b19565b6106e6565b6102a86102a3366004611d06565b61074e565b60405161019b9190611fd5565b6101b76102c3366004611bbc565b610759565b6101e36102d6366004611afe565b61083f565b6101b7610860565b6101b76102f1366004611d1f565b610874565b6000546001600160a01b0316610204565b6101e3610315366004611d06565b60009081526006602052604090205490565b61033a610335366004611afe565b610886565b60405161019b9190611f22565b6101b7610355366004611b92565b6108aa565b6101b7610368366004611afe565b6109a2565b60006001600160e01b031982167f493991450000000000000000000000000000000000000000000000000000000014806103ab57506103ab82610aec565b92915050565b6103f0816040518060400160405280600d81526020017f6665656c20746865206275726e00000000000000000000000000000000000000815250610b3a565b50565b60006103fe82610575565b9050336001600160a01b038216811461044957604051632d938f5160e11b81526001600160a01b03808416600483015260248201859052821660448201526064015b60405180910390fd5b6001600160a01b03841661047057604051639577b8b360e01b815260040160405180910390fd5b836001600160a01b0316826001600160a01b031614156104905750505050565b61049b848385610c00565b50505050565b6104a9610c5f565b80518251146105205760405162461bcd60e51b815260206004820152602660248201527f4b657973206c656e677468206e6f7420657175616c20746f2076616c7565732060448201527f6c656e67746800000000000000000000000000000000000000000000000000006064820152608401610440565b60005b8251811015610570576105688382815181106105415761054161213c565b602002602001015183838151811061055b5761055b61213c565b6020026020010151610cc8565b600101610523565b505050565b6000818152600360205260408120546001600160a01b0316806103ab57604051635747cd1b60e11b815260048101849052602401610440565b60006105b982610d86565b6105c38383610dbe565b9392505050565b61060c828260016040518060400160405280601581526020017f746f6b656e207072696e74657220676f20627272720000000000000000000000815250610e07565b5050565b606061061b82610d86565b60008281526005602052604090206103ab90610f3b565b6060815167ffffffffffffffff81111561064e5761064e612152565b60405190808252806020026020018201604052801561068157816020015b606081526020019060019003908161066c5790505b50905060005b82518110156106e0576106b28382815181106106a5576106a561213c565b6020026020010151610f48565b8282815181106106c4576106c461213c565b60200260200101819052506106d98160010190565b9050610687565b50919050565b336106f18185610dbe565b610739576040517f1294d2a9000000000000000000000000000000000000000000000000000000008152600481018590526001600160a01b0382166024820152604401610440565b6107468686868686610fea565b505050505050565b60606103ab82610f48565b8351855114158061076c57508251855114155b8061077957508051855114155b156107b0576040517f93a8311900000000000000000000000000000000000000000000000000000000815260040160405180910390fd5b60005b85518110156107465761082d8682815181106107d1576107d161213c565b60200260200101518683815181106107eb576107eb61213c565b60200260200101518684815181106108055761080561213c565b6020026020010151868686815181106108205761082061213c565b60200260200101516106e6565b80610837816120f5565b9150506107b3565b6001600160a01b03811660009081526004602052604081206103ab90611163565b610868610c5f565b6108726000610a2b565b565b61087c610c5f565b61060c8282610cc8565b6001600160a01b03811660009081526004602052604090206060906103ab9061116d565b60006108b582610575565b9050336001600160a01b03821681146108fb57604051632d938f5160e11b81526001600160a01b0380841660048301526024820185905282166044820152606401610440565b6001600160a01b03841661092257604051639577b8b360e01b815260040160405180910390fd5b836001600160a01b0316826001600160a01b031614156109425750505050565b600083815260056020526040902061095a9085611178565b5082826001600160a01b0316856001600160a01b03167f34b797fc5a526f7bf1d2b5de25f6564fd85ae364e3ee939aee7c1ac27871a98860405160405180910390a450505050565b6109aa610c5f565b6001600160a01b038116610a265760405162461bcd60e51b815260206004820152602660248201527f4f776e61626c653a206e6577206f776e657220697320746865207a65726f206160448201527f64647265737300000000000000000000000000000000000000000000000000006064820152608401610440565b6103f0815b6000546001600160a01b038281169116146103f057600080546001600160a01b0383811673ffffffffffffffffffffffffffffffffffffffff19831681178455604051919092169283917f8be0079c531659141344cd1fd0a4f28419497f9722a3daafe3b4186f6b6457e09190a35050565b60008281526001602090815260409091208251610abc9284019061187d565b5060405182907fcdf4e344c0d23d4cdd0474039d176c55b19d531070dbe17856bfb993a5b5720b90600090a25050565b60006001600160e01b031982167f714df77c0000000000000000000000000000000000000000000000000000000014806103ab57506301ffc9a760e01b6001600160e01b03198316146103ab565b6000610b4583610575565b905033610b548260008661118d565b610b5e8285611198565b6001600160a01b0382166000908152600460205260409020610b8090856111e9565b50600084815260036020526040808220805473ffffffffffffffffffffffffffffffffffffffff19169055518591906001600160a01b038516907fb333c813a7426a7a11e2b190cad52c44119421594b47f6f32ace6d8c7207b2bf90610beb90869085908a90611eab565b60405180910390a461049b82600086866111f5565b6000818152600560205260409020610c1890846112d8565b5080826001600160a01b0316846001600160a01b03167f17d5389f6ab6adb2647dfa0aa365c323d37adacc30b33a65310b6158ce1373d560405160405180910390a4505050565b33610c726000546001600160a01b031690565b6001600160a01b0316146108725760405162461bcd60e51b815260206004820181905260248201527f4f776e61626c653a2063616c6c6572206973206e6f7420746865206f776e65726044820152606401610440565b7fdeba1e292f8ba88238e10ab3c7f88bd4be4fac56cad5194b6ecceaf653468af1821415610d22576040517f85c169bd00000000000000000000000000000000000000000000000000000000815260040160405180910390fd5b7f2f0a68ab07768e01943a599e73362a0e17a63a72e94dd2e384d2c1d4db932756821415610d7c576040517f76755b3800000000000000000000000000000000000000000000000000000000815260040160405180910390fd5b61060c8282610a9d565b6000818152600360205260409020546001600160a01b03166103f057604051635747cd1b60e11b815260048101829052602401610440565b600080610dca83610575565b9050806001600160a01b0316846001600160a01b03161480610dff57506000838152600560205260409020610dff90856112ed565b949350505050565b6001600160a01b038416610e2e576040516324ecef4d60e01b815260040160405180910390fd5b6000838152600360205260409020546001600160a01b031615610e80576040517f34c7b51100000000000000000000000000000000000000000000000000000000815260048101849052602401610440565b33610e8d6000868661118d565b6001600160a01b0385166000908152600460205260409020610eaf908561130f565b50600084815260036020526040808220805473ffffffffffffffffffffffffffffffffffffffff19166001600160a01b03891690811790915590518692907fb333c813a7426a7a11e2b190cad52c44119421594b47f6f32ace6d8c7207b2bf90610f1e90869089908990611eab565b60405180910390a4610f3460008686868661131b565b5050505050565b606060006105c383611494565b6000818152600160205260409020805460609190610f65906120c0565b80601f0160208091040260200160405190810160405280929190818152602001828054610f91906120c0565b8015610fde5780601f10610fb357610100808354040283529160200191610fde565b820191906000526020600020905b815481529060010190602001808311610fc157829003601f168201915b50505050509050919050565b6000610ff584610575565b9050856001600160a01b0316816001600160a01b03161461104357604051632d938f5160e11b81526001600160a01b0380831660048301526024820186905287166044820152606401610440565b6001600160a01b03851661106a576040516324ecef4d60e01b815260040160405180910390fd5b3361107687878761118d565b6110808786611198565b6001600160a01b03871660009081526004602052604090206110a290866111e9565b506001600160a01b03861660009081526004602052604090206110c5908661130f565b5060008581526003602052604090819020805473ffffffffffffffffffffffffffffffffffffffff19166001600160a01b0389811691821790925591518792918a16907fb333c813a7426a7a11e2b190cad52c44119421594b47f6f32ace6d8c7207b2bf906111399086908a908a90611eab565b60405180910390a461114d878787866111f5565b61115a878787878761131b565b50505050505050565b60006103ab825490565b60606103ab82611494565b60006105c3836001600160a01b0384166114ef565b61057083838361153e565b6000818152600560205260408120906111b082611163565b905060005b81811015610f345760006111c98482611600565b90506111d6818787610c00565b50806111e1816120f5565b9150506111b5565b60006105c3838361160c565b61120684631aed5a8560e21b6116ff565b1561049b576000848484846040516020016112249493929190611e42565b60408051601f1981840301815290829052631aed5a8560e21b825291506001600160a01b03861690636bb56a1490611282907f3724c94f0815e936299cca424da4140752198e0beb7931a6e0925d11bc97544c908590600401611fbc565b600060405180830381600087803b15801561129c57600080fd5b505af11580156112b0573d6000803e3d6000fd5b505050506040513d6000823e601f3d908101601f191682016040526107469190810190611d86565b60006105c3836001600160a01b03841661160c565b6001600160a01b038116600090815260018301602052604081205415156105c3565b60006105c383836114ef565b61132c84631aed5a8560e21b6116ff565b156114055760008585858460405160200161134a9493929190611e42565b60408051601f1981840301815290829052631aed5a8560e21b825291506001600160a01b03861690636bb56a14906113a8907fc7a120a42b6057a0cbed111fbbfbd52fcd96748c04394f77fc2c3adbe0391e01908590600401611fbc565b600060405180830381600087803b1580156113c257600080fd5b505af11580156113d6573d6000803e3d6000fd5b505050506040513d6000823e601f3d908101601f191682016040526113fe9190810190611d86565b5050610f34565b81610f34576001600160a01b0384163b15611457576040517f4349776d0000000000000000000000000000000000000000000000000000000081526001600160a01b0385166004820152602401610440565b6040517f031731370000000000000000000000000000000000000000000000000000000081526001600160a01b0385166004820152602401610440565b606081600001805480602002602001604051908101604052809291908181526020018280548015610fde57602002820191906000526020600020905b8154815260200190600101908083116114d05750505050509050919050565b6000818152600183016020526040812054611536575081546001818101845560008481526020808220909301849055845484825282860190935260409020919091556103ab565b5060006103ab565b6001600160a01b03831661157357600254600081815260066020908152604080832085905584835260079091529020556115f5565b6001600160a01b0382166115f55760006001600254611592919061207d565b600083815260076020526040902054909150818110156115d4576000828152600660209081526040808320548484528184208190558352600790915290208190555b50600090815260066020908152604080832083905583835260079091528120555b610570838383611801565b60006105c38383611853565b600081815260018301602052604081205480156116f557600061163060018361207d565b85549091506000906116449060019061207d565b90508181146116a95760008660000182815481106116645761166461213c565b90600052602060002001549050808760000184815481106116875761168761213c565b6000918252602080832090910192909255918252600188019052604090208390555b85548690806116ba576116ba612126565b6001900381819060005260206000200160009055905585600101600086815260200190815260200160002060009055600193505050506103ab565b60009150506103ab565b604080516001600160e01b0319831660248083019190915282518083039091018152604490910182526020810180517bffffffffffffffffffffffffffffffffffffffffffffffffffffffff166301ffc9a760e01b179052905160009190829081906001600160a01b038716906175309061177b908690611e8f565b6000604051808303818686fa925050503d80600081146117b7576040519150601f19603f3d011682016040523d82523d6000602084013e6117bc565b606091505b50915091506020815110156117d757600093505050506103ab565b8180156117f757506000818060200190518101906117f59190611dfd565b115b9695505050505050565b6001600160a01b038316611828576001600260008282546118229190612065565b90915550505b6001600160a01b03821661057057600160026000828254611849919061207d565b9091555050505050565b600082600001828154811061186a5761186a61213c565b9060005260206000200154905092915050565b828054611889906120c0565b90600052602060002090601f0160209004810192826118ab57600085556118f1565b82601f106118c457805160ff19168380011785556118f1565b828001600101855582156118f1579182015b828111156118f15782518255916020019190600101906118d6565b506118fd929150611901565b5090565b5b808211156118fd5760008155600101611902565b80356001600160a01b038116811461192d57600080fd5b919050565b600082601f83011261194357600080fd5b8135602061195861195383612019565b611fe8565b80838252828201915082860187848660051b890101111561197857600080fd5b60005b8581101561199e5761198c82611916565b8452928401929084019060010161197b565b5090979650505050505050565b600082601f8301126119bc57600080fd5b813560206119cc61195383612019565b80838252828201915082860187848660051b89010111156119ec57600080fd5b60005b8581101561199e578135845292840192908401906001016119ef565b600082601f830112611a1c57600080fd5b81356020611a2c61195383612019565b80838252828201915082860187848660051b8901011115611a4c57600080fd5b6000805b86811015611a8f57823567ffffffffffffffff811115611a6e578283fd5b611a7c8b88838d0101611aad565b8652509385019391850191600101611a50565b509198975050505050505050565b8035801515811461192d57600080fd5b600082601f830112611abe57600080fd5b8135611acc6119538261203d565b818152846020838601011115611ae157600080fd5b816020850160208301376000918101602001919091529392505050565b600060208284031215611b1057600080fd5b6105c382611916565b600080600080600060a08688031215611b3157600080fd5b611b3a86611916565b9450611b4860208701611916565b935060408601359250611b5d60608701611a9d565b9150608086013567ffffffffffffffff811115611b7957600080fd5b611b8588828901611aad565b9150509295509295909350565b60008060408385031215611ba557600080fd5b611bae83611916565b946020939093013593505050565b600080600080600060a08688031215611bd457600080fd5b853567ffffffffffffffff80821115611bec57600080fd5b611bf889838a01611932565b96506020880135915080821115611c0e57600080fd5b611c1a89838a01611932565b95506040880135915080821115611c3057600080fd5b611c3c89838a016119ab565b9450611c4a60608901611a9d565b93506080880135915080821115611c6057600080fd5b50611b8588828901611a0b565b600060208284031215611c7f57600080fd5b813567ffffffffffffffff811115611c9657600080fd5b610dff848285016119ab565b60008060408385031215611cb557600080fd5b823567ffffffffffffffff80821115611ccd57600080fd5b611cd9868387016119ab565b93506020850135915080821115611cef57600080fd5b50611cfc85828601611a0b565b9150509250929050565b600060208284031215611d1857600080fd5b5035919050565b60008060408385031215611d3257600080fd5b82359150602083013567ffffffffffffffff811115611d5057600080fd5b611cfc85828601611aad565b600060208284031215611d6e57600080fd5b81356001600160e01b0319811681146105c357600080fd5b600060208284031215611d9857600080fd5b815167ffffffffffffffff811115611daf57600080fd5b8201601f81018413611dc057600080fd5b8051611dce6119538261203d565b818152856020838501011115611de357600080fd5b611df4826020830160208601612094565b95945050505050565b600060208284031215611e0f57600080fd5b5051919050565b60008151808452611e2e816020860160208601612094565b601f01601f19169290920160200192915050565b60006bffffffffffffffffffffffff19808760601b168352808660601b166014840152508360288301528251611e7f816048850160208701612094565b9190910160480195945050505050565b60008251611ea1818460208701612094565b9190910192915050565b6001600160a01b03841681528215156020820152606060408201526000611df46060830184611e16565b6020808252825182820181905260009190848201906040850190845b81811015611f165783516001600160a01b031683529284019291840191600101611ef1565b50909695505050505050565b6020808252825182820181905260009190848201906040850190845b81811015611f1657835183529284019291840191600101611f3e565b6000602080830181845280855180835260408601915060408160051b870101925083870160005b82811015611faf57603f19888603018452611f9d858351611e16565b94509285019290850190600101611f81565b5092979650505050505050565b828152604060208201526000610dff6040830184611e16565b6020815260006105c36020830184611e16565b604051601f8201601f1916810167ffffffffffffffff8111828210171561201157612011612152565b604052919050565b600067ffffffffffffffff82111561203357612033612152565b5060051b60200190565b600067ffffffffffffffff82111561205757612057612152565b50601f01601f191660200190565b6000821982111561207857612078612110565b500190565b60008282101561208f5761208f612110565b500390565b60005b838110156120af578181015183820152602001612097565b8381111561049b5750506000910152565b600181811c908216806120d457607f821691505b602082108114156106e057634e487b7160e01b600052602260045260246000fd5b600060001982141561210957612109612110565b5060010190565b634e487b7160e01b600052601160045260246000fd5b634e487b7160e01b600052603160045260246000fd5b634e487b7160e01b600052603260045260246000fd5b634e487b7160e01b600052604160045260246000fdfea2646970667358221220dd9615d6624528d2341755c3267090ed368ed631cea6db533c47daa66086489f64736f6c63430008070033",
  "linkReferences": {},
  "deployedLinkReferences": {}
}