{
  "_format": "hh-sol-artifact-1",
  "contractName": "LSP7Tester",
  "sourceName": "contracts/Helpers/Tokens/LSP7Tester.sol",
  "abi": [
    {
      "inputs": [
        {
          "internalType": "string",
          "name": "name",
          "type": "string"
        },
        {
          "internalType": "string",
          "name": "symbol",
          "type": "string"
        },
        {
          "internalType": "address",
          "name": "newOwner",
          "type": "address"
        }
      ],
      "stateMutability": "nonpayable",
      "type": "constructor"
    },
    {
      "inputs": [],
      "name": "LSP4TokenNameNotEditable",
      "type": "error"
    },
    {
      "inputs": [],
      "name": "LSP4TokenSymbolNotEditable",
      "type": "error"
    },
    {
      "inputs": [
        {
          "internalType": "address",
          "name": "tokenOwner",
          "type": "address"
        },
        {
          "internalType": "uint256",
          "name": "authorizedAmount",
          "type": "uint256"
        },
        {
          "internalType": "address",
          "name": "operator",
          "type": "address"
        },
        {
          "internalType": "uint256",
          "name": "amount",
          "type": "uint256"
        }
      ],
      "name": "LSP7AmountExceedsAuthorizedAmount",
      "type": "error"
    },
    {
      "inputs": [
        {
          "internalType": "uint256",
          "name": "balance",
          "type": "uint256"
        },
        {
          "internalType": "address",
          "name": "tokenOwner",
          "type": "address"
        },
        {
          "internalType": "uint256",
          "name": "amount",
          "type": "uint256"
        }
      ],
      "name": "LSP7AmountExceedsBalance",
      "type": "error"
    },
    {
      "inputs": [],
      "name": "LSP7CannotSendWithAddressZero",
      "type": "error"
    },
    {
      "inputs": [],
      "name": "LSP7CannotUseAddressZeroAsOperator",
      "type": "error"
    },
    {
      "inputs": [],
      "name": "LSP7InvalidTransferBatch",
      "type": "error"
    },
    {
      "inputs": [
        {
          "internalType": "address",
          "name": "tokenReceiver",
          "type": "address"
        }
      ],
      "name": "LSP7NotifyTokenReceiverContractMissingLSP1Interface",
      "type": "error"
    },
    {
      "inputs": [
        {
          "internalType": "address",
          "name": "tokenReceiver",
          "type": "address"
        }
      ],
      "name": "LSP7NotifyTokenReceiverIsEOA",
      "type": "error"
    },
    {
      "anonymous": false,
      "inputs": [
        {
          "indexed": true,
          "internalType": "address",
          "name": "operator",
          "type": "address"
        },
        {
          "indexed": true,
          "internalType": "address",
          "name": "tokenOwner",
          "type": "address"
        },
        {
          "indexed": true,
          "internalType": "uint256",
          "name": "amount",
          "type": "uint256"
        }
      ],
      "name": "AuthorizedOperator",
      "type": "event"
    },
    {
      "anonymous": false,
      "inputs": [
        {
          "indexed": true,
          "internalType": "bytes32",
          "name": "dataKey",
          "type": "bytes32"
        }
      ],
      "name": "DataChanged",
      "type": "event"
    },
    {
      "anonymous": false,
      "inputs": [
        {
          "indexed": true,
          "internalType": "address",
          "name": "previousOwner",
          "type": "address"
        },
        {
          "indexed": true,
          "internalType": "address",
          "name": "newOwner",
          "type": "address"
        }
      ],
      "name": "OwnershipTransferred",
      "type": "event"
    },
    {
      "anonymous": false,
      "inputs": [
        {
          "indexed": true,
          "internalType": "address",
          "name": "operator",
          "type": "address"
        },
        {
          "indexed": true,
          "internalType": "address",
          "name": "tokenOwner",
          "type": "address"
        }
      ],
      "name": "RevokedOperator",
      "type": "event"
    },
    {
      "anonymous": false,
      "inputs": [
        {
          "indexed": true,
          "internalType": "address",
          "name": "operator",
          "type": "address"
        },
        {
          "indexed": true,
          "internalType": "address",
          "name": "from",
          "type": "address"
        },
        {
          "indexed": true,
          "internalType": "address",
          "name": "to",
          "type": "address"
        },
        {
          "indexed": false,
          "internalType": "uint256",
          "name": "amount",
          "type": "uint256"
        },
        {
          "indexed": false,
          "internalType": "bool",
          "name": "force",
          "type": "bool"
        },
        {
          "indexed": false,
          "internalType": "bytes",
          "name": "data",
          "type": "bytes"
        }
      ],
      "name": "Transfer",
      "type": "event"
    },
    {
      "inputs": [
        {
          "internalType": "address",
          "name": "operator",
          "type": "address"
        },
        {
          "internalType": "uint256",
          "name": "amount",
          "type": "uint256"
        }
      ],
      "name": "authorizeOperator",
      "outputs": [],
      "stateMutability": "nonpayable",
      "type": "function"
    },
    {
      "inputs": [
        {
          "internalType": "address",
          "name": "tokenOwner",
          "type": "address"
        }
      ],
      "name": "balanceOf",
      "outputs": [
        {
          "internalType": "uint256",
          "name": "",
          "type": "uint256"
        }
      ],
      "stateMutability": "view",
      "type": "function"
    },
    {
      "inputs": [
        {
          "internalType": "address",
          "name": "from",
          "type": "address"
        },
        {
          "internalType": "uint256",
          "name": "amount",
          "type": "uint256"
        },
        {
          "internalType": "bytes",
          "name": "data",
          "type": "bytes"
        }
      ],
      "name": "burn",
      "outputs": [],
      "stateMutability": "nonpayable",
      "type": "function"
    },
    {
      "inputs": [],
      "name": "decimals",
      "outputs": [
        {
          "internalType": "uint256",
          "name": "",
          "type": "uint256"
        }
      ],
      "stateMutability": "view",
      "type": "function"
    },
    {
      "inputs": [
        {
          "internalType": "bytes32[]",
          "name": "dataKeys",
          "type": "bytes32[]"
        }
      ],
      "name": "getData",
      "outputs": [
        {
          "internalType": "bytes[]",
          "name": "dataValues",
          "type": "bytes[]"
        }
      ],
      "stateMutability": "view",
      "type": "function"
    },
    {
      "inputs": [
        {
          "internalType": "bytes32",
          "name": "dataKey",
          "type": "bytes32"
        }
      ],
      "name": "getData",
      "outputs": [
        {
          "internalType": "bytes",
          "name": "dataValue",
          "type": "bytes"
        }
      ],
      "stateMutability": "view",
      "type": "function"
    },
    {
      "inputs": [
        {
          "internalType": "address",
          "name": "operator",
          "type": "address"
        },
        {
          "internalType": "address",
          "name": "tokenOwner",
          "type": "address"
        }
      ],
      "name": "isOperatorFor",
      "outputs": [
        {
          "internalType": "uint256",
          "name": "",
          "type": "uint256"
        }
      ],
      "stateMutability": "view",
      "type": "function"
    },
    {
      "inputs": [
        {
          "internalType": "address",
          "name": "to",
          "type": "address"
        },
        {
          "internalType": "uint256",
          "name": "amount",
          "type": "uint256"
        },
        {
          "internalType": "bool",
          "name": "force",
          "type": "bool"
        },
        {
          "internalType": "bytes",
          "name": "data",
          "type": "bytes"
        }
      ],
      "name": "mint",
      "outputs": [],
      "stateMutability": "nonpayable",
      "type": "function"
    },
    {
      "inputs": [],
      "name": "owner",
      "outputs": [
        {
          "internalType": "address",
          "name": "",
          "type": "address"
        }
      ],
      "stateMutability": "view",
      "type": "function"
    },
    {
      "inputs": [],
      "name": "renounceOwnership",
      "outputs": [],
      "stateMutability": "nonpayable",
      "type": "function"
    },
    {
      "inputs": [
        {
          "internalType": "address",
          "name": "operator",
          "type": "address"
        }
      ],
      "name": "revokeOperator",
      "outputs": [],
      "stateMutability": "nonpayable",
      "type": "function"
    },
    {
      "inputs": [
        {
          "internalType": "bytes32[]",
          "name": "dataKeys",
          "type": "bytes32[]"
        },
        {
          "internalType": "bytes[]",
          "name": "dataValues",
          "type": "bytes[]"
        }
      ],
      "name": "setData",
      "outputs": [],
      "stateMutability": "nonpayable",
      "type": "function"
    },
    {
      "inputs": [
        {
          "internalType": "bytes32",
          "name": "dataKey",
          "type": "bytes32"
        },
        {
          "internalType": "bytes",
          "name": "dataValue",
          "type": "bytes"
        }
      ],
      "name": "setData",
      "outputs": [],
      "stateMutability": "nonpayable",
      "type": "function"
    },
    {
      "inputs": [
        {
          "internalType": "bytes4",
          "name": "interfaceId",
          "type": "bytes4"
        }
      ],
      "name": "supportsInterface",
      "outputs": [
        {
          "internalType": "bool",
          "name": "",
          "type": "bool"
        }
      ],
      "stateMutability": "view",
      "type": "function"
    },
    {
      "inputs": [],
      "name": "totalSupply",
      "outputs": [
        {
          "internalType": "uint256",
          "name": "",
          "type": "uint256"
        }
      ],
      "stateMutability": "view",
      "type": "function"
    },
    {
      "inputs": [
        {
          "internalType": "address",
          "name": "from",
          "type": "address"
        },
        {
          "internalType": "address",
          "name": "to",
          "type": "address"
        },
        {
          "internalType": "uint256",
          "name": "amount",
          "type": "uint256"
        },
        {
          "internalType": "bool",
          "name": "force",
          "type": "bool"
        },
        {
          "internalType": "bytes",
          "name": "data",
          "type": "bytes"
        }
      ],
      "name": "transfer",
      "outputs": [],
      "stateMutability": "nonpayable",
      "type": "function"
    },
    {
      "inputs": [
        {
          "internalType": "address[]",
          "name": "from",
          "type": "address[]"
        },
        {
          "internalType": "address[]",
          "name": "to",
          "type": "address[]"
        },
        {
          "internalType": "uint256[]",
          "name": "amount",
          "type": "uint256[]"
        },
        {
          "internalType": "bool",
          "name": "force",
          "type": "bool"
        },
        {
          "internalType": "bytes[]",
          "name": "data",
          "type": "bytes[]"
        }
      ],
      "name": "transferBatch",
      "outputs": [],
      "stateMutability": "nonpayable",
      "type": "function"
    },
    {
      "inputs": [
        {
          "internalType": "address",
          "name": "newOwner",
          "type": "address"
        }
      ],
      "name": "transferOwnership",
      "outputs": [],
      "stateMutability": "nonpayable",
      "type": "function"
    }
  ],
  "bytecode": "0x60806040523480156200001157600080fd5b506040516200218238038062002182833981016040819052620000349162000355565b82828260008383838062000053816200014060201b620007a41760201c565b50620000aa7feafec4d89fa9619884b60000a4d96624a38f7ac2d8d9a604ecf07c12c77e480c60001b604051806040016040528060048152602001632936598960e21b815250620001a760201b620008211760201c565b620000e47fdeba1e292f8ba88238e10ab3c7f88bd4be4fac56cad5194b6ecceaf653468af160001b84620001a760201b620008211760201c565b6200011e7f2f0a68ab07768e01943a599e73362a0e17a63a72e94dd2e384d2c1d4db93275660001b83620001a760201b620008211760201c565b50506002805460ff191692151592909217909155506200043595505050505050565b6000546001600160a01b03828116911614620001a457600080546001600160a01b038381166001600160a01b0319831681178455604051919092169283917f8be0079c531659141344cd1fd0a4f28419497f9722a3daafe3b4186f6b6457e09190a3505b50565b60008281526001602090815260409091208251620001c892840190620001f8565b5060405182907fcdf4e344c0d23d4cdd0474039d176c55b19d531070dbe17856bfb993a5b5720b90600090a25050565b8280546200020690620003e2565b90600052602060002090601f0160209004810192826200022a576000855562000275565b82601f106200024557805160ff191683800117855562000275565b8280016001018555821562000275579182015b828111156200027557825182559160200191906001019062000258565b506200028392915062000287565b5090565b5b8082111562000283576000815560010162000288565b600082601f830112620002b057600080fd5b81516001600160401b0380821115620002cd57620002cd6200041f565b604051601f8301601f19908116603f01168101908282118183101715620002f857620002f86200041f565b816040528381526020925086838588010111156200031557600080fd5b600091505b838210156200033957858201830151818301840152908201906200031a565b838211156200034b5760008385830101525b9695505050505050565b6000806000606084860312156200036b57600080fd5b83516001600160401b03808211156200038357600080fd5b62000391878388016200029e565b94506020860151915080821115620003a857600080fd5b50620003b7868287016200029e565b604086015190935090506001600160a01b0381168114620003d757600080fd5b809150509250925092565b600181811c90821680620003f757607f821691505b602082108114156200041957634e487b7160e01b600052602260045260246000fd5b50919050565b634e487b7160e01b600052604160045260246000fd5b611d3d80620004456000396000f3fe608060405234801561001057600080fd5b50600436106101365760003560e01c8063715018a6116100b25780638da5cb5b11610081578063d95b637111610066578063d95b637114610290578063f2fde38b146102a3578063fad8b32a146102b657600080fd5b80638da5cb5b14610262578063a8a34e0a1461027d57600080fd5b8063715018a6146102215780637580d92014610229578063760d9bba1461023c5780637f23690c1461024f57600080fd5b806344d17187116101095780634e3e6e9c116100ee5780634e3e6e9c146101b857806354f6127f146101d857806370a08231146101f857600080fd5b806344d171871461019257806347980aa3146101a557600080fd5b806301ffc9a71461013b57806314a6e2931461016357806318160ddd14610178578063313ce5671461018a575b600080fd5b61014e61014936600461199f565b6102c9565b60405190151581526020015b60405180910390f35b6101766101713660046118e5565b61030d565b005b6003545b60405190815260200161015a565b61017c6103e6565b6101766101a0366004611745565b610405565b6101766101b33660046116b3565b610410565b6101cb6101c63660046118a8565b61041f565b60405161015a9190611aee565b6101eb6101e6366004611949565b6104d3565b60405161015a9190611b69565b61017c6102063660046115e5565b6001600160a01b031660009081526004602052604090205490565b6101766104de565b6101766102373660046116dd565b6104f2565b61017661024a36600461163a565b610504565b61017661025d366004611962565b6105a8565b6000546040516001600160a01b03909116815260200161015a565b61017661028b36600461179c565b6105ba565b61017c61029e366004611607565b6106a0565b6101766102b13660046115e5565b610708565b6101766102c43660046115e5565b610798565b60006001600160e01b031982167fe33f65c3000000000000000000000000000000000000000000000000000000001480610307575061030782610870565b92915050565b6103156108be565b80518251146103915760405162461bcd60e51b815260206004820152602660248201527f4b657973206c656e677468206e6f7420657175616c20746f2076616c7565732060448201527f6c656e677468000000000000000000000000000000000000000000000000000060648201526084015b60405180910390fd5b60005b82518110156103e1576103d98382815181106103b2576103b2611cdb565b60200260200101518383815181106103cc576103cc611cdb565b6020026020010151610927565b600101610394565b505050565b60025460009060ff166103fa5760126103fd565b60005b60ff16905090565b6103e18383836109e5565b61041b338383610bc0565b5050565b6060815167ffffffffffffffff81111561043b5761043b611cf1565b60405190808252806020026020018201604052801561046e57816020015b60608152602001906001900390816104595790505b50905060005b82518110156104cd5761049f83828151811061049257610492611cdb565b6020026020010151610cd8565b8282815181106104b1576104b1611cdb565b60200260200101819052506104c68160010190565b9050610474565b50919050565b606061030782610cd8565b6104e66108be565b6104f060006107a4565b565b6104fe84848484610d7a565b50505050565b336001600160a01b0386168114610593576001600160a01b038087166000908152600560209081526040808320938516835292905220548085111561057d5760405163f3a6b69160e01b81526001600160a01b038089166004830152602482018390528316604482015260648101869052608401610388565b610591878361058c8885611c32565b610bc0565b505b6105a08686868686610e45565b505050505050565b6105b06108be565b61041b8282610927565b835185511415806105cd57508251855114155b806105da57508051855114155b15610611576040517f263eee8d00000000000000000000000000000000000000000000000000000000815260040160405180910390fd5b60005b85518110156105a05761068e86828151811061063257610632611cdb565b602002602001015186838151811061064c5761064c611cdb565b602002602001015186848151811061066657610666611cdb565b60200260200101518686868151811061068157610681611cdb565b6020026020010151610504565b8061069881611caa565b915050610614565b6000826001600160a01b0316826001600160a01b031614156106db57506001600160a01b038116600090815260046020526040902054610307565b506001600160a01b0380821660009081526005602090815260408083209386168352929052205492915050565b6107106108be565b6001600160a01b03811661078c5760405162461bcd60e51b815260206004820152602660248201527f4f776e61626c653a206e6577206f776e657220697320746865207a65726f206160448201527f64647265737300000000000000000000000000000000000000000000000000006064820152608401610388565b610795816107a4565b50565b61079533826000610bc0565b6000546001600160a01b0382811691161461079557600080546001600160a01b038381167fffffffffffffffffffffffff0000000000000000000000000000000000000000831681178455604051919092169283917f8be0079c531659141344cd1fd0a4f28419497f9722a3daafe3b4186f6b6457e09190a35050565b6000828152600160209081526040909120825161084092840190611364565b5060405182907fcdf4e344c0d23d4cdd0474039d176c55b19d531070dbe17856bfb993a5b5720b90600090a25050565b60006001600160e01b031982167f714df77c00000000000000000000000000000000000000000000000000000000148061030757506301ffc9a760e01b6001600160e01b0319831614610307565b336108d16000546001600160a01b031690565b6001600160a01b0316146104f05760405162461bcd60e51b815260206004820181905260248201527f4f776e61626c653a2063616c6c6572206973206e6f7420746865206f776e65726044820152606401610388565b7fdeba1e292f8ba88238e10ab3c7f88bd4be4fac56cad5194b6ecceaf653468af1821415610981576040517f85c169bd00000000000000000000000000000000000000000000000000000000815260040160405180910390fd5b7f2f0a68ab07768e01943a599e73362a0e17a63a72e94dd2e384d2c1d4db9327568214156109db576040517f76755b3800000000000000000000000000000000000000000000000000000000815260040160405180910390fd5b61041b8282610821565b6001600160a01b038316610a0c57604051630d2d5ec360e41b815260040160405180910390fd5b6001600160a01b03831660009081526004602052604090205480831115610a5f576040516308d4794960e01b8152600481018290526001600160a01b038516602482015260448101849052606401610388565b336001600160a01b0385168114610b16576001600160a01b0380861660009081526005602090815260408083209385168352929052205480851115610ad85760405163f3a6b69160e01b81526001600160a01b038088166004830152602482018390528316604482015260648101869052608401610388565b6001600160a01b03808716600090815260056020908152604080832093861683529290529081208054879290610b0f908490611c32565b9091555050505b610b2285600086610fb6565b6001600160a01b03851660009081526004602052604081208054869290610b4a908490611c32565b9250508190555060006001600160a01b0316856001600160a01b0316826001600160a01b03167f3997e418d2cef0b3b0e907b1e39605c3f7d32dbd061e82ea5b4a770d46a160a687600088604051610ba493929190611b7c565b60405180910390a4610bb98560008686611006565b5050505050565b6001600160a01b038216610c00576040517f6355e76600000000000000000000000000000000000000000000000000000000815260040160405180910390fd5b826001600160a01b0316826001600160a01b03161415610c1f57505050565b6001600160a01b0380841660009081526005602090815260408083209386168352929052208190558015610c935780836001600160a01b0316836001600160a01b03167fd66aff874162a96578e919097b6f6d153dfd89a5cec41bb331fdb0c4aec16e2c60405160405180910390a4505050565b826001600160a01b0316826001600160a01b03167f50546e66e5f44d728365dc3908c63bc5cfeeab470722c1677e3073a6ac294aa160405160405180910390a3505050565b6000818152600160205260409020805460609190610cf590611c75565b80601f0160208091040260200160405190810160405280929190818152602001828054610d2190611c75565b8015610d6e5780601f10610d4357610100808354040283529160200191610d6e565b820191906000526020600020905b815481529060010190602001808311610d5157829003601f168201915b50505050509050919050565b6001600160a01b038416610da157604051630d2d5ec360e41b815260040160405180910390fd5b33610dae60008686610fb6565b6001600160a01b03851660009081526004602052604081208054869290610dd6908490611c1a565b92505081905550846001600160a01b031660006001600160a01b0316826001600160a01b03167f3997e418d2cef0b3b0e907b1e39605c3f7d32dbd061e82ea5b4a770d46a160a6878787604051610e2f93929190611b7c565b60405180910390a4610bb96000868686866110e9565b6001600160a01b0385161580610e6257506001600160a01b038416155b15610e8057604051630d2d5ec360e41b815260040160405180910390fd5b6001600160a01b03851660009081526004602052604090205480841115610ed3576040516308d4794960e01b8152600481018290526001600160a01b038716602482015260448101859052606401610388565b33610edf878787610fb6565b6001600160a01b03871660009081526004602052604081208054879290610f07908490611c32565b90915550506001600160a01b03861660009081526004602052604081208054879290610f34908490611c1a565b92505081905550856001600160a01b0316876001600160a01b0316826001600160a01b03167f3997e418d2cef0b3b0e907b1e39605c3f7d32dbd061e82ea5b4a770d46a160a6888888604051610f8c93929190611b7c565b60405180910390a4610fa087878786611006565b610fad87878787876110e9565b50505050505050565b6001600160a01b038316610fdc578060036000828254610fd69190611c1a565b90915550505b6001600160a01b0382166103e1578060036000828254610ffc9190611c32565b9091555050505050565b61101784631aed5a8560e21b611262565b156104fe576000848484846040516020016110359493929190611a85565b60408051601f1981840301815290829052631aed5a8560e21b825291506001600160a01b03861690636bb56a1490611093907f40b8bec57d7b5ff0dbd9e9acd0a47dfeb0101e1a203766f5ccab00445fbf39e9908590600401611b50565b600060405180830381600087803b1580156110ad57600080fd5b505af11580156110c1573d6000803e3d6000fd5b505050506040513d6000823e601f3d908101601f191682016040526105a091908101906119c9565b6110fa84631aed5a8560e21b611262565b156111d3576000858585846040516020016111189493929190611a85565b60408051601f1981840301815290829052631aed5a8560e21b825291506001600160a01b03861690636bb56a1490611176907fdbe2c314e1aee2970c72666f2ebe8933a8575263ea71e5ff6a9178e95d47a26f908590600401611b50565b600060405180830381600087803b15801561119057600080fd5b505af11580156111a4573d6000803e3d6000fd5b505050506040513d6000823e601f3d908101601f191682016040526111cc91908101906119c9565b5050610bb9565b81610bb9576001600160a01b0384163b15611225576040517fa608fbb60000000000000000000000000000000000000000000000000000000081526001600160a01b0385166004820152602401610388565b6040517f26c247f40000000000000000000000000000000000000000000000000000000081526001600160a01b0385166004820152602401610388565b604080516001600160e01b0319831660248083019190915282518083039091018152604490910182526020810180517bffffffffffffffffffffffffffffffffffffffffffffffffffffffff166301ffc9a760e01b179052905160009190829081906001600160a01b03871690617530906112de908690611ad2565b6000604051808303818686fa925050503d806000811461131a576040519150601f19603f3d011682016040523d82523d6000602084013e61131f565b606091505b509150915060208151101561133a5760009350505050610307565b81801561135a57506000818060200190518101906113589190611a40565b115b9695505050505050565b82805461137090611c75565b90600052602060002090601f01602090048101928261139257600085556113d8565b82601f106113ab57805160ff19168380011785556113d8565b828001600101855582156113d8579182015b828111156113d85782518255916020019190600101906113bd565b506113e49291506113e8565b5090565b5b808211156113e457600081556001016113e9565b80356001600160a01b038116811461141457600080fd5b919050565b600082601f83011261142a57600080fd5b8135602061143f61143a83611bce565b611b9d565b80838252828201915082860187848660051b890101111561145f57600080fd5b60005b8581101561148557611473826113fd565b84529284019290840190600101611462565b5090979650505050505050565b600082601f8301126114a357600080fd5b813560206114b361143a83611bce565b80838252828201915082860187848660051b89010111156114d357600080fd5b60005b85811015611485578135845292840192908401906001016114d6565b600082601f83011261150357600080fd5b8135602061151361143a83611bce565b80838252828201915082860187848660051b890101111561153357600080fd5b6000805b8681101561157657823567ffffffffffffffff811115611555578283fd5b6115638b88838d0101611594565b8652509385019391850191600101611537565b509198975050505050505050565b8035801515811461141457600080fd5b600082601f8301126115a557600080fd5b81356115b361143a82611bf2565b8181528460208386010111156115c857600080fd5b816020850160208301376000918101602001919091529392505050565b6000602082840312156115f757600080fd5b611600826113fd565b9392505050565b6000806040838503121561161a57600080fd5b611623836113fd565b9150611631602084016113fd565b90509250929050565b600080600080600060a0868803121561165257600080fd5b61165b866113fd565b9450611669602087016113fd565b93506040860135925061167e60608701611584565b9150608086013567ffffffffffffffff81111561169a57600080fd5b6116a688828901611594565b9150509295509295909350565b600080604083850312156116c657600080fd5b6116cf836113fd565b946020939093013593505050565b600080600080608085870312156116f357600080fd5b6116fc856113fd565b93506020850135925061171160408601611584565b9150606085013567ffffffffffffffff81111561172d57600080fd5b61173987828801611594565b91505092959194509250565b60008060006060848603121561175a57600080fd5b611763846113fd565b925060208401359150604084013567ffffffffffffffff81111561178657600080fd5b61179286828701611594565b9150509250925092565b600080600080600060a086880312156117b457600080fd5b853567ffffffffffffffff808211156117cc57600080fd5b6117d889838a01611419565b96506020915081880135818111156117ef57600080fd5b6117fb8a828b01611419565b96505060408801358181111561181057600080fd5b8801601f81018a1361182157600080fd5b803561182f61143a82611bce565b8082825285820191508584018d878560051b870101111561184f57600080fd5b600094505b83851015611872578035835260019490940193918601918601611854565b5097506118859250505060608901611584565b9350608088013591508082111561189b57600080fd5b506116a6888289016114f2565b6000602082840312156118ba57600080fd5b813567ffffffffffffffff8111156118d157600080fd5b6118dd84828501611492565b949350505050565b600080604083850312156118f857600080fd5b823567ffffffffffffffff8082111561191057600080fd5b61191c86838701611492565b9350602085013591508082111561193257600080fd5b5061193f858286016114f2565b9150509250929050565b60006020828403121561195b57600080fd5b5035919050565b6000806040838503121561197557600080fd5b82359150602083013567ffffffffffffffff81111561199357600080fd5b61193f85828601611594565b6000602082840312156119b157600080fd5b81356001600160e01b03198116811461160057600080fd5b6000602082840312156119db57600080fd5b815167ffffffffffffffff8111156119f257600080fd5b8201601f81018413611a0357600080fd5b8051611a1161143a82611bf2565b818152856020838501011115611a2657600080fd5b611a37826020830160208601611c49565b95945050505050565b600060208284031215611a5257600080fd5b5051919050565b60008151808452611a71816020860160208601611c49565b601f01601f19169290920160200192915050565b60006bffffffffffffffffffffffff19808760601b168352808660601b166014840152508360288301528251611ac2816048850160208701611c49565b9190910160480195945050505050565b60008251611ae4818460208701611c49565b9190910192915050565b6000602080830181845280855180835260408601915060408160051b870101925083870160005b82811015611b4357603f19888603018452611b31858351611a59565b94509285019290850190600101611b15565b5092979650505050505050565b8281526040602082015260006118dd6040830184611a59565b6020815260006116006020830184611a59565b8381528215156020820152606060408201526000611a376060830184611a59565b604051601f8201601f1916810167ffffffffffffffff81118282101715611bc657611bc6611cf1565b604052919050565b600067ffffffffffffffff821115611be857611be8611cf1565b5060051b60200190565b600067ffffffffffffffff821115611c0c57611c0c611cf1565b50601f01601f191660200190565b60008219821115611c2d57611c2d611cc5565b500190565b600082821015611c4457611c44611cc5565b500390565b60005b83811015611c64578181015183820152602001611c4c565b838111156104fe5750506000910152565b600181811c90821680611c8957607f821691505b602082108114156104cd57634e487b7160e01b600052602260045260246000fd5b6000600019821415611cbe57611cbe611cc5565b5060010190565b634e487b7160e01b600052601160045260246000fd5b634e487b7160e01b600052603260045260246000fd5b634e487b7160e01b600052604160045260246000fdfea264697066735822122075ce74b43a552e12e564f0c6acf173019555502d85f5f8d2937f2b808e75aebb64736f6c63430008070033",
  "linkReferences": {},
  "deployedLinkReferences": {}
}