{
  "_format": "hh-sol-artifact-1",
  "contractName": "LSP6KeyManagerInit",
  "sourceName": "contracts/LSP6KeyManager/LSP6KeyManagerInit.sol",
  "abi": [
    {
      "inputs": [],
      "stateMutability": "nonpayable",
      "type": "constructor"
    },
    {
      "inputs": [
        {
          "internalType": "bytes",
          "name": "value",
          "type": "bytes"
        },
        {
          "internalType": "string",
          "name": "valueType",
          "type": "string"
        }
      ],
      "name": "InvalidABIEncodedArray",
      "type": "error"
    },
    {
      "inputs": [
        {
          "internalType": "bytes4",
          "name": "invalidFunction",
          "type": "bytes4"
        }
      ],
      "name": "InvalidERC725Function",
      "type": "error"
    },
    {
      "inputs": [],
      "name": "InvalidLSP6Target",
      "type": "error"
    },
    {
      "inputs": [
        {
          "internalType": "address",
          "name": "signer",
          "type": "address"
        },
        {
          "internalType": "uint256",
          "name": "invalidNonce",
          "type": "uint256"
        },
        {
          "internalType": "bytes",
          "name": "signature",
          "type": "bytes"
        }
      ],
      "name": "InvalidRelayNonce",
      "type": "error"
    },
    {
      "inputs": [
        {
          "internalType": "address",
          "name": "from",
          "type": "address"
        }
      ],
      "name": "NoPermissionsSet",
      "type": "error"
    },
    {
      "inputs": [
        {
          "internalType": "address",
          "name": "from",
          "type": "address"
        },
        {
          "internalType": "address",
          "name": "disallowedAddress",
          "type": "address"
        }
      ],
      "name": "NotAllowedAddress",
      "type": "error"
    },
    {
      "inputs": [
        {
          "internalType": "address",
          "name": "from",
          "type": "address"
        },
        {
          "internalType": "bytes32",
          "name": "disallowedKey",
          "type": "bytes32"
        }
      ],
      "name": "NotAllowedERC725YKey",
      "type": "error"
    },
    {
      "inputs": [
        {
          "internalType": "address",
          "name": "from",
          "type": "address"
        },
        {
          "internalType": "bytes4",
          "name": "disallowedFunction",
          "type": "bytes4"
        }
      ],
      "name": "NotAllowedFunction",
      "type": "error"
    },
    {
      "inputs": [
        {
          "internalType": "address",
          "name": "from",
          "type": "address"
        },
        {
          "internalType": "address",
          "name": "addressNotImplementingAllowedStandard",
          "type": "address"
        }
      ],
      "name": "NotAllowedStandard",
      "type": "error"
    },
    {
      "inputs": [
        {
          "internalType": "address",
          "name": "from",
          "type": "address"
        },
        {
          "internalType": "string",
          "name": "permission",
          "type": "string"
        }
      ],
      "name": "NotAuthorised",
      "type": "error"
    },
    {
      "anonymous": false,
      "inputs": [
        {
          "indexed": true,
          "internalType": "uint256",
          "name": "value",
          "type": "uint256"
        },
        {
          "indexed": false,
          "internalType": "bytes4",
          "name": "selector",
          "type": "bytes4"
        }
      ],
      "name": "Executed",
      "type": "event"
    },
    {
      "anonymous": false,
      "inputs": [
        {
          "indexed": false,
          "internalType": "uint8",
          "name": "version",
          "type": "uint8"
        }
      ],
      "name": "Initialized",
      "type": "event"
    },
    {
      "inputs": [
        {
          "internalType": "bytes",
          "name": "payload",
          "type": "bytes"
        }
      ],
      "name": "execute",
      "outputs": [
        {
          "internalType": "bytes",
          "name": "",
          "type": "bytes"
        }
      ],
      "stateMutability": "payable",
      "type": "function"
    },
    {
      "inputs": [
        {
          "internalType": "bytes",
          "name": "signature",
          "type": "bytes"
        },
        {
          "internalType": "uint256",
          "name": "nonce",
          "type": "uint256"
        },
        {
          "internalType": "bytes",
          "name": "payload",
          "type": "bytes"
        }
      ],
      "name": "executeRelayCall",
      "outputs": [
        {
          "internalType": "bytes",
          "name": "",
          "type": "bytes"
        }
      ],
      "stateMutability": "payable",
      "type": "function"
    },
    {
      "inputs": [
        {
          "internalType": "address",
          "name": "from",
          "type": "address"
        },
        {
          "internalType": "uint256",
          "name": "channelId",
          "type": "uint256"
        }
      ],
      "name": "getNonce",
      "outputs": [
        {
          "internalType": "uint256",
          "name": "",
          "type": "uint256"
        }
      ],
      "stateMutability": "view",
      "type": "function"
    },
    {
      "inputs": [
        {
          "internalType": "address",
          "name": "target_",
          "type": "address"
        }
      ],
      "name": "initialize",
      "outputs": [],
      "stateMutability": "nonpayable",
      "type": "function"
    },
    {
      "inputs": [
        {
          "internalType": "bytes32",
          "name": "dataHash",
          "type": "bytes32"
        },
        {
          "internalType": "bytes",
          "name": "signature",
          "type": "bytes"
        }
      ],
      "name": "isValidSignature",
      "outputs": [
        {
          "internalType": "bytes4",
          "name": "magicValue",
          "type": "bytes4"
        }
      ],
      "stateMutability": "view",
      "type": "function"
    },
    {
      "inputs": [
        {
          "internalType": "bytes4",
          "name": "interfaceId",
          "type": "bytes4"
        }
      ],
      "name": "supportsInterface",
      "outputs": [
        {
          "internalType": "bool",
          "name": "",
          "type": "bool"
        }
      ],
      "stateMutability": "view",
      "type": "function"
    },
    {
      "inputs": [],
      "name": "target",
      "outputs": [
        {
          "internalType": "address",
          "name": "",
          "type": "address"
        }
      ],
      "stateMutability": "view",
      "type": "function"
    }
  ],
  "bytecode": "0x60806040523480156200001157600080fd5b506200001c62000022565b620000e4565b600054610100900460ff16156200008f5760405162461bcd60e51b815260206004820152602760248201527f496e697469616c697a61626c653a20636f6e747261637420697320696e697469604482015266616c697a696e6760c81b606482015260840160405180910390fd5b60005460ff9081161015620000e2576000805460ff191660ff9081179091556040519081527f7f26b83ff96e1f2b6a682f133852f6798a09c465da95921460cefb38474024989060200160405180910390a15b565b61305c80620000f46000396000f3fe6080604052600436106100705760003560e01c8063895358031161004e5780638953580314610103578063902d5fa01461016e578063c4d66de814610181578063d4b83992146101a357600080fd5b806301ffc9a71461007557806309c5eabe146100aa5780631626ba7e146100ca575b600080fd5b34801561008157600080fd5b50610095610090366004612a00565b6101e1565b60405190151581526020015b60405180910390f35b6100bd6100b8366004612a1d565b61024c565b6040516100a19190612c3b565b3480156100d657600080fd5b506100ea6100e53660046129c3565b610362565b6040516001600160e01b031990911681526020016100a1565b34801561010f57600080fd5b5061016061011e366004612715565b6001600160a01b039190911660009081526001602090815260408083208484529091529020546fffffffffffffffffffffffffffffffff1660809190911b1790565b6040519081526020016100a1565b6100bd61017c366004612ad6565b6103bf565b34801561018d57600080fd5b506101a161019c3660046126f8565b6105f8565b005b3480156101af57600080fd5b506000546101c9906201000090046001600160a01b031681565b6040516001600160a01b0390911681526020016100a1565b60006001600160e01b031982167fc403d48f00000000000000000000000000000000000000000000000000000000148061022b57506001600160e01b03198216630b135d3f60e11b145b8061024657506301ffc9a760e01b6001600160e01b03198316145b92915050565b606061025933848461071a565b6000805481906201000090046001600160a01b0316345a908787604051610281929190612b8b565b600060405180830381858888f193505050503d80600081146102bf576040519150601f19603f3d011682016040523d82523d6000602084013e6102c4565b606091505b509150915060006102ee8383604051806080016040528060428152602001612fe560429139610b16565b9050347f6b9340454526f665e369d7ac17353d0b73774a4a80f746b959ece8130e0f1d7261031c8789612e8c565b6040516001600160e01b0319909116815260200160405180910390a280516103445780610358565b808060200190518101906103589190612a5f565b9695505050505050565b60008061036f8484610b56565b60005490915061039c9061020090610396906201000090046001600160a01b031684610b7a565b81161490565b6103ae576001600160e01b03196103b7565b630b135d3f60e11b5b949350505050565b6060600046308686866040516020016103dc959493929190612bb7565b604051602081830303815290604052905060006104578761045184805190602001206040517f19457468657265756d205369676e6564204d6573736167653a0a3332000000006020820152603c8101829052600090605c01604051602081830303815290604052805190602001209050919050565b90610b56565b90506104638187610c24565b6104a8578086886040517fc9bd9eb900000000000000000000000000000000000000000000000000000000815260040161049f93929190612c13565b60405180910390fd5b6001600160a01b038116600090815260016020908152604080832060808a901c845290915281208054916104db83612f24565b91905055506104eb81868661071a565b6000805481906201000090046001600160a01b0316345a908989604051610513929190612b8b565b600060405180830381858888f193505050503d8060008114610551576040519150601f19603f3d011682016040523d82523d6000602084013e610556565b606091505b509150915060006105808383604051806080016040528060428152602001612fe560429139610b16565b9050347f6b9340454526f665e369d7ac17353d0b73774a4a80f746b959ece8130e0f1d726105ae898b612e8c565b6040516001600160e01b0319909116815260200160405180910390a280516105d657806105ea565b808060200190518101906105ea9190612a5f565b9a9950505050505050505050565b600054610100900460ff16158080156106185750600054600160ff909116105b806106325750303b158015610632575060005460ff166001145b6106a45760405162461bcd60e51b815260206004820152602e60248201527f496e697469616c697a61626c653a20636f6e747261637420697320616c72656160448201527f647920696e697469616c697a6564000000000000000000000000000000000000606482015260840161049f565b6000805460ff1916600117905580156106c7576000805461ff0019166101001790555b6106d082610c6f565b8015610716576000805461ff0019169055604051600181527f7f26b83ff96e1f2b6a682f133852f6798a09c465da95921460cefb38474024989060200160405180910390a15b5050565b60006107296004828486612dc1565b61073291612e8c565b6000805491925090610753906201000090046001600160a01b031686610b7a565b905080610797576040517ff292052a0000000000000000000000000000000000000000000000000000000081526001600160a01b038616600482015260240161049f565b6001600160e01b031982167f7f23690c0000000000000000000000000000000000000000000000000000000014156108b5576000806107d98560048189612dc1565b8101906107e691906129c3565b90925090507fffffffffffff00000000000000000000000000000000000000000000000000008216654b80742de2bf60d01b148061084957506fffffffffffffffffffffffffffffffff1982166f6f986dd036db5187329aa6cd326304c360811b145b1561085f5761085a82828986610d6c565b6108ae565b60408051600180825281830190925260009160208083019080368337019050509050828160008151811061089557610895612f8d565b6020026020010181815250506108ac8885836110a3565b505b5050610b0f565b6001600160e01b031982167f14a6e293000000000000000000000000000000000000000000000000000000001415610a16576000806108f78560048189612dc1565b810190610904919061286e565b915091506000805b8351811015610a0457600084828151811061092957610929612f8d565b60200260200101519050600084838151811061094757610947612f8d565b602090810291909101015190507fffffffffffff00000000000000000000000000000000000000000000000000008216654b80742de2bf60d01b14806109b257506fffffffffffffffffffffffffffffffff1982166f6f986dd036db5187329aa6cd326304c360811b145b156109ea576109c382828d8a610d6c565b6000801b8684815181106109d9576109d9612f8d565b6020026020010181815250506109ef565b600193505b505080806109fc90612f24565b91505061090c565b5080156108ac576108ac8885856110a3565b6001600160e01b031982167f44c028fe000000000000000000000000000000000000000000000000000000001415610a5957610a54858286866110d0565b610b0f565b6001600160e01b031982167ff2fde38b000000000000000000000000000000000000000000000000000000001480610aba57506001600160e01b031982167f4e71e0c800000000000000000000000000000000000000000000000000000000145b15610ad157610acb85826001611360565b50610b0f565b6040517f2ba8851c0000000000000000000000000000000000000000000000000000000081526001600160e01b03198316600482015260240161049f565b5050505050565b60608315610b25575081610b4f565b825115610b355782518084602001fd5b8160405162461bcd60e51b815260040161049f9190612c3b565b9392505050565b6000806000610b6585856113ae565b91509150610b728161141e565b509392505050565b6000806001600160a01b0384166354f6127f610ba7694b80742de2bf82acb36360b01b606087901b6115dc565b6040518263ffffffff1660e01b8152600401610bc591815260200190565b60006040518083038186803b158015610bdd57600080fd5b505afa158015610bf1573d6000803e3d6000fd5b505050506040513d6000823e601f3d908101601f19168201604052610c199190810190612a5f565b90506103b781612eba565b6001600160a01b0382166000908152600160209081526040808320608085901c8452909152812054610c6770010000000000000000000000000000000084612f3f565b149392505050565b600054610100900460ff16610cec5760405162461bcd60e51b815260206004820152602b60248201527f496e697469616c697a61626c653a20636f6e7472616374206973206e6f74206960448201527f6e697469616c697a696e67000000000000000000000000000000000000000000606482015260840161049f565b6001600160a01b038116610d2c576040517ffc85457900000000000000000000000000000000000000000000000000000000815260040160405180910390fd5b600080546001600160a01b0390921662010000027fffffffffffffffffffff0000000000000000000000000000000000000000ffff909216919091179055565b6001600160a01b03198416694b80742de2bf82acb36360b01b1415610d9b57610d96848383611626565b61109d565b7fdf30dba06db6a30e65354d9a64c609861f089545ca58c6b4dbe31a5f338cb0e3841415610dcf57610d96848484846116d3565b6fffffffffffffffffffffffffffffffff1984166f6f986dd036db5187329aa6cd326304c360811b1415610e0f57610e0982826002611360565b5061109d565b6001600160a01b031984166912e01d0b78aff1b75acf60b21b1415610f1d57825115801581610e445750610e4284611785565b155b15610e645783604051635b0a748f60e11b815260040161049f9190612c4e565b600080546040516354f6127f60e01b815260048101889052620100009091046001600160a01b0316906354f6127f9060240160006040518083038186803b158015610eae57600080fd5b505afa158015610ec2573d6000803e3d6000fd5b505050506040513d6000823e601f3d908101601f19168201604052610eea9190810190612a5f565b9050805160001415610f0857610f0284846004611360565b50610f16565b610f1484846002611360565b505b505061109d565b6001600160a01b03198416694b80742de2bf3efa94a360b01b1480610f5857506001600160a01b031984166909700e85bc57f1dfd43d60b31b145b15610f9357825115801581610f735750610f7184611829565b155b15610e645783604051635b0a748f60e11b815260040161049f9190612ca0565b6001600160a01b03198416694b80742de2bf90b8b48560b01b141561109d57825115801581610fc85750610fc6846118c0565b155b15610fe85783604051635b0a748f60e11b815260040161049f9190612cf2565b600080546040516354f6127f60e01b815260048101889052620100009091046001600160a01b0316906354f6127f9060240160006040518083038186803b15801561103257600080fd5b505afa158015611046573d6000803e3d6000fd5b505050506040513d6000823e601f3d908101601f1916820160405261106e9190810190612a5f565b905080516000141561108c5761108684846004611360565b5061109a565b61109884846002611360565b505b50505b50505050565b61040080831614156110b457505050565b6110c083836008611360565b506110cb8382611941565b505050565b60006110e0602460048486612dc1565b6110e991612e6e565b9050600581106111615760405162461bcd60e51b815260206004820152602660248201527f4c5350364b65794d616e616765723a20696e76616c6964206f7065726174696f60448201527f6e20747970650000000000000000000000000000000000000000000000000000606482015260840161049f565b60048114156111d85760405162461bcd60e51b815260206004820152603e60248201527f4c5350364b65794d616e616765723a206f7065726174696f6e2044454c45474160448201527f544543414c4c2069732063757272656e746c7920646973616c6c6f7765640000606482015260840161049f565b60006111e8606460448587612dc1565b6111f191612e6e565b9050600060018314806112045750600283145b905060a484116000826112295761122461121d86611b3c565b8981161490565b61122c565b60005b9050811561125057808061124e575061124e898961124988611b75565b611360565b505b61080088811614841561127357808061127157506112718a8a610100611360565b505b83156112845750505050505061109d565b81801561128e5750825b8015611298575084155b156112a85750505050505061109d565b8080156112b3575082155b80156112bf5750600085115b156112cf5750505050505061109d565b8180156112d95750805b156112e95750505050505061109d565b60006112f9604460308a8c612dc1565b61130291612e39565b60601c90506113118b82611bc8565b6001600160a01b0381163b156113535761132b8b82611cbd565b60a88810611353576113538b61134560a860a48c8e612dc1565b61134e91612e8c565b611db9565b5050505050505050505050565b60008183168214610b4f57600061137683611eb8565b905084816040517f3bdad6e600000000000000000000000000000000000000000000000000000000815260040161049f929190612bf1565b6000808251604114156113e55760208301516040840151606085015160001a6113d987828585612150565b94509450505050611417565b82516040141561140f576020830151604084015161140486838361223d565b935093505050611417565b506000905060025b9250929050565b600081600481111561143257611432612f77565b141561143b5750565b600181600481111561144f5761144f612f77565b141561149d5760405162461bcd60e51b815260206004820152601860248201527f45434453413a20696e76616c6964207369676e61747572650000000000000000604482015260640161049f565b60028160048111156114b1576114b1612f77565b14156114ff5760405162461bcd60e51b815260206004820152601f60248201527f45434453413a20696e76616c6964207369676e6174757265206c656e67746800604482015260640161049f565b600381600481111561151357611513612f77565b141561156c5760405162461bcd60e51b815260206004820152602260248201527f45434453413a20696e76616c6964207369676e6174757265202773272076616c604482015261756560f01b606482015260840161049f565b600481600481111561158057611580612f77565b14156115d95760405162461bcd60e51b815260206004820152602260248201527f45434453413a20696e76616c6964207369676e6174757265202776272076616c604482015261756560f01b606482015260840161049f565b50565b604080516001600160a01b0319841660208201526bffffffffffffffffffffffff198316602c8201526000918291016040516020818303038152906040529050806103b790612eba565b600080546040516354f6127f60e01b815260048101869052620100009091046001600160a01b0316906354f6127f9060240160006040518083038186803b15801561167057600080fd5b505afa158015611684573d6000803e3d6000fd5b505050506040513d6000823e601f3d908101601f191682016040526116ac9190810190612a5f565b6116b590612eba565b14156116c75761109d82826004611360565b61109d82826002611360565b600080546040516354f6127f60e01b815260048101879052620100009091046001600160a01b0316906354f6127f9060240160006040518083038186803b15801561171d57600080fd5b505afa158015611731573d6000803e3d6000fd5b505050506040513d6000823e601f3d908101601f191682016040526117599190810190612a5f565b61176290612eba565b9050600061176f85612eba565b90508181111561108c5761108684846004611360565b6000611790826118c0565b61179c57506000919050565b60006117a783612eba565b905060006117b5848361228f565b905060006117c4836020612deb565b905060005b8281101561181d5760006117dd87846122f5565b90506001600160a01b03198116156117fc575060009695505050505050565b611807602084612deb565b925050808061181590612f24565b9150506117c9565b50600195945050505050565b6000611834826118c0565b61184057506000919050565b600061184b83612eba565b90506000611859848361228f565b90506000611868836020612deb565b905060005b8281101561181d57600061188187846122f5565b90506001600160e01b0381161561189f575060009695505050505050565b6118aa602084612deb565b92505080806118b890612f24565b91505061186d565b805160009060208110156118d75750600092915050565b60006118e284612eba565b9050808210156118f6575060009392505050565b6000611902858361228f565b905061190f816020612e03565b61191a836020612deb565b6119249190612deb565b83101561193657506000949350505050565b506001949350505050565b6000805461195e906201000090046001600160a01b031684612352565b90508051600014806119765750611974816118c0565b155b1561198057505050565b60008180602001905181019061199691906127e2565b905060008060005b8351811015611a99576119c98482815181106119bc576119bc612f8d565b60200260200101516123ee565b925060005b8651811015611a86576000801b8782815181106119ed576119ed612f8d565b60200260200101511415611a0057611a74565b611a0b846008612e03565b60001960001b901b925082878281518110611a2857611a28612f8d565b602002602001015116858381518110611a4357611a43612f8d565b60200260200101511415611a74576000801b878281518110611a6757611a67612f8d565b6020026020010181815250505b80611a7e81612f24565b9150506119ce565b5080611a9181612f24565b91505061199e565b5060005b8551811015611098576000801b868281518110611abc57611abc612f8d565b602002602001015114611b2a5786868281518110611adc57611adc612f8d565b60209081029190910101516040517f3003e7ae0000000000000000000000000000000000000000000000000000000081526001600160a01b039092166004830152602482015260440161049f565b80611b3481612f24565b915050611a9d565b600081611b4c5750611000919050565b6003821415611b5e5750612000919050565b6004821415611b705750614000919050565b919050565b600081611b8457506010919050565b6001821415611b9557506080919050565b6002821415611ba657506080919050565b6003821415611bb757506020919050565b6004821415611b7057506040919050565b60008054611be5906201000090046001600160a01b031684612464565b9050805160001480611bfd5750611bfb81611785565b155b15611c0757505050565b600081806020019051810190611c1d9190612741565b905060005b8151811015611c7757818181518110611c3d57611c3d612f8d565b60200260200101516001600160a01b0316846001600160a01b03161415611c65575050505050565b80611c6f81612f24565b915050611c22565b506040517f2879b1280000000000000000000000000000000000000000000000000000000081526001600160a01b0380861660048301528416602482015260440161049f565b60008054611cda906201000090046001600160a01b03168461248e565b9050805160001480611cf25750611cf081611829565b155b15611cfc57505050565b600081806020019051810190611d12919061292e565b905060005b8151811015611d7357611d55828281518110611d3557611d35612f8d565b6020026020010151856001600160a01b03166124b890919063ffffffff16565b15611d61575050505050565b80611d6b81612f24565b915050611d17565b506040517f42013ee40000000000000000000000000000000000000000000000000000000081526001600160a01b0380861660048301528416602482015260440161049f565b60008054611dd6906201000090046001600160a01b0316846125a4565b9050805160001480611dee5750611dec81611829565b155b15611df857505050565b600081806020019051810190611e0e919061292e565b905060005b8151811015611e6a57818181518110611e2e57611e2e612f8d565b60200260200101516001600160e01b031916846001600160e01b0319161415611e58575050505050565b80611e6281612f24565b915050611e13565b506040517f841351100000000000000000000000000000000000000000000000000000000081526001600160a01b03851660048201526001600160e01b03198416602482015260440161049f565b60606001821415611efc57505060408051808201909152601181527f5452414e534645524f574e455253484950000000000000000000000000000000602082015290565b6002821415611f3e57505060408051808201909152601181527f4348414e47455045524d495353494f4e53000000000000000000000000000000602082015290565b6004821415611f8057505060408051808201909152600e81527f4144445045524d495353494f4e53000000000000000000000000000000000000602082015290565b6008821415611fc257505060408051808201909152600781527f5345544441544100000000000000000000000000000000000000000000000000602082015290565b601082141561200457505060408051808201909152600481527f43414c4c00000000000000000000000000000000000000000000000000000000602082015290565b602082141561204657505060408051808201909152600a81527f53544154494343414c4c00000000000000000000000000000000000000000000602082015290565b604082141561208857505060408051808201909152600c81527f44454c454741544543414c4c0000000000000000000000000000000000000000602082015290565b60808214156120ca57505060408051808201909152600681527f4445504c4f590000000000000000000000000000000000000000000000000000602082015290565b61010082141561210d57505060408051808201909152600d81527f5452414e5346455256414c554500000000000000000000000000000000000000602082015290565b610200821415611b7057505060408051808201909152600481527f5349474e00000000000000000000000000000000000000000000000000000000602082015290565b6000807f7fffffffffffffffffffffffffffffff5d576e7357a4501ddfe92f46681b20a08311156121875750600090506003612234565b8460ff16601b1415801561219f57508460ff16601c14155b156121b05750600090506004612234565b6040805160008082526020820180845289905260ff881692820192909252606081018690526080810185905260019060a0016020604051602081039080840390855afa158015612204573d6000803e3d6000fd5b5050604051601f1901519150506001600160a01b03811661222d57600060019250925050612234565b9150600090505b94509492505050565b6000807f7fffffffffffffffffffffffffffffffffffffffffffffffffffffffffffffff83168161227360ff86901c601b612deb565b905061228187828885612150565b935093505050935093915050565b600061229c826020612deb565b835110156122ec5760405162461bcd60e51b815260206004820152601560248201527f746f55696e743235365f6f75744f66426f756e64730000000000000000000000604482015260640161049f565b50016020015190565b6000612302826020612deb565b835110156122ec5760405162461bcd60e51b815260206004820152601560248201527f746f427974657333325f6f75744f66426f756e64730000000000000000000000604482015260640161049f565b60606001600160a01b0383166354f6127f61237c694b80742de2bf90b8b48560b01b85851b6115dc565b6040518263ffffffff1660e01b815260040161239a91815260200190565b60006040518083038186803b1580156123b257600080fd5b505afa1580156123c6573d6000803e3d6000fd5b505050506040513d6000823e601f3d908101601f19168201604052610b4f9190810190612a5f565b6000601f5b82816020811061240557612405612f8d565b1a60f81b7fff000000000000000000000000000000000000000000000000000000000000001615801561243757508015155b1561244e578061244681612f0d565b9150506123f3565b612459816001612deb565b610b4f906020612e22565b60606001600160a01b0383166354f6127f61237c6912e01d0b78aff1b75acf60b21b85851b6115dc565b60606001600160a01b0383166354f6127f61237c694b80742de2bf3efa94a360b01b85851b6115dc565b604080516001600160e01b0319831660248083019190915282518083039091018152604490910182526020810180516001600160e01b03166301ffc9a760e01b179052905160009190829081906001600160a01b038716906175309061251f908690612b9b565b6000604051808303818686fa925050503d806000811461255b576040519150601f19603f3d011682016040523d82523d6000602084013e612560565b606091505b509150915060208151101561257b5760009350505050610246565b81801561035857506000818060200190518101906125999190612b46565b119695505050505050565b60606001600160a01b0383166354f6127f61237c6909700e85bc57f1dfd43d60b31b85851b6115dc565b600082601f8301126125df57600080fd5b813560206125f46125ef83612d75565b612d44565b80838252828201915082860187848660051b890101111561261457600080fd5b6000805b8681101561265757823567ffffffffffffffff811115612636578283fd5b6126448b88838d01016126a7565b8652509385019391850191600101612618565b509198975050505050505050565b60008083601f84011261267757600080fd5b50813567ffffffffffffffff81111561268f57600080fd5b60208301915083602082850101111561141757600080fd5b600082601f8301126126b857600080fd5b81356126c66125ef82612d99565b8181528460208386010111156126db57600080fd5b816020850160208301376000918101602001919091529392505050565b60006020828403121561270a57600080fd5b8135610b4f81612fb9565b6000806040838503121561272857600080fd5b823561273381612fb9565b946020939093013593505050565b6000602080838503121561275457600080fd5b825167ffffffffffffffff81111561276b57600080fd5b8301601f8101851361277c57600080fd5b805161278a6125ef82612d75565b80828252848201915084840188868560051b87010111156127aa57600080fd5b600094505b838510156127d65780516127c281612fb9565b8352600194909401939185019185016127af565b50979650505050505050565b600060208083850312156127f557600080fd5b825167ffffffffffffffff81111561280c57600080fd5b8301601f8101851361281d57600080fd5b805161282b6125ef82612d75565b80828252848201915084840188868560051b870101111561284b57600080fd5b600094505b838510156127d6578051835260019490940193918501918501612850565b6000806040838503121561288157600080fd5b823567ffffffffffffffff8082111561289957600080fd5b818501915085601f8301126128ad57600080fd5b813560206128bd6125ef83612d75565b8083825282820191508286018a848660051b89010111156128dd57600080fd5b600096505b848710156129005780358352600196909601959183019183016128e2565b509650508601359250508082111561291757600080fd5b50612924858286016125ce565b9150509250929050565b6000602080838503121561294157600080fd5b825167ffffffffffffffff81111561295857600080fd5b8301601f8101851361296957600080fd5b80516129776125ef82612d75565b80828252848201915084840188868560051b870101111561299757600080fd5b600094505b838510156127d65780516129af81612fce565b83526001949094019391850191850161299c565b600080604083850312156129d657600080fd5b82359150602083013567ffffffffffffffff8111156129f457600080fd5b612924858286016126a7565b600060208284031215612a1257600080fd5b8135610b4f81612fce565b60008060208385031215612a3057600080fd5b823567ffffffffffffffff811115612a4757600080fd5b612a5385828601612665565b90969095509350505050565b600060208284031215612a7157600080fd5b815167ffffffffffffffff811115612a8857600080fd5b8201601f81018413612a9957600080fd5b8051612aa76125ef82612d99565b818152856020838501011115612abc57600080fd5b612acd826020830160208601612ee1565b95945050505050565b60008060008060608587031215612aec57600080fd5b843567ffffffffffffffff80821115612b0457600080fd5b612b10888389016126a7565b9550602087013594506040870135915080821115612b2d57600080fd5b50612b3a87828801612665565b95989497509550505050565b600060208284031215612b5857600080fd5b5051919050565b60008151808452612b77816020860160208601612ee1565b601f01601f19169290920160200192915050565b8183823760009101908152919050565b60008251612bad818460208701612ee1565b9190910192915050565b8581526bffffffffffffffffffffffff198560601b1660208201528360348201528183605483013760009101605401908152949350505050565b6001600160a01b03831681526040602082015260006103b76040830184612b5f565b6001600160a01b0384168152826020820152606060408201526000612acd6060830184612b5f565b602081526000610b4f6020830184612b5f565b604081526000612c616040830184612b5f565b8281036020840152600781527f616464726573730000000000000000000000000000000000000000000000000060208201526040810191505092915050565b604081526000612cb36040830184612b5f565b8281036020840152600681527f627974657334000000000000000000000000000000000000000000000000000060208201526040810191505092915050565b604081526000612d056040830184612b5f565b8281036020840152600781527f627974657333320000000000000000000000000000000000000000000000000060208201526040810191505092915050565b604051601f8201601f1916810167ffffffffffffffff81118282101715612d6d57612d6d612fa3565b604052919050565b600067ffffffffffffffff821115612d8f57612d8f612fa3565b5060051b60200190565b600067ffffffffffffffff821115612db357612db3612fa3565b50601f01601f191660200190565b60008085851115612dd157600080fd5b83861115612dde57600080fd5b5050820193919092039150565b60008219821115612dfe57612dfe612f61565b500190565b6000816000190483118215151615612e1d57612e1d612f61565b500290565b600082821015612e3457612e34612f61565b500390565b6bffffffffffffffffffffffff198135818116916014851015612e665780818660140360031b1b83161692505b505092915050565b8035602083101561024657600019602084900360031b1b1692915050565b6001600160e01b03198135818116916004851015612e665760049490940360031b84901b1690921692915050565b80516020808301519190811015612edb576000198160200360031b1b821691505b50919050565b60005b83811015612efc578181015183820152602001612ee4565b8381111561109d5750506000910152565b600081612f1c57612f1c612f61565b506000190190565b6000600019821415612f3857612f38612f61565b5060010190565b600082612f5c57634e487b7160e01b600052601260045260246000fd5b500690565b634e487b7160e01b600052601160045260246000fd5b634e487b7160e01b600052602160045260246000fd5b634e487b7160e01b600052603260045260246000fd5b634e487b7160e01b600052604160045260246000fd5b6001600160a01b03811681146115d957600080fd5b6001600160e01b0319811681146115d957600080fdfe4c5350363a20556e6b6e6f77204572726f72206f636375726564207768656e2063616c6c696e6720746865206c696e6b65642074617267657420636f6e7472616374a2646970667358221220b5f59ddd470e57d386a48060b51561145a6eea9ba9ab8341f8a1638d627c4bea64736f6c63430008070033",
  "linkReferences": {},
  "deployedLinkReferences": {}
}