{
  "_format": "hh-sol-artifact-1",
  "contractName": "ImplementationTester",
  "sourceName": "contracts/Helpers/ImplementationTester.sol",
  "abi": [
    {
      "anonymous": false,
      "inputs": [
        {
          "indexed": false,
          "internalType": "uint8",
          "name": "version",
          "type": "uint8"
        }
      ],
      "name": "Initialized",
      "type": "event"
    },
    {
      "inputs": [
        {
          "internalType": "address",
          "name": "newOwner",
          "type": "address"
        }
      ],
      "name": "initialize",
      "outputs": [],
      "stateMutability": "nonpayable",
      "type": "function"
    },
    {
      "inputs": [],
      "name": "owner",
      "outputs": [
        {
          "internalType": "address",
          "name": "",
          "type": "address"
        }
      ],
      "stateMutability": "view",
      "type": "function"
    }
  ],
  "bytecode": "0x608060405234801561001057600080fd5b50610287806100206000396000f3fe608060405234801561001057600080fd5b50600436106100365760003560e01c80638da5cb5b1461003b578063c4d66de814610083575b600080fd5b60005462010000900473ffffffffffffffffffffffffffffffffffffffff1660405173ffffffffffffffffffffffffffffffffffffffff909116815260200160405180910390f35b610096610091366004610214565b610098565b005b600054610100900460ff16158080156100b85750600054600160ff909116105b806100d25750303b1580156100d2575060005460ff166001145b610162576040517f08c379a000000000000000000000000000000000000000000000000000000000815260206004820152602e60248201527f496e697469616c697a61626c653a20636f6e747261637420697320616c72656160448201527f647920696e697469616c697a6564000000000000000000000000000000000000606482015260840160405180910390fd5b6000805460ff191660011790558015610185576000805461ff0019166101001790555b600080547fffffffffffffffffffff0000000000000000000000000000000000000000ffff166201000073ffffffffffffffffffffffffffffffffffffffff8516021790558015610210576000805461ff0019169055604051600181527f7f26b83ff96e1f2b6a682f133852f6798a09c465da95921460cefb38474024989060200160405180910390a15b5050565b60006020828403121561022657600080fd5b813573ffffffffffffffffffffffffffffffffffffffff8116811461024a57600080fd5b939250505056fea2646970667358221220dde92850c4564160481416950747663ed5ba204d2ce8f27e28aec1a69d92d8a664736f6c63430008070033",
  "linkReferences": {},
  "deployedLinkReferences": {}
}