{
  "_format": "hh-sol-artifact-1",
  "contractName": "LSP1UniversalReceiverDelegateUP",
  "sourceName": "contracts/LSP1UniversalReceiver/LSP1UniversalReceiverDelegateUP/LSP1UniversalReceiverDelegateUP.sol",
  "abi": [
    {
      "inputs": [
        {
          "internalType": "bytes",
          "name": "invalidValue",
          "type": "bytes"
        },
        {
          "internalType": "uint256",
          "name": "invalidValueLength",
          "type": "uint256"
        }
      ],
      "name": "InvalidLSP5ReceivedAssetsArrayLength",
      "type": "error"
    },
    {
      "inputs": [
        {
          "internalType": "bytes4",
          "name": "interfaceId",
          "type": "bytes4"
        }
      ],
      "name": "supportsInterface",
      "outputs": [
        {
          "internalType": "bool",
          "name": "",
          "type": "bool"
        }
      ],
      "stateMutability": "view",
      "type": "function"
    },
    {
      "inputs": [
        {
          "internalType": "address",
          "name": "sender",
          "type": "address"
        },
        {
          "internalType": "uint256",
          "name": "value",
          "type": "uint256"
        },
        {
          "internalType": "bytes32",
          "name": "typeId",
          "type": "bytes32"
        },
        {
          "internalType": "bytes",
          "name": "data",
          "type": "bytes"
        }
      ],
      "name": "universalReceiverDelegate",
      "outputs": [
        {
          "internalType": "bytes",
          "name": "result",
          "type": "bytes"
        }
      ],
      "stateMutability": "nonpayable",
      "type": "function"
    }
  ],
  "bytecode": "0x608060405234801561001057600080fd5b50611afd806100206000396000f3fe608060405234801561001057600080fd5b50600436106100365760003560e01c806301ffc9a71461003b578063a245bbda14610063575b600080fd5b61004e610049366004611704565b610083565b60405190151581526020015b60405180910390f35b61007661007136600461165e565b6100d3565b60405161005a91906118dc565b60006001600160e01b031982167fa245bbda0000000000000000000000000000000000000000000000000000000014806100cd57506301ffc9a760e01b6001600160e01b03198316145b92915050565b60607f40b8bec57d7b5ff0dbd9e9acd0a47dfeb0101e1a203766f5ccab00445fbf39e983148061012257507fdbe2c314e1aee2970c72666f2ebe8933a8575263ea71e5ff6a9178e95d47a26f83145b8061014c57507f3724c94f0815e936299cca424da4140752198e0beb7931a6e0925d11bc97544c83145b8061017657507fc7a120a42b6057a0cbed111fbbfbd52fcd96748c04394f77fc2c3adbe0391e0183145b806101a057507f3ca9f769340018257ac15b3a00e502e8fb730d66086f774210f84d0205af31e783145b806101ca57507f09aaf55960715d8d86b57af40be36b0bfd469c9a3643445d8c65d39e27b4c56f83145b156101dc576101d985846101e4565b90505b949350505050565b60606001600160a01b0383163b61020a57506040805160208101909152600081526100cd565b6000336001600160a01b0316638da5cb5b6040518163ffffffff1660e01b815260040160206040518083038186803b15801561024557600080fd5b505afa158015610259573d6000803e3d6000fd5b505050506040513d601f19601f8201168201806040525081019061027d9190611641565b90506102a9817fc403d48f000000000000000000000000000000000000000000000000000000006105ad565b6102c35750506040805160208101909152600081526100cd565b6000816001600160a01b031663d4b839926040518163ffffffff1660e01b815260040160206040518083038186803b1580156102fe57600080fd5b505afa158015610312573d6000803e3d6000fd5b505050506040513d601f19601f820116820180604052508101906103369190611641565b9050336001600160a01b038216146103615760405180602001604052806000815250925050506100cd565b600080600080610370886106af565b93509350935093506000610387838b60601b610940565b6040516354f6127f60e01b81526004810182905290915060009033906354f6127f9060240160006040518083038186803b1580156103c457600080fd5b505afa1580156103d8573d6000803e3d6000fd5b505050506040513d6000823e601f3d908101601f19168201604052610400919081019061172e565b9050851561046357600061041382611999565b73ffffffffffffffffffffffffffffffffffffffff19161461044e5760405180602001604052806000815250985050505050505050506100cd565b61045c3386848e878d610997565b985061059f565b600061046e82611999565b73ffffffffffffffffffffffffffffffffffffffff191614156104aa5760405180602001604052806000815250985050505050505050506100cd565b7f3ca9f769340018257ac15b3a00e502e8fb730d66086f774210f84d0205af31e78a1461058e576040517f70a082310000000000000000000000000000000000000000000000000000000081523360048201526000906001600160a01b038d16906370a082319060240160206040518083038186803b15801561052c57600080fd5b505afa158015610540573d6000803e3d6000fd5b505050506040513d601f19601f82011682018060405250810190610564919061179c565b9050801561058c576040518060200160405280600081525099505050505050505050506100cd565b505b61059c33868685858d6109c5565b98505b505050505050505092915050565b604080516001600160e01b0319831660248083019190915282518083039091018152604490910182526020810180517bffffffffffffffffffffffffffffffffffffffffffffffffffffffff166301ffc9a760e01b179052905160009190829081906001600160a01b03871690617530906106299086906117e1565b6000604051808303818686fa925050503d8060008114610665576040519150601f19603f3d011682016040523d82523d6000602084013e61066a565b606091505b509150915060208151101561068557600093505050506100cd565b8180156106a557506000818060200190518101906106a3919061179c565b115b9695505050505050565b60008080807f40b8bec57d7b5ff0dbd9e9acd0a47dfeb0101e1a203766f5ccab00445fbf39e985148061070157507fdbe2c314e1aee2970c72666f2ebe8933a8575263ea71e5ff6a9178e95d47a26f85145b8061072b57507fc7a120a42b6057a0cbed111fbbfbd52fcd96748c04394f77fc2c3adbe0391e0185145b8061075557507f3724c94f0815e936299cca424da4140752198e0beb7931a6e0925d11bc97544c85145b1561089d577f6460ee3c0aac563ccbf76d6e1d07bada78e3a9514e6382b736ed3f478ab7b90b92507f812c4334633eb816c80d0000000000000000000000000000000000000000000091507f40b8bec57d7b5ff0dbd9e9acd0a47dfeb0101e1a203766f5ccab00445fbf39e98514806107ed57507fdbe2c314e1aee2970c72666f2ebe8933a8575263ea71e5ff6a9178e95d47a26f85145b610817577f4939914500000000000000000000000000000000000000000000000000000000610839565b7fe33f65c3000000000000000000000000000000000000000000000000000000005b90507fdbe2c314e1aee2970c72666f2ebe8933a8575263ea71e5ff6a9178e95d47a26f85148061088857507fc7a120a42b6057a0cbed111fbbfbd52fcd96748c04394f77fc2c3adbe0391e0185145b610893576000610896565b60015b9350610939565b507f55482936e01da86729a45d2b87a6b1d3bc582bea0ec00e38bdb340e3af6f9f0691507f192448c3c0f88c7f238c0000000000000000000000000000000000000000000090507f8c1d44f6000000000000000000000000000000000000000000000000000000007f09aaf55960715d8d86b57af40be36b0bfd469c9a3643445d8c65d39e27b4c56f8514610933576000610936565b60015b93505b9193509193565b6040805173ffffffffffffffffffffffffffffffffffffffff19841660208201526bffffffffffffffffffffffff198316602c8201526000918291016040516020818303038152906040529050806101dc90611a16565b60606000806109a989898989896109d7565b915091506109b8848383610d7f565b9998505050505050505050565b60606000806109a98989898989610e93565b604080516003808252608082019092526060918291906020820183803683370190505060408051600380825260808201909252919350816020015b6060815260200190600190039081610a12579050506040516354f6127f60e01b8152600481018890529091506000906001600160a01b038916906354f6127f9060240160006040518083038186803b158015610a6d57600080fd5b505afa158015610a81573d6000803e3d6000fd5b505050506040513d6000823e601f3d908101601f19168201604052610aa9919081019061172e565b9050805160001415610bc2578683600081518110610ac957610ac9611a83565b602002602001018181525050610adf60016113df565b82600081518110610af257610af2611a83565b6020026020010181905250610b08876000611405565b83600181518110610b1b57610b1b611a83565b602002602001018181525050610b308561146a565b82600181518110610b4357610b43611a83565b60200260200101819052508583600281518110610b6257610b62611a83565b6020908102919091018101919091526040516001600160e01b031986169181019190915260006024820152602c0160405160208183030381529060405282600281518110610bb257610bb2611a83565b6020026020010181905250610d74565b805160201415610d3557600081806020019051810190610be2919061179c565b90506000610bf182600161196a565b90508885600081518110610c0757610c07611a83565b602002602001018181525050610c1c816113df565b84600081518110610c2f57610c2f611a83565b6020908102919091010152610c4e89610c49600184611982565b611405565b85600181518110610c6157610c61611a83565b602002602001018181525050610c768761146a565b84600181518110610c8957610c89611a83565b60200260200101819052508785600281518110610ca857610ca8611a83565b602002602001018181525050858260c01b604051602001610d019291906001600160e01b03199290921682527fffffffffffffffff000000000000000000000000000000000000000000000000166004820152600c0190565b60405160208183030381529060405284600281518110610d2357610d23611a83565b60200260200101819052505050610d74565b80516040517fecba7af8000000000000000000000000000000000000000000000000000000008152610d6b9183916004016118ef565b60405180910390fd5b509550959350505050565b606060008383604051602401610d96929190611844565b60408051601f198184030181529181526020820180517bffffffffffffffffffffffffffffffffffffffffffffffffffffffff167f14a6e29300000000000000000000000000000000000000000000000000000000179052517f09c5eabe0000000000000000000000000000000000000000000000000000000081529091506001600160a01b038616906309c5eabe90610e349084906004016118dc565b600060405180830381600087803b158015610e4e57600080fd5b505af1158015610e62573d6000803e3d6000fd5b505050506040513d6000823e601f3d908101601f19168201604052610e8a919081019061172e565b95945050505050565b6060806000876001600160a01b03166354f6127f886040518263ffffffff1660e01b8152600401610ec691815260200190565b60006040518083038186803b158015610ede57600080fd5b505afa158015610ef2573d6000803e3d6000fd5b505050506040513d6000823e601f3d908101601f19168201604052610f1a919081019061172e565b9050600081806020019051810190610f32919061179c565b90506000610f41600183611982565b90506000610f4e8761148f565b90506000610f668b8367ffffffffffffffff16611405565b9050610f73600185611982565b8267ffffffffffffffff1614156110ba576040805160038082526080820190925290602082016060803683370190505060408051600380825260808201909252919850816020015b6060815260200190600190039081610fbb5790505095508a87600081518110610fe657610fe6611a83565b602002602001018181525050610ffb836113df565b8660008151811061100e5761100e611a83565b6020026020010181905250888760018151811061102d5761102d611a83565b602002602001018181525050604051806020016040528060008152508660018151811061105c5761105c611a83565b6020026020010181905250808760028151811061107b5761107b611a83565b60200260200101818152505060405180602001604052806000815250866002815181106110aa576110aa611a83565b60200260200101819052506113d0565b60408051600580825260c08201909252906020820160a0803683370190505060408051600580825260c08201909252919850816020015b60608152602001906001900390816110f15790505095508a8760008151811061111c5761111c611a83565b602002602001018181525050611131836113df565b8660008151811061114457611144611a83565b6020026020010181905250888760018151811061116357611163611a83565b602002602001018181525050604051806020016040528060008152508660018151811061119257611192611a83565b602002602001018190525060006111a98c85611405565b6040516354f6127f60e01b8152600481018290529091506000906001600160a01b038f16906354f6127f9060240160006040518083038186803b1580156111ef57600080fd5b505afa158015611203573d6000803e3d6000fd5b505050506040513d6000823e601f3d908101601f1916820160405261122b919081019061172e565b905060006112418d61123c846119de565b610940565b905060008f6001600160a01b03166354f6127f836040518263ffffffff1660e01b815260040161127391815260200190565b60006040518083038186803b15801561128b57600080fd5b505afa15801561129f573d6000803e3d6000fd5b505050506040513d6000823e601f3d908101601f191682016040526112c7919081019061172e565b905060006112d882600060046114b3565b9050858c6002815181106112ee576112ee611a83565b602002602001018181525050838b60028151811061130e5761130e611a83565b6020026020010181905250848c60038151811061132d5761132d611a83565b602002602001018181525050604051806020016040528060008152508b60038151811061135c5761135c611a83565b6020026020010181905250828c60048151811061137b5761137b611a83565b602002602001018181525050808760c01b60405160200161139d9291906117fd565b6040516020818303038152906040528b6004815181106113bf576113bf611a83565b602002602001018190525050505050505b50505050509550959350505050565b6040805160208101839052606091015b6040516020818303038152906040529050919050565b60008061145f848460801b604080517fffffffffffffffffffffffffffffffff0000000000000000000000000000000080851660208301528316603082015260609101604051602081830303815290604052905092915050565b90506101dc81611a16565b604051606082811b6bffffffffffffffffffffffff19166020830152906034016113ef565b60008061149f83600460086114b3565b90506114ac8160006115db565b9392505050565b6060816114c181601f61196a565b101561150f5760405162461bcd60e51b815260206004820152600e60248201527f736c6963655f6f766572666c6f770000000000000000000000000000000000006044820152606401610d6b565b611519828461196a565b845110156115695760405162461bcd60e51b815260206004820152601160248201527f736c6963655f6f75744f66426f756e64730000000000000000000000000000006044820152606401610d6b565b60608215801561158857604051915060008252602082016040526115d2565b6040519150601f8416801560200281840101858101878315602002848b0101015b818310156115c15780518352602092830192016115a9565b5050858452601f01601f1916604052505b50949350505050565b60006115e882600861196a565b835110156116385760405162461bcd60e51b815260206004820152601460248201527f746f55696e7436345f6f75744f66426f756e64730000000000000000000000006044820152606401610d6b565b50016008015190565b60006020828403121561165357600080fd5b81516114ac81611aaf565b6000806000806080858703121561167457600080fd5b843561167f81611aaf565b93506020850135925060408501359150606085013567ffffffffffffffff8111156116a957600080fd5b8501601f810187136116ba57600080fd5b80356116cd6116c882611942565b611911565b8181528860208385010111156116e257600080fd5b8160208401602083013760006020838301015280935050505092959194509250565b60006020828403121561171657600080fd5b81356001600160e01b0319811681146114ac57600080fd5b60006020828403121561174057600080fd5b815167ffffffffffffffff81111561175757600080fd5b8201601f8101841361176857600080fd5b80516117766116c882611942565b81815285602083850101111561178b57600080fd5b610e8a826020830160208601611a3d565b6000602082840312156117ae57600080fd5b5051919050565b600081518084526117cd816020860160208601611a3d565b601f01601f19169290920160200192915050565b600082516117f3818460208701611a3d565b9190910192915050565b6000835161180f818460208801611a3d565b7fffffffffffffffff000000000000000000000000000000000000000000000000939093169190920190815260080192915050565b604080825283519082018190526000906020906060840190828701845b8281101561187d57815184529284019290840190600101611861565b50505083810382850152845180825282820190600581901b8301840187850160005b838110156118cd57601f198684030185526118bb8383516117b5565b9487019492509086019060010161189f565b50909998505050505050505050565b6020815260006114ac60208301846117b5565b60408152600061190260408301856117b5565b90508260208301529392505050565b604051601f8201601f1916810167ffffffffffffffff8111828210171561193a5761193a611a99565b604052919050565b600067ffffffffffffffff82111561195c5761195c611a99565b50601f01601f191660200190565b6000821982111561197d5761197d611a6d565b500190565b60008282101561199457611994611a6d565b500390565b60008151602083015173ffffffffffffffffffffffffffffffffffffffff198082169350600c8310156119d657808184600c0360031b1b83161693505b505050919050565b805160208201516bffffffffffffffffffffffff1980821692919060148310156119d65760149290920360031b82901b161692915050565b80516020808301519190811015611a37576000198160200360031b1b821691505b50919050565b60005b83811015611a58578181015183820152602001611a40565b83811115611a67576000848401525b50505050565b634e487b7160e01b600052601160045260246000fd5b634e487b7160e01b600052603260045260246000fd5b634e487b7160e01b600052604160045260246000fd5b6001600160a01b0381168114611ac457600080fd5b5056fea2646970667358221220b4506fa24f2b183b1e22973284369236bc914b8f16560e480cda9b75c520958e64736f6c63430008070033",
  "linkReferences": {},
  "deployedLinkReferences": {}
}