{
  "_format": "hh-sol-artifact-1",
  "contractName": "LSP8CompatibleERC721Mintable",
  "sourceName": "contracts/LSP8IdentifiableDigitalAsset/presets/LSP8CompatibleERC721Mintable.sol",
  "abi": [
    {
      "inputs": [
        {
          "internalType": "string",
          "name": "name_",
          "type": "string"
        },
        {
          "internalType": "string",
          "name": "symbol_",
          "type": "string"
        },
        {
          "internalType": "address",
          "name": "newOwner_",
          "type": "address"
        }
      ],
      "stateMutability": "nonpayable",
      "type": "constructor"
    },
    {
      "inputs": [],
      "name": "LSP4TokenNameNotEditable",
      "type": "error"
    },
    {
      "inputs": [],
      "name": "LSP4TokenSymbolNotEditable",
      "type": "error"
    },
    {
      "inputs": [],
      "name": "LSP8CannotSendToAddressZero",
      "type": "error"
    },
    {
      "inputs": [],
      "name": "LSP8CannotUseAddressZeroAsOperator",
      "type": "error"
    },
    {
      "inputs": [],
      "name": "LSP8InvalidTransferBatch",
      "type": "error"
    },
    {
      "inputs": [
        {
          "internalType": "bytes32",
          "name": "tokenId",
          "type": "bytes32"
        }
      ],
      "name": "LSP8NonExistentTokenId",
      "type": "error"
    },
    {
      "inputs": [
        {
          "internalType": "bytes32",
          "name": "tokenId",
          "type": "bytes32"
        },
        {
          "internalType": "address",
          "name": "caller",
          "type": "address"
        }
      ],
      "name": "LSP8NotTokenOperator",
      "type": "error"
    },
    {
      "inputs": [
        {
          "internalType": "address",
          "name": "tokenOwner",
          "type": "address"
        },
        {
          "internalType": "bytes32",
          "name": "tokenId",
          "type": "bytes32"
        },
        {
          "internalType": "address",
          "name": "caller",
          "type": "address"
        }
      ],
      "name": "LSP8NotTokenOwner",
      "type": "error"
    },
    {
      "inputs": [
        {
          "internalType": "address",
          "name": "tokenReceiver",
          "type": "address"
        }
      ],
      "name": "LSP8NotifyTokenReceiverContractMissingLSP1Interface",
      "type": "error"
    },
    {
      "inputs": [
        {
          "internalType": "address",
          "name": "tokenReceiver",
          "type": "address"
        }
      ],
      "name": "LSP8NotifyTokenReceiverIsEOA",
      "type": "error"
    },
    {
      "inputs": [
        {
          "internalType": "bytes32",
          "name": "tokenId",
          "type": "bytes32"
        }
      ],
      "name": "LSP8TokenIdAlreadyMinted",
      "type": "error"
    },
    {
      "anonymous": false,
      "inputs": [
        {
          "indexed": true,
          "internalType": "address",
          "name": "owner",
          "type": "address"
        },
        {
          "indexed": true,
          "internalType": "address",
          "name": "approved",
          "type": "address"
        },
        {
          "indexed": true,
          "internalType": "uint256",
          "name": "tokenId",
          "type": "uint256"
        }
      ],
      "name": "Approval",
      "type": "event"
    },
    {
      "anonymous": false,
      "inputs": [
        {
          "indexed": true,
          "internalType": "address",
          "name": "operator",
          "type": "address"
        },
        {
          "indexed": true,
          "internalType": "address",
          "name": "tokenOwner",
          "type": "address"
        },
        {
          "indexed": true,
          "internalType": "bytes32",
          "name": "tokenId",
          "type": "bytes32"
        }
      ],
      "name": "AuthorizedOperator",
      "type": "event"
    },
    {
      "anonymous": false,
      "inputs": [
        {
          "indexed": true,
          "internalType": "bytes32",
          "name": "dataKey",
          "type": "bytes32"
        }
      ],
      "name": "DataChanged",
      "type": "event"
    },
    {
      "anonymous": false,
      "inputs": [
        {
          "indexed": true,
          "internalType": "address",
          "name": "previousOwner",
          "type": "address"
        },
        {
          "indexed": true,
          "internalType": "address",
          "name": "newOwner",
          "type": "address"
        }
      ],
      "name": "OwnershipTransferred",
      "type": "event"
    },
    {
      "anonymous": false,
      "inputs": [
        {
          "indexed": true,
          "internalType": "address",
          "name": "operator",
          "type": "address"
        },
        {
          "indexed": true,
          "internalType": "address",
          "name": "tokenOwner",
          "type": "address"
        },
        {
          "indexed": true,
          "internalType": "bytes32",
          "name": "tokenId",
          "type": "bytes32"
        }
      ],
      "name": "RevokedOperator",
      "type": "event"
    },
    {
      "anonymous": false,
      "inputs": [
        {
          "indexed": true,
          "internalType": "address",
          "name": "from",
          "type": "address"
        },
        {
          "indexed": true,
          "internalType": "address",
          "name": "to",
          "type": "address"
        },
        {
          "indexed": true,
          "internalType": "uint256",
          "name": "tokenId",
          "type": "uint256"
        }
      ],
      "name": "Transfer",
      "type": "event"
    },
    {
      "anonymous": false,
      "inputs": [
        {
          "indexed": false,
          "internalType": "address",
          "name": "operator",
          "type": "address"
        },
        {
          "indexed": true,
          "internalType": "address",
          "name": "from",
          "type": "address"
        },
        {
          "indexed": true,
          "internalType": "address",
          "name": "to",
          "type": "address"
        },
        {
          "indexed": true,
          "internalType": "bytes32",
          "name": "tokenId",
          "type": "bytes32"
        },
        {
          "indexed": false,
          "internalType": "bool",
          "name": "force",
          "type": "bool"
        },
        {
          "indexed": false,
          "internalType": "bytes",
          "name": "data",
          "type": "bytes"
        }
      ],
      "name": "Transfer",
      "type": "event"
    },
    {
      "inputs": [
        {
          "internalType": "address",
          "name": "operator",
          "type": "address"
        },
        {
          "internalType": "uint256",
          "name": "tokenId",
          "type": "uint256"
        }
      ],
      "name": "approve",
      "outputs": [],
      "stateMutability": "nonpayable",
      "type": "function"
    },
    {
      "inputs": [
        {
          "internalType": "address",
          "name": "operator",
          "type": "address"
        },
        {
          "internalType": "bytes32",
          "name": "tokenId",
          "type": "bytes32"
        }
      ],
      "name": "authorizeOperator",
      "outputs": [],
      "stateMutability": "nonpayable",
      "type": "function"
    },
    {
      "inputs": [
        {
          "internalType": "address",
          "name": "tokenOwner",
          "type": "address"
        }
      ],
      "name": "balanceOf",
      "outputs": [
        {
          "internalType": "uint256",
          "name": "",
          "type": "uint256"
        }
      ],
      "stateMutability": "view",
      "type": "function"
    },
    {
      "inputs": [
        {
          "internalType": "uint256",
          "name": "tokenId",
          "type": "uint256"
        }
      ],
      "name": "getApproved",
      "outputs": [
        {
          "internalType": "address",
          "name": "",
          "type": "address"
        }
      ],
      "stateMutability": "view",
      "type": "function"
    },
    {
      "inputs": [
        {
          "internalType": "bytes32[]",
          "name": "dataKeys",
          "type": "bytes32[]"
        }
      ],
      "name": "getData",
      "outputs": [
        {
          "internalType": "bytes[]",
          "name": "dataValues",
          "type": "bytes[]"
        }
      ],
      "stateMutability": "view",
      "type": "function"
    },
    {
      "inputs": [
        {
          "internalType": "bytes32",
          "name": "dataKey",
          "type": "bytes32"
        }
      ],
      "name": "getData",
      "outputs": [
        {
          "internalType": "bytes",
          "name": "dataValue",
          "type": "bytes"
        }
      ],
      "stateMutability": "view",
      "type": "function"
    },
    {
      "inputs": [
        {
          "internalType": "bytes32",
          "name": "tokenId",
          "type": "bytes32"
        }
      ],
      "name": "getOperatorsOf",
      "outputs": [
        {
          "internalType": "address[]",
          "name": "",
          "type": "address[]"
        }
      ],
      "stateMutability": "view",
      "type": "function"
    },
    {
      "inputs": [
        {
          "internalType": "address",
          "name": "tokenOwner",
          "type": "address"
        },
        {
          "internalType": "address",
          "name": "operator",
          "type": "address"
        }
      ],
      "name": "isApprovedForAll",
      "outputs": [
        {
          "internalType": "bool",
          "name": "",
          "type": "bool"
        }
      ],
      "stateMutability": "view",
      "type": "function"
    },
    {
      "inputs": [
        {
          "internalType": "address",
          "name": "operator",
          "type": "address"
        },
        {
          "internalType": "bytes32",
          "name": "tokenId",
          "type": "bytes32"
        }
      ],
      "name": "isOperatorFor",
      "outputs": [
        {
          "internalType": "bool",
          "name": "",
          "type": "bool"
        }
      ],
      "stateMutability": "view",
      "type": "function"
    },
    {
      "inputs": [
        {
          "internalType": "address",
          "name": "to",
          "type": "address"
        },
        {
          "internalType": "bytes32",
          "name": "tokenId",
          "type": "bytes32"
        },
        {
          "internalType": "bool",
          "name": "force",
          "type": "bool"
        },
        {
          "internalType": "bytes",
          "name": "data",
          "type": "bytes"
        }
      ],
      "name": "mint",
      "outputs": [],
      "stateMutability": "nonpayable",
      "type": "function"
    },
    {
      "inputs": [],
      "name": "name",
      "outputs": [
        {
          "internalType": "string",
          "name": "",
          "type": "string"
        }
      ],
      "stateMutability": "view",
      "type": "function"
    },
    {
      "inputs": [],
      "name": "owner",
      "outputs": [
        {
          "internalType": "address",
          "name": "",
          "type": "address"
        }
      ],
      "stateMutability": "view",
      "type": "function"
    },
    {
      "inputs": [
        {
          "internalType": "uint256",
          "name": "tokenId",
          "type": "uint256"
        }
      ],
      "name": "ownerOf",
      "outputs": [
        {
          "internalType": "address",
          "name": "",
          "type": "address"
        }
      ],
      "stateMutability": "view",
      "type": "function"
    },
    {
      "inputs": [],
      "name": "renounceOwnership",
      "outputs": [],
      "stateMutability": "nonpayable",
      "type": "function"
    },
    {
      "inputs": [
        {
          "internalType": "address",
          "name": "operator",
          "type": "address"
        },
        {
          "internalType": "bytes32",
          "name": "tokenId",
          "type": "bytes32"
        }
      ],
      "name": "revokeOperator",
      "outputs": [],
      "stateMutability": "nonpayable",
      "type": "function"
    },
    {
      "inputs": [
        {
          "internalType": "address",
          "name": "from",
          "type": "address"
        },
        {
          "internalType": "address",
          "name": "to",
          "type": "address"
        },
        {
          "internalType": "uint256",
          "name": "tokenId",
          "type": "uint256"
        }
      ],
      "name": "safeTransferFrom",
      "outputs": [],
      "stateMutability": "nonpayable",
      "type": "function"
    },
    {
      "inputs": [
        {
          "internalType": "address",
          "name": "from",
          "type": "address"
        },
        {
          "internalType": "address",
          "name": "to",
          "type": "address"
        },
        {
          "internalType": "uint256",
          "name": "tokenId",
          "type": "uint256"
        },
        {
          "internalType": "bytes",
          "name": "data",
          "type": "bytes"
        }
      ],
      "name": "safeTransferFrom",
      "outputs": [],
      "stateMutability": "nonpayable",
      "type": "function"
    },
    {
      "inputs": [
        {
          "internalType": "bytes32[]",
          "name": "dataKeys",
          "type": "bytes32[]"
        },
        {
          "internalType": "bytes[]",
          "name": "dataValues",
          "type": "bytes[]"
        }
      ],
      "name": "setData",
      "outputs": [],
      "stateMutability": "nonpayable",
      "type": "function"
    },
    {
      "inputs": [
        {
          "internalType": "bytes32",
          "name": "dataKey",
          "type": "bytes32"
        },
        {
          "internalType": "bytes",
          "name": "dataValue",
          "type": "bytes"
        }
      ],
      "name": "setData",
      "outputs": [],
      "stateMutability": "nonpayable",
      "type": "function"
    },
    {
      "inputs": [
        {
          "internalType": "bytes4",
          "name": "interfaceId",
          "type": "bytes4"
        }
      ],
      "name": "supportsInterface",
      "outputs": [
        {
          "internalType": "bool",
          "name": "",
          "type": "bool"
        }
      ],
      "stateMutability": "view",
      "type": "function"
    },
    {
      "inputs": [],
      "name": "symbol",
      "outputs": [
        {
          "internalType": "string",
          "name": "",
          "type": "string"
        }
      ],
      "stateMutability": "view",
      "type": "function"
    },
    {
      "inputs": [
        {
          "internalType": "address",
          "name": "tokenOwner",
          "type": "address"
        }
      ],
      "name": "tokenIdsOf",
      "outputs": [
        {
          "internalType": "bytes32[]",
          "name": "",
          "type": "bytes32[]"
        }
      ],
      "stateMutability": "view",
      "type": "function"
    },
    {
      "inputs": [
        {
          "internalType": "bytes32",
          "name": "tokenId",
          "type": "bytes32"
        }
      ],
      "name": "tokenOwnerOf",
      "outputs": [
        {
          "internalType": "address",
          "name": "",
          "type": "address"
        }
      ],
      "stateMutability": "view",
      "type": "function"
    },
    {
      "inputs": [
        {
          "internalType": "uint256",
          "name": "tokenId",
          "type": "uint256"
        }
      ],
      "name": "tokenURI",
      "outputs": [
        {
          "internalType": "string",
          "name": "",
          "type": "string"
        }
      ],
      "stateMutability": "view",
      "type": "function"
    },
    {
      "inputs": [],
      "name": "totalSupply",
      "outputs": [
        {
          "internalType": "uint256",
          "name": "",
          "type": "uint256"
        }
      ],
      "stateMutability": "view",
      "type": "function"
    },
    {
      "inputs": [
        {
          "internalType": "address",
          "name": "from",
          "type": "address"
        },
        {
          "internalType": "address",
          "name": "to",
          "type": "address"
        },
        {
          "internalType": "bytes32",
          "name": "tokenId",
          "type": "bytes32"
        },
        {
          "internalType": "bool",
          "name": "force",
          "type": "bool"
        },
        {
          "internalType": "bytes",
          "name": "data",
          "type": "bytes"
        }
      ],
      "name": "transfer",
      "outputs": [],
      "stateMutability": "nonpayable",
      "type": "function"
    },
    {
      "inputs": [
        {
          "internalType": "address[]",
          "name": "from",
          "type": "address[]"
        },
        {
          "internalType": "address[]",
          "name": "to",
          "type": "address[]"
        },
        {
          "internalType": "bytes32[]",
          "name": "tokenId",
          "type": "bytes32[]"
        },
        {
          "internalType": "bool",
          "name": "force",
          "type": "bool"
        },
        {
          "internalType": "bytes[]",
          "name": "data",
          "type": "bytes[]"
        }
      ],
      "name": "transferBatch",
      "outputs": [],
      "stateMutability": "nonpayable",
      "type": "function"
    },
    {
      "inputs": [
        {
          "internalType": "address",
          "name": "from",
          "type": "address"
        },
        {
          "internalType": "address",
          "name": "to",
          "type": "address"
        },
        {
          "internalType": "uint256",
          "name": "tokenId",
          "type": "uint256"
        }
      ],
      "name": "transferFrom",
      "outputs": [],
      "stateMutability": "nonpayable",
      "type": "function"
    },
    {
      "inputs": [
        {
          "internalType": "address",
          "name": "newOwner",
          "type": "address"
        }
      ],
      "name": "transferOwnership",
      "outputs": [],
      "stateMutability": "nonpayable",
      "type": "function"
    }
  ],
  "bytecode": "0x60806040523480156200001157600080fd5b5060405162002a7c38038062002a7c833981016040819052620000349162000346565b8282828282828282828062000054816200013160201b62000b841760201c565b50620000ab7feafec4d89fa9619884b60000a4d96624a38f7ac2d8d9a604ecf07c12c77e480c60001b604051806040016040528060048152602001632936598960e21b8152506200019860201b62000bf61760201c565b620000e57fdeba1e292f8ba88238e10ab3c7f88bd4be4fac56cad5194b6ecceaf653468af160001b846200019860201b62000bf61760201c565b6200011f7f2f0a68ab07768e01943a599e73362a0e17a63a72e94dd2e384d2c1d4db93275660001b836200019860201b62000bf61760201c565b50505050505050505050505062000426565b6000546001600160a01b038281169116146200019557600080546001600160a01b038381166001600160a01b0319831681178455604051919092169283917f8be0079c531659141344cd1fd0a4f28419497f9722a3daafe3b4186f6b6457e09190a3505b50565b60008281526001602090815260409091208251620001b992840190620001e9565b5060405182907fcdf4e344c0d23d4cdd0474039d176c55b19d531070dbe17856bfb993a5b5720b90600090a25050565b828054620001f790620003d3565b90600052602060002090601f0160209004810192826200021b576000855562000266565b82601f106200023657805160ff191683800117855562000266565b8280016001018555821562000266579182015b828111156200026657825182559160200191906001019062000249565b506200027492915062000278565b5090565b5b8082111562000274576000815560010162000279565b600082601f830112620002a157600080fd5b81516001600160401b0380821115620002be57620002be62000410565b604051601f8301601f19908116603f01168101908282118183101715620002e957620002e962000410565b816040528381526020925086838588010111156200030657600080fd5b600091505b838210156200032a57858201830151818301840152908201906200030b565b838211156200033c5760008385830101525b9695505050505050565b6000806000606084860312156200035c57600080fd5b83516001600160401b03808211156200037457600080fd5b62000382878388016200028f565b945060208601519150808211156200039957600080fd5b50620003a8868287016200028f565b604086015190935090506001600160a01b0381168114620003c857600080fd5b809150509250925092565b600181811c90821680620003e857607f821691505b602082108114156200040a57634e487b7160e01b600052602260045260246000fd5b50919050565b634e487b7160e01b600052604160045260246000fd5b61264680620004366000396000f3fe608060405234801561001057600080fd5b50600436106101cf5760003560e01c806354f6127f1161010457806395d89b41116100a2578063c87b56dd11610071578063c87b56dd146103ee578063cf5182ba14610401578063e985e9c514610414578063f2fde38b1461042a57600080fd5b806395d89b41146103a0578063a3b261f2146103a8578063af255b61146103c8578063b88d4fde146103db57600080fd5b806370a08231116100de57806370a0823114610361578063715018a6146103745780637f23690c1461037c5780638da5cb5b1461038f57600080fd5b806354f6127f14610328578063559088681461033b5780636352211e1461034e57600080fd5b8063217b22701161017157806342842e0e1161014b57806342842e0e146102c257806349a6078d146102d55780634e3e6e9c146102f5578063511b69521461031557600080fd5b8063217b22701461028957806323b872dd1461029c5780632a3654a4146102af57600080fd5b8063095ea7b3116101ad578063095ea7b31461023c5780630b0c6d821461025157806314a6e2931461026457806318160ddd1461027757600080fd5b806301ffc9a7146101d457806306fdde03146101fc578063081812fc14610211575b600080fd5b6101e76101e236600461220d565b61043d565b60405190151581526020015b60405180910390f35b6102046104b5565b6040516101f3919061247d565b61022461021f3660046121b7565b6104e2565b6040516001600160a01b0390911681526020016101f3565b61024f61024a366004611ff3565b610536565b005b61024f61025f366004611ff3565b61058d565b61024f610272366004612153565b61063b565b6002545b6040519081526020016101f3565b6102246102973660046121b7565b61070f565b61024f6102aa366004611f4f565b610748565b6101e76102bd366004611ff3565b610768565b61024f6102d0366004611f4f565b610784565b6102e86102e33660046121b7565b6107a4565b6040516101f3919061237d565b61030861030336600461211e565b6107c6565b6040516101f39190612402565b61024f610323366004611ed6565b61087a565b6102046103363660046121b7565b6108e2565b61024f61034936600461206d565b6108ed565b61022461035c3660046121b7565b6109d3565b61027b61036f366004611e88565b6109de565b61024f6109ff565b61024f61038a3660046121d0565b610a13565b6000546001600160a01b0316610224565b610204610a29565b6103bb6103b6366004611e88565b610a56565b6040516101f391906123ca565b61024f6103d636600461201d565b610a7a565b61024f6103e9366004611f8b565b610a8e565b6102046103fc3660046121b7565b610a9c565b61024f61040f366004611ff3565b610aea565b6101e7610422366004611ea3565b600092915050565b61024f610438366004611e88565b610af4565b60006001600160e01b031982167f80ac58cd0000000000000000000000000000000000000000000000000000000014806104a057506001600160e01b031982167f5b5e139f00000000000000000000000000000000000000000000000000000000145b806104af57506104af82610c45565b92915050565b606060006104af7fdeba1e292f8ba88238e10ab3c7f88bd4be4fac56cad5194b6ecceaf653468af1610c83565b6000816104ee81610d25565b60008181526005602052604081209061050682610d5d565b90508061051857506000949350505050565b61052d610526600183612525565b8390610d67565b95945050505050565b6105408282610aea565b806001600160a01b0383166105548261070f565b6001600160a01b03167f8c5be1e5ebec7d5bd14f71427d1e84f3dd0314c0f7b2291e5b200ac8c7c3b92560405160405180910390a45050565b60006105988261070f565b9050336001600160a01b03821681146105e357604051632d938f5160e11b81526001600160a01b03808416600483015260248201859052821660448201526064015b60405180910390fd5b6001600160a01b03841661060a57604051639577b8b360e01b815260040160405180910390fd5b836001600160a01b0316826001600160a01b0316141561062a5750505050565b610635848385610d73565b50505050565b610643610dd2565b80518251146106ba5760405162461bcd60e51b815260206004820152602660248201527f4b657973206c656e677468206e6f7420657175616c20746f2076616c7565732060448201527f6c656e677468000000000000000000000000000000000000000000000000000060648201526084016105da565b60005b825181101561070a576107028382815181106106db576106db6125e4565b60200260200101518383815181106106f5576106f56125e4565b6020026020010151610e3b565b6001016106bd565b505050565b6000818152600360205260408120546001600160a01b0316806104af57604051635747cd1b60e11b8152600481018490526024016105da565b61070a83838360001b60016040518060200160405280600081525061087a565b600061077382610d25565b61077d8383610e45565b9392505050565b61070a83838360001b60006040518060200160405280600081525061087a565b60606107af82610d25565b60008281526005602052604090206104af90610e8e565b6060815167ffffffffffffffff8111156107e2576107e26125fa565b60405190808252806020026020018201604052801561081557816020015b60608152602001906001900390816108005790505b50905060005b825181101561087457610846838281518110610839576108396125e4565b6020026020010151610c83565b828281518110610858576108586125e4565b602002602001018190525061086d8160010190565b905061081b565b50919050565b336108858185610e45565b6108cd576040517f1294d2a9000000000000000000000000000000000000000000000000000000008152600481018590526001600160a01b03821660248201526044016105da565b6108da8686868686610e9b565b505050505050565b60606104af82610c83565b8351855114158061090057508251855114155b8061090d57508051855114155b15610944576040517f93a8311900000000000000000000000000000000000000000000000000000000815260040160405180910390fd5b60005b85518110156108da576109c1868281518110610965576109656125e4565b602002602001015186838151811061097f5761097f6125e4565b6020026020010151868481518110610999576109996125e4565b6020026020010151868686815181106109b4576109b46125e4565b602002602001015161087a565b806109cb8161259d565b915050610947565b60006104af8261070f565b6001600160a01b03811660009081526004602052604081206104af90610d5d565b610a07610dd2565b610a116000610b84565b565b610a1b610dd2565b610a258282610e3b565b5050565b606060006104af7f2f0a68ab07768e01943a599e73362a0e17a63a72e94dd2e384d2c1d4db932756610c83565b6001600160a01b03811660009081526004602052604090206060906104af90610eaf565b610a82610dd2565b61063584848484610eba565b61063584848460008561087a565b60606000610ac97f9afb95cacc9f95858ec44aa8c3b685511002e30ae54415823f406128b85b238e610c83565b9050600060249050600061052d8383848651610ae59190612525565b610ec6565b610a258282610fee565b610afc610dd2565b6001600160a01b038116610b785760405162461bcd60e51b815260206004820152602660248201527f4f776e61626c653a206e6577206f776e657220697320746865207a65726f206160448201527f646472657373000000000000000000000000000000000000000000000000000060648201526084016105da565b610b8181610b84565b50565b6000546001600160a01b03828116911614610b8157600080546001600160a01b0383811673ffffffffffffffffffffffffffffffffffffffff19831681178455604051919092169283917f8be0079c531659141344cd1fd0a4f28419497f9722a3daafe3b4186f6b6457e09190a35050565b60008281526001602090815260409091208251610c1592840190611c07565b5060405182907fcdf4e344c0d23d4cdd0474039d176c55b19d531070dbe17856bfb993a5b5720b90600090a25050565b60006001600160e01b031982167f493991450000000000000000000000000000000000000000000000000000000014806104af57506104af82611039565b6000818152600160205260409020805460609190610ca090612568565b80601f0160208091040260200160405190810160405280929190818152602001828054610ccc90612568565b8015610d195780601f10610cee57610100808354040283529160200191610d19565b820191906000526020600020905b815481529060010190602001808311610cfc57829003601f168201915b50505050509050919050565b6000818152600360205260409020546001600160a01b0316610b8157604051635747cd1b60e11b8152600481018290526024016105da565b60006104af825490565b600061077d8383611087565b6000818152600560205260409020610d8b90846110b1565b5080826001600160a01b0316846001600160a01b03167f17d5389f6ab6adb2647dfa0aa365c323d37adacc30b33a65310b6158ce1373d560405160405180910390a4505050565b33610de56000546001600160a01b031690565b6001600160a01b031614610a115760405162461bcd60e51b815260206004820181905260248201527f4f776e61626c653a2063616c6c6572206973206e6f7420746865206f776e657260448201526064016105da565b610a2582826110c6565b600080610e518361070f565b9050806001600160a01b0316846001600160a01b03161480610e8657506000838152600560205260409020610e869085611184565b949350505050565b6060600061077d836111a6565b610ea88585858585611201565b5050505050565b60606104af826111a6565b61063584848484611283565b606081610ed481601f61250d565b1015610f225760405162461bcd60e51b815260206004820152600e60248201527f736c6963655f6f766572666c6f7700000000000000000000000000000000000060448201526064016105da565b610f2c828461250d565b84511015610f7c5760405162461bcd60e51b815260206004820152601160248201527f736c6963655f6f75744f66426f756e647300000000000000000000000000000060448201526064016105da565b606082158015610f9b5760405191506000825260208201604052610fe5565b6040519150601f8416801560200281840101858101878315602002848b0101015b81831015610fd4578051835260209283019201610fbc565b5050858452601f01601f1916604052505b50949350505050565b610ff882826112f9565b60408051602081018390520160405160208183030381529060405280602001905181019061102691906122a5565b826001600160a01b03166105548361070f565b60006001600160e01b031982167f714df77c0000000000000000000000000000000000000000000000000000000014806104af57506301ffc9a760e01b6001600160e01b03198316146104af565b600082600001828154811061109e5761109e6125e4565b9060005260206000200154905092915050565b600061077d836001600160a01b0384166113f1565b7fdeba1e292f8ba88238e10ab3c7f88bd4be4fac56cad5194b6ecceaf653468af1821415611120576040517f85c169bd00000000000000000000000000000000000000000000000000000000815260040160405180910390fd5b7f2f0a68ab07768e01943a599e73362a0e17a63a72e94dd2e384d2c1d4db93275682141561117a576040517f76755b3800000000000000000000000000000000000000000000000000000000815260040160405180910390fd5b610a258282610bf6565b6001600160a01b0381166000908152600183016020526040812054151561077d565b606081600001805480602002602001604051908101604052809291908181526020018280548015610d1957602002820191906000526020600020905b8154815260200190600101908083116111e25750505050509050919050565b61120e85858585856114e4565b60408051602081018590520160405160208183030381529060405280602001905181019061123c91906122a5565b846001600160a01b0316866001600160a01b03167fddf252ad1be2c89b69c2b068fc378daa952ba7f163c4a11628f55a4df523b3ef60405160405180910390a45050505050565b61128f8484848461165d565b6040805160208101859052016040516020818303038152906040528060200190518101906112bd91906122a5565b6040516001600160a01b038616906000907fddf252ad1be2c89b69c2b068fc378daa952ba7f163c4a11628f55a4df523b3ef908290a450505050565b60006113048261070f565b9050336001600160a01b038216811461134a57604051632d938f5160e11b81526001600160a01b03808416600483015260248201859052821660448201526064016105da565b6001600160a01b03841661137157604051639577b8b360e01b815260040160405180910390fd5b836001600160a01b0316826001600160a01b031614156113915750505050565b60008381526005602052604090206113a9908561178a565b5082826001600160a01b0316856001600160a01b03167f34b797fc5a526f7bf1d2b5de25f6564fd85ae364e3ee939aee7c1ac27871a98860405160405180910390a450505050565b600081815260018301602052604081205480156114da576000611415600183612525565b855490915060009061142990600190612525565b905081811461148e576000866000018281548110611449576114496125e4565b906000526020600020015490508087600001848154811061146c5761146c6125e4565b6000918252602080832090910192909255918252600188019052604090208390555b855486908061149f5761149f6125ce565b6001900381819060005260206000200160009055905585600101600086815260200190815260200160002060009055600193505050506104af565b60009150506104af565b60006114ef8461070f565b9050856001600160a01b0316816001600160a01b03161461153d57604051632d938f5160e11b81526001600160a01b03808316600483015260248201869052871660448201526064016105da565b6001600160a01b038516611564576040516324ecef4d60e01b815260040160405180910390fd5b3361157087878761179f565b61157a87866117f1565b6001600160a01b038716600090815260046020526040902061159c9086611842565b506001600160a01b03861660009081526004602052604090206115bf908661184e565b5060008581526003602052604090819020805473ffffffffffffffffffffffffffffffffffffffff19166001600160a01b0389811691821790925591518792918a16907fb333c813a7426a7a11e2b190cad52c44119421594b47f6f32ace6d8c7207b2bf906116339086908a908a90612353565b60405180910390a46116478787878661185a565b611654878787878761193d565b50505050505050565b6001600160a01b038416611684576040516324ecef4d60e01b815260040160405180910390fd5b6000838152600360205260409020546001600160a01b0316156116d6576040517f34c7b511000000000000000000000000000000000000000000000000000000008152600481018490526024016105da565b336116e36000868661179f565b6001600160a01b0385166000908152600460205260409020611705908561184e565b50600084815260036020526040808220805473ffffffffffffffffffffffffffffffffffffffff19166001600160a01b03891690811790915590518692907fb333c813a7426a7a11e2b190cad52c44119421594b47f6f32ace6d8c7207b2bf9061177490869089908990612353565b60405180910390a4610ea860008686868661193d565b600061077d836001600160a01b038416611ab6565b6001600160a01b0383166117c6576001600260008282546117c0919061250d565b90915550505b6001600160a01b03821661070a576001600260008282546117e79190612525565b9091555050505050565b60008181526005602052604081209061180982610d5d565b905060005b81811015610ea85760006118228482610d67565b905061182f818787610d73565b508061183a8161259d565b91505061180e565b600061077d83836113f1565b600061077d8383611ab6565b61186b84631aed5a8560e21b611b05565b156106355760008484848460405160200161188994939291906122ea565b60408051601f1981840301815290829052631aed5a8560e21b825291506001600160a01b03861690636bb56a14906118e7907f3724c94f0815e936299cca424da4140752198e0beb7931a6e0925d11bc97544c908590600401612464565b600060405180830381600087803b15801561190157600080fd5b505af1158015611915573d6000803e3d6000fd5b505050506040513d6000823e601f3d908101601f191682016040526108da9190810190612237565b61194e84631aed5a8560e21b611b05565b15611a275760008585858460405160200161196c94939291906122ea565b60408051601f1981840301815290829052631aed5a8560e21b825291506001600160a01b03861690636bb56a14906119ca907fc7a120a42b6057a0cbed111fbbfbd52fcd96748c04394f77fc2c3adbe0391e01908590600401612464565b600060405180830381600087803b1580156119e457600080fd5b505af11580156119f8573d6000803e3d6000fd5b505050506040513d6000823e601f3d908101601f19168201604052611a209190810190612237565b5050610ea8565b81610ea8576001600160a01b0384163b15611a79576040517f4349776d0000000000000000000000000000000000000000000000000000000081526001600160a01b03851660048201526024016105da565b6040517f031731370000000000000000000000000000000000000000000000000000000081526001600160a01b03851660048201526024016105da565b6000818152600183016020526040812054611afd575081546001818101845560008481526020808220909301849055845484825282860190935260409020919091556104af565b5060006104af565b604080516001600160e01b0319831660248083019190915282518083039091018152604490910182526020810180517bffffffffffffffffffffffffffffffffffffffffffffffffffffffff166301ffc9a760e01b179052905160009190829081906001600160a01b0387169061753090611b81908690612337565b6000604051808303818686fa925050503d8060008114611bbd576040519150601f19603f3d011682016040523d82523d6000602084013e611bc2565b606091505b5091509150602081511015611bdd57600093505050506104af565b818015611bfd5750600081806020019051810190611bfb91906122a5565b115b9695505050505050565b828054611c1390612568565b90600052602060002090601f016020900481019282611c355760008555611c7b565b82601f10611c4e57805160ff1916838001178555611c7b565b82800160010185558215611c7b579182015b82811115611c7b578251825591602001919060010190611c60565b50611c87929150611c8b565b5090565b5b80821115611c875760008155600101611c8c565b80356001600160a01b0381168114611cb757600080fd5b919050565b600082601f830112611ccd57600080fd5b81356020611ce2611cdd836124c1565b612490565b80838252828201915082860187848660051b8901011115611d0257600080fd5b60005b85811015611d2857611d1682611ca0565b84529284019290840190600101611d05565b5090979650505050505050565b600082601f830112611d4657600080fd5b81356020611d56611cdd836124c1565b80838252828201915082860187848660051b8901011115611d7657600080fd5b60005b85811015611d2857813584529284019290840190600101611d79565b600082601f830112611da657600080fd5b81356020611db6611cdd836124c1565b80838252828201915082860187848660051b8901011115611dd657600080fd5b6000805b86811015611e1957823567ffffffffffffffff811115611df8578283fd5b611e068b88838d0101611e37565b8652509385019391850191600101611dda565b509198975050505050505050565b80358015158114611cb757600080fd5b600082601f830112611e4857600080fd5b8135611e56611cdd826124e5565b818152846020838601011115611e6b57600080fd5b816020850160208301376000918101602001919091529392505050565b600060208284031215611e9a57600080fd5b61077d82611ca0565b60008060408385031215611eb657600080fd5b611ebf83611ca0565b9150611ecd60208401611ca0565b90509250929050565b600080600080600060a08688031215611eee57600080fd5b611ef786611ca0565b9450611f0560208701611ca0565b935060408601359250611f1a60608701611e27565b9150608086013567ffffffffffffffff811115611f3657600080fd5b611f4288828901611e37565b9150509295509295909350565b600080600060608486031215611f6457600080fd5b611f6d84611ca0565b9250611f7b60208501611ca0565b9150604084013590509250925092565b60008060008060808587031215611fa157600080fd5b611faa85611ca0565b9350611fb860208601611ca0565b925060408501359150606085013567ffffffffffffffff811115611fdb57600080fd5b611fe787828801611e37565b91505092959194509250565b6000806040838503121561200657600080fd5b61200f83611ca0565b946020939093013593505050565b6000806000806080858703121561203357600080fd5b61203c85611ca0565b93506020850135925061205160408601611e27565b9150606085013567ffffffffffffffff811115611fdb57600080fd5b600080600080600060a0868803121561208557600080fd5b853567ffffffffffffffff8082111561209d57600080fd5b6120a989838a01611cbc565b965060208801359150808211156120bf57600080fd5b6120cb89838a01611cbc565b955060408801359150808211156120e157600080fd5b6120ed89838a01611d35565b94506120fb60608901611e27565b9350608088013591508082111561211157600080fd5b50611f4288828901611d95565b60006020828403121561213057600080fd5b813567ffffffffffffffff81111561214757600080fd5b610e8684828501611d35565b6000806040838503121561216657600080fd5b823567ffffffffffffffff8082111561217e57600080fd5b61218a86838701611d35565b935060208501359150808211156121a057600080fd5b506121ad85828601611d95565b9150509250929050565b6000602082840312156121c957600080fd5b5035919050565b600080604083850312156121e357600080fd5b82359150602083013567ffffffffffffffff81111561220157600080fd5b6121ad85828601611e37565b60006020828403121561221f57600080fd5b81356001600160e01b03198116811461077d57600080fd5b60006020828403121561224957600080fd5b815167ffffffffffffffff81111561226057600080fd5b8201601f8101841361227157600080fd5b805161227f611cdd826124e5565b81815285602083850101111561229457600080fd5b61052d82602083016020860161253c565b6000602082840312156122b757600080fd5b5051919050565b600081518084526122d681602086016020860161253c565b601f01601f19169290920160200192915050565b60006bffffffffffffffffffffffff19808760601b168352808660601b16601484015250836028830152825161232781604885016020870161253c565b9190910160480195945050505050565b6000825161234981846020870161253c565b9190910192915050565b6001600160a01b0384168152821515602082015260606040820152600061052d60608301846122be565b6020808252825182820181905260009190848201906040850190845b818110156123be5783516001600160a01b031683529284019291840191600101612399565b50909695505050505050565b6020808252825182820181905260009190848201906040850190845b818110156123be578351835292840192918401916001016123e6565b6000602080830181845280855180835260408601915060408160051b870101925083870160005b8281101561245757603f198886030184526124458583516122be565b94509285019290850190600101612429565b5092979650505050505050565b828152604060208201526000610e8660408301846122be565b60208152600061077d60208301846122be565b604051601f8201601f1916810167ffffffffffffffff811182821017156124b9576124b96125fa565b604052919050565b600067ffffffffffffffff8211156124db576124db6125fa565b5060051b60200190565b600067ffffffffffffffff8211156124ff576124ff6125fa565b50601f01601f191660200190565b60008219821115612520576125206125b8565b500190565b600082821015612537576125376125b8565b500390565b60005b8381101561255757818101518382015260200161253f565b838111156106355750506000910152565b600181811c9082168061257c57607f821691505b6020821081141561087457634e487b7160e01b600052602260045260246000fd5b60006000198214156125b1576125b16125b8565b5060010190565b634e487b7160e01b600052601160045260246000fd5b634e487b7160e01b600052603160045260246000fd5b634e487b7160e01b600052603260045260246000fd5b634e487b7160e01b600052604160045260246000fdfea26469706673582212200aaedd9e9798f87dd6cbc777ae26a396ef6f02b1a15fc732679682f158af675264736f6c63430008070033",
  "linkReferences": {},
  "deployedLinkReferences": {}
}