{
  "_format": "hh-sol-artifact-1",
  "contractName": "LSP7CompatibleERC20MintableInit",
  "sourceName": "contracts/LSP7DigitalAsset/presets/LSP7CompatibleERC20MintableInit.sol",
  "abi": [
    {
      "inputs": [],
      "name": "LSP4TokenNameNotEditable",
      "type": "error"
    },
    {
      "inputs": [],
      "name": "LSP4TokenSymbolNotEditable",
      "type": "error"
    },
    {
      "inputs": [
        {
          "internalType": "address",
          "name": "tokenOwner",
          "type": "address"
        },
        {
          "internalType": "uint256",
          "name": "authorizedAmount",
          "type": "uint256"
        },
        {
          "internalType": "address",
          "name": "operator",
          "type": "address"
        },
        {
          "internalType": "uint256",
          "name": "amount",
          "type": "uint256"
        }
      ],
      "name": "LSP7AmountExceedsAuthorizedAmount",
      "type": "error"
    },
    {
      "inputs": [
        {
          "internalType": "uint256",
          "name": "balance",
          "type": "uint256"
        },
        {
          "internalType": "address",
          "name": "tokenOwner",
          "type": "address"
        },
        {
          "internalType": "uint256",
          "name": "amount",
          "type": "uint256"
        }
      ],
      "name": "LSP7AmountExceedsBalance",
      "type": "error"
    },
    {
      "inputs": [],
      "name": "LSP7CannotSendWithAddressZero",
      "type": "error"
    },
    {
      "inputs": [],
      "name": "LSP7CannotUseAddressZeroAsOperator",
      "type": "error"
    },
    {
      "inputs": [],
      "name": "LSP7InvalidTransferBatch",
      "type": "error"
    },
    {
      "inputs": [
        {
          "internalType": "address",
          "name": "tokenReceiver",
          "type": "address"
        }
      ],
      "name": "LSP7NotifyTokenReceiverContractMissingLSP1Interface",
      "type": "error"
    },
    {
      "inputs": [
        {
          "internalType": "address",
          "name": "tokenReceiver",
          "type": "address"
        }
      ],
      "name": "LSP7NotifyTokenReceiverIsEOA",
      "type": "error"
    },
    {
      "anonymous": false,
      "inputs": [
        {
          "indexed": true,
          "internalType": "address",
          "name": "owner",
          "type": "address"
        },
        {
          "indexed": true,
          "internalType": "address",
          "name": "spender",
          "type": "address"
        },
        {
          "indexed": false,
          "internalType": "uint256",
          "name": "value",
          "type": "uint256"
        }
      ],
      "name": "Approval",
      "type": "event"
    },
    {
      "anonymous": false,
      "inputs": [
        {
          "indexed": true,
          "internalType": "address",
          "name": "operator",
          "type": "address"
        },
        {
          "indexed": true,
          "internalType": "address",
          "name": "tokenOwner",
          "type": "address"
        },
        {
          "indexed": true,
          "internalType": "uint256",
          "name": "amount",
          "type": "uint256"
        }
      ],
      "name": "AuthorizedOperator",
      "type": "event"
    },
    {
      "anonymous": false,
      "inputs": [
        {
          "indexed": true,
          "internalType": "bytes32",
          "name": "dataKey",
          "type": "bytes32"
        }
      ],
      "name": "DataChanged",
      "type": "event"
    },
    {
      "anonymous": false,
      "inputs": [
        {
          "indexed": false,
          "internalType": "uint8",
          "name": "version",
          "type": "uint8"
        }
      ],
      "name": "Initialized",
      "type": "event"
    },
    {
      "anonymous": false,
      "inputs": [
        {
          "indexed": true,
          "internalType": "address",
          "name": "previousOwner",
          "type": "address"
        },
        {
          "indexed": true,
          "internalType": "address",
          "name": "newOwner",
          "type": "address"
        }
      ],
      "name": "OwnershipTransferred",
      "type": "event"
    },
    {
      "anonymous": false,
      "inputs": [
        {
          "indexed": true,
          "internalType": "address",
          "name": "operator",
          "type": "address"
        },
        {
          "indexed": true,
          "internalType": "address",
          "name": "tokenOwner",
          "type": "address"
        }
      ],
      "name": "RevokedOperator",
      "type": "event"
    },
    {
      "anonymous": false,
      "inputs": [
        {
          "indexed": true,
          "internalType": "address",
          "name": "from",
          "type": "address"
        },
        {
          "indexed": true,
          "internalType": "address",
          "name": "to",
          "type": "address"
        },
        {
          "indexed": false,
          "internalType": "uint256",
          "name": "value",
          "type": "uint256"
        }
      ],
      "name": "Transfer",
      "type": "event"
    },
    {
      "anonymous": false,
      "inputs": [
        {
          "indexed": true,
          "internalType": "address",
          "name": "operator",
          "type": "address"
        },
        {
          "indexed": true,
          "internalType": "address",
          "name": "from",
          "type": "address"
        },
        {
          "indexed": true,
          "internalType": "address",
          "name": "to",
          "type": "address"
        },
        {
          "indexed": false,
          "internalType": "uint256",
          "name": "amount",
          "type": "uint256"
        },
        {
          "indexed": false,
          "internalType": "bool",
          "name": "force",
          "type": "bool"
        },
        {
          "indexed": false,
          "internalType": "bytes",
          "name": "data",
          "type": "bytes"
        }
      ],
      "name": "Transfer",
      "type": "event"
    },
    {
      "inputs": [
        {
          "internalType": "address",
          "name": "tokenOwner",
          "type": "address"
        },
        {
          "internalType": "address",
          "name": "operator",
          "type": "address"
        }
      ],
      "name": "allowance",
      "outputs": [
        {
          "internalType": "uint256",
          "name": "",
          "type": "uint256"
        }
      ],
      "stateMutability": "view",
      "type": "function"
    },
    {
      "inputs": [
        {
          "internalType": "address",
          "name": "operator",
          "type": "address"
        },
        {
          "internalType": "uint256",
          "name": "amount",
          "type": "uint256"
        }
      ],
      "name": "approve",
      "outputs": [
        {
          "internalType": "bool",
          "name": "",
          "type": "bool"
        }
      ],
      "stateMutability": "nonpayable",
      "type": "function"
    },
    {
      "inputs": [
        {
          "internalType": "address",
          "name": "operator",
          "type": "address"
        },
        {
          "internalType": "uint256",
          "name": "amount",
          "type": "uint256"
        }
      ],
      "name": "authorizeOperator",
      "outputs": [],
      "stateMutability": "nonpayable",
      "type": "function"
    },
    {
      "inputs": [
        {
          "internalType": "address",
          "name": "tokenOwner",
          "type": "address"
        }
      ],
      "name": "balanceOf",
      "outputs": [
        {
          "internalType": "uint256",
          "name": "",
          "type": "uint256"
        }
      ],
      "stateMutability": "view",
      "type": "function"
    },
    {
      "inputs": [],
      "name": "decimals",
      "outputs": [
        {
          "internalType": "uint256",
          "name": "",
          "type": "uint256"
        }
      ],
      "stateMutability": "view",
      "type": "function"
    },
    {
      "inputs": [
        {
          "internalType": "bytes32[]",
          "name": "dataKeys",
          "type": "bytes32[]"
        }
      ],
      "name": "getData",
      "outputs": [
        {
          "internalType": "bytes[]",
          "name": "dataValues",
          "type": "bytes[]"
        }
      ],
      "stateMutability": "view",
      "type": "function"
    },
    {
      "inputs": [
        {
          "internalType": "bytes32",
          "name": "dataKey",
          "type": "bytes32"
        }
      ],
      "name": "getData",
      "outputs": [
        {
          "internalType": "bytes",
          "name": "dataValue",
          "type": "bytes"
        }
      ],
      "stateMutability": "view",
      "type": "function"
    },
    {
      "inputs": [
        {
          "internalType": "string",
          "name": "name_",
          "type": "string"
        },
        {
          "internalType": "string",
          "name": "symbol_",
          "type": "string"
        },
        {
          "internalType": "address",
          "name": "newOwner_",
          "type": "address"
        }
      ],
      "name": "initialize",
      "outputs": [],
      "stateMutability": "nonpayable",
      "type": "function"
    },
    {
      "inputs": [],
      "name": "initialized",
      "outputs": [
        {
          "internalType": "uint8",
          "name": "",
          "type": "uint8"
        }
      ],
      "stateMutability": "view",
      "type": "function"
    },
    {
      "inputs": [],
      "name": "initializing",
      "outputs": [
        {
          "internalType": "bool",
          "name": "",
          "type": "bool"
        }
      ],
      "stateMutability": "view",
      "type": "function"
    },
    {
      "inputs": [
        {
          "internalType": "address",
          "name": "operator",
          "type": "address"
        },
        {
          "internalType": "address",
          "name": "tokenOwner",
          "type": "address"
        }
      ],
      "name": "isOperatorFor",
      "outputs": [
        {
          "internalType": "uint256",
          "name": "",
          "type": "uint256"
        }
      ],
      "stateMutability": "view",
      "type": "function"
    },
    {
      "inputs": [
        {
          "internalType": "address",
          "name": "to",
          "type": "address"
        },
        {
          "internalType": "uint256",
          "name": "amount",
          "type": "uint256"
        },
        {
          "internalType": "bool",
          "name": "force",
          "type": "bool"
        },
        {
          "internalType": "bytes",
          "name": "data",
          "type": "bytes"
        }
      ],
      "name": "mint",
      "outputs": [],
      "stateMutability": "nonpayable",
      "type": "function"
    },
    {
      "inputs": [],
      "name": "name",
      "outputs": [
        {
          "internalType": "string",
          "name": "",
          "type": "string"
        }
      ],
      "stateMutability": "view",
      "type": "function"
    },
    {
      "inputs": [],
      "name": "owner",
      "outputs": [
        {
          "internalType": "address",
          "name": "",
          "type": "address"
        }
      ],
      "stateMutability": "view",
      "type": "function"
    },
    {
      "inputs": [],
      "name": "renounceOwnership",
      "outputs": [],
      "stateMutability": "nonpayable",
      "type": "function"
    },
    {
      "inputs": [
        {
          "internalType": "address",
          "name": "operator",
          "type": "address"
        }
      ],
      "name": "revokeOperator",
      "outputs": [],
      "stateMutability": "nonpayable",
      "type": "function"
    },
    {
      "inputs": [
        {
          "internalType": "bytes32[]",
          "name": "dataKeys",
          "type": "bytes32[]"
        },
        {
          "internalType": "bytes[]",
          "name": "dataValues",
          "type": "bytes[]"
        }
      ],
      "name": "setData",
      "outputs": [],
      "stateMutability": "nonpayable",
      "type": "function"
    },
    {
      "inputs": [
        {
          "internalType": "bytes32",
          "name": "dataKey",
          "type": "bytes32"
        },
        {
          "internalType": "bytes",
          "name": "dataValue",
          "type": "bytes"
        }
      ],
      "name": "setData",
      "outputs": [],
      "stateMutability": "nonpayable",
      "type": "function"
    },
    {
      "inputs": [
        {
          "internalType": "bytes4",
          "name": "interfaceId",
          "type": "bytes4"
        }
      ],
      "name": "supportsInterface",
      "outputs": [
        {
          "internalType": "bool",
          "name": "",
          "type": "bool"
        }
      ],
      "stateMutability": "view",
      "type": "function"
    },
    {
      "inputs": [],
      "name": "symbol",
      "outputs": [
        {
          "internalType": "string",
          "name": "",
          "type": "string"
        }
      ],
      "stateMutability": "view",
      "type": "function"
    },
    {
      "inputs": [],
      "name": "totalSupply",
      "outputs": [
        {
          "internalType": "uint256",
          "name": "",
          "type": "uint256"
        }
      ],
      "stateMutability": "view",
      "type": "function"
    },
    {
      "inputs": [
        {
          "internalType": "address",
          "name": "from",
          "type": "address"
        },
        {
          "internalType": "address",
          "name": "to",
          "type": "address"
        },
        {
          "internalType": "uint256",
          "name": "amount",
          "type": "uint256"
        },
        {
          "internalType": "bool",
          "name": "force",
          "type": "bool"
        },
        {
          "internalType": "bytes",
          "name": "data",
          "type": "bytes"
        }
      ],
      "name": "transfer",
      "outputs": [],
      "stateMutability": "nonpayable",
      "type": "function"
    },
    {
      "inputs": [
        {
          "internalType": "address",
          "name": "to",
          "type": "address"
        },
        {
          "internalType": "uint256",
          "name": "amount",
          "type": "uint256"
        }
      ],
      "name": "transfer",
      "outputs": [
        {
          "internalType": "bool",
          "name": "",
          "type": "bool"
        }
      ],
      "stateMutability": "nonpayable",
      "type": "function"
    },
    {
      "inputs": [
        {
          "internalType": "address[]",
          "name": "from",
          "type": "address[]"
        },
        {
          "internalType": "address[]",
          "name": "to",
          "type": "address[]"
        },
        {
          "internalType": "uint256[]",
          "name": "amount",
          "type": "uint256[]"
        },
        {
          "internalType": "bool",
          "name": "force",
          "type": "bool"
        },
        {
          "internalType": "bytes[]",
          "name": "data",
          "type": "bytes[]"
        }
      ],
      "name": "transferBatch",
      "outputs": [],
      "stateMutability": "nonpayable",
      "type": "function"
    },
    {
      "inputs": [
        {
          "internalType": "address",
          "name": "from",
          "type": "address"
        },
        {
          "internalType": "address",
          "name": "to",
          "type": "address"
        },
        {
          "internalType": "uint256",
          "name": "amount",
          "type": "uint256"
        }
      ],
      "name": "transferFrom",
      "outputs": [
        {
          "internalType": "bool",
          "name": "",
          "type": "bool"
        }
      ],
      "stateMutability": "nonpayable",
      "type": "function"
    },
    {
      "inputs": [
        {
          "internalType": "address",
          "name": "newOwner",
          "type": "address"
        }
      ],
      "name": "transferOwnership",
      "outputs": [],
      "stateMutability": "nonpayable",
      "type": "function"
    }
  ],
  "bytecode": "0x608060405234801561001057600080fd5b506123a1806100206000396000f3fe608060405234801561001057600080fd5b50600436106101ae5760003560e01c806370a08231116100ee57806395d89b4111610097578063d95b637111610071578063d95b637114610385578063dd62ed3e14610398578063f2fde38b146103ab578063fad8b32a146103be57600080fd5b806395d89b4114610357578063a8a34e0a1461035f578063a9059cbb1461037257600080fd5b8063760d9bba116100c8578063760d9bba146103075780637f23690c1461031a5780638da5cb5b1461032d57600080fd5b806370a08231146102c3578063715018a6146102ec5780637580d920146102f457600080fd5b806318160ddd1161015b578063313ce56711610135578063313ce5671461027557806347980aa31461027d5780634e3e6e9c1461029057806354f6127f146102b057600080fd5b806318160ddd1461024057806323b872dd146102525780632599f1591461026557600080fd5b8063095ea7b31161018c578063095ea7b31461020557806314a6e29314610218578063158ef93e1461022b57600080fd5b806301ffc9a7146101b357806306fdde03146101db578063077f224a146101f0575b600080fd5b6101c66101c1366004611f8f565b6103d1565b60405190151581526020015b60405180910390f35b6101e3610415565b6040516101d291906121cd565b6102036101fe366004612030565b610442565b005b6101c6610213366004611cfa565b6104bd565b610203610226366004611ed5565b6104d2565b60005460405160ff90911681526020016101d2565b6003545b6040519081526020016101d2565b6101c6610260366004611c45565b6105ab565b600054610100900460ff166101c6565b6102446105d4565b61020361028b366004611cfa565b6105f3565b6102a361029e366004611e98565b610601565b6040516101d29190612152565b6101e36102be366004611f39565b6106b5565b6102446102d1366004611bf7565b6001600160a01b031660009081526004602052604090205490565b6102036106c0565b610203610302366004611d24565b6106d4565b610203610315366004611c81565b6106e8565b610203610328366004611f52565b6107a5565b6000546201000090046001600160a01b03166040516001600160a01b0390911681526020016101d2565b6101e36107b7565b61020361036d366004611d8c565b6107e4565b6101c6610380366004611cfa565b6108ca565b610244610393366004611c12565b6108e9565b6102446103a6366004611c12565b610950565b6102036103b9366004611bf7565b610963565b6102036103cc366004611bf7565b6109f3565b60006001600160e01b031982167fe33f65c300000000000000000000000000000000000000000000000000000000148061040f575061040f826109ff565b92915050565b6060600061040f7fdeba1e292f8ba88238e10ab3c7f88bd4be4fac56cad5194b6ecceaf653468af1610a4d565b600061044e6001610aef565b90508015610466576000805461ff0019166101001790555b610471848484610c28565b80156104b7576000805461ff0019169055604051600181527f7f26b83ff96e1f2b6a682f133852f6798a09c465da95921460cefb38474024989060200160405180910390a15b50505050565b60006104c983836105f3565b50600192915050565b6104da610c9e565b80518251146105565760405162461bcd60e51b815260206004820152602660248201527f4b657973206c656e677468206e6f7420657175616c20746f2076616c7565732060448201527f6c656e677468000000000000000000000000000000000000000000000000000060648201526084015b60405180910390fd5b60005b82518110156105a65761059e8382815181106105775761057761233f565b60200260200101518383815181106105915761059161233f565b6020026020010151610cff565b600101610559565b505050565b60006105ca8484846001604051806020016040528060008152506106e8565b5060019392505050565b60025460009060ff166105e85760126105eb565b60005b60ff16905090565b6105fd8282610d09565b5050565b6060815167ffffffffffffffff81111561061d5761061d612355565b60405190808252806020026020018201604052801561065057816020015b606081526020019060019003908161063b5790505b50905060005b82518110156106af576106818382815181106106745761067461233f565b6020026020010151610a4d565b8282815181106106935761069361233f565b60200260200101819052506106a88160010190565b9050610656565b50919050565b606061040f82610a4d565b6106c8610c9e565b6106d26000610d57565b565b6106dc610c9e565b6104b784848484610de3565b336001600160a01b0386168114610790576001600160a01b038087166000908152600560209081526040808320938516835292905220548085111561077a576040517ff3a6b6910000000000000000000000000000000000000000000000000000000081526001600160a01b03808916600483015260248201839052831660448201526064810186905260840161054d565b61078e87836107898885612296565b610def565b505b61079d8686868686610f07565b505050505050565b6107ad610c9e565b6105fd8282610cff565b6060600061040f7f2f0a68ab07768e01943a599e73362a0e17a63a72e94dd2e384d2c1d4db932756610a4d565b835185511415806107f757508251855114155b8061080457508051855114155b1561083b576040517f263eee8d00000000000000000000000000000000000000000000000000000000815260040160405180910390fd5b60005b855181101561079d576108b886828151811061085c5761085c61233f565b60200260200101518683815181106108765761087661233f565b60200260200101518684815181106108905761089061233f565b6020026020010151868686815181106108ab576108ab61233f565b60200260200101516106e8565b806108c28161230e565b91505061083e565b60006104c93384846001604051806020016040528060008152506106e8565b6000826001600160a01b0316826001600160a01b0316141561092457506001600160a01b03811660009081526004602052604090205461040f565b506001600160a01b0380821660009081526005602090815260408083209386168352929052205461040f565b600061095c82846108e9565b9392505050565b61096b610c9e565b6001600160a01b0381166109e75760405162461bcd60e51b815260206004820152602660248201527f4f776e61626c653a206e6577206f776e657220697320746865207a65726f206160448201527f6464726573730000000000000000000000000000000000000000000000000000606482015260840161054d565b6109f081610d57565b50565b6109f033826000610def565b60006001600160e01b031982167f714df77c00000000000000000000000000000000000000000000000000000000148061040f57506301ffc9a760e01b6001600160e01b031983161461040f565b6000818152600160205260409020805460609190610a6a906122d9565b80601f0160208091040260200160405190810160405280929190818152602001828054610a96906122d9565b8015610ae35780601f10610ab857610100808354040283529160200191610ae3565b820191906000526020600020905b815481529060010190602001808311610ac657829003601f168201915b50505050509050919050565b60008054610100900460ff1615610b8c578160ff166001148015610b125750303b155b610b845760405162461bcd60e51b815260206004820152602e60248201527f496e697469616c697a61626c653a20636f6e747261637420697320616c72656160448201527f647920696e697469616c697a6564000000000000000000000000000000000000606482015260840161054d565b506000919050565b60005460ff808416911610610c095760405162461bcd60e51b815260206004820152602e60248201527f496e697469616c697a61626c653a20636f6e747261637420697320616c72656160448201527f647920696e697469616c697a6564000000000000000000000000000000000000606482015260840161054d565b506000805460ff191660ff92909216919091179055600190565b919050565b600054610100900460ff16610c935760405162461bcd60e51b815260206004820152602b60248201527f496e697469616c697a61626c653a20636f6e7472616374206973206e6f74206960448201526a6e697469616c697a696e6760a81b606482015260840161054d565b6105a6838383610f1b565b6000546001600160a01b03620100009091041633146106d25760405162461bcd60e51b815260206004820181905260248201527f4f776e61626c653a2063616c6c6572206973206e6f7420746865206f776e6572604482015260640161054d565b6105fd8282610f93565b610d138282611051565b6040518181526001600160a01b0383169033907f8c5be1e5ebec7d5bd14f71427d1e84f3dd0314c0f7b2291e5b200ac8c7c3b9259060200160405180910390a35050565b6000546001600160a01b038281166201000090920416146109f057600080546001600160a01b03838116620100008181027fffffffffffffffffffff0000000000000000000000000000000000000000ffff851617855560405193049190911692909183917f8be0079c531659141344cd1fd0a4f28419497f9722a3daafe3b4186f6b6457e091a35050565b6104b78484848461105c565b6001600160a01b038216610e2f576040517f6355e76600000000000000000000000000000000000000000000000000000000815260040160405180910390fd5b826001600160a01b0316826001600160a01b03161415610e4e57505050565b6001600160a01b0380841660009081526005602090815260408083209386168352929052208190558015610ec25780836001600160a01b0316836001600160a01b03167fd66aff874162a96578e919097b6f6d153dfd89a5cec41bb331fdb0c4aec16e2c60405160405180910390a4505050565b826001600160a01b0316826001600160a01b03167f50546e66e5f44d728365dc3908c63bc5cfeeab470722c1677e3073a6ac294aa160405160405180910390a3505050565b610f1485858585856110af565b5050505050565b600054610100900460ff16610f865760405162461bcd60e51b815260206004820152602b60248201527f496e697469616c697a61626c653a20636f6e7472616374206973206e6f74206960448201526a6e697469616c697a696e6760a81b606482015260840161054d565b6105a68383836000611110565b7fdeba1e292f8ba88238e10ab3c7f88bd4be4fac56cad5194b6ecceaf653468af1821415610fed576040517f85c169bd00000000000000000000000000000000000000000000000000000000815260040160405180910390fd5b7f2f0a68ab07768e01943a599e73362a0e17a63a72e94dd2e384d2c1d4db932756821415611047576040517f76755b3800000000000000000000000000000000000000000000000000000000815260040160405180910390fd5b6105fd8282611194565b6105fd338383610def565b611068848484846111e3565b6040518381526001600160a01b038516906000907fddf252ad1be2c89b69c2b068fc378daa952ba7f163c4a11628f55a4df523b3ef9060200160405180910390a350505050565b6110bc85858585856112ae565b836001600160a01b0316856001600160a01b03167fddf252ad1be2c89b69c2b068fc378daa952ba7f163c4a11628f55a4df523b3ef8560405161110191815260200190565b60405180910390a35050505050565b600054610100900460ff1661117b5760405162461bcd60e51b815260206004820152602b60248201527f496e697469616c697a61626c653a20636f6e7472616374206973206e6f74206960448201526a6e697469616c697a696e6760a81b606482015260840161054d565b6002805460ff19168215151790556104b7848484611438565b600082815260016020908152604090912082516111b39284019061197b565b5060405182907fcdf4e344c0d23d4cdd0474039d176c55b19d531070dbe17856bfb993a5b5720b90600090a25050565b6001600160a01b03841661120a57604051630d2d5ec360e41b815260040160405180910390fd5b3361121760008686611562565b6001600160a01b0385166000908152600460205260408120805486929061123f90849061227e565b92505081905550846001600160a01b031660006001600160a01b0316826001600160a01b03167f3997e418d2cef0b3b0e907b1e39605c3f7d32dbd061e82ea5b4a770d46a160a6878787604051611298939291906121e0565b60405180910390a4610f146000868686866115b2565b6001600160a01b03851615806112cb57506001600160a01b038416155b156112e957604051630d2d5ec360e41b815260040160405180910390fd5b6001600160a01b03851660009081526004602052604090205480841115611355576040517f08d47949000000000000000000000000000000000000000000000000000000008152600481018290526001600160a01b03871660248201526044810185905260640161054d565b33611361878787611562565b6001600160a01b03871660009081526004602052604081208054879290611389908490612296565b90915550506001600160a01b038616600090815260046020526040812080548792906113b690849061227e565b92505081905550856001600160a01b0316876001600160a01b0316826001600160a01b03167f3997e418d2cef0b3b0e907b1e39605c3f7d32dbd061e82ea5b4a770d46a160a688888860405161140e939291906121e0565b60405180910390a46114228787878661172b565b61142f87878787876115b2565b50505050505050565b600054610100900460ff166114a35760405162461bcd60e51b815260206004820152602b60248201527f496e697469616c697a61626c653a20636f6e7472616374206973206e6f74206960448201526a6e697469616c697a696e6760a81b606482015260840161054d565b6114ac8161180e565b61150e7feafec4d89fa9619884b60000a4d96624a38f7ac2d8d9a604ecf07c12c77e480c60001b6040518060400160405280600481526020017fa4d9662400000000000000000000000000000000000000000000000000000000815250611194565b6115387fdeba1e292f8ba88238e10ab3c7f88bd4be4fac56cad5194b6ecceaf653468af184611194565b6105a67f2f0a68ab07768e01943a599e73362a0e17a63a72e94dd2e384d2c1d4db93275683611194565b6001600160a01b038316611588578060036000828254611582919061227e565b90915550505b6001600160a01b0382166105a65780600360008282546115a89190612296565b9091555050505050565b6115c384631aed5a8560e21b611879565b1561169c576000858585846040516020016115e194939291906120e9565b60408051601f1981840301815290829052631aed5a8560e21b825291506001600160a01b03861690636bb56a149061163f907fdbe2c314e1aee2970c72666f2ebe8933a8575263ea71e5ff6a9178e95d47a26f9085906004016121b4565b600060405180830381600087803b15801561165957600080fd5b505af115801561166d573d6000803e3d6000fd5b505050506040513d6000823e601f3d908101601f191682016040526116959190810190611fb9565b5050610f14565b81610f14576001600160a01b0384163b156116ee576040517fa608fbb60000000000000000000000000000000000000000000000000000000081526001600160a01b038516600482015260240161054d565b6040517f26c247f40000000000000000000000000000000000000000000000000000000081526001600160a01b038516600482015260240161054d565b61173c84631aed5a8560e21b611879565b156104b75760008484848460405160200161175a94939291906120e9565b60408051601f1981840301815290829052631aed5a8560e21b825291506001600160a01b03861690636bb56a14906117b8907f40b8bec57d7b5ff0dbd9e9acd0a47dfeb0101e1a203766f5ccab00445fbf39e99085906004016121b4565b600060405180830381600087803b1580156117d257600080fd5b505af11580156117e6573d6000803e3d6000fd5b505050506040513d6000823e601f3d908101601f1916820160405261079d9190810190611fb9565b600054610100900460ff166109e75760405162461bcd60e51b815260206004820152602b60248201527f496e697469616c697a61626c653a20636f6e7472616374206973206e6f74206960448201526a6e697469616c697a696e6760a81b606482015260840161054d565b604080516001600160e01b0319831660248083019190915282518083039091018152604490910182526020810180517bffffffffffffffffffffffffffffffffffffffffffffffffffffffff166301ffc9a760e01b179052905160009190829081906001600160a01b03871690617530906118f5908690612136565b6000604051808303818686fa925050503d8060008114611931576040519150601f19603f3d011682016040523d82523d6000602084013e611936565b606091505b5091509150602081511015611951576000935050505061040f565b818015611971575060008180602001905181019061196f91906120a4565b115b9695505050505050565b828054611987906122d9565b90600052602060002090601f0160209004810192826119a957600085556119ef565b82601f106119c257805160ff19168380011785556119ef565b828001600101855582156119ef579182015b828111156119ef5782518255916020019190600101906119d4565b506119fb9291506119ff565b5090565b5b808211156119fb5760008155600101611a00565b80356001600160a01b0381168114610c2357600080fd5b600082601f830112611a3c57600080fd5b81356020611a51611a4c83612232565b612201565b80838252828201915082860187848660051b8901011115611a7157600080fd5b60005b85811015611a9757611a8582611a14565b84529284019290840190600101611a74565b5090979650505050505050565b600082601f830112611ab557600080fd5b81356020611ac5611a4c83612232565b80838252828201915082860187848660051b8901011115611ae557600080fd5b60005b85811015611a9757813584529284019290840190600101611ae8565b600082601f830112611b1557600080fd5b81356020611b25611a4c83612232565b80838252828201915082860187848660051b8901011115611b4557600080fd5b6000805b86811015611b8857823567ffffffffffffffff811115611b67578283fd5b611b758b88838d0101611ba6565b8652509385019391850191600101611b49565b509198975050505050505050565b80358015158114610c2357600080fd5b600082601f830112611bb757600080fd5b8135611bc5611a4c82612256565b818152846020838601011115611bda57600080fd5b816020850160208301376000918101602001919091529392505050565b600060208284031215611c0957600080fd5b61095c82611a14565b60008060408385031215611c2557600080fd5b611c2e83611a14565b9150611c3c60208401611a14565b90509250929050565b600080600060608486031215611c5a57600080fd5b611c6384611a14565b9250611c7160208501611a14565b9150604084013590509250925092565b600080600080600060a08688031215611c9957600080fd5b611ca286611a14565b9450611cb060208701611a14565b935060408601359250611cc560608701611b96565b9150608086013567ffffffffffffffff811115611ce157600080fd5b611ced88828901611ba6565b9150509295509295909350565b60008060408385031215611d0d57600080fd5b611d1683611a14565b946020939093013593505050565b60008060008060808587031215611d3a57600080fd5b611d4385611a14565b935060208501359250611d5860408601611b96565b9150606085013567ffffffffffffffff811115611d7457600080fd5b611d8087828801611ba6565b91505092959194509250565b600080600080600060a08688031215611da457600080fd5b853567ffffffffffffffff80821115611dbc57600080fd5b611dc889838a01611a2b565b9650602091508188013581811115611ddf57600080fd5b611deb8a828b01611a2b565b965050604088013581811115611e0057600080fd5b8801601f81018a13611e1157600080fd5b8035611e1f611a4c82612232565b8082825285820191508584018d878560051b8701011115611e3f57600080fd5b600094505b83851015611e62578035835260019490940193918601918601611e44565b509750611e759250505060608901611b96565b93506080880135915080821115611e8b57600080fd5b50611ced88828901611b04565b600060208284031215611eaa57600080fd5b813567ffffffffffffffff811115611ec157600080fd5b611ecd84828501611aa4565b949350505050565b60008060408385031215611ee857600080fd5b823567ffffffffffffffff80821115611f0057600080fd5b611f0c86838701611aa4565b93506020850135915080821115611f2257600080fd5b50611f2f85828601611b04565b9150509250929050565b600060208284031215611f4b57600080fd5b5035919050565b60008060408385031215611f6557600080fd5b82359150602083013567ffffffffffffffff811115611f8357600080fd5b611f2f85828601611ba6565b600060208284031215611fa157600080fd5b81356001600160e01b03198116811461095c57600080fd5b600060208284031215611fcb57600080fd5b815167ffffffffffffffff811115611fe257600080fd5b8201601f81018413611ff357600080fd5b8051612001611a4c82612256565b81815285602083850101111561201657600080fd5b6120278260208301602086016122ad565b95945050505050565b60008060006060848603121561204557600080fd5b833567ffffffffffffffff8082111561205d57600080fd5b61206987838801611ba6565b9450602086013591508082111561207f57600080fd5b5061208c86828701611ba6565b92505061209b60408501611a14565b90509250925092565b6000602082840312156120b657600080fd5b5051919050565b600081518084526120d58160208601602086016122ad565b601f01601f19169290920160200192915050565b60006bffffffffffffffffffffffff19808760601b168352808660601b1660148401525083602883015282516121268160488501602087016122ad565b9190910160480195945050505050565b600082516121488184602087016122ad565b9190910192915050565b6000602080830181845280855180835260408601915060408160051b870101925083870160005b828110156121a757603f198886030184526121958583516120bd565b94509285019290850190600101612179565b5092979650505050505050565b828152604060208201526000611ecd60408301846120bd565b60208152600061095c60208301846120bd565b838152821515602082015260606040820152600061202760608301846120bd565b604051601f8201601f1916810167ffffffffffffffff8111828210171561222a5761222a612355565b604052919050565b600067ffffffffffffffff82111561224c5761224c612355565b5060051b60200190565b600067ffffffffffffffff82111561227057612270612355565b50601f01601f191660200190565b6000821982111561229157612291612329565b500190565b6000828210156122a8576122a8612329565b500390565b60005b838110156122c85781810151838201526020016122b0565b838111156104b75750506000910152565b600181811c908216806122ed57607f821691505b602082108114156106af57634e487b7160e01b600052602260045260246000fd5b600060001982141561232257612322612329565b5060010190565b634e487b7160e01b600052601160045260246000fd5b634e487b7160e01b600052603260045260246000fd5b634e487b7160e01b600052604160045260246000fdfea2646970667358221220cfcb6d0ba221bb8ef08759087d2708e41a8fe83874225f6f66629d43fac11fb264736f6c63430008070033",
  "linkReferences": {},
  "deployedLinkReferences": {}
}