{
  "_format": "hh-sol-artifact-1",
  "contractName": "UniversalReceiverDelegateVaultSetter",
  "sourceName": "contracts/Helpers/UniversalReceivers/UniversalReceiverDelegateVaultSetter.sol",
  "abi": [
    {
      "inputs": [],
      "stateMutability": "nonpayable",
      "type": "constructor"
    },
    {
      "inputs": [
        {
          "internalType": "bytes4",
          "name": "interfaceId",
          "type": "bytes4"
        }
      ],
      "name": "supportsInterface",
      "outputs": [
        {
          "internalType": "bool",
          "name": "",
          "type": "bool"
        }
      ],
      "stateMutability": "view",
      "type": "function"
    },
    {
      "inputs": [
        {
          "internalType": "address",
          "name": "vaultadd",
          "type": "address"
        },
        {
          "internalType": "bytes32",
          "name": "key",
          "type": "bytes32"
        },
        {
          "internalType": "bytes",
          "name": "value",
          "type": "bytes"
        }
      ],
      "name": "universalReceiverDelegate",
      "outputs": [],
      "stateMutability": "nonpayable",
      "type": "function"
    }
  ],
  "bytecode": "0x608060405234801561001057600080fd5b50610021635122dded60e11b610026565b6100a9565b6001600160e01b031980821614156100845760405162461bcd60e51b815260206004820152601c60248201527f4552433136353a20696e76616c696420696e7465726661636520696400000000604482015260640160405180910390fd5b6001600160e01b0319166000908152602081905260409020805460ff19166001179055565b61047f806100b86000396000f3fe608060405234801561001057600080fd5b50600436106100365760003560e01c806301ffc9a71461003b578063c2d7bcc114610062575b600080fd5b61004e610049366004610303565b610077565b604051901515815260200160405180910390f35b61007561007036600461021d565b610100565b005b60007f01ffc9a7000000000000000000000000000000000000000000000000000000007fffffffff00000000000000000000000000000000000000000000000000000000831614806100fa57507fffffffff00000000000000000000000000000000000000000000000000000000821660009081526020819052604090205460ff165b92915050565b6040805160018082528183019092526000916020808301908036833750506040805160018082528183019092529293506000929150602082015b606081526020019060019003908161013a57905050905083826000815181106101655761016561041d565b60200260200101818152505082816000815181106101855761018561041d565b60209081029190910101526040517f14a6e29300000000000000000000000000000000000000000000000000000000815273ffffffffffffffffffffffffffffffffffffffff8616906314a6e293906101e4908590859060040161034c565b600060405180830381600087803b1580156101fe57600080fd5b505af1158015610212573d6000803e3d6000fd5b505050505050505050565b60008060006060848603121561023257600080fd5b833573ffffffffffffffffffffffffffffffffffffffff8116811461025657600080fd5b925060208401359150604084013567ffffffffffffffff8082111561027a57600080fd5b818601915086601f83011261028e57600080fd5b8135818111156102a0576102a0610433565b604051601f8201601f19908116603f011681019083821181831017156102c8576102c8610433565b816040528281528960208487010111156102e157600080fd5b8260208601602083013760006020848301015280955050505050509250925092565b60006020828403121561031557600080fd5b81357fffffffff000000000000000000000000000000000000000000000000000000008116811461034557600080fd5b9392505050565b604080825283519082018190526000906020906060840190828701845b8281101561038557815184529284019290840190600101610369565b50505083810382850152845180825282820190600581901b8301840187850160005b8381101561040e57601f19808785030186528251805180865260005b818110156103de578281018b01518782018c01528a016103c3565b818111156103ef5760008b83890101525b5096890196601f019091169390930187019250908601906001016103a7565b50909998505050505050505050565b634e487b7160e01b600052603260045260246000fd5b634e487b7160e01b600052604160045260246000fdfea264697066735822122057ab13f08c1761e8816c8507c4f294f09dc41b85047e5dac522309e155578ab764736f6c63430008070033",
  "linkReferences": {},
  "deployedLinkReferences": {}
}