{
  "_format": "hh-sol-artifact-1",
  "contractName": "LSP7CappedSupplyTester",
  "sourceName": "contracts/Helpers/Tokens/LSP7CappedSupplyTester.sol",
  "abi": [
    {
      "inputs": [
        {
          "internalType": "string",
          "name": "name",
          "type": "string"
        },
        {
          "internalType": "string",
          "name": "symbol",
          "type": "string"
        },
        {
          "internalType": "address",
          "name": "newOwner",
          "type": "address"
        },
        {
          "internalType": "uint256",
          "name": "tokenSupplyCap",
          "type": "uint256"
        }
      ],
      "stateMutability": "nonpayable",
      "type": "constructor"
    },
    {
      "inputs": [],
      "name": "LSP4TokenNameNotEditable",
      "type": "error"
    },
    {
      "inputs": [],
      "name": "LSP4TokenSymbolNotEditable",
      "type": "error"
    },
    {
      "inputs": [
        {
          "internalType": "address",
          "name": "tokenOwner",
          "type": "address"
        },
        {
          "internalType": "uint256",
          "name": "authorizedAmount",
          "type": "uint256"
        },
        {
          "internalType": "address",
          "name": "operator",
          "type": "address"
        },
        {
          "internalType": "uint256",
          "name": "amount",
          "type": "uint256"
        }
      ],
      "name": "LSP7AmountExceedsAuthorizedAmount",
      "type": "error"
    },
    {
      "inputs": [
        {
          "internalType": "uint256",
          "name": "balance",
          "type": "uint256"
        },
        {
          "internalType": "address",
          "name": "tokenOwner",
          "type": "address"
        },
        {
          "internalType": "uint256",
          "name": "amount",
          "type": "uint256"
        }
      ],
      "name": "LSP7AmountExceedsBalance",
      "type": "error"
    },
    {
      "inputs": [],
      "name": "LSP7CannotSendWithAddressZero",
      "type": "error"
    },
    {
      "inputs": [],
      "name": "LSP7CannotUseAddressZeroAsOperator",
      "type": "error"
    },
    {
      "inputs": [],
      "name": "LSP7CappedSupplyCannotMintOverCap",
      "type": "error"
    },
    {
      "inputs": [],
      "name": "LSP7CappedSupplyRequired",
      "type": "error"
    },
    {
      "inputs": [],
      "name": "LSP7InvalidTransferBatch",
      "type": "error"
    },
    {
      "inputs": [
        {
          "internalType": "address",
          "name": "tokenReceiver",
          "type": "address"
        }
      ],
      "name": "LSP7NotifyTokenReceiverContractMissingLSP1Interface",
      "type": "error"
    },
    {
      "inputs": [
        {
          "internalType": "address",
          "name": "tokenReceiver",
          "type": "address"
        }
      ],
      "name": "LSP7NotifyTokenReceiverIsEOA",
      "type": "error"
    },
    {
      "anonymous": false,
      "inputs": [
        {
          "indexed": true,
          "internalType": "address",
          "name": "operator",
          "type": "address"
        },
        {
          "indexed": true,
          "internalType": "address",
          "name": "tokenOwner",
          "type": "address"
        },
        {
          "indexed": true,
          "internalType": "uint256",
          "name": "amount",
          "type": "uint256"
        }
      ],
      "name": "AuthorizedOperator",
      "type": "event"
    },
    {
      "anonymous": false,
      "inputs": [
        {
          "indexed": true,
          "internalType": "bytes32",
          "name": "dataKey",
          "type": "bytes32"
        }
      ],
      "name": "DataChanged",
      "type": "event"
    },
    {
      "anonymous": false,
      "inputs": [
        {
          "indexed": true,
          "internalType": "address",
          "name": "previousOwner",
          "type": "address"
        },
        {
          "indexed": true,
          "internalType": "address",
          "name": "newOwner",
          "type": "address"
        }
      ],
      "name": "OwnershipTransferred",
      "type": "event"
    },
    {
      "anonymous": false,
      "inputs": [
        {
          "indexed": true,
          "internalType": "address",
          "name": "operator",
          "type": "address"
        },
        {
          "indexed": true,
          "internalType": "address",
          "name": "tokenOwner",
          "type": "address"
        }
      ],
      "name": "RevokedOperator",
      "type": "event"
    },
    {
      "anonymous": false,
      "inputs": [
        {
          "indexed": true,
          "internalType": "address",
          "name": "operator",
          "type": "address"
        },
        {
          "indexed": true,
          "internalType": "address",
          "name": "from",
          "type": "address"
        },
        {
          "indexed": true,
          "internalType": "address",
          "name": "to",
          "type": "address"
        },
        {
          "indexed": false,
          "internalType": "uint256",
          "name": "amount",
          "type": "uint256"
        },
        {
          "indexed": false,
          "internalType": "bool",
          "name": "force",
          "type": "bool"
        },
        {
          "indexed": false,
          "internalType": "bytes",
          "name": "data",
          "type": "bytes"
        }
      ],
      "name": "Transfer",
      "type": "event"
    },
    {
      "inputs": [
        {
          "internalType": "address",
          "name": "operator",
          "type": "address"
        },
        {
          "internalType": "uint256",
          "name": "amount",
          "type": "uint256"
        }
      ],
      "name": "authorizeOperator",
      "outputs": [],
      "stateMutability": "nonpayable",
      "type": "function"
    },
    {
      "inputs": [
        {
          "internalType": "address",
          "name": "tokenOwner",
          "type": "address"
        }
      ],
      "name": "balanceOf",
      "outputs": [
        {
          "internalType": "uint256",
          "name": "",
          "type": "uint256"
        }
      ],
      "stateMutability": "view",
      "type": "function"
    },
    {
      "inputs": [
        {
          "internalType": "address",
          "name": "from",
          "type": "address"
        },
        {
          "internalType": "uint256",
          "name": "amount",
          "type": "uint256"
        }
      ],
      "name": "burn",
      "outputs": [],
      "stateMutability": "nonpayable",
      "type": "function"
    },
    {
      "inputs": [],
      "name": "decimals",
      "outputs": [
        {
          "internalType": "uint256",
          "name": "",
          "type": "uint256"
        }
      ],
      "stateMutability": "view",
      "type": "function"
    },
    {
      "inputs": [
        {
          "internalType": "bytes32[]",
          "name": "dataKeys",
          "type": "bytes32[]"
        }
      ],
      "name": "getData",
      "outputs": [
        {
          "internalType": "bytes[]",
          "name": "dataValues",
          "type": "bytes[]"
        }
      ],
      "stateMutability": "view",
      "type": "function"
    },
    {
      "inputs": [
        {
          "internalType": "bytes32",
          "name": "dataKey",
          "type": "bytes32"
        }
      ],
      "name": "getData",
      "outputs": [
        {
          "internalType": "bytes",
          "name": "dataValue",
          "type": "bytes"
        }
      ],
      "stateMutability": "view",
      "type": "function"
    },
    {
      "inputs": [
        {
          "internalType": "address",
          "name": "operator",
          "type": "address"
        },
        {
          "internalType": "address",
          "name": "tokenOwner",
          "type": "address"
        }
      ],
      "name": "isOperatorFor",
      "outputs": [
        {
          "internalType": "uint256",
          "name": "",
          "type": "uint256"
        }
      ],
      "stateMutability": "view",
      "type": "function"
    },
    {
      "inputs": [
        {
          "internalType": "address",
          "name": "to",
          "type": "address"
        },
        {
          "internalType": "uint256",
          "name": "amount",
          "type": "uint256"
        }
      ],
      "name": "mint",
      "outputs": [],
      "stateMutability": "nonpayable",
      "type": "function"
    },
    {
      "inputs": [],
      "name": "owner",
      "outputs": [
        {
          "internalType": "address",
          "name": "",
          "type": "address"
        }
      ],
      "stateMutability": "view",
      "type": "function"
    },
    {
      "inputs": [],
      "name": "renounceOwnership",
      "outputs": [],
      "stateMutability": "nonpayable",
      "type": "function"
    },
    {
      "inputs": [
        {
          "internalType": "address",
          "name": "operator",
          "type": "address"
        }
      ],
      "name": "revokeOperator",
      "outputs": [],
      "stateMutability": "nonpayable",
      "type": "function"
    },
    {
      "inputs": [
        {
          "internalType": "bytes32[]",
          "name": "dataKeys",
          "type": "bytes32[]"
        },
        {
          "internalType": "bytes[]",
          "name": "dataValues",
          "type": "bytes[]"
        }
      ],
      "name": "setData",
      "outputs": [],
      "stateMutability": "nonpayable",
      "type": "function"
    },
    {
      "inputs": [
        {
          "internalType": "bytes32",
          "name": "dataKey",
          "type": "bytes32"
        },
        {
          "internalType": "bytes",
          "name": "dataValue",
          "type": "bytes"
        }
      ],
      "name": "setData",
      "outputs": [],
      "stateMutability": "nonpayable",
      "type": "function"
    },
    {
      "inputs": [
        {
          "internalType": "bytes4",
          "name": "interfaceId",
          "type": "bytes4"
        }
      ],
      "name": "supportsInterface",
      "outputs": [
        {
          "internalType": "bool",
          "name": "",
          "type": "bool"
        }
      ],
      "stateMutability": "view",
      "type": "function"
    },
    {
      "inputs": [],
      "name": "tokenSupplyCap",
      "outputs": [
        {
          "internalType": "uint256",
          "name": "",
          "type": "uint256"
        }
      ],
      "stateMutability": "view",
      "type": "function"
    },
    {
      "inputs": [],
      "name": "totalSupply",
      "outputs": [
        {
          "internalType": "uint256",
          "name": "",
          "type": "uint256"
        }
      ],
      "stateMutability": "view",
      "type": "function"
    },
    {
      "inputs": [
        {
          "internalType": "address",
          "name": "from",
          "type": "address"
        },
        {
          "internalType": "address",
          "name": "to",
          "type": "address"
        },
        {
          "internalType": "uint256",
          "name": "amount",
          "type": "uint256"
        },
        {
          "internalType": "bool",
          "name": "force",
          "type": "bool"
        },
        {
          "internalType": "bytes",
          "name": "data",
          "type": "bytes"
        }
      ],
      "name": "transfer",
      "outputs": [],
      "stateMutability": "nonpayable",
      "type": "function"
    },
    {
      "inputs": [
        {
          "internalType": "address[]",
          "name": "from",
          "type": "address[]"
        },
        {
          "internalType": "address[]",
          "name": "to",
          "type": "address[]"
        },
        {
          "internalType": "uint256[]",
          "name": "amount",
          "type": "uint256[]"
        },
        {
          "internalType": "bool",
          "name": "force",
          "type": "bool"
        },
        {
          "internalType": "bytes[]",
          "name": "data",
          "type": "bytes[]"
        }
      ],
      "name": "transferBatch",
      "outputs": [],
      "stateMutability": "nonpayable",
      "type": "function"
    },
    {
      "inputs": [
        {
          "internalType": "address",
          "name": "newOwner",
          "type": "address"
        }
      ],
      "name": "transferOwnership",
      "outputs": [],
      "stateMutability": "nonpayable",
      "type": "function"
    }
  ],
  "bytecode": "0x60806040523480156200001157600080fd5b50604051620021e5380380620021e583398101604081905262000034916200037c565b8084848460018383838062000054816200016760201b6200082c1760201c565b50620000ab7feafec4d89fa9619884b60000a4d96624a38f7ac2d8d9a604ecf07c12c77e480c60001b604051806040016040528060048152602001632936598960e21b815250620001ce60201b620008a91760201c565b620000e57fdeba1e292f8ba88238e10ab3c7f88bd4be4fac56cad5194b6ecceaf653468af160001b84620001ce60201b620008a91760201c565b6200011f7f2f0a68ab07768e01943a599e73362a0e17a63a72e94dd2e384d2c1d4db93275660001b83620001ce60201b620008a91760201c565b50506002805460ff1916921515929092179091555050508115159050620001595760405163acf1d8c560e01b815260040160405180910390fd5b600655506200046292505050565b6000546001600160a01b03828116911614620001cb57600080546001600160a01b038381166001600160a01b0319831681178455604051919092169283917f8be0079c531659141344cd1fd0a4f28419497f9722a3daafe3b4186f6b6457e09190a3505b50565b60008281526001602090815260409091208251620001ef928401906200021f565b5060405182907fcdf4e344c0d23d4cdd0474039d176c55b19d531070dbe17856bfb993a5b5720b90600090a25050565b8280546200022d906200040f565b90600052602060002090601f0160209004810192826200025157600085556200029c565b82601f106200026c57805160ff19168380011785556200029c565b828001600101855582156200029c579182015b828111156200029c5782518255916020019190600101906200027f565b50620002aa929150620002ae565b5090565b5b80821115620002aa5760008155600101620002af565b600082601f830112620002d757600080fd5b81516001600160401b0380821115620002f457620002f46200044c565b604051601f8301601f19908116603f011681019082821181831017156200031f576200031f6200044c565b816040528381526020925086838588010111156200033c57600080fd5b600091505b8382101562000360578582018301518183018401529082019062000341565b83821115620003725760008385830101525b9695505050505050565b600080600080608085870312156200039357600080fd5b84516001600160401b0380821115620003ab57600080fd5b620003b988838901620002c5565b95506020870151915080821115620003d057600080fd5b50620003df87828801620002c5565b604087015190945090506001600160a01b0381168114620003ff57600080fd5b6060959095015193969295505050565b600181811c908216806200042457607f821691505b602082108114156200044657634e487b7160e01b600052602260045260246000fd5b50919050565b634e487b7160e01b600052604160045260246000fd5b611d7380620004726000396000f3fe608060405234801561001057600080fd5b50600436106101515760003560e01c806370a08231116100cd5780639dc29fac11610081578063d95b637111610066578063d95b6371146102b3578063f2fde38b146102c6578063fad8b32a146102d957600080fd5b80639dc29fac1461028d578063a8a34e0a146102a057600080fd5b8063760d9bba116100b2578063760d9bba1461024c5780637f23690c1461025f5780638da5cb5b1461027257600080fd5b806370a082311461021b578063715018a61461024457600080fd5b806340c10f19116101245780634e3e6e9c116101095780634e3e6e9c146101d357806352058d8a146101f357806354f6127f146101fb57600080fd5b806340c10f19146101ad57806347980aa3146101c057600080fd5b806301ffc9a71461015657806314a6e2931461017e57806318160ddd14610193578063313ce567146101a5575b600080fd5b6101696101643660046119d5565b6102ec565b60405190151581526020015b60405180910390f35b61019161018c36600461191b565b610330565b005b6003545b604051908152602001610175565b610197610409565b6101916101bb3660046117a8565b610428565b6101916101ce3660046117a8565b61046e565b6101e66101e13660046118de565b610479565b6040516101759190611b24565b600654610197565b61020e61020936600461197f565b61052d565b6040516101759190611b9f565b6101976102293660046116da565b6001600160a01b031660009081526004602052604090205490565b610191610538565b61019161025a36600461172f565b61054c565b61019161026d366004611998565b6105f0565b6000546040516001600160a01b039091168152602001610175565b61019161029b3660046117a8565b610602565b6101916102ae3660046117d2565b610642565b6101976102c13660046116fc565b610728565b6101916102d43660046116da565b610790565b6101916102e73660046116da565b610820565b60006001600160e01b031982167fe33f65c300000000000000000000000000000000000000000000000000000000148061032a575061032a826108f8565b92915050565b610338610946565b80518251146103b45760405162461bcd60e51b815260206004820152602660248201527f4b657973206c656e677468206e6f7420657175616c20746f2076616c7565732060448201527f6c656e677468000000000000000000000000000000000000000000000000000060648201526084015b60405180910390fd5b60005b8251811015610404576103fc8382815181106103d5576103d5611d11565b60200260200101518383815181106103ef576103ef611d11565b60200260200101516109af565b6001016103b7565b505050565b60025460009060ff1661041d576012610420565b60005b60ff16905090565b61046a828260016040518060400160405280601581526020017f746f6b656e207072696e74657220676f20627272720000000000000000000000815250610a6d565b5050565b61046a338383610a7f565b6060815167ffffffffffffffff81111561049557610495611d27565b6040519080825280602002602001820160405280156104c857816020015b60608152602001906001900390816104b35790505b50905060005b8251811015610527576104f98382815181106104ec576104ec611d11565b6020026020010151610b97565b82828151811061050b5761050b611d11565b60200260200101819052506105208160010190565b90506104ce565b50919050565b606061032a82610b97565b610540610946565b61054a600061082c565b565b336001600160a01b03861681146105db576001600160a01b03808716600090815260056020908152604080832093851683529290522054808511156105c55760405163f3a6b69160e01b81526001600160a01b0380891660048301526024820183905283166044820152606481018690526084016103ab565b6105d987836105d48885611c68565b610a7f565b505b6105e88686868686610c39565b505050505050565b6105f8610946565b61046a82826109af565b61046a82826040518060400160405280600d81526020017f6665656c20746865206275726e00000000000000000000000000000000000000815250610daa565b8351855114158061065557508251855114155b8061066257508051855114155b15610699576040517f263eee8d00000000000000000000000000000000000000000000000000000000815260040160405180910390fd5b60005b85518110156105e8576107168682815181106106ba576106ba611d11565b60200260200101518683815181106106d4576106d4611d11565b60200260200101518684815181106106ee576106ee611d11565b60200260200101518686868151811061070957610709611d11565b602002602001015161054c565b8061072081611ce0565b91505061069c565b6000826001600160a01b0316826001600160a01b0316141561076357506001600160a01b03811660009081526004602052604090205461032a565b506001600160a01b0380821660009081526005602090815260408083209386168352929052205492915050565b610798610946565b6001600160a01b0381166108145760405162461bcd60e51b815260206004820152602660248201527f4f776e61626c653a206e6577206f776e657220697320746865207a65726f206160448201527f646472657373000000000000000000000000000000000000000000000000000060648201526084016103ab565b61081d8161082c565b50565b61081d33826000610a7f565b6000546001600160a01b0382811691161461081d57600080546001600160a01b038381167fffffffffffffffffffffffff0000000000000000000000000000000000000000831681178455604051919092169283917f8be0079c531659141344cd1fd0a4f28419497f9722a3daafe3b4186f6b6457e09190a35050565b600082815260016020908152604090912082516108c892840190611459565b5060405182907fcdf4e344c0d23d4cdd0474039d176c55b19d531070dbe17856bfb993a5b5720b90600090a25050565b60006001600160e01b031982167f714df77c00000000000000000000000000000000000000000000000000000000148061032a57506301ffc9a760e01b6001600160e01b031983161461032a565b336109596000546001600160a01b031690565b6001600160a01b03161461054a5760405162461bcd60e51b815260206004820181905260248201527f4f776e61626c653a2063616c6c6572206973206e6f7420746865206f776e657260448201526064016103ab565b7fdeba1e292f8ba88238e10ab3c7f88bd4be4fac56cad5194b6ecceaf653468af1821415610a09576040517f85c169bd00000000000000000000000000000000000000000000000000000000815260040160405180910390fd5b7f2f0a68ab07768e01943a599e73362a0e17a63a72e94dd2e384d2c1d4db932756821415610a63576040517f76755b3800000000000000000000000000000000000000000000000000000000815260040160405180910390fd5b61046a82826108a9565b610a7984848484610f85565b50505050565b6001600160a01b038216610abf576040517f6355e76600000000000000000000000000000000000000000000000000000000815260040160405180910390fd5b826001600160a01b0316826001600160a01b03161415610ade57505050565b6001600160a01b0380841660009081526005602090815260408083209386168352929052208190558015610b525780836001600160a01b0316836001600160a01b03167fd66aff874162a96578e919097b6f6d153dfd89a5cec41bb331fdb0c4aec16e2c60405160405180910390a4505050565b826001600160a01b0316826001600160a01b03167f50546e66e5f44d728365dc3908c63bc5cfeeab470722c1677e3073a6ac294aa160405160405180910390a3505050565b6000818152600160205260409020805460609190610bb490611cab565b80601f0160208091040260200160405190810160405280929190818152602001828054610be090611cab565b8015610c2d5780601f10610c0257610100808354040283529160200191610c2d565b820191906000526020600020905b815481529060010190602001808311610c1057829003601f168201915b50505050509050919050565b6001600160a01b0385161580610c5657506001600160a01b038416155b15610c7457604051630d2d5ec360e41b815260040160405180910390fd5b6001600160a01b03851660009081526004602052604090205480841115610cc7576040516308d4794960e01b8152600481018290526001600160a01b0387166024820152604481018590526064016103ab565b33610cd3878787610fe0565b6001600160a01b03871660009081526004602052604081208054879290610cfb908490611c68565b90915550506001600160a01b03861660009081526004602052604081208054879290610d28908490611c50565b92505081905550856001600160a01b0316876001600160a01b0316826001600160a01b03167f3997e418d2cef0b3b0e907b1e39605c3f7d32dbd061e82ea5b4a770d46a160a6888888604051610d8093929190611bb2565b60405180910390a4610d9487878786611030565b610da18787878787611113565b50505050505050565b6001600160a01b038316610dd157604051630d2d5ec360e41b815260040160405180910390fd5b6001600160a01b03831660009081526004602052604090205480831115610e24576040516308d4794960e01b8152600481018290526001600160a01b0385166024820152604481018490526064016103ab565b336001600160a01b0385168114610edb576001600160a01b0380861660009081526005602090815260408083209385168352929052205480851115610e9d5760405163f3a6b69160e01b81526001600160a01b0380881660048301526024820183905283166044820152606481018690526084016103ab565b6001600160a01b03808716600090815260056020908152604080832093861683529290529081208054879290610ed4908490611c68565b9091555050505b610ee785600086610fe0565b6001600160a01b03851660009081526004602052604081208054869290610f0f908490611c68565b9250508190555060006001600160a01b0316856001600160a01b0316826001600160a01b03167f3997e418d2cef0b3b0e907b1e39605c3f7d32dbd061e82ea5b4a770d46a160a687600088604051610f6993929190611bb2565b60405180910390a4610f7e8560008686611030565b5050505050565b60065483610f9260035490565b610f9c9190611c50565b1115610fd4576040517feacbf0d100000000000000000000000000000000000000000000000000000000815260040160405180910390fd5b610a798484848461128c565b6001600160a01b0383166110065780600360008282546110009190611c50565b90915550505b6001600160a01b0382166104045780600360008282546110269190611c68565b9091555050505050565b61104184631aed5a8560e21b611357565b15610a795760008484848460405160200161105f9493929190611abb565b60408051601f1981840301815290829052631aed5a8560e21b825291506001600160a01b03861690636bb56a14906110bd907f40b8bec57d7b5ff0dbd9e9acd0a47dfeb0101e1a203766f5ccab00445fbf39e9908590600401611b86565b600060405180830381600087803b1580156110d757600080fd5b505af11580156110eb573d6000803e3d6000fd5b505050506040513d6000823e601f3d908101601f191682016040526105e891908101906119ff565b61112484631aed5a8560e21b611357565b156111fd576000858585846040516020016111429493929190611abb565b60408051601f1981840301815290829052631aed5a8560e21b825291506001600160a01b03861690636bb56a14906111a0907fdbe2c314e1aee2970c72666f2ebe8933a8575263ea71e5ff6a9178e95d47a26f908590600401611b86565b600060405180830381600087803b1580156111ba57600080fd5b505af11580156111ce573d6000803e3d6000fd5b505050506040513d6000823e601f3d908101601f191682016040526111f691908101906119ff565b5050610f7e565b81610f7e576001600160a01b0384163b1561124f576040517fa608fbb60000000000000000000000000000000000000000000000000000000081526001600160a01b03851660048201526024016103ab565b6040517f26c247f40000000000000000000000000000000000000000000000000000000081526001600160a01b03851660048201526024016103ab565b6001600160a01b0384166112b357604051630d2d5ec360e41b815260040160405180910390fd5b336112c060008686610fe0565b6001600160a01b038516600090815260046020526040812080548692906112e8908490611c50565b92505081905550846001600160a01b031660006001600160a01b0316826001600160a01b03167f3997e418d2cef0b3b0e907b1e39605c3f7d32dbd061e82ea5b4a770d46a160a687878760405161134193929190611bb2565b60405180910390a4610f7e600086868686611113565b604080516001600160e01b0319831660248083019190915282518083039091018152604490910182526020810180517bffffffffffffffffffffffffffffffffffffffffffffffffffffffff166301ffc9a760e01b179052905160009190829081906001600160a01b03871690617530906113d3908690611b08565b6000604051808303818686fa925050503d806000811461140f576040519150601f19603f3d011682016040523d82523d6000602084013e611414565b606091505b509150915060208151101561142f576000935050505061032a565b81801561144f575060008180602001905181019061144d9190611a76565b115b9695505050505050565b82805461146590611cab565b90600052602060002090601f01602090048101928261148757600085556114cd565b82601f106114a057805160ff19168380011785556114cd565b828001600101855582156114cd579182015b828111156114cd5782518255916020019190600101906114b2565b506114d99291506114dd565b5090565b5b808211156114d957600081556001016114de565b80356001600160a01b038116811461150957600080fd5b919050565b600082601f83011261151f57600080fd5b8135602061153461152f83611c04565b611bd3565b80838252828201915082860187848660051b890101111561155457600080fd5b60005b8581101561157a57611568826114f2565b84529284019290840190600101611557565b5090979650505050505050565b600082601f83011261159857600080fd5b813560206115a861152f83611c04565b80838252828201915082860187848660051b89010111156115c857600080fd5b60005b8581101561157a578135845292840192908401906001016115cb565b600082601f8301126115f857600080fd5b8135602061160861152f83611c04565b80838252828201915082860187848660051b890101111561162857600080fd5b6000805b8681101561166b57823567ffffffffffffffff81111561164a578283fd5b6116588b88838d0101611689565b865250938501939185019160010161162c565b509198975050505050505050565b8035801515811461150957600080fd5b600082601f83011261169a57600080fd5b81356116a861152f82611c28565b8181528460208386010111156116bd57600080fd5b816020850160208301376000918101602001919091529392505050565b6000602082840312156116ec57600080fd5b6116f5826114f2565b9392505050565b6000806040838503121561170f57600080fd5b611718836114f2565b9150611726602084016114f2565b90509250929050565b600080600080600060a0868803121561174757600080fd5b611750866114f2565b945061175e602087016114f2565b93506040860135925061177360608701611679565b9150608086013567ffffffffffffffff81111561178f57600080fd5b61179b88828901611689565b9150509295509295909350565b600080604083850312156117bb57600080fd5b6117c4836114f2565b946020939093013593505050565b600080600080600060a086880312156117ea57600080fd5b853567ffffffffffffffff8082111561180257600080fd5b61180e89838a0161150e565b965060209150818801358181111561182557600080fd5b6118318a828b0161150e565b96505060408801358181111561184657600080fd5b8801601f81018a1361185757600080fd5b803561186561152f82611c04565b8082825285820191508584018d878560051b870101111561188557600080fd5b600094505b838510156118a857803583526001949094019391860191860161188a565b5097506118bb9250505060608901611679565b935060808801359150808211156118d157600080fd5b5061179b888289016115e7565b6000602082840312156118f057600080fd5b813567ffffffffffffffff81111561190757600080fd5b61191384828501611587565b949350505050565b6000806040838503121561192e57600080fd5b823567ffffffffffffffff8082111561194657600080fd5b61195286838701611587565b9350602085013591508082111561196857600080fd5b50611975858286016115e7565b9150509250929050565b60006020828403121561199157600080fd5b5035919050565b600080604083850312156119ab57600080fd5b82359150602083013567ffffffffffffffff8111156119c957600080fd5b61197585828601611689565b6000602082840312156119e757600080fd5b81356001600160e01b0319811681146116f557600080fd5b600060208284031215611a1157600080fd5b815167ffffffffffffffff811115611a2857600080fd5b8201601f81018413611a3957600080fd5b8051611a4761152f82611c28565b818152856020838501011115611a5c57600080fd5b611a6d826020830160208601611c7f565b95945050505050565b600060208284031215611a8857600080fd5b5051919050565b60008151808452611aa7816020860160208601611c7f565b601f01601f19169290920160200192915050565b60006bffffffffffffffffffffffff19808760601b168352808660601b166014840152508360288301528251611af8816048850160208701611c7f565b9190910160480195945050505050565b60008251611b1a818460208701611c7f565b9190910192915050565b6000602080830181845280855180835260408601915060408160051b870101925083870160005b82811015611b7957603f19888603018452611b67858351611a8f565b94509285019290850190600101611b4b565b5092979650505050505050565b8281526040602082015260006119136040830184611a8f565b6020815260006116f56020830184611a8f565b8381528215156020820152606060408201526000611a6d6060830184611a8f565b604051601f8201601f1916810167ffffffffffffffff81118282101715611bfc57611bfc611d27565b604052919050565b600067ffffffffffffffff821115611c1e57611c1e611d27565b5060051b60200190565b600067ffffffffffffffff821115611c4257611c42611d27565b50601f01601f191660200190565b60008219821115611c6357611c63611cfb565b500190565b600082821015611c7a57611c7a611cfb565b500390565b60005b83811015611c9a578181015183820152602001611c82565b83811115610a795750506000910152565b600181811c90821680611cbf57607f821691505b6020821081141561052757634e487b7160e01b600052602260045260246000fd5b6000600019821415611cf457611cf4611cfb565b5060010190565b634e487b7160e01b600052601160045260246000fd5b634e487b7160e01b600052603260045260246000fd5b634e487b7160e01b600052604160045260246000fdfea264697066735822122010c445b0871c0dd13fcf69b2d7d72a4904f5ae7b09c492bce9d30fcfe6fd299064736f6c63430008070033",
  "linkReferences": {},
  "deployedLinkReferences": {}
}