{
  "contracts/Helpers/Security/Reentrancy.sol": {
    "Reentrancy": {
      "abi": [
        {
          "inputs": [
            {
              "internalType": "address",
              "name": "_keyManager",
              "type": "address"
            }
          ],
          "stateMutability": "nonpayable",
          "type": "constructor"
        },
        {
          "stateMutability": "payable",
          "type": "fallback"
        },
        {
          "inputs": [
            {
              "internalType": "bytes",
              "name": "_dataPayload",
              "type": "bytes"
            }
          ],
          "name": "loadPayload",
          "outputs": [],
          "stateMutability": "nonpayable",
          "type": "function"
        }
      ],
      "devdoc": {
        "kind": "dev",
        "methods": {},
        "version": 1
      },
      "evm": {
        "bytecode": {
          "linkReferences": {},
          "object": "608060405234801561001057600080fd5b506040516103c43803806103c483398101604081905261002f91610054565b600180546001600160a01b0319166001600160a01b0392909216919091179055610084565b60006020828403121561006657600080fd5b81516001600160a01b038116811461007d57600080fd5b9392505050565b610331806100936000396000f3fe60806040526004361061001e5760003560e01c80638032bbdb1461008b575b60015460405173ffffffffffffffffffffffffffffffffffffffff909116906100499060009061020e565b6000604051808303816000865af19150503d8060008114610086576040519150601f19603f3d011682016040523d82523d6000602084013e505050005b505050005b34801561009757600080fd5b506100ab6100a636600461015d565b6100ad565b005b80516100c09060009060208401906100c4565b5050565b8280546100d0906102aa565b90600052602060002090601f0160209004810192826100f25760008555610138565b82601f1061010b57805160ff1916838001178555610138565b82800160010185558215610138579182015b8281111561013857825182559160200191906001019061011d565b50610144929150610148565b5090565b5b808211156101445760008155600101610149565b60006020828403121561016f57600080fd5b813567ffffffffffffffff8082111561018757600080fd5b818401915084601f83011261019b57600080fd5b8135818111156101ad576101ad6102e5565b604051601f8201601f19908116603f011681019083821181831017156101d5576101d56102e5565b816040528281528760208487010111156101ee57600080fd5b826020860160208301376000928101602001929092525095945050505050565b600080835481600182811c91508083168061022a57607f831692505b602080841082141561024a57634e487b7160e01b86526022600452602486fd5b81801561025e576001811461026f5761029c565b60ff1986168952848901965061029c565b60008a81526020902060005b868110156102945781548b82015290850190830161027b565b505084890196505b509498975050505050505050565b600181811c908216806102be57607f821691505b602082108114156102df57634e487b7160e01b600052602260045260246000fd5b50919050565b634e487b7160e01b600052604160045260246000fdfea264697066735822122090d0357944efdbbe5e89236d393bfcfe2ddec657e40859fe13bd5779179be27664736f6c63430008070033",
          "opcodes": "PUSH1 0x80 PUSH1 0x40 MSTORE CALLVALUE DUP1 ISZERO PUSH2 0x10 JUMPI PUSH1 0x0 DUP1 REVERT JUMPDEST POP PUSH1 0x40 MLOAD PUSH2 0x3C4 CODESIZE SUB DUP1 PUSH2 0x3C4 DUP4 CODECOPY DUP2 ADD PUSH1 0x40 DUP2 SWAP1 MSTORE PUSH2 0x2F SWAP2 PUSH2 0x54 JUMP JUMPDEST PUSH1 0x1 DUP1 SLOAD PUSH1 0x1 PUSH1 0x1 PUSH1 0xA0 SHL SUB NOT AND PUSH1 0x1 PUSH1 0x1 PUSH1 0xA0 SHL SUB SWAP3 SWAP1 SWAP3 AND SWAP2 SWAP1 SWAP2 OR SWAP1 SSTORE PUSH2 0x84 JUMP JUMPDEST PUSH1 0x0 PUSH1 0x20 DUP3 DUP5 SUB SLT ISZERO PUSH2 0x66 JUMPI PUSH1 0x0 DUP1 REVERT JUMPDEST DUP2 MLOAD PUSH1 0x1 PUSH1 0x1 PUSH1 0xA0 SHL SUB DUP2 AND DUP2 EQ PUSH2 0x7D JUMPI PUSH1 0x0 DUP1 REVERT JUMPDEST SWAP4 SWAP3 POP POP POP JUMP JUMPDEST PUSH2 0x331 DUP1 PUSH2 0x93 PUSH1 0x0 CODECOPY PUSH1 0x0 RETURN INVALID PUSH1 0x80 PUSH1 0x40 MSTORE PUSH1 0x4 CALLDATASIZE LT PUSH2 0x1E JUMPI PUSH1 0x0 CALLDATALOAD PUSH1 0xE0 SHR DUP1 PUSH4 0x8032BBDB EQ PUSH2 0x8B JUMPI JUMPDEST PUSH1 0x1 SLOAD PUSH1 0x40 MLOAD PUSH20 0xFFFFFFFFFFFFFFFFFFFFFFFFFFFFFFFFFFFFFFFF SWAP1 SWAP2 AND SWAP1 PUSH2 0x49 SWAP1 PUSH1 0x0 SWAP1 PUSH2 0x20E JUMP JUMPDEST PUSH1 0x0 PUSH1 0x40 MLOAD DUP1 DUP4 SUB DUP2 PUSH1 0x0 DUP7 GAS CALL SWAP2 POP POP RETURNDATASIZE DUP1 PUSH1 0x0 DUP2 EQ PUSH2 0x86 JUMPI PUSH1 0x40 MLOAD SWAP2 POP PUSH1 0x1F NOT PUSH1 0x3F RETURNDATASIZE ADD AND DUP3 ADD PUSH1 0x40 MSTORE RETURNDATASIZE DUP3 MSTORE RETURNDATASIZE PUSH1 0x0 PUSH1 0x20 DUP5 ADD RETURNDATACOPY POP POP POP STOP JUMPDEST POP POP POP STOP JUMPDEST CALLVALUE DUP1 ISZERO PUSH2 0x97 JUMPI PUSH1 0x0 DUP1 REVERT JUMPDEST POP PUSH2 0xAB PUSH2 0xA6 CALLDATASIZE PUSH1 0x4 PUSH2 0x15D JUMP JUMPDEST PUSH2 0xAD JUMP JUMPDEST STOP JUMPDEST DUP1 MLOAD PUSH2 0xC0 SWAP1 PUSH1 0x0 SWAP1 PUSH1 0x20 DUP5 ADD SWAP1 PUSH2 0xC4 JUMP JUMPDEST POP POP JUMP JUMPDEST DUP3 DUP1 SLOAD PUSH2 0xD0 SWAP1 PUSH2 0x2AA JUMP JUMPDEST SWAP1 PUSH1 0x0 MSTORE PUSH1 0x20 PUSH1 0x0 KECCAK256 SWAP1 PUSH1 0x1F ADD PUSH1 0x20 SWAP1 DIV DUP2 ADD SWAP3 DUP3 PUSH2 0xF2 JUMPI PUSH1 0x0 DUP6 SSTORE PUSH2 0x138 JUMP JUMPDEST DUP3 PUSH1 0x1F LT PUSH2 0x10B JUMPI DUP1 MLOAD PUSH1 0xFF NOT AND DUP4 DUP1 ADD OR DUP6 SSTORE PUSH2 0x138 JUMP JUMPDEST DUP3 DUP1 ADD PUSH1 0x1 ADD DUP6 SSTORE DUP3 ISZERO PUSH2 0x138 JUMPI SWAP2 DUP3 ADD JUMPDEST DUP3 DUP2 GT ISZERO PUSH2 0x138 JUMPI DUP3 MLOAD DUP3 SSTORE SWAP2 PUSH1 0x20 ADD SWAP2 SWAP1 PUSH1 0x1 ADD SWAP1 PUSH2 0x11D JUMP JUMPDEST POP PUSH2 0x144 SWAP3 SWAP2 POP PUSH2 0x148 JUMP JUMPDEST POP SWAP1 JUMP JUMPDEST JUMPDEST DUP1 DUP3 GT ISZERO PUSH2 0x144 JUMPI PUSH1 0x0 DUP2 SSTORE PUSH1 0x1 ADD PUSH2 0x149 JUMP JUMPDEST PUSH1 0x0 PUSH1 0x20 DUP3 DUP5 SUB SLT ISZERO PUSH2 0x16F JUMPI PUSH1 0x0 DUP1 REVERT JUMPDEST DUP2 CALLDATALOAD PUSH8 0xFFFFFFFFFFFFFFFF DUP1 DUP3 GT ISZERO PUSH2 0x187 JUMPI PUSH1 0x0 DUP1 REVERT JUMPDEST DUP2 DUP5 ADD SWAP2 POP DUP5 PUSH1 0x1F DUP4 ADD SLT PUSH2 0x19B JUMPI PUSH1 0x0 DUP1 REVERT JUMPDEST DUP2 CALLDATALOAD DUP2 DUP2 GT ISZERO PUSH2 0x1AD JUMPI PUSH2 0x1AD PUSH2 0x2E5 JUMP JUMPDEST PUSH1 0x40 MLOAD PUSH1 0x1F DUP3 ADD PUSH1 0x1F NOT SWAP1 DUP2 AND PUSH1 0x3F ADD AND DUP2 ADD SWAP1 DUP4 DUP3 GT DUP2 DUP4 LT OR ISZERO PUSH2 0x1D5 JUMPI PUSH2 0x1D5 PUSH2 0x2E5 JUMP JUMPDEST DUP2 PUSH1 0x40 MSTORE DUP3 DUP2 MSTORE DUP8 PUSH1 0x20 DUP5 DUP8 ADD ADD GT ISZERO PUSH2 0x1EE JUMPI PUSH1 0x0 DUP1 REVERT JUMPDEST DUP3 PUSH1 0x20 DUP7 ADD PUSH1 0x20 DUP4 ADD CALLDATACOPY PUSH1 0x0 SWAP3 DUP2 ADD PUSH1 0x20 ADD SWAP3 SWAP1 SWAP3 MSTORE POP SWAP6 SWAP5 POP POP POP POP POP JUMP JUMPDEST PUSH1 0x0 DUP1 DUP4 SLOAD DUP2 PUSH1 0x1 DUP3 DUP2 SHR SWAP2 POP DUP1 DUP4 AND DUP1 PUSH2 0x22A JUMPI PUSH1 0x7F DUP4 AND SWAP3 POP JUMPDEST PUSH1 0x20 DUP1 DUP5 LT DUP3 EQ ISZERO PUSH2 0x24A JUMPI PUSH4 0x4E487B71 PUSH1 0xE0 SHL DUP7 MSTORE PUSH1 0x22 PUSH1 0x4 MSTORE PUSH1 0x24 DUP7 REVERT JUMPDEST DUP2 DUP1 ISZERO PUSH2 0x25E JUMPI PUSH1 0x1 DUP2 EQ PUSH2 0x26F JUMPI PUSH2 0x29C JUMP JUMPDEST PUSH1 0xFF NOT DUP7 AND DUP10 MSTORE DUP5 DUP10 ADD SWAP7 POP PUSH2 0x29C JUMP JUMPDEST PUSH1 0x0 DUP11 DUP2 MSTORE PUSH1 0x20 SWAP1 KECCAK256 PUSH1 0x0 JUMPDEST DUP7 DUP2 LT ISZERO PUSH2 0x294 JUMPI DUP2 SLOAD DUP12 DUP3 ADD MSTORE SWAP1 DUP6 ADD SWAP1 DUP4 ADD PUSH2 0x27B JUMP JUMPDEST POP POP DUP5 DUP10 ADD SWAP7 POP JUMPDEST POP SWAP5 SWAP9 SWAP8 POP POP POP POP POP POP POP POP JUMP JUMPDEST PUSH1 0x1 DUP2 DUP2 SHR SWAP1 DUP3 AND DUP1 PUSH2 0x2BE JUMPI PUSH1 0x7F DUP3 AND SWAP2 POP JUMPDEST PUSH1 0x20 DUP3 LT DUP2 EQ ISZERO PUSH2 0x2DF JUMPI PUSH4 0x4E487B71 PUSH1 0xE0 SHL PUSH1 0x0 MSTORE PUSH1 0x22 PUSH1 0x4 MSTORE PUSH1 0x24 PUSH1 0x0 REVERT JUMPDEST POP SWAP2 SWAP1 POP JUMP JUMPDEST PUSH4 0x4E487B71 PUSH1 0xE0 SHL PUSH1 0x0 MSTORE PUSH1 0x41 PUSH1 0x4 MSTORE PUSH1 0x24 PUSH1 0x0 REVERT INVALID LOG2 PUSH5 0x6970667358 0x22 SLT KECCAK256 SWAP1 0xD0 CALLDATALOAD PUSH26 0x44EFDBBE5E89236D393BFCFE2DDEC657E40859FE13BD5779179B 0xE2 PUSH23 0x64736F6C63430008070033000000000000000000000000 "
        },
        "gasEstimates": {
          "creation": {
            "codeDepositCost": "163400",
            "executionCost": "infinite",
            "totalCost": "infinite"
          },
          "external": {
            "": "infinite",
            "loadPayload(bytes)": "infinite"
          }
        },
        "methodIdentifiers": {
          "loadPayload(bytes)": "8032bbdb"
        }
      },
      "storageLayout": {
        "storage": [
          {
            "astId": 3,
            "contract": "contracts/Helpers/Security/Reentrancy.sol:Reentrancy",
            "label": "_payload",
            "offset": 0,
            "slot": "0",
            "type": "t_bytes_storage"
          },
          {
            "astId": 5,
            "contract": "contracts/Helpers/Security/Reentrancy.sol:Reentrancy",
            "label": "_target",
            "offset": 0,
            "slot": "1",
            "type": "t_address"
          }
        ],
        "types": {
          "t_address": {
            "encoding": "inplace",
            "label": "address",
            "numberOfBytes": "20"
          },
          "t_bytes_storage": {
            "encoding": "bytes",
            "label": "bytes",
            "numberOfBytes": "32"
          }
        }
      },
      "userdoc": {
        "kind": "user",
        "methods": {},
        "version": 1
      }
    }
  }
}