{
  "contracts/Helpers/PayableContract.sol": {
    "PayableContract": {
      "abi": [
        {
          "inputs": [],
          "stateMutability": "payable",
          "type": "constructor"
        },
        {
          "inputs": [],
          "name": "payableFalse",
          "outputs": [],
          "stateMutability": "nonpayable",
          "type": "function"
        },
        {
          "inputs": [],
          "name": "payableTrue",
          "outputs": [],
          "stateMutability": "payable",
          "type": "function"
        }
      ],
      "devdoc": {
        "details": "sample contract used for testing",
        "kind": "dev",
        "methods": {},
        "version": 1
      },
      "evm": {
        "bytecode": {
          "linkReferences": {},
          "object": "608060405260718060116000396000f3fe60806040526004361060265760003560e01c8063618eea3914602b57806372d2a34c14602d575b600080fd5b005b348015603857600080fd5b5000fea26469706673582212208610807348e6f57948f6ef182ecd34cb6af033b372392d6178e40ca770fdc94664736f6c63430008070033",
          "opcodes": "PUSH1 0x80 PUSH1 0x40 MSTORE PUSH1 0x71 DUP1 PUSH1 0x11 PUSH1 0x0 CODECOPY PUSH1 0x0 RETURN INVALID PUSH1 0x80 PUSH1 0x40 MSTORE PUSH1 0x4 CALLDATASIZE LT PUSH1 0x26 JUMPI PUSH1 0x0 CALLDATALOAD PUSH1 0xE0 SHR DUP1 PUSH4 0x618EEA39 EQ PUSH1 0x2B JUMPI DUP1 PUSH4 0x72D2A34C EQ PUSH1 0x2D JUMPI JUMPDEST PUSH1 0x0 DUP1 REVERT JUMPDEST STOP JUMPDEST CALLVALUE DUP1 ISZERO PUSH1 0x38 JUMPI PUSH1 0x0 DUP1 REVERT JUMPDEST POP STOP INVALID LOG2 PUSH5 0x6970667358 0x22 SLT KECCAK256 DUP7 LT DUP1 PUSH20 0x48E6F57948F6EF182ECD34CB6AF033B372392D61 PUSH25 0xE40CA770FDC94664736F6C6343000807003300000000000000 "
        },
        "gasEstimates": {
          "creation": {
            "codeDepositCost": "22600",
            "executionCost": "51",
            "totalCost": "22651"
          },
          "external": {
            "payableFalse()": "123",
            "payableTrue()": "74"
          }
        },
        "methodIdentifiers": {
          "payableFalse()": "72d2a34c",
          "payableTrue()": "618eea39"
        }
      },
      "storageLayout": {
        "storage": [],
        "types": null
      },
      "userdoc": {
        "kind": "user",
        "methods": {},
        "version": 1
      }
    }
  }
}