{
  "contracts/Helpers/TargetContract.sol": {
    "TargetContract": {
      "abi": [
        {
          "inputs": [],
          "name": "getName",
          "outputs": [
            {
              "internalType": "string",
              "name": "",
              "type": "string"
            }
          ],
          "stateMutability": "view",
          "type": "function"
        },
        {
          "inputs": [],
          "name": "getNumber",
          "outputs": [
            {
              "internalType": "uint256",
              "name": "",
              "type": "uint256"
            }
          ],
          "stateMutability": "view",
          "type": "function"
        },
        {
          "inputs": [],
          "name": "revertCall",
          "outputs": [],
          "stateMutability": "pure",
          "type": "function"
        },
        {
          "inputs": [
            {
              "internalType": "string",
              "name": "_name",
              "type": "string"
            }
          ],
          "name": "setName",
          "outputs": [],
          "stateMutability": "nonpayable",
          "type": "function"
        },
        {
          "inputs": [
            {
              "internalType": "uint256",
              "name": "_newNumber",
              "type": "uint256"
            }
          ],
          "name": "setNumber",
          "outputs": [],
          "stateMutability": "nonpayable",
          "type": "function"
        }
      ],
      "devdoc": {
        "details": "sample contract to test interaction + state changes:      - directly from Universal Profile      - via KeyManager > UniversalProfile also used to test permissions ALLOWEDADDRESS and ALLOWEDSTANDARDS",
        "kind": "dev",
        "methods": {},
        "version": 1
      },
      "evm": {
        "bytecode": {
          "linkReferences": {},
          "object": "600560005560c0604052601460808190527f53696d706c6520436f6e7472616374204e616d6500000000000000000000000060a09081526100439160019190610056565b5034801561005057600080fd5b5061012a565b828054610062906100ef565b90600052602060002090601f01602090048101928261008457600085556100ca565b82601f1061009d57805160ff19168380011785556100ca565b828001600101855582156100ca579182015b828111156100ca5782518255916020019190600101906100af565b506100d69291506100da565b5090565b5b808211156100d657600081556001016100db565b600181811c9082168061010357607f821691505b6020821081141561012457634e487b7160e01b600052602260045260246000fd5b50919050565b61043f806101396000396000f3fe608060405234801561001057600080fd5b50600436106100675760003560e01c8063c47f002711610050578063c47f00271461009f578063f2c9ecd8146100b2578063f38fb65b146100c357600080fd5b806317d7de7c1461006c5780633fb5c1cb1461008a575b600080fd5b6100746100cb565b6040516100819190610363565b60405180910390f35b61009d61009836600461034a565b600055565b005b61009d6100ad366004610299565b61015d565b600054604051908152602001610081565b61009d610174565b6060600180546100da906103b8565b80601f0160208091040260200160405190810160405280929190818152602001828054610106906103b8565b80156101535780601f1061012857610100808354040283529160200191610153565b820191906000526020600020905b81548152906001019060200180831161013657829003601f168201915b5050505050905090565b8051610170906001906020840190610200565b5050565b6040517f08c379a000000000000000000000000000000000000000000000000000000000815260206004820152603660248201527f546172676574436f6e74726163743a72657665727443616c6c3a20746869732060448201527f66756e6374696f6e206861732072657665727465642100000000000000000000606482015260840160405180910390fd5b82805461020c906103b8565b90600052602060002090601f01602090048101928261022e5760008555610274565b82601f1061024757805160ff1916838001178555610274565b82800160010185558215610274579182015b82811115610274578251825591602001919060010190610259565b50610280929150610284565b5090565b5b808211156102805760008155600101610285565b6000602082840312156102ab57600080fd5b813567ffffffffffffffff808211156102c357600080fd5b818401915084601f8301126102d757600080fd5b8135818111156102e9576102e96103f3565b604051601f8201601f19908116603f01168101908382118183101715610311576103116103f3565b8160405282815287602084870101111561032a57600080fd5b826020860160208301376000928101602001929092525095945050505050565b60006020828403121561035c57600080fd5b5035919050565b600060208083528351808285015260005b8181101561039057858101830151858201604001528201610374565b818111156103a2576000604083870101525b50601f01601f1916929092016040019392505050565b600181811c908216806103cc57607f821691505b602082108114156103ed57634e487b7160e01b600052602260045260246000fd5b50919050565b634e487b7160e01b600052604160045260246000fdfea26469706673582212206393061d9c39c4494edbbd827aa14d66e5e313deb9d7024212d2ceadf0d9583364736f6c63430008070033",
          "opcodes": "PUSH1 0x5 PUSH1 0x0 SSTORE PUSH1 0xC0 PUSH1 0x40 MSTORE PUSH1 0x14 PUSH1 0x80 DUP2 SWAP1 MSTORE PUSH32 0x53696D706C6520436F6E7472616374204E616D65000000000000000000000000 PUSH1 0xA0 SWAP1 DUP2 MSTORE PUSH2 0x43 SWAP2 PUSH1 0x1 SWAP2 SWAP1 PUSH2 0x56 JUMP JUMPDEST POP CALLVALUE DUP1 ISZERO PUSH2 0x50 JUMPI PUSH1 0x0 DUP1 REVERT JUMPDEST POP PUSH2 0x12A JUMP JUMPDEST DUP3 DUP1 SLOAD PUSH2 0x62 SWAP1 PUSH2 0xEF JUMP JUMPDEST SWAP1 PUSH1 0x0 MSTORE PUSH1 0x20 PUSH1 0x0 KECCAK256 SWAP1 PUSH1 0x1F ADD PUSH1 0x20 SWAP1 DIV DUP2 ADD SWAP3 DUP3 PUSH2 0x84 JUMPI PUSH1 0x0 DUP6 SSTORE PUSH2 0xCA JUMP JUMPDEST DUP3 PUSH1 0x1F LT PUSH2 0x9D JUMPI DUP1 MLOAD PUSH1 0xFF NOT AND DUP4 DUP1 ADD OR DUP6 SSTORE PUSH2 0xCA JUMP JUMPDEST DUP3 DUP1 ADD PUSH1 0x1 ADD DUP6 SSTORE DUP3 ISZERO PUSH2 0xCA JUMPI SWAP2 DUP3 ADD JUMPDEST DUP3 DUP2 GT ISZERO PUSH2 0xCA JUMPI DUP3 MLOAD DUP3 SSTORE SWAP2 PUSH1 0x20 ADD SWAP2 SWAP1 PUSH1 0x1 ADD SWAP1 PUSH2 0xAF JUMP JUMPDEST POP PUSH2 0xD6 SWAP3 SWAP2 POP PUSH2 0xDA JUMP JUMPDEST POP SWAP1 JUMP JUMPDEST JUMPDEST DUP1 DUP3 GT ISZERO PUSH2 0xD6 JUMPI PUSH1 0x0 DUP2 SSTORE PUSH1 0x1 ADD PUSH2 0xDB JUMP JUMPDEST PUSH1 0x1 DUP2 DUP2 SHR SWAP1 DUP3 AND DUP1 PUSH2 0x103 JUMPI PUSH1 0x7F DUP3 AND SWAP2 POP JUMPDEST PUSH1 0x20 DUP3 LT DUP2 EQ ISZERO PUSH2 0x124 JUMPI PUSH4 0x4E487B71 PUSH1 0xE0 SHL PUSH1 0x0 MSTORE PUSH1 0x22 PUSH1 0x4 MSTORE PUSH1 0x24 PUSH1 0x0 REVERT JUMPDEST POP SWAP2 SWAP1 POP JUMP JUMPDEST PUSH2 0x43F DUP1 PUSH2 0x139 PUSH1 0x0 CODECOPY PUSH1 0x0 RETURN INVALID PUSH1 0x80 PUSH1 0x40 MSTORE CALLVALUE DUP1 ISZERO PUSH2 0x10 JUMPI PUSH1 0x0 DUP1 REVERT JUMPDEST POP PUSH1 0x4 CALLDATASIZE LT PUSH2 0x67 JUMPI PUSH1 0x0 CALLDATALOAD PUSH1 0xE0 SHR DUP1 PUSH4 0xC47F0027 GT PUSH2 0x50 JUMPI DUP1 PUSH4 0xC47F0027 EQ PUSH2 0x9F JUMPI DUP1 PUSH4 0xF2C9ECD8 EQ PUSH2 0xB2 JUMPI DUP1 PUSH4 0xF38FB65B EQ PUSH2 0xC3 JUMPI PUSH1 0x0 DUP1 REVERT JUMPDEST DUP1 PUSH4 0x17D7DE7C EQ PUSH2 0x6C JUMPI DUP1 PUSH4 0x3FB5C1CB EQ PUSH2 0x8A JUMPI JUMPDEST PUSH1 0x0 DUP1 REVERT JUMPDEST PUSH2 0x74 PUSH2 0xCB JUMP JUMPDEST PUSH1 0x40 MLOAD PUSH2 0x81 SWAP2 SWAP1 PUSH2 0x363 JUMP JUMPDEST PUSH1 0x40 MLOAD DUP1 SWAP2 SUB SWAP1 RETURN JUMPDEST PUSH2 0x9D PUSH2 0x98 CALLDATASIZE PUSH1 0x4 PUSH2 0x34A JUMP JUMPDEST PUSH1 0x0 SSTORE JUMP JUMPDEST STOP JUMPDEST PUSH2 0x9D PUSH2 0xAD CALLDATASIZE PUSH1 0x4 PUSH2 0x299 JUMP JUMPDEST PUSH2 0x15D JUMP JUMPDEST PUSH1 0x0 SLOAD PUSH1 0x40 MLOAD SWAP1 DUP2 MSTORE PUSH1 0x20 ADD PUSH2 0x81 JUMP JUMPDEST PUSH2 0x9D PUSH2 0x174 JUMP JUMPDEST PUSH1 0x60 PUSH1 0x1 DUP1 SLOAD PUSH2 0xDA SWAP1 PUSH2 0x3B8 JUMP JUMPDEST DUP1 PUSH1 0x1F ADD PUSH1 0x20 DUP1 SWAP2 DIV MUL PUSH1 0x20 ADD PUSH1 0x40 MLOAD SWAP1 DUP2 ADD PUSH1 0x40 MSTORE DUP1 SWAP3 SWAP2 SWAP1 DUP2 DUP2 MSTORE PUSH1 0x20 ADD DUP3 DUP1 SLOAD PUSH2 0x106 SWAP1 PUSH2 0x3B8 JUMP JUMPDEST DUP1 ISZERO PUSH2 0x153 JUMPI DUP1 PUSH1 0x1F LT PUSH2 0x128 JUMPI PUSH2 0x100 DUP1 DUP4 SLOAD DIV MUL DUP4 MSTORE SWAP2 PUSH1 0x20 ADD SWAP2 PUSH2 0x153 JUMP JUMPDEST DUP3 ADD SWAP2 SWAP1 PUSH1 0x0 MSTORE PUSH1 0x20 PUSH1 0x0 KECCAK256 SWAP1 JUMPDEST DUP2 SLOAD DUP2 MSTORE SWAP1 PUSH1 0x1 ADD SWAP1 PUSH1 0x20 ADD DUP1 DUP4 GT PUSH2 0x136 JUMPI DUP3 SWAP1 SUB PUSH1 0x1F AND DUP3 ADD SWAP2 JUMPDEST POP POP POP POP POP SWAP1 POP SWAP1 JUMP JUMPDEST DUP1 MLOAD PUSH2 0x170 SWAP1 PUSH1 0x1 SWAP1 PUSH1 0x20 DUP5 ADD SWAP1 PUSH2 0x200 JUMP JUMPDEST POP POP JUMP JUMPDEST PUSH1 0x40 MLOAD PUSH32 0x8C379A000000000000000000000000000000000000000000000000000000000 DUP2 MSTORE PUSH1 0x20 PUSH1 0x4 DUP3 ADD MSTORE PUSH1 0x36 PUSH1 0x24 DUP3 ADD MSTORE PUSH32 0x546172676574436F6E74726163743A72657665727443616C6C3A207468697320 PUSH1 0x44 DUP3 ADD MSTORE PUSH32 0x66756E6374696F6E206861732072657665727465642100000000000000000000 PUSH1 0x64 DUP3 ADD MSTORE PUSH1 0x84 ADD PUSH1 0x40 MLOAD DUP1 SWAP2 SUB SWAP1 REVERT JUMPDEST DUP3 DUP1 SLOAD PUSH2 0x20C SWAP1 PUSH2 0x3B8 JUMP JUMPDEST SWAP1 PUSH1 0x0 MSTORE PUSH1 0x20 PUSH1 0x0 KECCAK256 SWAP1 PUSH1 0x1F ADD PUSH1 0x20 SWAP1 DIV DUP2 ADD SWAP3 DUP3 PUSH2 0x22E JUMPI PUSH1 0x0 DUP6 SSTORE PUSH2 0x274 JUMP JUMPDEST DUP3 PUSH1 0x1F LT PUSH2 0x247 JUMPI DUP1 MLOAD PUSH1 0xFF NOT AND DUP4 DUP1 ADD OR DUP6 SSTORE PUSH2 0x274 JUMP JUMPDEST DUP3 DUP1 ADD PUSH1 0x1 ADD DUP6 SSTORE DUP3 ISZERO PUSH2 0x274 JUMPI SWAP2 DUP3 ADD JUMPDEST DUP3 DUP2 GT ISZERO PUSH2 0x274 JUMPI DUP3 MLOAD DUP3 SSTORE SWAP2 PUSH1 0x20 ADD SWAP2 SWAP1 PUSH1 0x1 ADD SWAP1 PUSH2 0x259 JUMP JUMPDEST POP PUSH2 0x280 SWAP3 SWAP2 POP PUSH2 0x284 JUMP JUMPDEST POP SWAP1 JUMP JUMPDEST JUMPDEST DUP1 DUP3 GT ISZERO PUSH2 0x280 JUMPI PUSH1 0x0 DUP2 SSTORE PUSH1 0x1 ADD PUSH2 0x285 JUMP JUMPDEST PUSH1 0x0 PUSH1 0x20 DUP3 DUP5 SUB SLT ISZERO PUSH2 0x2AB JUMPI PUSH1 0x0 DUP1 REVERT JUMPDEST DUP2 CALLDATALOAD PUSH8 0xFFFFFFFFFFFFFFFF DUP1 DUP3 GT ISZERO PUSH2 0x2C3 JUMPI PUSH1 0x0 DUP1 REVERT JUMPDEST DUP2 DUP5 ADD SWAP2 POP DUP5 PUSH1 0x1F DUP4 ADD SLT PUSH2 0x2D7 JUMPI PUSH1 0x0 DUP1 REVERT JUMPDEST DUP2 CALLDATALOAD DUP2 DUP2 GT ISZERO PUSH2 0x2E9 JUMPI PUSH2 0x2E9 PUSH2 0x3F3 JUMP JUMPDEST PUSH1 0x40 MLOAD PUSH1 0x1F DUP3 ADD PUSH1 0x1F NOT SWAP1 DUP2 AND PUSH1 0x3F ADD AND DUP2 ADD SWAP1 DUP4 DUP3 GT DUP2 DUP4 LT OR ISZERO PUSH2 0x311 JUMPI PUSH2 0x311 PUSH2 0x3F3 JUMP JUMPDEST DUP2 PUSH1 0x40 MSTORE DUP3 DUP2 MSTORE DUP8 PUSH1 0x20 DUP5 DUP8 ADD ADD GT ISZERO PUSH2 0x32A JUMPI PUSH1 0x0 DUP1 REVERT JUMPDEST DUP3 PUSH1 0x20 DUP7 ADD PUSH1 0x20 DUP4 ADD CALLDATACOPY PUSH1 0x0 SWAP3 DUP2 ADD PUSH1 0x20 ADD SWAP3 SWAP1 SWAP3 MSTORE POP SWAP6 SWAP5 POP POP POP POP POP JUMP JUMPDEST PUSH1 0x0 PUSH1 0x20 DUP3 DUP5 SUB SLT ISZERO PUSH2 0x35C JUMPI PUSH1 0x0 DUP1 REVERT JUMPDEST POP CALLDATALOAD SWAP2 SWAP1 POP JUMP JUMPDEST PUSH1 0x0 PUSH1 0x20 DUP1 DUP4 MSTORE DUP4 MLOAD DUP1 DUP3 DUP6 ADD MSTORE PUSH1 0x0 JUMPDEST DUP2 DUP2 LT ISZERO PUSH2 0x390 JUMPI DUP6 DUP2 ADD DUP4 ADD MLOAD DUP6 DUP3 ADD PUSH1 0x40 ADD MSTORE DUP3 ADD PUSH2 0x374 JUMP JUMPDEST DUP2 DUP2 GT ISZERO PUSH2 0x3A2 JUMPI PUSH1 0x0 PUSH1 0x40 DUP4 DUP8 ADD ADD MSTORE JUMPDEST POP PUSH1 0x1F ADD PUSH1 0x1F NOT AND SWAP3 SWAP1 SWAP3 ADD PUSH1 0x40 ADD SWAP4 SWAP3 POP POP POP JUMP JUMPDEST PUSH1 0x1 DUP2 DUP2 SHR SWAP1 DUP3 AND DUP1 PUSH2 0x3CC JUMPI PUSH1 0x7F DUP3 AND SWAP2 POP JUMPDEST PUSH1 0x20 DUP3 LT DUP2 EQ ISZERO PUSH2 0x3ED JUMPI PUSH4 0x4E487B71 PUSH1 0xE0 SHL PUSH1 0x0 MSTORE PUSH1 0x22 PUSH1 0x4 MSTORE PUSH1 0x24 PUSH1 0x0 REVERT JUMPDEST POP SWAP2 SWAP1 POP JUMP JUMPDEST PUSH4 0x4E487B71 PUSH1 0xE0 SHL PUSH1 0x0 MSTORE PUSH1 0x41 PUSH1 0x4 MSTORE PUSH1 0x24 PUSH1 0x0 REVERT INVALID LOG2 PUSH5 0x6970667358 0x22 SLT KECCAK256 PUSH4 0x93061D9C CODECOPY 0xC4 0x49 0x4E 0xDB 0xBD DUP3 PUSH27 0xA14D66E5E313DEB9D7024212D2CEADF0D9583364736F6C63430008 SMOD STOP CALLER "
        },
        "gasEstimates": {
          "creation": {
            "codeDepositCost": "217400",
            "executionCost": "infinite",
            "totalCost": "infinite"
          },
          "external": {
            "getName()": "infinite",
            "getNumber()": "2302",
            "revertCall()": "296",
            "setName(string)": "infinite",
            "setNumber(uint256)": "22335"
          }
        },
        "methodIdentifiers": {
          "getName()": "17d7de7c",
          "getNumber()": "f2c9ecd8",
          "revertCall()": "f38fb65b",
          "setName(string)": "c47f0027",
          "setNumber(uint256)": "3fb5c1cb"
        }
      },
      "storageLayout": {
        "storage": [
          {
            "astId": 5,
            "contract": "contracts/Helpers/TargetContract.sol:TargetContract",
            "label": "number",
            "offset": 0,
            "slot": "0",
            "type": "t_uint256"
          },
          {
            "astId": 8,
            "contract": "contracts/Helpers/TargetContract.sol:TargetContract",
            "label": "name",
            "offset": 0,
            "slot": "1",
            "type": "t_string_storage"
          }
        ],
        "types": {
          "t_string_storage": {
            "encoding": "bytes",
            "label": "string",
            "numberOfBytes": "32"
          },
          "t_uint256": {
            "encoding": "inplace",
            "label": "uint256",
            "numberOfBytes": "32"
          }
        }
      },
      "userdoc": {
        "kind": "user",
        "methods": {},
        "version": 1
      }
    }
  }
}