{
  "contracts/Helpers/NFTStorage.sol": {
    "NFTStorageMerkle": {
      "abi": [
        {
          "inputs": [
            {
              "internalType": "bytes32[]",
              "name": "_proof",
              "type": "bytes32[]"
            },
            {
              "internalType": "bytes32",
              "name": "_root",
              "type": "bytes32"
            },
            {
              "internalType": "bytes32",
              "name": "_leaf",
              "type": "bytes32"
            }
          ],
          "name": "verifyMerkleProof",
          "outputs": [
            {
              "internalType": "bool",
              "name": "",
              "type": "bool"
            }
          ],
          "stateMutability": "pure",
          "type": "function"
        }
      ],
      "devdoc": {
        "kind": "dev",
        "methods": {},
        "version": 1
      },
      "evm": {
        "bytecode": {
          "linkReferences": {},
          "object": "608060405234801561001057600080fd5b50610261806100206000396000f3fe608060405234801561001057600080fd5b506004361061002b5760003560e01c8063ada4fa1814610030575b600080fd5b61004361003e366004610101565b610057565b604051901515815260200160405180910390f35b600061006484848461006c565b949350505050565b6000826100798584610082565b14949350505050565b600081815b84518110156100c7576100b3828683815181106100a6576100a66101ff565b60200260200101516100cf565b9150806100bf816101d6565b915050610087565b509392505050565b60008183106100eb5760008281526020849052604090206100fa565b60008381526020839052604090205b9392505050565b60008060006060848603121561011657600080fd5b833567ffffffffffffffff8082111561012e57600080fd5b818601915086601f83011261014257600080fd5b813560208282111561015657610156610215565b8160051b604051601f19603f8301168101818110868211171561017b5761017b610215565b604052838152828101945085830182870184018c101561019a57600080fd5b600096505b848710156101bd57803586526001969096019594830194830161019f565b509a918901359950506040909701359695505050505050565b60006000198214156101f857634e487b7160e01b600052601160045260246000fd5b5060010190565b634e487b7160e01b600052603260045260246000fd5b634e487b7160e01b600052604160045260246000fdfea26469706673582212200ebd384afebe41fab897728246784caf7ec1f69619250ae89ab76822338b082264736f6c63430008070033",
          "opcodes": "PUSH1 0x80 PUSH1 0x40 MSTORE CALLVALUE DUP1 ISZERO PUSH2 0x10 JUMPI PUSH1 0x0 DUP1 REVERT JUMPDEST POP PUSH2 0x261 DUP1 PUSH2 0x20 PUSH1 0x0 CODECOPY PUSH1 0x0 RETURN INVALID PUSH1 0x80 PUSH1 0x40 MSTORE CALLVALUE DUP1 ISZERO PUSH2 0x10 JUMPI PUSH1 0x0 DUP1 REVERT JUMPDEST POP PUSH1 0x4 CALLDATASIZE LT PUSH2 0x2B JUMPI PUSH1 0x0 CALLDATALOAD PUSH1 0xE0 SHR DUP1 PUSH4 0xADA4FA18 EQ PUSH2 0x30 JUMPI JUMPDEST PUSH1 0x0 DUP1 REVERT JUMPDEST PUSH2 0x43 PUSH2 0x3E CALLDATASIZE PUSH1 0x4 PUSH2 0x101 JUMP JUMPDEST PUSH2 0x57 JUMP JUMPDEST PUSH1 0x40 MLOAD SWAP1 ISZERO ISZERO DUP2 MSTORE PUSH1 0x20 ADD PUSH1 0x40 MLOAD DUP1 SWAP2 SUB SWAP1 RETURN JUMPDEST PUSH1 0x0 PUSH2 0x64 DUP5 DUP5 DUP5 PUSH2 0x6C JUMP JUMPDEST SWAP5 SWAP4 POP POP POP POP JUMP JUMPDEST PUSH1 0x0 DUP3 PUSH2 0x79 DUP6 DUP5 PUSH2 0x82 JUMP JUMPDEST EQ SWAP5 SWAP4 POP POP POP POP JUMP JUMPDEST PUSH1 0x0 DUP2 DUP2 JUMPDEST DUP5 MLOAD DUP2 LT ISZERO PUSH2 0xC7 JUMPI PUSH2 0xB3 DUP3 DUP7 DUP4 DUP2 MLOAD DUP2 LT PUSH2 0xA6 JUMPI PUSH2 0xA6 PUSH2 0x1FF JUMP JUMPDEST PUSH1 0x20 MUL PUSH1 0x20 ADD ADD MLOAD PUSH2 0xCF JUMP JUMPDEST SWAP2 POP DUP1 PUSH2 0xBF DUP2 PUSH2 0x1D6 JUMP JUMPDEST SWAP2 POP POP PUSH2 0x87 JUMP JUMPDEST POP SWAP4 SWAP3 POP POP POP JUMP JUMPDEST PUSH1 0x0 DUP2 DUP4 LT PUSH2 0xEB JUMPI PUSH1 0x0 DUP3 DUP2 MSTORE PUSH1 0x20 DUP5 SWAP1 MSTORE PUSH1 0x40 SWAP1 KECCAK256 PUSH2 0xFA JUMP JUMPDEST PUSH1 0x0 DUP4 DUP2 MSTORE PUSH1 0x20 DUP4 SWAP1 MSTORE PUSH1 0x40 SWAP1 KECCAK256 JUMPDEST SWAP4 SWAP3 POP POP POP JUMP JUMPDEST PUSH1 0x0 DUP1 PUSH1 0x0 PUSH1 0x60 DUP5 DUP7 SUB SLT ISZERO PUSH2 0x116 JUMPI PUSH1 0x0 DUP1 REVERT JUMPDEST DUP4 CALLDATALOAD PUSH8 0xFFFFFFFFFFFFFFFF DUP1 DUP3 GT ISZERO PUSH2 0x12E JUMPI PUSH1 0x0 DUP1 REVERT JUMPDEST DUP2 DUP7 ADD SWAP2 POP DUP7 PUSH1 0x1F DUP4 ADD SLT PUSH2 0x142 JUMPI PUSH1 0x0 DUP1 REVERT JUMPDEST DUP2 CALLDATALOAD PUSH1 0x20 DUP3 DUP3 GT ISZERO PUSH2 0x156 JUMPI PUSH2 0x156 PUSH2 0x215 JUMP JUMPDEST DUP2 PUSH1 0x5 SHL PUSH1 0x40 MLOAD PUSH1 0x1F NOT PUSH1 0x3F DUP4 ADD AND DUP2 ADD DUP2 DUP2 LT DUP7 DUP3 GT OR ISZERO PUSH2 0x17B JUMPI PUSH2 0x17B PUSH2 0x215 JUMP JUMPDEST PUSH1 0x40 MSTORE DUP4 DUP2 MSTORE DUP3 DUP2 ADD SWAP5 POP DUP6 DUP4 ADD DUP3 DUP8 ADD DUP5 ADD DUP13 LT ISZERO PUSH2 0x19A JUMPI PUSH1 0x0 DUP1 REVERT JUMPDEST PUSH1 0x0 SWAP7 POP JUMPDEST DUP5 DUP8 LT ISZERO PUSH2 0x1BD JUMPI DUP1 CALLDATALOAD DUP7 MSTORE PUSH1 0x1 SWAP7 SWAP1 SWAP7 ADD SWAP6 SWAP5 DUP4 ADD SWAP5 DUP4 ADD PUSH2 0x19F JUMP JUMPDEST POP SWAP11 SWAP2 DUP10 ADD CALLDATALOAD SWAP10 POP POP PUSH1 0x40 SWAP1 SWAP8 ADD CALLDATALOAD SWAP7 SWAP6 POP POP POP POP POP POP JUMP JUMPDEST PUSH1 0x0 PUSH1 0x0 NOT DUP3 EQ ISZERO PUSH2 0x1F8 JUMPI PUSH4 0x4E487B71 PUSH1 0xE0 SHL PUSH1 0x0 MSTORE PUSH1 0x11 PUSH1 0x4 MSTORE PUSH1 0x24 PUSH1 0x0 REVERT JUMPDEST POP PUSH1 0x1 ADD SWAP1 JUMP JUMPDEST PUSH4 0x4E487B71 PUSH1 0xE0 SHL PUSH1 0x0 MSTORE PUSH1 0x32 PUSH1 0x4 MSTORE PUSH1 0x24 PUSH1 0x0 REVERT JUMPDEST PUSH4 0x4E487B71 PUSH1 0xE0 SHL PUSH1 0x0 MSTORE PUSH1 0x41 PUSH1 0x4 MSTORE PUSH1 0x24 PUSH1 0x0 REVERT INVALID LOG2 PUSH5 0x6970667358 0x22 SLT KECCAK256 0xE 0xBD CODESIZE 0x4A INVALID 0xBE COINBASE STATICCALL 0xB8 SWAP8 PUSH19 0x8246784CAF7EC1F69619250AE89AB76822338B ADDMOD 0x22 PUSH5 0x736F6C6343 STOP ADDMOD SMOD STOP CALLER "
        },
        "gasEstimates": {
          "creation": {
            "codeDepositCost": "121800",
            "executionCost": "171",
            "totalCost": "121971"
          },
          "external": {
            "verifyMerkleProof(bytes32[],bytes32,bytes32)": "infinite"
          }
        },
        "methodIdentifiers": {
          "verifyMerkleProof(bytes32[],bytes32,bytes32)": "ada4fa18"
        }
      },
      "storageLayout": {
        "storage": [],
        "types": null
      },
      "userdoc": {
        "kind": "user",
        "methods": {},
        "version": 1
      }
    }
  }
}