{
  "_format": "hh-sol-artifact-1",
  "contractName": "ERC725YDelegateCall",
  "sourceName": "contracts/Helpers/KeyManager/ERC725YDelegateCall.sol",
  "abi": [
    {
      "inputs": [
        {
          "internalType": "address",
          "name": "newOwner",
          "type": "address"
        }
      ],
      "stateMutability": "nonpayable",
      "type": "constructor"
    },
    {
      "anonymous": false,
      "inputs": [
        {
          "indexed": true,
          "internalType": "bytes32",
          "name": "dataKey",
          "type": "bytes32"
        }
      ],
      "name": "DataChanged",
      "type": "event"
    },
    {
      "anonymous": false,
      "inputs": [
        {
          "indexed": true,
          "internalType": "address",
          "name": "previousOwner",
          "type": "address"
        },
        {
          "indexed": true,
          "internalType": "address",
          "name": "newOwner",
          "type": "address"
        }
      ],
      "name": "OwnershipTransferred",
      "type": "event"
    },
    {
      "inputs": [
        {
          "internalType": "bytes32[]",
          "name": "dataKeys",
          "type": "bytes32[]"
        }
      ],
      "name": "getData",
      "outputs": [
        {
          "internalType": "bytes[]",
          "name": "dataValues",
          "type": "bytes[]"
        }
      ],
      "stateMutability": "view",
      "type": "function"
    },
    {
      "inputs": [
        {
          "internalType": "bytes32",
          "name": "dataKey",
          "type": "bytes32"
        }
      ],
      "name": "getData",
      "outputs": [
        {
          "internalType": "bytes",
          "name": "dataValue",
          "type": "bytes"
        }
      ],
      "stateMutability": "view",
      "type": "function"
    },
    {
      "inputs": [],
      "name": "owner",
      "outputs": [
        {
          "internalType": "address",
          "name": "",
          "type": "address"
        }
      ],
      "stateMutability": "view",
      "type": "function"
    },
    {
      "inputs": [],
      "name": "renounceOwnership",
      "outputs": [],
      "stateMutability": "nonpayable",
      "type": "function"
    },
    {
      "inputs": [
        {
          "internalType": "bytes32[]",
          "name": "dataKeys",
          "type": "bytes32[]"
        },
        {
          "internalType": "bytes[]",
          "name": "dataValues",
          "type": "bytes[]"
        }
      ],
      "name": "setData",
      "outputs": [],
      "stateMutability": "nonpayable",
      "type": "function"
    },
    {
      "inputs": [
        {
          "internalType": "bytes32",
          "name": "dataKey",
          "type": "bytes32"
        },
        {
          "internalType": "bytes",
          "name": "dataValue",
          "type": "bytes"
        }
      ],
      "name": "setData",
      "outputs": [],
      "stateMutability": "nonpayable",
      "type": "function"
    },
    {
      "inputs": [
        {
          "internalType": "bytes4",
          "name": "interfaceId",
          "type": "bytes4"
        }
      ],
      "name": "supportsInterface",
      "outputs": [
        {
          "internalType": "bool",
          "name": "",
          "type": "bool"
        }
      ],
      "stateMutability": "view",
      "type": "function"
    },
    {
      "inputs": [
        {
          "internalType": "address",
          "name": "newOwner",
          "type": "address"
        }
      ],
      "name": "transferOwnership",
      "outputs": [],
      "stateMutability": "nonpayable",
      "type": "function"
    },
    {
      "inputs": [
        {
          "internalType": "bytes32",
          "name": "key",
          "type": "bytes32"
        },
        {
          "internalType": "bytes",
          "name": "value",
          "type": "bytes"
        }
      ],
      "name": "updateStorage",
      "outputs": [],
      "stateMutability": "nonpayable",
      "type": "function"
    }
  ],
  "bytecode": "0x608060405234801561001057600080fd5b50604051610c64380380610c6483398101604081905261002f916100b0565b806100438161004a60201b61048b1760201c565b50506100e0565b6000546001600160a01b038281169116146100ad57600080546001600160a01b038381166001600160a01b0319831681178455604051919092169283917f8be0079c531659141344cd1fd0a4f28419497f9722a3daafe3b4186f6b6457e09190a3505b50565b6000602082840312156100c257600080fd5b81516001600160a01b03811681146100d957600080fd5b9392505050565b610b75806100ef6000396000f3fe608060405234801561001057600080fd5b50600436106100a35760003560e01c8063715018a6116100765780637f23690c1161005b5780637f23690c146101405780638da5cb5b14610153578063f2fde38b1461016e57600080fd5b8063715018a6146101255780637f15d62a1461012d57600080fd5b806301ffc9a7146100a857806314a6e293146100d05780634e3e6e9c146100e557806354f6127f14610105575b600080fd5b6100bb6100b6366004610985565b610181565b60405190151581526020015b60405180910390f35b6100e36100de36600461084a565b61021a565b005b6100f86100f336600461080d565b6102f3565b6040516100c79190610a14565b610118610113366004610925565b6103a7565b6040516100c79190610a76565b6100e36103b2565b6100e361013b36600461093e565b6103c6565b6100e361014e36600461093e565b6103e5565b6000546040516001600160a01b0390911681526020016100c7565b6100e361017c3660046107dd565b6103fb565b60007fffffffff0000000000000000000000000000000000000000000000000000000082167f714df77c00000000000000000000000000000000000000000000000000000000148061021457507f01ffc9a7000000000000000000000000000000000000000000000000000000007fffffffff000000000000000000000000000000000000000000000000000000008316145b92915050565b610222610508565b805182511461029e5760405162461bcd60e51b815260206004820152602660248201527f4b657973206c656e677468206e6f7420657175616c20746f2076616c7565732060448201527f6c656e677468000000000000000000000000000000000000000000000000000060648201526084015b60405180910390fd5b60005b82518110156102ee576102e68382815181106102bf576102bf610b13565b60200260200101518383815181106102d9576102d9610b13565b6020026020010151610571565b6001016102a1565b505050565b6060815167ffffffffffffffff81111561030f5761030f610b29565b60405190808252806020026020018201604052801561034257816020015b606081526020019060019003908161032d5790505b50905060005b82518110156103a15761037383828151811061036657610366610b13565b60200260200101516105c0565b82828151811061038557610385610b13565b602002602001018190525061039a8160010190565b9050610348565b50919050565b6060610214826105c0565b6103ba610508565b6103c4600061048b565b565b600082815260016020908152604090912082516102ee92840190610662565b6103ed610508565b6103f78282610571565b5050565b610403610508565b6001600160a01b03811661047f5760405162461bcd60e51b815260206004820152602660248201527f4f776e61626c653a206e6577206f776e657220697320746865207a65726f206160448201527f64647265737300000000000000000000000000000000000000000000000000006064820152608401610295565b6104888161048b565b50565b6000546001600160a01b0382811691161461048857600080546001600160a01b038381167fffffffffffffffffffffffff0000000000000000000000000000000000000000831681178455604051919092169283917f8be0079c531659141344cd1fd0a4f28419497f9722a3daafe3b4186f6b6457e09190a35050565b3361051b6000546001600160a01b031690565b6001600160a01b0316146103c45760405162461bcd60e51b815260206004820181905260248201527f4f776e61626c653a2063616c6c6572206973206e6f7420746865206f776e65726044820152606401610295565b6000828152600160209081526040909120825161059092840190610662565b5060405182907fcdf4e344c0d23d4cdd0474039d176c55b19d531070dbe17856bfb993a5b5720b90600090a25050565b60008181526001602052604090208054606091906105dd90610ade565b80601f016020809104026020016040519081016040528092919081815260200182805461060990610ade565b80156106565780601f1061062b57610100808354040283529160200191610656565b820191906000526020600020905b81548152906001019060200180831161063957829003601f168201915b50505050509050919050565b82805461066e90610ade565b90600052602060002090601f01602090048101928261069057600085556106d6565b82601f106106a957805160ff19168380011785556106d6565b828001600101855582156106d6579182015b828111156106d65782518255916020019190600101906106bb565b506106e29291506106e6565b5090565b5b808211156106e257600081556001016106e7565b600082601f83011261070c57600080fd5b8135602061072161071c83610aba565b610a89565b80838252828201915082860187848660051b890101111561074157600080fd5b60005b8581101561076057813584529284019290840190600101610744565b5090979650505050505050565b600082601f83011261077e57600080fd5b813567ffffffffffffffff81111561079857610798610b29565b6107ab601f8201601f1916602001610a89565b8181528460208386010111156107c057600080fd5b816020850160208301376000918101602001919091529392505050565b6000602082840312156107ef57600080fd5b81356001600160a01b038116811461080657600080fd5b9392505050565b60006020828403121561081f57600080fd5b813567ffffffffffffffff81111561083657600080fd5b610842848285016106fb565b949350505050565b6000806040838503121561085d57600080fd5b823567ffffffffffffffff8082111561087557600080fd5b610881868387016106fb565b935060209150818501358181111561089857600080fd5b8501601f810187136108a957600080fd5b80356108b761071c82610aba565b8082825285820191508584018a878560051b87010111156108d757600080fd5b6000805b85811015610912578235888111156108f1578283fd5b6108ff8e8b838b010161076d565b86525093880193918801916001016108db565b5050508096505050505050509250929050565b60006020828403121561093757600080fd5b5035919050565b6000806040838503121561095157600080fd5b82359150602083013567ffffffffffffffff81111561096f57600080fd5b61097b8582860161076d565b9150509250929050565b60006020828403121561099757600080fd5b81357fffffffff000000000000000000000000000000000000000000000000000000008116811461080657600080fd5b6000815180845260005b818110156109ed576020818501810151868301820152016109d1565b818111156109ff576000602083870101525b50601f01601f19169290920160200192915050565b6000602080830181845280855180835260408601915060408160051b870101925083870160005b82811015610a6957603f19888603018452610a578583516109c7565b94509285019290850190600101610a3b565b5092979650505050505050565b60208152600061080660208301846109c7565b604051601f8201601f1916810167ffffffffffffffff81118282101715610ab257610ab2610b29565b604052919050565b600067ffffffffffffffff821115610ad457610ad4610b29565b5060051b60200190565b600181811c90821680610af257607f821691505b602082108114156103a157634e487b7160e01b600052602260045260246000fd5b634e487b7160e01b600052603260045260246000fd5b634e487b7160e01b600052604160045260246000fdfea26469706673582212204ac7b0b039aac91e8a3da01d87cd2598e3f60c3c629488326cf736c5c0d5f43a64736f6c63430008070033",
  "linkReferences": {},
  "deployedLinkReferences": {}
}