{
  "_format": "hh-sol-artifact-1",
  "contractName": "LSP7Mintable",
  "sourceName": "contracts/LSP7DigitalAsset/presets/LSP7Mintable.sol",
  "abi": [
    {
      "inputs": [
        {
          "internalType": "string",
          "name": "name_",
          "type": "string"
        },
        {
          "internalType": "string",
          "name": "symbol_",
          "type": "string"
        },
        {
          "internalType": "address",
          "name": "newOwner_",
          "type": "address"
        },
        {
          "internalType": "bool",
          "name": "isNFT_",
          "type": "bool"
        }
      ],
      "stateMutability": "nonpayable",
      "type": "constructor"
    },
    {
      "inputs": [],
      "name": "LSP4TokenNameNotEditable",
      "type": "error"
    },
    {
      "inputs": [],
      "name": "LSP4TokenSymbolNotEditable",
      "type": "error"
    },
    {
      "inputs": [
        {
          "internalType": "address",
          "name": "tokenOwner",
          "type": "address"
        },
        {
          "internalType": "uint256",
          "name": "authorizedAmount",
          "type": "uint256"
        },
        {
          "internalType": "address",
          "name": "operator",
          "type": "address"
        },
        {
          "internalType": "uint256",
          "name": "amount",
          "type": "uint256"
        }
      ],
      "name": "LSP7AmountExceedsAuthorizedAmount",
      "type": "error"
    },
    {
      "inputs": [
        {
          "internalType": "uint256",
          "name": "balance",
          "type": "uint256"
        },
        {
          "internalType": "address",
          "name": "tokenOwner",
          "type": "address"
        },
        {
          "internalType": "uint256",
          "name": "amount",
          "type": "uint256"
        }
      ],
      "name": "LSP7AmountExceedsBalance",
      "type": "error"
    },
    {
      "inputs": [],
      "name": "LSP7CannotSendWithAddressZero",
      "type": "error"
    },
    {
      "inputs": [],
      "name": "LSP7CannotUseAddressZeroAsOperator",
      "type": "error"
    },
    {
      "inputs": [],
      "name": "LSP7InvalidTransferBatch",
      "type": "error"
    },
    {
      "inputs": [
        {
          "internalType": "address",
          "name": "tokenReceiver",
          "type": "address"
        }
      ],
      "name": "LSP7NotifyTokenReceiverContractMissingLSP1Interface",
      "type": "error"
    },
    {
      "inputs": [
        {
          "internalType": "address",
          "name": "tokenReceiver",
          "type": "address"
        }
      ],
      "name": "LSP7NotifyTokenReceiverIsEOA",
      "type": "error"
    },
    {
      "anonymous": false,
      "inputs": [
        {
          "indexed": true,
          "internalType": "address",
          "name": "operator",
          "type": "address"
        },
        {
          "indexed": true,
          "internalType": "address",
          "name": "tokenOwner",
          "type": "address"
        },
        {
          "indexed": true,
          "internalType": "uint256",
          "name": "amount",
          "type": "uint256"
        }
      ],
      "name": "AuthorizedOperator",
      "type": "event"
    },
    {
      "anonymous": false,
      "inputs": [
        {
          "indexed": true,
          "internalType": "bytes32",
          "name": "dataKey",
          "type": "bytes32"
        }
      ],
      "name": "DataChanged",
      "type": "event"
    },
    {
      "anonymous": false,
      "inputs": [
        {
          "indexed": true,
          "internalType": "address",
          "name": "previousOwner",
          "type": "address"
        },
        {
          "indexed": true,
          "internalType": "address",
          "name": "newOwner",
          "type": "address"
        }
      ],
      "name": "OwnershipTransferred",
      "type": "event"
    },
    {
      "anonymous": false,
      "inputs": [
        {
          "indexed": true,
          "internalType": "address",
          "name": "operator",
          "type": "address"
        },
        {
          "indexed": true,
          "internalType": "address",
          "name": "tokenOwner",
          "type": "address"
        }
      ],
      "name": "RevokedOperator",
      "type": "event"
    },
    {
      "anonymous": false,
      "inputs": [
        {
          "indexed": true,
          "internalType": "address",
          "name": "operator",
          "type": "address"
        },
        {
          "indexed": true,
          "internalType": "address",
          "name": "from",
          "type": "address"
        },
        {
          "indexed": true,
          "internalType": "address",
          "name": "to",
          "type": "address"
        },
        {
          "indexed": false,
          "internalType": "uint256",
          "name": "amount",
          "type": "uint256"
        },
        {
          "indexed": false,
          "internalType": "bool",
          "name": "force",
          "type": "bool"
        },
        {
          "indexed": false,
          "internalType": "bytes",
          "name": "data",
          "type": "bytes"
        }
      ],
      "name": "Transfer",
      "type": "event"
    },
    {
      "inputs": [
        {
          "internalType": "address",
          "name": "operator",
          "type": "address"
        },
        {
          "internalType": "uint256",
          "name": "amount",
          "type": "uint256"
        }
      ],
      "name": "authorizeOperator",
      "outputs": [],
      "stateMutability": "nonpayable",
      "type": "function"
    },
    {
      "inputs": [
        {
          "internalType": "address",
          "name": "tokenOwner",
          "type": "address"
        }
      ],
      "name": "balanceOf",
      "outputs": [
        {
          "internalType": "uint256",
          "name": "",
          "type": "uint256"
        }
      ],
      "stateMutability": "view",
      "type": "function"
    },
    {
      "inputs": [],
      "name": "decimals",
      "outputs": [
        {
          "internalType": "uint256",
          "name": "",
          "type": "uint256"
        }
      ],
      "stateMutability": "view",
      "type": "function"
    },
    {
      "inputs": [
        {
          "internalType": "bytes32[]",
          "name": "dataKeys",
          "type": "bytes32[]"
        }
      ],
      "name": "getData",
      "outputs": [
        {
          "internalType": "bytes[]",
          "name": "dataValues",
          "type": "bytes[]"
        }
      ],
      "stateMutability": "view",
      "type": "function"
    },
    {
      "inputs": [
        {
          "internalType": "bytes32",
          "name": "dataKey",
          "type": "bytes32"
        }
      ],
      "name": "getData",
      "outputs": [
        {
          "internalType": "bytes",
          "name": "dataValue",
          "type": "bytes"
        }
      ],
      "stateMutability": "view",
      "type": "function"
    },
    {
      "inputs": [
        {
          "internalType": "address",
          "name": "operator",
          "type": "address"
        },
        {
          "internalType": "address",
          "name": "tokenOwner",
          "type": "address"
        }
      ],
      "name": "isOperatorFor",
      "outputs": [
        {
          "internalType": "uint256",
          "name": "",
          "type": "uint256"
        }
      ],
      "stateMutability": "view",
      "type": "function"
    },
    {
      "inputs": [
        {
          "internalType": "address",
          "name": "to",
          "type": "address"
        },
        {
          "internalType": "uint256",
          "name": "amount",
          "type": "uint256"
        },
        {
          "internalType": "bool",
          "name": "force",
          "type": "bool"
        },
        {
          "internalType": "bytes",
          "name": "data",
          "type": "bytes"
        }
      ],
      "name": "mint",
      "outputs": [],
      "stateMutability": "nonpayable",
      "type": "function"
    },
    {
      "inputs": [],
      "name": "owner",
      "outputs": [
        {
          "internalType": "address",
          "name": "",
          "type": "address"
        }
      ],
      "stateMutability": "view",
      "type": "function"
    },
    {
      "inputs": [],
      "name": "renounceOwnership",
      "outputs": [],
      "stateMutability": "nonpayable",
      "type": "function"
    },
    {
      "inputs": [
        {
          "internalType": "address",
          "name": "operator",
          "type": "address"
        }
      ],
      "name": "revokeOperator",
      "outputs": [],
      "stateMutability": "nonpayable",
      "type": "function"
    },
    {
      "inputs": [
        {
          "internalType": "bytes32[]",
          "name": "dataKeys",
          "type": "bytes32[]"
        },
        {
          "internalType": "bytes[]",
          "name": "dataValues",
          "type": "bytes[]"
        }
      ],
      "name": "setData",
      "outputs": [],
      "stateMutability": "nonpayable",
      "type": "function"
    },
    {
      "inputs": [
        {
          "internalType": "bytes32",
          "name": "dataKey",
          "type": "bytes32"
        },
        {
          "internalType": "bytes",
          "name": "dataValue",
          "type": "bytes"
        }
      ],
      "name": "setData",
      "outputs": [],
      "stateMutability": "nonpayable",
      "type": "function"
    },
    {
      "inputs": [
        {
          "internalType": "bytes4",
          "name": "interfaceId",
          "type": "bytes4"
        }
      ],
      "name": "supportsInterface",
      "outputs": [
        {
          "internalType": "bool",
          "name": "",
          "type": "bool"
        }
      ],
      "stateMutability": "view",
      "type": "function"
    },
    {
      "inputs": [],
      "name": "totalSupply",
      "outputs": [
        {
          "internalType": "uint256",
          "name": "",
          "type": "uint256"
        }
      ],
      "stateMutability": "view",
      "type": "function"
    },
    {
      "inputs": [
        {
          "internalType": "address",
          "name": "from",
          "type": "address"
        },
        {
          "internalType": "address",
          "name": "to",
          "type": "address"
        },
        {
          "internalType": "uint256",
          "name": "amount",
          "type": "uint256"
        },
        {
          "internalType": "bool",
          "name": "force",
          "type": "bool"
        },
        {
          "internalType": "bytes",
          "name": "data",
          "type": "bytes"
        }
      ],
      "name": "transfer",
      "outputs": [],
      "stateMutability": "nonpayable",
      "type": "function"
    },
    {
      "inputs": [
        {
          "internalType": "address[]",
          "name": "from",
          "type": "address[]"
        },
        {
          "internalType": "address[]",
          "name": "to",
          "type": "address[]"
        },
        {
          "internalType": "uint256[]",
          "name": "amount",
          "type": "uint256[]"
        },
        {
          "internalType": "bool",
          "name": "force",
          "type": "bool"
        },
        {
          "internalType": "bytes[]",
          "name": "data",
          "type": "bytes[]"
        }
      ],
      "name": "transferBatch",
      "outputs": [],
      "stateMutability": "nonpayable",
      "type": "function"
    },
    {
      "inputs": [
        {
          "internalType": "address",
          "name": "newOwner",
          "type": "address"
        }
      ],
      "name": "transferOwnership",
      "outputs": [],
      "stateMutability": "nonpayable",
      "type": "function"
    }
  ],
  "bytecode": "0x60806040523480156200001157600080fd5b5060405162001f7038038062001f70833981016040819052620000349162000355565b838383838383838062000052816200014060201b6200078c1760201c565b50620000a97feafec4d89fa9619884b60000a4d96624a38f7ac2d8d9a604ecf07c12c77e480c60001b604051806040016040528060048152602001632936598960e21b815250620001a760201b620008091760201c565b620000e37fdeba1e292f8ba88238e10ab3c7f88bd4be4fac56cad5194b6ecceaf653468af160001b84620001a760201b620008091760201c565b6200011d7f2f0a68ab07768e01943a599e73362a0e17a63a72e94dd2e384d2c1d4db93275660001b83620001a760201b620008091760201c565b50506002805460ff191692151592909217909155506200044d9650505050505050565b6000546001600160a01b03828116911614620001a457600080546001600160a01b038381166001600160a01b0319831681178455604051919092169283917f8be0079c531659141344cd1fd0a4f28419497f9722a3daafe3b4186f6b6457e09190a3505b50565b60008281526001602090815260409091208251620001c892840190620001f8565b5060405182907fcdf4e344c0d23d4cdd0474039d176c55b19d531070dbe17856bfb993a5b5720b90600090a25050565b8280546200020690620003fa565b90600052602060002090601f0160209004810192826200022a576000855562000275565b82601f106200024557805160ff191683800117855562000275565b8280016001018555821562000275579182015b828111156200027557825182559160200191906001019062000258565b506200028392915062000287565b5090565b5b8082111562000283576000815560010162000288565b600082601f830112620002b057600080fd5b81516001600160401b0380821115620002cd57620002cd62000437565b604051601f8301601f19908116603f01168101908282118183101715620002f857620002f862000437565b816040528381526020925086838588010111156200031557600080fd5b600091505b838210156200033957858201830151818301840152908201906200031a565b838211156200034b5760008385830101525b9695505050505050565b600080600080608085870312156200036c57600080fd5b84516001600160401b03808211156200038457600080fd5b62000392888389016200029e565b95506020870151915080821115620003a957600080fd5b50620003b8878288016200029e565b604087015190945090506001600160a01b0381168114620003d857600080fd5b60608601519092508015158114620003ef57600080fd5b939692955090935050565b600181811c908216806200040f57607f821691505b602082108114156200043157634e487b7160e01b600052602260045260246000fd5b50919050565b634e487b7160e01b600052604160045260246000fd5b611b13806200045d6000396000f3fe608060405234801561001057600080fd5b506004361061011b5760003560e01c8063715018a6116100b25780638da5cb5b11610081578063d95b637111610066578063d95b637114610262578063f2fde38b14610275578063fad8b32a1461028857600080fd5b80638da5cb5b14610234578063a8a34e0a1461024f57600080fd5b8063715018a6146101f35780637580d920146101fb578063760d9bba1461020e5780637f23690c1461022157600080fd5b806347980aa3116100ee57806347980aa3146101775780634e3e6e9c1461018a57806354f6127f146101aa57806370a08231146101ca57600080fd5b806301ffc9a71461012057806314a6e2931461014857806318160ddd1461015d578063313ce5671461016f575b600080fd5b61013361012e366004611775565b61029b565b60405190151581526020015b60405180910390f35b61015b6101563660046116bb565b6102df565b005b6003545b60405190815260200161013f565b6101616103b8565b61015b6101853660046114e0565b6103d7565b61019d61019836600461167e565b6103e6565b60405161013f91906118c4565b6101bd6101b836600461171f565b61049a565b60405161013f919061193f565b6101616101d8366004611412565b6001600160a01b031660009081526004602052604090205490565b61015b6104a5565b61015b61020936600461150a565b6104b9565b61015b61021c366004611467565b6104d3565b61015b61022f366004611738565b610590565b6000546040516001600160a01b03909116815260200161013f565b61015b61025d366004611572565b6105a2565b610161610270366004611434565b610688565b61015b610283366004611412565b6106f0565b61015b610296366004611412565b610780565b60006001600160e01b031982167fe33f65c30000000000000000000000000000000000000000000000000000000014806102d957506102d982610858565b92915050565b6102e76108a6565b80518251146103635760405162461bcd60e51b815260206004820152602660248201527f4b657973206c656e677468206e6f7420657175616c20746f2076616c7565732060448201527f6c656e677468000000000000000000000000000000000000000000000000000060648201526084015b60405180910390fd5b60005b82518110156103b3576103ab83828151811061038457610384611ab1565b602002602001015183838151811061039e5761039e611ab1565b602002602001015161090f565b600101610366565b505050565b60025460009060ff166103cc5760126103cf565b60005b60ff16905090565b6103e23383836109cd565b5050565b6060815167ffffffffffffffff81111561040257610402611ac7565b60405190808252806020026020018201604052801561043557816020015b60608152602001906001900390816104205790505b50905060005b82518110156104945761046683828151811061045957610459611ab1565b6020026020010151610ae5565b82828151811061047857610478611ab1565b602002602001018190525061048d8160010190565b905061043b565b50919050565b60606102d982610ae5565b6104ad6108a6565b6104b7600061078c565b565b6104c16108a6565b6104cd84848484610b87565b50505050565b336001600160a01b038616811461057b576001600160a01b0380871660009081526005602090815260408083209385168352929052205480851115610565576040517ff3a6b6910000000000000000000000000000000000000000000000000000000081526001600160a01b03808916600483015260248201839052831660448201526064810186905260840161035a565b61057987836105748885611a08565b6109cd565b505b6105888686868686610c59565b505050505050565b6105986108a6565b6103e2828261090f565b835185511415806105b557508251855114155b806105c257508051855114155b156105f9576040517f263eee8d00000000000000000000000000000000000000000000000000000000815260040160405180910390fd5b60005b85518110156105885761067686828151811061061a5761061a611ab1565b602002602001015186838151811061063457610634611ab1565b602002602001015186848151811061064e5761064e611ab1565b60200260200101518686868151811061066957610669611ab1565b60200260200101516104d3565b8061068081611a80565b9150506105fc565b6000826001600160a01b0316826001600160a01b031614156106c357506001600160a01b0381166000908152600460205260409020546102d9565b506001600160a01b0380821660009081526005602090815260408083209386168352929052205492915050565b6106f86108a6565b6001600160a01b0381166107745760405162461bcd60e51b815260206004820152602660248201527f4f776e61626c653a206e6577206f776e657220697320746865207a65726f206160448201527f6464726573730000000000000000000000000000000000000000000000000000606482015260840161035a565b61077d8161078c565b50565b61077d338260006109cd565b6000546001600160a01b0382811691161461077d57600080546001600160a01b038381167fffffffffffffffffffffffff0000000000000000000000000000000000000000831681178455604051919092169283917f8be0079c531659141344cd1fd0a4f28419497f9722a3daafe3b4186f6b6457e09190a35050565b6000828152600160209081526040909120825161082892840190611191565b5060405182907fcdf4e344c0d23d4cdd0474039d176c55b19d531070dbe17856bfb993a5b5720b90600090a25050565b60006001600160e01b031982167f714df77c0000000000000000000000000000000000000000000000000000000014806102d957506301ffc9a760e01b6001600160e01b03198316146102d9565b336108b96000546001600160a01b031690565b6001600160a01b0316146104b75760405162461bcd60e51b815260206004820181905260248201527f4f776e61626c653a2063616c6c6572206973206e6f7420746865206f776e6572604482015260640161035a565b7fdeba1e292f8ba88238e10ab3c7f88bd4be4fac56cad5194b6ecceaf653468af1821415610969576040517f85c169bd00000000000000000000000000000000000000000000000000000000815260040160405180910390fd5b7f2f0a68ab07768e01943a599e73362a0e17a63a72e94dd2e384d2c1d4db9327568214156109c3576040517f76755b3800000000000000000000000000000000000000000000000000000000815260040160405180910390fd5b6103e28282610809565b6001600160a01b038216610a0d576040517f6355e76600000000000000000000000000000000000000000000000000000000815260040160405180910390fd5b826001600160a01b0316826001600160a01b03161415610a2c57505050565b6001600160a01b0380841660009081526005602090815260408083209386168352929052208190558015610aa05780836001600160a01b0316836001600160a01b03167fd66aff874162a96578e919097b6f6d153dfd89a5cec41bb331fdb0c4aec16e2c60405160405180910390a4505050565b826001600160a01b0316826001600160a01b03167f50546e66e5f44d728365dc3908c63bc5cfeeab470722c1677e3073a6ac294aa160405160405180910390a3505050565b6000818152600160205260409020805460609190610b0290611a4b565b80601f0160208091040260200160405190810160405280929190818152602001828054610b2e90611a4b565b8015610b7b5780601f10610b5057610100808354040283529160200191610b7b565b820191906000526020600020905b815481529060010190602001808311610b5e57829003601f168201915b50505050509050919050565b6001600160a01b038416610bae57604051630d2d5ec360e41b815260040160405180910390fd5b33610bbb60008686610de3565b6001600160a01b03851660009081526004602052604081208054869290610be39084906119f0565b92505081905550846001600160a01b031660006001600160a01b0316826001600160a01b03167f3997e418d2cef0b3b0e907b1e39605c3f7d32dbd061e82ea5b4a770d46a160a6878787604051610c3c93929190611952565b60405180910390a4610c52600086868686610e33565b5050505050565b6001600160a01b0385161580610c7657506001600160a01b038416155b15610c9457604051630d2d5ec360e41b815260040160405180910390fd5b6001600160a01b03851660009081526004602052604090205480841115610d00576040517f08d47949000000000000000000000000000000000000000000000000000000008152600481018290526001600160a01b03871660248201526044810185905260640161035a565b33610d0c878787610de3565b6001600160a01b03871660009081526004602052604081208054879290610d34908490611a08565b90915550506001600160a01b03861660009081526004602052604081208054879290610d619084906119f0565b92505081905550856001600160a01b0316876001600160a01b0316826001600160a01b03167f3997e418d2cef0b3b0e907b1e39605c3f7d32dbd061e82ea5b4a770d46a160a6888888604051610db993929190611952565b60405180910390a4610dcd87878786610fac565b610dda8787878787610e33565b50505050505050565b6001600160a01b038316610e09578060036000828254610e0391906119f0565b90915550505b6001600160a01b0382166103b3578060036000828254610e299190611a08565b9091555050505050565b610e4484631aed5a8560e21b61108f565b15610f1d57600085858584604051602001610e62949392919061185b565b60408051601f1981840301815290829052631aed5a8560e21b825291506001600160a01b03861690636bb56a1490610ec0907fdbe2c314e1aee2970c72666f2ebe8933a8575263ea71e5ff6a9178e95d47a26f908590600401611926565b600060405180830381600087803b158015610eda57600080fd5b505af1158015610eee573d6000803e3d6000fd5b505050506040513d6000823e601f3d908101601f19168201604052610f16919081019061179f565b5050610c52565b81610c52576001600160a01b0384163b15610f6f576040517fa608fbb60000000000000000000000000000000000000000000000000000000081526001600160a01b038516600482015260240161035a565b6040517f26c247f40000000000000000000000000000000000000000000000000000000081526001600160a01b038516600482015260240161035a565b610fbd84631aed5a8560e21b61108f565b156104cd57600084848484604051602001610fdb949392919061185b565b60408051601f1981840301815290829052631aed5a8560e21b825291506001600160a01b03861690636bb56a1490611039907f40b8bec57d7b5ff0dbd9e9acd0a47dfeb0101e1a203766f5ccab00445fbf39e9908590600401611926565b600060405180830381600087803b15801561105357600080fd5b505af1158015611067573d6000803e3d6000fd5b505050506040513d6000823e601f3d908101601f19168201604052610588919081019061179f565b604080516001600160e01b0319831660248083019190915282518083039091018152604490910182526020810180517bffffffffffffffffffffffffffffffffffffffffffffffffffffffff166301ffc9a760e01b179052905160009190829081906001600160a01b038716906175309061110b9086906118a8565b6000604051808303818686fa925050503d8060008114611147576040519150601f19603f3d011682016040523d82523d6000602084013e61114c565b606091505b509150915060208151101561116757600093505050506102d9565b81801561118757506000818060200190518101906111859190611816565b115b9695505050505050565b82805461119d90611a4b565b90600052602060002090601f0160209004810192826111bf5760008555611205565b82601f106111d857805160ff1916838001178555611205565b82800160010185558215611205579182015b828111156112055782518255916020019190600101906111ea565b50611211929150611215565b5090565b5b808211156112115760008155600101611216565b80356001600160a01b038116811461124157600080fd5b919050565b600082601f83011261125757600080fd5b8135602061126c611267836119a4565b611973565b80838252828201915082860187848660051b890101111561128c57600080fd5b60005b858110156112b2576112a08261122a565b8452928401929084019060010161128f565b5090979650505050505050565b600082601f8301126112d057600080fd5b813560206112e0611267836119a4565b80838252828201915082860187848660051b890101111561130057600080fd5b60005b858110156112b257813584529284019290840190600101611303565b600082601f83011261133057600080fd5b81356020611340611267836119a4565b80838252828201915082860187848660051b890101111561136057600080fd5b6000805b868110156113a357823567ffffffffffffffff811115611382578283fd5b6113908b88838d01016113c1565b8652509385019391850191600101611364565b509198975050505050505050565b8035801515811461124157600080fd5b600082601f8301126113d257600080fd5b81356113e0611267826119c8565b8181528460208386010111156113f557600080fd5b816020850160208301376000918101602001919091529392505050565b60006020828403121561142457600080fd5b61142d8261122a565b9392505050565b6000806040838503121561144757600080fd5b6114508361122a565b915061145e6020840161122a565b90509250929050565b600080600080600060a0868803121561147f57600080fd5b6114888661122a565b94506114966020870161122a565b9350604086013592506114ab606087016113b1565b9150608086013567ffffffffffffffff8111156114c757600080fd5b6114d3888289016113c1565b9150509295509295909350565b600080604083850312156114f357600080fd5b6114fc8361122a565b946020939093013593505050565b6000806000806080858703121561152057600080fd5b6115298561122a565b93506020850135925061153e604086016113b1565b9150606085013567ffffffffffffffff81111561155a57600080fd5b611566878288016113c1565b91505092959194509250565b600080600080600060a0868803121561158a57600080fd5b853567ffffffffffffffff808211156115a257600080fd5b6115ae89838a01611246565b96506020915081880135818111156115c557600080fd5b6115d18a828b01611246565b9650506040880135818111156115e657600080fd5b8801601f81018a136115f757600080fd5b8035611605611267826119a4565b8082825285820191508584018d878560051b870101111561162557600080fd5b600094505b8385101561164857803583526001949094019391860191860161162a565b50975061165b92505050606089016113b1565b9350608088013591508082111561167157600080fd5b506114d38882890161131f565b60006020828403121561169057600080fd5b813567ffffffffffffffff8111156116a757600080fd5b6116b3848285016112bf565b949350505050565b600080604083850312156116ce57600080fd5b823567ffffffffffffffff808211156116e657600080fd5b6116f2868387016112bf565b9350602085013591508082111561170857600080fd5b506117158582860161131f565b9150509250929050565b60006020828403121561173157600080fd5b5035919050565b6000806040838503121561174b57600080fd5b82359150602083013567ffffffffffffffff81111561176957600080fd5b611715858286016113c1565b60006020828403121561178757600080fd5b81356001600160e01b03198116811461142d57600080fd5b6000602082840312156117b157600080fd5b815167ffffffffffffffff8111156117c857600080fd5b8201601f810184136117d957600080fd5b80516117e7611267826119c8565b8181528560208385010111156117fc57600080fd5b61180d826020830160208601611a1f565b95945050505050565b60006020828403121561182857600080fd5b5051919050565b60008151808452611847816020860160208601611a1f565b601f01601f19169290920160200192915050565b60006bffffffffffffffffffffffff19808760601b168352808660601b166014840152508360288301528251611898816048850160208701611a1f565b9190910160480195945050505050565b600082516118ba818460208701611a1f565b9190910192915050565b6000602080830181845280855180835260408601915060408160051b870101925083870160005b8281101561191957603f1988860301845261190785835161182f565b945092850192908501906001016118eb565b5092979650505050505050565b8281526040602082015260006116b3604083018461182f565b60208152600061142d602083018461182f565b838152821515602082015260606040820152600061180d606083018461182f565b604051601f8201601f1916810167ffffffffffffffff8111828210171561199c5761199c611ac7565b604052919050565b600067ffffffffffffffff8211156119be576119be611ac7565b5060051b60200190565b600067ffffffffffffffff8211156119e2576119e2611ac7565b50601f01601f191660200190565b60008219821115611a0357611a03611a9b565b500190565b600082821015611a1a57611a1a611a9b565b500390565b60005b83811015611a3a578181015183820152602001611a22565b838111156104cd5750506000910152565b600181811c90821680611a5f57607f821691505b6020821081141561049457634e487b7160e01b600052602260045260246000fd5b6000600019821415611a9457611a94611a9b565b5060010190565b634e487b7160e01b600052601160045260246000fd5b634e487b7160e01b600052603260045260246000fd5b634e487b7160e01b600052604160045260246000fdfea2646970667358221220f4d5e51e05c9d2f68113afb53c7ffdda9b624ed7e67e983c4acec108545b80bb64736f6c63430008070033",
  "linkReferences": {},
  "deployedLinkReferences": {}
}