{
  "_format": "hh-sol-artifact-1",
  "contractName": "LSP7CompatibleERC20Tester",
  "sourceName": "contracts/Helpers/Tokens/LSP7CompatibleERC20Tester.sol",
  "abi": [
    {
      "inputs": [
        {
          "internalType": "string",
          "name": "name",
          "type": "string"
        },
        {
          "internalType": "string",
          "name": "symbol",
          "type": "string"
        },
        {
          "internalType": "address",
          "name": "newOwner",
          "type": "address"
        }
      ],
      "stateMutability": "nonpayable",
      "type": "constructor"
    },
    {
      "inputs": [],
      "name": "LSP4TokenNameNotEditable",
      "type": "error"
    },
    {
      "inputs": [],
      "name": "LSP4TokenSymbolNotEditable",
      "type": "error"
    },
    {
      "inputs": [
        {
          "internalType": "address",
          "name": "tokenOwner",
          "type": "address"
        },
        {
          "internalType": "uint256",
          "name": "authorizedAmount",
          "type": "uint256"
        },
        {
          "internalType": "address",
          "name": "operator",
          "type": "address"
        },
        {
          "internalType": "uint256",
          "name": "amount",
          "type": "uint256"
        }
      ],
      "name": "LSP7AmountExceedsAuthorizedAmount",
      "type": "error"
    },
    {
      "inputs": [
        {
          "internalType": "uint256",
          "name": "balance",
          "type": "uint256"
        },
        {
          "internalType": "address",
          "name": "tokenOwner",
          "type": "address"
        },
        {
          "internalType": "uint256",
          "name": "amount",
          "type": "uint256"
        }
      ],
      "name": "LSP7AmountExceedsBalance",
      "type": "error"
    },
    {
      "inputs": [],
      "name": "LSP7CannotSendWithAddressZero",
      "type": "error"
    },
    {
      "inputs": [],
      "name": "LSP7CannotUseAddressZeroAsOperator",
      "type": "error"
    },
    {
      "inputs": [],
      "name": "LSP7InvalidTransferBatch",
      "type": "error"
    },
    {
      "inputs": [
        {
          "internalType": "address",
          "name": "tokenReceiver",
          "type": "address"
        }
      ],
      "name": "LSP7NotifyTokenReceiverContractMissingLSP1Interface",
      "type": "error"
    },
    {
      "inputs": [
        {
          "internalType": "address",
          "name": "tokenReceiver",
          "type": "address"
        }
      ],
      "name": "LSP7NotifyTokenReceiverIsEOA",
      "type": "error"
    },
    {
      "anonymous": false,
      "inputs": [
        {
          "indexed": true,
          "internalType": "address",
          "name": "owner",
          "type": "address"
        },
        {
          "indexed": true,
          "internalType": "address",
          "name": "spender",
          "type": "address"
        },
        {
          "indexed": false,
          "internalType": "uint256",
          "name": "value",
          "type": "uint256"
        }
      ],
      "name": "Approval",
      "type": "event"
    },
    {
      "anonymous": false,
      "inputs": [
        {
          "indexed": true,
          "internalType": "address",
          "name": "operator",
          "type": "address"
        },
        {
          "indexed": true,
          "internalType": "address",
          "name": "tokenOwner",
          "type": "address"
        },
        {
          "indexed": true,
          "internalType": "uint256",
          "name": "amount",
          "type": "uint256"
        }
      ],
      "name": "AuthorizedOperator",
      "type": "event"
    },
    {
      "anonymous": false,
      "inputs": [
        {
          "indexed": true,
          "internalType": "bytes32",
          "name": "dataKey",
          "type": "bytes32"
        }
      ],
      "name": "DataChanged",
      "type": "event"
    },
    {
      "anonymous": false,
      "inputs": [
        {
          "indexed": true,
          "internalType": "address",
          "name": "previousOwner",
          "type": "address"
        },
        {
          "indexed": true,
          "internalType": "address",
          "name": "newOwner",
          "type": "address"
        }
      ],
      "name": "OwnershipTransferred",
      "type": "event"
    },
    {
      "anonymous": false,
      "inputs": [
        {
          "indexed": true,
          "internalType": "address",
          "name": "operator",
          "type": "address"
        },
        {
          "indexed": true,
          "internalType": "address",
          "name": "tokenOwner",
          "type": "address"
        }
      ],
      "name": "RevokedOperator",
      "type": "event"
    },
    {
      "anonymous": false,
      "inputs": [
        {
          "indexed": true,
          "internalType": "address",
          "name": "from",
          "type": "address"
        },
        {
          "indexed": true,
          "internalType": "address",
          "name": "to",
          "type": "address"
        },
        {
          "indexed": false,
          "internalType": "uint256",
          "name": "value",
          "type": "uint256"
        }
      ],
      "name": "Transfer",
      "type": "event"
    },
    {
      "anonymous": false,
      "inputs": [
        {
          "indexed": true,
          "internalType": "address",
          "name": "operator",
          "type": "address"
        },
        {
          "indexed": true,
          "internalType": "address",
          "name": "from",
          "type": "address"
        },
        {
          "indexed": true,
          "internalType": "address",
          "name": "to",
          "type": "address"
        },
        {
          "indexed": false,
          "internalType": "uint256",
          "name": "amount",
          "type": "uint256"
        },
        {
          "indexed": false,
          "internalType": "bool",
          "name": "force",
          "type": "bool"
        },
        {
          "indexed": false,
          "internalType": "bytes",
          "name": "data",
          "type": "bytes"
        }
      ],
      "name": "Transfer",
      "type": "event"
    },
    {
      "inputs": [
        {
          "internalType": "address",
          "name": "tokenOwner",
          "type": "address"
        },
        {
          "internalType": "address",
          "name": "operator",
          "type": "address"
        }
      ],
      "name": "allowance",
      "outputs": [
        {
          "internalType": "uint256",
          "name": "",
          "type": "uint256"
        }
      ],
      "stateMutability": "view",
      "type": "function"
    },
    {
      "inputs": [
        {
          "internalType": "address",
          "name": "operator",
          "type": "address"
        },
        {
          "internalType": "uint256",
          "name": "amount",
          "type": "uint256"
        }
      ],
      "name": "approve",
      "outputs": [
        {
          "internalType": "bool",
          "name": "",
          "type": "bool"
        }
      ],
      "stateMutability": "nonpayable",
      "type": "function"
    },
    {
      "inputs": [
        {
          "internalType": "address",
          "name": "operator",
          "type": "address"
        },
        {
          "internalType": "uint256",
          "name": "amount",
          "type": "uint256"
        }
      ],
      "name": "authorizeOperator",
      "outputs": [],
      "stateMutability": "nonpayable",
      "type": "function"
    },
    {
      "inputs": [
        {
          "internalType": "address",
          "name": "tokenOwner",
          "type": "address"
        }
      ],
      "name": "balanceOf",
      "outputs": [
        {
          "internalType": "uint256",
          "name": "",
          "type": "uint256"
        }
      ],
      "stateMutability": "view",
      "type": "function"
    },
    {
      "inputs": [
        {
          "internalType": "address",
          "name": "from",
          "type": "address"
        },
        {
          "internalType": "uint256",
          "name": "amount",
          "type": "uint256"
        },
        {
          "internalType": "bytes",
          "name": "data",
          "type": "bytes"
        }
      ],
      "name": "burn",
      "outputs": [],
      "stateMutability": "nonpayable",
      "type": "function"
    },
    {
      "inputs": [],
      "name": "decimals",
      "outputs": [
        {
          "internalType": "uint256",
          "name": "",
          "type": "uint256"
        }
      ],
      "stateMutability": "view",
      "type": "function"
    },
    {
      "inputs": [
        {
          "internalType": "bytes32[]",
          "name": "dataKeys",
          "type": "bytes32[]"
        }
      ],
      "name": "getData",
      "outputs": [
        {
          "internalType": "bytes[]",
          "name": "dataValues",
          "type": "bytes[]"
        }
      ],
      "stateMutability": "view",
      "type": "function"
    },
    {
      "inputs": [
        {
          "internalType": "bytes32",
          "name": "dataKey",
          "type": "bytes32"
        }
      ],
      "name": "getData",
      "outputs": [
        {
          "internalType": "bytes",
          "name": "dataValue",
          "type": "bytes"
        }
      ],
      "stateMutability": "view",
      "type": "function"
    },
    {
      "inputs": [
        {
          "internalType": "address",
          "name": "operator",
          "type": "address"
        },
        {
          "internalType": "address",
          "name": "tokenOwner",
          "type": "address"
        }
      ],
      "name": "isOperatorFor",
      "outputs": [
        {
          "internalType": "uint256",
          "name": "",
          "type": "uint256"
        }
      ],
      "stateMutability": "view",
      "type": "function"
    },
    {
      "inputs": [
        {
          "internalType": "address",
          "name": "to",
          "type": "address"
        },
        {
          "internalType": "uint256",
          "name": "amount",
          "type": "uint256"
        },
        {
          "internalType": "bytes",
          "name": "data",
          "type": "bytes"
        }
      ],
      "name": "mint",
      "outputs": [],
      "stateMutability": "nonpayable",
      "type": "function"
    },
    {
      "inputs": [],
      "name": "name",
      "outputs": [
        {
          "internalType": "string",
          "name": "",
          "type": "string"
        }
      ],
      "stateMutability": "view",
      "type": "function"
    },
    {
      "inputs": [],
      "name": "owner",
      "outputs": [
        {
          "internalType": "address",
          "name": "",
          "type": "address"
        }
      ],
      "stateMutability": "view",
      "type": "function"
    },
    {
      "inputs": [],
      "name": "renounceOwnership",
      "outputs": [],
      "stateMutability": "nonpayable",
      "type": "function"
    },
    {
      "inputs": [
        {
          "internalType": "address",
          "name": "operator",
          "type": "address"
        }
      ],
      "name": "revokeOperator",
      "outputs": [],
      "stateMutability": "nonpayable",
      "type": "function"
    },
    {
      "inputs": [
        {
          "internalType": "bytes32[]",
          "name": "dataKeys",
          "type": "bytes32[]"
        },
        {
          "internalType": "bytes[]",
          "name": "dataValues",
          "type": "bytes[]"
        }
      ],
      "name": "setData",
      "outputs": [],
      "stateMutability": "nonpayable",
      "type": "function"
    },
    {
      "inputs": [
        {
          "internalType": "bytes32",
          "name": "dataKey",
          "type": "bytes32"
        },
        {
          "internalType": "bytes",
          "name": "dataValue",
          "type": "bytes"
        }
      ],
      "name": "setData",
      "outputs": [],
      "stateMutability": "nonpayable",
      "type": "function"
    },
    {
      "inputs": [
        {
          "internalType": "bytes4",
          "name": "interfaceId",
          "type": "bytes4"
        }
      ],
      "name": "supportsInterface",
      "outputs": [
        {
          "internalType": "bool",
          "name": "",
          "type": "bool"
        }
      ],
      "stateMutability": "view",
      "type": "function"
    },
    {
      "inputs": [],
      "name": "symbol",
      "outputs": [
        {
          "internalType": "string",
          "name": "",
          "type": "string"
        }
      ],
      "stateMutability": "view",
      "type": "function"
    },
    {
      "inputs": [],
      "name": "totalSupply",
      "outputs": [
        {
          "internalType": "uint256",
          "name": "",
          "type": "uint256"
        }
      ],
      "stateMutability": "view",
      "type": "function"
    },
    {
      "inputs": [
        {
          "internalType": "address",
          "name": "from",
          "type": "address"
        },
        {
          "internalType": "address",
          "name": "to",
          "type": "address"
        },
        {
          "internalType": "uint256",
          "name": "amount",
          "type": "uint256"
        },
        {
          "internalType": "bool",
          "name": "force",
          "type": "bool"
        },
        {
          "internalType": "bytes",
          "name": "data",
          "type": "bytes"
        }
      ],
      "name": "transfer",
      "outputs": [],
      "stateMutability": "nonpayable",
      "type": "function"
    },
    {
      "inputs": [
        {
          "internalType": "address",
          "name": "to",
          "type": "address"
        },
        {
          "internalType": "uint256",
          "name": "amount",
          "type": "uint256"
        }
      ],
      "name": "transfer",
      "outputs": [
        {
          "internalType": "bool",
          "name": "",
          "type": "bool"
        }
      ],
      "stateMutability": "nonpayable",
      "type": "function"
    },
    {
      "inputs": [
        {
          "internalType": "address[]",
          "name": "from",
          "type": "address[]"
        },
        {
          "internalType": "address[]",
          "name": "to",
          "type": "address[]"
        },
        {
          "internalType": "uint256[]",
          "name": "amount",
          "type": "uint256[]"
        },
        {
          "internalType": "bool",
          "name": "force",
          "type": "bool"
        },
        {
          "internalType": "bytes[]",
          "name": "data",
          "type": "bytes[]"
        }
      ],
      "name": "transferBatch",
      "outputs": [],
      "stateMutability": "nonpayable",
      "type": "function"
    },
    {
      "inputs": [
        {
          "internalType": "address",
          "name": "from",
          "type": "address"
        },
        {
          "internalType": "address",
          "name": "to",
          "type": "address"
        },
        {
          "internalType": "uint256",
          "name": "amount",
          "type": "uint256"
        }
      ],
      "name": "transferFrom",
      "outputs": [
        {
          "internalType": "bool",
          "name": "",
          "type": "bool"
        }
      ],
      "stateMutability": "nonpayable",
      "type": "function"
    },
    {
      "inputs": [
        {
          "internalType": "address",
          "name": "newOwner",
          "type": "address"
        }
      ],
      "name": "transferOwnership",
      "outputs": [],
      "stateMutability": "nonpayable",
      "type": "function"
    }
  ],
  "bytecode": "0x60806040523480156200001157600080fd5b50604051620025043803806200250483398101604081905262000034916200035b565b82828282828260008383838062000056816200014660201b620009971760201c565b50620000ad7feafec4d89fa9619884b60000a4d96624a38f7ac2d8d9a604ecf07c12c77e480c60001b604051806040016040528060048152602001632936598960e21b815250620001ad60201b62000a141760201c565b620000e77fdeba1e292f8ba88238e10ab3c7f88bd4be4fac56cad5194b6ecceaf653468af160001b84620001ad60201b62000a141760201c565b620001217f2f0a68ab07768e01943a599e73362a0e17a63a72e94dd2e384d2c1d4db93275660001b83620001ad60201b62000a141760201c565b50506002805460ff191692151592909217909155506200043b98505050505050505050565b6000546001600160a01b03828116911614620001aa57600080546001600160a01b038381166001600160a01b0319831681178455604051919092169283917f8be0079c531659141344cd1fd0a4f28419497f9722a3daafe3b4186f6b6457e09190a3505b50565b60008281526001602090815260409091208251620001ce92840190620001fe565b5060405182907fcdf4e344c0d23d4cdd0474039d176c55b19d531070dbe17856bfb993a5b5720b90600090a25050565b8280546200020c90620003e8565b90600052602060002090601f0160209004810192826200023057600085556200027b565b82601f106200024b57805160ff19168380011785556200027b565b828001600101855582156200027b579182015b828111156200027b5782518255916020019190600101906200025e565b50620002899291506200028d565b5090565b5b808211156200028957600081556001016200028e565b600082601f830112620002b657600080fd5b81516001600160401b0380821115620002d357620002d362000425565b604051601f8301601f19908116603f01168101908282118183101715620002fe57620002fe62000425565b816040528381526020925086838588010111156200031b57600080fd5b600091505b838210156200033f578582018301518183018401529082019062000320565b83821115620003515760008385830101525b9695505050505050565b6000806000606084860312156200037157600080fd5b83516001600160401b03808211156200038957600080fd5b6200039787838801620002a4565b94506020860151915080821115620003ae57600080fd5b50620003bd86828701620002a4565b604086015190935090506001600160a01b0381168114620003dd57600080fd5b809150509250925092565b600181811c90821680620003fd57607f821691505b602082108114156200041f57634e487b7160e01b600052602260045260246000fd5b50919050565b634e487b7160e01b600052604160045260246000fd5b6120b9806200044b6000396000f3fe608060405234801561001057600080fd5b50600436106101985760003560e01c8063715018a6116100e3578063a8a34e0a1161008c578063dd62ed3e11610066578063dd62ed3e1461034e578063f2fde38b14610361578063fad8b32a1461037457600080fd5b8063a8a34e0a14610315578063a9059cbb14610328578063d95b63711461033b57600080fd5b80638da5cb5b116100bd5780638da5cb5b146102df57806394d008ef146102fa57806395d89b411461030d57600080fd5b8063715018a6146102b1578063760d9bba146102b95780637f23690c146102cc57600080fd5b8063313ce567116101455780634e3e6e9c1161011f5780634e3e6e9c1461025557806354f6127f1461027557806370a082311461028857600080fd5b8063313ce5671461022757806344d171871461022f57806347980aa31461024257600080fd5b806314a6e2931161017657806314a6e293146101ed57806318160ddd1461020257806323b872dd1461021457600080fd5b806301ffc9a71461019d57806306fdde03146101c5578063095ea7b3146101da575b600080fd5b6101b06101ab366004611d1b565b610387565b60405190151581526020015b60405180910390f35b6101cd6103cb565b6040516101bc9190611ee5565b6101b06101e8366004611a67565b6103f8565b6102006101fb366004611c61565b61040d565b005b6003545b6040519081526020016101bc565b6101b06102223660046119b2565b6104e6565b61020661050f565b61020061023d366004611a91565b61052e565b610200610250366004611a67565b610575565b610268610263366004611c24565b610583565b6040516101bc9190611e6a565b6101cd610283366004611cc5565b610637565b610206610296366004611964565b6001600160a01b031660009081526004602052604090205490565b610200610642565b6102006102c73660046119ee565b610656565b6102006102da366004611cde565b6106fa565b6000546040516001600160a01b0390911681526020016101bc565b610200610308366004611a91565b61070c565b6101cd61074f565b610200610323366004611b18565b61077c565b6101b0610336366004611a67565b610862565b61020661034936600461197f565b610881565b61020661035c36600461197f565b6108e8565b61020061036f366004611964565b6108fb565b610200610382366004611964565b61098b565b60006001600160e01b031982167fe33f65c30000000000000000000000000000000000000000000000000000000014806103c557506103c582610a63565b92915050565b606060006103c57fdeba1e292f8ba88238e10ab3c7f88bd4be4fac56cad5194b6ecceaf653468af1610ab1565b60006104048383610575565b50600192915050565b610415610b53565b80518251146104915760405162461bcd60e51b815260206004820152602660248201527f4b657973206c656e677468206e6f7420657175616c20746f2076616c7565732060448201527f6c656e677468000000000000000000000000000000000000000000000000000060648201526084015b60405180910390fd5b60005b82518110156104e1576104d98382815181106104b2576104b2612057565b60200260200101518383815181106104cc576104cc612057565b6020026020010151610bbc565b600101610494565b505050565b6000610505848484600160405180602001604052806000815250610656565b5060019392505050565b60025460009060ff16610523576012610526565b60005b60ff16905090565b61056f848484848080601f016020809104026020016040519081016040528093929190818152602001838380828437600092019190915250610bc692505050565b50505050565b61057f8282610bd1565b5050565b6060815167ffffffffffffffff81111561059f5761059f61206d565b6040519080825280602002602001820160405280156105d257816020015b60608152602001906001900390816105bd5790505b50905060005b8251811015610631576106038382815181106105f6576105f6612057565b6020026020010151610ab1565b82828151811061061557610615612057565b602002602001018190525061062a8160010190565b90506105d8565b50919050565b60606103c582610ab1565b61064a610b53565b6106546000610997565b565b336001600160a01b03861681146106e5576001600160a01b03808716600090815260056020908152604080832093851683529290522054808511156106cf5760405163f3a6b69160e01b81526001600160a01b038089166004830152602482018390528316604482015260648101869052608401610488565b6106e387836106de8885611fae565b610c1f565b505b6106f28686868686610d37565b505050505050565b610702610b53565b61057f8282610bbc565b61056f8484600185858080601f016020809104026020016040519081016040528093929190818152602001838380828437600092019190915250610d4b92505050565b606060006103c57f2f0a68ab07768e01943a599e73362a0e17a63a72e94dd2e384d2c1d4db932756610ab1565b8351855114158061078f57508251855114155b8061079c57508051855114155b156107d3576040517f263eee8d00000000000000000000000000000000000000000000000000000000815260040160405180910390fd5b60005b85518110156106f2576108508682815181106107f4576107f4612057565b602002602001015186838151811061080e5761080e612057565b602002602001015186848151811061082857610828612057565b60200260200101518686868151811061084357610843612057565b6020026020010151610656565b8061085a81612026565b9150506107d6565b6000610404338484600160405180602001604052806000815250610656565b6000826001600160a01b0316826001600160a01b031614156108bc57506001600160a01b0381166000908152600460205260409020546103c5565b506001600160a01b038082166000908152600560209081526040808320938616835292905220546103c5565b60006108f48284610881565b9392505050565b610903610b53565b6001600160a01b03811661097f5760405162461bcd60e51b815260206004820152602660248201527f4f776e61626c653a206e6577206f776e657220697320746865207a65726f206160448201527f64647265737300000000000000000000000000000000000000000000000000006064820152608401610488565b61098881610997565b50565b61098833826000610c1f565b6000546001600160a01b0382811691161461098857600080546001600160a01b038381167fffffffffffffffffffffffff0000000000000000000000000000000000000000831681178455604051919092169283917f8be0079c531659141344cd1fd0a4f28419497f9722a3daafe3b4186f6b6457e09190a35050565b60008281526001602090815260409091208251610a33928401906116e3565b5060405182907fcdf4e344c0d23d4cdd0474039d176c55b19d531070dbe17856bfb993a5b5720b90600090a25050565b60006001600160e01b031982167f714df77c0000000000000000000000000000000000000000000000000000000014806103c557506301ffc9a760e01b6001600160e01b03198316146103c5565b6000818152600160205260409020805460609190610ace90611ff1565b80601f0160208091040260200160405190810160405280929190818152602001828054610afa90611ff1565b8015610b475780601f10610b1c57610100808354040283529160200191610b47565b820191906000526020600020905b815481529060010190602001808311610b2a57829003601f168201915b50505050509050919050565b33610b666000546001600160a01b031690565b6001600160a01b0316146106545760405162461bcd60e51b815260206004820181905260248201527f4f776e61626c653a2063616c6c6572206973206e6f7420746865206f776e65726044820152606401610488565b61057f8282610d57565b6104e1838383610e15565b610bdb8282610e66565b6040518181526001600160a01b0383169033907f8c5be1e5ebec7d5bd14f71427d1e84f3dd0314c0f7b2291e5b200ac8c7c3b9259060200160405180910390a35050565b6001600160a01b038216610c5f576040517f6355e76600000000000000000000000000000000000000000000000000000000815260040160405180910390fd5b826001600160a01b0316826001600160a01b03161415610c7e57505050565b6001600160a01b0380841660009081526005602090815260408083209386168352929052208190558015610cf25780836001600160a01b0316836001600160a01b03167fd66aff874162a96578e919097b6f6d153dfd89a5cec41bb331fdb0c4aec16e2c60405160405180910390a4505050565b826001600160a01b0316826001600160a01b03167f50546e66e5f44d728365dc3908c63bc5cfeeab470722c1677e3073a6ac294aa160405160405180910390a3505050565b610d448585858585610e71565b5050505050565b61056f84848484610ed2565b7fdeba1e292f8ba88238e10ab3c7f88bd4be4fac56cad5194b6ecceaf653468af1821415610db1576040517f85c169bd00000000000000000000000000000000000000000000000000000000815260040160405180910390fd5b7f2f0a68ab07768e01943a599e73362a0e17a63a72e94dd2e384d2c1d4db932756821415610e0b576040517f76755b3800000000000000000000000000000000000000000000000000000000815260040160405180910390fd5b61057f8282610a14565b610e20838383610f25565b6040518281526000906001600160a01b038516907fddf252ad1be2c89b69c2b068fc378daa952ba7f163c4a11628f55a4df523b3ef9060200160405180910390a3505050565b61057f338383610c1f565b610e7e85858585856110f9565b836001600160a01b0316856001600160a01b03167fddf252ad1be2c89b69c2b068fc378daa952ba7f163c4a11628f55a4df523b3ef85604051610ec391815260200190565b60405180910390a35050505050565b610ede8484848461126a565b6040518381526001600160a01b038516906000907fddf252ad1be2c89b69c2b068fc378daa952ba7f163c4a11628f55a4df523b3ef9060200160405180910390a350505050565b6001600160a01b038316610f4c57604051630d2d5ec360e41b815260040160405180910390fd5b6001600160a01b03831660009081526004602052604090205480831115610f9f576040516308d4794960e01b8152600481018290526001600160a01b038516602482015260448101849052606401610488565b336001600160a01b0385168114611056576001600160a01b03808616600090815260056020908152604080832093851683529290522054808511156110185760405163f3a6b69160e01b81526001600160a01b038088166004830152602482018390528316604482015260648101869052608401610488565b6001600160a01b0380871660009081526005602090815260408083209386168352929052908120805487929061104f908490611fae565b9091555050505b61106285600086611335565b6001600160a01b0385166000908152600460205260408120805486929061108a908490611fae565b9250508190555060006001600160a01b0316856001600160a01b0316826001600160a01b03167f3997e418d2cef0b3b0e907b1e39605c3f7d32dbd061e82ea5b4a770d46a160a6876000886040516110e493929190611ef8565b60405180910390a4610d448560008686611385565b6001600160a01b038516158061111657506001600160a01b038416155b1561113457604051630d2d5ec360e41b815260040160405180910390fd5b6001600160a01b03851660009081526004602052604090205480841115611187576040516308d4794960e01b8152600481018290526001600160a01b038716602482015260448101859052606401610488565b33611193878787611335565b6001600160a01b038716600090815260046020526040812080548792906111bb908490611fae565b90915550506001600160a01b038616600090815260046020526040812080548792906111e8908490611f96565b92505081905550856001600160a01b0316876001600160a01b0316826001600160a01b03167f3997e418d2cef0b3b0e907b1e39605c3f7d32dbd061e82ea5b4a770d46a160a688888860405161124093929190611ef8565b60405180910390a461125487878786611385565b6112618787878787611468565b50505050505050565b6001600160a01b03841661129157604051630d2d5ec360e41b815260040160405180910390fd5b3361129e60008686611335565b6001600160a01b038516600090815260046020526040812080548692906112c6908490611f96565b92505081905550846001600160a01b031660006001600160a01b0316826001600160a01b03167f3997e418d2cef0b3b0e907b1e39605c3f7d32dbd061e82ea5b4a770d46a160a687878760405161131f93929190611ef8565b60405180910390a4610d44600086868686611468565b6001600160a01b03831661135b5780600360008282546113559190611f96565b90915550505b6001600160a01b0382166104e157806003600082825461137b9190611fae565b9091555050505050565b61139684631aed5a8560e21b6115e1565b1561056f576000848484846040516020016113b49493929190611e01565b60408051601f1981840301815290829052631aed5a8560e21b825291506001600160a01b03861690636bb56a1490611412907f40b8bec57d7b5ff0dbd9e9acd0a47dfeb0101e1a203766f5ccab00445fbf39e9908590600401611ecc565b600060405180830381600087803b15801561142c57600080fd5b505af1158015611440573d6000803e3d6000fd5b505050506040513d6000823e601f3d908101601f191682016040526106f29190810190611d45565b61147984631aed5a8560e21b6115e1565b15611552576000858585846040516020016114979493929190611e01565b60408051601f1981840301815290829052631aed5a8560e21b825291506001600160a01b03861690636bb56a14906114f5907fdbe2c314e1aee2970c72666f2ebe8933a8575263ea71e5ff6a9178e95d47a26f908590600401611ecc565b600060405180830381600087803b15801561150f57600080fd5b505af1158015611523573d6000803e3d6000fd5b505050506040513d6000823e601f3d908101601f1916820160405261154b9190810190611d45565b5050610d44565b81610d44576001600160a01b0384163b156115a4576040517fa608fbb60000000000000000000000000000000000000000000000000000000081526001600160a01b0385166004820152602401610488565b6040517f26c247f40000000000000000000000000000000000000000000000000000000081526001600160a01b0385166004820152602401610488565b604080516001600160e01b0319831660248083019190915282518083039091018152604490910182526020810180517bffffffffffffffffffffffffffffffffffffffffffffffffffffffff166301ffc9a760e01b179052905160009190829081906001600160a01b038716906175309061165d908690611e4e565b6000604051808303818686fa925050503d8060008114611699576040519150601f19603f3d011682016040523d82523d6000602084013e61169e565b606091505b50915091506020815110156116b957600093505050506103c5565b8180156116d957506000818060200190518101906116d79190611dbc565b115b9695505050505050565b8280546116ef90611ff1565b90600052602060002090601f0160209004810192826117115760008555611757565b82601f1061172a57805160ff1916838001178555611757565b82800160010185558215611757579182015b8281111561175757825182559160200191906001019061173c565b50611763929150611767565b5090565b5b808211156117635760008155600101611768565b80356001600160a01b038116811461179357600080fd5b919050565b600082601f8301126117a957600080fd5b813560206117be6117b983611f4a565b611f19565b80838252828201915082860187848660051b89010111156117de57600080fd5b60005b85811015611804576117f28261177c565b845292840192908401906001016117e1565b5090979650505050505050565b600082601f83011261182257600080fd5b813560206118326117b983611f4a565b80838252828201915082860187848660051b890101111561185257600080fd5b60005b8581101561180457813584529284019290840190600101611855565b600082601f83011261188257600080fd5b813560206118926117b983611f4a565b80838252828201915082860187848660051b89010111156118b257600080fd5b6000805b868110156118f557823567ffffffffffffffff8111156118d4578283fd5b6118e28b88838d0101611913565b86525093850193918501916001016118b6565b509198975050505050505050565b8035801515811461179357600080fd5b600082601f83011261192457600080fd5b81356119326117b982611f6e565b81815284602083860101111561194757600080fd5b816020850160208301376000918101602001919091529392505050565b60006020828403121561197657600080fd5b6108f48261177c565b6000806040838503121561199257600080fd5b61199b8361177c565b91506119a96020840161177c565b90509250929050565b6000806000606084860312156119c757600080fd5b6119d08461177c565b92506119de6020850161177c565b9150604084013590509250925092565b600080600080600060a08688031215611a0657600080fd5b611a0f8661177c565b9450611a1d6020870161177c565b935060408601359250611a3260608701611903565b9150608086013567ffffffffffffffff811115611a4e57600080fd5b611a5a88828901611913565b9150509295509295909350565b60008060408385031215611a7a57600080fd5b611a838361177c565b946020939093013593505050565b60008060008060608587031215611aa757600080fd5b611ab08561177c565b935060208501359250604085013567ffffffffffffffff80821115611ad457600080fd5b818701915087601f830112611ae857600080fd5b813581811115611af757600080fd5b886020828501011115611b0957600080fd5b95989497505060200194505050565b600080600080600060a08688031215611b3057600080fd5b853567ffffffffffffffff80821115611b4857600080fd5b611b5489838a01611798565b9650602091508188013581811115611b6b57600080fd5b611b778a828b01611798565b965050604088013581811115611b8c57600080fd5b8801601f81018a13611b9d57600080fd5b8035611bab6117b982611f4a565b8082825285820191508584018d878560051b8701011115611bcb57600080fd5b600094505b83851015611bee578035835260019490940193918601918601611bd0565b509750611c019250505060608901611903565b93506080880135915080821115611c1757600080fd5b50611a5a88828901611871565b600060208284031215611c3657600080fd5b813567ffffffffffffffff811115611c4d57600080fd5b611c5984828501611811565b949350505050565b60008060408385031215611c7457600080fd5b823567ffffffffffffffff80821115611c8c57600080fd5b611c9886838701611811565b93506020850135915080821115611cae57600080fd5b50611cbb85828601611871565b9150509250929050565b600060208284031215611cd757600080fd5b5035919050565b60008060408385031215611cf157600080fd5b82359150602083013567ffffffffffffffff811115611d0f57600080fd5b611cbb85828601611913565b600060208284031215611d2d57600080fd5b81356001600160e01b0319811681146108f457600080fd5b600060208284031215611d5757600080fd5b815167ffffffffffffffff811115611d6e57600080fd5b8201601f81018413611d7f57600080fd5b8051611d8d6117b982611f6e565b818152856020838501011115611da257600080fd5b611db3826020830160208601611fc5565b95945050505050565b600060208284031215611dce57600080fd5b5051919050565b60008151808452611ded816020860160208601611fc5565b601f01601f19169290920160200192915050565b60006bffffffffffffffffffffffff19808760601b168352808660601b166014840152508360288301528251611e3e816048850160208701611fc5565b9190910160480195945050505050565b60008251611e60818460208701611fc5565b9190910192915050565b6000602080830181845280855180835260408601915060408160051b870101925083870160005b82811015611ebf57603f19888603018452611ead858351611dd5565b94509285019290850190600101611e91565b5092979650505050505050565b828152604060208201526000611c596040830184611dd5565b6020815260006108f46020830184611dd5565b8381528215156020820152606060408201526000611db36060830184611dd5565b604051601f8201601f1916810167ffffffffffffffff81118282101715611f4257611f4261206d565b604052919050565b600067ffffffffffffffff821115611f6457611f6461206d565b5060051b60200190565b600067ffffffffffffffff821115611f8857611f8861206d565b50601f01601f191660200190565b60008219821115611fa957611fa9612041565b500190565b600082821015611fc057611fc0612041565b500390565b60005b83811015611fe0578181015183820152602001611fc8565b8381111561056f5750506000910152565b600181811c9082168061200557607f821691505b6020821081141561063157634e487b7160e01b600052602260045260246000fd5b600060001982141561203a5761203a612041565b5060010190565b634e487b7160e01b600052601160045260246000fd5b634e487b7160e01b600052603260045260246000fd5b634e487b7160e01b600052604160045260246000fdfea2646970667358221220049f0896d26b8f94703a784abecebb47d83616dec9dfe5caa4efe455db97e78f64736f6c63430008070033",
  "linkReferences": {},
  "deployedLinkReferences": {}
}