{
  "_format": "hh-sol-artifact-1",
  "contractName": "TargetContract",
  "sourceName": "contracts/Helpers/TargetContract.sol",
  "abi": [
    {
      "inputs": [],
      "name": "getName",
      "outputs": [
        {
          "internalType": "string",
          "name": "",
          "type": "string"
        }
      ],
      "stateMutability": "view",
      "type": "function"
    },
    {
      "inputs": [],
      "name": "getNumber",
      "outputs": [
        {
          "internalType": "uint256",
          "name": "",
          "type": "uint256"
        }
      ],
      "stateMutability": "view",
      "type": "function"
    },
    {
      "inputs": [],
      "name": "revertCall",
      "outputs": [],
      "stateMutability": "pure",
      "type": "function"
    },
    {
      "inputs": [
        {
          "internalType": "string",
          "name": "_name",
          "type": "string"
        }
      ],
      "name": "setName",
      "outputs": [],
      "stateMutability": "nonpayable",
      "type": "function"
    },
    {
      "inputs": [
        {
          "internalType": "uint256",
          "name": "_newNumber",
          "type": "uint256"
        }
      ],
      "name": "setNumber",
      "outputs": [],
      "stateMutability": "nonpayable",
      "type": "function"
    }
  ],
  "bytecode": "0x600560005560c0604052601460808190527f53696d706c6520436f6e7472616374204e616d6500000000000000000000000060a09081526100439160019190610056565b5034801561005057600080fd5b5061012a565b828054610062906100ef565b90600052602060002090601f01602090048101928261008457600085556100ca565b82601f1061009d57805160ff19168380011785556100ca565b828001600101855582156100ca579182015b828111156100ca5782518255916020019190600101906100af565b506100d69291506100da565b5090565b5b808211156100d657600081556001016100db565b600181811c9082168061010357607f821691505b6020821081141561012457634e487b7160e01b600052602260045260246000fd5b50919050565b61043f806101396000396000f3fe608060405234801561001057600080fd5b50600436106100675760003560e01c8063c47f002711610050578063c47f00271461009f578063f2c9ecd8146100b2578063f38fb65b146100c357600080fd5b806317d7de7c1461006c5780633fb5c1cb1461008a575b600080fd5b6100746100cb565b6040516100819190610363565b60405180910390f35b61009d61009836600461034a565b600055565b005b61009d6100ad366004610299565b61015d565b600054604051908152602001610081565b61009d610174565b6060600180546100da906103b8565b80601f0160208091040260200160405190810160405280929190818152602001828054610106906103b8565b80156101535780601f1061012857610100808354040283529160200191610153565b820191906000526020600020905b81548152906001019060200180831161013657829003601f168201915b5050505050905090565b8051610170906001906020840190610200565b5050565b6040517f08c379a000000000000000000000000000000000000000000000000000000000815260206004820152603660248201527f546172676574436f6e74726163743a72657665727443616c6c3a20746869732060448201527f66756e6374696f6e206861732072657665727465642100000000000000000000606482015260840160405180910390fd5b82805461020c906103b8565b90600052602060002090601f01602090048101928261022e5760008555610274565b82601f1061024757805160ff1916838001178555610274565b82800160010185558215610274579182015b82811115610274578251825591602001919060010190610259565b50610280929150610284565b5090565b5b808211156102805760008155600101610285565b6000602082840312156102ab57600080fd5b813567ffffffffffffffff808211156102c357600080fd5b818401915084601f8301126102d757600080fd5b8135818111156102e9576102e96103f3565b604051601f8201601f19908116603f01168101908382118183101715610311576103116103f3565b8160405282815287602084870101111561032a57600080fd5b826020860160208301376000928101602001929092525095945050505050565b60006020828403121561035c57600080fd5b5035919050565b600060208083528351808285015260005b8181101561039057858101830151858201604001528201610374565b818111156103a2576000604083870101525b50601f01601f1916929092016040019392505050565b600181811c908216806103cc57607f821691505b602082108114156103ed57634e487b7160e01b600052602260045260246000fd5b50919050565b634e487b7160e01b600052604160045260246000fdfea26469706673582212206393061d9c39c4494edbbd827aa14d66e5e313deb9d7024212d2ceadf0d9583364736f6c63430008070033",
  "linkReferences": {},
  "deployedLinkReferences": {}
}