{
  "_format": "hh-sol-artifact-1",
  "contractName": "KeyManagerInternalTester",
  "sourceName": "contracts/Helpers/KeyManager/KeyManagerInternalsTester.sol",
  "abi": [
    {
      "inputs": [
        {
          "internalType": "address",
          "name": "_account",
          "type": "address"
        }
      ],
      "stateMutability": "nonpayable",
      "type": "constructor"
    },
    {
      "inputs": [
        {
          "internalType": "bytes",
          "name": "value",
          "type": "bytes"
        },
        {
          "internalType": "string",
          "name": "valueType",
          "type": "string"
        }
      ],
      "name": "InvalidABIEncodedArray",
      "type": "error"
    },
    {
      "inputs": [
        {
          "internalType": "bytes4",
          "name": "invalidFunction",
          "type": "bytes4"
        }
      ],
      "name": "InvalidERC725Function",
      "type": "error"
    },
    {
      "inputs": [],
      "name": "InvalidLSP6Target",
      "type": "error"
    },
    {
      "inputs": [
        {
          "internalType": "address",
          "name": "signer",
          "type": "address"
        },
        {
          "internalType": "uint256",
          "name": "invalidNonce",
          "type": "uint256"
        },
        {
          "internalType": "bytes",
          "name": "signature",
          "type": "bytes"
        }
      ],
      "name": "InvalidRelayNonce",
      "type": "error"
    },
    {
      "inputs": [
        {
          "internalType": "address",
          "name": "from",
          "type": "address"
        }
      ],
      "name": "NoPermissionsSet",
      "type": "error"
    },
    {
      "inputs": [
        {
          "internalType": "address",
          "name": "from",
          "type": "address"
        },
        {
          "internalType": "address",
          "name": "disallowedAddress",
          "type": "address"
        }
      ],
      "name": "NotAllowedAddress",
      "type": "error"
    },
    {
      "inputs": [
        {
          "internalType": "address",
          "name": "from",
          "type": "address"
        },
        {
          "internalType": "bytes32",
          "name": "disallowedKey",
          "type": "bytes32"
        }
      ],
      "name": "NotAllowedERC725YKey",
      "type": "error"
    },
    {
      "inputs": [
        {
          "internalType": "address",
          "name": "from",
          "type": "address"
        },
        {
          "internalType": "bytes4",
          "name": "disallowedFunction",
          "type": "bytes4"
        }
      ],
      "name": "NotAllowedFunction",
      "type": "error"
    },
    {
      "inputs": [
        {
          "internalType": "address",
          "name": "from",
          "type": "address"
        },
        {
          "internalType": "address",
          "name": "addressNotImplementingAllowedStandard",
          "type": "address"
        }
      ],
      "name": "NotAllowedStandard",
      "type": "error"
    },
    {
      "inputs": [
        {
          "internalType": "address",
          "name": "from",
          "type": "address"
        },
        {
          "internalType": "string",
          "name": "permission",
          "type": "string"
        }
      ],
      "name": "NotAuthorised",
      "type": "error"
    },
    {
      "anonymous": false,
      "inputs": [
        {
          "indexed": true,
          "internalType": "uint256",
          "name": "value",
          "type": "uint256"
        },
        {
          "indexed": false,
          "internalType": "bytes4",
          "name": "selector",
          "type": "bytes4"
        }
      ],
      "name": "Executed",
      "type": "event"
    },
    {
      "inputs": [
        {
          "internalType": "bytes32",
          "name": "_key",
          "type": "bytes32"
        }
      ],
      "name": "countTrailingZeroBytes",
      "outputs": [
        {
          "internalType": "uint256",
          "name": "zeroBytesCount_",
          "type": "uint256"
        }
      ],
      "stateMutability": "pure",
      "type": "function"
    },
    {
      "inputs": [
        {
          "internalType": "bytes",
          "name": "payload",
          "type": "bytes"
        }
      ],
      "name": "execute",
      "outputs": [
        {
          "internalType": "bytes",
          "name": "",
          "type": "bytes"
        }
      ],
      "stateMutability": "payable",
      "type": "function"
    },
    {
      "inputs": [
        {
          "internalType": "bytes",
          "name": "signature",
          "type": "bytes"
        },
        {
          "internalType": "uint256",
          "name": "nonce",
          "type": "uint256"
        },
        {
          "internalType": "bytes",
          "name": "payload",
          "type": "bytes"
        }
      ],
      "name": "executeRelayCall",
      "outputs": [
        {
          "internalType": "bytes",
          "name": "",
          "type": "bytes"
        }
      ],
      "stateMutability": "payable",
      "type": "function"
    },
    {
      "inputs": [
        {
          "internalType": "address",
          "name": "_address",
          "type": "address"
        }
      ],
      "name": "getAllowedAddressesFor",
      "outputs": [
        {
          "internalType": "bytes",
          "name": "",
          "type": "bytes"
        }
      ],
      "stateMutability": "view",
      "type": "function"
    },
    {
      "inputs": [
        {
          "internalType": "address",
          "name": "_address",
          "type": "address"
        }
      ],
      "name": "getAllowedERC725YKeysFor",
      "outputs": [
        {
          "internalType": "bytes",
          "name": "",
          "type": "bytes"
        }
      ],
      "stateMutability": "view",
      "type": "function"
    },
    {
      "inputs": [
        {
          "internalType": "address",
          "name": "_address",
          "type": "address"
        }
      ],
      "name": "getAllowedFunctionsFor",
      "outputs": [
        {
          "internalType": "bytes",
          "name": "",
          "type": "bytes"
        }
      ],
      "stateMutability": "view",
      "type": "function"
    },
    {
      "inputs": [
        {
          "internalType": "address",
          "name": "from",
          "type": "address"
        },
        {
          "internalType": "uint256",
          "name": "channelId",
          "type": "uint256"
        }
      ],
      "name": "getNonce",
      "outputs": [
        {
          "internalType": "uint256",
          "name": "",
          "type": "uint256"
        }
      ],
      "stateMutability": "view",
      "type": "function"
    },
    {
      "inputs": [
        {
          "internalType": "address",
          "name": "_address",
          "type": "address"
        }
      ],
      "name": "getPermissionsFor",
      "outputs": [
        {
          "internalType": "bytes32",
          "name": "",
          "type": "bytes32"
        }
      ],
      "stateMutability": "view",
      "type": "function"
    },
    {
      "inputs": [
        {
          "internalType": "bytes32",
          "name": "_addressPermission",
          "type": "bytes32"
        },
        {
          "internalType": "bytes32",
          "name": "_permissions",
          "type": "bytes32"
        }
      ],
      "name": "hasPermission",
      "outputs": [
        {
          "internalType": "bool",
          "name": "",
          "type": "bool"
        }
      ],
      "stateMutability": "pure",
      "type": "function"
    },
    {
      "inputs": [
        {
          "internalType": "bytes32",
          "name": "dataHash",
          "type": "bytes32"
        },
        {
          "internalType": "bytes",
          "name": "signature",
          "type": "bytes"
        }
      ],
      "name": "isValidSignature",
      "outputs": [
        {
          "internalType": "bytes4",
          "name": "magicValue",
          "type": "bytes4"
        }
      ],
      "stateMutability": "view",
      "type": "function"
    },
    {
      "inputs": [
        {
          "internalType": "bytes4",
          "name": "interfaceId",
          "type": "bytes4"
        }
      ],
      "name": "supportsInterface",
      "outputs": [
        {
          "internalType": "bool",
          "name": "",
          "type": "bool"
        }
      ],
      "stateMutability": "view",
      "type": "function"
    },
    {
      "inputs": [],
      "name": "target",
      "outputs": [
        {
          "internalType": "address",
          "name": "",
          "type": "address"
        }
      ],
      "stateMutability": "view",
      "type": "function"
    },
    {
      "inputs": [
        {
          "internalType": "address",
          "name": "_sender",
          "type": "address"
        },
        {
          "internalType": "address",
          "name": "_recipient",
          "type": "address"
        }
      ],
      "name": "verifyAllowedAddress",
      "outputs": [],
      "stateMutability": "view",
      "type": "function"
    },
    {
      "inputs": [
        {
          "internalType": "address",
          "name": "_from",
          "type": "address"
        },
        {
          "internalType": "bytes32[]",
          "name": "_inputKeys",
          "type": "bytes32[]"
        }
      ],
      "name": "verifyAllowedERC725YKeys",
      "outputs": [],
      "stateMutability": "view",
      "type": "function"
    },
    {
      "inputs": [
        {
          "internalType": "address",
          "name": "_sender",
          "type": "address"
        },
        {
          "internalType": "bytes4",
          "name": "_function",
          "type": "bytes4"
        }
      ],
      "name": "verifyAllowedFunction",
      "outputs": [],
      "stateMutability": "view",
      "type": "function"
    }
  ],
  "bytecode": "0x60806040523480156200001157600080fd5b50604051620031b7380380620031b7833981016040819052620000349162000084565b806001600160a01b0381166200005d5760405163fc85457960e01b815260040160405180910390fd5b600080546001600160a01b0319166001600160a01b039290921691909117905550620000b6565b6000602082840312156200009757600080fd5b81516001600160a01b0381168114620000af57600080fd5b9392505050565b6130f180620000c66000396000f3fe6080604052600436106100e85760003560e01c80635c95d8d61161008a5780639c42249b116100595780639c42249b146102bb578063c0d76ff5146102db578063d4b83992146102fb578063d7b7123d1461033357600080fd5b80635c95d8d6146101fd5780637b9183581461021d578063895358031461023d578063902d5fa0146102a857600080fd5b80631e25ad95116100c65780631e25ad951461017b578063297702211461019b5780634bb88bb1146101bb57806350c1cf6e146101dd57600080fd5b806301ffc9a7146100ed57806309c5eabe146101225780631626ba7e14610142575b600080fd5b3480156100f957600080fd5b5061010d610108366004612a95565b610353565b60405190151581526020015b60405180910390f35b610135610130366004612ab2565b6103be565b6040516101199190612cd0565b34801561014e57600080fd5b5061016261015d366004612a58565b6104ce565b6040516001600160e01b03199091168152602001610119565b34801561018757600080fd5b5061010d610196366004612a36565b610525565b3480156101a757600080fd5b506101356101b6366004612680565b610534565b3480156101c757600080fd5b506101db6101d636600461269d565b61054d565b005b3480156101e957600080fd5b506101356101f8366004612680565b61055b565b34801561020957600080fd5b506101db6102183660046126d6565b610574565b34801561022957600080fd5b50610135610238366004612680565b61057e565b34801561024957600080fd5b5061029a610258366004612754565b6001600160a01b039190911660009081526001602090815260408083208484529091529020546fffffffffffffffffffffffffffffffff1660809190911b1790565b604051908152602001610119565b6101356102b6366004612b6b565b610597565b3480156102c757600080fd5b506101db6102d6366004612726565b6107ca565b3480156102e757600080fd5b5061029a6102f6366004612a1d565b6107d4565b34801561030757600080fd5b5060005461031b906001600160a01b031681565b6040516001600160a01b039091168152602001610119565b34801561033f57600080fd5b5061029a61034e366004612680565b6107df565b60006001600160e01b031982167fc403d48f00000000000000000000000000000000000000000000000000000000148061039d57506001600160e01b03198216630b135d3f60e11b145b806103b857506301ffc9a760e01b6001600160e01b03198316145b92915050565b60606103cb3384846107f6565b6000805481906001600160a01b0316345a9087876040516103ed929190612c20565b600060405180830381858888f193505050503d806000811461042b576040519150601f19603f3d011682016040523d82523d6000602084013e610430565b606091505b5091509150600061045a838360405180608001604052806042815260200161307a60429139610bec565b9050347f6b9340454526f665e369d7ac17353d0b73774a4a80f746b959ece8130e0f1d726104888789612f21565b6040516001600160e01b0319909116815260200160405180910390a280516104b057806104c4565b808060200190518101906104c49190612af4565b9695505050505050565b6000806104db8484610c25565b60005490915061050290610200906104fc906001600160a01b031684610c49565b81161490565b610514576001600160e01b031961051d565b630b135d3f60e11b5b949350505050565b600081831682145b9392505050565b6000546060906103b8906001600160a01b031683610cf3565b6105578282610d8f565b5050565b6000546060906103b8906001600160a01b031683610e7e565b6105578282610ea8565b6000546060906103b8906001600160a01b0316836110a6565b6060600046308686866040516020016105b4959493929190612c4c565b6040516020818303038152906040529050600061062f8761062984805190602001206040517f19457468657265756d205369676e6564204d6573736167653a0a3332000000006020820152603c8101829052600090605c01604051602081830303815290604052805190602001209050919050565b90610c25565b905061063b81876110d0565b610680578086886040517fc9bd9eb900000000000000000000000000000000000000000000000000000000815260040161067793929190612ca8565b60405180910390fd5b6001600160a01b038116600090815260016020908152604080832060808a901c845290915281208054916106b383612fb9565b91905055506106c38186866107f6565b6000805481906001600160a01b0316345a9089896040516106e5929190612c20565b600060405180830381858888f193505050503d8060008114610723576040519150601f19603f3d011682016040523d82523d6000602084013e610728565b606091505b50915091506000610752838360405180608001604052806042815260200161307a60429139610bec565b9050347f6b9340454526f665e369d7ac17353d0b73774a4a80f746b959ece8130e0f1d72610780898b612f21565b6040516001600160e01b0319909116815260200160405180910390a280516107a857806107bc565b808060200190518101906107bc9190612af4565b9a9950505050505050505050565b610557828261111b565b60006103b882611214565b600080546103b8906001600160a01b031683610c49565b60006108056004828486612e56565b61080e91612f21565b6000805491925090610829906001600160a01b031686610c49565b90508061086d576040517ff292052a0000000000000000000000000000000000000000000000000000000081526001600160a01b0386166004820152602401610677565b6001600160e01b031982167f7f23690c00000000000000000000000000000000000000000000000000000000141561098b576000806108af8560048189612e56565b8101906108bc9190612a58565b90925090507fffffffffffff00000000000000000000000000000000000000000000000000008216654b80742de2bf60d01b148061091f57506fffffffffffffffffffffffffffffffff1982166f6f986dd036db5187329aa6cd326304c360811b145b15610935576109308282898661128a565b610984565b60408051600180825281830190925260009160208083019080368337019050509050828160008151811061096b5761096b613022565b6020026020010181815250506109828885836115b5565b505b5050610be5565b6001600160e01b031982167f14a6e293000000000000000000000000000000000000000000000000000000001415610aec576000806109cd8560048189612e56565b8101906109da91906128ad565b915091506000805b8351811015610ada5760008482815181106109ff576109ff613022565b602002602001015190506000848381518110610a1d57610a1d613022565b602090810291909101015190507fffffffffffff00000000000000000000000000000000000000000000000000008216654b80742de2bf60d01b1480610a8857506fffffffffffffffffffffffffffffffff1982166f6f986dd036db5187329aa6cd326304c360811b145b15610ac057610a9982828d8a61128a565b6000801b868481518110610aaf57610aaf613022565b602002602001018181525050610ac5565b600193505b50508080610ad290612fb9565b9150506109e2565b508015610982576109828885856115b5565b6001600160e01b031982167f44c028fe000000000000000000000000000000000000000000000000000000001415610b2f57610b2a858286866115e2565b610be5565b6001600160e01b031982167ff2fde38b000000000000000000000000000000000000000000000000000000001480610b9057506001600160e01b031982167f4e71e0c800000000000000000000000000000000000000000000000000000000145b15610ba757610ba185826001611872565b50610be5565b6040517f2ba8851c0000000000000000000000000000000000000000000000000000000081526001600160e01b031983166004820152602401610677565b5050505050565b60608315610bfb57508161052d565b825115610c0b5782518084602001fd5b8160405162461bcd60e51b81526004016106779190612cd0565b6000806000610c3485856118c0565b91509150610c4181611930565b509392505050565b6000806001600160a01b0384166354f6127f610c76694b80742de2bf82acb36360b01b606087901b611aee565b6040518263ffffffff1660e01b8152600401610c9491815260200190565b60006040518083038186803b158015610cac57600080fd5b505afa158015610cc0573d6000803e3d6000fd5b505050506040513d6000823e601f3d908101601f19168201604052610ce89190810190612af4565b905061051d81612f4f565b60606001600160a01b0383166354f6127f610d1d694b80742de2bf90b8b48560b01b85851b611aee565b6040518263ffffffff1660e01b8152600401610d3b91815260200190565b60006040518083038186803b158015610d5357600080fd5b505afa158015610d67573d6000803e3d6000fd5b505050506040513d6000823e601f3d908101601f1916820160405261052d9190810190612af4565b60008054610da6906001600160a01b031684610e7e565b9050805160001480610dbe5750610dbc81611b38565b155b15610dc857505050565b600081806020019051810190610dde9190612780565b905060005b8151811015610e3857818181518110610dfe57610dfe613022565b60200260200101516001600160a01b0316846001600160a01b03161415610e26575050505050565b80610e3081612fb9565b915050610de3565b506040517f2879b1280000000000000000000000000000000000000000000000000000000081526001600160a01b03808616600483015284166024820152604401610677565b60606001600160a01b0383166354f6127f610d1d6912e01d0b78aff1b75acf60b21b85851b611aee565b60008054610ebf906001600160a01b031684610cf3565b9050805160001480610ed75750610ed581611bdc565b155b15610ee157505050565b600081806020019051810190610ef79190612821565b905060008060005b8351811015610ffa57610f2a848281518110610f1d57610f1d613022565b6020026020010151611214565b925060005b8651811015610fe7576000801b878281518110610f4e57610f4e613022565b60200260200101511415610f6157610fd5565b610f6c846008612e98565b60001960001b901b925082878281518110610f8957610f89613022565b602002602001015116858381518110610fa457610fa4613022565b60200260200101511415610fd5576000801b878281518110610fc857610fc8613022565b6020026020010181815250505b80610fdf81612fb9565b915050610f2f565b5080610ff281612fb9565b915050610eff565b5060005b855181101561109d576000801b86828151811061101d5761101d613022565b60200260200101511461108b578686828151811061103d5761103d613022565b60209081029190910101516040517f3003e7ae0000000000000000000000000000000000000000000000000000000081526001600160a01b0390921660048301526024820152604401610677565b8061109581612fb9565b915050610ffe565b50505050505050565b60606001600160a01b0383166354f6127f610d1d6909700e85bc57f1dfd43d60b31b85851b611aee565b6001600160a01b0382166000908152600160209081526040808320608085901c845290915281205461111370010000000000000000000000000000000084612fd4565b149392505050565b60008054611132906001600160a01b0316846110a6565b905080516000148061114a575061114881611c5d565b155b1561115457505050565b60008180602001905181019061116a9190612988565b905060005b81518110156111c65781818151811061118a5761118a613022565b60200260200101516001600160e01b031916846001600160e01b03191614156111b4575050505050565b806111be81612fb9565b91505061116f565b506040517f841351100000000000000000000000000000000000000000000000000000000081526001600160a01b03851660048201526001600160e01b031984166024820152604401610677565b6000601f5b82816020811061122b5761122b613022565b1a60f81b7fff000000000000000000000000000000000000000000000000000000000000001615801561125d57508015155b15611274578061126c81612fa2565b915050611219565b61127f816001612e80565b61052d906020612eb7565b6001600160a01b03198416694b80742de2bf82acb36360b01b14156112b9576112b4848383611cf4565b6115af565b7fdf30dba06db6a30e65354d9a64c609861f089545ca58c6b4dbe31a5f338cb0e38414156112ed576112b484848484611d9c565b6fffffffffffffffffffffffffffffffff1984166f6f986dd036db5187329aa6cd326304c360811b141561132d5761132782826002611872565b506115af565b6001600160a01b031984166912e01d0b78aff1b75acf60b21b141561143657825115801581611362575061136084611b38565b155b156113825783604051635b0a748f60e11b81526004016106779190612ce3565b600080546040516354f6127f60e01b8152600481018890526001600160a01b03909116906354f6127f9060240160006040518083038186803b1580156113c757600080fd5b505afa1580156113db573d6000803e3d6000fd5b505050506040513d6000823e601f3d908101601f191682016040526114039190810190612af4565b90508051600014156114215761141b84846004611872565b5061142f565b61142d84846002611872565b505b50506115af565b6001600160a01b03198416694b80742de2bf3efa94a360b01b148061147157506001600160a01b031984166909700e85bc57f1dfd43d60b31b145b156114ac5782511580158161148c575061148a84611c5d565b155b156113825783604051635b0a748f60e11b81526004016106779190612d35565b6001600160a01b03198416694b80742de2bf90b8b48560b01b14156115af578251158015816114e157506114df84611bdc565b155b156115015783604051635b0a748f60e11b81526004016106779190612d87565b600080546040516354f6127f60e01b8152600481018890526001600160a01b03909116906354f6127f9060240160006040518083038186803b15801561154657600080fd5b505afa15801561155a573d6000803e3d6000fd5b505050506040513d6000823e601f3d908101601f191682016040526115829190810190612af4565b90508051600014156115a05761159a84846004611872565b506115ac565b61109d84846002611872565b50505b50505050565b61040080831614156115c657505050565b6115d283836008611872565b506115dd8382610ea8565b505050565b60006115f2602460048486612e56565b6115fb91612f03565b9050600581106116735760405162461bcd60e51b815260206004820152602660248201527f4c5350364b65794d616e616765723a20696e76616c6964206f7065726174696f60448201527f6e207479706500000000000000000000000000000000000000000000000000006064820152608401610677565b60048114156116ea5760405162461bcd60e51b815260206004820152603e60248201527f4c5350364b65794d616e616765723a206f7065726174696f6e2044454c45474160448201527f544543414c4c2069732063757272656e746c7920646973616c6c6f77656400006064820152608401610677565b60006116fa606460448587612e56565b61170391612f03565b9050600060018314806117165750600283145b905060a4841160008261173b5761173661172f86611e49565b8981161490565b61173e565b60005b905081156117625780806117605750611760898961175b88611e82565b611872565b505b61080088811614841561178557808061178357506117838a8a610100611872565b505b8315611796575050505050506115af565b8180156117a05750825b80156117aa575084155b156117ba575050505050506115af565b8080156117c5575082155b80156117d15750600085115b156117e1575050505050506115af565b8180156117eb5750805b156117fb575050505050506115af565b600061180b604460308a8c612e56565b61181491612ece565b60601c90506118238b82610d8f565b6001600160a01b0381163b156118655761183d8b82611ed5565b60a88810611865576118658b61185760a860a48c8e612e56565b61186091612f21565b61111b565b5050505050505050505050565b6000818316821461052d57600061188883611fcb565b905084816040517f3bdad6e6000000000000000000000000000000000000000000000000000000008152600401610677929190612c86565b6000808251604114156118f75760208301516040840151606085015160001a6118eb87828585612263565b94509450505050611929565b8251604014156119215760208301516040840151611916868383612350565b935093505050611929565b506000905060025b9250929050565b60008160048111156119445761194461300c565b141561194d5750565b60018160048111156119615761196161300c565b14156119af5760405162461bcd60e51b815260206004820152601860248201527f45434453413a20696e76616c6964207369676e617475726500000000000000006044820152606401610677565b60028160048111156119c3576119c361300c565b1415611a115760405162461bcd60e51b815260206004820152601f60248201527f45434453413a20696e76616c6964207369676e6174757265206c656e677468006044820152606401610677565b6003816004811115611a2557611a2561300c565b1415611a7e5760405162461bcd60e51b815260206004820152602260248201527f45434453413a20696e76616c6964207369676e6174757265202773272076616c604482015261756560f01b6064820152608401610677565b6004816004811115611a9257611a9261300c565b1415611aeb5760405162461bcd60e51b815260206004820152602260248201527f45434453413a20696e76616c6964207369676e6174757265202776272076616c604482015261756560f01b6064820152608401610677565b50565b604080516001600160a01b0319841660208201526bffffffffffffffffffffffff198316602c82015260009182910160405160208183030381529060405290508061051d90612f4f565b6000611b4382611bdc565b611b4f57506000919050565b6000611b5a83612f4f565b90506000611b6884836123a2565b90506000611b77836020612e80565b905060005b82811015611bd0576000611b908784612408565b90506001600160a01b0319811615611baf575060009695505050505050565b611bba602084612e80565b9250508080611bc890612fb9565b915050611b7c565b50600195945050505050565b80516000906020811015611bf35750600092915050565b6000611bfe84612f4f565b905080821015611c12575060009392505050565b6000611c1e85836123a2565b9050611c2b816020612e98565b611c36836020612e80565b611c409190612e80565b831015611c5257506000949350505050565b506001949350505050565b6000611c6882611bdc565b611c7457506000919050565b6000611c7f83612f4f565b90506000611c8d84836123a2565b90506000611c9c836020612e80565b905060005b82811015611bd0576000611cb58784612408565b90506001600160e01b03811615611cd3575060009695505050505050565b611cde602084612e80565b9250508080611cec90612fb9565b915050611ca1565b600080546040516354f6127f60e01b8152600481018690526001600160a01b03909116906354f6127f9060240160006040518083038186803b158015611d3957600080fd5b505afa158015611d4d573d6000803e3d6000fd5b505050506040513d6000823e601f3d908101601f19168201604052611d759190810190612af4565b611d7e90612f4f565b1415611d90576115af82826004611872565b6115af82826002611872565b600080546040516354f6127f60e01b8152600481018790526001600160a01b03909116906354f6127f9060240160006040518083038186803b158015611de157600080fd5b505afa158015611df5573d6000803e3d6000fd5b505050506040513d6000823e601f3d908101601f19168201604052611e1d9190810190612af4565b611e2690612f4f565b90506000611e3385612f4f565b9050818111156115a05761159a84846004611872565b600081611e595750611000919050565b6003821415611e6b5750612000919050565b6004821415611e7d5750614000919050565b919050565b600081611e9157506010919050565b6001821415611ea257506080919050565b6002821415611eb357506080919050565b6003821415611ec457506020919050565b6004821415611e7d57506040919050565b60008054611eec906001600160a01b031684612465565b9050805160001480611f045750611f0281611c5d565b155b15611f0e57505050565b600081806020019051810190611f249190612988565b905060005b8151811015611f8557611f67828281518110611f4757611f47613022565b6020026020010151856001600160a01b031661248f90919063ffffffff16565b15611f73575050505050565b80611f7d81612fb9565b915050611f29565b506040517f42013ee40000000000000000000000000000000000000000000000000000000081526001600160a01b03808616600483015284166024820152604401610677565b6060600182141561200f57505060408051808201909152601181527f5452414e534645524f574e455253484950000000000000000000000000000000602082015290565b600282141561205157505060408051808201909152601181527f4348414e47455045524d495353494f4e53000000000000000000000000000000602082015290565b600482141561209357505060408051808201909152600e81527f4144445045524d495353494f4e53000000000000000000000000000000000000602082015290565b60088214156120d557505060408051808201909152600781527f5345544441544100000000000000000000000000000000000000000000000000602082015290565b601082141561211757505060408051808201909152600481527f43414c4c00000000000000000000000000000000000000000000000000000000602082015290565b602082141561215957505060408051808201909152600a81527f53544154494343414c4c00000000000000000000000000000000000000000000602082015290565b604082141561219b57505060408051808201909152600c81527f44454c454741544543414c4c0000000000000000000000000000000000000000602082015290565b60808214156121dd57505060408051808201909152600681527f4445504c4f590000000000000000000000000000000000000000000000000000602082015290565b61010082141561222057505060408051808201909152600d81527f5452414e5346455256414c554500000000000000000000000000000000000000602082015290565b610200821415611e7d57505060408051808201909152600481527f5349474e00000000000000000000000000000000000000000000000000000000602082015290565b6000807f7fffffffffffffffffffffffffffffff5d576e7357a4501ddfe92f46681b20a083111561229a5750600090506003612347565b8460ff16601b141580156122b257508460ff16601c14155b156122c35750600090506004612347565b6040805160008082526020820180845289905260ff881692820192909252606081018690526080810185905260019060a0016020604051602081039080840390855afa158015612317573d6000803e3d6000fd5b5050604051601f1901519150506001600160a01b03811661234057600060019250925050612347565b9150600090505b94509492505050565b6000807f7fffffffffffffffffffffffffffffffffffffffffffffffffffffffffffffff83168161238660ff86901c601b612e80565b905061239487828885612263565b935093505050935093915050565b60006123af826020612e80565b835110156123ff5760405162461bcd60e51b815260206004820152601560248201527f746f55696e743235365f6f75744f66426f756e647300000000000000000000006044820152606401610677565b50016020015190565b6000612415826020612e80565b835110156123ff5760405162461bcd60e51b815260206004820152601560248201527f746f427974657333325f6f75744f66426f756e647300000000000000000000006044820152606401610677565b60606001600160a01b0383166354f6127f610d1d694b80742de2bf3efa94a360b01b85851b611aee565b604080516001600160e01b0319831660248083019190915282518083039091018152604490910182526020810180516001600160e01b03166301ffc9a760e01b179052905160009190829081906001600160a01b03871690617530906124f6908690612c30565b6000604051808303818686fa925050503d8060008114612532576040519150601f19603f3d011682016040523d82523d6000602084013e612537565b606091505b509150915060208151101561255257600093505050506103b8565b8180156104c457506000818060200190518101906125709190612bdb565b119695505050505050565b600082601f83011261258c57600080fd5b813560206125a161259c83612e0a565b612dd9565b80838252828201915082860187848660051b89010111156125c157600080fd5b60005b858110156125e0578135845292840192908401906001016125c4565b5090979650505050505050565b60008083601f8401126125ff57600080fd5b50813567ffffffffffffffff81111561261757600080fd5b60208301915083602082850101111561192957600080fd5b600082601f83011261264057600080fd5b813561264e61259c82612e2e565b81815284602083860101111561266357600080fd5b816020850160208301376000918101602001919091529392505050565b60006020828403121561269257600080fd5b813561052d8161304e565b600080604083850312156126b057600080fd5b82356126bb8161304e565b915060208301356126cb8161304e565b809150509250929050565b600080604083850312156126e957600080fd5b82356126f48161304e565b9150602083013567ffffffffffffffff81111561271057600080fd5b61271c8582860161257b565b9150509250929050565b6000806040838503121561273957600080fd5b82356127448161304e565b915060208301356126cb81613063565b6000806040838503121561276757600080fd5b82356127728161304e565b946020939093013593505050565b6000602080838503121561279357600080fd5b825167ffffffffffffffff8111156127aa57600080fd5b8301601f810185136127bb57600080fd5b80516127c961259c82612e0a565b80828252848201915084840188868560051b87010111156127e957600080fd5b600094505b838510156128155780516128018161304e565b8352600194909401939185019185016127ee565b50979650505050505050565b6000602080838503121561283457600080fd5b825167ffffffffffffffff81111561284b57600080fd5b8301601f8101851361285c57600080fd5b805161286a61259c82612e0a565b80828252848201915084840188868560051b870101111561288a57600080fd5b600094505b8385101561281557805183526001949094019391850191850161288f565b600080604083850312156128c057600080fd5b823567ffffffffffffffff808211156128d857600080fd5b6128e48683870161257b565b93506020915081850135818111156128fb57600080fd5b8501601f8101871361290c57600080fd5b803561291a61259c82612e0a565b8082825285820191508584018a878560051b870101111561293a57600080fd5b6000805b8581101561297557823588811115612954578283fd5b6129628e8b838b010161262f565b865250938801939188019160010161293e565b5050508096505050505050509250929050565b6000602080838503121561299b57600080fd5b825167ffffffffffffffff8111156129b257600080fd5b8301601f810185136129c357600080fd5b80516129d161259c82612e0a565b80828252848201915084840188868560051b87010111156129f157600080fd5b600094505b83851015612815578051612a0981613063565b8352600194909401939185019185016129f6565b600060208284031215612a2f57600080fd5b5035919050565b60008060408385031215612a4957600080fd5b50508035926020909101359150565b60008060408385031215612a6b57600080fd5b82359150602083013567ffffffffffffffff811115612a8957600080fd5b61271c8582860161262f565b600060208284031215612aa757600080fd5b813561052d81613063565b60008060208385031215612ac557600080fd5b823567ffffffffffffffff811115612adc57600080fd5b612ae8858286016125ed565b90969095509350505050565b600060208284031215612b0657600080fd5b815167ffffffffffffffff811115612b1d57600080fd5b8201601f81018413612b2e57600080fd5b8051612b3c61259c82612e2e565b818152856020838501011115612b5157600080fd5b612b62826020830160208601612f76565b95945050505050565b60008060008060608587031215612b8157600080fd5b843567ffffffffffffffff80821115612b9957600080fd5b612ba58883890161262f565b9550602087013594506040870135915080821115612bc257600080fd5b50612bcf878288016125ed565b95989497509550505050565b600060208284031215612bed57600080fd5b5051919050565b60008151808452612c0c816020860160208601612f76565b601f01601f19169290920160200192915050565b8183823760009101908152919050565b60008251612c42818460208701612f76565b9190910192915050565b8581526bffffffffffffffffffffffff198560601b1660208201528360348201528183605483013760009101605401908152949350505050565b6001600160a01b038316815260406020820152600061051d6040830184612bf4565b6001600160a01b0384168152826020820152606060408201526000612b626060830184612bf4565b60208152600061052d6020830184612bf4565b604081526000612cf66040830184612bf4565b8281036020840152600781527f616464726573730000000000000000000000000000000000000000000000000060208201526040810191505092915050565b604081526000612d486040830184612bf4565b8281036020840152600681527f627974657334000000000000000000000000000000000000000000000000000060208201526040810191505092915050565b604081526000612d9a6040830184612bf4565b8281036020840152600781527f627974657333320000000000000000000000000000000000000000000000000060208201526040810191505092915050565b604051601f8201601f1916810167ffffffffffffffff81118282101715612e0257612e02613038565b604052919050565b600067ffffffffffffffff821115612e2457612e24613038565b5060051b60200190565b600067ffffffffffffffff821115612e4857612e48613038565b50601f01601f191660200190565b60008085851115612e6657600080fd5b83861115612e7357600080fd5b5050820193919092039150565b60008219821115612e9357612e93612ff6565b500190565b6000816000190483118215151615612eb257612eb2612ff6565b500290565b600082821015612ec957612ec9612ff6565b500390565b6bffffffffffffffffffffffff198135818116916014851015612efb5780818660140360031b1b83161692505b505092915050565b803560208310156103b857600019602084900360031b1b1692915050565b6001600160e01b03198135818116916004851015612efb5760049490940360031b84901b1690921692915050565b80516020808301519190811015612f70576000198160200360031b1b821691505b50919050565b60005b83811015612f91578181015183820152602001612f79565b838111156115af5750506000910152565b600081612fb157612fb1612ff6565b506000190190565b6000600019821415612fcd57612fcd612ff6565b5060010190565b600082612ff157634e487b7160e01b600052601260045260246000fd5b500690565b634e487b7160e01b600052601160045260246000fd5b634e487b7160e01b600052602160045260246000fd5b634e487b7160e01b600052603260045260246000fd5b634e487b7160e01b600052604160045260246000fd5b6001600160a01b0381168114611aeb57600080fd5b6001600160e01b031981168114611aeb57600080fdfe4c5350363a20556e6b6e6f77204572726f72206f636375726564207768656e2063616c6c696e6720746865206c696e6b65642074617267657420636f6e7472616374a26469706673582212206916151d3d18511090a1d7ca072c27e60a6d8ff1424333900ab80bb321db409164736f6c63430008070033",
  "linkReferences": {},
  "deployedLinkReferences": {}
}