{
  "_format": "hh-sol-artifact-1",
  "contractName": "Reentrancy",
  "sourceName": "contracts/Helpers/Security/Reentrancy.sol",
  "abi": [
    {
      "inputs": [
        {
          "internalType": "address",
          "name": "_keyManager",
          "type": "address"
        }
      ],
      "stateMutability": "nonpayable",
      "type": "constructor"
    },
    {
      "stateMutability": "payable",
      "type": "fallback"
    },
    {
      "inputs": [
        {
          "internalType": "bytes",
          "name": "_dataPayload",
          "type": "bytes"
        }
      ],
      "name": "loadPayload",
      "outputs": [],
      "stateMutability": "nonpayable",
      "type": "function"
    }
  ],
  "bytecode": "0x608060405234801561001057600080fd5b506040516103c43803806103c483398101604081905261002f91610054565b600180546001600160a01b0319166001600160a01b0392909216919091179055610084565b60006020828403121561006657600080fd5b81516001600160a01b038116811461007d57600080fd5b9392505050565b610331806100936000396000f3fe60806040526004361061001e5760003560e01c80638032bbdb1461008b575b60015460405173ffffffffffffffffffffffffffffffffffffffff909116906100499060009061020e565b6000604051808303816000865af19150503d8060008114610086576040519150601f19603f3d011682016040523d82523d6000602084013e505050005b505050005b34801561009757600080fd5b506100ab6100a636600461015d565b6100ad565b005b80516100c09060009060208401906100c4565b5050565b8280546100d0906102aa565b90600052602060002090601f0160209004810192826100f25760008555610138565b82601f1061010b57805160ff1916838001178555610138565b82800160010185558215610138579182015b8281111561013857825182559160200191906001019061011d565b50610144929150610148565b5090565b5b808211156101445760008155600101610149565b60006020828403121561016f57600080fd5b813567ffffffffffffffff8082111561018757600080fd5b818401915084601f83011261019b57600080fd5b8135818111156101ad576101ad6102e5565b604051601f8201601f19908116603f011681019083821181831017156101d5576101d56102e5565b816040528281528760208487010111156101ee57600080fd5b826020860160208301376000928101602001929092525095945050505050565b600080835481600182811c91508083168061022a57607f831692505b602080841082141561024a57634e487b7160e01b86526022600452602486fd5b81801561025e576001811461026f5761029c565b60ff1986168952848901965061029c565b60008a81526020902060005b868110156102945781548b82015290850190830161027b565b505084890196505b509498975050505050505050565b600181811c908216806102be57607f821691505b602082108114156102df57634e487b7160e01b600052602260045260246000fd5b50919050565b634e487b7160e01b600052604160045260246000fdfea264697066735822122090d0357944efdbbe5e89236d393bfcfe2ddec657e40859fe13bd5779179be27664736f6c63430008070033",
  "linkReferences": {},
  "deployedLinkReferences": {}
}