{
  "_format": "hh-sol-artifact-1",
  "contractName": "LSP2UtilsLibraryTester",
  "sourceName": "contracts/Helpers/LSP2UtilsLibraryTester.sol",
  "abi": [
    {
      "inputs": [
        {
          "internalType": "bytes",
          "name": "_data",
          "type": "bytes"
        }
      ],
      "name": "isEncodedArray",
      "outputs": [
        {
          "internalType": "bool",
          "name": "",
          "type": "bool"
        }
      ],
      "stateMutability": "pure",
      "type": "function"
    }
  ],
  "bytecode": "0x608060405234801561001057600080fd5b506102de806100206000396000f3fe608060405234801561001057600080fd5b506004361061002b5760003560e01c8063f326ddf014610030575b600080fd5b61004361003e36600461016d565b610057565b604051901515815260200160405180910390f35b600061006282610068565b92915050565b8051600090602081101561007f5750600092915050565b600061008a84610255565b90508082101561009e575060009392505050565b60006100aa85836100e9565b90506100b7816020610236565b6100c283602061021e565b6100cc919061021e565b8310156100de57506000949350505050565b506001949350505050565b60006100f682602061021e565b83511015610164576040517f08c379a000000000000000000000000000000000000000000000000000000000815260206004820152601560248201527f746f55696e743235365f6f75744f66426f756e64730000000000000000000000604482015260640160405180910390fd5b50016020015190565b60006020828403121561017f57600080fd5b813567ffffffffffffffff8082111561019757600080fd5b818401915084601f8301126101ab57600080fd5b8135818111156101bd576101bd610292565b604051601f8201601f19908116603f011681019083821181831017156101e5576101e5610292565b816040528281528760208487010111156101fe57600080fd5b826020860160208301376000928101602001929092525095945050505050565b600082198211156102315761023161027c565b500190565b60008160001904831182151516156102505761025061027c565b500290565b80516020808301519190811015610276576000198160200360031b1b821691505b50919050565b634e487b7160e01b600052601160045260246000fd5b634e487b7160e01b600052604160045260246000fdfea26469706673582212202fe85c2ab5493c3d7ee971f3f46bd30efaf989e70c26e732bec41721d83cfcb264736f6c63430008070033",
  "linkReferences": {},
  "deployedLinkReferences": {}
}