{
  "_format": "hh-sol-artifact-1",
  "contractName": "LSP6KeyManager",
  "sourceName": "contracts/LSP6KeyManager/LSP6KeyManager.sol",
  "abi": [
    {
      "inputs": [
        {
          "internalType": "address",
          "name": "target_",
          "type": "address"
        }
      ],
      "stateMutability": "nonpayable",
      "type": "constructor"
    },
    {
      "inputs": [
        {
          "internalType": "bytes",
          "name": "value",
          "type": "bytes"
        },
        {
          "internalType": "string",
          "name": "valueType",
          "type": "string"
        }
      ],
      "name": "InvalidABIEncodedArray",
      "type": "error"
    },
    {
      "inputs": [
        {
          "internalType": "bytes4",
          "name": "invalidFunction",
          "type": "bytes4"
        }
      ],
      "name": "InvalidERC725Function",
      "type": "error"
    },
    {
      "inputs": [],
      "name": "InvalidLSP6Target",
      "type": "error"
    },
    {
      "inputs": [
        {
          "internalType": "address",
          "name": "signer",
          "type": "address"
        },
        {
          "internalType": "uint256",
          "name": "invalidNonce",
          "type": "uint256"
        },
        {
          "internalType": "bytes",
          "name": "signature",
          "type": "bytes"
        }
      ],
      "name": "InvalidRelayNonce",
      "type": "error"
    },
    {
      "inputs": [
        {
          "internalType": "address",
          "name": "from",
          "type": "address"
        }
      ],
      "name": "NoPermissionsSet",
      "type": "error"
    },
    {
      "inputs": [
        {
          "internalType": "address",
          "name": "from",
          "type": "address"
        },
        {
          "internalType": "address",
          "name": "disallowedAddress",
          "type": "address"
        }
      ],
      "name": "NotAllowedAddress",
      "type": "error"
    },
    {
      "inputs": [
        {
          "internalType": "address",
          "name": "from",
          "type": "address"
        },
        {
          "internalType": "bytes32",
          "name": "disallowedKey",
          "type": "bytes32"
        }
      ],
      "name": "NotAllowedERC725YKey",
      "type": "error"
    },
    {
      "inputs": [
        {
          "internalType": "address",
          "name": "from",
          "type": "address"
        },
        {
          "internalType": "bytes4",
          "name": "disallowedFunction",
          "type": "bytes4"
        }
      ],
      "name": "NotAllowedFunction",
      "type": "error"
    },
    {
      "inputs": [
        {
          "internalType": "address",
          "name": "from",
          "type": "address"
        },
        {
          "internalType": "address",
          "name": "addressNotImplementingAllowedStandard",
          "type": "address"
        }
      ],
      "name": "NotAllowedStandard",
      "type": "error"
    },
    {
      "inputs": [
        {
          "internalType": "address",
          "name": "from",
          "type": "address"
        },
        {
          "internalType": "string",
          "name": "permission",
          "type": "string"
        }
      ],
      "name": "NotAuthorised",
      "type": "error"
    },
    {
      "anonymous": false,
      "inputs": [
        {
          "indexed": true,
          "internalType": "uint256",
          "name": "value",
          "type": "uint256"
        },
        {
          "indexed": false,
          "internalType": "bytes4",
          "name": "selector",
          "type": "bytes4"
        }
      ],
      "name": "Executed",
      "type": "event"
    },
    {
      "inputs": [
        {
          "internalType": "bytes",
          "name": "payload",
          "type": "bytes"
        }
      ],
      "name": "execute",
      "outputs": [
        {
          "internalType": "bytes",
          "name": "",
          "type": "bytes"
        }
      ],
      "stateMutability": "payable",
      "type": "function"
    },
    {
      "inputs": [
        {
          "internalType": "bytes",
          "name": "signature",
          "type": "bytes"
        },
        {
          "internalType": "uint256",
          "name": "nonce",
          "type": "uint256"
        },
        {
          "internalType": "bytes",
          "name": "payload",
          "type": "bytes"
        }
      ],
      "name": "executeRelayCall",
      "outputs": [
        {
          "internalType": "bytes",
          "name": "",
          "type": "bytes"
        }
      ],
      "stateMutability": "payable",
      "type": "function"
    },
    {
      "inputs": [
        {
          "internalType": "address",
          "name": "from",
          "type": "address"
        },
        {
          "internalType": "uint256",
          "name": "channelId",
          "type": "uint256"
        }
      ],
      "name": "getNonce",
      "outputs": [
        {
          "internalType": "uint256",
          "name": "",
          "type": "uint256"
        }
      ],
      "stateMutability": "view",
      "type": "function"
    },
    {
      "inputs": [
        {
          "internalType": "bytes32",
          "name": "dataHash",
          "type": "bytes32"
        },
        {
          "internalType": "bytes",
          "name": "signature",
          "type": "bytes"
        }
      ],
      "name": "isValidSignature",
      "outputs": [
        {
          "internalType": "bytes4",
          "name": "magicValue",
          "type": "bytes4"
        }
      ],
      "stateMutability": "view",
      "type": "function"
    },
    {
      "inputs": [
        {
          "internalType": "bytes4",
          "name": "interfaceId",
          "type": "bytes4"
        }
      ],
      "name": "supportsInterface",
      "outputs": [
        {
          "internalType": "bool",
          "name": "",
          "type": "bool"
        }
      ],
      "stateMutability": "view",
      "type": "function"
    },
    {
      "inputs": [],
      "name": "target",
      "outputs": [
        {
          "internalType": "address",
          "name": "",
          "type": "address"
        }
      ],
      "stateMutability": "view",
      "type": "function"
    }
  ],
  "bytecode": "0x60806040523480156200001157600080fd5b5060405162002e6d38038062002e6d833981016040819052620000349162000082565b6001600160a01b0381166200005c5760405163fc85457960e01b815260040160405180910390fd5b600080546001600160a01b0319166001600160a01b0392909216919091179055620000b4565b6000602082840312156200009557600080fd5b81516001600160a01b0381168114620000ad57600080fd5b9392505050565b612da980620000c46000396000f3fe6080604052600436106100655760003560e01c8063895358031161004357806389535803146100f8578063902d5fa014610163578063d4b839921461017657600080fd5b806301ffc9a71461006a57806309c5eabe1461009f5780631626ba7e146100bf575b600080fd5b34801561007657600080fd5b5061008a61008536600461274d565b6101ae565b60405190151581526020015b60405180910390f35b6100b26100ad36600461276a565b610219565b6040516100969190612988565b3480156100cb57600080fd5b506100df6100da366004612710565b610329565b6040516001600160e01b03199091168152602001610096565b34801561010457600080fd5b50610155610113366004612462565b6001600160a01b039190911660009081526001602090815260408083208484529091529020546fffffffffffffffffffffffffffffffff1660809190911b1790565b604051908152602001610096565b6100b2610171366004612823565b610380565b34801561018257600080fd5b50600054610196906001600160a01b031681565b6040516001600160a01b039091168152602001610096565b60006001600160e01b031982167fc403d48f0000000000000000000000000000000000000000000000000000000014806101f857506001600160e01b03198216630b135d3f60e11b145b8061021357506301ffc9a760e01b6001600160e01b03198316145b92915050565b60606102263384846105b3565b6000805481906001600160a01b0316345a9087876040516102489291906128d8565b600060405180830381858888f193505050503d8060008114610286576040519150601f19603f3d011682016040523d82523d6000602084013e61028b565b606091505b509150915060006102b58383604051806080016040528060428152602001612d32604291396109a9565b9050347f6b9340454526f665e369d7ac17353d0b73774a4a80f746b959ece8130e0f1d726102e38789612bd9565b6040516001600160e01b0319909116815260200160405180910390a2805161030b578061031f565b8080602001905181019061031f91906127ac565b9695505050505050565b60008061033684846109e9565b60005490915061035d9061020090610357906001600160a01b031684610a0d565b81161490565b61036f576001600160e01b0319610378565b630b135d3f60e11b5b949350505050565b60606000463086868660405160200161039d959493929190612904565b604051602081830303815290604052905060006104188761041284805190602001206040517f19457468657265756d205369676e6564204d6573736167653a0a3332000000006020820152603c8101829052600090605c01604051602081830303815290604052805190602001209050919050565b906109e9565b90506104248187610ab7565b610469578086886040517fc9bd9eb900000000000000000000000000000000000000000000000000000000815260040161046093929190612960565b60405180910390fd5b6001600160a01b038116600090815260016020908152604080832060808a901c8452909152812080549161049c83612c71565b91905055506104ac8186866105b3565b6000805481906001600160a01b0316345a9089896040516104ce9291906128d8565b600060405180830381858888f193505050503d806000811461050c576040519150601f19603f3d011682016040523d82523d6000602084013e610511565b606091505b5091509150600061053b8383604051806080016040528060428152602001612d32604291396109a9565b9050347f6b9340454526f665e369d7ac17353d0b73774a4a80f746b959ece8130e0f1d72610569898b612bd9565b6040516001600160e01b0319909116815260200160405180910390a2805161059157806105a5565b808060200190518101906105a591906127ac565b9a9950505050505050505050565b60006105c26004828486612b0e565b6105cb91612bd9565b60008054919250906105e6906001600160a01b031686610a0d565b90508061062a576040517ff292052a0000000000000000000000000000000000000000000000000000000081526001600160a01b0386166004820152602401610460565b6001600160e01b031982167f7f23690c0000000000000000000000000000000000000000000000000000000014156107485760008061066c8560048189612b0e565b8101906106799190612710565b90925090507fffffffffffff00000000000000000000000000000000000000000000000000008216654b80742de2bf60d01b14806106dc57506fffffffffffffffffffffffffffffffff1982166f6f986dd036db5187329aa6cd326304c360811b145b156106f2576106ed82828986610b02565b610741565b60408051600180825281830190925260009160208083019080368337019050509050828160008151811061072857610728612cda565b60200260200101818152505061073f888583610e2f565b505b50506109a2565b6001600160e01b031982167f14a6e2930000000000000000000000000000000000000000000000000000000014156108a95760008061078a8560048189612b0e565b81019061079791906125bb565b915091506000805b83518110156108975760008482815181106107bc576107bc612cda565b6020026020010151905060008483815181106107da576107da612cda565b602090810291909101015190507fffffffffffff00000000000000000000000000000000000000000000000000008216654b80742de2bf60d01b148061084557506fffffffffffffffffffffffffffffffff1982166f6f986dd036db5187329aa6cd326304c360811b145b1561087d5761085682828d8a610b02565b6000801b86848151811061086c5761086c612cda565b602002602001018181525050610882565b600193505b5050808061088f90612c71565b91505061079f565b50801561073f5761073f888585610e2f565b6001600160e01b031982167f44c028fe0000000000000000000000000000000000000000000000000000000014156108ec576108e785828686610e5c565b6109a2565b6001600160e01b031982167ff2fde38b00000000000000000000000000000000000000000000000000000000148061094d57506001600160e01b031982167f4e71e0c800000000000000000000000000000000000000000000000000000000145b156109645761095e858260016110ec565b506109a2565b6040517f2ba8851c0000000000000000000000000000000000000000000000000000000081526001600160e01b031983166004820152602401610460565b5050505050565b606083156109b85750816109e2565b8251156109c85782518084602001fd5b8160405162461bcd60e51b81526004016104609190612988565b9392505050565b60008060006109f8858561113a565b91509150610a05816111aa565b509392505050565b6000806001600160a01b0384166354f6127f610a3a694b80742de2bf82acb36360b01b606087901b611368565b6040518263ffffffff1660e01b8152600401610a5891815260200190565b60006040518083038186803b158015610a7057600080fd5b505afa158015610a84573d6000803e3d6000fd5b505050506040513d6000823e601f3d908101601f19168201604052610aac91908101906127ac565b905061037881612c07565b6001600160a01b0382166000908152600160209081526040808320608085901c8452909152812054610afa70010000000000000000000000000000000084612c8c565b149392505050565b6001600160a01b03198416694b80742de2bf82acb36360b01b1415610b3157610b2c8483836113b2565b610e29565b7fdf30dba06db6a30e65354d9a64c609861f089545ca58c6b4dbe31a5f338cb0e3841415610b6557610b2c8484848461145a565b6fffffffffffffffffffffffffffffffff1984166f6f986dd036db5187329aa6cd326304c360811b1415610ba557610b9f828260026110ec565b50610e29565b6001600160a01b031984166912e01d0b78aff1b75acf60b21b1415610cae57825115801581610bda5750610bd884611507565b155b15610bfa5783604051635b0a748f60e11b8152600401610460919061299b565b600080546040516354f6127f60e01b8152600481018890526001600160a01b03909116906354f6127f9060240160006040518083038186803b158015610c3f57600080fd5b505afa158015610c53573d6000803e3d6000fd5b505050506040513d6000823e601f3d908101601f19168201604052610c7b91908101906127ac565b9050805160001415610c9957610c93848460046110ec565b50610ca7565b610ca5848460026110ec565b505b5050610e29565b6001600160a01b03198416694b80742de2bf3efa94a360b01b1480610ce957506001600160a01b031984166909700e85bc57f1dfd43d60b31b145b15610d2457825115801581610d045750610d02846115ab565b155b15610bfa5783604051635b0a748f60e11b815260040161046091906129ed565b6001600160a01b03198416694b80742de2bf90b8b48560b01b1415610e2957825115801581610d595750610d5784611642565b155b15610d795783604051635b0a748f60e11b81526004016104609190612a3f565b600080546040516354f6127f60e01b8152600481018890526001600160a01b03909116906354f6127f9060240160006040518083038186803b158015610dbe57600080fd5b505afa158015610dd2573d6000803e3d6000fd5b505050506040513d6000823e601f3d908101601f19168201604052610dfa91908101906127ac565b9050805160001415610e1857610e12848460046110ec565b50610e26565b610e24848460026110ec565b505b50505b50505050565b6104008083161415610e4057505050565b610e4c838360086110ec565b50610e5783826116c3565b505050565b6000610e6c602460048486612b0e565b610e7591612bbb565b905060058110610eed5760405162461bcd60e51b815260206004820152602660248201527f4c5350364b65794d616e616765723a20696e76616c6964206f7065726174696f60448201527f6e207479706500000000000000000000000000000000000000000000000000006064820152608401610460565b6004811415610f645760405162461bcd60e51b815260206004820152603e60248201527f4c5350364b65794d616e616765723a206f7065726174696f6e2044454c45474160448201527f544543414c4c2069732063757272656e746c7920646973616c6c6f77656400006064820152608401610460565b6000610f74606460448587612b0e565b610f7d91612bbb565b905060006001831480610f905750600283145b905060a48411600082610fb557610fb0610fa9866118b8565b8981161490565b610fb8565b60005b90508115610fdc578080610fda5750610fda8989610fd5886118f1565b6110ec565b505b610800888116148415610fff578080610ffd5750610ffd8a8a6101006110ec565b505b831561101057505050505050610e29565b81801561101a5750825b8015611024575084155b1561103457505050505050610e29565b80801561103f575082155b801561104b5750600085115b1561105b57505050505050610e29565b8180156110655750805b1561107557505050505050610e29565b6000611085604460308a8c612b0e565b61108e91612b86565b60601c905061109d8b82611944565b6001600160a01b0381163b156110df576110b78b82611a33565b60a888106110df576110df8b6110d160a860a48c8e612b0e565b6110da91612bd9565b611b29565b5050505050505050505050565b600081831682146109e257600061110283611c22565b905084816040517f3bdad6e600000000000000000000000000000000000000000000000000000000815260040161046092919061293e565b6000808251604114156111715760208301516040840151606085015160001a61116587828585611eba565b945094505050506111a3565b82516040141561119b5760208301516040840151611190868383611fa7565b9350935050506111a3565b506000905060025b9250929050565b60008160048111156111be576111be612cc4565b14156111c75750565b60018160048111156111db576111db612cc4565b14156112295760405162461bcd60e51b815260206004820152601860248201527f45434453413a20696e76616c6964207369676e617475726500000000000000006044820152606401610460565b600281600481111561123d5761123d612cc4565b141561128b5760405162461bcd60e51b815260206004820152601f60248201527f45434453413a20696e76616c6964207369676e6174757265206c656e677468006044820152606401610460565b600381600481111561129f5761129f612cc4565b14156112f85760405162461bcd60e51b815260206004820152602260248201527f45434453413a20696e76616c6964207369676e6174757265202773272076616c604482015261756560f01b6064820152608401610460565b600481600481111561130c5761130c612cc4565b14156113655760405162461bcd60e51b815260206004820152602260248201527f45434453413a20696e76616c6964207369676e6174757265202776272076616c604482015261756560f01b6064820152608401610460565b50565b604080516001600160a01b0319841660208201526bffffffffffffffffffffffff198316602c82015260009182910160405160208183030381529060405290508061037890612c07565b600080546040516354f6127f60e01b8152600481018690526001600160a01b03909116906354f6127f9060240160006040518083038186803b1580156113f757600080fd5b505afa15801561140b573d6000803e3d6000fd5b505050506040513d6000823e601f3d908101601f1916820160405261143391908101906127ac565b61143c90612c07565b141561144e57610e29828260046110ec565b610e29828260026110ec565b600080546040516354f6127f60e01b8152600481018790526001600160a01b03909116906354f6127f9060240160006040518083038186803b15801561149f57600080fd5b505afa1580156114b3573d6000803e3d6000fd5b505050506040513d6000823e601f3d908101601f191682016040526114db91908101906127ac565b6114e490612c07565b905060006114f185612c07565b905081811115610e1857610e12848460046110ec565b600061151282611642565b61151e57506000919050565b600061152983612c07565b905060006115378483611ff9565b90506000611546836020612b38565b905060005b8281101561159f57600061155f878461205f565b90506001600160a01b031981161561157e575060009695505050505050565b611589602084612b38565b925050808061159790612c71565b91505061154b565b50600195945050505050565b60006115b682611642565b6115c257506000919050565b60006115cd83612c07565b905060006115db8483611ff9565b905060006115ea836020612b38565b905060005b8281101561159f576000611603878461205f565b90506001600160e01b03811615611621575060009695505050505050565b61162c602084612b38565b925050808061163a90612c71565b9150506115ef565b805160009060208110156116595750600092915050565b600061166484612c07565b905080821015611678575060009392505050565b60006116848583611ff9565b9050611691816020612b50565b61169c836020612b38565b6116a69190612b38565b8310156116b857506000949350505050565b506001949350505050565b600080546116da906001600160a01b0316846120bc565b90508051600014806116f257506116f081611642565b155b156116fc57505050565b600081806020019051810190611712919061252f565b905060008060005b83518110156118155761174584828151811061173857611738612cda565b6020026020010151612158565b925060005b8651811015611802576000801b87828151811061176957611769612cda565b6020026020010151141561177c576117f0565b611787846008612b50565b60001960001b901b9250828782815181106117a4576117a4612cda565b6020026020010151168583815181106117bf576117bf612cda565b602002602001015114156117f0576000801b8782815181106117e3576117e3612cda565b6020026020010181815250505b806117fa81612c71565b91505061174a565b508061180d81612c71565b91505061171a565b5060005b8551811015610e24576000801b86828151811061183857611838612cda565b6020026020010151146118a6578686828151811061185857611858612cda565b60209081029190910101516040517f3003e7ae0000000000000000000000000000000000000000000000000000000081526001600160a01b0390921660048301526024820152604401610460565b806118b081612c71565b915050611819565b6000816118c85750611000919050565b60038214156118da5750612000919050565b60048214156118ec5750614000919050565b919050565b60008161190057506010919050565b600182141561191157506080919050565b600282141561192257506080919050565b600382141561193357506020919050565b60048214156118ec57506040919050565b6000805461195b906001600160a01b0316846121ce565b9050805160001480611973575061197181611507565b155b1561197d57505050565b600081806020019051810190611993919061248e565b905060005b81518110156119ed578181815181106119b3576119b3612cda565b60200260200101516001600160a01b0316846001600160a01b031614156119db575050505050565b806119e581612c71565b915050611998565b506040517f2879b1280000000000000000000000000000000000000000000000000000000081526001600160a01b03808616600483015284166024820152604401610460565b60008054611a4a906001600160a01b0316846121f8565b9050805160001480611a625750611a60816115ab565b155b15611a6c57505050565b600081806020019051810190611a82919061267b565b905060005b8151811015611ae357611ac5828281518110611aa557611aa5612cda565b6020026020010151856001600160a01b031661222290919063ffffffff16565b15611ad1575050505050565b80611adb81612c71565b915050611a87565b506040517f42013ee40000000000000000000000000000000000000000000000000000000081526001600160a01b03808616600483015284166024820152604401610460565b60008054611b40906001600160a01b03168461230e565b9050805160001480611b585750611b56816115ab565b155b15611b6257505050565b600081806020019051810190611b78919061267b565b905060005b8151811015611bd457818181518110611b9857611b98612cda565b60200260200101516001600160e01b031916846001600160e01b0319161415611bc2575050505050565b80611bcc81612c71565b915050611b7d565b506040517f841351100000000000000000000000000000000000000000000000000000000081526001600160a01b03851660048201526001600160e01b031984166024820152604401610460565b60606001821415611c6657505060408051808201909152601181527f5452414e534645524f574e455253484950000000000000000000000000000000602082015290565b6002821415611ca857505060408051808201909152601181527f4348414e47455045524d495353494f4e53000000000000000000000000000000602082015290565b6004821415611cea57505060408051808201909152600e81527f4144445045524d495353494f4e53000000000000000000000000000000000000602082015290565b6008821415611d2c57505060408051808201909152600781527f5345544441544100000000000000000000000000000000000000000000000000602082015290565b6010821415611d6e57505060408051808201909152600481527f43414c4c00000000000000000000000000000000000000000000000000000000602082015290565b6020821415611db057505060408051808201909152600a81527f53544154494343414c4c00000000000000000000000000000000000000000000602082015290565b6040821415611df257505060408051808201909152600c81527f44454c454741544543414c4c0000000000000000000000000000000000000000602082015290565b6080821415611e3457505060408051808201909152600681527f4445504c4f590000000000000000000000000000000000000000000000000000602082015290565b610100821415611e7757505060408051808201909152600d81527f5452414e5346455256414c554500000000000000000000000000000000000000602082015290565b6102008214156118ec57505060408051808201909152600481527f5349474e00000000000000000000000000000000000000000000000000000000602082015290565b6000807f7fffffffffffffffffffffffffffffff5d576e7357a4501ddfe92f46681b20a0831115611ef15750600090506003611f9e565b8460ff16601b14158015611f0957508460ff16601c14155b15611f1a5750600090506004611f9e565b6040805160008082526020820180845289905260ff881692820192909252606081018690526080810185905260019060a0016020604051602081039080840390855afa158015611f6e573d6000803e3d6000fd5b5050604051601f1901519150506001600160a01b038116611f9757600060019250925050611f9e565b9150600090505b94509492505050565b6000807f7fffffffffffffffffffffffffffffffffffffffffffffffffffffffffffffff831681611fdd60ff86901c601b612b38565b9050611feb87828885611eba565b935093505050935093915050565b6000612006826020612b38565b835110156120565760405162461bcd60e51b815260206004820152601560248201527f746f55696e743235365f6f75744f66426f756e647300000000000000000000006044820152606401610460565b50016020015190565b600061206c826020612b38565b835110156120565760405162461bcd60e51b815260206004820152601560248201527f746f427974657333325f6f75744f66426f756e647300000000000000000000006044820152606401610460565b60606001600160a01b0383166354f6127f6120e6694b80742de2bf90b8b48560b01b85851b611368565b6040518263ffffffff1660e01b815260040161210491815260200190565b60006040518083038186803b15801561211c57600080fd5b505afa158015612130573d6000803e3d6000fd5b505050506040513d6000823e601f3d908101601f191682016040526109e291908101906127ac565b6000601f5b82816020811061216f5761216f612cda565b1a60f81b7fff00000000000000000000000000000000000000000000000000000000000000161580156121a157508015155b156121b857806121b081612c5a565b91505061215d565b6121c3816001612b38565b6109e2906020612b6f565b60606001600160a01b0383166354f6127f6120e66912e01d0b78aff1b75acf60b21b85851b611368565b60606001600160a01b0383166354f6127f6120e6694b80742de2bf3efa94a360b01b85851b611368565b604080516001600160e01b0319831660248083019190915282518083039091018152604490910182526020810180516001600160e01b03166301ffc9a760e01b179052905160009190829081906001600160a01b03871690617530906122899086906128e8565b6000604051808303818686fa925050503d80600081146122c5576040519150601f19603f3d011682016040523d82523d6000602084013e6122ca565b606091505b50915091506020815110156122e55760009350505050610213565b81801561031f57506000818060200190518101906123039190612893565b119695505050505050565b60606001600160a01b0383166354f6127f6120e66909700e85bc57f1dfd43d60b31b85851b611368565b600082601f83011261234957600080fd5b8135602061235e61235983612ac2565b612a91565b80838252828201915082860187848660051b890101111561237e57600080fd5b6000805b868110156123c157823567ffffffffffffffff8111156123a0578283fd5b6123ae8b88838d0101612411565b8652509385019391850191600101612382565b509198975050505050505050565b60008083601f8401126123e157600080fd5b50813567ffffffffffffffff8111156123f957600080fd5b6020830191508360208285010111156111a357600080fd5b600082601f83011261242257600080fd5b813561243061235982612ae6565b81815284602083860101111561244557600080fd5b816020850160208301376000918101602001919091529392505050565b6000806040838503121561247557600080fd5b823561248081612d06565b946020939093013593505050565b600060208083850312156124a157600080fd5b825167ffffffffffffffff8111156124b857600080fd5b8301601f810185136124c957600080fd5b80516124d761235982612ac2565b80828252848201915084840188868560051b87010111156124f757600080fd5b600094505b8385101561252357805161250f81612d06565b8352600194909401939185019185016124fc565b50979650505050505050565b6000602080838503121561254257600080fd5b825167ffffffffffffffff81111561255957600080fd5b8301601f8101851361256a57600080fd5b805161257861235982612ac2565b80828252848201915084840188868560051b870101111561259857600080fd5b600094505b8385101561252357805183526001949094019391850191850161259d565b600080604083850312156125ce57600080fd5b823567ffffffffffffffff808211156125e657600080fd5b818501915085601f8301126125fa57600080fd5b8135602061260a61235983612ac2565b8083825282820191508286018a848660051b890101111561262a57600080fd5b600096505b8487101561264d57803583526001969096019591830191830161262f565b509650508601359250508082111561266457600080fd5b5061267185828601612338565b9150509250929050565b6000602080838503121561268e57600080fd5b825167ffffffffffffffff8111156126a557600080fd5b8301601f810185136126b657600080fd5b80516126c461235982612ac2565b80828252848201915084840188868560051b87010111156126e457600080fd5b600094505b838510156125235780516126fc81612d1b565b8352600194909401939185019185016126e9565b6000806040838503121561272357600080fd5b82359150602083013567ffffffffffffffff81111561274157600080fd5b61267185828601612411565b60006020828403121561275f57600080fd5b81356109e281612d1b565b6000806020838503121561277d57600080fd5b823567ffffffffffffffff81111561279457600080fd5b6127a0858286016123cf565b90969095509350505050565b6000602082840312156127be57600080fd5b815167ffffffffffffffff8111156127d557600080fd5b8201601f810184136127e657600080fd5b80516127f461235982612ae6565b81815285602083850101111561280957600080fd5b61281a826020830160208601612c2e565b95945050505050565b6000806000806060858703121561283957600080fd5b843567ffffffffffffffff8082111561285157600080fd5b61285d88838901612411565b955060208701359450604087013591508082111561287a57600080fd5b50612887878288016123cf565b95989497509550505050565b6000602082840312156128a557600080fd5b5051919050565b600081518084526128c4816020860160208601612c2e565b601f01601f19169290920160200192915050565b8183823760009101908152919050565b600082516128fa818460208701612c2e565b9190910192915050565b8581526bffffffffffffffffffffffff198560601b1660208201528360348201528183605483013760009101605401908152949350505050565b6001600160a01b038316815260406020820152600061037860408301846128ac565b6001600160a01b038416815282602082015260606040820152600061281a60608301846128ac565b6020815260006109e260208301846128ac565b6040815260006129ae60408301846128ac565b8281036020840152600781527f616464726573730000000000000000000000000000000000000000000000000060208201526040810191505092915050565b604081526000612a0060408301846128ac565b8281036020840152600681527f627974657334000000000000000000000000000000000000000000000000000060208201526040810191505092915050565b604081526000612a5260408301846128ac565b8281036020840152600781527f627974657333320000000000000000000000000000000000000000000000000060208201526040810191505092915050565b604051601f8201601f1916810167ffffffffffffffff81118282101715612aba57612aba612cf0565b604052919050565b600067ffffffffffffffff821115612adc57612adc612cf0565b5060051b60200190565b600067ffffffffffffffff821115612b0057612b00612cf0565b50601f01601f191660200190565b60008085851115612b1e57600080fd5b83861115612b2b57600080fd5b5050820193919092039150565b60008219821115612b4b57612b4b612cae565b500190565b6000816000190483118215151615612b6a57612b6a612cae565b500290565b600082821015612b8157612b81612cae565b500390565b6bffffffffffffffffffffffff198135818116916014851015612bb35780818660140360031b1b83161692505b505092915050565b8035602083101561021357600019602084900360031b1b1692915050565b6001600160e01b03198135818116916004851015612bb35760049490940360031b84901b1690921692915050565b80516020808301519190811015612c28576000198160200360031b1b821691505b50919050565b60005b83811015612c49578181015183820152602001612c31565b83811115610e295750506000910152565b600081612c6957612c69612cae565b506000190190565b6000600019821415612c8557612c85612cae565b5060010190565b600082612ca957634e487b7160e01b600052601260045260246000fd5b500690565b634e487b7160e01b600052601160045260246000fd5b634e487b7160e01b600052602160045260246000fd5b634e487b7160e01b600052603260045260246000fd5b634e487b7160e01b600052604160045260246000fd5b6001600160a01b038116811461136557600080fd5b6001600160e01b03198116811461136557600080fdfe4c5350363a20556e6b6e6f77204572726f72206f636375726564207768656e2063616c6c696e6720746865206c696e6b65642074617267657420636f6e7472616374a26469706673582212202a262dde48705c8f7d341871da4824c023d82eef26575eb7ca10542f64eab21c64736f6c63430008070033",
  "linkReferences": {},
  "deployedLinkReferences": {}
}