{
  "_format": "hh-sol-artifact-1",
  "contractName": "LSP8CompatibleERC721Tester",
  "sourceName": "contracts/Helpers/Tokens/LSP8CompatibleERC721Tester.sol",
  "abi": [
    {
      "inputs": [
        {
          "internalType": "string",
          "name": "name",
          "type": "string"
        },
        {
          "internalType": "string",
          "name": "symbol",
          "type": "string"
        },
        {
          "internalType": "address",
          "name": "newOwner",
          "type": "address"
        },
        {
          "internalType": "bytes",
          "name": "tokenURIValue",
          "type": "bytes"
        }
      ],
      "stateMutability": "nonpayable",
      "type": "constructor"
    },
    {
      "inputs": [],
      "name": "LSP4TokenNameNotEditable",
      "type": "error"
    },
    {
      "inputs": [],
      "name": "LSP4TokenSymbolNotEditable",
      "type": "error"
    },
    {
      "inputs": [],
      "name": "LSP8CannotSendToAddressZero",
      "type": "error"
    },
    {
      "inputs": [],
      "name": "LSP8CannotUseAddressZeroAsOperator",
      "type": "error"
    },
    {
      "inputs": [],
      "name": "LSP8InvalidTransferBatch",
      "type": "error"
    },
    {
      "inputs": [
        {
          "internalType": "bytes32",
          "name": "tokenId",
          "type": "bytes32"
        }
      ],
      "name": "LSP8NonExistentTokenId",
      "type": "error"
    },
    {
      "inputs": [
        {
          "internalType": "bytes32",
          "name": "tokenId",
          "type": "bytes32"
        },
        {
          "internalType": "address",
          "name": "caller",
          "type": "address"
        }
      ],
      "name": "LSP8NotTokenOperator",
      "type": "error"
    },
    {
      "inputs": [
        {
          "internalType": "address",
          "name": "tokenOwner",
          "type": "address"
        },
        {
          "internalType": "bytes32",
          "name": "tokenId",
          "type": "bytes32"
        },
        {
          "internalType": "address",
          "name": "caller",
          "type": "address"
        }
      ],
      "name": "LSP8NotTokenOwner",
      "type": "error"
    },
    {
      "inputs": [
        {
          "internalType": "address",
          "name": "tokenReceiver",
          "type": "address"
        }
      ],
      "name": "LSP8NotifyTokenReceiverContractMissingLSP1Interface",
      "type": "error"
    },
    {
      "inputs": [
        {
          "internalType": "address",
          "name": "tokenReceiver",
          "type": "address"
        }
      ],
      "name": "LSP8NotifyTokenReceiverIsEOA",
      "type": "error"
    },
    {
      "inputs": [
        {
          "internalType": "bytes32",
          "name": "tokenId",
          "type": "bytes32"
        }
      ],
      "name": "LSP8TokenIdAlreadyMinted",
      "type": "error"
    },
    {
      "anonymous": false,
      "inputs": [
        {
          "indexed": true,
          "internalType": "address",
          "name": "owner",
          "type": "address"
        },
        {
          "indexed": true,
          "internalType": "address",
          "name": "approved",
          "type": "address"
        },
        {
          "indexed": true,
          "internalType": "uint256",
          "name": "tokenId",
          "type": "uint256"
        }
      ],
      "name": "Approval",
      "type": "event"
    },
    {
      "anonymous": false,
      "inputs": [
        {
          "indexed": true,
          "internalType": "address",
          "name": "operator",
          "type": "address"
        },
        {
          "indexed": true,
          "internalType": "address",
          "name": "tokenOwner",
          "type": "address"
        },
        {
          "indexed": true,
          "internalType": "bytes32",
          "name": "tokenId",
          "type": "bytes32"
        }
      ],
      "name": "AuthorizedOperator",
      "type": "event"
    },
    {
      "anonymous": false,
      "inputs": [
        {
          "indexed": true,
          "internalType": "bytes32",
          "name": "dataKey",
          "type": "bytes32"
        }
      ],
      "name": "DataChanged",
      "type": "event"
    },
    {
      "anonymous": false,
      "inputs": [
        {
          "indexed": true,
          "internalType": "address",
          "name": "previousOwner",
          "type": "address"
        },
        {
          "indexed": true,
          "internalType": "address",
          "name": "newOwner",
          "type": "address"
        }
      ],
      "name": "OwnershipTransferred",
      "type": "event"
    },
    {
      "anonymous": false,
      "inputs": [
        {
          "indexed": true,
          "internalType": "address",
          "name": "operator",
          "type": "address"
        },
        {
          "indexed": true,
          "internalType": "address",
          "name": "tokenOwner",
          "type": "address"
        },
        {
          "indexed": true,
          "internalType": "bytes32",
          "name": "tokenId",
          "type": "bytes32"
        }
      ],
      "name": "RevokedOperator",
      "type": "event"
    },
    {
      "anonymous": false,
      "inputs": [
        {
          "indexed": true,
          "internalType": "address",
          "name": "from",
          "type": "address"
        },
        {
          "indexed": true,
          "internalType": "address",
          "name": "to",
          "type": "address"
        },
        {
          "indexed": true,
          "internalType": "uint256",
          "name": "tokenId",
          "type": "uint256"
        }
      ],
      "name": "Transfer",
      "type": "event"
    },
    {
      "anonymous": false,
      "inputs": [
        {
          "indexed": false,
          "internalType": "address",
          "name": "operator",
          "type": "address"
        },
        {
          "indexed": true,
          "internalType": "address",
          "name": "from",
          "type": "address"
        },
        {
          "indexed": true,
          "internalType": "address",
          "name": "to",
          "type": "address"
        },
        {
          "indexed": true,
          "internalType": "bytes32",
          "name": "tokenId",
          "type": "bytes32"
        },
        {
          "indexed": false,
          "internalType": "bool",
          "name": "force",
          "type": "bool"
        },
        {
          "indexed": false,
          "internalType": "bytes",
          "name": "data",
          "type": "bytes"
        }
      ],
      "name": "Transfer",
      "type": "event"
    },
    {
      "inputs": [
        {
          "internalType": "address",
          "name": "operator",
          "type": "address"
        },
        {
          "internalType": "uint256",
          "name": "tokenId",
          "type": "uint256"
        }
      ],
      "name": "approve",
      "outputs": [],
      "stateMutability": "nonpayable",
      "type": "function"
    },
    {
      "inputs": [
        {
          "internalType": "address",
          "name": "operator",
          "type": "address"
        },
        {
          "internalType": "bytes32",
          "name": "tokenId",
          "type": "bytes32"
        }
      ],
      "name": "authorizeOperator",
      "outputs": [],
      "stateMutability": "nonpayable",
      "type": "function"
    },
    {
      "inputs": [
        {
          "internalType": "address",
          "name": "tokenOwner",
          "type": "address"
        }
      ],
      "name": "balanceOf",
      "outputs": [
        {
          "internalType": "uint256",
          "name": "",
          "type": "uint256"
        }
      ],
      "stateMutability": "view",
      "type": "function"
    },
    {
      "inputs": [
        {
          "internalType": "uint256",
          "name": "tokenId",
          "type": "uint256"
        },
        {
          "internalType": "bytes",
          "name": "data",
          "type": "bytes"
        }
      ],
      "name": "burn",
      "outputs": [],
      "stateMutability": "nonpayable",
      "type": "function"
    },
    {
      "inputs": [
        {
          "internalType": "uint256",
          "name": "tokenId",
          "type": "uint256"
        }
      ],
      "name": "getApproved",
      "outputs": [
        {
          "internalType": "address",
          "name": "",
          "type": "address"
        }
      ],
      "stateMutability": "view",
      "type": "function"
    },
    {
      "inputs": [
        {
          "internalType": "bytes32[]",
          "name": "dataKeys",
          "type": "bytes32[]"
        }
      ],
      "name": "getData",
      "outputs": [
        {
          "internalType": "bytes[]",
          "name": "dataValues",
          "type": "bytes[]"
        }
      ],
      "stateMutability": "view",
      "type": "function"
    },
    {
      "inputs": [
        {
          "internalType": "bytes32",
          "name": "dataKey",
          "type": "bytes32"
        }
      ],
      "name": "getData",
      "outputs": [
        {
          "internalType": "bytes",
          "name": "dataValue",
          "type": "bytes"
        }
      ],
      "stateMutability": "view",
      "type": "function"
    },
    {
      "inputs": [
        {
          "internalType": "bytes32",
          "name": "tokenId",
          "type": "bytes32"
        }
      ],
      "name": "getOperatorsOf",
      "outputs": [
        {
          "internalType": "address[]",
          "name": "",
          "type": "address[]"
        }
      ],
      "stateMutability": "view",
      "type": "function"
    },
    {
      "inputs": [
        {
          "internalType": "address",
          "name": "tokenOwner",
          "type": "address"
        },
        {
          "internalType": "address",
          "name": "operator",
          "type": "address"
        }
      ],
      "name": "isApprovedForAll",
      "outputs": [
        {
          "internalType": "bool",
          "name": "",
          "type": "bool"
        }
      ],
      "stateMutability": "view",
      "type": "function"
    },
    {
      "inputs": [
        {
          "internalType": "address",
          "name": "operator",
          "type": "address"
        },
        {
          "internalType": "bytes32",
          "name": "tokenId",
          "type": "bytes32"
        }
      ],
      "name": "isOperatorFor",
      "outputs": [
        {
          "internalType": "bool",
          "name": "",
          "type": "bool"
        }
      ],
      "stateMutability": "view",
      "type": "function"
    },
    {
      "inputs": [
        {
          "internalType": "address",
          "name": "to",
          "type": "address"
        },
        {
          "internalType": "uint256",
          "name": "tokenId",
          "type": "uint256"
        },
        {
          "internalType": "bytes",
          "name": "data",
          "type": "bytes"
        }
      ],
      "name": "mint",
      "outputs": [],
      "stateMutability": "nonpayable",
      "type": "function"
    },
    {
      "inputs": [],
      "name": "name",
      "outputs": [
        {
          "internalType": "string",
          "name": "",
          "type": "string"
        }
      ],
      "stateMutability": "view",
      "type": "function"
    },
    {
      "inputs": [],
      "name": "owner",
      "outputs": [
        {
          "internalType": "address",
          "name": "",
          "type": "address"
        }
      ],
      "stateMutability": "view",
      "type": "function"
    },
    {
      "inputs": [
        {
          "internalType": "uint256",
          "name": "tokenId",
          "type": "uint256"
        }
      ],
      "name": "ownerOf",
      "outputs": [
        {
          "internalType": "address",
          "name": "",
          "type": "address"
        }
      ],
      "stateMutability": "view",
      "type": "function"
    },
    {
      "inputs": [],
      "name": "renounceOwnership",
      "outputs": [],
      "stateMutability": "nonpayable",
      "type": "function"
    },
    {
      "inputs": [
        {
          "internalType": "address",
          "name": "operator",
          "type": "address"
        },
        {
          "internalType": "bytes32",
          "name": "tokenId",
          "type": "bytes32"
        }
      ],
      "name": "revokeOperator",
      "outputs": [],
      "stateMutability": "nonpayable",
      "type": "function"
    },
    {
      "inputs": [
        {
          "internalType": "address",
          "name": "from",
          "type": "address"
        },
        {
          "internalType": "address",
          "name": "to",
          "type": "address"
        },
        {
          "internalType": "uint256",
          "name": "tokenId",
          "type": "uint256"
        }
      ],
      "name": "safeTransferFrom",
      "outputs": [],
      "stateMutability": "nonpayable",
      "type": "function"
    },
    {
      "inputs": [
        {
          "internalType": "address",
          "name": "from",
          "type": "address"
        },
        {
          "internalType": "address",
          "name": "to",
          "type": "address"
        },
        {
          "internalType": "uint256",
          "name": "tokenId",
          "type": "uint256"
        },
        {
          "internalType": "bytes",
          "name": "data",
          "type": "bytes"
        }
      ],
      "name": "safeTransferFrom",
      "outputs": [],
      "stateMutability": "nonpayable",
      "type": "function"
    },
    {
      "inputs": [
        {
          "internalType": "bytes32[]",
          "name": "dataKeys",
          "type": "bytes32[]"
        },
        {
          "internalType": "bytes[]",
          "name": "dataValues",
          "type": "bytes[]"
        }
      ],
      "name": "setData",
      "outputs": [],
      "stateMutability": "nonpayable",
      "type": "function"
    },
    {
      "inputs": [
        {
          "internalType": "bytes32",
          "name": "dataKey",
          "type": "bytes32"
        },
        {
          "internalType": "bytes",
          "name": "dataValue",
          "type": "bytes"
        }
      ],
      "name": "setData",
      "outputs": [],
      "stateMutability": "nonpayable",
      "type": "function"
    },
    {
      "inputs": [
        {
          "internalType": "bytes4",
          "name": "interfaceId",
          "type": "bytes4"
        }
      ],
      "name": "supportsInterface",
      "outputs": [
        {
          "internalType": "bool",
          "name": "",
          "type": "bool"
        }
      ],
      "stateMutability": "view",
      "type": "function"
    },
    {
      "inputs": [],
      "name": "symbol",
      "outputs": [
        {
          "internalType": "string",
          "name": "",
          "type": "string"
        }
      ],
      "stateMutability": "view",
      "type": "function"
    },
    {
      "inputs": [
        {
          "internalType": "address",
          "name": "tokenOwner",
          "type": "address"
        }
      ],
      "name": "tokenIdsOf",
      "outputs": [
        {
          "internalType": "bytes32[]",
          "name": "",
          "type": "bytes32[]"
        }
      ],
      "stateMutability": "view",
      "type": "function"
    },
    {
      "inputs": [
        {
          "internalType": "bytes32",
          "name": "tokenId",
          "type": "bytes32"
        }
      ],
      "name": "tokenOwnerOf",
      "outputs": [
        {
          "internalType": "address",
          "name": "",
          "type": "address"
        }
      ],
      "stateMutability": "view",
      "type": "function"
    },
    {
      "inputs": [
        {
          "internalType": "uint256",
          "name": "tokenId",
          "type": "uint256"
        }
      ],
      "name": "tokenURI",
      "outputs": [
        {
          "internalType": "string",
          "name": "",
          "type": "string"
        }
      ],
      "stateMutability": "view",
      "type": "function"
    },
    {
      "inputs": [],
      "name": "totalSupply",
      "outputs": [
        {
          "internalType": "uint256",
          "name": "",
          "type": "uint256"
        }
      ],
      "stateMutability": "view",
      "type": "function"
    },
    {
      "inputs": [
        {
          "internalType": "address",
          "name": "from",
          "type": "address"
        },
        {
          "internalType": "address",
          "name": "to",
          "type": "address"
        },
        {
          "internalType": "bytes32",
          "name": "tokenId",
          "type": "bytes32"
        },
        {
          "internalType": "bool",
          "name": "force",
          "type": "bool"
        },
        {
          "internalType": "bytes",
          "name": "data",
          "type": "bytes"
        }
      ],
      "name": "transfer",
      "outputs": [],
      "stateMutability": "nonpayable",
      "type": "function"
    },
    {
      "inputs": [
        {
          "internalType": "address[]",
          "name": "from",
          "type": "address[]"
        },
        {
          "internalType": "address[]",
          "name": "to",
          "type": "address[]"
        },
        {
          "internalType": "bytes32[]",
          "name": "tokenId",
          "type": "bytes32[]"
        },
        {
          "internalType": "bool",
          "name": "force",
          "type": "bool"
        },
        {
          "internalType": "bytes[]",
          "name": "data",
          "type": "bytes[]"
        }
      ],
      "name": "transferBatch",
      "outputs": [],
      "stateMutability": "nonpayable",
      "type": "function"
    },
    {
      "inputs": [
        {
          "internalType": "address",
          "name": "from",
          "type": "address"
        },
        {
          "internalType": "address",
          "name": "to",
          "type": "address"
        },
        {
          "internalType": "uint256",
          "name": "tokenId",
          "type": "uint256"
        }
      ],
      "name": "transferFrom",
      "outputs": [],
      "stateMutability": "nonpayable",
      "type": "function"
    },
    {
      "inputs": [
        {
          "internalType": "address",
          "name": "newOwner",
          "type": "address"
        }
      ],
      "name": "transferOwnership",
      "outputs": [],
      "stateMutability": "nonpayable",
      "type": "function"
    }
  ],
  "bytecode": "0x60806040523480156200001157600080fd5b5060405162002e3838038062002e38833981016040819052620000349162000405565b8383838282828282828062000054816200014560201b62000c171760201c565b50620000ab7feafec4d89fa9619884b60000a4d96624a38f7ac2d8d9a604ecf07c12c77e480c60001b604051806040016040528060048152602001632936598960e21b815250620001ac60201b62000c891760201c565b620000d460008051602062002df883398151915260001b84620001ac60201b62000c891760201c565b620000fd60008051602062002e1883398151915260001b83620001ac60201b62000c891760201c565b5050505050505050506200013b7f9afb95cacc9f95858ec44aa8c3b685511002e30ae54415823f406128b85b238e60001b82620001fd60201b60201c565b5050505062000520565b6000546001600160a01b03828116911614620001a957600080546001600160a01b038381166001600160a01b0319831681178455604051919092169283917f8be0079c531659141344cd1fd0a4f28419497f9722a3daafe3b4186f6b6457e09190a3505b50565b60008281526001602090815260409091208251620001cd9284019062000291565b5060405182907fcdf4e344c0d23d4cdd0474039d176c55b19d531070dbe17856bfb993a5b5720b90600090a25050565b6200021482826200021860201b62000cd81760201c565b5050565b60008051602062002df883398151915282141562000249576040516385c169bd60e01b815260040160405180910390fd5b60008051602062002e188339815191528214156200027a57604051630eceab6760e31b815260040160405180910390fd5b620002148282620001ac60201b62000c891760201c565b8280546200029f90620004cd565b90600052602060002090601f016020900481019282620002c357600085556200030e565b82601f10620002de57805160ff19168380011785556200030e565b828001600101855582156200030e579182015b828111156200030e578251825591602001919060010190620002f1565b506200031c92915062000320565b5090565b5b808211156200031c576000815560010162000321565b60006001600160401b03808411156200035457620003546200050a565b604051601f8501601f19908116603f011681019082821181831017156200037f576200037f6200050a565b816040528093508581528686860111156200039957600080fd5b600092505b85831015620003be5782850151602084830101526020830192506200039e565b85831115620003d1576000602087830101525b5050509392505050565b600082601f830112620003ed57600080fd5b620003fe8383516020850162000337565b9392505050565b600080600080608085870312156200041c57600080fd5b84516001600160401b03808211156200043457600080fd5b6200044288838901620003db565b955060208701519150808211156200045957600080fd5b6200046788838901620003db565b604088015190955091506001600160a01b03821682146200048757600080fd5b6060870151919350808211156200049d57600080fd5b508501601f81018713620004b057600080fd5b620004c18782516020840162000337565b91505092959194509250565b600181811c90821680620004e257607f821691505b602082108114156200050457634e487b7160e01b600052602260045260246000fd5b50919050565b634e487b7160e01b600052604160045260246000fd5b6128c880620005306000396000f3fe608060405234801561001057600080fd5b50600436106101da5760003560e01c8063559088681161010457806395d89b41116100a2578063cf5182ba11610071578063cf5182ba1461040c578063e985e9c51461041f578063f2fde38b14610435578063fe9d93031461044857600080fd5b806395d89b41146103be578063a3b261f2146103c6578063b88d4fde146103e6578063c87b56dd146103f957600080fd5b8063715018a6116100de578063715018a61461037f5780637f23690c146103875780638da5cb5b1461039a57806394d008ef146103ab57600080fd5b806355908868146103465780636352211e1461035957806370a082311461036c57600080fd5b8063217b22701161017c57806349a6078d1161014b57806349a6078d146102e05780634e3e6e9c14610300578063511b69521461032057806354f6127f1461033357600080fd5b8063217b22701461029457806323b872dd146102a75780632a3654a4146102ba57806342842e0e146102cd57600080fd5b8063095ea7b3116101b8578063095ea7b3146102475780630b0c6d821461025c57806314a6e2931461026f57806318160ddd1461028257600080fd5b806301ffc9a7146101df57806306fdde0314610207578063081812fc1461021c575b600080fd5b6101f26101ed366004612443565b61045b565b60405190151581526020015b60405180910390f35b61020f6104d3565b6040516101fe91906126ff565b61022f61022a3660046123ed565b610500565b6040516001600160a01b0390911681526020016101fe565b61025a61025536600461221f565b610554565b005b61025a61026a36600461221f565b6105ab565b61025a61027d366004612389565b610659565b6002545b6040519081526020016101fe565b61022f6102a23660046123ed565b61072d565b61025a6102b536600461217b565b610766565b6101f26102c836600461221f565b610786565b61025a6102db36600461217b565b6107a2565b6102f36102ee3660046123ed565b6107c2565b6040516101fe91906125ff565b61031361030e366004612354565b6107e4565b6040516101fe9190612684565b61025a61032e366004612102565b610898565b61020f6103413660046123ed565b610900565b61025a6103543660046122a3565b61090b565b61022f6103673660046123ed565b6109f1565b61028661037a3660046120b4565b6109fc565b61025a610a1d565b61025a610395366004612406565b610a31565b6000546001600160a01b031661022f565b61025a6103b9366004612249565b610a47565b61020f610a8d565b6103d96103d43660046120b4565b610aba565b6040516101fe919061264c565b61025a6103f43660046121b7565b610ade565b61020f6104073660046123ed565b610aec565b61025a61041a36600461221f565b610b3a565b6101f261042d3660046120cf565b600092915050565b61025a6104433660046120b4565b610b44565b61025a6104563660046124f4565b610bd4565b60006001600160e01b031982167f80ac58cd0000000000000000000000000000000000000000000000000000000014806104be57506001600160e01b031982167f5b5e139f00000000000000000000000000000000000000000000000000000000145b806104cd57506104cd82610d96565b92915050565b606060006104cd7fdeba1e292f8ba88238e10ab3c7f88bd4be4fac56cad5194b6ecceaf653468af1610dd4565b60008161050c81610e76565b60008181526005602052604081209061052482610eae565b90508061053657506000949350505050565b61054b6105446001836127a7565b8390610eb8565b95945050505050565b61055e8282610b3a565b806001600160a01b0383166105728261072d565b6001600160a01b03167f8c5be1e5ebec7d5bd14f71427d1e84f3dd0314c0f7b2291e5b200ac8c7c3b92560405160405180910390a45050565b60006105b68261072d565b9050336001600160a01b038216811461060157604051632d938f5160e11b81526001600160a01b03808416600483015260248201859052821660448201526064015b60405180910390fd5b6001600160a01b03841661062857604051639577b8b360e01b815260040160405180910390fd5b836001600160a01b0316826001600160a01b031614156106485750505050565b610653848385610ec4565b50505050565b610661610f23565b80518251146106d85760405162461bcd60e51b815260206004820152602660248201527f4b657973206c656e677468206e6f7420657175616c20746f2076616c7565732060448201527f6c656e677468000000000000000000000000000000000000000000000000000060648201526084016105f8565b60005b8251811015610728576107208382815181106106f9576106f9612866565b602002602001015183838151811061071357610713612866565b6020026020010151610f8c565b6001016106db565b505050565b6000818152600360205260408120546001600160a01b0316806104cd57604051635747cd1b60e11b8152600481018490526024016105f8565b61072883838360001b600160405180602001604052806000815250610898565b600061079182610e76565b61079b8383610f96565b9392505050565b61072883838360001b600060405180602001604052806000815250610898565b60606107cd82610e76565b60008281526005602052604090206104cd90610fdf565b6060815167ffffffffffffffff8111156108005761080061287c565b60405190808252806020026020018201604052801561083357816020015b606081526020019060019003908161081e5790505b50905060005b82518110156108925761086483828151811061085757610857612866565b6020026020010151610dd4565b82828151811061087657610876612866565b602002602001018190525061088b8160010190565b9050610839565b50919050565b336108a38185610f96565b6108eb576040517f1294d2a9000000000000000000000000000000000000000000000000000000008152600481018590526001600160a01b03821660248201526044016105f8565b6108f88686868686610fec565b505050505050565b60606104cd82610dd4565b8351855114158061091e57508251855114155b8061092b57508051855114155b15610962576040517f93a8311900000000000000000000000000000000000000000000000000000000815260040160405180910390fd5b60005b85518110156108f8576109df86828151811061098357610983612866565b602002602001015186838151811061099d5761099d612866565b60200260200101518684815181106109b7576109b7612866565b6020026020010151868686815181106109d2576109d2612866565b6020026020010151610898565b806109e98161281f565b915050610965565b60006104cd8261072d565b6001600160a01b03811660009081526004602052604081206104cd90610eae565b610a25610f23565b610a2f6000610c17565b565b610a39610f23565b610a438282610f8c565b5050565b610653848460001b600185858080601f01602080910402602001604051908101604052809392919081815260200183838082843760009201919091525061100092505050565b606060006104cd7f2f0a68ab07768e01943a599e73362a0e17a63a72e94dd2e384d2c1d4db932756610dd4565b6001600160a01b03811660009081526004602052604090206060906104cd9061100c565b610653848484600085610898565b60606000610b197f9afb95cacc9f95858ec44aa8c3b685511002e30ae54415823f406128b85b238e610dd4565b9050600060249050600061054b8383848651610b3591906127a7565b611017565b610a43828261113f565b610b4c610f23565b6001600160a01b038116610bc85760405162461bcd60e51b815260206004820152602660248201527f4f776e61626c653a206e6577206f776e657220697320746865207a65726f206160448201527f646472657373000000000000000000000000000000000000000000000000000060648201526084016105f8565b610bd181610c17565b50565b6107288360001b83838080601f01602080910402602001604051908101604052809392919081815260200183838082843760009201919091525061118a92505050565b6000546001600160a01b03828116911614610bd157600080546001600160a01b0383811673ffffffffffffffffffffffffffffffffffffffff19831681178455604051919092169283917f8be0079c531659141344cd1fd0a4f28419497f9722a3daafe3b4186f6b6457e09190a35050565b60008281526001602090815260409091208251610ca892840190611dea565b5060405182907fcdf4e344c0d23d4cdd0474039d176c55b19d531070dbe17856bfb993a5b5720b90600090a25050565b7fdeba1e292f8ba88238e10ab3c7f88bd4be4fac56cad5194b6ecceaf653468af1821415610d32576040517f85c169bd00000000000000000000000000000000000000000000000000000000815260040160405180910390fd5b7f2f0a68ab07768e01943a599e73362a0e17a63a72e94dd2e384d2c1d4db932756821415610d8c576040517f76755b3800000000000000000000000000000000000000000000000000000000815260040160405180910390fd5b610a438282610c89565b60006001600160e01b031982167f493991450000000000000000000000000000000000000000000000000000000014806104cd57506104cd82611194565b6000818152600160205260409020805460609190610df1906127ea565b80601f0160208091040260200160405190810160405280929190818152602001828054610e1d906127ea565b8015610e6a5780601f10610e3f57610100808354040283529160200191610e6a565b820191906000526020600020905b815481529060010190602001808311610e4d57829003601f168201915b50505050509050919050565b6000818152600360205260409020546001600160a01b0316610bd157604051635747cd1b60e11b8152600481018290526024016105f8565b60006104cd825490565b600061079b83836111e2565b6000818152600560205260409020610edc908461120c565b5080826001600160a01b0316846001600160a01b03167f17d5389f6ab6adb2647dfa0aa365c323d37adacc30b33a65310b6158ce1373d560405160405180910390a4505050565b33610f366000546001600160a01b031690565b6001600160a01b031614610a2f5760405162461bcd60e51b815260206004820181905260248201527f4f776e61626c653a2063616c6c6572206973206e6f7420746865206f776e657260448201526064016105f8565b610a438282610cd8565b600080610fa28361072d565b9050806001600160a01b0316846001600160a01b03161480610fd757506000838152600560205260409020610fd79085611221565b949350505050565b6060600061079b83611243565b610ff9858585858561129e565b5050505050565b61065384848484611320565b60606104cd82611243565b60608161102581601f61278f565b10156110735760405162461bcd60e51b815260206004820152600e60248201527f736c6963655f6f766572666c6f7700000000000000000000000000000000000060448201526064016105f8565b61107d828461278f565b845110156110cd5760405162461bcd60e51b815260206004820152601160248201527f736c6963655f6f75744f66426f756e647300000000000000000000000000000060448201526064016105f8565b6060821580156110ec5760405191506000825260208201604052611136565b6040519150601f8416801560200281840101858101878315602002848b0101015b8183101561112557805183526020928301920161110d565b5050858452601f01601f1916604052505b50949350505050565b6111498282611396565b60408051602081018390520160405160208183030381529060405280602001905181019061117791906124db565b826001600160a01b03166105728361072d565b610a43828261148e565b60006001600160e01b031982167f714df77c0000000000000000000000000000000000000000000000000000000014806104cd57506301ffc9a760e01b6001600160e01b03198316146104cd565b60008260000182815481106111f9576111f9612866565b9060005260206000200154905092915050565b600061079b836001600160a01b03841661150e565b6001600160a01b0381166000908152600183016020526040812054151561079b565b606081600001805480602002602001604051908101604052809291908181526020018280548015610e6a57602002820191906000526020600020905b81548152602001906001019080831161127f5750505050509050919050565b6112ab8585858585611601565b6040805160208101859052016040516020818303038152906040528060200190518101906112d991906124db565b846001600160a01b0316866001600160a01b03167fddf252ad1be2c89b69c2b068fc378daa952ba7f163c4a11628f55a4df523b3ef60405160405180910390a45050505050565b61132c8484848461177a565b60408051602081018590520160405160208183030381529060405280602001905181019061135a91906124db565b6040516001600160a01b038616906000907fddf252ad1be2c89b69c2b068fc378daa952ba7f163c4a11628f55a4df523b3ef908290a450505050565b60006113a18261072d565b9050336001600160a01b03821681146113e757604051632d938f5160e11b81526001600160a01b03808416600483015260248201859052821660448201526064016105f8565b6001600160a01b03841661140e57604051639577b8b360e01b815260040160405180910390fd5b836001600160a01b0316826001600160a01b0316141561142e5750505050565b600083815260056020526040902061144690856118a7565b5082826001600160a01b0316856001600160a01b03167f34b797fc5a526f7bf1d2b5de25f6564fd85ae364e3ee939aee7c1ac27871a98860405160405180910390a450505050565b60006114998361072d565b90506114a583836118bc565b6040805160208101859052016040516020818303038152906040528060200190518101906114d391906124db565b6040516000906001600160a01b038416907fddf252ad1be2c89b69c2b068fc378daa952ba7f163c4a11628f55a4df523b3ef908390a4505050565b600081815260018301602052604081205480156115f75760006115326001836127a7565b8554909150600090611546906001906127a7565b90508181146115ab57600086600001828154811061156657611566612866565b906000526020600020015490508087600001848154811061158957611589612866565b6000918252602080832090910192909255918252600188019052604090208390555b85548690806115bc576115bc612850565b6001900381819060005260206000200160009055905585600101600086815260200190815260200160002060009055600193505050506104cd565b60009150506104cd565b600061160c8461072d565b9050856001600160a01b0316816001600160a01b03161461165a57604051632d938f5160e11b81526001600160a01b03808316600483015260248201869052871660448201526064016105f8565b6001600160a01b038516611681576040516324ecef4d60e01b815260040160405180910390fd5b3361168d878787611982565b61169787866119d4565b6001600160a01b03871660009081526004602052604090206116b99086611a25565b506001600160a01b03861660009081526004602052604090206116dc9086611a31565b5060008581526003602052604090819020805473ffffffffffffffffffffffffffffffffffffffff19166001600160a01b0389811691821790925591518792918a16907fb333c813a7426a7a11e2b190cad52c44119421594b47f6f32ace6d8c7207b2bf906117509086908a908a906125d5565b60405180910390a461176487878786611a3d565b6117718787878787611b20565b50505050505050565b6001600160a01b0384166117a1576040516324ecef4d60e01b815260040160405180910390fd5b6000838152600360205260409020546001600160a01b0316156117f3576040517f34c7b511000000000000000000000000000000000000000000000000000000008152600481018490526024016105f8565b3361180060008686611982565b6001600160a01b03851660009081526004602052604090206118229085611a31565b50600084815260036020526040808220805473ffffffffffffffffffffffffffffffffffffffff19166001600160a01b03891690811790915590518692907fb333c813a7426a7a11e2b190cad52c44119421594b47f6f32ace6d8c7207b2bf90611891908690899089906125d5565b60405180910390a4610ff9600086868686611b20565b600061079b836001600160a01b038416611c99565b60006118c78361072d565b9050336118d682600086611982565b6118e082856119d4565b6001600160a01b03821660009081526004602052604090206119029085611a25565b50600084815260036020526040808220805473ffffffffffffffffffffffffffffffffffffffff19169055518591906001600160a01b038516907fb333c813a7426a7a11e2b190cad52c44119421594b47f6f32ace6d8c7207b2bf9061196d90869085908a906125d5565b60405180910390a46106538260008686611a3d565b6001600160a01b0383166119a9576001600260008282546119a3919061278f565b90915550505b6001600160a01b038216610728576001600260008282546119ca91906127a7565b9091555050505050565b6000818152600560205260408120906119ec82610eae565b905060005b81811015610ff9576000611a058482610eb8565b9050611a12818787610ec4565b5080611a1d8161281f565b9150506119f1565b600061079b838361150e565b600061079b8383611c99565b611a4e84631aed5a8560e21b611ce8565b1561065357600084848484604051602001611a6c949392919061256c565b60408051601f1981840301815290829052631aed5a8560e21b825291506001600160a01b03861690636bb56a1490611aca907f3724c94f0815e936299cca424da4140752198e0beb7931a6e0925d11bc97544c9085906004016126e6565b600060405180830381600087803b158015611ae457600080fd5b505af1158015611af8573d6000803e3d6000fd5b505050506040513d6000823e601f3d908101601f191682016040526108f8919081019061246d565b611b3184631aed5a8560e21b611ce8565b15611c0a57600085858584604051602001611b4f949392919061256c565b60408051601f1981840301815290829052631aed5a8560e21b825291506001600160a01b03861690636bb56a1490611bad907fc7a120a42b6057a0cbed111fbbfbd52fcd96748c04394f77fc2c3adbe0391e019085906004016126e6565b600060405180830381600087803b158015611bc757600080fd5b505af1158015611bdb573d6000803e3d6000fd5b505050506040513d6000823e601f3d908101601f19168201604052611c03919081019061246d565b5050610ff9565b81610ff9576001600160a01b0384163b15611c5c576040517f4349776d0000000000000000000000000000000000000000000000000000000081526001600160a01b03851660048201526024016105f8565b6040517f031731370000000000000000000000000000000000000000000000000000000081526001600160a01b03851660048201526024016105f8565b6000818152600183016020526040812054611ce0575081546001818101845560008481526020808220909301849055845484825282860190935260409020919091556104cd565b5060006104cd565b604080516001600160e01b0319831660248083019190915282518083039091018152604490910182526020810180517bffffffffffffffffffffffffffffffffffffffffffffffffffffffff166301ffc9a760e01b179052905160009190829081906001600160a01b0387169061753090611d649086906125b9565b6000604051808303818686fa925050503d8060008114611da0576040519150601f19603f3d011682016040523d82523d6000602084013e611da5565b606091505b5091509150602081511015611dc057600093505050506104cd565b818015611de05750600081806020019051810190611dde91906124db565b115b9695505050505050565b828054611df6906127ea565b90600052602060002090601f016020900481019282611e185760008555611e5e565b82601f10611e3157805160ff1916838001178555611e5e565b82800160010185558215611e5e579182015b82811115611e5e578251825591602001919060010190611e43565b50611e6a929150611e6e565b5090565b5b80821115611e6a5760008155600101611e6f565b80356001600160a01b0381168114611e9a57600080fd5b919050565b600082601f830112611eb057600080fd5b81356020611ec5611ec083612743565b612712565b80838252828201915082860187848660051b8901011115611ee557600080fd5b60005b85811015611f0b57611ef982611e83565b84529284019290840190600101611ee8565b5090979650505050505050565b600082601f830112611f2957600080fd5b81356020611f39611ec083612743565b80838252828201915082860187848660051b8901011115611f5957600080fd5b60005b85811015611f0b57813584529284019290840190600101611f5c565b600082601f830112611f8957600080fd5b81356020611f99611ec083612743565b80838252828201915082860187848660051b8901011115611fb957600080fd5b6000805b86811015611ffc57823567ffffffffffffffff811115611fdb578283fd5b611fe98b88838d0101612063565b8652509385019391850191600101611fbd565b509198975050505050505050565b80358015158114611e9a57600080fd5b60008083601f84011261202c57600080fd5b50813567ffffffffffffffff81111561204457600080fd5b60208301915083602082850101111561205c57600080fd5b9250929050565b600082601f83011261207457600080fd5b8135612082611ec082612767565b81815284602083860101111561209757600080fd5b816020850160208301376000918101602001919091529392505050565b6000602082840312156120c657600080fd5b61079b82611e83565b600080604083850312156120e257600080fd5b6120eb83611e83565b91506120f960208401611e83565b90509250929050565b600080600080600060a0868803121561211a57600080fd5b61212386611e83565b945061213160208701611e83565b9350604086013592506121466060870161200a565b9150608086013567ffffffffffffffff81111561216257600080fd5b61216e88828901612063565b9150509295509295909350565b60008060006060848603121561219057600080fd5b61219984611e83565b92506121a760208501611e83565b9150604084013590509250925092565b600080600080608085870312156121cd57600080fd5b6121d685611e83565b93506121e460208601611e83565b925060408501359150606085013567ffffffffffffffff81111561220757600080fd5b61221387828801612063565b91505092959194509250565b6000806040838503121561223257600080fd5b61223b83611e83565b946020939093013593505050565b6000806000806060858703121561225f57600080fd5b61226885611e83565b935060208501359250604085013567ffffffffffffffff81111561228b57600080fd5b6122978782880161201a565b95989497509550505050565b600080600080600060a086880312156122bb57600080fd5b853567ffffffffffffffff808211156122d357600080fd5b6122df89838a01611e9f565b965060208801359150808211156122f557600080fd5b61230189838a01611e9f565b9550604088013591508082111561231757600080fd5b61232389838a01611f18565b94506123316060890161200a565b9350608088013591508082111561234757600080fd5b5061216e88828901611f78565b60006020828403121561236657600080fd5b813567ffffffffffffffff81111561237d57600080fd5b610fd784828501611f18565b6000806040838503121561239c57600080fd5b823567ffffffffffffffff808211156123b457600080fd5b6123c086838701611f18565b935060208501359150808211156123d657600080fd5b506123e385828601611f78565b9150509250929050565b6000602082840312156123ff57600080fd5b5035919050565b6000806040838503121561241957600080fd5b82359150602083013567ffffffffffffffff81111561243757600080fd5b6123e385828601612063565b60006020828403121561245557600080fd5b81356001600160e01b03198116811461079b57600080fd5b60006020828403121561247f57600080fd5b815167ffffffffffffffff81111561249657600080fd5b8201601f810184136124a757600080fd5b80516124b5611ec082612767565b8181528560208385010111156124ca57600080fd5b61054b8260208301602086016127be565b6000602082840312156124ed57600080fd5b5051919050565b60008060006040848603121561250957600080fd5b83359250602084013567ffffffffffffffff81111561252757600080fd5b6125338682870161201a565b9497909650939450505050565b600081518084526125588160208601602086016127be565b601f01601f19169290920160200192915050565b60006bffffffffffffffffffffffff19808760601b168352808660601b1660148401525083602883015282516125a98160488501602087016127be565b9190910160480195945050505050565b600082516125cb8184602087016127be565b9190910192915050565b6001600160a01b0384168152821515602082015260606040820152600061054b6060830184612540565b6020808252825182820181905260009190848201906040850190845b818110156126405783516001600160a01b03168352928401929184019160010161261b565b50909695505050505050565b6020808252825182820181905260009190848201906040850190845b8181101561264057835183529284019291840191600101612668565b6000602080830181845280855180835260408601915060408160051b870101925083870160005b828110156126d957603f198886030184526126c7858351612540565b945092850192908501906001016126ab565b5092979650505050505050565b828152604060208201526000610fd76040830184612540565b60208152600061079b6020830184612540565b604051601f8201601f1916810167ffffffffffffffff8111828210171561273b5761273b61287c565b604052919050565b600067ffffffffffffffff82111561275d5761275d61287c565b5060051b60200190565b600067ffffffffffffffff8211156127815761278161287c565b50601f01601f191660200190565b600082198211156127a2576127a261283a565b500190565b6000828210156127b9576127b961283a565b500390565b60005b838110156127d95781810151838201526020016127c1565b838111156106535750506000910152565b600181811c908216806127fe57607f821691505b6020821081141561089257634e487b7160e01b600052602260045260246000fd5b60006000198214156128335761283361283a565b5060010190565b634e487b7160e01b600052601160045260246000fd5b634e487b7160e01b600052603160045260246000fd5b634e487b7160e01b600052603260045260246000fd5b634e487b7160e01b600052604160045260246000fdfea26469706673582212202b79edc5eb2eb76b278a6ee6ff4d8e27ab982cb1b7efa789afc36ed91c30648c64736f6c63430008070033deba1e292f8ba88238e10ab3c7f88bd4be4fac56cad5194b6ecceaf653468af12f0a68ab07768e01943a599e73362a0e17a63a72e94dd2e384d2c1d4db932756",
  "linkReferences": {},
  "deployedLinkReferences": {}
}