{
  "_format": "hh-sol-artifact-1",
  "contractName": "Executor",
  "sourceName": "contracts/Helpers/Executor.sol",
  "abi": [
    {
      "inputs": [
        {
          "internalType": "address payable",
          "name": "account_",
          "type": "address"
        },
        {
          "internalType": "address",
          "name": "keyManager_",
          "type": "address"
        }
      ],
      "stateMutability": "nonpayable",
      "type": "constructor"
    },
    {
      "inputs": [],
      "name": "sendOneLyxHardcoded",
      "outputs": [
        {
          "internalType": "bytes",
          "name": "",
          "type": "bytes"
        }
      ],
      "stateMutability": "nonpayable",
      "type": "function"
    },
    {
      "inputs": [],
      "name": "sendOneLyxHardcodedRawCall",
      "outputs": [
        {
          "internalType": "bool",
          "name": "",
          "type": "bool"
        }
      ],
      "stateMutability": "nonpayable",
      "type": "function"
    },
    {
      "inputs": [
        {
          "internalType": "address",
          "name": "_recipient",
          "type": "address"
        }
      ],
      "name": "sendOneLyxToRecipient",
      "outputs": [
        {
          "internalType": "bytes",
          "name": "",
          "type": "bytes"
        }
      ],
      "stateMutability": "nonpayable",
      "type": "function"
    },
    {
      "inputs": [
        {
          "internalType": "address",
          "name": "_recipient",
          "type": "address"
        }
      ],
      "name": "sendOneLyxToRecipientRawCall",
      "outputs": [
        {
          "internalType": "bool",
          "name": "",
          "type": "bool"
        }
      ],
      "stateMutability": "nonpayable",
      "type": "function"
    },
    {
      "inputs": [],
      "name": "setComputedKey",
      "outputs": [
        {
          "internalType": "bytes",
          "name": "",
          "type": "bytes"
        }
      ],
      "stateMutability": "nonpayable",
      "type": "function"
    },
    {
      "inputs": [
        {
          "internalType": "bytes32",
          "name": "_key",
          "type": "bytes32"
        },
        {
          "internalType": "bytes",
          "name": "_value",
          "type": "bytes"
        }
      ],
      "name": "setComputedKeyFromParams",
      "outputs": [
        {
          "internalType": "bytes",
          "name": "",
          "type": "bytes"
        }
      ],
      "stateMutability": "nonpayable",
      "type": "function"
    },
    {
      "inputs": [
        {
          "internalType": "bytes32",
          "name": "_key",
          "type": "bytes32"
        },
        {
          "internalType": "bytes",
          "name": "_value",
          "type": "bytes"
        }
      ],
      "name": "setComputedKeyFromParamsRawCall",
      "outputs": [
        {
          "internalType": "bool",
          "name": "",
          "type": "bool"
        }
      ],
      "stateMutability": "nonpayable",
      "type": "function"
    },
    {
      "inputs": [],
      "name": "setComputedKeyRawCall",
      "outputs": [
        {
          "internalType": "bool",
          "name": "",
          "type": "bool"
        }
      ],
      "stateMutability": "nonpayable",
      "type": "function"
    },
    {
      "inputs": [],
      "name": "setHardcodedKey",
      "outputs": [
        {
          "internalType": "bytes",
          "name": "",
          "type": "bytes"
        }
      ],
      "stateMutability": "nonpayable",
      "type": "function"
    },
    {
      "inputs": [],
      "name": "setHardcodedKeyRawCall",
      "outputs": [
        {
          "internalType": "bool",
          "name": "",
          "type": "bool"
        }
      ],
      "stateMutability": "nonpayable",
      "type": "function"
    }
  ],
  "bytecode": "0x608060405234801561001057600080fd5b50604051610ce8380380610ce883398101604081905261002f91610060565b600180546001600160a01b039384166001600160a01b031991821617909155600080549290931691161790556100b2565b6000806040838503121561007357600080fd5b825161007e8161009a565b602084015190925061008f8161009a565b809150509250929050565b6001600160a01b03811681146100af57600080fd5b50565b610c27806100c16000396000f3fe608060405234801561001057600080fd5b50600436106100be5760003560e01c8063612ffb6511610076578063872ddc3a1161005b578063872ddc3a14610137578063d07d71f01461014a578063dfba73511461015d57600080fd5b8063612ffb651461011c57806379e4fd591461012457600080fd5b80633ec0434a116100a75780633ec0434a146100e957806344b19119146100fc57806347b02aee1461011457600080fd5b80633b2ba77b146100c35780633b40ea67146100e1575b600080fd5b6100cb610165565b6040516100d89190610b26565b60405180910390f35b6100cb6102a3565b6100cb6100f73660046109c4565b610346565b610104610440565b60405190151581526020016100d8565b6100cb6105ac565b6101046106ac565b6100cb610132366004610994565b6107da565b6101046101453660046109c4565b61086d565b610104610158366004610994565b6108a4565b6101046108f2565b604080518082018252600a815269536f6d652076616c756560b01b602082015290516060917f562d53c1631c0c1620e183763f5f6356addcf78f26cbbd0b9eb7061d7c897ea1916000907f7f23690cc80a596acdae0a51503f8066ffd79ab76fd5c929578309d2e2883b77906101e19085908590602401610b0d565b60408051601f198184030181529181526020820180516001600160e01b03166001600160e01b03199094169390931790925260005491516304e2f55f60e11b81529092506001600160a01b03909116906309c5eabe90610245908490600401610b26565b600060405180830381600087803b15801561025f57600080fd5b505af1158015610273573d6000803e3d6000fd5b505050506040513d6000823e601f3d908101601f1916820160405261029b9190810190610a4e565b935050505090565b606060006040516020016102c59067536f6d65204b657960c01b815260080190565b60405160208183030381529060405280519060200120905060006040516020016102ff9069536f6d652076616c756560b01b8152600a0190565b604051602081830303815290604052905060007f7f23690cc80a596acdae0a51503f8066ffd79ab76fd5c929578309d2e2883b7783836040516024016101e1929190610b0d565b606060007f7f23690cc80a596acdae0a51503f8066ffd79ab76fd5c929578309d2e2883b77848460405160240161037e929190610b0d565b60408051601f198184030181529181526020820180516001600160e01b03166001600160e01b03199094169390931790925260005491516304e2f55f60e11b81529092506001600160a01b03909116906309c5eabe906103e2908490600401610b26565b600060405180830381600087803b1580156103fc57600080fd5b505af1158015610410573d6000803e3d6000fd5b505050506040513d6000823e601f3d908101601f191682016040526104389190810190610a4e565b949350505050565b604080518082018252600a815269536f6d652076616c756560b01b602082015290516000917f562d53c1631c0c1620e183763f5f6356addcf78f26cbbd0b9eb7061d7c897ea19183907f7f23690cc80a596acdae0a51503f8066ffd79ab76fd5c929578309d2e2883b77906104bb9085908590602401610b0d565b60408051601f198184030181529181526020820180516001600160e01b03166001600160e01b03199094169390931790925290519091506000906304e2f55f60e11b9061050c908490602401610b26565b60408051601f198184030181529181526020820180516001600160e01b03166001600160e01b031990941693909317909252600080549251919350916001600160a01b03169061055d908490610af1565b6000604051808303816000865af19150503d806000811461059a576040519150601f19603f3d011682016040523d82523d6000602084013e61059f565b606091505b5090979650505050505050565b6040805160006024820181905273cafecafecafecafecafecafecafecafecafecafe6044830152670de0b6b3a7640000606483018190526080608484015260a48084018390528451808503909101815260c490930184526020830180516001600160e01b0316632260147f60e11b179052905492516304e2f55f60e11b81526060939192916001600160a01b0316906309c5eabe9061064f908490600401610b26565b600060405180830381600087803b15801561066957600080fd5b505af115801561067d573d6000803e3d6000fd5b505050506040513d6000823e601f3d908101601f191682016040526106a59190810190610a4e565b9250505090565b604080516000602480830182905273cafecafecafecafecafecafecafecafecafecafe6044840152670de0b6b3a7640000606484018190526080608485015260a48085018490528551808603909101815260c490940185526020840180516001600160e01b0316632260147f60e11b17905293519193929184916304e2f55f60e11b9161073b91859101610b26565b60408051601f198184030181529181526020820180516001600160e01b03166001600160e01b031990941693909317909252600080549251919350916001600160a01b03169061078c908490610af1565b6000604051808303816000865af19150503d80600081146107c9576040519150601f19603f3d011682016040523d82523d6000602084013e6107ce565b606091505b50909695505050505050565b604080516000602482018190526001600160a01b038481166044840152670de0b6b3a7640000606484018190526080608485015260a48085018490528551808603909101815260c490940185526020840180516001600160e01b0316632260147f60e11b179052915493516304e2f55f60e11b8152606094929392909116906309c5eabe906103e2908490600401610b26565b6000807f7f23690cc80a596acdae0a51503f8066ffd79ab76fd5c929578309d2e2883b7784846040516024016104bb929190610b0d565b6040516000602482018190526001600160a01b0383166044830152670de0b6b3a7640000606483018190526080608484015260a4830182905290918290632260147f60e11b9060c4016104bb565b6000806040516020016109139067536f6d65204b657960c01b815260080190565b604051602081830303815290604052805190602001209050600060405160200161094d9069536f6d652076616c756560b01b8152600a0190565b604051602081830303815290604052905060007f7f23690cc80a596acdae0a51503f8066ffd79ab76fd5c929578309d2e2883b7783836040516024016104bb929190610b0d565b6000602082840312156109a657600080fd5b81356001600160a01b03811681146109bd57600080fd5b9392505050565b600080604083850312156109d757600080fd5b82359150602083013567ffffffffffffffff8111156109f557600080fd5b8301601f81018513610a0657600080fd5b8035610a19610a1482610b6a565b610b39565b818152866020838501011115610a2e57600080fd5b816020840160208301376000602083830101528093505050509250929050565b600060208284031215610a6057600080fd5b815167ffffffffffffffff811115610a7757600080fd5b8201601f81018413610a8857600080fd5b8051610a96610a1482610b6a565b818152856020838501011115610aab57600080fd5b610abc826020830160208601610b92565b95945050505050565b60008151808452610add816020860160208601610b92565b601f01601f19169290920160200192915050565b60008251610b03818460208701610b92565b9190910192915050565b8281526040602082015260006104386040830184610ac5565b6020815260006109bd6020830184610ac5565b604051601f8201601f1916810167ffffffffffffffff81118282101715610b6257610b62610bc2565b604052919050565b600067ffffffffffffffff821115610b8457610b84610bc2565b50601f01601f191660200190565b60005b83811015610bad578181015183820152602001610b95565b83811115610bbc576000848401525b50505050565b7f4e487b7100000000000000000000000000000000000000000000000000000000600052604160045260246000fdfea26469706673582212204682222a63eed05e99d91c2d17f111562024173b90fad4457350c7488fd8961a64736f6c63430008070033",
  "linkReferences": {},
  "deployedLinkReferences": {}
}