{
  "_format": "hh-sol-artifact-1",
  "contractName": "LSP7CompatibleERC20InitTester",
  "sourceName": "contracts/Helpers/Tokens/LSP7CompatibleERC20InitTester.sol",
  "abi": [
    {
      "inputs": [],
      "name": "LSP4TokenNameNotEditable",
      "type": "error"
    },
    {
      "inputs": [],
      "name": "LSP4TokenSymbolNotEditable",
      "type": "error"
    },
    {
      "inputs": [
        {
          "internalType": "address",
          "name": "tokenOwner",
          "type": "address"
        },
        {
          "internalType": "uint256",
          "name": "authorizedAmount",
          "type": "uint256"
        },
        {
          "internalType": "address",
          "name": "operator",
          "type": "address"
        },
        {
          "internalType": "uint256",
          "name": "amount",
          "type": "uint256"
        }
      ],
      "name": "LSP7AmountExceedsAuthorizedAmount",
      "type": "error"
    },
    {
      "inputs": [
        {
          "internalType": "uint256",
          "name": "balance",
          "type": "uint256"
        },
        {
          "internalType": "address",
          "name": "tokenOwner",
          "type": "address"
        },
        {
          "internalType": "uint256",
          "name": "amount",
          "type": "uint256"
        }
      ],
      "name": "LSP7AmountExceedsBalance",
      "type": "error"
    },
    {
      "inputs": [],
      "name": "LSP7CannotSendWithAddressZero",
      "type": "error"
    },
    {
      "inputs": [],
      "name": "LSP7CannotUseAddressZeroAsOperator",
      "type": "error"
    },
    {
      "inputs": [],
      "name": "LSP7InvalidTransferBatch",
      "type": "error"
    },
    {
      "inputs": [
        {
          "internalType": "address",
          "name": "tokenReceiver",
          "type": "address"
        }
      ],
      "name": "LSP7NotifyTokenReceiverContractMissingLSP1Interface",
      "type": "error"
    },
    {
      "inputs": [
        {
          "internalType": "address",
          "name": "tokenReceiver",
          "type": "address"
        }
      ],
      "name": "LSP7NotifyTokenReceiverIsEOA",
      "type": "error"
    },
    {
      "anonymous": false,
      "inputs": [
        {
          "indexed": true,
          "internalType": "address",
          "name": "owner",
          "type": "address"
        },
        {
          "indexed": true,
          "internalType": "address",
          "name": "spender",
          "type": "address"
        },
        {
          "indexed": false,
          "internalType": "uint256",
          "name": "value",
          "type": "uint256"
        }
      ],
      "name": "Approval",
      "type": "event"
    },
    {
      "anonymous": false,
      "inputs": [
        {
          "indexed": true,
          "internalType": "address",
          "name": "operator",
          "type": "address"
        },
        {
          "indexed": true,
          "internalType": "address",
          "name": "tokenOwner",
          "type": "address"
        },
        {
          "indexed": true,
          "internalType": "uint256",
          "name": "amount",
          "type": "uint256"
        }
      ],
      "name": "AuthorizedOperator",
      "type": "event"
    },
    {
      "anonymous": false,
      "inputs": [
        {
          "indexed": true,
          "internalType": "bytes32",
          "name": "dataKey",
          "type": "bytes32"
        }
      ],
      "name": "DataChanged",
      "type": "event"
    },
    {
      "anonymous": false,
      "inputs": [
        {
          "indexed": false,
          "internalType": "uint8",
          "name": "version",
          "type": "uint8"
        }
      ],
      "name": "Initialized",
      "type": "event"
    },
    {
      "anonymous": false,
      "inputs": [
        {
          "indexed": true,
          "internalType": "address",
          "name": "previousOwner",
          "type": "address"
        },
        {
          "indexed": true,
          "internalType": "address",
          "name": "newOwner",
          "type": "address"
        }
      ],
      "name": "OwnershipTransferred",
      "type": "event"
    },
    {
      "anonymous": false,
      "inputs": [
        {
          "indexed": true,
          "internalType": "address",
          "name": "operator",
          "type": "address"
        },
        {
          "indexed": true,
          "internalType": "address",
          "name": "tokenOwner",
          "type": "address"
        }
      ],
      "name": "RevokedOperator",
      "type": "event"
    },
    {
      "anonymous": false,
      "inputs": [
        {
          "indexed": true,
          "internalType": "address",
          "name": "from",
          "type": "address"
        },
        {
          "indexed": true,
          "internalType": "address",
          "name": "to",
          "type": "address"
        },
        {
          "indexed": false,
          "internalType": "uint256",
          "name": "value",
          "type": "uint256"
        }
      ],
      "name": "Transfer",
      "type": "event"
    },
    {
      "anonymous": false,
      "inputs": [
        {
          "indexed": true,
          "internalType": "address",
          "name": "operator",
          "type": "address"
        },
        {
          "indexed": true,
          "internalType": "address",
          "name": "from",
          "type": "address"
        },
        {
          "indexed": true,
          "internalType": "address",
          "name": "to",
          "type": "address"
        },
        {
          "indexed": false,
          "internalType": "uint256",
          "name": "amount",
          "type": "uint256"
        },
        {
          "indexed": false,
          "internalType": "bool",
          "name": "force",
          "type": "bool"
        },
        {
          "indexed": false,
          "internalType": "bytes",
          "name": "data",
          "type": "bytes"
        }
      ],
      "name": "Transfer",
      "type": "event"
    },
    {
      "inputs": [
        {
          "internalType": "address",
          "name": "tokenOwner",
          "type": "address"
        },
        {
          "internalType": "address",
          "name": "operator",
          "type": "address"
        }
      ],
      "name": "allowance",
      "outputs": [
        {
          "internalType": "uint256",
          "name": "",
          "type": "uint256"
        }
      ],
      "stateMutability": "view",
      "type": "function"
    },
    {
      "inputs": [
        {
          "internalType": "address",
          "name": "operator",
          "type": "address"
        },
        {
          "internalType": "uint256",
          "name": "amount",
          "type": "uint256"
        }
      ],
      "name": "approve",
      "outputs": [
        {
          "internalType": "bool",
          "name": "",
          "type": "bool"
        }
      ],
      "stateMutability": "nonpayable",
      "type": "function"
    },
    {
      "inputs": [
        {
          "internalType": "address",
          "name": "operator",
          "type": "address"
        },
        {
          "internalType": "uint256",
          "name": "amount",
          "type": "uint256"
        }
      ],
      "name": "authorizeOperator",
      "outputs": [],
      "stateMutability": "nonpayable",
      "type": "function"
    },
    {
      "inputs": [
        {
          "internalType": "address",
          "name": "tokenOwner",
          "type": "address"
        }
      ],
      "name": "balanceOf",
      "outputs": [
        {
          "internalType": "uint256",
          "name": "",
          "type": "uint256"
        }
      ],
      "stateMutability": "view",
      "type": "function"
    },
    {
      "inputs": [
        {
          "internalType": "address",
          "name": "from",
          "type": "address"
        },
        {
          "internalType": "uint256",
          "name": "amount",
          "type": "uint256"
        },
        {
          "internalType": "bytes",
          "name": "data",
          "type": "bytes"
        }
      ],
      "name": "burn",
      "outputs": [],
      "stateMutability": "nonpayable",
      "type": "function"
    },
    {
      "inputs": [],
      "name": "decimals",
      "outputs": [
        {
          "internalType": "uint256",
          "name": "",
          "type": "uint256"
        }
      ],
      "stateMutability": "view",
      "type": "function"
    },
    {
      "inputs": [
        {
          "internalType": "bytes32[]",
          "name": "dataKeys",
          "type": "bytes32[]"
        }
      ],
      "name": "getData",
      "outputs": [
        {
          "internalType": "bytes[]",
          "name": "dataValues",
          "type": "bytes[]"
        }
      ],
      "stateMutability": "view",
      "type": "function"
    },
    {
      "inputs": [
        {
          "internalType": "bytes32",
          "name": "dataKey",
          "type": "bytes32"
        }
      ],
      "name": "getData",
      "outputs": [
        {
          "internalType": "bytes",
          "name": "dataValue",
          "type": "bytes"
        }
      ],
      "stateMutability": "view",
      "type": "function"
    },
    {
      "inputs": [
        {
          "internalType": "string",
          "name": "name_",
          "type": "string"
        },
        {
          "internalType": "string",
          "name": "symbol_",
          "type": "string"
        },
        {
          "internalType": "address",
          "name": "newOwner_",
          "type": "address"
        }
      ],
      "name": "initialize",
      "outputs": [],
      "stateMutability": "nonpayable",
      "type": "function"
    },
    {
      "inputs": [],
      "name": "initialized",
      "outputs": [
        {
          "internalType": "uint8",
          "name": "",
          "type": "uint8"
        }
      ],
      "stateMutability": "view",
      "type": "function"
    },
    {
      "inputs": [],
      "name": "initializing",
      "outputs": [
        {
          "internalType": "bool",
          "name": "",
          "type": "bool"
        }
      ],
      "stateMutability": "view",
      "type": "function"
    },
    {
      "inputs": [
        {
          "internalType": "address",
          "name": "operator",
          "type": "address"
        },
        {
          "internalType": "address",
          "name": "tokenOwner",
          "type": "address"
        }
      ],
      "name": "isOperatorFor",
      "outputs": [
        {
          "internalType": "uint256",
          "name": "",
          "type": "uint256"
        }
      ],
      "stateMutability": "view",
      "type": "function"
    },
    {
      "inputs": [
        {
          "internalType": "address",
          "name": "to",
          "type": "address"
        },
        {
          "internalType": "uint256",
          "name": "amount",
          "type": "uint256"
        },
        {
          "internalType": "bytes",
          "name": "data",
          "type": "bytes"
        }
      ],
      "name": "mint",
      "outputs": [],
      "stateMutability": "nonpayable",
      "type": "function"
    },
    {
      "inputs": [],
      "name": "name",
      "outputs": [
        {
          "internalType": "string",
          "name": "",
          "type": "string"
        }
      ],
      "stateMutability": "view",
      "type": "function"
    },
    {
      "inputs": [],
      "name": "owner",
      "outputs": [
        {
          "internalType": "address",
          "name": "",
          "type": "address"
        }
      ],
      "stateMutability": "view",
      "type": "function"
    },
    {
      "inputs": [],
      "name": "renounceOwnership",
      "outputs": [],
      "stateMutability": "nonpayable",
      "type": "function"
    },
    {
      "inputs": [
        {
          "internalType": "address",
          "name": "operator",
          "type": "address"
        }
      ],
      "name": "revokeOperator",
      "outputs": [],
      "stateMutability": "nonpayable",
      "type": "function"
    },
    {
      "inputs": [
        {
          "internalType": "bytes32[]",
          "name": "dataKeys",
          "type": "bytes32[]"
        },
        {
          "internalType": "bytes[]",
          "name": "dataValues",
          "type": "bytes[]"
        }
      ],
      "name": "setData",
      "outputs": [],
      "stateMutability": "nonpayable",
      "type": "function"
    },
    {
      "inputs": [
        {
          "internalType": "bytes32",
          "name": "dataKey",
          "type": "bytes32"
        },
        {
          "internalType": "bytes",
          "name": "dataValue",
          "type": "bytes"
        }
      ],
      "name": "setData",
      "outputs": [],
      "stateMutability": "nonpayable",
      "type": "function"
    },
    {
      "inputs": [
        {
          "internalType": "bytes4",
          "name": "interfaceId",
          "type": "bytes4"
        }
      ],
      "name": "supportsInterface",
      "outputs": [
        {
          "internalType": "bool",
          "name": "",
          "type": "bool"
        }
      ],
      "stateMutability": "view",
      "type": "function"
    },
    {
      "inputs": [],
      "name": "symbol",
      "outputs": [
        {
          "internalType": "string",
          "name": "",
          "type": "string"
        }
      ],
      "stateMutability": "view",
      "type": "function"
    },
    {
      "inputs": [],
      "name": "totalSupply",
      "outputs": [
        {
          "internalType": "uint256",
          "name": "",
          "type": "uint256"
        }
      ],
      "stateMutability": "view",
      "type": "function"
    },
    {
      "inputs": [
        {
          "internalType": "address",
          "name": "from",
          "type": "address"
        },
        {
          "internalType": "address",
          "name": "to",
          "type": "address"
        },
        {
          "internalType": "uint256",
          "name": "amount",
          "type": "uint256"
        },
        {
          "internalType": "bool",
          "name": "force",
          "type": "bool"
        },
        {
          "internalType": "bytes",
          "name": "data",
          "type": "bytes"
        }
      ],
      "name": "transfer",
      "outputs": [],
      "stateMutability": "nonpayable",
      "type": "function"
    },
    {
      "inputs": [
        {
          "internalType": "address",
          "name": "to",
          "type": "address"
        },
        {
          "internalType": "uint256",
          "name": "amount",
          "type": "uint256"
        }
      ],
      "name": "transfer",
      "outputs": [
        {
          "internalType": "bool",
          "name": "",
          "type": "bool"
        }
      ],
      "stateMutability": "nonpayable",
      "type": "function"
    },
    {
      "inputs": [
        {
          "internalType": "address[]",
          "name": "from",
          "type": "address[]"
        },
        {
          "internalType": "address[]",
          "name": "to",
          "type": "address[]"
        },
        {
          "internalType": "uint256[]",
          "name": "amount",
          "type": "uint256[]"
        },
        {
          "internalType": "bool",
          "name": "force",
          "type": "bool"
        },
        {
          "internalType": "bytes[]",
          "name": "data",
          "type": "bytes[]"
        }
      ],
      "name": "transferBatch",
      "outputs": [],
      "stateMutability": "nonpayable",
      "type": "function"
    },
    {
      "inputs": [
        {
          "internalType": "address",
          "name": "from",
          "type": "address"
        },
        {
          "internalType": "address",
          "name": "to",
          "type": "address"
        },
        {
          "internalType": "uint256",
          "name": "amount",
          "type": "uint256"
        }
      ],
      "name": "transferFrom",
      "outputs": [
        {
          "internalType": "bool",
          "name": "",
          "type": "bool"
        }
      ],
      "stateMutability": "nonpayable",
      "type": "function"
    },
    {
      "inputs": [
        {
          "internalType": "address",
          "name": "newOwner",
          "type": "address"
        }
      ],
      "name": "transferOwnership",
      "outputs": [],
      "stateMutability": "nonpayable",
      "type": "function"
    }
  ],
  "bytecode": "0x60806040523480156200001157600080fd5b506200001c62000022565b62000152565b6200002e60ff62000031565b50565b60008054610100900460ff1615620000ca578160ff1660011480156200006a575062000068306200014360201b62000a741760201c565b155b620000c25760405162461bcd60e51b815260206004820152602e60248201526000805160206200274383398151915260448201526d191e481a5b9a5d1a585b1a5e995960921b60648201526084015b60405180910390fd5b506000919050565b60005460ff808416911610620001295760405162461bcd60e51b815260206004820152602e60248201526000805160206200274383398151915260448201526d191e481a5b9a5d1a585b1a5e995960921b6064820152608401620000b9565b506000805460ff191660ff92909216919091179055600190565b6001600160a01b03163b151590565b6125e180620001626000396000f3fe608060405234801561001057600080fd5b50600436106101b95760003560e01c806354f6127f116100f957806395d89b4111610097578063d95b637111610071578063d95b6371146103a3578063dd62ed3e146103b6578063f2fde38b146103c9578063fad8b32a146103dc57600080fd5b806395d89b4114610375578063a8a34e0a1461037d578063a9059cbb1461039057600080fd5b8063760d9bba116100d3578063760d9bba146103125780637f23690c146103255780638da5cb5b1461033857806394d008ef1461036257600080fd5b806354f6127f146102ce57806370a08231146102e1578063715018a61461030a57600080fd5b806318160ddd11610166578063313ce56711610140578063313ce5671461028057806344d171871461028857806347980aa31461029b5780634e3e6e9c146102ae57600080fd5b806318160ddd1461024b57806323b872dd1461025d5780632599f1591461027057600080fd5b8063095ea7b311610197578063095ea7b31461021057806314a6e29314610223578063158ef93e1461023657600080fd5b806301ffc9a7146101be57806306fdde03146101e6578063077f224a146101fb575b600080fd5b6101d16101cc3660046121cf565b6103ef565b60405190151581526020015b60405180910390f35b6101ee610433565b6040516101dd919061240d565b61020e610209366004612270565b610460565b005b6101d161021e366004611f1b565b6104db565b61020e610231366004612115565b6104f0565b60005460405160ff90911681526020016101dd565b6003545b6040519081526020016101dd565b6101d161026b366004611e66565b6105c9565b600054610100900460ff166101d1565b61024f6105f2565b61020e610296366004611f45565b610611565b61020e6102a9366004611f1b565b610652565b6102c16102bc3660046120d8565b610660565b6040516101dd9190612392565b6101ee6102dc366004612179565b610714565b61024f6102ef366004611e18565b6001600160a01b031660009081526004602052604090205490565b61020e61071f565b61020e610320366004611ea2565b610733565b61020e610333366004612192565b6107d7565b6000546201000090046001600160a01b03166040516001600160a01b0390911681526020016101dd565b61020e610370366004611f45565b6107e9565b6101ee61082c565b61020e61038b366004611fcc565b610859565b6101d161039e366004611f1b565b61093f565b61024f6103b1366004611e33565b61095e565b61024f6103c4366004611e33565b6109c5565b61020e6103d7366004611e18565b6109d8565b61020e6103ea366004611e18565b610a68565b60006001600160e01b031982167fe33f65c300000000000000000000000000000000000000000000000000000000148061042d575061042d82610a83565b92915050565b6060600061042d7fdeba1e292f8ba88238e10ab3c7f88bd4be4fac56cad5194b6ecceaf653468af1610ad1565b600061046c6001610b73565b90508015610484576000805461ff0019166101001790555b61048f848484610cac565b80156104d5576000805461ff0019169055604051600181527f7f26b83ff96e1f2b6a682f133852f6798a09c465da95921460cefb38474024989060200160405180910390a15b50505050565b60006104e78383610652565b50600192915050565b6104f8610d24565b80518251146105745760405162461bcd60e51b815260206004820152602660248201527f4b657973206c656e677468206e6f7420657175616c20746f2076616c7565732060448201527f6c656e677468000000000000000000000000000000000000000000000000000060648201526084015b60405180910390fd5b60005b82518110156105c4576105bc8382815181106105955761059561257f565b60200260200101518383815181106105af576105af61257f565b6020026020010151610d85565b600101610577565b505050565b60006105e8848484600160405180602001604052806000815250610733565b5060019392505050565b60025460009060ff16610606576012610609565b60005b60ff16905090565b6104d5848484848080601f016020809104026020016040519081016040528093929190818152602001838380828437600092019190915250610d8f92505050565b61065c8282610d9a565b5050565b6060815167ffffffffffffffff81111561067c5761067c612595565b6040519080825280602002602001820160405280156106af57816020015b606081526020019060019003908161069a5790505b50905060005b825181101561070e576106e08382815181106106d3576106d361257f565b6020026020010151610ad1565b8282815181106106f2576106f261257f565b60200260200101819052506107078160010190565b90506106b5565b50919050565b606061042d82610ad1565b610727610d24565b6107316000610de8565b565b336001600160a01b03861681146107c2576001600160a01b03808716600090815260056020908152604080832093851683529290522054808511156107ac5760405163f3a6b69160e01b81526001600160a01b03808916600483015260248201839052831660448201526064810186905260840161056b565b6107c087836107bb88856124d6565b610e74565b505b6107cf8686868686610f8c565b505050505050565b6107df610d24565b61065c8282610d85565b6104d58484600185858080601f016020809104026020016040519081016040528093929190818152602001838380828437600092019190915250610fa092505050565b6060600061042d7f2f0a68ab07768e01943a599e73362a0e17a63a72e94dd2e384d2c1d4db932756610ad1565b8351855114158061086c57508251855114155b8061087957508051855114155b156108b0576040517f263eee8d00000000000000000000000000000000000000000000000000000000815260040160405180910390fd5b60005b85518110156107cf5761092d8682815181106108d1576108d161257f565b60200260200101518683815181106108eb576108eb61257f565b60200260200101518684815181106109055761090561257f565b6020026020010151868686815181106109205761092061257f565b6020026020010151610733565b806109378161254e565b9150506108b3565b60006104e7338484600160405180602001604052806000815250610733565b6000826001600160a01b0316826001600160a01b0316141561099957506001600160a01b03811660009081526004602052604090205461042d565b506001600160a01b0380821660009081526005602090815260408083209386168352929052205461042d565b60006109d1828461095e565b9392505050565b6109e0610d24565b6001600160a01b038116610a5c5760405162461bcd60e51b815260206004820152602660248201527f4f776e61626c653a206e6577206f776e657220697320746865207a65726f206160448201527f6464726573730000000000000000000000000000000000000000000000000000606482015260840161056b565b610a6581610de8565b50565b610a6533826000610e74565b6001600160a01b03163b151590565b60006001600160e01b031982167f714df77c00000000000000000000000000000000000000000000000000000000148061042d57506301ffc9a760e01b6001600160e01b031983161461042d565b6000818152600160205260409020805460609190610aee90612519565b80601f0160208091040260200160405190810160405280929190818152602001828054610b1a90612519565b8015610b675780601f10610b3c57610100808354040283529160200191610b67565b820191906000526020600020905b815481529060010190602001808311610b4a57829003601f168201915b50505050509050919050565b60008054610100900460ff1615610c10578160ff166001148015610b965750303b155b610c085760405162461bcd60e51b815260206004820152602e60248201527f496e697469616c697a61626c653a20636f6e747261637420697320616c72656160448201527f647920696e697469616c697a6564000000000000000000000000000000000000606482015260840161056b565b506000919050565b60005460ff808416911610610c8d5760405162461bcd60e51b815260206004820152602e60248201527f496e697469616c697a61626c653a20636f6e747261637420697320616c72656160448201527f647920696e697469616c697a6564000000000000000000000000000000000000606482015260840161056b565b506000805460ff191660ff92909216919091179055600190565b919050565b600054610100900460ff16610d175760405162461bcd60e51b815260206004820152602b60248201527f496e697469616c697a61626c653a20636f6e7472616374206973206e6f74206960448201526a6e697469616c697a696e6760a81b606482015260840161056b565b6105c48383836000610fac565b6000546001600160a01b03620100009091041633146107315760405162461bcd60e51b815260206004820181905260248201527f4f776e61626c653a2063616c6c6572206973206e6f7420746865206f776e6572604482015260640161056b565b61065c8282611030565b6105c48383836110ee565b610da4828261113f565b6040518181526001600160a01b0383169033907f8c5be1e5ebec7d5bd14f71427d1e84f3dd0314c0f7b2291e5b200ac8c7c3b9259060200160405180910390a35050565b6000546001600160a01b03828116620100009092041614610a6557600080546001600160a01b03838116620100008181027fffffffffffffffffffff0000000000000000000000000000000000000000ffff851617855560405193049190911692909183917f8be0079c531659141344cd1fd0a4f28419497f9722a3daafe3b4186f6b6457e091a35050565b6001600160a01b038216610eb4576040517f6355e76600000000000000000000000000000000000000000000000000000000815260040160405180910390fd5b826001600160a01b0316826001600160a01b03161415610ed357505050565b6001600160a01b0380841660009081526005602090815260408083209386168352929052208190558015610f475780836001600160a01b0316836001600160a01b03167fd66aff874162a96578e919097b6f6d153dfd89a5cec41bb331fdb0c4aec16e2c60405160405180910390a4505050565b826001600160a01b0316826001600160a01b03167f50546e66e5f44d728365dc3908c63bc5cfeeab470722c1677e3073a6ac294aa160405160405180910390a3505050565b610f99858585858561114a565b5050505050565b6104d5848484846111ab565b600054610100900460ff166110175760405162461bcd60e51b815260206004820152602b60248201527f496e697469616c697a61626c653a20636f6e7472616374206973206e6f74206960448201526a6e697469616c697a696e6760a81b606482015260840161056b565b6002805460ff19168215151790556104d58484846111fe565b7fdeba1e292f8ba88238e10ab3c7f88bd4be4fac56cad5194b6ecceaf653468af182141561108a576040517f85c169bd00000000000000000000000000000000000000000000000000000000815260040160405180910390fd5b7f2f0a68ab07768e01943a599e73362a0e17a63a72e94dd2e384d2c1d4db9327568214156110e4576040517f76755b3800000000000000000000000000000000000000000000000000000000815260040160405180910390fd5b61065c8282611324565b6110f9838383611373565b6040518281526000906001600160a01b038516907fddf252ad1be2c89b69c2b068fc378daa952ba7f163c4a11628f55a4df523b3ef9060200160405180910390a3505050565b61065c338383610e74565b6111578585858585611547565b836001600160a01b0316856001600160a01b03167fddf252ad1be2c89b69c2b068fc378daa952ba7f163c4a11628f55a4df523b3ef8560405161119c91815260200190565b60405180910390a35050505050565b6111b7848484846116b8565b6040518381526001600160a01b038516906000907fddf252ad1be2c89b69c2b068fc378daa952ba7f163c4a11628f55a4df523b3ef9060200160405180910390a350505050565b600054610100900460ff166112695760405162461bcd60e51b815260206004820152602b60248201527f496e697469616c697a61626c653a20636f6e7472616374206973206e6f74206960448201526a6e697469616c697a696e6760a81b606482015260840161056b565b61127281611783565b6112d47feafec4d89fa9619884b60000a4d96624a38f7ac2d8d9a604ecf07c12c77e480c60001b6040518060400160405280600481526020017fa4d9662400000000000000000000000000000000000000000000000000000000815250611324565b6112fe7fdeba1e292f8ba88238e10ab3c7f88bd4be4fac56cad5194b6ecceaf653468af184611324565b6105c47f2f0a68ab07768e01943a599e73362a0e17a63a72e94dd2e384d2c1d4db932756835b6000828152600160209081526040909120825161134392840190611b9c565b5060405182907fcdf4e344c0d23d4cdd0474039d176c55b19d531070dbe17856bfb993a5b5720b90600090a25050565b6001600160a01b03831661139a57604051630d2d5ec360e41b815260040160405180910390fd5b6001600160a01b038316600090815260046020526040902054808311156113ed576040516308d4794960e01b8152600481018290526001600160a01b03851660248201526044810184905260640161056b565b336001600160a01b03851681146114a4576001600160a01b03808616600090815260056020908152604080832093851683529290522054808511156114665760405163f3a6b69160e01b81526001600160a01b03808816600483015260248201839052831660448201526064810186905260840161056b565b6001600160a01b0380871660009081526005602090815260408083209386168352929052908120805487929061149d9084906124d6565b9091555050505b6114b0856000866117ee565b6001600160a01b038516600090815260046020526040812080548692906114d89084906124d6565b9250508190555060006001600160a01b0316856001600160a01b0316826001600160a01b03167f3997e418d2cef0b3b0e907b1e39605c3f7d32dbd061e82ea5b4a770d46a160a68760008860405161153293929190612420565b60405180910390a4610f99856000868661183e565b6001600160a01b038516158061156457506001600160a01b038416155b1561158257604051630d2d5ec360e41b815260040160405180910390fd5b6001600160a01b038516600090815260046020526040902054808411156115d5576040516308d4794960e01b8152600481018290526001600160a01b03871660248201526044810185905260640161056b565b336115e18787876117ee565b6001600160a01b038716600090815260046020526040812080548792906116099084906124d6565b90915550506001600160a01b038616600090815260046020526040812080548792906116369084906124be565b92505081905550856001600160a01b0316876001600160a01b0316826001600160a01b03167f3997e418d2cef0b3b0e907b1e39605c3f7d32dbd061e82ea5b4a770d46a160a688888860405161168e93929190612420565b60405180910390a46116a28787878661183e565b6116af8787878787611921565b50505050505050565b6001600160a01b0384166116df57604051630d2d5ec360e41b815260040160405180910390fd5b336116ec600086866117ee565b6001600160a01b038516600090815260046020526040812080548692906117149084906124be565b92505081905550846001600160a01b031660006001600160a01b0316826001600160a01b03167f3997e418d2cef0b3b0e907b1e39605c3f7d32dbd061e82ea5b4a770d46a160a687878760405161176d93929190612420565b60405180910390a4610f99600086868686611921565b600054610100900460ff16610a5c5760405162461bcd60e51b815260206004820152602b60248201527f496e697469616c697a61626c653a20636f6e7472616374206973206e6f74206960448201526a6e697469616c697a696e6760a81b606482015260840161056b565b6001600160a01b03831661181457806003600082825461180e91906124be565b90915550505b6001600160a01b0382166105c457806003600082825461183491906124d6565b9091555050505050565b61184f84631aed5a8560e21b611a9a565b156104d55760008484848460405160200161186d9493929190612329565b60408051601f1981840301815290829052631aed5a8560e21b825291506001600160a01b03861690636bb56a14906118cb907f40b8bec57d7b5ff0dbd9e9acd0a47dfeb0101e1a203766f5ccab00445fbf39e99085906004016123f4565b600060405180830381600087803b1580156118e557600080fd5b505af11580156118f9573d6000803e3d6000fd5b505050506040513d6000823e601f3d908101601f191682016040526107cf91908101906121f9565b61193284631aed5a8560e21b611a9a565b15611a0b576000858585846040516020016119509493929190612329565b60408051601f1981840301815290829052631aed5a8560e21b825291506001600160a01b03861690636bb56a14906119ae907fdbe2c314e1aee2970c72666f2ebe8933a8575263ea71e5ff6a9178e95d47a26f9085906004016123f4565b600060405180830381600087803b1580156119c857600080fd5b505af11580156119dc573d6000803e3d6000fd5b505050506040513d6000823e601f3d908101601f19168201604052611a0491908101906121f9565b5050610f99565b81610f99576001600160a01b0384163b15611a5d576040517fa608fbb60000000000000000000000000000000000000000000000000000000081526001600160a01b038516600482015260240161056b565b6040517f26c247f40000000000000000000000000000000000000000000000000000000081526001600160a01b038516600482015260240161056b565b604080516001600160e01b0319831660248083019190915282518083039091018152604490910182526020810180517bffffffffffffffffffffffffffffffffffffffffffffffffffffffff166301ffc9a760e01b179052905160009190829081906001600160a01b0387169061753090611b16908690612376565b6000604051808303818686fa925050503d8060008114611b52576040519150601f19603f3d011682016040523d82523d6000602084013e611b57565b606091505b5091509150602081511015611b72576000935050505061042d565b818015611b925750600081806020019051810190611b9091906122e4565b115b9695505050505050565b828054611ba890612519565b90600052602060002090601f016020900481019282611bca5760008555611c10565b82601f10611be357805160ff1916838001178555611c10565b82800160010185558215611c10579182015b82811115611c10578251825591602001919060010190611bf5565b50611c1c929150611c20565b5090565b5b80821115611c1c5760008155600101611c21565b80356001600160a01b0381168114610ca757600080fd5b600082601f830112611c5d57600080fd5b81356020611c72611c6d83612472565b612441565b80838252828201915082860187848660051b8901011115611c9257600080fd5b60005b85811015611cb857611ca682611c35565b84529284019290840190600101611c95565b5090979650505050505050565b600082601f830112611cd657600080fd5b81356020611ce6611c6d83612472565b80838252828201915082860187848660051b8901011115611d0657600080fd5b60005b85811015611cb857813584529284019290840190600101611d09565b600082601f830112611d3657600080fd5b81356020611d46611c6d83612472565b80838252828201915082860187848660051b8901011115611d6657600080fd5b6000805b86811015611da957823567ffffffffffffffff811115611d88578283fd5b611d968b88838d0101611dc7565b8652509385019391850191600101611d6a565b509198975050505050505050565b80358015158114610ca757600080fd5b600082601f830112611dd857600080fd5b8135611de6611c6d82612496565b818152846020838601011115611dfb57600080fd5b816020850160208301376000918101602001919091529392505050565b600060208284031215611e2a57600080fd5b6109d182611c35565b60008060408385031215611e4657600080fd5b611e4f83611c35565b9150611e5d60208401611c35565b90509250929050565b600080600060608486031215611e7b57600080fd5b611e8484611c35565b9250611e9260208501611c35565b9150604084013590509250925092565b600080600080600060a08688031215611eba57600080fd5b611ec386611c35565b9450611ed160208701611c35565b935060408601359250611ee660608701611db7565b9150608086013567ffffffffffffffff811115611f0257600080fd5b611f0e88828901611dc7565b9150509295509295909350565b60008060408385031215611f2e57600080fd5b611f3783611c35565b946020939093013593505050565b60008060008060608587031215611f5b57600080fd5b611f6485611c35565b935060208501359250604085013567ffffffffffffffff80821115611f8857600080fd5b818701915087601f830112611f9c57600080fd5b813581811115611fab57600080fd5b886020828501011115611fbd57600080fd5b95989497505060200194505050565b600080600080600060a08688031215611fe457600080fd5b853567ffffffffffffffff80821115611ffc57600080fd5b61200889838a01611c4c565b965060209150818801358181111561201f57600080fd5b61202b8a828b01611c4c565b96505060408801358181111561204057600080fd5b8801601f81018a1361205157600080fd5b803561205f611c6d82612472565b8082825285820191508584018d878560051b870101111561207f57600080fd5b600094505b838510156120a2578035835260019490940193918601918601612084565b5097506120b59250505060608901611db7565b935060808801359150808211156120cb57600080fd5b50611f0e88828901611d25565b6000602082840312156120ea57600080fd5b813567ffffffffffffffff81111561210157600080fd5b61210d84828501611cc5565b949350505050565b6000806040838503121561212857600080fd5b823567ffffffffffffffff8082111561214057600080fd5b61214c86838701611cc5565b9350602085013591508082111561216257600080fd5b5061216f85828601611d25565b9150509250929050565b60006020828403121561218b57600080fd5b5035919050565b600080604083850312156121a557600080fd5b82359150602083013567ffffffffffffffff8111156121c357600080fd5b61216f85828601611dc7565b6000602082840312156121e157600080fd5b81356001600160e01b0319811681146109d157600080fd5b60006020828403121561220b57600080fd5b815167ffffffffffffffff81111561222257600080fd5b8201601f8101841361223357600080fd5b8051612241611c6d82612496565b81815285602083850101111561225657600080fd5b6122678260208301602086016124ed565b95945050505050565b60008060006060848603121561228557600080fd5b833567ffffffffffffffff8082111561229d57600080fd5b6122a987838801611dc7565b945060208601359150808211156122bf57600080fd5b506122cc86828701611dc7565b9250506122db60408501611c35565b90509250925092565b6000602082840312156122f657600080fd5b5051919050565b600081518084526123158160208601602086016124ed565b601f01601f19169290920160200192915050565b60006bffffffffffffffffffffffff19808760601b168352808660601b1660148401525083602883015282516123668160488501602087016124ed565b9190910160480195945050505050565b600082516123888184602087016124ed565b9190910192915050565b6000602080830181845280855180835260408601915060408160051b870101925083870160005b828110156123e757603f198886030184526123d58583516122fd565b945092850192908501906001016123b9565b5092979650505050505050565b82815260406020820152600061210d60408301846122fd565b6020815260006109d160208301846122fd565b838152821515602082015260606040820152600061226760608301846122fd565b604051601f8201601f1916810167ffffffffffffffff8111828210171561246a5761246a612595565b604052919050565b600067ffffffffffffffff82111561248c5761248c612595565b5060051b60200190565b600067ffffffffffffffff8211156124b0576124b0612595565b50601f01601f191660200190565b600082198211156124d1576124d1612569565b500190565b6000828210156124e8576124e8612569565b500390565b60005b838110156125085781810151838201526020016124f0565b838111156104d55750506000910152565b600181811c9082168061252d57607f821691505b6020821081141561070e57634e487b7160e01b600052602260045260246000fd5b600060001982141561256257612562612569565b5060010190565b634e487b7160e01b600052601160045260246000fd5b634e487b7160e01b600052603260045260246000fd5b634e487b7160e01b600052604160045260246000fdfea26469706673582212203440ec53329d210e7913d0a32e945f9c6a2495478624a5bafeecae1e472957e764736f6c63430008070033496e697469616c697a61626c653a20636f6e747261637420697320616c726561",
  "linkReferences": {},
  "deployedLinkReferences": {}
}