{
  "_format": "hh-sol-artifact-1",
  "contractName": "UniversalReceiverAddressStore",
  "sourceName": "contracts/Legacy/UniversalReceiverAddressStore.sol",
  "abi": [
    {
      "inputs": [
        {
          "internalType": "address",
          "name": "_account",
          "type": "address"
        }
      ],
      "stateMutability": "nonpayable",
      "type": "constructor"
    },
    {
      "inputs": [],
      "name": "account",
      "outputs": [
        {
          "internalType": "address",
          "name": "",
          "type": "address"
        }
      ],
      "stateMutability": "view",
      "type": "function"
    },
    {
      "inputs": [
        {
          "internalType": "address",
          "name": "_address",
          "type": "address"
        }
      ],
      "name": "addAddress",
      "outputs": [
        {
          "internalType": "bool",
          "name": "",
          "type": "bool"
        }
      ],
      "stateMutability": "nonpayable",
      "type": "function"
    },
    {
      "inputs": [
        {
          "internalType": "address",
          "name": "_address",
          "type": "address"
        }
      ],
      "name": "containsAddress",
      "outputs": [
        {
          "internalType": "bool",
          "name": "",
          "type": "bool"
        }
      ],
      "stateMutability": "view",
      "type": "function"
    },
    {
      "inputs": [
        {
          "internalType": "uint256",
          "name": "_index",
          "type": "uint256"
        }
      ],
      "name": "getAddress",
      "outputs": [
        {
          "internalType": "address",
          "name": "",
          "type": "address"
        }
      ],
      "stateMutability": "view",
      "type": "function"
    },
    {
      "inputs": [],
      "name": "getAllRawValues",
      "outputs": [
        {
          "internalType": "bytes32[]",
          "name": "",
          "type": "bytes32[]"
        }
      ],
      "stateMutability": "view",
      "type": "function"
    },
    {
      "inputs": [
        {
          "internalType": "address",
          "name": "_address",
          "type": "address"
        }
      ],
      "name": "getIndex",
      "outputs": [
        {
          "internalType": "uint256",
          "name": "",
          "type": "uint256"
        }
      ],
      "stateMutability": "view",
      "type": "function"
    },
    {
      "inputs": [],
      "name": "length",
      "outputs": [
        {
          "internalType": "uint256",
          "name": "",
          "type": "uint256"
        }
      ],
      "stateMutability": "view",
      "type": "function"
    },
    {
      "inputs": [
        {
          "internalType": "address",
          "name": "_address",
          "type": "address"
        }
      ],
      "name": "removeAddress",
      "outputs": [
        {
          "internalType": "bool",
          "name": "",
          "type": "bool"
        }
      ],
      "stateMutability": "nonpayable",
      "type": "function"
    },
    {
      "inputs": [
        {
          "internalType": "bytes4",
          "name": "interfaceId",
          "type": "bytes4"
        }
      ],
      "name": "supportsInterface",
      "outputs": [
        {
          "internalType": "bool",
          "name": "",
          "type": "bool"
        }
      ],
      "stateMutability": "view",
      "type": "function"
    },
    {
      "inputs": [
        {
          "internalType": "address",
          "name": "sender",
          "type": "address"
        },
        {
          "internalType": "uint256",
          "name": "value",
          "type": "uint256"
        },
        {
          "internalType": "bytes32",
          "name": "typeId",
          "type": "bytes32"
        },
        {
          "internalType": "bytes",
          "name": "",
          "type": "bytes"
        }
      ],
      "name": "universalReceiverDelegate",
      "outputs": [
        {
          "internalType": "bytes",
          "name": "",
          "type": "bytes"
        }
      ],
      "stateMutability": "nonpayable",
      "type": "function"
    }
  ],
  "bytecode": "0x608060405234801561001057600080fd5b50604051610aa5380380610aa583398101604081905261002f916100e3565b600380546001600160a01b0319166001600160a01b03831617905561005a635122dded60e11b610060565b50610113565b6001600160e01b031980821614156100be5760405162461bcd60e51b815260206004820152601c60248201527f4552433136353a20696e76616c696420696e7465726661636520696400000000604482015260640160405180910390fd5b6001600160e01b0319166000908152602081905260409020805460ff19166001179055565b6000602082840312156100f557600080fd5b81516001600160a01b038116811461010c57600080fd5b9392505050565b610983806101226000396000f3fe608060405234801561001057600080fd5b50600436106100be5760003560e01c80635dab242011610076578063b31610db1161005b578063b31610db14610185578063b93f9b0a14610198578063c0a4ebf4146101ab57600080fd5b80635dab24201461013a578063a245bbda1461016557600080fd5b8063322433e3116100a7578063322433e31461010157806338eada1c146101145780634ba79dfe1461012757600080fd5b806301ffc9a7146100c35780631f7b6d32146100eb575b600080fd5b6100d66100d13660046107f2565b6101c0565b60405190151581526020015b60405180910390f35b6100f3610249565b6040519081526020016100e2565b6100d661010f366004610702565b61025a565b6100d6610122366004610702565b610267565b6100d6610135366004610702565b6102ef565b60035461014d906001600160a01b031681565b6040516001600160a01b0390911681526020016100e2565b61017861017336600461071d565b61036d565b6040516100e29190610891565b6100f3610193366004610702565b610438565b61014d6101a6366004610834565b6104b6565b6101b36104c3565b6040516100e2919061084d565b60007f01ffc9a7000000000000000000000000000000000000000000000000000000007fffffffff000000000000000000000000000000000000000000000000000000008316148061024357507fffffffff00000000000000000000000000000000000000000000000000000000821660009081526020819052604090205460ff165b92915050565b6000610255600161051a565b905090565b6000610243600183610524565b6003546000906001600160a01b031633146102df5760405162461bcd60e51b815260206004820152602d60248201527f4f6e6c792074686520636f6e6e6563746564206163636f756e742063616c6c2060448201526c3a3434b990333ab731ba34b7b760991b60648201526084015b60405180910390fd5b610243600183610549565b919050565b6003546000906001600160a01b031633146103625760405162461bcd60e51b815260206004820152602d60248201527f4f6e6c792074686520636f6e6e6563746564206163636f756e742063616c6c2060448201526c3a3434b990333ab731ba34b7b760991b60648201526084016102d6565b61024360018361055e565b6003546060906001600160a01b031633146103e05760405162461bcd60e51b815260206004820152602d60248201527f4f6e6c792074686520636f6e6e6563746564206163636f756e742063616c6c2060448201526c3a3434b990333ab731ba34b7b760991b60648201526084016102d6565b7fb281fc8c12954d22544db45de3159a39272895b169a852b314f9cc762e44c53b8314156104135761041185610267565b505b6040805160208101859052016040516020818303038152906040529050949350505050565b6000610445600183610524565b6104915760405162461bcd60e51b815260206004820152601e60248201527f456e756d657261626c655365743a20496e646578206e6f7420666f756e64000060448201526064016102d6565b6001600160a01b038216600090815260026020526040902054610243906001906108e6565b6000610243600183610573565b60018054604080516020808402820181019092528281526060939092909183018282801561051057602002820191906000526020600020905b8154815260200190600101908083116104fc575b5050505050905090565b6000610243825490565b6001600160a01b038116600090815260018301602052604081205415155b9392505050565b6000610542836001600160a01b03841661057f565b6000610542836001600160a01b0384166105ce565b600061054283836106c1565b60008181526001830160205260408120546105c657508154600181810184556000848152602080822090930184905584548482528286019093526040902091909155610243565b506000610243565b600081815260018301602052604081205480156106b75760006105f26001836108e6565b8554909150600090610606906001906108e6565b905081811461066b57600086600001828154811061062657610626610921565b906000526020600020015490508087600001848154811061064957610649610921565b6000918252602080832090910192909255918252600188019052604090208390555b855486908061067c5761067c61090b565b600190038181906000526020600020016000905590558560010160008681526020019081526020016000206000905560019350505050610243565b6000915050610243565b60008260000182815481106106d8576106d8610921565b9060005260206000200154905092915050565b80356001600160a01b03811681146102ea57600080fd5b60006020828403121561071457600080fd5b610542826106eb565b6000806000806080858703121561073357600080fd5b61073c856106eb565b93506020850135925060408501359150606085013567ffffffffffffffff8082111561076757600080fd5b818701915087601f83011261077b57600080fd5b81358181111561078d5761078d610937565b604051601f8201601f19908116603f011681019083821181831017156107b5576107b5610937565b816040528281528a60208487010111156107ce57600080fd5b82602086016020830137600060208483010152809550505050505092959194509250565b60006020828403121561080457600080fd5b81357fffffffff000000000000000000000000000000000000000000000000000000008116811461054257600080fd5b60006020828403121561084657600080fd5b5035919050565b6020808252825182820181905260009190848201906040850190845b8181101561088557835183529284019291840191600101610869565b50909695505050505050565b600060208083528351808285015260005b818110156108be578581018301518582016040015282016108a2565b818111156108d0576000604083870101525b50601f01601f1916929092016040019392505050565b60008282101561090657634e487b7160e01b600052601160045260246000fd5b500390565b634e487b7160e01b600052603160045260246000fd5b634e487b7160e01b600052603260045260246000fd5b634e487b7160e01b600052604160045260246000fdfea26469706673582212205ddffadf61ea6a69d95fb679b9bc51eda004643403383dcf6dd440958275752864736f6c63430008070033",
  "linkReferences": {},
  "deployedLinkReferences": {}
}