{
  "_format": "hh-sol-artifact-1",
  "contractName": "LSP7CompatibleERC20",
  "sourceName": "contracts/LSP7DigitalAsset/extensions/LSP7CompatibleERC20.sol",
  "abi": [
    {
      "inputs": [
        {
          "internalType": "string",
          "name": "name_",
          "type": "string"
        },
        {
          "internalType": "string",
          "name": "symbol_",
          "type": "string"
        },
        {
          "internalType": "address",
          "name": "newOwner_",
          "type": "address"
        }
      ],
      "stateMutability": "nonpayable",
      "type": "constructor"
    },
    {
      "inputs": [],
      "name": "LSP4TokenNameNotEditable",
      "type": "error"
    },
    {
      "inputs": [],
      "name": "LSP4TokenSymbolNotEditable",
      "type": "error"
    },
    {
      "inputs": [
        {
          "internalType": "address",
          "name": "tokenOwner",
          "type": "address"
        },
        {
          "internalType": "uint256",
          "name": "authorizedAmount",
          "type": "uint256"
        },
        {
          "internalType": "address",
          "name": "operator",
          "type": "address"
        },
        {
          "internalType": "uint256",
          "name": "amount",
          "type": "uint256"
        }
      ],
      "name": "LSP7AmountExceedsAuthorizedAmount",
      "type": "error"
    },
    {
      "inputs": [
        {
          "internalType": "uint256",
          "name": "balance",
          "type": "uint256"
        },
        {
          "internalType": "address",
          "name": "tokenOwner",
          "type": "address"
        },
        {
          "internalType": "uint256",
          "name": "amount",
          "type": "uint256"
        }
      ],
      "name": "LSP7AmountExceedsBalance",
      "type": "error"
    },
    {
      "inputs": [],
      "name": "LSP7CannotSendWithAddressZero",
      "type": "error"
    },
    {
      "inputs": [],
      "name": "LSP7CannotUseAddressZeroAsOperator",
      "type": "error"
    },
    {
      "inputs": [],
      "name": "LSP7InvalidTransferBatch",
      "type": "error"
    },
    {
      "inputs": [
        {
          "internalType": "address",
          "name": "tokenReceiver",
          "type": "address"
        }
      ],
      "name": "LSP7NotifyTokenReceiverContractMissingLSP1Interface",
      "type": "error"
    },
    {
      "inputs": [
        {
          "internalType": "address",
          "name": "tokenReceiver",
          "type": "address"
        }
      ],
      "name": "LSP7NotifyTokenReceiverIsEOA",
      "type": "error"
    },
    {
      "anonymous": false,
      "inputs": [
        {
          "indexed": true,
          "internalType": "address",
          "name": "owner",
          "type": "address"
        },
        {
          "indexed": true,
          "internalType": "address",
          "name": "spender",
          "type": "address"
        },
        {
          "indexed": false,
          "internalType": "uint256",
          "name": "value",
          "type": "uint256"
        }
      ],
      "name": "Approval",
      "type": "event"
    },
    {
      "anonymous": false,
      "inputs": [
        {
          "indexed": true,
          "internalType": "address",
          "name": "operator",
          "type": "address"
        },
        {
          "indexed": true,
          "internalType": "address",
          "name": "tokenOwner",
          "type": "address"
        },
        {
          "indexed": true,
          "internalType": "uint256",
          "name": "amount",
          "type": "uint256"
        }
      ],
      "name": "AuthorizedOperator",
      "type": "event"
    },
    {
      "anonymous": false,
      "inputs": [
        {
          "indexed": true,
          "internalType": "bytes32",
          "name": "dataKey",
          "type": "bytes32"
        }
      ],
      "name": "DataChanged",
      "type": "event"
    },
    {
      "anonymous": false,
      "inputs": [
        {
          "indexed": true,
          "internalType": "address",
          "name": "previousOwner",
          "type": "address"
        },
        {
          "indexed": true,
          "internalType": "address",
          "name": "newOwner",
          "type": "address"
        }
      ],
      "name": "OwnershipTransferred",
      "type": "event"
    },
    {
      "anonymous": false,
      "inputs": [
        {
          "indexed": true,
          "internalType": "address",
          "name": "operator",
          "type": "address"
        },
        {
          "indexed": true,
          "internalType": "address",
          "name": "tokenOwner",
          "type": "address"
        }
      ],
      "name": "RevokedOperator",
      "type": "event"
    },
    {
      "anonymous": false,
      "inputs": [
        {
          "indexed": true,
          "internalType": "address",
          "name": "from",
          "type": "address"
        },
        {
          "indexed": true,
          "internalType": "address",
          "name": "to",
          "type": "address"
        },
        {
          "indexed": false,
          "internalType": "uint256",
          "name": "value",
          "type": "uint256"
        }
      ],
      "name": "Transfer",
      "type": "event"
    },
    {
      "anonymous": false,
      "inputs": [
        {
          "indexed": true,
          "internalType": "address",
          "name": "operator",
          "type": "address"
        },
        {
          "indexed": true,
          "internalType": "address",
          "name": "from",
          "type": "address"
        },
        {
          "indexed": true,
          "internalType": "address",
          "name": "to",
          "type": "address"
        },
        {
          "indexed": false,
          "internalType": "uint256",
          "name": "amount",
          "type": "uint256"
        },
        {
          "indexed": false,
          "internalType": "bool",
          "name": "force",
          "type": "bool"
        },
        {
          "indexed": false,
          "internalType": "bytes",
          "name": "data",
          "type": "bytes"
        }
      ],
      "name": "Transfer",
      "type": "event"
    },
    {
      "inputs": [
        {
          "internalType": "address",
          "name": "tokenOwner",
          "type": "address"
        },
        {
          "internalType": "address",
          "name": "operator",
          "type": "address"
        }
      ],
      "name": "allowance",
      "outputs": [
        {
          "internalType": "uint256",
          "name": "",
          "type": "uint256"
        }
      ],
      "stateMutability": "view",
      "type": "function"
    },
    {
      "inputs": [
        {
          "internalType": "address",
          "name": "operator",
          "type": "address"
        },
        {
          "internalType": "uint256",
          "name": "amount",
          "type": "uint256"
        }
      ],
      "name": "approve",
      "outputs": [
        {
          "internalType": "bool",
          "name": "",
          "type": "bool"
        }
      ],
      "stateMutability": "nonpayable",
      "type": "function"
    },
    {
      "inputs": [
        {
          "internalType": "address",
          "name": "operator",
          "type": "address"
        },
        {
          "internalType": "uint256",
          "name": "amount",
          "type": "uint256"
        }
      ],
      "name": "authorizeOperator",
      "outputs": [],
      "stateMutability": "nonpayable",
      "type": "function"
    },
    {
      "inputs": [
        {
          "internalType": "address",
          "name": "tokenOwner",
          "type": "address"
        }
      ],
      "name": "balanceOf",
      "outputs": [
        {
          "internalType": "uint256",
          "name": "",
          "type": "uint256"
        }
      ],
      "stateMutability": "view",
      "type": "function"
    },
    {
      "inputs": [],
      "name": "decimals",
      "outputs": [
        {
          "internalType": "uint256",
          "name": "",
          "type": "uint256"
        }
      ],
      "stateMutability": "view",
      "type": "function"
    },
    {
      "inputs": [
        {
          "internalType": "bytes32[]",
          "name": "dataKeys",
          "type": "bytes32[]"
        }
      ],
      "name": "getData",
      "outputs": [
        {
          "internalType": "bytes[]",
          "name": "dataValues",
          "type": "bytes[]"
        }
      ],
      "stateMutability": "view",
      "type": "function"
    },
    {
      "inputs": [
        {
          "internalType": "bytes32",
          "name": "dataKey",
          "type": "bytes32"
        }
      ],
      "name": "getData",
      "outputs": [
        {
          "internalType": "bytes",
          "name": "dataValue",
          "type": "bytes"
        }
      ],
      "stateMutability": "view",
      "type": "function"
    },
    {
      "inputs": [
        {
          "internalType": "address",
          "name": "operator",
          "type": "address"
        },
        {
          "internalType": "address",
          "name": "tokenOwner",
          "type": "address"
        }
      ],
      "name": "isOperatorFor",
      "outputs": [
        {
          "internalType": "uint256",
          "name": "",
          "type": "uint256"
        }
      ],
      "stateMutability": "view",
      "type": "function"
    },
    {
      "inputs": [],
      "name": "name",
      "outputs": [
        {
          "internalType": "string",
          "name": "",
          "type": "string"
        }
      ],
      "stateMutability": "view",
      "type": "function"
    },
    {
      "inputs": [],
      "name": "owner",
      "outputs": [
        {
          "internalType": "address",
          "name": "",
          "type": "address"
        }
      ],
      "stateMutability": "view",
      "type": "function"
    },
    {
      "inputs": [],
      "name": "renounceOwnership",
      "outputs": [],
      "stateMutability": "nonpayable",
      "type": "function"
    },
    {
      "inputs": [
        {
          "internalType": "address",
          "name": "operator",
          "type": "address"
        }
      ],
      "name": "revokeOperator",
      "outputs": [],
      "stateMutability": "nonpayable",
      "type": "function"
    },
    {
      "inputs": [
        {
          "internalType": "bytes32[]",
          "name": "dataKeys",
          "type": "bytes32[]"
        },
        {
          "internalType": "bytes[]",
          "name": "dataValues",
          "type": "bytes[]"
        }
      ],
      "name": "setData",
      "outputs": [],
      "stateMutability": "nonpayable",
      "type": "function"
    },
    {
      "inputs": [
        {
          "internalType": "bytes32",
          "name": "dataKey",
          "type": "bytes32"
        },
        {
          "internalType": "bytes",
          "name": "dataValue",
          "type": "bytes"
        }
      ],
      "name": "setData",
      "outputs": [],
      "stateMutability": "nonpayable",
      "type": "function"
    },
    {
      "inputs": [
        {
          "internalType": "bytes4",
          "name": "interfaceId",
          "type": "bytes4"
        }
      ],
      "name": "supportsInterface",
      "outputs": [
        {
          "internalType": "bool",
          "name": "",
          "type": "bool"
        }
      ],
      "stateMutability": "view",
      "type": "function"
    },
    {
      "inputs": [],
      "name": "symbol",
      "outputs": [
        {
          "internalType": "string",
          "name": "",
          "type": "string"
        }
      ],
      "stateMutability": "view",
      "type": "function"
    },
    {
      "inputs": [],
      "name": "totalSupply",
      "outputs": [
        {
          "internalType": "uint256",
          "name": "",
          "type": "uint256"
        }
      ],
      "stateMutability": "view",
      "type": "function"
    },
    {
      "inputs": [
        {
          "internalType": "address",
          "name": "from",
          "type": "address"
        },
        {
          "internalType": "address",
          "name": "to",
          "type": "address"
        },
        {
          "internalType": "uint256",
          "name": "amount",
          "type": "uint256"
        },
        {
          "internalType": "bool",
          "name": "force",
          "type": "bool"
        },
        {
          "internalType": "bytes",
          "name": "data",
          "type": "bytes"
        }
      ],
      "name": "transfer",
      "outputs": [],
      "stateMutability": "nonpayable",
      "type": "function"
    },
    {
      "inputs": [
        {
          "internalType": "address",
          "name": "to",
          "type": "address"
        },
        {
          "internalType": "uint256",
          "name": "amount",
          "type": "uint256"
        }
      ],
      "name": "transfer",
      "outputs": [
        {
          "internalType": "bool",
          "name": "",
          "type": "bool"
        }
      ],
      "stateMutability": "nonpayable",
      "type": "function"
    },
    {
      "inputs": [
        {
          "internalType": "address[]",
          "name": "from",
          "type": "address[]"
        },
        {
          "internalType": "address[]",
          "name": "to",
          "type": "address[]"
        },
        {
          "internalType": "uint256[]",
          "name": "amount",
          "type": "uint256[]"
        },
        {
          "internalType": "bool",
          "name": "force",
          "type": "bool"
        },
        {
          "internalType": "bytes[]",
          "name": "data",
          "type": "bytes[]"
        }
      ],
      "name": "transferBatch",
      "outputs": [],
      "stateMutability": "nonpayable",
      "type": "function"
    },
    {
      "inputs": [
        {
          "internalType": "address",
          "name": "from",
          "type": "address"
        },
        {
          "internalType": "address",
          "name": "to",
          "type": "address"
        },
        {
          "internalType": "uint256",
          "name": "amount",
          "type": "uint256"
        }
      ],
      "name": "transferFrom",
      "outputs": [
        {
          "internalType": "bool",
          "name": "",
          "type": "bool"
        }
      ],
      "stateMutability": "nonpayable",
      "type": "function"
    },
    {
      "inputs": [
        {
          "internalType": "address",
          "name": "newOwner",
          "type": "address"
        }
      ],
      "name": "transferOwnership",
      "outputs": [],
      "stateMutability": "nonpayable",
      "type": "function"
    }
  ],
  "bytecode": "0x60806040523480156200001157600080fd5b50604051620020a8380380620020a8833981016040819052620000349162000355565b82828260008383838062000053816200014060201b620008ea1760201c565b50620000aa7feafec4d89fa9619884b60000a4d96624a38f7ac2d8d9a604ecf07c12c77e480c60001b604051806040016040528060048152602001632936598960e21b815250620001a760201b620009671760201c565b620000e47fdeba1e292f8ba88238e10ab3c7f88bd4be4fac56cad5194b6ecceaf653468af160001b84620001a760201b620009671760201c565b6200011e7f2f0a68ab07768e01943a599e73362a0e17a63a72e94dd2e384d2c1d4db93275660001b83620001a760201b620009671760201c565b50506002805460ff191692151592909217909155506200043595505050505050565b6000546001600160a01b03828116911614620001a457600080546001600160a01b038381166001600160a01b0319831681178455604051919092169283917f8be0079c531659141344cd1fd0a4f28419497f9722a3daafe3b4186f6b6457e09190a3505b50565b60008281526001602090815260409091208251620001c892840190620001f8565b5060405182907fcdf4e344c0d23d4cdd0474039d176c55b19d531070dbe17856bfb993a5b5720b90600090a25050565b8280546200020690620003e2565b90600052602060002090601f0160209004810192826200022a576000855562000275565b82601f106200024557805160ff191683800117855562000275565b8280016001018555821562000275579182015b828111156200027557825182559160200191906001019062000258565b506200028392915062000287565b5090565b5b8082111562000283576000815560010162000288565b600082601f830112620002b057600080fd5b81516001600160401b0380821115620002cd57620002cd6200041f565b604051601f8301601f19908116603f01168101908282118183101715620002f857620002f86200041f565b816040528381526020925086838588010111156200031557600080fd5b600091505b838210156200033957858201830151818301840152908201906200031a565b838211156200034b5760008385830101525b9695505050505050565b6000806000606084860312156200036b57600080fd5b83516001600160401b03808211156200038357600080fd5b62000391878388016200029e565b94506020860151915080821115620003a857600080fd5b50620003b7868287016200029e565b604086015190935090506001600160a01b0381168114620003d757600080fd5b809150509250925092565b600181811c90821680620003f757607f821691505b602082108114156200041957634e487b7160e01b600052602260045260246000fd5b50919050565b634e487b7160e01b600052604160045260246000fd5b611c6380620004456000396000f3fe608060405234801561001057600080fd5b50600436106101825760003560e01c8063715018a6116100d8578063a8a34e0a1161008c578063dd62ed3e11610066578063dd62ed3e14610312578063f2fde38b14610325578063fad8b32a1461033857600080fd5b8063a8a34e0a146102d9578063a9059cbb146102ec578063d95b6371146102ff57600080fd5b80637f23690c116100bd5780637f23690c146102a35780638da5cb5b146102b657806395d89b41146102d157600080fd5b8063715018a614610288578063760d9bba1461029057600080fd5b806323b872dd1161013a5780634e3e6e9c116101145780634e3e6e9c1461022c57806354f6127f1461024c57806370a082311461025f57600080fd5b806323b872dd146101fe578063313ce5671461021157806347980aa31461021957600080fd5b8063095ea7b31161016b578063095ea7b3146101c457806314a6e293146101d757806318160ddd146101ec57600080fd5b806301ffc9a71461018757806306fdde03146101af575b600080fd5b61019a6101953660046118c5565b61034b565b60405190151581526020015b60405180910390f35b6101b761038f565b6040516101a69190611a8f565b61019a6101d2366004611698565b6103bc565b6101ea6101e536600461180b565b6103d1565b005b6003545b6040519081526020016101a6565b61019a61020c3660046115e3565b6104aa565b6101f06104d3565b6101ea610227366004611698565b6104f2565b61023f61023a3660046117ce565b610500565b6040516101a69190611a14565b6101b761025a36600461186f565b6105b4565b6101f061026d366004611595565b6001600160a01b031660009081526004602052604090205490565b6101ea6105bf565b6101ea61029e36600461161f565b6105d3565b6101ea6102b1366004611888565b610690565b6000546040516001600160a01b0390911681526020016101a6565b6101b76106a2565b6101ea6102e73660046116c2565b6106cf565b61019a6102fa366004611698565b6107b5565b6101f061030d3660046115b0565b6107d4565b6101f06103203660046115b0565b61083b565b6101ea610333366004611595565b61084e565b6101ea610346366004611595565b6108de565b60006001600160e01b031982167fe33f65c30000000000000000000000000000000000000000000000000000000014806103895750610389826109b6565b92915050565b606060006103897fdeba1e292f8ba88238e10ab3c7f88bd4be4fac56cad5194b6ecceaf653468af1610a04565b60006103c883836104f2565b50600192915050565b6103d9610aa6565b80518251146104555760405162461bcd60e51b815260206004820152602660248201527f4b657973206c656e677468206e6f7420657175616c20746f2076616c7565732060448201527f6c656e677468000000000000000000000000000000000000000000000000000060648201526084015b60405180910390fd5b60005b82518110156104a55761049d83828151811061047657610476611c01565b602002602001015183838151811061049057610490611c01565b6020026020010151610b0f565b600101610458565b505050565b60006104c98484846001604051806020016040528060008152506105d3565b5060019392505050565b60025460009060ff166104e75760126104ea565b60005b60ff16905090565b6104fc8282610b19565b5050565b6060815167ffffffffffffffff81111561051c5761051c611c17565b60405190808252806020026020018201604052801561054f57816020015b606081526020019060019003908161053a5790505b50905060005b82518110156105ae5761058083828151811061057357610573611c01565b6020026020010151610a04565b82828151811061059257610592611c01565b60200260200101819052506105a78160010190565b9050610555565b50919050565b606061038982610a04565b6105c7610aa6565b6105d160006108ea565b565b336001600160a01b038616811461067b576001600160a01b0380871660009081526005602090815260408083209385168352929052205480851115610665576040517ff3a6b6910000000000000000000000000000000000000000000000000000000081526001600160a01b03808916600483015260248201839052831660448201526064810186905260840161044c565b61067987836106748885611b58565b610b67565b505b6106888686868686610c7f565b505050505050565b610698610aa6565b6104fc8282610b0f565b606060006103897f2f0a68ab07768e01943a599e73362a0e17a63a72e94dd2e384d2c1d4db932756610a04565b835185511415806106e257508251855114155b806106ef57508051855114155b15610726576040517f263eee8d00000000000000000000000000000000000000000000000000000000815260040160405180910390fd5b60005b8551811015610688576107a386828151811061074757610747611c01565b602002602001015186838151811061076157610761611c01565b602002602001015186848151811061077b5761077b611c01565b60200260200101518686868151811061079657610796611c01565b60200260200101516105d3565b806107ad81611bd0565b915050610729565b60006103c83384846001604051806020016040528060008152506105d3565b6000826001600160a01b0316826001600160a01b0316141561080f57506001600160a01b038116600090815260046020526040902054610389565b506001600160a01b03808216600090815260056020908152604080832093861683529290522054610389565b600061084782846107d4565b9392505050565b610856610aa6565b6001600160a01b0381166108d25760405162461bcd60e51b815260206004820152602660248201527f4f776e61626c653a206e6577206f776e657220697320746865207a65726f206160448201527f6464726573730000000000000000000000000000000000000000000000000000606482015260840161044c565b6108db816108ea565b50565b6108db33826000610b67565b6000546001600160a01b038281169116146108db57600080546001600160a01b038381167fffffffffffffffffffffffff0000000000000000000000000000000000000000831681178455604051919092169283917f8be0079c531659141344cd1fd0a4f28419497f9722a3daafe3b4186f6b6457e09190a35050565b6000828152600160209081526040909120825161098692840190611314565b5060405182907fcdf4e344c0d23d4cdd0474039d176c55b19d531070dbe17856bfb993a5b5720b90600090a25050565b60006001600160e01b031982167f714df77c00000000000000000000000000000000000000000000000000000000148061038957506301ffc9a760e01b6001600160e01b0319831614610389565b6000818152600160205260409020805460609190610a2190611b9b565b80601f0160208091040260200160405190810160405280929190818152602001828054610a4d90611b9b565b8015610a9a5780601f10610a6f57610100808354040283529160200191610a9a565b820191906000526020600020905b815481529060010190602001808311610a7d57829003601f168201915b50505050509050919050565b33610ab96000546001600160a01b031690565b6001600160a01b0316146105d15760405162461bcd60e51b815260206004820181905260248201527f4f776e61626c653a2063616c6c6572206973206e6f7420746865206f776e6572604482015260640161044c565b6104fc8282610c93565b610b238282610d51565b6040518181526001600160a01b0383169033907f8c5be1e5ebec7d5bd14f71427d1e84f3dd0314c0f7b2291e5b200ac8c7c3b9259060200160405180910390a35050565b6001600160a01b038216610ba7576040517f6355e76600000000000000000000000000000000000000000000000000000000815260040160405180910390fd5b826001600160a01b0316826001600160a01b03161415610bc657505050565b6001600160a01b0380841660009081526005602090815260408083209386168352929052208190558015610c3a5780836001600160a01b0316836001600160a01b03167fd66aff874162a96578e919097b6f6d153dfd89a5cec41bb331fdb0c4aec16e2c60405160405180910390a4505050565b826001600160a01b0316826001600160a01b03167f50546e66e5f44d728365dc3908c63bc5cfeeab470722c1677e3073a6ac294aa160405160405180910390a3505050565b610c8c8585858585610d5c565b5050505050565b7fdeba1e292f8ba88238e10ab3c7f88bd4be4fac56cad5194b6ecceaf653468af1821415610ced576040517f85c169bd00000000000000000000000000000000000000000000000000000000815260040160405180910390fd5b7f2f0a68ab07768e01943a599e73362a0e17a63a72e94dd2e384d2c1d4db932756821415610d47576040517f76755b3800000000000000000000000000000000000000000000000000000000815260040160405180910390fd5b6104fc8282610967565b6104fc338383610b67565b610d698585858585610dbd565b836001600160a01b0316856001600160a01b03167fddf252ad1be2c89b69c2b068fc378daa952ba7f163c4a11628f55a4df523b3ef85604051610dae91815260200190565b60405180910390a35050505050565b6001600160a01b0385161580610dda57506001600160a01b038416155b15610e11576040517fd2d5ec3000000000000000000000000000000000000000000000000000000000815260040160405180910390fd5b6001600160a01b03851660009081526004602052604090205480841115610e7d576040517f08d47949000000000000000000000000000000000000000000000000000000008152600481018290526001600160a01b03871660248201526044810185905260640161044c565b33610e89878787610f60565b6001600160a01b03871660009081526004602052604081208054879290610eb1908490611b58565b90915550506001600160a01b03861660009081526004602052604081208054879290610ede908490611b40565b92505081905550856001600160a01b0316876001600160a01b0316826001600160a01b03167f3997e418d2cef0b3b0e907b1e39605c3f7d32dbd061e82ea5b4a770d46a160a6888888604051610f3693929190611aa2565b60405180910390a4610f4a87878786610fb0565b610f578787878787611099565b50505050505050565b6001600160a01b038316610f86578060036000828254610f809190611b40565b90915550505b6001600160a01b0382166104a5578060036000828254610fa69190611b58565b9091555050505050565b610fc184631aed5a8560e21b611212565b1561109357600084848484604051602001610fdf94939291906119ab565b60408051601f1981840301815290829052631aed5a8560e21b825291506001600160a01b03861690636bb56a149061103d907f40b8bec57d7b5ff0dbd9e9acd0a47dfeb0101e1a203766f5ccab00445fbf39e9908590600401611a76565b600060405180830381600087803b15801561105757600080fd5b505af115801561106b573d6000803e3d6000fd5b505050506040513d6000823e601f3d908101601f1916820160405261068891908101906118ef565b50505050565b6110aa84631aed5a8560e21b611212565b15611183576000858585846040516020016110c894939291906119ab565b60408051601f1981840301815290829052631aed5a8560e21b825291506001600160a01b03861690636bb56a1490611126907fdbe2c314e1aee2970c72666f2ebe8933a8575263ea71e5ff6a9178e95d47a26f908590600401611a76565b600060405180830381600087803b15801561114057600080fd5b505af1158015611154573d6000803e3d6000fd5b505050506040513d6000823e601f3d908101601f1916820160405261117c91908101906118ef565b5050610c8c565b81610c8c576001600160a01b0384163b156111d5576040517fa608fbb60000000000000000000000000000000000000000000000000000000081526001600160a01b038516600482015260240161044c565b6040517f26c247f40000000000000000000000000000000000000000000000000000000081526001600160a01b038516600482015260240161044c565b604080516001600160e01b0319831660248083019190915282518083039091018152604490910182526020810180517bffffffffffffffffffffffffffffffffffffffffffffffffffffffff166301ffc9a760e01b179052905160009190829081906001600160a01b038716906175309061128e9086906119f8565b6000604051808303818686fa925050503d80600081146112ca576040519150601f19603f3d011682016040523d82523d6000602084013e6112cf565b606091505b50915091506020815110156112ea5760009350505050610389565b81801561130a57506000818060200190518101906113089190611966565b115b9695505050505050565b82805461132090611b9b565b90600052602060002090601f0160209004810192826113425760008555611388565b82601f1061135b57805160ff1916838001178555611388565b82800160010185558215611388579182015b8281111561138857825182559160200191906001019061136d565b50611394929150611398565b5090565b5b808211156113945760008155600101611399565b80356001600160a01b03811681146113c457600080fd5b919050565b600082601f8301126113da57600080fd5b813560206113ef6113ea83611af4565b611ac3565b80838252828201915082860187848660051b890101111561140f57600080fd5b60005b8581101561143557611423826113ad565b84529284019290840190600101611412565b5090979650505050505050565b600082601f83011261145357600080fd5b813560206114636113ea83611af4565b80838252828201915082860187848660051b890101111561148357600080fd5b60005b8581101561143557813584529284019290840190600101611486565b600082601f8301126114b357600080fd5b813560206114c36113ea83611af4565b80838252828201915082860187848660051b89010111156114e357600080fd5b6000805b8681101561152657823567ffffffffffffffff811115611505578283fd5b6115138b88838d0101611544565b86525093850193918501916001016114e7565b509198975050505050505050565b803580151581146113c457600080fd5b600082601f83011261155557600080fd5b81356115636113ea82611b18565b81815284602083860101111561157857600080fd5b816020850160208301376000918101602001919091529392505050565b6000602082840312156115a757600080fd5b610847826113ad565b600080604083850312156115c357600080fd5b6115cc836113ad565b91506115da602084016113ad565b90509250929050565b6000806000606084860312156115f857600080fd5b611601846113ad565b925061160f602085016113ad565b9150604084013590509250925092565b600080600080600060a0868803121561163757600080fd5b611640866113ad565b945061164e602087016113ad565b93506040860135925061166360608701611534565b9150608086013567ffffffffffffffff81111561167f57600080fd5b61168b88828901611544565b9150509295509295909350565b600080604083850312156116ab57600080fd5b6116b4836113ad565b946020939093013593505050565b600080600080600060a086880312156116da57600080fd5b853567ffffffffffffffff808211156116f257600080fd5b6116fe89838a016113c9565b965060209150818801358181111561171557600080fd5b6117218a828b016113c9565b96505060408801358181111561173657600080fd5b8801601f81018a1361174757600080fd5b80356117556113ea82611af4565b8082825285820191508584018d878560051b870101111561177557600080fd5b600094505b8385101561179857803583526001949094019391860191860161177a565b5097506117ab9250505060608901611534565b935060808801359150808211156117c157600080fd5b5061168b888289016114a2565b6000602082840312156117e057600080fd5b813567ffffffffffffffff8111156117f757600080fd5b61180384828501611442565b949350505050565b6000806040838503121561181e57600080fd5b823567ffffffffffffffff8082111561183657600080fd5b61184286838701611442565b9350602085013591508082111561185857600080fd5b50611865858286016114a2565b9150509250929050565b60006020828403121561188157600080fd5b5035919050565b6000806040838503121561189b57600080fd5b82359150602083013567ffffffffffffffff8111156118b957600080fd5b61186585828601611544565b6000602082840312156118d757600080fd5b81356001600160e01b03198116811461084757600080fd5b60006020828403121561190157600080fd5b815167ffffffffffffffff81111561191857600080fd5b8201601f8101841361192957600080fd5b80516119376113ea82611b18565b81815285602083850101111561194c57600080fd5b61195d826020830160208601611b6f565b95945050505050565b60006020828403121561197857600080fd5b5051919050565b60008151808452611997816020860160208601611b6f565b601f01601f19169290920160200192915050565b60006bffffffffffffffffffffffff19808760601b168352808660601b1660148401525083602883015282516119e8816048850160208701611b6f565b9190910160480195945050505050565b60008251611a0a818460208701611b6f565b9190910192915050565b6000602080830181845280855180835260408601915060408160051b870101925083870160005b82811015611a6957603f19888603018452611a5785835161197f565b94509285019290850190600101611a3b565b5092979650505050505050565b828152604060208201526000611803604083018461197f565b602081526000610847602083018461197f565b838152821515602082015260606040820152600061195d606083018461197f565b604051601f8201601f1916810167ffffffffffffffff81118282101715611aec57611aec611c17565b604052919050565b600067ffffffffffffffff821115611b0e57611b0e611c17565b5060051b60200190565b600067ffffffffffffffff821115611b3257611b32611c17565b50601f01601f191660200190565b60008219821115611b5357611b53611beb565b500190565b600082821015611b6a57611b6a611beb565b500390565b60005b83811015611b8a578181015183820152602001611b72565b838111156110935750506000910152565b600181811c90821680611baf57607f821691505b602082108114156105ae57634e487b7160e01b600052602260045260246000fd5b6000600019821415611be457611be4611beb565b5060010190565b634e487b7160e01b600052601160045260246000fd5b634e487b7160e01b600052603260045260246000fd5b634e487b7160e01b600052604160045260246000fdfea2646970667358221220b0c772e57060a07e41f62dbf07c0e3712e89f70c8e88db83726134b4a204afe764736f6c63430008070033",
  "linkReferences": {},
  "deployedLinkReferences": {}
}