{
  "_format": "hh-sol-artifact-1",
  "contractName": "LSP8CompatibleERC721",
  "sourceName": "contracts/LSP8IdentifiableDigitalAsset/extensions/LSP8CompatibleERC721.sol",
  "abi": [
    {
      "inputs": [
        {
          "internalType": "string",
          "name": "name_",
          "type": "string"
        },
        {
          "internalType": "string",
          "name": "symbol_",
          "type": "string"
        },
        {
          "internalType": "address",
          "name": "newOwner_",
          "type": "address"
        }
      ],
      "stateMutability": "nonpayable",
      "type": "constructor"
    },
    {
      "inputs": [],
      "name": "LSP4TokenNameNotEditable",
      "type": "error"
    },
    {
      "inputs": [],
      "name": "LSP4TokenSymbolNotEditable",
      "type": "error"
    },
    {
      "inputs": [],
      "name": "LSP8CannotSendToAddressZero",
      "type": "error"
    },
    {
      "inputs": [],
      "name": "LSP8CannotUseAddressZeroAsOperator",
      "type": "error"
    },
    {
      "inputs": [],
      "name": "LSP8InvalidTransferBatch",
      "type": "error"
    },
    {
      "inputs": [
        {
          "internalType": "bytes32",
          "name": "tokenId",
          "type": "bytes32"
        }
      ],
      "name": "LSP8NonExistentTokenId",
      "type": "error"
    },
    {
      "inputs": [
        {
          "internalType": "bytes32",
          "name": "tokenId",
          "type": "bytes32"
        },
        {
          "internalType": "address",
          "name": "caller",
          "type": "address"
        }
      ],
      "name": "LSP8NotTokenOperator",
      "type": "error"
    },
    {
      "inputs": [
        {
          "internalType": "address",
          "name": "tokenOwner",
          "type": "address"
        },
        {
          "internalType": "bytes32",
          "name": "tokenId",
          "type": "bytes32"
        },
        {
          "internalType": "address",
          "name": "caller",
          "type": "address"
        }
      ],
      "name": "LSP8NotTokenOwner",
      "type": "error"
    },
    {
      "inputs": [
        {
          "internalType": "address",
          "name": "tokenReceiver",
          "type": "address"
        }
      ],
      "name": "LSP8NotifyTokenReceiverContractMissingLSP1Interface",
      "type": "error"
    },
    {
      "inputs": [
        {
          "internalType": "address",
          "name": "tokenReceiver",
          "type": "address"
        }
      ],
      "name": "LSP8NotifyTokenReceiverIsEOA",
      "type": "error"
    },
    {
      "anonymous": false,
      "inputs": [
        {
          "indexed": true,
          "internalType": "address",
          "name": "owner",
          "type": "address"
        },
        {
          "indexed": true,
          "internalType": "address",
          "name": "approved",
          "type": "address"
        },
        {
          "indexed": true,
          "internalType": "uint256",
          "name": "tokenId",
          "type": "uint256"
        }
      ],
      "name": "Approval",
      "type": "event"
    },
    {
      "anonymous": false,
      "inputs": [
        {
          "indexed": true,
          "internalType": "address",
          "name": "operator",
          "type": "address"
        },
        {
          "indexed": true,
          "internalType": "address",
          "name": "tokenOwner",
          "type": "address"
        },
        {
          "indexed": true,
          "internalType": "bytes32",
          "name": "tokenId",
          "type": "bytes32"
        }
      ],
      "name": "AuthorizedOperator",
      "type": "event"
    },
    {
      "anonymous": false,
      "inputs": [
        {
          "indexed": true,
          "internalType": "bytes32",
          "name": "dataKey",
          "type": "bytes32"
        }
      ],
      "name": "DataChanged",
      "type": "event"
    },
    {
      "anonymous": false,
      "inputs": [
        {
          "indexed": true,
          "internalType": "address",
          "name": "previousOwner",
          "type": "address"
        },
        {
          "indexed": true,
          "internalType": "address",
          "name": "newOwner",
          "type": "address"
        }
      ],
      "name": "OwnershipTransferred",
      "type": "event"
    },
    {
      "anonymous": false,
      "inputs": [
        {
          "indexed": true,
          "internalType": "address",
          "name": "operator",
          "type": "address"
        },
        {
          "indexed": true,
          "internalType": "address",
          "name": "tokenOwner",
          "type": "address"
        },
        {
          "indexed": true,
          "internalType": "bytes32",
          "name": "tokenId",
          "type": "bytes32"
        }
      ],
      "name": "RevokedOperator",
      "type": "event"
    },
    {
      "anonymous": false,
      "inputs": [
        {
          "indexed": true,
          "internalType": "address",
          "name": "from",
          "type": "address"
        },
        {
          "indexed": true,
          "internalType": "address",
          "name": "to",
          "type": "address"
        },
        {
          "indexed": true,
          "internalType": "uint256",
          "name": "tokenId",
          "type": "uint256"
        }
      ],
      "name": "Transfer",
      "type": "event"
    },
    {
      "anonymous": false,
      "inputs": [
        {
          "indexed": false,
          "internalType": "address",
          "name": "operator",
          "type": "address"
        },
        {
          "indexed": true,
          "internalType": "address",
          "name": "from",
          "type": "address"
        },
        {
          "indexed": true,
          "internalType": "address",
          "name": "to",
          "type": "address"
        },
        {
          "indexed": true,
          "internalType": "bytes32",
          "name": "tokenId",
          "type": "bytes32"
        },
        {
          "indexed": false,
          "internalType": "bool",
          "name": "force",
          "type": "bool"
        },
        {
          "indexed": false,
          "internalType": "bytes",
          "name": "data",
          "type": "bytes"
        }
      ],
      "name": "Transfer",
      "type": "event"
    },
    {
      "inputs": [
        {
          "internalType": "address",
          "name": "operator",
          "type": "address"
        },
        {
          "internalType": "uint256",
          "name": "tokenId",
          "type": "uint256"
        }
      ],
      "name": "approve",
      "outputs": [],
      "stateMutability": "nonpayable",
      "type": "function"
    },
    {
      "inputs": [
        {
          "internalType": "address",
          "name": "operator",
          "type": "address"
        },
        {
          "internalType": "bytes32",
          "name": "tokenId",
          "type": "bytes32"
        }
      ],
      "name": "authorizeOperator",
      "outputs": [],
      "stateMutability": "nonpayable",
      "type": "function"
    },
    {
      "inputs": [
        {
          "internalType": "address",
          "name": "tokenOwner",
          "type": "address"
        }
      ],
      "name": "balanceOf",
      "outputs": [
        {
          "internalType": "uint256",
          "name": "",
          "type": "uint256"
        }
      ],
      "stateMutability": "view",
      "type": "function"
    },
    {
      "inputs": [
        {
          "internalType": "uint256",
          "name": "tokenId",
          "type": "uint256"
        }
      ],
      "name": "getApproved",
      "outputs": [
        {
          "internalType": "address",
          "name": "",
          "type": "address"
        }
      ],
      "stateMutability": "view",
      "type": "function"
    },
    {
      "inputs": [
        {
          "internalType": "bytes32[]",
          "name": "dataKeys",
          "type": "bytes32[]"
        }
      ],
      "name": "getData",
      "outputs": [
        {
          "internalType": "bytes[]",
          "name": "dataValues",
          "type": "bytes[]"
        }
      ],
      "stateMutability": "view",
      "type": "function"
    },
    {
      "inputs": [
        {
          "internalType": "bytes32",
          "name": "dataKey",
          "type": "bytes32"
        }
      ],
      "name": "getData",
      "outputs": [
        {
          "internalType": "bytes",
          "name": "dataValue",
          "type": "bytes"
        }
      ],
      "stateMutability": "view",
      "type": "function"
    },
    {
      "inputs": [
        {
          "internalType": "bytes32",
          "name": "tokenId",
          "type": "bytes32"
        }
      ],
      "name": "getOperatorsOf",
      "outputs": [
        {
          "internalType": "address[]",
          "name": "",
          "type": "address[]"
        }
      ],
      "stateMutability": "view",
      "type": "function"
    },
    {
      "inputs": [
        {
          "internalType": "address",
          "name": "tokenOwner",
          "type": "address"
        },
        {
          "internalType": "address",
          "name": "operator",
          "type": "address"
        }
      ],
      "name": "isApprovedForAll",
      "outputs": [
        {
          "internalType": "bool",
          "name": "",
          "type": "bool"
        }
      ],
      "stateMutability": "view",
      "type": "function"
    },
    {
      "inputs": [
        {
          "internalType": "address",
          "name": "operator",
          "type": "address"
        },
        {
          "internalType": "bytes32",
          "name": "tokenId",
          "type": "bytes32"
        }
      ],
      "name": "isOperatorFor",
      "outputs": [
        {
          "internalType": "bool",
          "name": "",
          "type": "bool"
        }
      ],
      "stateMutability": "view",
      "type": "function"
    },
    {
      "inputs": [],
      "name": "name",
      "outputs": [
        {
          "internalType": "string",
          "name": "",
          "type": "string"
        }
      ],
      "stateMutability": "view",
      "type": "function"
    },
    {
      "inputs": [],
      "name": "owner",
      "outputs": [
        {
          "internalType": "address",
          "name": "",
          "type": "address"
        }
      ],
      "stateMutability": "view",
      "type": "function"
    },
    {
      "inputs": [
        {
          "internalType": "uint256",
          "name": "tokenId",
          "type": "uint256"
        }
      ],
      "name": "ownerOf",
      "outputs": [
        {
          "internalType": "address",
          "name": "",
          "type": "address"
        }
      ],
      "stateMutability": "view",
      "type": "function"
    },
    {
      "inputs": [],
      "name": "renounceOwnership",
      "outputs": [],
      "stateMutability": "nonpayable",
      "type": "function"
    },
    {
      "inputs": [
        {
          "internalType": "address",
          "name": "operator",
          "type": "address"
        },
        {
          "internalType": "bytes32",
          "name": "tokenId",
          "type": "bytes32"
        }
      ],
      "name": "revokeOperator",
      "outputs": [],
      "stateMutability": "nonpayable",
      "type": "function"
    },
    {
      "inputs": [
        {
          "internalType": "address",
          "name": "from",
          "type": "address"
        },
        {
          "internalType": "address",
          "name": "to",
          "type": "address"
        },
        {
          "internalType": "uint256",
          "name": "tokenId",
          "type": "uint256"
        }
      ],
      "name": "safeTransferFrom",
      "outputs": [],
      "stateMutability": "nonpayable",
      "type": "function"
    },
    {
      "inputs": [
        {
          "internalType": "address",
          "name": "from",
          "type": "address"
        },
        {
          "internalType": "address",
          "name": "to",
          "type": "address"
        },
        {
          "internalType": "uint256",
          "name": "tokenId",
          "type": "uint256"
        },
        {
          "internalType": "bytes",
          "name": "data",
          "type": "bytes"
        }
      ],
      "name": "safeTransferFrom",
      "outputs": [],
      "stateMutability": "nonpayable",
      "type": "function"
    },
    {
      "inputs": [
        {
          "internalType": "bytes32[]",
          "name": "dataKeys",
          "type": "bytes32[]"
        },
        {
          "internalType": "bytes[]",
          "name": "dataValues",
          "type": "bytes[]"
        }
      ],
      "name": "setData",
      "outputs": [],
      "stateMutability": "nonpayable",
      "type": "function"
    },
    {
      "inputs": [
        {
          "internalType": "bytes32",
          "name": "dataKey",
          "type": "bytes32"
        },
        {
          "internalType": "bytes",
          "name": "dataValue",
          "type": "bytes"
        }
      ],
      "name": "setData",
      "outputs": [],
      "stateMutability": "nonpayable",
      "type": "function"
    },
    {
      "inputs": [
        {
          "internalType": "bytes4",
          "name": "interfaceId",
          "type": "bytes4"
        }
      ],
      "name": "supportsInterface",
      "outputs": [
        {
          "internalType": "bool",
          "name": "",
          "type": "bool"
        }
      ],
      "stateMutability": "view",
      "type": "function"
    },
    {
      "inputs": [],
      "name": "symbol",
      "outputs": [
        {
          "internalType": "string",
          "name": "",
          "type": "string"
        }
      ],
      "stateMutability": "view",
      "type": "function"
    },
    {
      "inputs": [
        {
          "internalType": "address",
          "name": "tokenOwner",
          "type": "address"
        }
      ],
      "name": "tokenIdsOf",
      "outputs": [
        {
          "internalType": "bytes32[]",
          "name": "",
          "type": "bytes32[]"
        }
      ],
      "stateMutability": "view",
      "type": "function"
    },
    {
      "inputs": [
        {
          "internalType": "bytes32",
          "name": "tokenId",
          "type": "bytes32"
        }
      ],
      "name": "tokenOwnerOf",
      "outputs": [
        {
          "internalType": "address",
          "name": "",
          "type": "address"
        }
      ],
      "stateMutability": "view",
      "type": "function"
    },
    {
      "inputs": [
        {
          "internalType": "uint256",
          "name": "tokenId",
          "type": "uint256"
        }
      ],
      "name": "tokenURI",
      "outputs": [
        {
          "internalType": "string",
          "name": "",
          "type": "string"
        }
      ],
      "stateMutability": "view",
      "type": "function"
    },
    {
      "inputs": [],
      "name": "totalSupply",
      "outputs": [
        {
          "internalType": "uint256",
          "name": "",
          "type": "uint256"
        }
      ],
      "stateMutability": "view",
      "type": "function"
    },
    {
      "inputs": [
        {
          "internalType": "address",
          "name": "from",
          "type": "address"
        },
        {
          "internalType": "address",
          "name": "to",
          "type": "address"
        },
        {
          "internalType": "bytes32",
          "name": "tokenId",
          "type": "bytes32"
        },
        {
          "internalType": "bool",
          "name": "force",
          "type": "bool"
        },
        {
          "internalType": "bytes",
          "name": "data",
          "type": "bytes"
        }
      ],
      "name": "transfer",
      "outputs": [],
      "stateMutability": "nonpayable",
      "type": "function"
    },
    {
      "inputs": [
        {
          "internalType": "address[]",
          "name": "from",
          "type": "address[]"
        },
        {
          "internalType": "address[]",
          "name": "to",
          "type": "address[]"
        },
        {
          "internalType": "bytes32[]",
          "name": "tokenId",
          "type": "bytes32[]"
        },
        {
          "internalType": "bool",
          "name": "force",
          "type": "bool"
        },
        {
          "internalType": "bytes[]",
          "name": "data",
          "type": "bytes[]"
        }
      ],
      "name": "transferBatch",
      "outputs": [],
      "stateMutability": "nonpayable",
      "type": "function"
    },
    {
      "inputs": [
        {
          "internalType": "address",
          "name": "from",
          "type": "address"
        },
        {
          "internalType": "address",
          "name": "to",
          "type": "address"
        },
        {
          "internalType": "uint256",
          "name": "tokenId",
          "type": "uint256"
        }
      ],
      "name": "transferFrom",
      "outputs": [],
      "stateMutability": "nonpayable",
      "type": "function"
    },
    {
      "inputs": [
        {
          "internalType": "address",
          "name": "newOwner",
          "type": "address"
        }
      ],
      "name": "transferOwnership",
      "outputs": [],
      "stateMutability": "nonpayable",
      "type": "function"
    }
  ],
  "bytecode": "0x60806040523480156200001157600080fd5b506040516200285e3803806200285e833981016040819052620000349162000340565b8282828282828062000051816200012b60201b62000b521760201c565b50620000a87feafec4d89fa9619884b60000a4d96624a38f7ac2d8d9a604ecf07c12c77e480c60001b604051806040016040528060048152602001632936598960e21b8152506200019260201b62000bc41760201c565b620000e27fdeba1e292f8ba88238e10ab3c7f88bd4be4fac56cad5194b6ecceaf653468af160001b846200019260201b62000bc41760201c565b6200011c7f2f0a68ab07768e01943a599e73362a0e17a63a72e94dd2e384d2c1d4db93275660001b836200019260201b62000bc41760201c565b50505050505050505062000420565b6000546001600160a01b038281169116146200018f57600080546001600160a01b038381166001600160a01b0319831681178455604051919092169283917f8be0079c531659141344cd1fd0a4f28419497f9722a3daafe3b4186f6b6457e09190a3505b50565b60008281526001602090815260409091208251620001b392840190620001e3565b5060405182907fcdf4e344c0d23d4cdd0474039d176c55b19d531070dbe17856bfb993a5b5720b90600090a25050565b828054620001f190620003cd565b90600052602060002090601f01602090048101928262000215576000855562000260565b82601f106200023057805160ff191683800117855562000260565b8280016001018555821562000260579182015b828111156200026057825182559160200191906001019062000243565b506200026e92915062000272565b5090565b5b808211156200026e576000815560010162000273565b600082601f8301126200029b57600080fd5b81516001600160401b0380821115620002b857620002b86200040a565b604051601f8301601f19908116603f01168101908282118183101715620002e357620002e36200040a565b816040528381526020925086838588010111156200030057600080fd5b600091505b8382101562000324578582018301518183018401529082019062000305565b83821115620003365760008385830101525b9695505050505050565b6000806000606084860312156200035657600080fd5b83516001600160401b03808211156200036e57600080fd5b6200037c8783880162000289565b945060208601519150808211156200039357600080fd5b50620003a28682870162000289565b604086015190935090506001600160a01b0381168114620003c257600080fd5b809150509250925092565b600181811c90821680620003e257607f821691505b602082108114156200040457634e487b7160e01b600052602260045260246000fd5b50919050565b634e487b7160e01b600052604160045260246000fd5b61242e80620004306000396000f3fe608060405234801561001057600080fd5b50600436106101c45760003560e01c806354f6127f116100f957806395d89b4111610097578063c87b56dd11610071578063c87b56dd146103d0578063cf5182ba146103e3578063e985e9c5146103f6578063f2fde38b1461040c57600080fd5b806395d89b4114610395578063a3b261f21461039d578063b88d4fde146103bd57600080fd5b806370a08231116100d357806370a0823114610356578063715018a6146103695780637f23690c146103715780638da5cb5b1461038457600080fd5b806354f6127f1461031d57806355908868146103305780636352211e1461034357600080fd5b8063217b22701161016657806342842e0e1161014057806342842e0e146102b757806349a6078d146102ca5780634e3e6e9c146102ea578063511b69521461030a57600080fd5b8063217b22701461027e57806323b872dd146102915780632a3654a4146102a457600080fd5b8063095ea7b3116101a2578063095ea7b3146102315780630b0c6d821461024657806314a6e2931461025957806318160ddd1461026c57600080fd5b806301ffc9a7146101c957806306fdde03146101f1578063081812fc14610206575b600080fd5b6101dc6101d7366004611ff5565b61041f565b60405190151581526020015b60405180910390f35b6101f9610497565b6040516101e89190612265565b610219610214366004611f9f565b6104c4565b6040516001600160a01b0390911681526020016101e8565b61024461023f366004611e2b565b610518565b005b610244610254366004611e2b565b61056f565b610244610267366004611f3b565b61061d565b6002545b6040519081526020016101e8565b61021961028c366004611f9f565b6106f1565b61024461029f366004611d87565b61072a565b6101dc6102b2366004611e2b565b61074a565b6102446102c5366004611d87565b610766565b6102dd6102d8366004611f9f565b610786565b6040516101e89190612165565b6102fd6102f8366004611f06565b6107a8565b6040516101e891906121ea565b610244610318366004611d0e565b61085c565b6101f961032b366004611f9f565b6108c4565b61024461033e366004611e55565b6108cf565b610219610351366004611f9f565b6109b5565b610270610364366004611cc0565b6109c0565b6102446109e1565b61024461037f366004611fb8565b6109f5565b6000546001600160a01b0316610219565b6101f9610a0b565b6103b06103ab366004611cc0565b610a38565b6040516101e891906121b2565b6102446103cb366004611dc3565b610a5c565b6101f96103de366004611f9f565b610a6a565b6102446103f1366004611e2b565b610ab8565b6101dc610404366004611cdb565b600092915050565b61024461041a366004611cc0565b610ac2565b60006001600160e01b031982167f80ac58cd00000000000000000000000000000000000000000000000000000000148061048257506001600160e01b031982167f5b5e139f00000000000000000000000000000000000000000000000000000000145b80610491575061049182610c13565b92915050565b606060006104917fdeba1e292f8ba88238e10ab3c7f88bd4be4fac56cad5194b6ecceaf653468af1610c51565b6000816104d081610cf3565b6000818152600560205260408120906104e882610d2b565b9050806104fa57506000949350505050565b61050f61050860018361230d565b8390610d35565b95945050505050565b6105228282610ab8565b806001600160a01b038316610536826106f1565b6001600160a01b03167f8c5be1e5ebec7d5bd14f71427d1e84f3dd0314c0f7b2291e5b200ac8c7c3b92560405160405180910390a45050565b600061057a826106f1565b9050336001600160a01b03821681146105c557604051632d938f5160e11b81526001600160a01b03808416600483015260248201859052821660448201526064015b60405180910390fd5b6001600160a01b0384166105ec57604051639577b8b360e01b815260040160405180910390fd5b836001600160a01b0316826001600160a01b0316141561060c5750505050565b610617848385610d41565b50505050565b610625610da0565b805182511461069c5760405162461bcd60e51b815260206004820152602660248201527f4b657973206c656e677468206e6f7420657175616c20746f2076616c7565732060448201527f6c656e677468000000000000000000000000000000000000000000000000000060648201526084016105bc565b60005b82518110156106ec576106e48382815181106106bd576106bd6123cc565b60200260200101518383815181106106d7576106d76123cc565b6020026020010151610e09565b60010161069f565b505050565b6000818152600360205260408120546001600160a01b03168061049157604051635747cd1b60e11b8152600481018490526024016105bc565b6106ec83838360001b60016040518060200160405280600081525061085c565b600061075582610cf3565b61075f8383610e13565b9392505050565b6106ec83838360001b60006040518060200160405280600081525061085c565b606061079182610cf3565b600082815260056020526040902061049190610e5c565b6060815167ffffffffffffffff8111156107c4576107c46123e2565b6040519080825280602002602001820160405280156107f757816020015b60608152602001906001900390816107e25790505b50905060005b82518110156108565761082883828151811061081b5761081b6123cc565b6020026020010151610c51565b82828151811061083a5761083a6123cc565b602002602001018190525061084f8160010190565b90506107fd565b50919050565b336108678185610e13565b6108af576040517f1294d2a9000000000000000000000000000000000000000000000000000000008152600481018590526001600160a01b03821660248201526044016105bc565b6108bc8686868686610e69565b505050505050565b606061049182610c51565b835185511415806108e257508251855114155b806108ef57508051855114155b15610926576040517f93a8311900000000000000000000000000000000000000000000000000000000815260040160405180910390fd5b60005b85518110156108bc576109a3868281518110610947576109476123cc565b6020026020010151868381518110610961576109616123cc565b602002602001015186848151811061097b5761097b6123cc565b602002602001015186868681518110610996576109966123cc565b602002602001015161085c565b806109ad81612385565b915050610929565b6000610491826106f1565b6001600160a01b038116600090815260046020526040812061049190610d2b565b6109e9610da0565b6109f36000610b52565b565b6109fd610da0565b610a078282610e09565b5050565b606060006104917f2f0a68ab07768e01943a599e73362a0e17a63a72e94dd2e384d2c1d4db932756610c51565b6001600160a01b038116600090815260046020526040902060609061049190610e7d565b61061784848460008561085c565b60606000610a977f9afb95cacc9f95858ec44aa8c3b685511002e30ae54415823f406128b85b238e610c51565b9050600060249050600061050f8383848651610ab3919061230d565b610e88565b610a078282610fb0565b610aca610da0565b6001600160a01b038116610b465760405162461bcd60e51b815260206004820152602660248201527f4f776e61626c653a206e6577206f776e657220697320746865207a65726f206160448201527f646472657373000000000000000000000000000000000000000000000000000060648201526084016105bc565b610b4f81610b52565b50565b6000546001600160a01b03828116911614610b4f57600080546001600160a01b0383811673ffffffffffffffffffffffffffffffffffffffff19831681178455604051919092169283917f8be0079c531659141344cd1fd0a4f28419497f9722a3daafe3b4186f6b6457e09190a35050565b60008281526001602090815260409091208251610be392840190611a3f565b5060405182907fcdf4e344c0d23d4cdd0474039d176c55b19d531070dbe17856bfb993a5b5720b90600090a25050565b60006001600160e01b031982167f49399145000000000000000000000000000000000000000000000000000000001480610491575061049182610ffb565b6000818152600160205260409020805460609190610c6e90612350565b80601f0160208091040260200160405190810160405280929190818152602001828054610c9a90612350565b8015610ce75780601f10610cbc57610100808354040283529160200191610ce7565b820191906000526020600020905b815481529060010190602001808311610cca57829003601f168201915b50505050509050919050565b6000818152600360205260409020546001600160a01b0316610b4f57604051635747cd1b60e11b8152600481018290526024016105bc565b6000610491825490565b600061075f8383611049565b6000818152600560205260409020610d599084611073565b5080826001600160a01b0316846001600160a01b03167f17d5389f6ab6adb2647dfa0aa365c323d37adacc30b33a65310b6158ce1373d560405160405180910390a4505050565b33610db36000546001600160a01b031690565b6001600160a01b0316146109f35760405162461bcd60e51b815260206004820181905260248201527f4f776e61626c653a2063616c6c6572206973206e6f7420746865206f776e657260448201526064016105bc565b610a078282611088565b600080610e1f836106f1565b9050806001600160a01b0316846001600160a01b03161480610e5457506000838152600560205260409020610e549085611146565b949350505050565b6060600061075f83611168565b610e7685858585856111c3565b5050505050565b606061049182611168565b606081610e9681601f6122f5565b1015610ee45760405162461bcd60e51b815260206004820152600e60248201527f736c6963655f6f766572666c6f7700000000000000000000000000000000000060448201526064016105bc565b610eee82846122f5565b84511015610f3e5760405162461bcd60e51b815260206004820152601160248201527f736c6963655f6f75744f66426f756e647300000000000000000000000000000060448201526064016105bc565b606082158015610f5d5760405191506000825260208201604052610fa7565b6040519150601f8416801560200281840101858101878315602002848b0101015b81831015610f96578051835260209283019201610f7e565b5050858452601f01601f1916604052505b50949350505050565b610fba8282611245565b604080516020810183905201604051602081830303815290604052806020019051810190610fe8919061208d565b826001600160a01b0316610536836106f1565b60006001600160e01b031982167f714df77c00000000000000000000000000000000000000000000000000000000148061049157506301ffc9a760e01b6001600160e01b0319831614610491565b6000826000018281548110611060576110606123cc565b9060005260206000200154905092915050565b600061075f836001600160a01b03841661133d565b7fdeba1e292f8ba88238e10ab3c7f88bd4be4fac56cad5194b6ecceaf653468af18214156110e2576040517f85c169bd00000000000000000000000000000000000000000000000000000000815260040160405180910390fd5b7f2f0a68ab07768e01943a599e73362a0e17a63a72e94dd2e384d2c1d4db93275682141561113c576040517f76755b3800000000000000000000000000000000000000000000000000000000815260040160405180910390fd5b610a078282610bc4565b6001600160a01b0381166000908152600183016020526040812054151561075f565b606081600001805480602002602001604051908101604052809291908181526020018280548015610ce757602002820191906000526020600020905b8154815260200190600101908083116111a45750505050509050919050565b6111d08585858585611430565b6040805160208101859052016040516020818303038152906040528060200190518101906111fe919061208d565b846001600160a01b0316866001600160a01b03167fddf252ad1be2c89b69c2b068fc378daa952ba7f163c4a11628f55a4df523b3ef60405160405180910390a45050505050565b6000611250826106f1565b9050336001600160a01b038216811461129657604051632d938f5160e11b81526001600160a01b03808416600483015260248201859052821660448201526064016105bc565b6001600160a01b0384166112bd57604051639577b8b360e01b815260040160405180910390fd5b836001600160a01b0316826001600160a01b031614156112dd5750505050565b60008381526005602052604090206112f590856115c2565b5082826001600160a01b0316856001600160a01b03167f34b797fc5a526f7bf1d2b5de25f6564fd85ae364e3ee939aee7c1ac27871a98860405160405180910390a450505050565b6000818152600183016020526040812054801561142657600061136160018361230d565b85549091506000906113759060019061230d565b90508181146113da576000866000018281548110611395576113956123cc565b90600052602060002001549050808760000184815481106113b8576113b86123cc565b6000918252602080832090910192909255918252600188019052604090208390555b85548690806113eb576113eb6123b6565b600190038181906000526020600020016000905590558560010160008681526020019081526020016000206000905560019350505050610491565b6000915050610491565b600061143b846106f1565b9050856001600160a01b0316816001600160a01b03161461148957604051632d938f5160e11b81526001600160a01b03808316600483015260248201869052871660448201526064016105bc565b6001600160a01b0385166114c9576040517f24ecef4d00000000000000000000000000000000000000000000000000000000815260040160405180910390fd5b336114d58787876115d7565b6114df8786611629565b6001600160a01b0387166000908152600460205260409020611501908661167a565b506001600160a01b03861660009081526004602052604090206115249086611686565b5060008581526003602052604090819020805473ffffffffffffffffffffffffffffffffffffffff19166001600160a01b0389811691821790925591518792918a16907fb333c813a7426a7a11e2b190cad52c44119421594b47f6f32ace6d8c7207b2bf906115989086908a908a9061213b565b60405180910390a46115ac87878786611692565b6115b98787878787611775565b50505050505050565b600061075f836001600160a01b0384166118ee565b6001600160a01b0383166115fe576001600260008282546115f891906122f5565b90915550505b6001600160a01b0382166106ec5760016002600082825461161f919061230d565b9091555050505050565b60008181526005602052604081209061164182610d2b565b905060005b81811015610e7657600061165a8482610d35565b9050611667818787610d41565b508061167281612385565b915050611646565b600061075f838361133d565b600061075f83836118ee565b6116a384631aed5a8560e21b61193d565b15610617576000848484846040516020016116c194939291906120d2565b60408051601f1981840301815290829052631aed5a8560e21b825291506001600160a01b03861690636bb56a149061171f907f3724c94f0815e936299cca424da4140752198e0beb7931a6e0925d11bc97544c90859060040161224c565b600060405180830381600087803b15801561173957600080fd5b505af115801561174d573d6000803e3d6000fd5b505050506040513d6000823e601f3d908101601f191682016040526108bc919081019061201f565b61178684631aed5a8560e21b61193d565b1561185f576000858585846040516020016117a494939291906120d2565b60408051601f1981840301815290829052631aed5a8560e21b825291506001600160a01b03861690636bb56a1490611802907fc7a120a42b6057a0cbed111fbbfbd52fcd96748c04394f77fc2c3adbe0391e0190859060040161224c565b600060405180830381600087803b15801561181c57600080fd5b505af1158015611830573d6000803e3d6000fd5b505050506040513d6000823e601f3d908101601f19168201604052611858919081019061201f565b5050610e76565b81610e76576001600160a01b0384163b156118b1576040517f4349776d0000000000000000000000000000000000000000000000000000000081526001600160a01b03851660048201526024016105bc565b6040517f031731370000000000000000000000000000000000000000000000000000000081526001600160a01b03851660048201526024016105bc565b600081815260018301602052604081205461193557508154600181810184556000848152602080822090930184905584548482528286019093526040902091909155610491565b506000610491565b604080516001600160e01b0319831660248083019190915282518083039091018152604490910182526020810180517bffffffffffffffffffffffffffffffffffffffffffffffffffffffff166301ffc9a760e01b179052905160009190829081906001600160a01b03871690617530906119b990869061211f565b6000604051808303818686fa925050503d80600081146119f5576040519150601f19603f3d011682016040523d82523d6000602084013e6119fa565b606091505b5091509150602081511015611a155760009350505050610491565b818015611a355750600081806020019051810190611a33919061208d565b115b9695505050505050565b828054611a4b90612350565b90600052602060002090601f016020900481019282611a6d5760008555611ab3565b82601f10611a8657805160ff1916838001178555611ab3565b82800160010185558215611ab3579182015b82811115611ab3578251825591602001919060010190611a98565b50611abf929150611ac3565b5090565b5b80821115611abf5760008155600101611ac4565b80356001600160a01b0381168114611aef57600080fd5b919050565b600082601f830112611b0557600080fd5b81356020611b1a611b15836122a9565b612278565b80838252828201915082860187848660051b8901011115611b3a57600080fd5b60005b85811015611b6057611b4e82611ad8565b84529284019290840190600101611b3d565b5090979650505050505050565b600082601f830112611b7e57600080fd5b81356020611b8e611b15836122a9565b80838252828201915082860187848660051b8901011115611bae57600080fd5b60005b85811015611b6057813584529284019290840190600101611bb1565b600082601f830112611bde57600080fd5b81356020611bee611b15836122a9565b80838252828201915082860187848660051b8901011115611c0e57600080fd5b6000805b86811015611c5157823567ffffffffffffffff811115611c30578283fd5b611c3e8b88838d0101611c6f565b8652509385019391850191600101611c12565b509198975050505050505050565b80358015158114611aef57600080fd5b600082601f830112611c8057600080fd5b8135611c8e611b15826122cd565b818152846020838601011115611ca357600080fd5b816020850160208301376000918101602001919091529392505050565b600060208284031215611cd257600080fd5b61075f82611ad8565b60008060408385031215611cee57600080fd5b611cf783611ad8565b9150611d0560208401611ad8565b90509250929050565b600080600080600060a08688031215611d2657600080fd5b611d2f86611ad8565b9450611d3d60208701611ad8565b935060408601359250611d5260608701611c5f565b9150608086013567ffffffffffffffff811115611d6e57600080fd5b611d7a88828901611c6f565b9150509295509295909350565b600080600060608486031215611d9c57600080fd5b611da584611ad8565b9250611db360208501611ad8565b9150604084013590509250925092565b60008060008060808587031215611dd957600080fd5b611de285611ad8565b9350611df060208601611ad8565b925060408501359150606085013567ffffffffffffffff811115611e1357600080fd5b611e1f87828801611c6f565b91505092959194509250565b60008060408385031215611e3e57600080fd5b611e4783611ad8565b946020939093013593505050565b600080600080600060a08688031215611e6d57600080fd5b853567ffffffffffffffff80821115611e8557600080fd5b611e9189838a01611af4565b96506020880135915080821115611ea757600080fd5b611eb389838a01611af4565b95506040880135915080821115611ec957600080fd5b611ed589838a01611b6d565b9450611ee360608901611c5f565b93506080880135915080821115611ef957600080fd5b50611d7a88828901611bcd565b600060208284031215611f1857600080fd5b813567ffffffffffffffff811115611f2f57600080fd5b610e5484828501611b6d565b60008060408385031215611f4e57600080fd5b823567ffffffffffffffff80821115611f6657600080fd5b611f7286838701611b6d565b93506020850135915080821115611f8857600080fd5b50611f9585828601611bcd565b9150509250929050565b600060208284031215611fb157600080fd5b5035919050565b60008060408385031215611fcb57600080fd5b82359150602083013567ffffffffffffffff811115611fe957600080fd5b611f9585828601611c6f565b60006020828403121561200757600080fd5b81356001600160e01b03198116811461075f57600080fd5b60006020828403121561203157600080fd5b815167ffffffffffffffff81111561204857600080fd5b8201601f8101841361205957600080fd5b8051612067611b15826122cd565b81815285602083850101111561207c57600080fd5b61050f826020830160208601612324565b60006020828403121561209f57600080fd5b5051919050565b600081518084526120be816020860160208601612324565b601f01601f19169290920160200192915050565b60006bffffffffffffffffffffffff19808760601b168352808660601b16601484015250836028830152825161210f816048850160208701612324565b9190910160480195945050505050565b60008251612131818460208701612324565b9190910192915050565b6001600160a01b0384168152821515602082015260606040820152600061050f60608301846120a6565b6020808252825182820181905260009190848201906040850190845b818110156121a65783516001600160a01b031683529284019291840191600101612181565b50909695505050505050565b6020808252825182820181905260009190848201906040850190845b818110156121a6578351835292840192918401916001016121ce565b6000602080830181845280855180835260408601915060408160051b870101925083870160005b8281101561223f57603f1988860301845261222d8583516120a6565b94509285019290850190600101612211565b5092979650505050505050565b828152604060208201526000610e5460408301846120a6565b60208152600061075f60208301846120a6565b604051601f8201601f1916810167ffffffffffffffff811182821017156122a1576122a16123e2565b604052919050565b600067ffffffffffffffff8211156122c3576122c36123e2565b5060051b60200190565b600067ffffffffffffffff8211156122e7576122e76123e2565b50601f01601f191660200190565b60008219821115612308576123086123a0565b500190565b60008282101561231f5761231f6123a0565b500390565b60005b8381101561233f578181015183820152602001612327565b838111156106175750506000910152565b600181811c9082168061236457607f821691505b6020821081141561085657634e487b7160e01b600052602260045260246000fd5b6000600019821415612399576123996123a0565b5060010190565b634e487b7160e01b600052601160045260246000fd5b634e487b7160e01b600052603160045260246000fd5b634e487b7160e01b600052603260045260246000fd5b634e487b7160e01b600052604160045260246000fdfea2646970667358221220e4709543a6af2406dff90326baf3b613f4ed248baa6297419764e4e4fa5761c564736f6c63430008070033",
  "linkReferences": {},
  "deployedLinkReferences": {}
}