{
  "_format": "hh-sol-artifact-1",
  "contractName": "LSP4CompatibilityTester",
  "sourceName": "contracts/Helpers/Tokens/LSP4CompatibilityTester.sol",
  "abi": [
    {
      "inputs": [
        {
          "internalType": "string",
          "name": "name",
          "type": "string"
        },
        {
          "internalType": "string",
          "name": "symbol",
          "type": "string"
        },
        {
          "internalType": "address",
          "name": "newOwner",
          "type": "address"
        }
      ],
      "stateMutability": "nonpayable",
      "type": "constructor"
    },
    {
      "anonymous": false,
      "inputs": [
        {
          "indexed": true,
          "internalType": "bytes32",
          "name": "dataKey",
          "type": "bytes32"
        }
      ],
      "name": "DataChanged",
      "type": "event"
    },
    {
      "anonymous": false,
      "inputs": [
        {
          "indexed": true,
          "internalType": "address",
          "name": "previousOwner",
          "type": "address"
        },
        {
          "indexed": true,
          "internalType": "address",
          "name": "newOwner",
          "type": "address"
        }
      ],
      "name": "OwnershipTransferred",
      "type": "event"
    },
    {
      "inputs": [
        {
          "internalType": "bytes32[]",
          "name": "dataKeys",
          "type": "bytes32[]"
        }
      ],
      "name": "getData",
      "outputs": [
        {
          "internalType": "bytes[]",
          "name": "dataValues",
          "type": "bytes[]"
        }
      ],
      "stateMutability": "view",
      "type": "function"
    },
    {
      "inputs": [
        {
          "internalType": "bytes32",
          "name": "dataKey",
          "type": "bytes32"
        }
      ],
      "name": "getData",
      "outputs": [
        {
          "internalType": "bytes",
          "name": "dataValue",
          "type": "bytes"
        }
      ],
      "stateMutability": "view",
      "type": "function"
    },
    {
      "inputs": [],
      "name": "name",
      "outputs": [
        {
          "internalType": "string",
          "name": "",
          "type": "string"
        }
      ],
      "stateMutability": "view",
      "type": "function"
    },
    {
      "inputs": [],
      "name": "owner",
      "outputs": [
        {
          "internalType": "address",
          "name": "",
          "type": "address"
        }
      ],
      "stateMutability": "view",
      "type": "function"
    },
    {
      "inputs": [],
      "name": "renounceOwnership",
      "outputs": [],
      "stateMutability": "nonpayable",
      "type": "function"
    },
    {
      "inputs": [
        {
          "internalType": "bytes32[]",
          "name": "dataKeys",
          "type": "bytes32[]"
        },
        {
          "internalType": "bytes[]",
          "name": "dataValues",
          "type": "bytes[]"
        }
      ],
      "name": "setData",
      "outputs": [],
      "stateMutability": "nonpayable",
      "type": "function"
    },
    {
      "inputs": [
        {
          "internalType": "bytes32",
          "name": "dataKey",
          "type": "bytes32"
        },
        {
          "internalType": "bytes",
          "name": "dataValue",
          "type": "bytes"
        }
      ],
      "name": "setData",
      "outputs": [],
      "stateMutability": "nonpayable",
      "type": "function"
    },
    {
      "inputs": [
        {
          "internalType": "bytes4",
          "name": "interfaceId",
          "type": "bytes4"
        }
      ],
      "name": "supportsInterface",
      "outputs": [
        {
          "internalType": "bool",
          "name": "",
          "type": "bool"
        }
      ],
      "stateMutability": "view",
      "type": "function"
    },
    {
      "inputs": [],
      "name": "symbol",
      "outputs": [
        {
          "internalType": "string",
          "name": "",
          "type": "string"
        }
      ],
      "stateMutability": "view",
      "type": "function"
    },
    {
      "inputs": [
        {
          "internalType": "address",
          "name": "newOwner",
          "type": "address"
        }
      ],
      "name": "transferOwnership",
      "outputs": [],
      "stateMutability": "nonpayable",
      "type": "function"
    }
  ],
  "bytecode": "0x60806040523480156200001157600080fd5b5060405162000f7a38038062000f7a8339810160408190526200003491620002c2565b806200004b81620000ad60201b620004de1760201c565b50620000787fdeba1e292f8ba88238e10ab3c7f88bd4be4fac56cad5194b6ecceaf653468af18462000114565b620000a47f2f0a68ab07768e01943a599e73362a0e17a63a72e94dd2e384d2c1d4db9327568362000114565b505050620003a2565b6000546001600160a01b038281169116146200011157600080546001600160a01b038381166001600160a01b0319831681178455604051919092169283917f8be0079c531659141344cd1fd0a4f28419497f9722a3daafe3b4186f6b6457e09190a3505b50565b60008281526001602090815260409091208251620001359284019062000165565b5060405182907fcdf4e344c0d23d4cdd0474039d176c55b19d531070dbe17856bfb993a5b5720b90600090a25050565b82805462000173906200034f565b90600052602060002090601f016020900481019282620001975760008555620001e2565b82601f10620001b257805160ff1916838001178555620001e2565b82800160010185558215620001e2579182015b82811115620001e2578251825591602001919060010190620001c5565b50620001f0929150620001f4565b5090565b5b80821115620001f05760008155600101620001f5565b600082601f8301126200021d57600080fd5b81516001600160401b03808211156200023a576200023a6200038c565b604051601f8301601f19908116603f011681019082821181831017156200026557620002656200038c565b816040528381526020925086838588010111156200028257600080fd5b600091505b83821015620002a6578582018301518183018401529082019062000287565b83821115620002b85760008385830101525b9695505050505050565b600080600060608486031215620002d857600080fd5b83516001600160401b0380821115620002f057600080fd5b620002fe878388016200020b565b945060208601519150808211156200031557600080fd5b5062000324868287016200020b565b604086015190935090506001600160a01b03811681146200034457600080fd5b809150509250925092565b600181811c908216806200036457607f821691505b602082108114156200038657634e487b7160e01b600052602260045260246000fd5b50919050565b634e487b7160e01b600052604160045260246000fd5b610bc880620003b26000396000f3fe608060405234801561001057600080fd5b50600436106100be5760003560e01c8063715018a6116100765780638da5cb5b1161005b5780638da5cb5b1461016357806395d89b411461017e578063f2fde38b1461018657600080fd5b8063715018a6146101485780637f23690c1461015057600080fd5b806314a6e293116100a757806314a6e293146101005780634e3e6e9c1461011557806354f6127f1461013557600080fd5b806301ffc9a7146100c357806306fdde03146100eb575b600080fd5b6100d66100d13660046109d8565b610199565b60405190151581526020015b60405180910390f35b6100f3610232565b6040516100e29190610ac9565b61011361010e36600461089d565b61025f565b005b610128610123366004610860565b610338565b6040516100e29190610a67565b6100f3610143366004610978565b6103ec565b6101136103f7565b61011361015e366004610991565b61040b565b6000546040516001600160a01b0390911681526020016100e2565b6100f3610421565b610113610194366004610830565b61044e565b60007fffffffff0000000000000000000000000000000000000000000000000000000082167f714df77c00000000000000000000000000000000000000000000000000000000148061022c57507f01ffc9a7000000000000000000000000000000000000000000000000000000007fffffffff000000000000000000000000000000000000000000000000000000008316145b92915050565b6060600061022c7fdeba1e292f8ba88238e10ab3c7f88bd4be4fac56cad5194b6ecceaf653468af161055b565b6102676105fd565b80518251146102e35760405162461bcd60e51b815260206004820152602660248201527f4b657973206c656e677468206e6f7420657175616c20746f2076616c7565732060448201527f6c656e677468000000000000000000000000000000000000000000000000000060648201526084015b60405180910390fd5b60005b82518110156103335761032b83828151811061030457610304610b66565b602002602001015183838151811061031e5761031e610b66565b6020026020010151610666565b6001016102e6565b505050565b6060815167ffffffffffffffff81111561035457610354610b7c565b60405190808252806020026020018201604052801561038757816020015b60608152602001906001900390816103725790505b50905060005b82518110156103e6576103b88382815181106103ab576103ab610b66565b602002602001015161055b565b8282815181106103ca576103ca610b66565b60200260200101819052506103df8160010190565b905061038d565b50919050565b606061022c8261055b565b6103ff6105fd565b61040960006104de565b565b6104136105fd565b61041d8282610666565b5050565b6060600061022c7f2f0a68ab07768e01943a599e73362a0e17a63a72e94dd2e384d2c1d4db93275661055b565b6104566105fd565b6001600160a01b0381166104d25760405162461bcd60e51b815260206004820152602660248201527f4f776e61626c653a206e6577206f776e657220697320746865207a65726f206160448201527f646472657373000000000000000000000000000000000000000000000000000060648201526084016102da565b6104db816104de565b50565b6000546001600160a01b038281169116146104db57600080546001600160a01b038381167fffffffffffffffffffffffff0000000000000000000000000000000000000000831681178455604051919092169283917f8be0079c531659141344cd1fd0a4f28419497f9722a3daafe3b4186f6b6457e09190a35050565b600081815260016020526040902080546060919061057890610b31565b80601f01602080910402602001604051908101604052809291908181526020018280546105a490610b31565b80156105f15780601f106105c6576101008083540402835291602001916105f1565b820191906000526020600020905b8154815290600101906020018083116105d457829003601f168201915b50505050509050919050565b336106106000546001600160a01b031690565b6001600160a01b0316146104095760405162461bcd60e51b815260206004820181905260248201527f4f776e61626c653a2063616c6c6572206973206e6f7420746865206f776e657260448201526064016102da565b60008281526001602090815260409091208251610685928401906106b5565b5060405182907fcdf4e344c0d23d4cdd0474039d176c55b19d531070dbe17856bfb993a5b5720b90600090a25050565b8280546106c190610b31565b90600052602060002090601f0160209004810192826106e35760008555610729565b82601f106106fc57805160ff1916838001178555610729565b82800160010185558215610729579182015b8281111561072957825182559160200191906001019061070e565b50610735929150610739565b5090565b5b80821115610735576000815560010161073a565b600082601f83011261075f57600080fd5b8135602061077461076f83610b0d565b610adc565b80838252828201915082860187848660051b890101111561079457600080fd5b60005b858110156107b357813584529284019290840190600101610797565b5090979650505050505050565b600082601f8301126107d157600080fd5b813567ffffffffffffffff8111156107eb576107eb610b7c565b6107fe601f8201601f1916602001610adc565b81815284602083860101111561081357600080fd5b816020850160208301376000918101602001919091529392505050565b60006020828403121561084257600080fd5b81356001600160a01b038116811461085957600080fd5b9392505050565b60006020828403121561087257600080fd5b813567ffffffffffffffff81111561088957600080fd5b6108958482850161074e565b949350505050565b600080604083850312156108b057600080fd5b823567ffffffffffffffff808211156108c857600080fd5b6108d48683870161074e565b93506020915081850135818111156108eb57600080fd5b8501601f810187136108fc57600080fd5b803561090a61076f82610b0d565b8082825285820191508584018a878560051b870101111561092a57600080fd5b6000805b8581101561096557823588811115610944578283fd5b6109528e8b838b01016107c0565b865250938801939188019160010161092e565b5050508096505050505050509250929050565b60006020828403121561098a57600080fd5b5035919050565b600080604083850312156109a457600080fd5b82359150602083013567ffffffffffffffff8111156109c257600080fd5b6109ce858286016107c0565b9150509250929050565b6000602082840312156109ea57600080fd5b81357fffffffff000000000000000000000000000000000000000000000000000000008116811461085957600080fd5b6000815180845260005b81811015610a4057602081850181015186830182015201610a24565b81811115610a52576000602083870101525b50601f01601f19169290920160200192915050565b6000602080830181845280855180835260408601915060408160051b870101925083870160005b82811015610abc57603f19888603018452610aaa858351610a1a565b94509285019290850190600101610a8e565b5092979650505050505050565b6020815260006108596020830184610a1a565b604051601f8201601f1916810167ffffffffffffffff81118282101715610b0557610b05610b7c565b604052919050565b600067ffffffffffffffff821115610b2757610b27610b7c565b5060051b60200190565b600181811c90821680610b4557607f821691505b602082108114156103e657634e487b7160e01b600052602260045260246000fd5b634e487b7160e01b600052603260045260246000fd5b634e487b7160e01b600052604160045260246000fdfea2646970667358221220d78d751fab09674bb680cb2152334575f1775a0560eb4fcf1a961f09cde2845964736f6c63430008070033",
  "linkReferences": {},
  "deployedLinkReferences": {}
}