{
  "_format": "hh-sol-artifact-1",
  "contractName": "UniversalProfileInit",
  "sourceName": "contracts/UniversalProfileInit.sol",
  "abi": [
    {
      "inputs": [],
      "stateMutability": "nonpayable",
      "type": "constructor"
    },
    {
      "anonymous": false,
      "inputs": [
        {
          "indexed": true,
          "internalType": "uint256",
          "name": "operation",
          "type": "uint256"
        },
        {
          "indexed": true,
          "internalType": "address",
          "name": "contractAddress",
          "type": "address"
        },
        {
          "indexed": true,
          "internalType": "uint256",
          "name": "value",
          "type": "uint256"
        }
      ],
      "name": "ContractCreated",
      "type": "event"
    },
    {
      "anonymous": false,
      "inputs": [
        {
          "indexed": true,
          "internalType": "bytes32",
          "name": "dataKey",
          "type": "bytes32"
        }
      ],
      "name": "DataChanged",
      "type": "event"
    },
    {
      "anonymous": false,
      "inputs": [
        {
          "indexed": true,
          "internalType": "uint256",
          "name": "operation",
          "type": "uint256"
        },
        {
          "indexed": true,
          "internalType": "address",
          "name": "to",
          "type": "address"
        },
        {
          "indexed": true,
          "internalType": "uint256",
          "name": "value",
          "type": "uint256"
        },
        {
          "indexed": false,
          "internalType": "bytes4",
          "name": "selector",
          "type": "bytes4"
        }
      ],
      "name": "Executed",
      "type": "event"
    },
    {
      "anonymous": false,
      "inputs": [
        {
          "indexed": false,
          "internalType": "uint8",
          "name": "version",
          "type": "uint8"
        }
      ],
      "name": "Initialized",
      "type": "event"
    },
    {
      "anonymous": false,
      "inputs": [
        {
          "indexed": true,
          "internalType": "address",
          "name": "previousOwner",
          "type": "address"
        },
        {
          "indexed": true,
          "internalType": "address",
          "name": "newOwner",
          "type": "address"
        }
      ],
      "name": "OwnershipTransferred",
      "type": "event"
    },
    {
      "anonymous": false,
      "inputs": [
        {
          "indexed": true,
          "internalType": "address",
          "name": "from",
          "type": "address"
        },
        {
          "indexed": false,
          "internalType": "uint256",
          "name": "value",
          "type": "uint256"
        },
        {
          "indexed": true,
          "internalType": "bytes32",
          "name": "typeId",
          "type": "bytes32"
        },
        {
          "indexed": true,
          "internalType": "bytes",
          "name": "returnedValue",
          "type": "bytes"
        },
        {
          "indexed": false,
          "internalType": "bytes",
          "name": "receivedData",
          "type": "bytes"
        }
      ],
      "name": "UniversalReceiver",
      "type": "event"
    },
    {
      "anonymous": false,
      "inputs": [
        {
          "indexed": true,
          "internalType": "address",
          "name": "sender",
          "type": "address"
        },
        {
          "indexed": true,
          "internalType": "uint256",
          "name": "value",
          "type": "uint256"
        }
      ],
      "name": "ValueReceived",
      "type": "event"
    },
    {
      "stateMutability": "payable",
      "type": "fallback"
    },
    {
      "inputs": [],
      "name": "claimOwnership",
      "outputs": [],
      "stateMutability": "nonpayable",
      "type": "function"
    },
    {
      "inputs": [
        {
          "internalType": "uint256",
          "name": "operation",
          "type": "uint256"
        },
        {
          "internalType": "address",
          "name": "to",
          "type": "address"
        },
        {
          "internalType": "uint256",
          "name": "value",
          "type": "uint256"
        },
        {
          "internalType": "bytes",
          "name": "data",
          "type": "bytes"
        }
      ],
      "name": "execute",
      "outputs": [
        {
          "internalType": "bytes",
          "name": "result",
          "type": "bytes"
        }
      ],
      "stateMutability": "payable",
      "type": "function"
    },
    {
      "inputs": [
        {
          "internalType": "bytes32[]",
          "name": "dataKeys",
          "type": "bytes32[]"
        }
      ],
      "name": "getData",
      "outputs": [
        {
          "internalType": "bytes[]",
          "name": "dataValues",
          "type": "bytes[]"
        }
      ],
      "stateMutability": "view",
      "type": "function"
    },
    {
      "inputs": [
        {
          "internalType": "bytes32",
          "name": "dataKey",
          "type": "bytes32"
        }
      ],
      "name": "getData",
      "outputs": [
        {
          "internalType": "bytes",
          "name": "dataValue",
          "type": "bytes"
        }
      ],
      "stateMutability": "view",
      "type": "function"
    },
    {
      "inputs": [
        {
          "internalType": "address",
          "name": "newOwner",
          "type": "address"
        }
      ],
      "name": "initialize",
      "outputs": [],
      "stateMutability": "payable",
      "type": "function"
    },
    {
      "inputs": [],
      "name": "initialized",
      "outputs": [
        {
          "internalType": "uint8",
          "name": "",
          "type": "uint8"
        }
      ],
      "stateMutability": "view",
      "type": "function"
    },
    {
      "inputs": [],
      "name": "initializing",
      "outputs": [
        {
          "internalType": "bool",
          "name": "",
          "type": "bool"
        }
      ],
      "stateMutability": "view",
      "type": "function"
    },
    {
      "inputs": [
        {
          "internalType": "bytes32",
          "name": "dataHash",
          "type": "bytes32"
        },
        {
          "internalType": "bytes",
          "name": "signature",
          "type": "bytes"
        }
      ],
      "name": "isValidSignature",
      "outputs": [
        {
          "internalType": "bytes4",
          "name": "magicValue",
          "type": "bytes4"
        }
      ],
      "stateMutability": "view",
      "type": "function"
    },
    {
      "inputs": [],
      "name": "owner",
      "outputs": [
        {
          "internalType": "address",
          "name": "",
          "type": "address"
        }
      ],
      "stateMutability": "view",
      "type": "function"
    },
    {
      "inputs": [],
      "name": "pendingOwner",
      "outputs": [
        {
          "internalType": "address",
          "name": "",
          "type": "address"
        }
      ],
      "stateMutability": "view",
      "type": "function"
    },
    {
      "inputs": [],
      "name": "renounceOwnership",
      "outputs": [],
      "stateMutability": "nonpayable",
      "type": "function"
    },
    {
      "inputs": [
        {
          "internalType": "bytes32[]",
          "name": "dataKeys",
          "type": "bytes32[]"
        },
        {
          "internalType": "bytes[]",
          "name": "dataValues",
          "type": "bytes[]"
        }
      ],
      "name": "setData",
      "outputs": [],
      "stateMutability": "nonpayable",
      "type": "function"
    },
    {
      "inputs": [
        {
          "internalType": "bytes32",
          "name": "dataKey",
          "type": "bytes32"
        },
        {
          "internalType": "bytes",
          "name": "dataValue",
          "type": "bytes"
        }
      ],
      "name": "setData",
      "outputs": [],
      "stateMutability": "nonpayable",
      "type": "function"
    },
    {
      "inputs": [
        {
          "internalType": "bytes4",
          "name": "interfaceId",
          "type": "bytes4"
        }
      ],
      "name": "supportsInterface",
      "outputs": [
        {
          "internalType": "bool",
          "name": "",
          "type": "bool"
        }
      ],
      "stateMutability": "view",
      "type": "function"
    },
    {
      "inputs": [
        {
          "internalType": "address",
          "name": "_newOwner",
          "type": "address"
        }
      ],
      "name": "transferOwnership",
      "outputs": [],
      "stateMutability": "nonpayable",
      "type": "function"
    },
    {
      "inputs": [
        {
          "internalType": "bytes32",
          "name": "typeId",
          "type": "bytes32"
        },
        {
          "internalType": "bytes",
          "name": "data",
          "type": "bytes"
        }
      ],
      "name": "universalReceiver",
      "outputs": [
        {
          "internalType": "bytes",
          "name": "returnValue",
          "type": "bytes"
        }
      ],
      "stateMutability": "payable",
      "type": "function"
    }
  ],
  "bytecode": "0x60806040523480156200001157600080fd5b506200001c62000022565b62000152565b6200002e60ff62000031565b50565b60008054610100900460ff1615620000ca578160ff1660011480156200006a575062000068306200014360201b62000f701760201c565b155b620000c25760405162461bcd60e51b815260206004820152602e60248201526000805160206200287083398151915260448201526d191e481a5b9a5d1a585b1a5e995960921b60648201526084015b60405180910390fd5b506000919050565b60005460ff808416911610620001295760405162461bcd60e51b815260206004820152602e60248201526000805160206200287083398151915260448201526d191e481a5b9a5d1a585b1a5e995960921b6064820152608401620000b9565b506000805460ff191660ff92909216919091179055600190565b6001600160a01b03163b151590565b61270e80620001626000396000f3fe6080604052600436106100f35760003560e01c806354f6127f1161008a5780638da5cb5b116100595780638da5cb5b146102c0578063c4d66de8146102f8578063e30c39781461030b578063f2fde38b1461032b576100f3565b806354f6127f146102585780636bb56a1414610278578063715018a61461028b5780637f23690c146102a0576100f3565b80632599f159116100c65780632599f159146101d957806344c028fe146101f65780634e3e6e9c146102165780634e71e0c814610243576100f3565b806301ffc9a71461012957806314a6e2931461015e578063158ef93e1461017e5780631626ba7e146101a0575b341561012757604051349033907f7e71433ddf847725166244795048ecf3e3f9f35628254ecbf73605666423349390600090a35b005b34801561013557600080fd5b50610149610144366004612273565b61034b565b60405190151581526020015b60405180910390f35b34801561016a57600080fd5b506101276101793660046120ec565b610412565b34801561018a57600080fd5b5060005460405160ff9091168152602001610155565b3480156101ac57600080fd5b506101c06101bb36600461222c565b6104eb565b6040516001600160e01b03199091168152602001610155565b3480156101e557600080fd5b50600054610100900460ff16610149565b61020961020436600461233d565b6105ee565b60405161015591906124c0565b34801561022257600080fd5b506102366102313660046120b7565b610c82565b6040516101559190612445565b34801561024f57600080fd5b50610127610d36565b34801561026457600080fd5b506102096102733660046121c7565b610d40565b6102096102863660046121e0565b610d4b565b34801561029757600080fd5b50610127610e9c565b3480156102ac57600080fd5b506101276102bb36600461222c565b610eae565b3480156102cc57600080fd5b506000546201000090046001600160a01b03165b6040516001600160a01b039091168152602001610155565b61012761030636600461209c565b610ec4565b34801561031757600080fd5b506002546102e0906001600160a01b031681565b34801561033757600080fd5b5061012761034636600461209c565b610f3a565b60006001600160e01b03198216630b135d3f60e11b148061039557506001600160e01b031982167f9a3bfe8800000000000000000000000000000000000000000000000000000000145b806103c957506001600160e01b031982167f6bb56a1400000000000000000000000000000000000000000000000000000000145b806103fd57506001600160e01b031982167fd225f16000000000000000000000000000000000000000000000000000000000145b8061040c575061040c82610f7f565b92915050565b61041a610fbd565b80518251146104965760405162461bcd60e51b815260206004820152602660248201527f4b657973206c656e677468206e6f7420657175616c20746f2076616c7565732060448201527f6c656e677468000000000000000000000000000000000000000000000000000060648201526084015b60405180910390fd5b60005b82518110156104e6576104de8382815181106104b7576104b7612696565b60200260200101518383815181106104d1576104d1612696565b602002602001015161101e565b600101610499565b505050565b600080546201000090046001600160a01b0316803b156105ae5761051681630b135d3f60e11b61106d565b610528576001600160e01b03196105a6565b604051630b135d3f60e11b81526001600160a01b03821690631626ba7e9061055690879087906004016124a7565b60206040518083038186803b15801561056e57600080fd5b505afa158015610582573d6000803e3d6000fd5b505050506040513d601f19601f820116820180604052508101906105a69190612290565b91505061040c565b6105b8848461116f565b6001600160a01b0316816001600160a01b0316146105de576001600160e01b03196105a6565b50630b135d3f60e11b9392505050565b60606105f8610fbd565b60005a9050866106fe57844710156106615760405162461bcd60e51b815260206004820152602660248201527f455243373235583a20696e73756666696369656e742062616c616e636520666f6044820152651c8818d85b1b60d21b606482015260840161048d565b6106a4868686868080601f016020809104026020016040519081016040528093929190818152602001838380828437600092019190915250879250611193915050565b9150846001600160a01b038716887f4810874456b8e6487bd861375cf6abd8e1c8bb5858c8ce36a86a04dabfac199e6106dd8789612599565b6040516001600160e01b0319909116815260200160405180910390a4610c78565b60038714156107bd57841561077b5760405162461bcd60e51b815260206004820152603860248201527f455243373235583a2063616e6e6f74207472616e736665722076616c7565207760448201527f697468206f7065726174696f6e2053544154494343414c4c0000000000000000606482015260840161048d565b6106a48685858080601f016020809104026020016040519081016040528093929190818152602001838380828437600092019190915250869250611245915050565b600487141561087c57841561083a5760405162461bcd60e51b815260206004820152603a60248201527f455243373235583a2063616e6e6f74207472616e736665722076616c7565207760448201527f697468206f7065726174696f6e2044454c454741544543414c4c000000000000606482015260840161048d565b6106a48685858080601f0160208091040260200160405190810160405280939291908181526020018383808284376000920191909152508692506112e9915050565b6001871415610a20576001600160a01b0386161561090e5760405162461bcd60e51b815260206004820152604360248201527f455243373235583a20435245415445206f7065726174696f6e7320726571756960448201527f726520746865207265636569766572206164647265737320746f20626520656d60648201526270747960e81b608482015260a40161048d565b8447101561096d5760405162461bcd60e51b815260206004820152602660248201527f455243373235583a20696e73756666696369656e742062616c616e636520666f6044820152651c8818d85b1b60d21b606482015260840161048d565b60006109af8686868080601f01602080910402602001604051908101604052809392919081815260200183838082843760009201919091525061134392505050565b6040516bffffffffffffffffffffffff19606083901b166020820152909150603401604051602081830303815290604052925085816001600160a01b0316897f01c42bd7e97a66166063b02fce6924e6656b6c2c61966630165095c4fb0b7b2f60405160405180910390a450610c78565b6002871415610c30576001600160a01b03861615610ab25760405162461bcd60e51b815260206004820152604360248201527f455243373235583a20435245415445206f7065726174696f6e7320726571756960448201527f726520746865207265636569766572206164647265737320746f20626520656d60648201526270747960e81b608482015260a40161048d565b84471015610b115760405162461bcd60e51b815260206004820152602660248201527f455243373235583a20696e73756666696369656e742062616c616e636520666f6044820152651c8818d85b1b60d21b606482015260840161048d565b6000610b5f85858080601f016020809104026020016040519081016040528093929190818152602001838380828437600092019190915250610b5a925060209150889050612582565b6113f7565b90506000610bae86868080601f01602080910402602001604051908101604052809392919081815260200183838082843760009201829052509250610ba991506020905089612582565b61145d565b90506000610bbd888484611587565b6040516bffffffffffffffffffffffff19606083901b166020820152909150603401604051602081830303815290604052945087816001600160a01b03168b7f01c42bd7e97a66166063b02fce6924e6656b6c2c61966630165095c4fb0b7b2f60405160405180910390a4505050610c78565b60405162461bcd60e51b815260206004820152601460248201527f57726f6e67206f7065726174696f6e2074797065000000000000000000000000604482015260640161048d565b5095945050505050565b6060815167ffffffffffffffff811115610c9e57610c9e6126ac565b604051908082528060200260200182016040528015610cd157816020015b6060815260200190600190039081610cbc5790505b50905060005b8251811015610d3057610d02838281518110610cf557610cf5612696565b6020026020010151611691565b828281518110610d1457610d14612696565b6020026020010181905250610d298160010190565b9050610cd7565b50919050565b610d3e611733565b565b606061040c82611691565b60606000610d787f0cfc51aec37c55a4d0b1a65c6255c4bf2fbdf6277f3cc0730c45b828b6db8b47611691565b90506014815110610e38576000610d8e826125c9565b60601c9050610da481635122dded60e11b61106d565b15610e3657604051635122dded60e11b81526001600160a01b0382169063a245bbda90610ddd90339034908b908b908b90600401612416565b600060405180830381600087803b158015610df757600080fd5b505af1158015610e0b573d6000803e3d6000fd5b505050506040513d6000823e601f3d908101601f19168201604052610e3391908101906122ad565b92505b505b81604051610e4691906123fa565b604051809103902085336001600160a01b03167f9c3ba68eb5742b8e3961aea0afc7371a71bf433c8a67a831803b64c064a178c2348888604051610e8c939291906124d3565b60405180910390a4509392505050565b610ea4610fbd565b610d3e60006117e7565b610eb6610fbd565b610ec0828261101e565b5050565b6000610ed06001611873565b90508015610ee8576000805461ff0019166101001790555b610ef1826119ac565b8015610ec0576000805461ff0019169055604051600181527f7f26b83ff96e1f2b6a682f133852f6798a09c465da95921460cefb38474024989060200160405180910390a15050565b610f42610fbd565b6002805473ffffffffffffffffffffffffffffffffffffffff19166001600160a01b03831617905550565b50565b6001600160a01b03163b151590565b60006001600160e01b031982167f714df77c00000000000000000000000000000000000000000000000000000000148061040c575061040c82611a82565b6000546001600160a01b0362010000909104163314610d3e5760405162461bcd60e51b815260206004820181905260248201527f4f776e61626c653a2063616c6c6572206973206e6f7420746865206f776e6572604482015260640161048d565b6000828152600160209081526040909120825161103d92840190611ee7565b5060405182907fcdf4e344c0d23d4cdd0474039d176c55b19d531070dbe17856bfb993a5b5720b90600090a25050565b604080516001600160e01b0319831660248083019190915282518083039091018152604490910182526020810180517bffffffffffffffffffffffffffffffffffffffffffffffffffffffff166301ffc9a760e01b179052905160009190829081906001600160a01b03871690617530906110e99086906123fa565b6000604051808303818686fa925050503d8060008114611125576040519150601f19603f3d011682016040523d82523d6000602084013e61112a565b606091505b5091509150602081511015611145576000935050505061040c565b81801561116557506000818060200190518101906111639190612324565b115b9695505050505050565b600080600061117e8585611ad0565b9150915061118b81611b40565b509392505050565b6060600080866001600160a01b03168487876040516111b291906123fa565b600060405180830381858888f193505050503d80600081146111f0576040519150601f19603f3d011682016040523d82523d6000602084013e6111f5565b606091505b509150915061123a82826040518060400160405280601581526020017f455243373235583a20556e6b6e6f77204572726f720000000000000000000000815250611cfb565b979650505050505050565b6060600080856001600160a01b0316848660405161126391906123fa565b6000604051808303818686fa925050503d806000811461129f576040519150601f19603f3d011682016040523d82523d6000602084013e6112a4565b606091505b509150915061116582826040518060400160405280601581526020017f455243373235583a20556e6b6e6f77204572726f720000000000000000000000815250611cfb565b6060600080856001600160a01b0316848660405161130791906123fa565b6000604051808303818686f4925050503d806000811461129f576040519150601f19603f3d011682016040523d82523d6000602084013e6112a4565b60008151600014156113975760405162461bcd60e51b815260206004820152601d60248201527f6e6f20636f6e74726163742062797465636f64652070726f7669646564000000604482015260640161048d565b81516020830184f090506001600160a01b03811661040c5760405162461bcd60e51b815260206004820152601960248201527f436f756c64206e6f74206465706c6f7920636f6e747261637400000000000000604482015260640161048d565b600061140482602061256a565b835110156114545760405162461bcd60e51b815260206004820152601560248201527f746f427974657333325f6f75744f66426f756e64730000000000000000000000604482015260640161048d565b50016020015190565b60608161146b81601f61256a565b10156114b95760405162461bcd60e51b815260206004820152600e60248201527f736c6963655f6f766572666c6f77000000000000000000000000000000000000604482015260640161048d565b6114c3828461256a565b845110156115135760405162461bcd60e51b815260206004820152601160248201527f736c6963655f6f75744f66426f756e6473000000000000000000000000000000604482015260640161048d565b606082158015611532576040519150600082526020820160405261157c565b6040519150601f8416801560200281840101858101878315602002848b0101015b8183101561156b578051835260209283019201611553565b5050858452601f01601f1916604052505b5090505b9392505050565b600080844710156115da5760405162461bcd60e51b815260206004820152601d60248201527f437265617465323a20696e73756666696369656e742062616c616e6365000000604482015260640161048d565b82516116285760405162461bcd60e51b815260206004820181905260248201527f437265617465323a2062797465636f6465206c656e677468206973207a65726f604482015260640161048d565b8383516020850187f590506001600160a01b0381166116895760405162461bcd60e51b815260206004820152601960248201527f437265617465323a204661696c6564206f6e206465706c6f7900000000000000604482015260640161048d565b949350505050565b60008181526001602052604090208054606091906116ae90612635565b80601f01602080910402602001604051908101604052809291908181526020018280546116da90612635565b80156117275780601f106116fc57610100808354040283529160200191611727565b820191906000526020600020905b81548152906001019060200180831161170a57829003601f168201915b50505050509050919050565b6002546001600160a01b031633146117b35760405162461bcd60e51b815260206004820152602c60248201527f4f776e61626c65436c61696d3a2063616c6c6572206973206e6f74207468652060448201527f70656e64696e674f776e65720000000000000000000000000000000000000000606482015260840161048d565b6002546117c8906001600160a01b03166117e7565b6002805473ffffffffffffffffffffffffffffffffffffffff19169055565b6000546001600160a01b03828116620100009092041614610f6d57600080546001600160a01b03838116620100008181027fffffffffffffffffffff0000000000000000000000000000000000000000ffff851617855560405193049190911692909183917f8be0079c531659141344cd1fd0a4f28419497f9722a3daafe3b4186f6b6457e091a35050565b60008054610100900460ff1615611910578160ff1660011480156118965750303b155b6119085760405162461bcd60e51b815260206004820152602e60248201527f496e697469616c697a61626c653a20636f6e747261637420697320616c72656160448201527f647920696e697469616c697a6564000000000000000000000000000000000000606482015260840161048d565b506000919050565b60005460ff80841691161061198d5760405162461bcd60e51b815260206004820152602e60248201527f496e697469616c697a61626c653a20636f6e747261637420697320616c72656160448201527f647920696e697469616c697a6564000000000000000000000000000000000000606482015260840161048d565b506000805460ff191660ff92909216919091179055600190565b919050565b600054610100900460ff16611a175760405162461bcd60e51b815260206004820152602b60248201527f496e697469616c697a61626c653a20636f6e7472616374206973206e6f74206960448201526a6e697469616c697a696e6760a81b606482015260840161048d565b611a2081611d34565b610f6d7feafec4d89fa9619884b60000abe425d64acd861a49b8ddf5c0b6962110481f3860001b6040518060400160405280600481526020017fabe425d60000000000000000000000000000000000000000000000000000000081525061101e565b60006001600160e01b031982167f44c028fe00000000000000000000000000000000000000000000000000000000148061040c57506301ffc9a760e01b6001600160e01b031983161461040c565b600080825160411415611b075760208301516040840151606085015160001a611afb87828585611da8565b94509450505050611b39565b825160401415611b315760208301516040840151611b26868383611e95565b935093505050611b39565b506000905060025b9250929050565b6000816004811115611b5457611b54612680565b1415611b5d5750565b6001816004811115611b7157611b71612680565b1415611bbf5760405162461bcd60e51b815260206004820152601860248201527f45434453413a20696e76616c6964207369676e61747572650000000000000000604482015260640161048d565b6002816004811115611bd357611bd3612680565b1415611c215760405162461bcd60e51b815260206004820152601f60248201527f45434453413a20696e76616c6964207369676e6174757265206c656e67746800604482015260640161048d565b6003816004811115611c3557611c35612680565b1415611c8e5760405162461bcd60e51b815260206004820152602260248201527f45434453413a20696e76616c6964207369676e6174757265202773272076616c604482015261756560f01b606482015260840161048d565b6004816004811115611ca257611ca2612680565b1415610f6d5760405162461bcd60e51b815260206004820152602260248201527f45434453413a20696e76616c6964207369676e6174757265202776272076616c604482015261756560f01b606482015260840161048d565b60608315611d0a575081611580565b825115611d1a5782518084602001fd5b8160405162461bcd60e51b815260040161048d91906124c0565b600054610100900460ff16611d9f5760405162461bcd60e51b815260206004820152602b60248201527f496e697469616c697a61626c653a20636f6e7472616374206973206e6f74206960448201526a6e697469616c697a696e6760a81b606482015260840161048d565b610f6d816117e7565b6000807f7fffffffffffffffffffffffffffffff5d576e7357a4501ddfe92f46681b20a0831115611ddf5750600090506003611e8c565b8460ff16601b14158015611df757508460ff16601c14155b15611e085750600090506004611e8c565b6040805160008082526020820180845289905260ff881692820192909252606081018690526080810185905260019060a0016020604051602081039080840390855afa158015611e5c573d6000803e3d6000fd5b5050604051601f1901519150506001600160a01b038116611e8557600060019250925050611e8c565b9150600090505b94509492505050565b6000807f7fffffffffffffffffffffffffffffffffffffffffffffffffffffffffffffff831681611ecb60ff86901c601b61256a565b9050611ed987828885611da8565b935093505050935093915050565b828054611ef390612635565b90600052602060002090601f016020900481019282611f155760008555611f5b565b82601f10611f2e57805160ff1916838001178555611f5b565b82800160010185558215611f5b579182015b82811115611f5b578251825591602001919060010190611f40565b50611f67929150611f6b565b5090565b5b80821115611f675760008155600101611f6c565b80356001600160a01b03811681146119a757600080fd5b600082601f830112611fa857600080fd5b81356020611fbd611fb88361251e565b6124ed565b80838252828201915082860187848660051b8901011115611fdd57600080fd5b60005b85811015611ffc57813584529284019290840190600101611fe0565b5090979650505050505050565b60008083601f84011261201b57600080fd5b50813567ffffffffffffffff81111561203357600080fd5b602083019150836020828501011115611b3957600080fd5b600082601f83011261205c57600080fd5b813561206a611fb882612542565b81815284602083860101111561207f57600080fd5b816020850160208301376000918101602001919091529392505050565b6000602082840312156120ae57600080fd5b61158082611f80565b6000602082840312156120c957600080fd5b813567ffffffffffffffff8111156120e057600080fd5b61168984828501611f97565b600080604083850312156120ff57600080fd5b823567ffffffffffffffff8082111561211757600080fd5b61212386838701611f97565b935060209150818501358181111561213a57600080fd5b8501601f8101871361214b57600080fd5b8035612159611fb88261251e565b8082825285820191508584018a878560051b870101111561217957600080fd5b6000805b858110156121b457823588811115612193578283fd5b6121a18e8b838b010161204b565b865250938801939188019160010161217d565b5050508096505050505050509250929050565b6000602082840312156121d957600080fd5b5035919050565b6000806000604084860312156121f557600080fd5b83359250602084013567ffffffffffffffff81111561221357600080fd5b61221f86828701612009565b9497909650939450505050565b6000806040838503121561223f57600080fd5b82359150602083013567ffffffffffffffff81111561225d57600080fd5b6122698582860161204b565b9150509250929050565b60006020828403121561228557600080fd5b8135611580816126c2565b6000602082840312156122a257600080fd5b8151611580816126c2565b6000602082840312156122bf57600080fd5b815167ffffffffffffffff8111156122d657600080fd5b8201601f810184136122e757600080fd5b80516122f5611fb882612542565b81815285602083850101111561230a57600080fd5b61231b826020830160208601612605565b95945050505050565b60006020828403121561233657600080fd5b5051919050565b60008060008060006080868803121561235557600080fd5b8535945061236560208701611f80565b935060408601359250606086013567ffffffffffffffff81111561238857600080fd5b61239488828901612009565b969995985093965092949392505050565b81835281816020850137506000828201602090810191909152601f909101601f19169091010190565b600081518084526123e6816020860160208601612605565b601f01601f19169290920160200192915050565b6000825161240c818460208701612605565b9190910192915050565b6001600160a01b038616815284602082015283604082015260806060820152600061123a6080830184866123a5565b6000602080830181845280855180835260408601915060408160051b870101925083870160005b8281101561249a57603f198886030184526124888583516123ce565b9450928501929085019060010161246c565b5092979650505050505050565b82815260406020820152600061168960408301846123ce565b60208152600061158060208301846123ce565b83815260406020820152600061231b6040830184866123a5565b604051601f8201601f1916810167ffffffffffffffff81118282101715612516576125166126ac565b604052919050565b600067ffffffffffffffff821115612538576125386126ac565b5060051b60200190565b600067ffffffffffffffff82111561255c5761255c6126ac565b50601f01601f191660200190565b6000821982111561257d5761257d61266a565b500190565b6000828210156125945761259461266a565b500390565b6001600160e01b031981358181169160048510156125c15780818660040360031b1b83161692505b505092915050565b805160208201516bffffffffffffffffffffffff1980821692919060148310156125fd5780818460140360031b1b83161693505b505050919050565b60005b83811015612620578181015183820152602001612608565b8381111561262f576000848401525b50505050565b600181811c9082168061264957607f821691505b60208210811415610d3057634e487b7160e01b600052602260045260246000fd5b634e487b7160e01b600052601160045260246000fd5b634e487b7160e01b600052602160045260246000fd5b634e487b7160e01b600052603260045260246000fd5b634e487b7160e01b600052604160045260246000fd5b6001600160e01b031981168114610f6d57600080fdfea2646970667358221220241a23141f50e5b052721e01d2e1cfa387ff865cb711b46525e1a7f1737cee8e64736f6c63430008070033496e697469616c697a61626c653a20636f6e747261637420697320616c726561",
  "linkReferences": {},
  "deployedLinkReferences": {}
}