{
  "_format": "hh-sol-artifact-1",
  "contractName": "ERC165CheckerCustomTest",
  "sourceName": "contracts/Helpers/ERC165CheckerCustomTest.sol",
  "abi": [
    {
      "inputs": [
        {
          "internalType": "address",
          "name": "account",
          "type": "address"
        },
        {
          "internalType": "bytes4",
          "name": "interfaceId",
          "type": "bytes4"
        }
      ],
      "name": "supportsERC165Interface",
      "outputs": [
        {
          "internalType": "bool",
          "name": "",
          "type": "bool"
        }
      ],
      "stateMutability": "view",
      "type": "function"
    }
  ],
  "bytecode": "0x608060405234801561001057600080fd5b506102ad806100206000396000f3fe608060405234801561001057600080fd5b506004361061002b5760003560e01c80632ba9646214610030575b600080fd5b61004361003e3660046101ac565b610057565b604051901515815260200160405180910390f35b6000610063838361006c565b90505b92915050565b604080517fffffffff00000000000000000000000000000000000000000000000000000000831660248083019190915282518083039091018152604490910182526020810180517bffffffffffffffffffffffffffffffffffffffffffffffffffffffff167f01ffc9a7000000000000000000000000000000000000000000000000000000001790529051600091908290819073ffffffffffffffffffffffffffffffffffffffff8716906175309061012690869061023c565b6000604051808303818686fa925050503d8060008114610162576040519150601f19603f3d011682016040523d82523d6000602084013e610167565b606091505b50915091506020815110156101825760009350505050610066565b8180156101a257506000818060200190518101906101a09190610223565b115b9695505050505050565b600080604083850312156101bf57600080fd5b823573ffffffffffffffffffffffffffffffffffffffff811681146101e357600080fd5b915060208301357fffffffff000000000000000000000000000000000000000000000000000000008116811461021857600080fd5b809150509250929050565b60006020828403121561023557600080fd5b5051919050565b6000825160005b8181101561025d5760208186018101518583015201610243565b8181111561026c576000828501525b50919091019291505056fea26469706673582212204588f4b0e295eb05f114fef7a306273fb98b4a71007d4b2ccddd6f76d521a12464736f6c63430008070033",
  "linkReferences": {},
  "deployedLinkReferences": {}
}