{
  "_format": "hh-sol-artifact-1",
  "contractName": "LSP8CompatibleERC721Init",
  "sourceName": "contracts/LSP8IdentifiableDigitalAsset/extensions/LSP8CompatibleERC721Init.sol",
  "abi": [
    {
      "inputs": [],
      "name": "LSP4TokenNameNotEditable",
      "type": "error"
    },
    {
      "inputs": [],
      "name": "LSP4TokenSymbolNotEditable",
      "type": "error"
    },
    {
      "inputs": [],
      "name": "LSP8CannotSendToAddressZero",
      "type": "error"
    },
    {
      "inputs": [],
      "name": "LSP8CannotUseAddressZeroAsOperator",
      "type": "error"
    },
    {
      "inputs": [],
      "name": "LSP8InvalidTransferBatch",
      "type": "error"
    },
    {
      "inputs": [
        {
          "internalType": "bytes32",
          "name": "tokenId",
          "type": "bytes32"
        }
      ],
      "name": "LSP8NonExistentTokenId",
      "type": "error"
    },
    {
      "inputs": [
        {
          "internalType": "bytes32",
          "name": "tokenId",
          "type": "bytes32"
        },
        {
          "internalType": "address",
          "name": "caller",
          "type": "address"
        }
      ],
      "name": "LSP8NotTokenOperator",
      "type": "error"
    },
    {
      "inputs": [
        {
          "internalType": "address",
          "name": "tokenOwner",
          "type": "address"
        },
        {
          "internalType": "bytes32",
          "name": "tokenId",
          "type": "bytes32"
        },
        {
          "internalType": "address",
          "name": "caller",
          "type": "address"
        }
      ],
      "name": "LSP8NotTokenOwner",
      "type": "error"
    },
    {
      "inputs": [
        {
          "internalType": "address",
          "name": "tokenReceiver",
          "type": "address"
        }
      ],
      "name": "LSP8NotifyTokenReceiverContractMissingLSP1Interface",
      "type": "error"
    },
    {
      "inputs": [
        {
          "internalType": "address",
          "name": "tokenReceiver",
          "type": "address"
        }
      ],
      "name": "LSP8NotifyTokenReceiverIsEOA",
      "type": "error"
    },
    {
      "anonymous": false,
      "inputs": [
        {
          "indexed": true,
          "internalType": "address",
          "name": "owner",
          "type": "address"
        },
        {
          "indexed": true,
          "internalType": "address",
          "name": "approved",
          "type": "address"
        },
        {
          "indexed": true,
          "internalType": "uint256",
          "name": "tokenId",
          "type": "uint256"
        }
      ],
      "name": "Approval",
      "type": "event"
    },
    {
      "anonymous": false,
      "inputs": [
        {
          "indexed": true,
          "internalType": "address",
          "name": "operator",
          "type": "address"
        },
        {
          "indexed": true,
          "internalType": "address",
          "name": "tokenOwner",
          "type": "address"
        },
        {
          "indexed": true,
          "internalType": "bytes32",
          "name": "tokenId",
          "type": "bytes32"
        }
      ],
      "name": "AuthorizedOperator",
      "type": "event"
    },
    {
      "anonymous": false,
      "inputs": [
        {
          "indexed": true,
          "internalType": "bytes32",
          "name": "dataKey",
          "type": "bytes32"
        }
      ],
      "name": "DataChanged",
      "type": "event"
    },
    {
      "anonymous": false,
      "inputs": [
        {
          "indexed": false,
          "internalType": "uint8",
          "name": "version",
          "type": "uint8"
        }
      ],
      "name": "Initialized",
      "type": "event"
    },
    {
      "anonymous": false,
      "inputs": [
        {
          "indexed": true,
          "internalType": "address",
          "name": "previousOwner",
          "type": "address"
        },
        {
          "indexed": true,
          "internalType": "address",
          "name": "newOwner",
          "type": "address"
        }
      ],
      "name": "OwnershipTransferred",
      "type": "event"
    },
    {
      "anonymous": false,
      "inputs": [
        {
          "indexed": true,
          "internalType": "address",
          "name": "operator",
          "type": "address"
        },
        {
          "indexed": true,
          "internalType": "address",
          "name": "tokenOwner",
          "type": "address"
        },
        {
          "indexed": true,
          "internalType": "bytes32",
          "name": "tokenId",
          "type": "bytes32"
        }
      ],
      "name": "RevokedOperator",
      "type": "event"
    },
    {
      "anonymous": false,
      "inputs": [
        {
          "indexed": true,
          "internalType": "address",
          "name": "from",
          "type": "address"
        },
        {
          "indexed": true,
          "internalType": "address",
          "name": "to",
          "type": "address"
        },
        {
          "indexed": true,
          "internalType": "uint256",
          "name": "tokenId",
          "type": "uint256"
        }
      ],
      "name": "Transfer",
      "type": "event"
    },
    {
      "anonymous": false,
      "inputs": [
        {
          "indexed": false,
          "internalType": "address",
          "name": "operator",
          "type": "address"
        },
        {
          "indexed": true,
          "internalType": "address",
          "name": "from",
          "type": "address"
        },
        {
          "indexed": true,
          "internalType": "address",
          "name": "to",
          "type": "address"
        },
        {
          "indexed": true,
          "internalType": "bytes32",
          "name": "tokenId",
          "type": "bytes32"
        },
        {
          "indexed": false,
          "internalType": "bool",
          "name": "force",
          "type": "bool"
        },
        {
          "indexed": false,
          "internalType": "bytes",
          "name": "data",
          "type": "bytes"
        }
      ],
      "name": "Transfer",
      "type": "event"
    },
    {
      "inputs": [
        {
          "internalType": "address",
          "name": "operator",
          "type": "address"
        },
        {
          "internalType": "uint256",
          "name": "tokenId",
          "type": "uint256"
        }
      ],
      "name": "approve",
      "outputs": [],
      "stateMutability": "nonpayable",
      "type": "function"
    },
    {
      "inputs": [
        {
          "internalType": "address",
          "name": "operator",
          "type": "address"
        },
        {
          "internalType": "bytes32",
          "name": "tokenId",
          "type": "bytes32"
        }
      ],
      "name": "authorizeOperator",
      "outputs": [],
      "stateMutability": "nonpayable",
      "type": "function"
    },
    {
      "inputs": [
        {
          "internalType": "address",
          "name": "tokenOwner",
          "type": "address"
        }
      ],
      "name": "balanceOf",
      "outputs": [
        {
          "internalType": "uint256",
          "name": "",
          "type": "uint256"
        }
      ],
      "stateMutability": "view",
      "type": "function"
    },
    {
      "inputs": [
        {
          "internalType": "uint256",
          "name": "tokenId",
          "type": "uint256"
        }
      ],
      "name": "getApproved",
      "outputs": [
        {
          "internalType": "address",
          "name": "",
          "type": "address"
        }
      ],
      "stateMutability": "view",
      "type": "function"
    },
    {
      "inputs": [
        {
          "internalType": "bytes32[]",
          "name": "dataKeys",
          "type": "bytes32[]"
        }
      ],
      "name": "getData",
      "outputs": [
        {
          "internalType": "bytes[]",
          "name": "dataValues",
          "type": "bytes[]"
        }
      ],
      "stateMutability": "view",
      "type": "function"
    },
    {
      "inputs": [
        {
          "internalType": "bytes32",
          "name": "dataKey",
          "type": "bytes32"
        }
      ],
      "name": "getData",
      "outputs": [
        {
          "internalType": "bytes",
          "name": "dataValue",
          "type": "bytes"
        }
      ],
      "stateMutability": "view",
      "type": "function"
    },
    {
      "inputs": [
        {
          "internalType": "bytes32",
          "name": "tokenId",
          "type": "bytes32"
        }
      ],
      "name": "getOperatorsOf",
      "outputs": [
        {
          "internalType": "address[]",
          "name": "",
          "type": "address[]"
        }
      ],
      "stateMutability": "view",
      "type": "function"
    },
    {
      "inputs": [
        {
          "internalType": "string",
          "name": "name_",
          "type": "string"
        },
        {
          "internalType": "string",
          "name": "symbol_",
          "type": "string"
        },
        {
          "internalType": "address",
          "name": "newOwner_",
          "type": "address"
        }
      ],
      "name": "initialize",
      "outputs": [],
      "stateMutability": "nonpayable",
      "type": "function"
    },
    {
      "inputs": [],
      "name": "initialized",
      "outputs": [
        {
          "internalType": "uint8",
          "name": "",
          "type": "uint8"
        }
      ],
      "stateMutability": "view",
      "type": "function"
    },
    {
      "inputs": [],
      "name": "initializing",
      "outputs": [
        {
          "internalType": "bool",
          "name": "",
          "type": "bool"
        }
      ],
      "stateMutability": "view",
      "type": "function"
    },
    {
      "inputs": [
        {
          "internalType": "address",
          "name": "tokenOwner",
          "type": "address"
        },
        {
          "internalType": "address",
          "name": "operator",
          "type": "address"
        }
      ],
      "name": "isApprovedForAll",
      "outputs": [
        {
          "internalType": "bool",
          "name": "",
          "type": "bool"
        }
      ],
      "stateMutability": "view",
      "type": "function"
    },
    {
      "inputs": [
        {
          "internalType": "address",
          "name": "operator",
          "type": "address"
        },
        {
          "internalType": "bytes32",
          "name": "tokenId",
          "type": "bytes32"
        }
      ],
      "name": "isOperatorFor",
      "outputs": [
        {
          "internalType": "bool",
          "name": "",
          "type": "bool"
        }
      ],
      "stateMutability": "view",
      "type": "function"
    },
    {
      "inputs": [],
      "name": "name",
      "outputs": [
        {
          "internalType": "string",
          "name": "",
          "type": "string"
        }
      ],
      "stateMutability": "view",
      "type": "function"
    },
    {
      "inputs": [],
      "name": "owner",
      "outputs": [
        {
          "internalType": "address",
          "name": "",
          "type": "address"
        }
      ],
      "stateMutability": "view",
      "type": "function"
    },
    {
      "inputs": [
        {
          "internalType": "uint256",
          "name": "tokenId",
          "type": "uint256"
        }
      ],
      "name": "ownerOf",
      "outputs": [
        {
          "internalType": "address",
          "name": "",
          "type": "address"
        }
      ],
      "stateMutability": "view",
      "type": "function"
    },
    {
      "inputs": [],
      "name": "renounceOwnership",
      "outputs": [],
      "stateMutability": "nonpayable",
      "type": "function"
    },
    {
      "inputs": [
        {
          "internalType": "address",
          "name": "operator",
          "type": "address"
        },
        {
          "internalType": "bytes32",
          "name": "tokenId",
          "type": "bytes32"
        }
      ],
      "name": "revokeOperator",
      "outputs": [],
      "stateMutability": "nonpayable",
      "type": "function"
    },
    {
      "inputs": [
        {
          "internalType": "address",
          "name": "from",
          "type": "address"
        },
        {
          "internalType": "address",
          "name": "to",
          "type": "address"
        },
        {
          "internalType": "uint256",
          "name": "tokenId",
          "type": "uint256"
        }
      ],
      "name": "safeTransferFrom",
      "outputs": [],
      "stateMutability": "nonpayable",
      "type": "function"
    },
    {
      "inputs": [
        {
          "internalType": "address",
          "name": "from",
          "type": "address"
        },
        {
          "internalType": "address",
          "name": "to",
          "type": "address"
        },
        {
          "internalType": "uint256",
          "name": "tokenId",
          "type": "uint256"
        },
        {
          "internalType": "bytes",
          "name": "data",
          "type": "bytes"
        }
      ],
      "name": "safeTransferFrom",
      "outputs": [],
      "stateMutability": "nonpayable",
      "type": "function"
    },
    {
      "inputs": [
        {
          "internalType": "bytes32[]",
          "name": "dataKeys",
          "type": "bytes32[]"
        },
        {
          "internalType": "bytes[]",
          "name": "dataValues",
          "type": "bytes[]"
        }
      ],
      "name": "setData",
      "outputs": [],
      "stateMutability": "nonpayable",
      "type": "function"
    },
    {
      "inputs": [
        {
          "internalType": "bytes32",
          "name": "dataKey",
          "type": "bytes32"
        },
        {
          "internalType": "bytes",
          "name": "dataValue",
          "type": "bytes"
        }
      ],
      "name": "setData",
      "outputs": [],
      "stateMutability": "nonpayable",
      "type": "function"
    },
    {
      "inputs": [
        {
          "internalType": "bytes4",
          "name": "interfaceId",
          "type": "bytes4"
        }
      ],
      "name": "supportsInterface",
      "outputs": [
        {
          "internalType": "bool",
          "name": "",
          "type": "bool"
        }
      ],
      "stateMutability": "view",
      "type": "function"
    },
    {
      "inputs": [],
      "name": "symbol",
      "outputs": [
        {
          "internalType": "string",
          "name": "",
          "type": "string"
        }
      ],
      "stateMutability": "view",
      "type": "function"
    },
    {
      "inputs": [
        {
          "internalType": "address",
          "name": "tokenOwner",
          "type": "address"
        }
      ],
      "name": "tokenIdsOf",
      "outputs": [
        {
          "internalType": "bytes32[]",
          "name": "",
          "type": "bytes32[]"
        }
      ],
      "stateMutability": "view",
      "type": "function"
    },
    {
      "inputs": [
        {
          "internalType": "bytes32",
          "name": "tokenId",
          "type": "bytes32"
        }
      ],
      "name": "tokenOwnerOf",
      "outputs": [
        {
          "internalType": "address",
          "name": "",
          "type": "address"
        }
      ],
      "stateMutability": "view",
      "type": "function"
    },
    {
      "inputs": [
        {
          "internalType": "uint256",
          "name": "tokenId",
          "type": "uint256"
        }
      ],
      "name": "tokenURI",
      "outputs": [
        {
          "internalType": "string",
          "name": "",
          "type": "string"
        }
      ],
      "stateMutability": "view",
      "type": "function"
    },
    {
      "inputs": [],
      "name": "totalSupply",
      "outputs": [
        {
          "internalType": "uint256",
          "name": "",
          "type": "uint256"
        }
      ],
      "stateMutability": "view",
      "type": "function"
    },
    {
      "inputs": [
        {
          "internalType": "address",
          "name": "from",
          "type": "address"
        },
        {
          "internalType": "address",
          "name": "to",
          "type": "address"
        },
        {
          "internalType": "bytes32",
          "name": "tokenId",
          "type": "bytes32"
        },
        {
          "internalType": "bool",
          "name": "force",
          "type": "bool"
        },
        {
          "internalType": "bytes",
          "name": "data",
          "type": "bytes"
        }
      ],
      "name": "transfer",
      "outputs": [],
      "stateMutability": "nonpayable",
      "type": "function"
    },
    {
      "inputs": [
        {
          "internalType": "address[]",
          "name": "from",
          "type": "address[]"
        },
        {
          "internalType": "address[]",
          "name": "to",
          "type": "address[]"
        },
        {
          "internalType": "bytes32[]",
          "name": "tokenId",
          "type": "bytes32[]"
        },
        {
          "internalType": "bool",
          "name": "force",
          "type": "bool"
        },
        {
          "internalType": "bytes[]",
          "name": "data",
          "type": "bytes[]"
        }
      ],
      "name": "transferBatch",
      "outputs": [],
      "stateMutability": "nonpayable",
      "type": "function"
    },
    {
      "inputs": [
        {
          "internalType": "address",
          "name": "from",
          "type": "address"
        },
        {
          "internalType": "address",
          "name": "to",
          "type": "address"
        },
        {
          "internalType": "uint256",
          "name": "tokenId",
          "type": "uint256"
        }
      ],
      "name": "transferFrom",
      "outputs": [],
      "stateMutability": "nonpayable",
      "type": "function"
    },
    {
      "inputs": [
        {
          "internalType": "address",
          "name": "newOwner",
          "type": "address"
        }
      ],
      "name": "transferOwnership",
      "outputs": [],
      "stateMutability": "nonpayable",
      "type": "function"
    }
  ],
  "bytecode": "0x608060405234801561001057600080fd5b50612948806100206000396000f3fe608060405234801561001057600080fd5b50600436106101e55760003560e01c80634e3e6e9c1161010f5780638da5cb5b116100a2578063c87b56dd11610071578063c87b56dd1461042f578063cf5182ba14610442578063e985e9c514610455578063f2fde38b1461046b57600080fd5b80638da5cb5b146103dd57806395d89b41146103f4578063a3b261f2146103fc578063b88d4fde1461041c57600080fd5b80636352211e116100de5780636352211e1461039c57806370a08231146103af578063715018a6146103c25780637f23690c146103ca57600080fd5b80634e3e6e9c14610343578063511b69521461036357806354f6127f14610376578063559088681461038957600080fd5b8063158ef93e116101875780632599f159116101565780632599f159146102ed5780632a3654a4146102fd57806342842e0e1461031057806349a6078d1461032357600080fd5b8063158ef93e146102a057806318160ddd146102b5578063217b2270146102c757806323b872dd146102da57600080fd5b8063081812fc116101c3578063081812fc1461023c578063095ea7b3146102675780630b0c6d821461027a57806314a6e2931461028d57600080fd5b806301ffc9a7146101ea57806306fdde0314610212578063077f224a14610227575b600080fd5b6101fd6101f836600461249b565b61047e565b60405190151581526020015b60405180910390f35b61021a6104f6565b604051610209919061277f565b61023a610235366004612533565b610523565b005b61024f61024a366004612445565b61059e565b6040516001600160a01b039091168152602001610209565b61023a6102753660046122d1565b6105f2565b61023a6102883660046122d1565b610649565b61023a61029b3660046123e1565b6106f1565b60005460405160ff9091168152602001610209565b6002545b604051908152602001610209565b61024f6102d5366004612445565b6107c5565b61023a6102e836600461222d565b6107fe565b600054610100900460ff166101fd565b6101fd61030b3660046122d1565b61081e565b61023a61031e36600461222d565b61083a565b610336610331366004612445565b61085a565b604051610209919061267f565b6103566103513660046123ac565b61087c565b6040516102099190612704565b61023a6103713660046121b4565b610930565b61021a610384366004612445565b610998565b61023a6103973660046122fb565b6109a3565b61024f6103aa366004612445565b610a89565b6102b96103bd366004612166565b610a94565b61023a610ab5565b61023a6103d836600461245e565b610ac9565b6000546201000090046001600160a01b031661024f565b61021a610adf565b61040f61040a366004612166565b610b0c565b60405161020991906126cc565b61023a61042a366004612269565b610b30565b61021a61043d366004612445565b610b3e565b61023a6104503660046122d1565b610b8c565b6101fd610463366004612181565b600092915050565b61023a610479366004612166565b610b96565b60006001600160e01b031982167f80ac58cd0000000000000000000000000000000000000000000000000000000014806104e157506001600160e01b031982167f5b5e139f00000000000000000000000000000000000000000000000000000000145b806104f057506104f082610c26565b92915050565b606060006104f07fdeba1e292f8ba88238e10ab3c7f88bd4be4fac56cad5194b6ecceaf653468af1610c64565b600061052f6001610d06565b90508015610547576000805461ff0019166101001790555b610552848484610e3f565b8015610598576000805461ff0019169055604051600181527f7f26b83ff96e1f2b6a682f133852f6798a09c465da95921460cefb38474024989060200160405180910390a15b50505050565b6000816105aa81610eb5565b6000818152600560205260408120906105c282610eed565b9050806105d457506000949350505050565b6105e96105e2600183612827565b8390610ef7565b95945050505050565b6105fc8282610b8c565b806001600160a01b038316610610826107c5565b6001600160a01b03167f8c5be1e5ebec7d5bd14f71427d1e84f3dd0314c0f7b2291e5b200ac8c7c3b92560405160405180910390a45050565b6000610654826107c5565b9050336001600160a01b038216811461069f57604051632d938f5160e11b81526001600160a01b03808416600483015260248201859052821660448201526064015b60405180910390fd5b6001600160a01b0384166106c657604051639577b8b360e01b815260040160405180910390fd5b836001600160a01b0316826001600160a01b031614156106e65750505050565b610598848385610f03565b6106f9610f62565b80518251146107705760405162461bcd60e51b815260206004820152602660248201527f4b657973206c656e677468206e6f7420657175616c20746f2076616c7565732060448201527f6c656e67746800000000000000000000000000000000000000000000000000006064820152608401610696565b60005b82518110156107c0576107b8838281518110610791576107916128e6565b60200260200101518383815181106107ab576107ab6128e6565b6020026020010151610fc3565b600101610773565b505050565b6000818152600360205260408120546001600160a01b0316806104f057604051635747cd1b60e11b815260048101849052602401610696565b6107c083838360001b600160405180602001604052806000815250610930565b600061082982610eb5565b6108338383610fcd565b9392505050565b6107c083838360001b600060405180602001604052806000815250610930565b606061086582610eb5565b60008281526005602052604090206104f090611016565b6060815167ffffffffffffffff811115610898576108986128fc565b6040519080825280602002602001820160405280156108cb57816020015b60608152602001906001900390816108b65790505b50905060005b825181101561092a576108fc8382815181106108ef576108ef6128e6565b6020026020010151610c64565b82828151811061090e5761090e6128e6565b60200260200101819052506109238160010190565b90506108d1565b50919050565b3361093b8185610fcd565b610983576040517f1294d2a9000000000000000000000000000000000000000000000000000000008152600481018590526001600160a01b0382166024820152604401610696565b6109908686868686611023565b505050505050565b60606104f082610c64565b835185511415806109b657508251855114155b806109c357508051855114155b156109fa576040517f93a8311900000000000000000000000000000000000000000000000000000000815260040160405180910390fd5b60005b855181101561099057610a77868281518110610a1b57610a1b6128e6565b6020026020010151868381518110610a3557610a356128e6565b6020026020010151868481518110610a4f57610a4f6128e6565b602002602001015186868681518110610a6a57610a6a6128e6565b6020026020010151610930565b80610a818161289f565b9150506109fd565b60006104f0826107c5565b6001600160a01b03811660009081526004602052604081206104f090610eed565b610abd610f62565b610ac76000611037565b565b610ad1610f62565b610adb8282610fc3565b5050565b606060006104f07f2f0a68ab07768e01943a599e73362a0e17a63a72e94dd2e384d2c1d4db932756610c64565b6001600160a01b03811660009081526004602052604090206060906104f0906110c3565b610598848484600085610930565b60606000610b6b7f9afb95cacc9f95858ec44aa8c3b685511002e30ae54415823f406128b85b238e610c64565b905060006024905060006105e98383848651610b879190612827565b6110ce565b610adb82826111f6565b610b9e610f62565b6001600160a01b038116610c1a5760405162461bcd60e51b815260206004820152602660248201527f4f776e61626c653a206e6577206f776e657220697320746865207a65726f206160448201527f64647265737300000000000000000000000000000000000000000000000000006064820152608401610696565b610c2381611037565b50565b60006001600160e01b031982167f493991450000000000000000000000000000000000000000000000000000000014806104f057506104f082611241565b6000818152600160205260409020805460609190610c819061286a565b80601f0160208091040260200160405190810160405280929190818152602001828054610cad9061286a565b8015610cfa5780601f10610ccf57610100808354040283529160200191610cfa565b820191906000526020600020905b815481529060010190602001808311610cdd57829003601f168201915b50505050509050919050565b60008054610100900460ff1615610da3578160ff166001148015610d295750303b155b610d9b5760405162461bcd60e51b815260206004820152602e60248201527f496e697469616c697a61626c653a20636f6e747261637420697320616c72656160448201527f647920696e697469616c697a65640000000000000000000000000000000000006064820152608401610696565b506000919050565b60005460ff808416911610610e205760405162461bcd60e51b815260206004820152602e60248201527f496e697469616c697a61626c653a20636f6e747261637420697320616c72656160448201527f647920696e697469616c697a65640000000000000000000000000000000000006064820152608401610696565b506000805460ff191660ff92909216919091179055600190565b919050565b600054610100900460ff16610eaa5760405162461bcd60e51b815260206004820152602b60248201527f496e697469616c697a61626c653a20636f6e7472616374206973206e6f74206960448201526a6e697469616c697a696e6760a81b6064820152608401610696565b6107c083838361128f565b6000818152600360205260409020546001600160a01b0316610c2357604051635747cd1b60e11b815260048101829052602401610696565b60006104f0825490565b60006108338383611305565b6000818152600560205260409020610f1b908461132f565b5080826001600160a01b0316846001600160a01b03167f17d5389f6ab6adb2647dfa0aa365c323d37adacc30b33a65310b6158ce1373d560405160405180910390a4505050565b6000546001600160a01b0362010000909104163314610ac75760405162461bcd60e51b815260206004820181905260248201527f4f776e61626c653a2063616c6c6572206973206e6f7420746865206f776e65726044820152606401610696565b610adb8282611344565b600080610fd9836107c5565b9050806001600160a01b0316846001600160a01b0316148061100e5750600083815260056020526040902061100e9085611402565b949350505050565b6060600061083383611424565b611030858585858561147f565b5050505050565b6000546001600160a01b03828116620100009092041614610c2357600080546001600160a01b03838116620100008181027fffffffffffffffffffff0000000000000000000000000000000000000000ffff851617855560405193049190911692909183917f8be0079c531659141344cd1fd0a4f28419497f9722a3daafe3b4186f6b6457e091a35050565b60606104f082611424565b6060816110dc81601f61280f565b101561112a5760405162461bcd60e51b815260206004820152600e60248201527f736c6963655f6f766572666c6f770000000000000000000000000000000000006044820152606401610696565b611134828461280f565b845110156111845760405162461bcd60e51b815260206004820152601160248201527f736c6963655f6f75744f66426f756e64730000000000000000000000000000006044820152606401610696565b6060821580156111a357604051915060008252602082016040526111ed565b6040519150601f8416801560200281840101858101878315602002848b0101015b818310156111dc5780518352602092830192016111c4565b5050858452601f01601f1916604052505b50949350505050565b6112008282611501565b60408051602081018390520160405160208183030381529060405280602001905181019061122e91906125a7565b826001600160a01b0316610610836107c5565b60006001600160e01b031982167f714df77c0000000000000000000000000000000000000000000000000000000014806104f057506301ffc9a760e01b6001600160e01b03198316146104f0565b600054610100900460ff166112fa5760405162461bcd60e51b815260206004820152602b60248201527f496e697469616c697a61626c653a20636f6e7472616374206973206e6f74206960448201526a6e697469616c697a696e6760a81b6064820152608401610696565b6107c08383836115f9565b600082600001828154811061131c5761131c6128e6565b9060005260206000200154905092915050565b6000610833836001600160a01b038416611723565b7fdeba1e292f8ba88238e10ab3c7f88bd4be4fac56cad5194b6ecceaf653468af182141561139e576040517f85c169bd00000000000000000000000000000000000000000000000000000000815260040160405180910390fd5b7f2f0a68ab07768e01943a599e73362a0e17a63a72e94dd2e384d2c1d4db9327568214156113f8576040517f76755b3800000000000000000000000000000000000000000000000000000000815260040160405180910390fd5b610adb8282611816565b6001600160a01b03811660009081526001830160205260408120541515610833565b606081600001805480602002602001604051908101604052809291908181526020018280548015610cfa57602002820191906000526020600020905b8154815260200190600101908083116114605750505050509050919050565b61148c8585858585611865565b6040805160208101859052016040516020818303038152906040528060200190518101906114ba91906125a7565b846001600160a01b0316866001600160a01b03167fddf252ad1be2c89b69c2b068fc378daa952ba7f163c4a11628f55a4df523b3ef60405160405180910390a45050505050565b600061150c826107c5565b9050336001600160a01b038216811461155257604051632d938f5160e11b81526001600160a01b0380841660048301526024820185905282166044820152606401610696565b6001600160a01b03841661157957604051639577b8b360e01b815260040160405180910390fd5b836001600160a01b0316826001600160a01b031614156115995750505050565b60008381526005602052604090206115b19085611a02565b5082826001600160a01b0316856001600160a01b03167f34b797fc5a526f7bf1d2b5de25f6564fd85ae364e3ee939aee7c1ac27871a98860405160405180910390a450505050565b600054610100900460ff166116645760405162461bcd60e51b815260206004820152602b60248201527f496e697469616c697a61626c653a20636f6e7472616374206973206e6f74206960448201526a6e697469616c697a696e6760a81b6064820152608401610696565b61166d81611a17565b6116cf7feafec4d89fa9619884b60000a4d96624a38f7ac2d8d9a604ecf07c12c77e480c60001b6040518060400160405280600481526020017fa4d9662400000000000000000000000000000000000000000000000000000000815250611816565b6116f97fdeba1e292f8ba88238e10ab3c7f88bd4be4fac56cad5194b6ecceaf653468af184611816565b6107c07f2f0a68ab07768e01943a599e73362a0e17a63a72e94dd2e384d2c1d4db93275683611816565b6000818152600183016020526040812054801561180c576000611747600183612827565b855490915060009061175b90600190612827565b90508181146117c057600086600001828154811061177b5761177b6128e6565b906000526020600020015490508087600001848154811061179e5761179e6128e6565b6000918252602080832090910192909255918252600188019052604090208390555b85548690806117d1576117d16128d0565b6001900381819060005260206000200160009055905585600101600086815260200190815260200160002060009055600193505050506104f0565b60009150506104f0565b6000828152600160209081526040909120825161183592840190611eea565b5060405182907fcdf4e344c0d23d4cdd0474039d176c55b19d531070dbe17856bfb993a5b5720b90600090a25050565b6000611870846107c5565b9050856001600160a01b0316816001600160a01b0316146118be57604051632d938f5160e11b81526001600160a01b0380831660048301526024820186905287166044820152606401610696565b6001600160a01b0385166118fe576040517f24ecef4d00000000000000000000000000000000000000000000000000000000815260040160405180910390fd5b3361190a878787611a82565b6119148786611ad4565b6001600160a01b03871660009081526004602052604090206119369086611b25565b506001600160a01b03861660009081526004602052604090206119599086611b31565b506000858152600360205260409081902080547fffffffffffffffffffffffff0000000000000000000000000000000000000000166001600160a01b0389811691821790925591518792918a16907fb333c813a7426a7a11e2b190cad52c44119421594b47f6f32ace6d8c7207b2bf906119d89086908a908a90612655565b60405180910390a46119ec87878786611b3d565b6119f98787878787611c20565b50505050505050565b6000610833836001600160a01b038416611d99565b600054610100900460ff16610c1a5760405162461bcd60e51b815260206004820152602b60248201527f496e697469616c697a61626c653a20636f6e7472616374206973206e6f74206960448201526a6e697469616c697a696e6760a81b6064820152608401610696565b6001600160a01b038316611aa957600160026000828254611aa3919061280f565b90915550505b6001600160a01b0382166107c057600160026000828254611aca9190612827565b9091555050505050565b600081815260056020526040812090611aec82610eed565b905060005b81811015611030576000611b058482610ef7565b9050611b12818787610f03565b5080611b1d8161289f565b915050611af1565b60006108338383611723565b60006108338383611d99565b611b4e84631aed5a8560e21b611de8565b1561059857600084848484604051602001611b6c94939291906125ec565b60408051601f1981840301815290829052631aed5a8560e21b825291506001600160a01b03861690636bb56a1490611bca907f3724c94f0815e936299cca424da4140752198e0beb7931a6e0925d11bc97544c908590600401612766565b600060405180830381600087803b158015611be457600080fd5b505af1158015611bf8573d6000803e3d6000fd5b505050506040513d6000823e601f3d908101601f1916820160405261099091908101906124c5565b611c3184631aed5a8560e21b611de8565b15611d0a57600085858584604051602001611c4f94939291906125ec565b60408051601f1981840301815290829052631aed5a8560e21b825291506001600160a01b03861690636bb56a1490611cad907fc7a120a42b6057a0cbed111fbbfbd52fcd96748c04394f77fc2c3adbe0391e01908590600401612766565b600060405180830381600087803b158015611cc757600080fd5b505af1158015611cdb573d6000803e3d6000fd5b505050506040513d6000823e601f3d908101601f19168201604052611d0391908101906124c5565b5050611030565b81611030576001600160a01b0384163b15611d5c576040517f4349776d0000000000000000000000000000000000000000000000000000000081526001600160a01b0385166004820152602401610696565b6040517f031731370000000000000000000000000000000000000000000000000000000081526001600160a01b0385166004820152602401610696565b6000818152600183016020526040812054611de0575081546001818101845560008481526020808220909301849055845484825282860190935260409020919091556104f0565b5060006104f0565b604080516001600160e01b0319831660248083019190915282518083039091018152604490910182526020810180517bffffffffffffffffffffffffffffffffffffffffffffffffffffffff166301ffc9a760e01b179052905160009190829081906001600160a01b0387169061753090611e64908690612639565b6000604051808303818686fa925050503d8060008114611ea0576040519150601f19603f3d011682016040523d82523d6000602084013e611ea5565b606091505b5091509150602081511015611ec057600093505050506104f0565b818015611ee05750600081806020019051810190611ede91906125a7565b115b9695505050505050565b828054611ef69061286a565b90600052602060002090601f016020900481019282611f185760008555611f5e565b82601f10611f3157805160ff1916838001178555611f5e565b82800160010185558215611f5e579182015b82811115611f5e578251825591602001919060010190611f43565b50611f6a929150611f6e565b5090565b5b80821115611f6a5760008155600101611f6f565b80356001600160a01b0381168114610e3a57600080fd5b600082601f830112611fab57600080fd5b81356020611fc0611fbb836127c3565b612792565b80838252828201915082860187848660051b8901011115611fe057600080fd5b60005b8581101561200657611ff482611f83565b84529284019290840190600101611fe3565b5090979650505050505050565b600082601f83011261202457600080fd5b81356020612034611fbb836127c3565b80838252828201915082860187848660051b890101111561205457600080fd5b60005b8581101561200657813584529284019290840190600101612057565b600082601f83011261208457600080fd5b81356020612094611fbb836127c3565b80838252828201915082860187848660051b89010111156120b457600080fd5b6000805b868110156120f757823567ffffffffffffffff8111156120d6578283fd5b6120e48b88838d0101612115565b86525093850193918501916001016120b8565b509198975050505050505050565b80358015158114610e3a57600080fd5b600082601f83011261212657600080fd5b8135612134611fbb826127e7565b81815284602083860101111561214957600080fd5b816020850160208301376000918101602001919091529392505050565b60006020828403121561217857600080fd5b61083382611f83565b6000806040838503121561219457600080fd5b61219d83611f83565b91506121ab60208401611f83565b90509250929050565b600080600080600060a086880312156121cc57600080fd5b6121d586611f83565b94506121e360208701611f83565b9350604086013592506121f860608701612105565b9150608086013567ffffffffffffffff81111561221457600080fd5b61222088828901612115565b9150509295509295909350565b60008060006060848603121561224257600080fd5b61224b84611f83565b925061225960208501611f83565b9150604084013590509250925092565b6000806000806080858703121561227f57600080fd5b61228885611f83565b935061229660208601611f83565b925060408501359150606085013567ffffffffffffffff8111156122b957600080fd5b6122c587828801612115565b91505092959194509250565b600080604083850312156122e457600080fd5b6122ed83611f83565b946020939093013593505050565b600080600080600060a0868803121561231357600080fd5b853567ffffffffffffffff8082111561232b57600080fd5b61233789838a01611f9a565b9650602088013591508082111561234d57600080fd5b61235989838a01611f9a565b9550604088013591508082111561236f57600080fd5b61237b89838a01612013565b945061238960608901612105565b9350608088013591508082111561239f57600080fd5b5061222088828901612073565b6000602082840312156123be57600080fd5b813567ffffffffffffffff8111156123d557600080fd5b61100e84828501612013565b600080604083850312156123f457600080fd5b823567ffffffffffffffff8082111561240c57600080fd5b61241886838701612013565b9350602085013591508082111561242e57600080fd5b5061243b85828601612073565b9150509250929050565b60006020828403121561245757600080fd5b5035919050565b6000806040838503121561247157600080fd5b82359150602083013567ffffffffffffffff81111561248f57600080fd5b61243b85828601612115565b6000602082840312156124ad57600080fd5b81356001600160e01b03198116811461083357600080fd5b6000602082840312156124d757600080fd5b815167ffffffffffffffff8111156124ee57600080fd5b8201601f810184136124ff57600080fd5b805161250d611fbb826127e7565b81815285602083850101111561252257600080fd5b6105e982602083016020860161283e565b60008060006060848603121561254857600080fd5b833567ffffffffffffffff8082111561256057600080fd5b61256c87838801612115565b9450602086013591508082111561258257600080fd5b5061258f86828701612115565b92505061259e60408501611f83565b90509250925092565b6000602082840312156125b957600080fd5b5051919050565b600081518084526125d881602086016020860161283e565b601f01601f19169290920160200192915050565b60006bffffffffffffffffffffffff19808760601b168352808660601b16601484015250836028830152825161262981604885016020870161283e565b9190910160480195945050505050565b6000825161264b81846020870161283e565b9190910192915050565b6001600160a01b038416815282151560208201526060604082015260006105e960608301846125c0565b6020808252825182820181905260009190848201906040850190845b818110156126c05783516001600160a01b03168352928401929184019160010161269b565b50909695505050505050565b6020808252825182820181905260009190848201906040850190845b818110156126c0578351835292840192918401916001016126e8565b6000602080830181845280855180835260408601915060408160051b870101925083870160005b8281101561275957603f198886030184526127478583516125c0565b9450928501929085019060010161272b565b5092979650505050505050565b82815260406020820152600061100e60408301846125c0565b60208152600061083360208301846125c0565b604051601f8201601f1916810167ffffffffffffffff811182821017156127bb576127bb6128fc565b604052919050565b600067ffffffffffffffff8211156127dd576127dd6128fc565b5060051b60200190565b600067ffffffffffffffff821115612801576128016128fc565b50601f01601f191660200190565b60008219821115612822576128226128ba565b500190565b600082821015612839576128396128ba565b500390565b60005b83811015612859578181015183820152602001612841565b838111156105985750506000910152565b600181811c9082168061287e57607f821691505b6020821081141561092a57634e487b7160e01b600052602260045260246000fd5b60006000198214156128b3576128b36128ba565b5060010190565b634e487b7160e01b600052601160045260246000fd5b634e487b7160e01b600052603160045260246000fd5b634e487b7160e01b600052603260045260246000fd5b634e487b7160e01b600052604160045260246000fdfea264697066735822122074de7bc627cb89092723bea1468f285aabe938da54b2d598b55217d73f68b9f164736f6c63430008070033",
  "linkReferences": {},
  "deployedLinkReferences": {}
}